S02B0000453A5C68676D5C7265706F735C63735C72656C656173655C63736D325C63736D325C6D61696E5C6367
S315080090000020002025920008299200082B920008CB
S315080090104192000843920008599200080000000097
S31508009020FFFFFFFF00000000000000006F9200082D
S3150800903071920008000000007392000875920008FB
S31508009040B9100108C9100108D9100108E91001086A
S31508009050F910010809110108191101082911010857
S315080090603911010849110108591101086911010846
S31508009070791101088911010899110108A911010836
S31508009080B9110108C9110108D9110108E911010826
S31508009090F911010809120108191201082912010813
S315080090A03912010849120108591201086912010802
S315080090B0791201088912010899120108A9120108F2
S315080090C0B9120108C9120108D9120108E9120108E2
S315080090D0F9120108091301081913010829130108CF
S315080090E039130108491301085913010869130108BE
S315080090F0791301088913010899130108A9130108AE
S31508009100000000000000000000000000B91301087C
S31508009110C9130108D9130108E9130108F91301084D
S315080091200914010819140108291401083914010839
S315080091304914010859140108000000000000000045
S31508009140691401087914010889140108000000004F
S315080091500000000000000000000000000000000001
S31508009160000000000000000099140108A914010875
S31508009170B91401080000000000000000000000000B
S3150800918000000000C914010808B500F0C1F81D4D1B
S315080091901D4AAA420BD2D2E900130C3252F8044CEB
S315080091A0C91A9C42F5D9585843F8040BF9E7174AE7
S315080091B0174C0021A24208D252F8083B52F8040C78
S315080091C09842F7D943F8041BFAE7124C124D02F0FD
S315080091D0F1FC2D1BAD100026B54204DD54F8043B06
S315080091E098470136F8E70D4C0D4D2D1BAD1000269E
S315080091F0B54204DD54F8043B98470136F8E70CF00D
S3150800920003FCFEE7289400081C940008289400082C
S315080092103094000830940008309400083094000810
S315080092204094000814480047FEE71EF0040F0CBFE0
S31508009230EFF30880EFF309807146104A1047FEE7FE
S31508009240FEE71EF0040F0CBFEFF30880EFF309806A
S3150800925071460B4A1047FEE71EF0040F0CBFEFF3EA
S315080092600880EFF309807146064A1047FEE7FEE7D5
S31508009270FEE7FEE770470000899100083F92000864
S31508009280579200086D9200081C4B1A6822F4502267
S315080092901A601A6842F480321A601A689103FCD57B
S315080092A0174A520102F18442012111604FF480628B
S315080092B05A60144A116821F0040111606FF07F4169
S315080092C05160116841F0010111600F4A5A6000228D
S315080092D0DA621A6842F080721A601A689201FCD53E
S315080092E00A4A122111605A6842F002025A605A6804
S315080092F002F00C02082AFAD1704700BF001002409B
S315080093002410020010E000E00004110000200240D2
S3150800931038B53C4C2368002243F0010323606260A1
S31508009320236823F0847323F480332360E26223687E
S3150800933023F480232360A260E36843F00103E3601B
S31508009340E36823F00103E360A36943F00103A36123
S31508009350FFF79AFF2C4B2D4A9A6062B62C4ADA60C0
S31508009360A36A43F08053A362A36A23F08053A362DF
S31508009370636943F080536361E36A23F4F873E36235
S31508009380E36A43F48073E362BFF34F8F214DAB6802
S3150800939023F04053AB60AB6842F2107043F0805341
S315080093A0AB6005F0CDF8AB6843F00043AB60AB6843
S315080093B0002BFCDB382005F0C3F8AB68164843F0F1
S315080093C00103AB6006F034FF81232B630023AA68F0
S315080093D042F00402AA602A685207FCD52A6CB2F544
S315080093E0946F00D30133642BF1D1A36A43F0805301
S315080093F0A362A36A23F08053A362636923F08053B0
S31508009400636138BD0010024000ED00E000900008DE
S311080094100003FA0500000050A8650108DA
S3150800941C5070010800200020B0200020B020002049
S3150800942CCC51002025BC0008D5D8000801D9000865
S3090800943CF916010806
S315080094400020704700797047017101207047007944
S31508009450704701710120704700207047002070474F
S3150800946010B50C1A134605D00146224618460CF0CC
S3150800947099FC0346181910BD024A02600022426090
S31508009480704700BF79940008024A026000224260D1
S31508009490704700BF89940008024A026000224260B1
S315080094A0704700BF79AE000838B5CB6804465868DF
S315080094B00D461830012106F063FF05F164001421FA
S315080094C002F05EFB024B236000236360204638BD32
S315080094D015A5000838B5B1F85630A1F8843001232F
S315080094E00C46054681F8863001F1D40002F045FBAA
S315080094F004F1DC0002F041FB034A002384F8403003
S31508009500C5E90023284638BD45B00008012804D01F
S3150800951002280CBF10200020704702207047000068
S3150800952008B5054B984201D90CF086FA2C23584306
S31508009530BDE8084002F060BB5D74D10503680246C9
S3150800954013F8010B136070470368597813F8022B58
S31508009550036042EA01207047024A02600022426024
S31508009560704700BF59950008F0B503460C460F46EC
S31508009570054601F1100C3E4603CE66452860696033
S31508009580374605F10805F6D130682860217D19753A
S31508009590617D5975A17D9975DA75E27D1A76D4E9EA
S315080095A00612C3E9071200225A6283F8282083F8B4
S315080095B026201846F0BD90F8263082B08BB94FF6B3
S315080095C00453ADF8043001238DF80630BDF8043095
S315080095D0002063F30F00BDF8063063F31F4002B0A6
S315080095E07047D0E907329A4218BF90F828304FF6EC
S315080095F0065214BF83F001030023ADF80420E3E705
S3150800960030B589B06B4683E8060090F826300446E4
S315080096100BBB019BCDE90413CDE906135B1A022B9C
S315080096200CBF0125002506D106A8FFF78DFF0123EB
S31508009630A08484F826308DF80C5001238DF80D305F
S315080096409DF80C30002063F307009DF80D3063F396
S315080096500F2009B030BDD0E907329A4209D090F8F8
S31508009660283033B9012380F8283001228DF80C20E0
S31508009670E4E70023F9E784B02DE9F843DDE90E575E
S31508009680044609A880E80E000DF1340C034622466C
S315080096901E4603CE664510605160334602F1080245
S315080096A0F6D1306810607E1B002301227611C4E9CA
S315080096B00523C4E90733A376636216D03046FFF75D
S315080096C02FFF80462C2303FB06866662C4F81C809F
S315080096D0C1462E46B7420AD0314648460122FFF710
S315080096E043FF203609F12C09F4E7B046EAE7701B78
S315080096F040092C2202FB00802B4620629E420AD09B
S315080097005A7D12F0300F626914BF032102210A4400
S3150800971062612033F2E72046BDE8F84304B070479B
S31508009720837E13B58BB94FF60253ADF8003001238B
S315080097308DF80230BDF80030002063F30F00BDF845
S31508009740023063F31F4002B010BDD0E907148C4203
S315080097500DD00846FFF72FFFC0F307432C31002B27
S31508009760F5D001908DF80630019B0093E2E70023BF
S31508009770F8E72DE9F04188B06B4683E80600837E5A
S3150800978005460E461446ABB9541A022CCDE9041206
S31508009790CDE906120CBF0124002405D106A8FFF75F
S315080097A0D3FE01232883AB768DF80C4001238DF870
S315080097B00D3012E0D0E9075804AF454519D0CDE978
S315080097C00464284697E80600FFF71AFF10F47F4F4F
S315080097D005F12C05F1D0ADF80C009DF80C300020F1
S315080097E063F307009DF80D3063F30F2008B0BDE85A
S315080097F0F0810023DBE7000038B500240546016048
S31508009800C0E9014421460C3002F0B4F90823EB61A3
S3150800981005F122036C61AC611846AC75AC76402242
S3150800982021460CF0D9FA05F162030460446084709D
S31508009830847108308342F8D1024B2846C5E90134C1
S3150800984038BD00BF519B0008837D37B50446BBB1C0
S315080098500C3002F0AAF9A3685A1013F0010F04EBB2
S315080098600201636818BFA2586D46284618BFD35828
S31508009870984795E80300043484E8030003B030BD34
S31508009880014AC0E90123F9E7519B000838B50446A7
S315080098900C200D4602F0B0F90346021D95E80300B8
S315080098A082E80300E26E1A60E36638BD82B002A958
S315080098B001E90C00009B1A78042A01BF5A78027045
S315080098C00333436005BF019B8360002301230373B1
S315080098D002B070471FB50B780E2B15D1D1E90123BD
S315080098E0991A022910D902A8CDE90023CDE9022345
S315080098F0FFF724FE02A8FFF727FE4FF60653984205
S3150800990002D1029B1B781BB1002005B05DF804FB51
S315080099100120FAE730B585B06B4683E8060045684E
S3150800992003680C461146AB421CD01A68A24206D1FF
S315080099305A688A4205D014B90A43D20701D50C33AE
S31508009940F1E71B89ADF80C3001238DF80E30BDF810
S315080099500C30002063F30F00BDF80E3063F31F4090
S3150800996005B030BD0023F0E71FB54268203292E803
S31508009970030002AB83E80300074893E80600FFF7F5
S31508009980C9FF019010F47F0F14BFBDF804004FF60D
S31508009990FF7005B05DF804FBF45E01081FB5426868
S315080099A0283292E8030002AB83E80300074893E8ED
S315080099B00600FFF7AFFF019010F47F0F14BFBDF844
S315080099C004004FF6FF7005B05DF804FBF45E01086D
S315080099D082681170826801328260704782681170ED
S315080099E009125170826802328260704710B58CB0D5
S315080099F004AA0DF11E030446019108A80121CDE928
S31508009A00093208920B93FFF7E3FF4FF6815108A836
S31508009A10FFF7E4FF0A2108A8FFF7DAFFA18A08A8DA
S31508009A20FFF7DCFFBDF8041008A8FFF7D7FFBDF85D
S31508009A30061008A8FFF7D2FF002108A8FFF7CEFFF7
S31508009A40C82108A8FFF7CAFF0A9B089A0B93CDE915
S31508009A50022302AB0A92206893E8060004F0B6FED9
S31508009A600CB010BDF8B5002307460C4608461E463E
S31508009A701A46194694F824501DB1658CDAB18D4200
S31508009A8019D30D4694F8281019B1E18CB2B1A94240
S31508009A9014D329460133082B04F10804EAD122B16C
S31508009AA0084B53F82610FFF7A1FF074B3B6000232E
S31508009AB07B603846F8BD1E460122E3E71E460122B2
S31508009AC0E8E700BFE05F01088994000838B5044656
S31508009AD0084672B10023CB6180F820301A4BC26960
S31508009AE053F82210FFF782FF184B236000236360A8
S31508009AF022E08B7E9BB10B4601F1400293F82410BD
S31508009B0019B15D8C018B8D4212D393F8281019B1C7
S31508009B10DD8C018B8D420BD308339A42EED190F837
S31508009B202020C3691AB9072B08D10123D4E743B902
S31508009B3001462046FFF796FF204638BD0133C3612C
S31508009B40CCE7013BFBE700BFE05F0108799400081A
S31508009B508B7D10B5044623B10122FFF7B7FF2046D7
S31508009B6010BD024AC0E90023F9E700BF519B00086F
S31508009B70CA68F8B505468AB991F82030CF699B00BE
S31508009B8003EBC70301F12206F4184FF6FE77F752E6
S31508009B900123A370FFF79AFF2846F8BD024B03601E
S31508009BA000234360F8E700BF719B00082DE9F041E8
S31508009BB004460A78D1E9013086B03E2A0F46CDE937
S31508009BC00230CDE9043000F09380FF2A38D00F2AFE
S31508009BD019D16168624A914215D1A6689EB9C01A20
S31508009BE0032810D913F8015B049304A8FFF7A6FC11
S31508009BF004A8FFF7A9FC4FF68153984203D12DB963
S31508009C00584BC4E9013506B0BDE8F08194F8203018
S31508009C10E1699B0003EBC10304F12202D01805F5A4
S31508009C200051D152012383706D46214628460022F1
S31508009C30FFF74CFF95E80300043484E80300E2E7E5
S31508009C406168484A9142DED1A668002EDBD1C31A64
S31508009C50042BD8D904A8FFF777FC804604A8FFF799
S31508009C6073FC049B1D4615F8012B0495D7E90115CD
S31508009C700532691A8A42C6D8A28A8242C3D1B8F581
S31508009C80006F15D10A29BED95E7804A80233049359
S31508009C90FFF754FC04A8FFF757FC132E054618D106
S31508009CA0B8B9C82104F10C0001F06AFF2E4BA8E7E9
S31508009CB040F601039845A6D194F82030E1699B0047
S31508009CC004F1220203EBC1034FF6FE70D118D052FD
S31508009CD00BE0E36994F82010DB0004F1220203EBA1
S31508009CE0810305F50055D552D11801238B709BE7E2
S31508009CF0C01A052887D91A4612F8011B04920329A7
S31508009D0081D15D7804A802330493FFF71DFCA38A6A
S31508009D1083427FF478AF04A8FFF716FC0123A376E5
S31508009D20D4E901230F4920838A4210D1002B7FF4FE
S31508009D306AAFE36994F82020DB0004F1220103EB03
S31508009D408203CE1801273DB9C852B7706CE7064999
S31508009D508A427FF458AFE9E705F50052CA52F4E79C
S31508009D607994000859950008719B000870B588B069
S31508009D700DF1070304460E4604A80121059307932F
S31508009D80CDF810D0CDF818D0FFF722FE4FF68A414D
S31508009D9004A8FFF723FE032104A8FFF719FE0321F1
S31508009DA004A8FFF715FE02AD002104A8FFF710FE70
S31508009DB0284607F099FBDDE90231C91AC9B204A899
S31508009DC0FFF706FE069B049A0692CDE90223F06881
S31508009DD0079395E8060004F0F9FC06F164000A21E9
S31508009DE001F0CEFE034B236020460023636008B0D3
S31508009DF070BD00BFF3AD000830B589B00DF105039D
S31508009E0004460D4604A8012105930793CDF810D002
S31508009E10CDF818D0FFF7DCFD4FF6854104A8FFF70B
S31508009E20DDFD012104A8FFF7D3FD032104A8FFF7F0
S31508009E30CFFD069B049A0793CDE9022302AB06924F
S31508009E40E86893E8060004F0C1FC05F164000A21FD
S31508009E5001F096FE034B236020460023636009B099
S31508009E6030BD00BF6DAC000830B589B00DF10503F3
S31508009E7004460D4604A8012105930793CDF810D092
S31508009E80CDF818D0FFF7A4FD4FF68F4104A8FFF7C9
S31508009E90A5FD012104A8FFF79BFD0A2104A8FFF7E9
S31508009EA097FD069B049A0793CDE9022302AB069217
S31508009EB0E86893E8060004F089FC05F164000A21C5
S31508009EC001F05EFE034B236020460023636009B061
S31508009ED030BD00BF11AD0008F0B589B001AB05462D
S31508009EE002AC0F4604A8012116460493CDE90543A2
S31508009EF00794FFF76DFD394604A8FFF76FFD0021AB
S31508009F0004A8FFF765FD069B049A0692CDE902238D
S31508009F10E868079394E8060004F058FC314605F112
S31508009F20640001F02DFE09B0F0BD000010B50A224C
S31508009F300446084641F20101FFF7CEFF024B2360B3
S31508009F4000236360204610BD65AD000810B50A22DF
S31508009F50044608464FF69241FFF7BEFF024B2360C0
S31508009F6000236360204610BD19AC000810B50A220C
S31508009F70044608464FF60151FFF7AEFF024B236031
S31508009F8000236360204610BD35AC000810B50A22D0
S31508009F90044608464FF69441FFF79EFF024B23609E
S31508009FA000236360204610BDA5AC000870B591F883
S31508009FB03430B3FA83F30D465B098EB081F854301A
S31508009FC0012106AA0DF1360385F85510064602A8A2
S31508009FD00292CDE903320593FFF7FAFC4FF6864164
S31508009FE002A8FFF7FBFC1A2102A8FFF7F1FC0021E3
S31508009FF002A8FFF7EDFC002102A8FFF7E9FC1024F0
S3150800A000002102A8FFF7E4FC013CF9D1072102A8C8
S3150800A010FFF7DEFC102102A8FFF7DAFC214602A8AA
S3150800A020FFF7D6FC049B1C705C709C70DC70049B6C
S3150800A03095F85510043302A80493FFF7C9FC049B4E
S3150800A040029A0593CDE900236B460492E86893E8E3
S3150800A050060004F0BBFB05F164000A2101F090FD3F
S3150800A060024B3046C6E900340EB070BD89AC000814
S3150800A07030B5914206D0836811F8014B5D1C8560A6
S3150800A0801C70F6E730BD2DE9F041A8B0541A054614
S3150800A090684680E806000E4608A804F10A0101444D
S3150800A0A0CDE90401CDE90601012104A89846174621
S3150800A0B0E4B2FFF78DFC4FF6065104A8FFF78EFCB5
S3150800A0C0A11DC9B204A8FFF783FC414604A8FFF7FF
S3150800A0D085FCBDF8B81004A8FFF780FC002104A889
S3150800A0E0FFF776FC214604A8FFF772FC3A4631468C
S3150800A0F004A8FFF7BDFF069B049A0793CDE9022340
S3150800A10002AB0692284693E8060004F05FFB28B0E7
S3150800A110BDE8F08110B588B002AB83E8060090F878
S3150800A12058309BB1039A531A142B0FD88369DC69EC
S3150800A1309B690593CDE90612B4F85020009208AA47
S3150800A1409BB212E90600C068FFF79DFF08B010BD74
S3150800A150F0B585B00C4602AE05463046CF6807F026
S3150800A160C3F9B4F85E30009396E80600B4F85A309E
S3150800A1703846FFF788FF04F164000A2101F000FD64
S3150800A180034B2B60284600236B6005B0F0BD00BF6B
S3150800A19051AC00082DE9F04190B0054601A8884663
S3150800A1A007F0A2F9DDE90174E41B082C28BF08248E
S3150800A1B009AA04F112031344012105A8CDE90523D0
S3150800A1C0CDE90723FFF704FC4FF6834105A8FFF7FF
S3150800A1D005FC04F10E01C9B205A8FFF7F9FB002139
S3150800A1E005A8FFF7F5FB202105A8FFF7F7FB2021B7
S3150800A1F005A8FFF7F3FB012105A8FFF7E9FB0021F6
S3150800A20005A8FFF7E5FB611CC9B203AE05A8FFF771
S3150800A210DFFB304607F068F9DDE903239B1A082BB4
S3150800A2208CBF0821092105A8FFF7D2FB3A19394640
S3150800A23005A8FFF71DFF002105A8FFF7C9FB0021A8
S3150800A24005A8FFF7CBFB002105A8FFF7C7FB079B6F
S3150800A250059A0792CDE90323D8F80C00089396E8E7
S3150800A260060004F0B3FA08F164000A2101F088FC3C
S3150800A270034B2B60284600236B6010B0BDE8F081C5
S3150800A280D9AC000891F83420012A10B5044605D83F
S3150800A29091F83C3043B9FFF77DFF03E0044B0360B8
S3150800A2A000234360204610BDFFF770FEFAE700BFA3
S3150800A2B085A200082DE9F04192B009AE0546304660
S3150800A2C00F4607F011F9DDE909239B1A082B07D871
S3150800A2D039462846FFF7C8FD284612B0BDE8F08182
S3150800A2E001A807F001F9DDE90184A4EB080412AB23
S3150800A2F01D2C4FF0010105A828BF1D24CDE90636FF
S3150800A30008930596FFF764FB42F2090105A8FFF7D3
S3150800A31065FBE6B2202105A8FFF75AFBB11CC9B2B6
S3150800A32005A8FFF755FB711CC9B205A8FFF750FB36
S3150800A330092105A8FFF74CFB08EB0402414605A8CE
S3150800A340FFF796FEDDE90723934204D0002105A80E
S3150800A350FFF73EFBF6E7059A0792CDE9032303AB21
S3150800A36093E80600F86804F031FA0A2107F1640058
S3150800A37001F006FC024B2B6000236B60ACE700BFC4
S3150800A380F5AC0008F0B58BB00D46164603A90DF1DD
S3150800A3901702CDE907210446069106A801211F46A2
S3150800A3A00992FFF715FB4FF6A44106A8FFF716FB1F
S3150800A3B0072106A8FFF70CFB394606A8FFF708FB96
S3150800A3C0B21D314606A8FFF753FE089B069A099365
S3150800A3D0CDE9012301AB0892E86893E8060004F08A
S3150800A3E0F5F905F164000A2101F0CAFB034B236065
S3150800A3F02046002363600BB0F0BD00BF49AD0008DE
S3150800A40083780BB100238370704710B50446243057
S3150800A410FFF7F6FF002384F8283010BD38B5044648
S3150800A4201830FFF7EDFFD4E90745A54204D02046CA
S3150800A430FFF7EBFF2C34F8E738BD000070B505468A
S3150800A4400C4652B101F1200201F1280392E80300FB
S3150800A45083E80300012384F84030E6687068002129
S3150800A460183005F08DFF0123C6F82C336069FFF715
S3150800A470D5FF0026A069FFF7D1FF04F15A00E6616F
S3150800A480FFF7BEFF04F15E00FFF7BAFF024B28464E
S3150800A490C5E9003670BD00BFA99400087FB504461B
S3150800A4A0643001F082FB04F1D40001F07EFB04F174
S3150800A4B0DC0001F07AFB636A5A1013F0010F04EB13
S3150800A4C00201236A18BFA25802AE18BFD3583046F5
S3150800A4D0984796E8030004F1200585E8030004F18F
S3150800A4E07000FFF7B1F9E36893F8302312B993F8CF
S3150800A4F0312362B100226E46A3F830232146304646
S3150800A5000122FFF79BFF96E8030085E8030004B0E5
S3150800A51070BD00002DE9F047DFF86C90A4B0044642
S3150800A5200E4600250DF110080DF18F0ACDE9028AB5
S3150800A53002AB0CCBF168684604F0DAFB9DF80470B0
S3150800A54057B1009A062AF1D1494640460BF00EFC4F
S3150800A550002808BF3D46E9E73DB131462046FFF7EA
S3150800A560E5FC204624B0BDE8F087736E2BB90122BE
S3150800A57031462046FFF762FFF3E7024BC4E9003590
S3150800A580EFE700BF15A500082060010891F85530CF
S3150800A59010B5044613B1002381F8553001F1560071
S3150800A5A0FFF72EFF024B236000236360204610BD91
S3150800A5B085A2000830B50B78052B85B0054603D073
S3150800A5C00024204605B030BDD1E90132D11A03294D
S3150800A5D0F6D9CDE90232CDE9003213F8014B0293E0
S3150800A5E002A8FEF7B1FF002CEAD195F85840002CD6
S3150800A5F0E6D0B5F856308342E2D105F15600FFF7AA
S3150800A600FFFEDEE72DE9F041A8B006460C4608AD88
S3150800A6100DF19F08CDE9045804AF97E80C00E168EE
S3150800A620684604F065FB9DF8043083B9636E43B948
S3150800A630002221463046FFF701FF304628B0BDE824
S3150800A640F081203494E8030086E80300F5E7009BD0
S3150800A6502B44CDE9025302AB0CCB21463846FFF713
S3150800A66025F99DF81C30002BD4D039462046FFF733
S3150800A670A1FF0028CED0DBE730B591F8583089B075
S3150800A68005460C46002B35D00DF10703012104A819
S3150800A69005930793CDF810D0CDF818D0FFF798F9A1
S3150800A6A04FF6934104A8FFF799F9032104A8FFF789
S3150800A6B08FF9B4F8561004A8FFF790F9132104A8E7
S3150800A6C0FFF786F9069B049A0793CDE9022302ABA6
S3150800A6D00692E06893E8060004F078F8322104F15F
S3150800A6E0640001F04DFA21462846FFF78BFF2846FD
S3150800A6F009B030BD0122FFF7A1FEF8E710B5D1E990
S3150800A70002329A4207D05A1C8A601A7883685C1CFF
S3150800A71084601A70F3E710BD2DE9F04190F82650D1
S3150800A7209CB004460E4617469846002D68D13D4D06
S3150800A7300078AA4294BF09250A25FEF7E7FE0544D4
S3150800A7400CAA2B1D1344012104A8CDE90423CDE945
S3150800A7500623FFF73DF94FF6045104A8FFF73EF923
S3150800A760E9B204A8FFF734F9414604A8FFF736F919
S3150800A770217804A8FFF72CF9234608A913F8042B17
S3150800A780012A0CBFA21C04F1140204A807BFCDE9D4
S3150800A7900823CDE90A23CDE90832CDE90A32FFF7C5
S3150800A7A0ADFF204B217D9F4204A826D8FFF710F95C
S3150800A7B0617D04A8FFF70CF9A17D04A8FFF708F945
S3150800A7C0E17D04A8FFF704F9072104A8FFF700F9BB
S3150800A7D0217E04A8FFF7FCF8069B049A0793CDE9A7
S3150800A7E0022302AB0692304693E8060003F0EEFF1A
S3150800A7F0012528461CB0BDE8F081FFF7EFF8D7E73A
S3150800A800D0E9072191420BD090F8282042B9828CD2
S3150800A81000921C3494E806003046FFF734FCE8E75B
S3150800A8200025E6E71F0007002DE9F041837E9AB070
S3150800A83004460E461746002B49D10078FEF766FEF9
S3150800A8400AAAC31D13440546012102A8CDE902231D
S3150800A850CDE90423FFF7BCF84FF6025102A8FFF72B
S3150800A860BDF8E91CC9B202A8FFF7B2F8217802A818
S3150800A870FFF7AEF8234606A913F8042B012A0CBFE6
S3150800A880A21C04F1140202A807BFCDE90623CDE9EC
S3150800A8900823CDE90632CDE90832FFF72FFF01215B
S3150800A8A002A8FFF795F8217D02A8FFF791F8049B07
S3150800A8B0029A0593CDE900236B460492304693E845
S3150800A8C0060003F083FF01201AB0BDE8F081D0E945
S3150800A8D00758454509D02846238B3A463146FFF79F
S3150800A8E01BFF2C350028F4D0EEE70020ECE700002B
S3150800A8F038B50C460546CA696069C968FFF794FF0A
S3150800A90058B9E269E168A069FFF78EFF28B92146C0
S3150800A9102846FFF771FA284638BD024B2B600023FC
S3150800A9206B60F8E707AB000870B50B6990B0064690
S3150800A930187C0C46FEF7EAFD0AAAC31D1344054611
S3150800A940012102A8CDE90223CDE90423FFF740F847
S3150800A9504FF68E4102A8FFF741F8E91CC9B202A8D2
S3150800A960FFF736F82369187CFEF7D0FD811CC9B2BB
S3150800A97002A8FFF72DF82369187CFEF7C7FD411CCE
S3150800A980C9B202A8FFF724F8072102A8FFF720F8A2
S3150800A99023691A7C012A06A903F1140202A809BF31
S3150800A9A012332433CDE90632CDE908321CBFCDE98E
S3150800A9B00623CDE90823FFF7A1FE049B029A059317
S3150800A9C0CDE900236B460492E06893E8060003F09D
S3150800A9D0FDFE04F164000A2101F0D2F8034B33604E
S3150800A9E030460023736010B070BD00BF2DAD00085F
S3150800A9F010B5914209D0D0E902349C4205D013F82B
S3150800AA00014B836001F8014BF3E710BD2DE9F04FC8
S3150800AA10ABB08A46694681E80C00349C81461546E7
S3150800AA2098460AAE06AF0DF1A7030696079397E870
S3150800AA300C00D9F80C1004A804F05AF99DF8143043
S3150800AA409BB9D9F86420002A41D140F2FF13ADF82A
S3150800AA500C309DF80C30002063F307009DF80D308C
S3150800AA6063F30F202BB0BDE8F08F049B9DF82810E8
S3150800AA709DF8292033440DF12B000429CDE90663FE
S3150800AA80099308909DF82A30CDD10E2A22D1022B9F
S3150800AA90C9D908A8FEF752FD08A8FEF755FD504586
S3150800AAA0C1D1089B13F8016B08933CB1099AD31AD4
S3150800AAB0A8EB0502934294BF2360226025B1424663
S3150800AAC029463846FFF794FF8DF80C6001238DF868
S3150800AAD00D30BEE70F2AA6D1032BA4D90BAB08A8C5
S3150800AAE008939DF82BB0FEF729FD08A8FEF72CFD64
S3150800AAF0824598D1BBF1000F95D00CB10023236095
S3150800AB008DF80CB0E2E72DE9F043074691B04869A5
S3150800AB100C46FEF705FE10F47F0F81B203D1A0693B
S3150800AB20FEF7FEFD81B210AB079308AE05AB06969D
S3150800AB3000930DF1180898E80C002046FFF766FF09
S3150800AB4010F47F4FADF8080008D1203494E80300CC
S3150800AB5087E80300384611B0BDE8F0839DF8083051
S3150800AB60E3B904F1100504F118094D4516D0059B03
S3150800AB7055F8040F3344CDE9066398E80600FEF756
S3150800AB80F8FD10F47F4FADF80C00EED09DF80C30B0
S3150800AB9023B121463846FFF7ABFEDBE70122214603
S3150800ABA03846FFF74BFCD5E782B0F0B587B01E46AE
S3150800ABB00D930023CDE9043300930C4606AB1146EA
S3150800ABC0054613E90C0020460E9FFFF71FFF10F4F9
S3150800ABD07F4FADF80C000AD1203494E8030085E8CD
S3150800ABE00300284607B0BDE8F04002B070479DF85C
S3150800ABF00C3053B97B10FA0704EB030148BFE3583E
S3150800AC00284648BF9E59B047EBE701222146284609
S3150800AC10FFF714FCE5E700001FB5002300934FF685
S3150800AC209242034B0446FFF7BFFF204604B010BD0F
S3150800AC306D9F00081FB5002300934FF60152034B82
S3150800AC400446FFF7B1FF204604B010BD6D9D00080D
S3150800AC501FB5002300934FF60652034B0446FFF731
S3150800AC60A3FF204604B010BDF1A800081FB50023B5
S3150800AC7000934FF68542034B0446FFF795FF20469F
S3150800AC8004B010BDAD9F00081FB5002300934FF612
S3150800AC908642034B0446FFF787FF204604B010BDE3
S3150800ACA08DA5000830B585B00446002300934FF6FD
S3150800ACB09442074B0D46FFF777FF2268054B9A42E9
S3150800ACC003D163680BB985F83C30204605B030BD22
S3150800ACD095A10008D9AC00081FB5002300934FF6CC
S3150800ACE08342034B0446FFF75FFF204604B010BDBE
S3150800ACF0B5A200081FB50023009342F20902034BD0
S3150800AD000446FFF751FF204604B010BD699E0008AF
S3150800AD101FB5002300934FF68F42034B0446FFF7F7
S3150800AD2043FF204604B010BD29A900081FB500231B
S3150800AD3000934FF68E42034B0446FFF735FF204635
S3150800AD4004B010BD999400081FB5002300934FF670
S3150800AD50A442034B0446FFF727FF204604B010BD64
S3150800AD60D5940008F0B58DB004AB05AE0DF11D0500
S3150800AD7000930C460896099508AB07460CCB41F29A
S3150800AD8001012046FFF742FE10F47F4FADF80C0094
S3150800AD9007D1203494E8030087E8030038460DB04D
S3150800ADA0F0BD9DF80C30F3B9049B082B1BD10AA8FB
S3150800ADB0CDE90865CDE90A65FEF7C0FB0AA8FEF7E6
S3150800ADC0C3FB0A9B0AA813F8015B0A93FEF7BCFBB0
S3150800ADD00AA8FEF7B9FB40EA0540E0612146384675
S3150800ADE0FFF7B4F8DAE7012221463846FFF726FBD3
S3150800ADF0D4E7F0B58BB003AB04AE0DF1170500939D
S3150800AE000C460696079506AB07460CCB4FF68A41C5
S3150800AE102046FFF7FBFD10F47F4FADF8080007D179
S3150800AE20203494E8030087E8030038460BB0F0BDE9
S3150800AE309DF80830D3B9039B062B17D108A8CDE98E
S3150800AE400665CDE90865FEF77FFB0125A4F85A00DB
S3150800AE5084F85C5008A8FEF777FB84F86050A4F8DD
S3150800AE605E0021463846FFF773F9DEE701222146E0
S3150800AE703846FFF7E3FAD8E72DE9F04391F83C3076
S3150800AE80ADB006460C461BBB91F834309A1E012A13
S3150800AE901ED991F85420B3FA83F35B099A4217D165
S3150800AEA00CAD0DF1AF08CDE9085808AF97E80C00CE
S3150800AEB0E16802A803F01CFF9DF80C3073B9203432
S3150800AEC094E8030086E8030030462DB0BDE8F08319
S3150800AED0002221463046FFF7B1FAF5E7029B2B44DC
S3150800AEE0CDE90853214697E80C0004A8FEF7DEFCD6
S3150800AEF09DF81C30002BD6D004A904F17000FEF78B
S3150800AF0055FEDDE905329DF810103E29CDE90832D7
S3150800AF10CDE90A3204D004A92046FFF74BFBC2E765
S3150800AF20D21A032AF7D91A4612F8019B0A92B9F1DE
S3150800AF30010FF0D15A7802330A93002AEBD10AA8F6
S3150800AF40FEF702FB94F83430A4F8560084F85890BB
S3150800AF50D3B1DDE908239B1A0B2B01D84A46B8E77B
S3150800AF600AA8FEF7EBFA0A9A12F8015B0A926946F2
S3150800AF700DF106023846FFF73BFD2B466A46214689
S3150800AF803046FFF7FFF99FE721463046FEF7A2FA5B
S3150800AF909AE72DE9F0410B78FF2B8CB0054604D0D3
S3150800AFA0002630460CB0BDE8F081D1E90123991A94
S3150800AFB00929F5D905A8CDE90323CDE90523FEF727
S3150800AFC0C3FA064605A8FEF7BFFA804605A8FEF7A7
S3150800AFD0BBFA059B074613F8014B059305A8FEF730
S3150800AFE0B3FA40F601439E42DAD195F85860002E2E
S3150800AFF0D6D0B5F856304345D2D1DDE905239B1A9C
S3150800B0009C42CDD10028CBD1AB69DB695B6A009342
S3150800B01001339BB29F42C3D1142C11D807AF3C44CD
S3150800B0202246394603A8FFF7E3FCED6E002DB8D09B
S3150800B0306B68281DCDE9017401A998472D68F5E7C5
S3150800B0400646AEE72DE9F04191F83430032BAAB055
S3150800B05005460C4602D1FFF70FFB3AE0D1F8D4803B
S3150800B0600AAF06AEB8F1000F21D102AA03AB01213F
S3150800B0703846CDE90B320A920D93FEF7A9FC4FF438
S3150800B0807C413846FEF7AAFC41463846FEF7A0FC46
S3150800B0900C9B0A9A0C92CDE90623E0680D9396E874
S3150800B0A0060003F093FB04F1D40000F066FD0DF1F1
S3150800B0B0A708CDE90678E16896E80C00684603F02B
S3150800B0C017FE9DF8043043B9203494E8030085E858
S3150800B0D0030028462AB0BDE8F081009B3B44CDE931
S3150800B0E00673214696E80C0002A8FEF7DFFB9DF8DA
S3150800B0F01430002BDDD002A904F17000FEF756FDCE
S3150800B10002A92046FFF756FA28B10022214628460A
S3150800B110FFF794F9DDE702A92046FFF73AFF02A9EF
S3150800B1202046FFF747FA02A92046FEF7D3FB38B1B7
S3150800B13004F1D40000F021FD04F1DC0000F01DFD4F
S3150800B1409DF808300E2B12D1DDE9032308A8CDE9B6
S3150800B1500623CDE90823FEF7F1F908A8FEF7F4F966
S3150800B160B0F57C4F03D104F1DC0000F006FDD4F8FD
S3150800B170DC3053B904F1200292E8030004F12803F5
S3150800B18083E803002146284665E7024B2B60002327
S3150800B1906B609EE745B0000810B5044648B1C06923
S3150800B1A008B100F035FD20462821BDE8104000F022
S3150800B1B031BD10BD10B50446006808B1FFF7ECFFB5
S3150800B1C0204610BD2DE9F04F0446A9B016460D4697
S3150800B1D000F0CEFA724B2360724B2363724BA36363
S3150800B1E0724BC4E91134724BC4E903560025C4E90D
S3150800B1F01334C4F85650C4F85A50C4F85E50294659
S3150800B200C4E90555C4E90855C4E90A5584F8345013
S3150800B21084F83C5084F8405084F8555084F85850C7
S3150800B22084F85C5084F8605004F1640000F0A2FCD5
S3150800B230E168E56604F17000FEF7DEFA192104F10B
S3150800B240D40000F097FC332104F1DC0000F092FCF6
S3150800B25010AF07A8A4F8E45006F046F9294660227C
S3150800B2603846DDE907980AF0B7FD42F6292342F683
S3150800B2702422ADF862202169ADF84230012002236C
S3150800B28042F625228DF860008DF880008DF855303D
S3150800B2908DF87530ADF882208DF895308DF8400020
S3150800B2A0D1E900239B1A8DF85430D1E90023CDE962
S3150800B2B01623D1E902239B1A8DF87430D1E902329C
S3150800B2C0CDE91E32A8EB090329468DF894308DF88E
S3150800B2D02C0041F60A0310220CA8CDE92698ADF8F1
S3150800B2E02E300AF079FD28AB282009970A9300F03A
S3150800B2F083FC0DF12408834698E803000DF1080A3B
S3150800B3008AE803000DF1380999E803008DE803007F
S3150800B3100BAF97E80E005846FEF7ADF96369C4F817
S3150800B32014B0384609930B951036FFF743FF40468D
S3150800B330FFF740FF0FCEBC46ACE80F003368CCF8E9
S3150800B34000301C4B0993282040330A9300F054FC24
S3150800B350064698E803008AE8030099E803008DE8A2
S3150800B3600300304697E80E00FEF785F9A369A66143
S3150800B3703846099304AE0B95FFF71CFF4046FFF7C6
S3150800B38019FF214630462A46FFF758F896E8030083
S3150800B39004F1200383E80300204629B0BDE8F08FB6
S3150800B3A008600108BC5E0108CC5E0108DC5E010885
S3150800B3B0EC5E01082860010838B50A4B03600446AC
S3150800B3C0C06E20B1056800F023FC2846F9E76069DD
S3150800B3D0FFF7E2FEA069FFF7DFFE204600F0BFF99F
S3150800B3E0204638BD0860010810B50446FFF7E4FF9B
S3150800B3F02046E82100F00EFC204610BD0D4B10B586
S3150800B400044640F8503B00F05BFC04F1400001F0B4
S3150800B4105DFA04F1300001F059FA04F1200001F058
S3150800B42055FA04F1100001F051FA204600F097F998
S3150800B430204610BD7060010810B50446FFF7DEFF10
S3150800B4402046742100F0E6FB204610BDC368503044
S3150800B45093F8401000F00CBC38B504460D4600F0D1
S3150800B46087F9134B236005F13002E560114904F1B1
S3150800B470100001F0C2F905F138020F4904F1200065
S3150800B48001F088F905F144020C4904F1300001F095
S3150800B4909AF905F14C020A4904F1400001F093F9C2
S3150800B4A00222084904F1500000F0F0FB204638BD9E
S3150800B4B0706001084C6D0108946B0108046B010863
S3150800B4C04C6C0108D467010870B5154604460E464B
S3150800B4D001F50562296801F076F906F65C02A968A5
S3150800B4E004F1100001F06FF906F66402696804F1C8
S3150800B4F0200001F068F906F66C02296904F13000AB
S3150800B50001F07BF906F67402E96804F1400001F0DF
S3150800B51074F9204670BD10B50446403001F0D6F9DE
S3150800B52004F1300001F0D2F904F1200001F0CEF95F
S3150800B53004F1100001F0CAF9204601F0C7F92046C7
S3150800B54010BD406870470020704780887047836840
S3150800B550994205D3C368994202D8416001207047D1
S3150800B5600020704710B5074B044640F8AC3B01F085
S3150800B570ADF904F18C0001F0A9F9204600F0EFF8C6
S3150800B580204610BDC060010810B50446FFF7EAFF63
S3150800B5902046C42100F03EFB204610BDC06808B511
S3150800B5A003681B689847003018BF012008BD40682B
S3150800B5B0FFF7F4BFD0E91A239B1A5810002BB8BF1F
S3150800B5C03330704770B504461430FFF7F3FF002197
S3150800B5D004F17A02884208D0E36F0233934201D31A
S3150800B5E0663BFBE7E3670131F4E7002304F17A06DB
S3150800B5F01D4699420BD0D4F88000821CB24201D372
S3150800B600663AFBE705800133C4F88020F1E700239A
S3150800B610A4F8883070BDFFF7D5BF38B5D0E91A321F
S3150800B620002400F166019A4206D033F8025B2C44E6
S3150800B6308B42F8D3663BFBE7FFF7BCFFB4FBF0F0A1
S3150800B64080B238BD10B50446C06803681B689847C1
S3150800B65043F6DD6303FB00F2D4F8A030B2FBF3F245
S3150800B660D4F8803092B204F11400023B984201D912
S3150800B6706633FBE7C4F88030E36F023B984201D992
S3150800B6806633FBE71A80E367FFF7C7FFA4F888006D
S3150800B69010BD0000F8B5044616460D4600F068F8D9
S3150800B6A02A4BE66004F11406002123606622304620
S3150800B6B00AF092FB264BC4F884300023A4F888309D
S3150800B6C0C4E91F663046FFF775FFC0F1320003462E
S3150800B6D004F17A01002B0ADB04F17A0C0027A3B1E6
S3150800B6E0D4F880108A1C62450AD3663AFBE7E26FF3
S3150800B6F002328A4201D3663AFBE7E2670133E9E799
S3150800B7000F80013BC4F88020E9E720B13046FFF7F7
S3150800B71084FFA4F8880004F18402296904F18C00E6
S3150800B72001F051F8D5E90023A9680A48C4E9292394
S3150800B730C4E9270104F19C02E96804F1AC0001F0B0
S3150800B7404FF8054B2046C4E92F34F8BDC060010800
S3150800B75090600108A0600108B06001087047704752
S3150800B76010B50C21044600F055FA204610BD00001D
S3150800B770024A02600022C0E901227047E06001081F
S3150800B78038B5054655F8104FAC4206D054F8043C77
S3150800B790201F9B6898472468F6E738BD38B50546E4
S3150800B7A055F8104FAC4206D054F8043C201FDB680D
S3150800B7B098472468F6E738BD38B5054655F8104F5A
S3150800B7C0AC4206D054F8043C201F1B6998472468ED
S3150800B7D0F6E738BD38B5054655F8104FAC4206D0E1
S3150800B7E054F8043C201F5B6998472468F6E738BD7F
S3150800B7F010B50346002153F8042F934204D0146869
S3150800B800C2E900112246F8E7C0E90133016010BD1C
S3150800B81010B5054B044640F80C3BFFF7E9FF2046F8
S3150800B820FFF79DFF204610BD0061010810B50446CC
S3150800B830FFF7EEFF2046182100F0ECF9204610BD70
S3150800B84010B5054B044640F80C3BFFF7D1FF2046E0
S3150800B850FFF7DEFF204610BD2061010810B504463B
S3150800B860FFF7EEFF2046182100F0D4F9204610BD58
S3150800B87010B50446FFF77CFF044B23600023E36002
S3150800B88004F11003C4E90433204610BD0061010821
S3150800B89043698B6010B50A1D00F110044C604261C3
S3150800B8A01A60C3680133C36010BDF8B5044605467F
S3150800B8B054F8103F00269C420AD0181F1F68C3E997
S3150800B8C0006603D053F8043C5B6898473B46F2E7AA
S3150800B8D0C5E90444EE60F8BD10B50446FFF7C8FF95
S3150800B8E0014B2360204610BD20610108D0E90123E1
S3150800B8F09B1A82B099423BBF535C8DF804300023F3
S3150800B90001238DF805309DF80430002063F3070005
S3150800B9109DF8053063F30F2002B07047002070478A
S3150800B920D0E90102101A704743681868704700008A
S3150800B93038B5044600F072F91D4D1E4925600C30D5
S3150800B9402246606004F1080000F04AFF00F066F93C
S3150800B950083004F11802E0611749A56104F12000D6
S3150800B96000F03EFF00F05AF904F13002C4E90C5029
S3150800B970124904F1380000F033FF00F04FF90430A3
S3150800B980E06404F14802A5640D4904F1500000F092
S3150800B99027FF0C4B23660C4B63660A33A36604F138
S3150800B9A060020A4904F16C0000F068FF204638BDC1
S3150800B9B040610108C46B0108CC6B0108D46C01080E
S3150800B9C0BC6C0108506101085C610108846C0108BF
S3150800B9D010B504466C3000F079FF04F1500000F011
S3150800B9E075FF04F1380000F071FF04F1200000F043
S3150800B9F06DFF04F1080000F069FF204610BD0079CC
S3150800BA007047027843781AB11B0183F3118870478F
S3150800BA100BB162B6704772B67047C368017183602E
S3150800BA20704719B9C368017183607047836823B189
S3150800BA30013B83600023037170470123FBE7000085
S3150800BA40034A026000220271C0E90221704700BF62
S3150800BA5070610108124B13B51860124B1B6803F589
S3150800BA604A73044643600830FFF736FF04F12000A6
S3150800BA70FFF732FF60680023E36384F838302364F5
S3150800BA8003694FF47A715B6810309847064B606813
S3150800BA906946CDE9003404F0F1FC204602B010BD39
S3150800BAA0B020002090250020E1BA000838B5C36B05
S3150800BAB00133C36304464068836918301B68984796
S3150800BAC094F8383005461BB104F10800FFF774FEF8
S3150800BAD06068836918301B689847401B206438BD26
S3150800BAE04068FFF7E3BF000090F8383070B50446A9
S3150800BAF02BBB00F10806304604F12005FFF740FE8F
S3150800BB002846FFF73DFE0E4B186801F09CF93046B3
S3150800BB10FFF744FE2846FFF741FE012384F8383034
S3150800BB202846FFF749FE94F83830002BF8D13046FE
S3150800BB30FFF750FE2846BDE87040FFF74BBE70BDC4
S3150800BB40C820002037B50446694600254068CDE977
S3150800BB50005504F093FC04F12000FFF771FE04F190
S3150800BB600800FFF76DFE024B20461D6003B030BD8E
S3150800BB70B0200020C0E90011704743680360704791
S3150800BB80C0E900117047436833B102686420504326
S3150800BB90B0FBF3F398B270471846704708B5FFF73D
S3150800BBA0F2FFC0F1640080B208BD03680BB1013B27
S3150800BBB0036070477047FEE708B50AF0D1F85823C6
S3150800BBC003604FF0FF3008BD094A1168013110B50E
S3150800BBD0116041070749034618BF20F007030868A4
S3150800BBE018BF0833C4180C6091680B44936010BDE5
S3150800BBF0B420002000200020FFF7E6BFFFF7E4BFCF
S3150800BC00024A536801335360704700BFB4200020CE
S3150800BC10FFF7F6BFFFF7F4BFFFF7F2BF004870471C
S3150800BC20B4200020024B0349034A5B1AD3607047CD
S3150800BC30C07F0020CC510020B4200020FEE75B1A0C
S3150800BC4010B507D0121A05D0029C241A634393FB39
S3150800BC50F2F31944084610BD406870474160012058
S3150800BC60704700880B8898422CBF00200120704737
S3150800BC70037D2BB921B1C3697E2B9CBF0133C361F8
S3150800BC80017570470023C3610375704710B50273C9
S3150800BC90084A0261084A81600023C0E90623C0E910
S3150800BCA000330375054B04460146186800F040FC4E
S3150800BCB0204610BDCC5E010880610108C420002022
S3150800BCC010B5044B04460146186800F0CFFA204622
S3150800BCD010BD00BFC42000200C3000F0A2B8000040
S3150800BCE038B504460D46FFF743FD2046034B40F89A
S3150800BCF00C3B294600F0ACF8204638BD9061010897
S3150800BD0010B5054B044640F80C3BFFF7D9FF204613
S3150800BD10FFF725FD204610BD9061010838B5044699
S3150800BD200D4600F0CFF805F614221C4904F1200050
S3150800BD3000F030FD05F61C22194904F1300000F028
S3150800BD404FFD05F62422174904F1400000F048FD8E
S3150800BD5005F63C22144904F1500000F082FD05F670
S3150800BD605422124904F1600000F07BFD05F65C22BE
S3150800BD700F4904F1700000F067FD05F664220D49CD
S3150800BD8004F1800000F06DFD05F66C220A4904F105
S3150800BD90900000F03FFD204638BD00BF546D0108F5
S3150800BDA0346B0108746B0108F46B0108246C0108F4
S3150800BDB0446D01083C6D01085C6D010810B5044628
S3150800BDC0903000F083FD04F1800000F07FFD04F15F
S3150800BDD0700000F07BFD04F1600000F077FD04F1CF
S3150800BDE0500000F073FD04F1400000F06FFD04F10F
S3150800BDF0300000F06BFD04F1200000F067FD04F14F
S3150800BE00100000F063FD204610BD10B5044624302E
S3150800BE10FFF707FE94F828102046BDE81040FFF704
S3150800BE2027BF10B50446FFF72DFF04F124000021B3
S3150800BE30BDE81040FFF7F1BD38B504461D46FFF7CB
S3150800BE4025FF294604F12400FFF7FAFD204638BDF0
S3150800BE5038B50C4605460A790968FFF717FFA16841
S3150800BE6005F12400FFF7ECFD284638BD4268136843
S3150800BE70103353600120704770B5054614262B68A9
S3150800BE8003F11002D3F8103A3BB106FB03236C68A2
S3150800BE909C4204D16A60002070BD1346F7E704F19E
S3150800BEA014036B60204600F0C6F80028E7D0236824
S3150800BEB020461D8800F095F845EAC070ECE7406812
S3150800BEC0FFF7DABF10B5074B016010310446416031
S3150800BED0C0E9023000F108020349103000F080FC86
S3150800BEE0204610BDB06101087C6B01080020704730
S3150800BEF04368D3F8100A7047002070474368D3F8A0
S3150800BF00100A70474368D3F8102A91423CBF14229E
S3150800BF1002FB013182B03DBF0B691B88ADF80430C6
S3150800BF20002338BF01238DF80630BDF80430002001
S3150800BF3063F30F00BDF8063063F31F4002B0704785
S3150800BF404368D3F8100A7047032A9DBF4B6853F815
S3150800BF5022300360002398BF012303717047042031
S3150800BF607047406870470268142303FB012101608B
S3150800BF707047000003460E4AD0F8101A70B543F809
S3150800BF80102B0446002561B11846013950F80C2FCC
S3150800BF90824204D01668C2E900553246F8E71433DF
S3150800BFA0F1E7044B20461960FFF7D9FB204670BD20
S3150800BFB020620108C420002010B50446FFF7DAFF06
S3150800BFC0204640F67421FFF725FE204610BDD1F81D
S3150800BFD0102A01F1100312B1142101FB0233036088
S3150800BFE0704750F80C3F834203D01A7D12B91B687C
S3150800BFF0F9E700221046704707B54068D0F8103AAE
S3150800C0008B4216D91423103003FB0100FFF7E9FF12
S3150800C01001238DF804008DF805309DF804300020C2
S3150800C02063F307009DF8053063F30F2003B05DF84E
S3150800C03004FB0023EFE750F80C3F0022834203D0AD
S3150800C040D9691B680A44F9E7104670474B68D3F864
S3150800C050101A914210B504460AD91033142000FB71
S3150800C0600230FFF7E8FF012320602371204610BD48
S3150800C0700023FAE738B5054655F80C4FAC4204D00C
S3150800C0802046FFF7FFFD2468F8E738BD03790A7BE9
S3150800C090934228BF1346037103694B6000F10C02F3
S3150800C0A00A6001611960836801338360704710B5BF
S3150800C0B08B680A7B03600023836000F10C0302711E
S3150800C0C0C0E90333FFF7E2FF10BD024604230371FC
S3150800C0D052F80C3F70B50025934213D099420AD105
S3150800C0E0D1E90046346066608468013C8460C1E931
S3150800C0F000551B68F0E71C7B0679B44228BF344616
S3150800C1000471F6E770BD38B5D0F8103A00F110049E
S3150800C1104BB1142505FB0345A54204D02046FFF77D
S3150800C120A9FF1434F8E738BDFFF7EDBF2DE9F8434A
S3150800C13090F8183A044623B1002380F8183AFFF716
S3150800C140E2FFD4F8107A002304F62C29C4F82C3A16
S3150800C150C4F8303AC4F8343AC4F8383A04F64428ED
S3150800C160C4F8443AC4F8483AC4F84C3AC4F8503AC1
S3150800C17004F11005EFB1142303FB0757BD4218D08D
S3150800C18028462E79FFF72DFF30B104EB8602D2F848
S3150800C1902C3A0133C2F82C3A2846FFF74CFF30B147
S3150800C1A004EB8606D6F8443A0133C6F8443A143501
S3150800C1B0E4E704F63C210023894503D059F8042B0B
S3150800C1C01344F9E7C4F8203A04F6542100238845B5
S3150800C1D003D058F8042B1344F9E7C4F8283ABDE805
S3150800C1E0F8830000D1F8103A2DE9F3470646884649
S3150800C1F0174601F1100503B3142202FB03535B1B18
S3150800C200194A9B1002FB03F92C46B9F1000F16DDFB
S3150800C2104FEA690A514601A80194FFF7A4FE019B5B
S3150800C22039461868FFF71DFD28B1019CA9EB0A0AD3
S3150800C23014340AF1FF3AD146E7E72B46DFE7D8F888
S3150800C240103A13B1142202FB0355AC4206D02168FA
S3150800C2503846FFF706FD002818BF2C4630463460DE
S3150800C26002B0BDE8F08700BFCDCCCCCC37B58A6824
S3150800C27005460C4601466846FFF7B4FF01A829465D
S3150800C280FFF7A5FEDDE90003834202D02146FFF74A
S3150800C2901CFF03B030BD0000F8B50446FFF768FA86
S3150800C2A01E4B23601E4B1F4E1C601F4BC4F8143ACE
S3150800C2B01E4BC4F81C3A0025C4F8243A102704F685
S3150800C2C02C233A462946C4F8105A84F8185AC4F852
S3150800C2D0205AC4F8285A184609F07EFD04F6442365
S3150800C2E0C4F8400AC4F83C6A3A462946184609F092
S3150800C2F073FD0F4BC4F85C3A0E4BC4F8643A0E4B08
S3150800C300C4F8580AC4F8546AC4F8604AC4F8684AB3
S3150800C310C4F86C3AC4F8704A2046F8BD2062010891
S3150800C320C4200020D0610108CC5E0108C061010864
S3150800C330E4610108F86101080C6201088142F0B560
S3150800C34024D002680B680AB9C0E900000BB9C1E934
S3150800C3500011D1E90064D0E900C57768DCF804E08B
S3150800C360CCF80470C6F804E027682E682F602660AB
S3150800C37004680D6805600C604D68446845604C604B
S3150800C3800AB9C1E900220BB9C0E90033F0BD0000C3
S3150800C3902DE9F84380460E461746104608F10C0567
S3150800C3A04FF00009A5F10C039E4200F1140419D0C0
S3150800C3B055F80C3C44F8143C15F8083C0371C0F8D1
S3150800C3C008900C3044E902002946FFF7B7FF55F8F4
S3150800C3D0042C54F80C3C44F80C2C143545F8183C3D
S3150800C3E02046DFE7A6EB08060448B608464326F0CB
S3150800C3F04046142000FB0670BDE8F883CDCCCC0C73
S3150800C40038B50B6803600B79037100230446836013
S3150800C4100D460C30C4E903000C31FFF78FFFA36803
S3150800C420AA68A2602046AB6038BD00002DE9F84F27
S3150800C430002303600371D1F8003A80460E4617467A
S3150800C440EBB14FF0140909FB0319A9EB0605AB106C
S3150800C450364D34465D431423ADB14FEA550A03FB06
S3150800C4600AF23968A05804EB020BFFF7FAFB14230B
S3150800C47038B1013DA5EB0A050BEB0304ECE7894649
S3150800C480E3E75546E8E7A14508D1D6F8002A01238F
S3150800C490802A88F804300ED109F054FC21683868DF
S3150800C4A0FFF7DFFB0028F0D188F80450C8F80040F1
S3150800C4B04046BDE8F88F142303FB0262944209D173
S3150800C4C039462046FFF79CFFD6F8003A0133C6F8EE
S3150800C4D0003AEBE7A2F1140511462846FFF758FF84
S3150800C4E0D6F8003A0133C6F8003AAC420FD055F8F0
S3150800C4F0143D6B612B792B7605F10C0105F12000B3
S3150800C500FFF71CFFEB69AA68EA61AB60EDE73B68D9
S3150800C51023603B79237107F10C0104F10C00FFF746
S3150800C5200DFFA368BA68A260BB60BFE7CDCCCCCCD0
S3150800C53030B589B08A6804460D4601466846FFF755
S3150800C54051FE214603A8FFF742FD0098039B83424C
S3150800C550294603D0FFF79AFD09B030BD03A8FFF7B7
S3150800C560A6FD03AA01A804F11001FFF75FFF069BC9
S3150800C57006A800228342EFD01968C3E900220B46B9
S3150800C580F8E710B50446006C03681B689847B4F9C9
S3150800C59044108142A8BF002104F10C00B8BF012154
S3150800C5A0BDE81040FFF731BC10B50446006C0368BF
S3150800C5B01B689847B4F944108142D8BF002104F19A
S3150800C5C00C00C8BF0121BDE81040FFF71EBC0000E3
S3150800C5D010B5034B03600446FFF792FB204610BDD7
S3150800C5E04062010810B50446FFF7F2FF20464821CD
S3150800C5F0FFF710FB204610BD10B5034B0360044639
S3150800C600FFF77EFB204610BD6062010810B50446A0
S3150800C610FFF7F2FF20464821FFF7FCFA204610BD37
S3150800C620F8B5054648200F4635F9046BFFF7E4FAD6
S3150800C63029460446FFF754FB034B23602764A4F8F6
S3150800C64044602046F8BD00BF40620108F8B50546BB
S3150800C65048200F4635F9046BFFF7CEFA29460446FB
S3150800C660FFF73EFB034B23602764A4F8446020468B
S3150800C670F8BD00BF60620108F8B5054648200F46B8
S3150800C68035F9046BFFF7B8FA29460446FFF728FB85
S3150800C690034B23602764A4F844602046F8BD00BF16
S3150800C6A060620108B0F90400704700207047002056
S3150800C6B07047704710B510210446FFF7ABFA2046BD
S3150800C6C010BD80887047C3888B4205D803898B4282
S3150800C6D002D38180012070470020704710B50446B8
S3150800C6E0C06803681B6898472369218B1A68414309
S3150800C6F052683220BDE81040B1FBF0F118461047E9
S3150800C70010B5054B044640F8203B00F0DFF82046FC
S3150800C710FFF725F8204610BDB062010810B504469B
S3150800C720FFF7EEFF20463021FFF774FA204610BDCA
S3150800C730F8B504460D4617461E46FFF719F80A4B84
S3150800C740A9882A88236009486B88A38360612183A6
S3150800C7506283C4E9037604F11402A96804F120008F
S3150800C76000F031F82046F8BDB0620108A062010861
S3150800C770034B1868D0F8143200F505701B68184783
S3150800C780C8200020024B0146186800F0C3BC00BF51
S3150800C790C820002010B5002383810446016082600A
S3150800C7A04360C381FFF7EEFF204610BD10B5052391
S3150800C7B0436000238381044601608260C381FFF7DA
S3150800C7C0E1FF204610BD10B5022343600023838194
S3150800C7D0044601608260C381FFF7D4FF204610BD7E
S3150800C7E010B50323436000238381044601608260F9
S3150800C7F0C381FFF7C7FF204610BD10B5012343606C
S3150800C80000238381044601608260C381FFF7BAFF73
S3150800C810204610BD10B507234360002383810446D4
S3150800C82001608260C381FFF7ADFF204610BD10B5D9
S3150800C8300C23436000238381044601608260C38120
S3150800C840FFF7A0FF204610BD10B50923436000235B
S3150800C8508381044601608260C381FFF793FF204607
S3150800C86010BD10B50A234360002383810446016086
S3150800C8708260C381FFF786FF204610BD10B50823E6
S3150800C880436000238381044601608260C381FFF709
S3150800C89079FF204610BD10B50468FFF769FF2044EC
S3150800C8A0807810BD10B50468FFF762FF2044007950
S3150800C8B010BD03689B790BB1FFF7F4BF18467047A4
S3150800C8C00368D8439842B8BF18467047074B10B557
S3150800C8D001460446186800F003FB201DFFF7F0FF29
S3150800C8E00D2801D909F02EFA204610BDC8200020CF
S3150800C8F073B5069904460D2A00F28180DFE802F036
S3150800C9000C0C0C0C0C0C0C1D1D326C45596C0023C0
S3150800C9102046237102B070BD1E680D683068FFF7A7
S3150800C920BAFF0028F3D07368002BF0D12B6828468D
S3150800C9301B68984720600123EAE71E680D6830687F
S3150800C940FFF7A9FF0028E2D02B6871681B68284604
S3150800C950984710F47F4FADF80000D8D09DF8003006
S3150800C9602360E8E71E680D683068FFF794FF002823
S3150800C970CDD02B6871681B682846984710F47F0F3E
S3150800C9800090C4D0BDF80030EAE71E680D6830682C
S3150800C990FFF781FF0028BAD02B6871681B68284604
S3150800C9A0984710F47F4FADF80000B0D09DF90030DD
S3150800C9B0D6E71E680D683068FFF76DFF0028A6D019
S3150800C9C02B6871681B682846984710F47F0F0090FB
S3150800C9D09DD0BDF90030C3E71E680D683068FFF7C3
S3150800C9E05AFF002893D02B6872681B682946684648
S3150800C9F098479DF80430002B89D0009BB0E709F0D2
S3150800CA00A1F930B58BB0054608AB081D0C46CDE933
S3150800CA1008120793FFF754FF0023CDE903338DF877
S3150800CA2008308DF8043004F108030093024607AB7A
S3150800CA3028466168FFF75CFF28460BB030BD70B525
S3150800CA400D2900F2D580DFE811F00E00250036002A
S3150800CA506B004A005B006B007D0090009C00C400E0
S3150800CA60AC00B800C40014681D682068FFF71AFFF8
S3150800CA70002800F0BF806368002B40F0BB80A368E5
S3150800CA8019682B6800315B6818BF01212846BDE884
S3150800CA907040184714681D682068FFF703FF0028D0
S3150800CAA000F0A8806368002B40F0A480A2682B6879
S3150800CAB011785B68EAE714681D682068FFF7F2FEDC
S3150800CAC0002800F097806368002B40F09380A268E6
S3150800CAD02B6811885B682846BDE8704018471468BB
S3150800CAE01D682068FFF7DEFE002800F08380636873
S3150800CAF0002B7FD1A2682B6892F900105B68C5E706
S3150800CB0014681D682068FFF7CDFE002872D0636898
S3150800CB10002B6FD1A2682B68B2F900105B68DAE7C0
S3150800CB2014681D682068FFF7BDFE002862D0636898
S3150800CB30002B5FD1A2682B6811685B682846BDE8A0
S3150800CB407040184714681D682068FFF7ABFE002878
S3150800CB5050D0A3681A682B6800325B6818BF012298
S3150800CB6061682846BDE87040184714681D68206843
S3150800CB70FFF798FE00283DD0A2682B6812785B68FC
S3150800CB80EEE714681D682068FFF78CFE002831D090
S3150800CB90A2682B6812885B6861682846BDE8704001
S3150800CBA0184714681D682068FFF77CFE10B3A26852
S3150800CBB02B6892F900205B68D2E714681D68206824
S3150800CBC0FFF770FEB0B1A2682B68B2F900205B6867
S3150800CBD0E2E714681D682068FFF764FE50B1A26892
S3150800CBE02B6861685B6812682846BDE8704018477C
S3150800CBF009F0A8F8002070BD30B589B00446CDE923
S3150800CC00050105AB043007920493FFF759FE00238C
S3150800CC10CDE902338DF804308DF80030014604F171
S3150800CC20080304AA6068FFF70AFF054638B12046DC
S3150800CC30FFF73FFE18B1A38901339BB2A3812846AB
S3150800CC4009B030BD012070474368184738B5D1F898
S3150800CC5040220A4B9A4204460BD1D1F8445245B9B0
S3150800CC6001F5077006F0E7F8054BC4E900352046DC
S3150800CC7038BD044B236000236360F8E7F118010808
S3150800CC80F9CC00084DCC0008036803EB810101606C
S3150800CC907047000010B5EFF31083DB4303F0010380
S3150800CCA072B6B1F87425B1F8764592B2A24208D1A7
S3150800CCB0B1F87825B1F87A4592B2A2420DD10B4A5D
S3150800CCC005E0A1F87625012281F87C25084A02604C
S3150800CCD00022426043B162B610BDA1F87A2501224E
S3150800CCE081F87C25034AF2E772B6F5E795CC000889
S3150800CCF03DCD00084DCC0008D1F84022074B9A429A
S3150800CD0008D1D1F844322BB9054A81F87C3502603E
S3150800CD1043607047034B03600023F9E7F1180108E5
S3150800CD2095CC0008F9CC0008D1F8102201F11003BF
S3150800CD300AB103EB820303607047000037B5154B51
S3150800CD40D1F840229A4204460D4602D1D1F844321F
S3150800CD500BB1114B09E0294601A8FFF7E5FFD5F805
S3150800CD607035019A934206D10C4B23602046002366
S3150800CD70636003B030BD53F8041BC5F870358B8962
S3150800CD80CA899BB29342E6D0CB8105F5077006F0B7
S3150800CD90BDF8DEE7F11801083DCD00084DCC0008C6
S3150800CDA00B681968136808881B681B8898422CBF8B
S3150800CDB0002001207047D0F810222DE9F341804663
S3150800CDC00F4600F11004C2B104EB8202121B921046
S3150800CDD02646002A13DD5510294601A80196FFF7B5
S3150800CDE053FF019B196809680988B9423EBF551B5C
S3150800CDF005F1FF351E1D2A46EBE72246E6E7D8F879
S3150800CE0010320BB104EB8304B44208D030680368CF
S3150800CE101B88BB4288BF002002B0BDE8F081002015
S3150800CE20FAE710B509880446FFF7C5FF014628B199
S3150800CE3004F50770BDE8104006F02DB810BD00F5E2
S3150800CE40077006F028B837B5044600F11005014604
S3150800CE5001A8FFF769FF019BAB4205D055F8041BF3
S3150800CE602046FFF7ECFFF6E703B030BD00F11003EC
S3150800CE70C0F87035B0F8743501339BB2A0F8743534
S3150800CE80012380F87C35704773B50446014601A82E
S3150800CE90FFF74AFF04F11006019BB3420BD056F880
S3150800CEA0045B2846FFF705FD0028F5D0AB8901335A
S3150800CEB09BB2AB81F0E72046FFF7D8FF02B070BD02
S3150800CEC010B5044600F5077005F0BAFFB4F87835D2
S3150800CED001339BB2A4F87835012384F87C3510BD5C
S3150800CEE02DE9F74FD0F810720191064600F11004AB
S3150800CEF0CFB104EB87052D1BAD10A046002D65D0DC
S3150800CF004FEA550B4FEA8B0A08EB0A0901AA49466C
S3150800CF102046FFF745FF40B1013D09F10408A5EB9E
S3150800CF200B0B5D46EAE72546E5E74A4601A9204692
S3150800CF30FFF736FF0028F4D108EB85054FEAAA0A61
S3150800CF40BAF1000F14D04FEA5A0B08EB8B031946B7
S3150800CF5001AA20460093FFF723FF009B30B10AF190
S3150800CF60FF3AAAEB0B0A03F10408E9E7DA46E7E712
S3150800CF7009F10409A5EB0905AD108DB14FEA550A6B
S3150800CF8009EB8A0B5A4601A92046FFF709FF28B97B
S3150800CF90013DA5EB0A050BF10409EEE75546ECE75A
S3150800CFA0C14513D004EB8704A14507D0A4EB0905B6
S3150800CFB040462A46494608F0F5FEA844D6F81032F7
S3150800CFC0A4EB0804A3EBA404C6F8104203B0BDE81A
S3150800CFD0F08F000073B50446FEF7CAFB194B2360B1
S3150800CFE0194B1C60194BC4F81432012384F8183203
S3150800CFF0174B0093174B0193002502AB04F50776F0
S3150800D00013E90600C4F81052304605F01DFF124B0E
S3150800D010C4F86835214604F5AE60C4F86C55FFF7C8
S3150800D02083FEA4F8745584F87C55A4F876553046E2
S3150800D030A4F87855A4F87A5505F0D0FF204602B032
S3150800D04070BD00BFD0620108C8200020CC5E010870
S3150800D05049CC000845CC000895CC00082DE9F74FC7
S3150800D060D1F80072002380460C469146036003718E
S3150800D070BFB101EB870AAAEB0406B6102546A6B18E
S3150800D0804FEA560B05EB8B0319464A462046019391
S3150800D090FFF786FE019B30B1013EA6EB0B061D1D70
S3150800D0A0EDE78A46E7E75E46E9E7AA4506D10123A2
S3150800D0B0802F88F804300ED108F044FE2A464946E7
S3150800D0C02046FFF76DFE0028F1D14046C8F800500B
S3150800D0D003B0BDE8F08F04EB8706B54206D1D9F850
S3150800D0E000302B600137C4F80072EEE7371F0422C0
S3150800D0F03946304608F056FED4F800327A1B01331A
S3150800D100C4F800322946B01A08F04CFED9F80030A7
S3150800D1102B60DAE71FB5019101AA00F1100102A8F8
S3150800D120FFF79CFF05B05DF804FB000010B5074B40
S3150800D1300360044600F5077005F02EFF044B002235
S3150800D14020461A60FEF70BFB204610BDD062010888
S3150800D150C820002010B50446FFF7E8FF20464FF424
S3150800D160B061FEF757FD204610BD37B5044600F5F9
S3150800D170077005F030FFD4F86C355A1013F0010F1C
S3150800D18004EB0201D4F8683518BFA2586D46284644
S3150800D19018BFD358984795E8030004F5AD6484E8AA
S3150800D1A0030003B030BD10B50D291CD8DFE801F027
S3150800D1B01D1D071F1D071F09090F15090F15022039
S3150800D1C010BD18680368BDE810409B6818471868C2
S3150800D1D003689B6898474000F2E7186803689B68ED
S3150800D1E098478000ECE708F0ADFD0120E8E7042049
S3150800D1F0E6E77FB50346406804AAC1430592814223
S3150800D2004FF00002CDE902228DF804208DF80020A7
S3150800D21003F1080305AAB8BF0146FFF7C4FF80B2A9
S3150800D22007B05DF804FB808870478180012070474D
S3150800D2304368188C7047000010B5094B044640F83F
S3150800D240443BFFF743FB04F12C00FFF73FFB04F1D7
S3150800D2501000FFF73BFB2046FEF781FA204610BD7B
S3150800D2601063010810B50446FFF7E6FF204654216F
S3150800D270FEF7D0FC204610BD0346C068198CB3F8EB
S3150800D280402003688A1A51425B6851411847FFF7E4
S3150800D290F3BF08B5B0F8403023B10184FFF7ECFFBF
S3150800D2A0012008BD1846FCE74068FFF7F2BF0000FA
S3150800D2B038B50446FEF75CFA124B2360124B134945
S3150800D2C01A6802F50572E26004F11000FFF762FAC7
S3150800D2D00F4B10490025C4E9093404F124022584BA
S3150800D2E004F12C00FFF76FFA0B4BE363A4F84050E8
S3150800D2F004F13C02094904F14400FFF764FA2046A8
S3150800D30038BD00BF10630108C8200020F46A010870
S3150800D310F0620108146B010800630108AC6B010890
S3150800D320D0E903131A680979526818461047006944
S3150800D330036800215B68184710B5054B044640F89A
S3150800D340143BFFF7C3FA2046FEF709FA204610BD3C
S3150800D3503063010810B50446FFF7EEFF2046242186
S3150800D360FEF758FC204610BD70B504460D46164615
S3150800D370FEF7FEF9054B2360C4E9035632462968D1
S3150800D38004F11400FFF706FA204670BD3063010861
S3150800D39037B5044690F8380030B1206903681B6831
S3150800D3A0984780F00100C0B284F83800E06AA36AA2
S3150800D3B04210C00704EB020148BFA2586D46284632
S3150800D3C048BFD358984795E80300283484E80300F3
S3150800D3D003B030BD4068FEF7E1BB000010B5094B4D
S3150800D3E0044640F86C3BFFF771FA04F14C00FFF76E
S3150800D3F06DFA04F13C00FFF769FA2046FEF7AFF92B
S3150800D400204610BD6063010810B50446FFF7E6FF25
S3150800D41020467C21FEF7FEFB204610BD38B591F864
S3150800D420385004462DB1074B03600023436020465D
S3150800D43038BD01F15C00FEF7A0FB034BC4E90035DB
S3150800D440F5E700BF1DD400086DD5000810B50446E1
S3150800D4508069B4F9301003685B689847E069B4F9E5
S3150800D46032100368BDE810405B68184710B50446DB
S3150800D4708069E2680368B2F910105B689847E0694A
S3150800D480E2680368B2F912105B68BDE810401847F5
S3150800D49070B50446406903681B6898470546A06945
S3150800D4A003681B689847A84204DDA06903682946F3
S3150800D4B05B689847E06903681B689847A84206DADC
S3150800D4C0E069036829465B68BDE87040184770BD87
S3150800D4D010B50446C06903681B689847011E07DD36
S3150800D4E0E069036801395B6809B2BDE8104018476E
S3150800D4F010BD0000F8B50C4601F15C070546384634
S3150800D500FEF753FB94F8386056B93846FEF735FBF4
S3150800D5102046FFF79BFF0B4BC5E900362846F8BDAA
S3150800D520E66D20463EB9FFF7D3FF236A04F12000D3
S3150800D5309847054BF0E7FFF7ABFF044B2B6000233A
S3150800D5406B60EBE76DD500081DD40008F5D400081C
S3150800D55038B50446806903681B6898470546E0693C
S3150800D56003681B6898472586608638BD91F8383069
S3150800D57070B504460D46BBB1086903681B68984731
S3150800D580064670B92846FFF7E3FF2846FFF76EFF01
S3150800D59005F15C00FEF7F1FA054BC4E900362046B2
S3150800D5A070BD002385F83830024AC4E90023F6E73F
S3150800D5B0F5D400086DD50008002380F838305C30B3
S3150800D5C0FEF7DBBAFFF7F8BF82B0F8B506AD04463A
S3150800D5D045F8043F0F461646FEF7CAF81A4B23606D
S3150800D5E00FCDC4E9037604F114060FC62B68336021
S3150800D5F0164BA362164A62630023C4E90B3384F808
S3150800D600383004F13402396804F13C00FFF7C2F8F7
S3150800D61004F15C052269796804F14C00FFF7BAF851
S3150800D620F9682846FEF7A6FA0A4BB968C4E9193517
S3150800D63004F1640204F16C00FFF7C5F82046BDE862
S3150800D640F84002B0704700BF606301086DD5000856
S3150800D650CC5E01085063010884B06B4683E8060077
S3150800D660019B0A46591A142909D8CDE9022304ABA5
S3150800D67013E90600D0F84C0104B0FCF74BBD04B022
S3150800D680704706C94068FFF7E7BF84B06B4683E872
S3150800D69006000291039204AB13E9060004B000F0F9
S3150800D6A0CABE06C94068FFF7F0BF000030B50C4B8C
S3150800D6B087B0CDE90230009202AA04460D4614232B
S3150800D6C006CA00F0D7FC074BC4F84C51284604A9F3
S3150800D6D0CDE90434FCF7DAF8204607B030BD00BFC0
S3150800D6E083D60008A3D6000807B5D0F85831054AEE
S3150800D6F06946CDE90020D86802F06FFA03B05DF8F4
S3150800D70004FB00BF33D80008104B10B5044603606D
S3150800D71000F5C270FFF7DAF804F5B470FFF7D6F82B
S3150800D720D4F8483104F5A4700022984204D0196848
S3150800D730C3E900220B46F8E7D4F8340108B1FEF72E
S3150800D74067FA2046FEF70BF8204610BD80630108ED
S3150800D75010B50446FFF7D8FF20464FF4CA71FEF706
S3150800D76059FA204610BD00001FB5114BD0F86021AC
S3150800D770CDE90230019BD0F8580162F31C030193EE
S3150800D780C2F38071C3F3076361F34513C2F34072B2
S3150800D79062F386138DF80730009B03F0004300936D
S3150800D7A001AA6B4602A901F093FB05B05DF804FBDC
S3150800D7B033D8000810B586B06B4683E80600D0F863
S3150800D7C07C21029B62F31C03C2F380710293C3F3AC
S3150800D7D0076361F34513C2F3407262F38613DDE90A
S3150800D7E000128DF80B304FF60873ADF80C30521A4C
S3150800D7F04FF000030446CDE9043302D004A808F02C
S3150800D800C3FA02A9D4F8580101F0B8FC06B010BD55
S3150800D81006C94068FFF7CEBF82B001F10803103190
S3150800D8200093019102AB13E906000C3002B000F038
S3150800D83002BE4068FFF7F0BF7FB504460D461646A0
S3150800D840FDF796FF154B2360154B0096CDE902347C
S3150800D85004AA12E90600082304F10C0000F00AFCE9
S3150800D860C4F858510F4B104DC4F8603104F5AE7228
S3150800D870C4F85C510D4904F5B470FEF7B1FF0C4BC2
S3150800D880C4F87851C4F87C3104F5BC72094904F52A
S3150800D890C270FEF7A5FF204604B070BD806301087C
S3150800D8A011D80008F9D4FC5880610108FC6A0108FF
S3150800D8B003D4FC58EC6A0108014B0360704700BFAB
S3150800D8C0A063010870472020704720207047002079
S3150800D8D07047000010B5034C2046FFF7EDFF024BDA
S3150800D8E0236010BDCC200020B863010831207047A2
S3150800D8F02420704724207047202070472020704736
S3150800D90010B5034C204600F0C1F8024B236010BD49
S3150800D910D0200020D063010810B5034B03600446ED
S3150800D920FFF7D0FF204610BDEC63010810B504468A
S3150800D930FFF7F2FF20460421FEF76CF9204610BDDA
S3150800D9402DE9F3410D4616461F4623B391F82441A7
S3150800D95024B12224204602B0BDE8F081104BB1F86C
S3150800D96022111868FFF727FA80460028F1D0FEF73B
S3150800D97099FF90B1B5F820512F44BD42EAD056F828
S3150800D980043B0193294601AA4046FFF735F90135BC
S3150800D9900028F2D1DDE72124DCE72324DAE700BFFB
S3150800D9A0C82000202DE9F3410E4614461F4683B3CE
S3150800D9B091F8245125B12225284602B0BDE8F08108
S3150800D9C0164BB1F822111868FFF7F5F980460028BA
S3150800D9D0F1D0FEF760FFF0B1B6F820613744BE42D9
S3150800D9E0EAD0324641466846FFF70BF89DF8043000
S3150800D9F0009A04340136002BDDD0130A04F8042CEF
S3150800DA0004F8033C130C120E04F8023C04F8012C2B
S3150800DA10E5E72125D0E72425CEE700BFC82000206A
S3150800DA20B0F87425B0F876359BB2934209D1B0F8B0
S3150800DA307825B0F87A359BB2934202D190F87C05E6
S3150800DA40704701207047000038B5064D2868FFF773
S3150800DA50E7FF044620B92868FFF708FA204638BDCC
S3150800DA601020FCE7C820002008B5024B1868FFF70D
S3150800DA70D7FF08BDC820002010B50446FFF71CFFD5
S3150800DA80014B2360204610BDEC630108014B03607F
S3150800DA90704700BF0C640108704770B50646D1F898
S3150800DAA00001C0F1FF0393420C46154601D208F067
S3150800DAB049F90021204408F08FF9D4F800311D44B3
S3150800DAC0C4F800512C443460304670BD70B5D0F8A7
S3150800DAD03C41054600F59E76B44207D054F8043C0E
S3150800DAE0201F5B68294698472468F5E770BD70B51E
S3150800DAF0D0F83C41054600F59E76B44207D054F866
S3150800DB00043C201F1B68294698472468F5E770BD22
S3150800DB1070B5D0F83C41054600F59E76B44207D06C
S3150800DB2054F8043C201F9B68294698472468F5E763
S3150800DB3070BDC3681B7801229A40531E0B401CBF58
S3150800DB408918C91A08467047C3681A7883689942BB
S3150800DB5028BF194601239340B1FBF3F101FA02F0FD
S3150800DB607047C3681978012303FA01F28368B3FB87
S3150800DB70F2F303FA01F07047D0F82831FE221A7042
S3150800DB80D0F8283159700223C0F83431704782B072
S3150800DB9070B5044616461D460593FFF7CAFFE368A7
S3150800DBA01978069B2A1806FA01F111448B4206D207
S3150800DBB021212046BDE8704002B0FFF7DDBFD4F84A
S3150800DBC04401036821465D683346A8470146002894
S3150800DBD0EFD1D4F820213244C4F82021BDE87040A2
S3150800DBE002B070472DE9F041044615460F46D0F8B5
S3150800DBF02861FFF79EFFE268D4F82C3111789B1B49
S3150800DC0001221B1A8A40B3FBF2F3AB4205D222214A
S3150800DC102046BDE8F041FFF7AFBFF31900220644DE
S3150800DC20B34202D003F8012BFAE739462046FFF73C
S3150800DC3080FFD4F84461D4F8282133680244D3F825
S3150800DC40008021462B463046C04701460028DFD1D2
S3150800DC50D4F820312B44C4F8203139462046FFF742
S3150800DC6068FFE3681B789D400544C4F83451BDE855
S3150800DC70F08110B50446D0F84401036821469B6834
S3150800DC809847014620B12046BDE81040FFF774BF0B
S3150800DC9010BD70B50446D0F84801E36815461B78F0
S3150800DCA0026805FA03F396680A462146B047014614
S3150800DCB028B9D4F820212A44C4F8202170BD20466A
S3150800DCC0BDE87040FFF758BFC3681878400000F0F9
S3150800DCD00600704711207047F7B5012502AB867E0E
S3150800DCE0857603E90600FF210446FFF72DFF4FF668
S3150800DCF0FF7107462046FFF727FF02462046FFF733
S3150800DD00E9FFD4F8283158702046FFF7DDFFD4F82C
S3150800DD1028319870D4F82831DF70D4F828311A7170
S3150800DD20D4F82831120A5A71D4F828319D71D4F8DA
S3150800DD302831DD710823C4F834312EB9204603B0E2
S3150800DD40BDE8F040FFF7D3BE03B0F0BD0022027471
S3150800DD508276FFF7DDBE13B502AB03E90600009B2A
S3150800DD605B78012B044605D0222102B0BDE810409D
S3150800DD70FFF702BFFFF77DFF237C6FF3820323744F
S3150800DD8002B010BD82B00DF1080C0CE90600009A2D
S3150800DD90D17880F824115268C0F8202102B0FFF724
S3150800DDA095BE70B586B002AB83E8060004460D46FC
S3150800DDB00121FFF7BEFE039EE368721B101A1A784C
S3150800DDC00096012101FA02F22B46B0FBF2F2204638
S3150800DDD0FFF7DDFE06B070BD7FB502AB83E806002F
S3150800DDE04A780B46039900910221FFF7D0FE07B047
S3150800DDF05DF804FB37B502AB03E90600009DEB7836
S3150800DE0080F824316B68C0F820310446FFF75EFEBF
S3150800DE106A780121204603B0BDE83040FFF7E2BE2C
S3150800DE2082B002AB03E90600009B5A78012102B0D2
S3150800DE30FFF7D8BE73B50446D0F8480102AB03E92C
S3150800DE400600036821461B689847054610BBD4F8A8
S3150800DE50283101229A70FF212046FFF775FED4F873
S3150800DE602831D870D4F8286102212046FFF761FED0
S3150800DE70F378181AFF23B3FBF0F33371D4F828317B
S3150800DE8002225A71D4F828319D710723C4F8343117
S3150800DE9002B070BD0146204602B0BDE87040FFF7EB
S3150800DEA06BBE37B502AB03E90600009B5A780446F9
S3150800DEB02AB1212103B0BDE83040FFF75DBED0F896
S3150800DEC048010268214655685A68A847014608B1BC
S3150800DED02046EFE703B030BD13B50446D0F8480135
S3150800DEE002AB03E9060003682146DB68984701464A
S3150800DEF0204621B102B0BDE81040FFF73DBE02B092
S3150800DF00BDE81040FFF722BF37B502AB03E90600AC
S3150800DF1001210546009CFFF70CFE019A121B121AF6
S3150800DF202118284603B0BDE83040FFF7B2BE1FB53A
S3150800DF306B4683E806000B464A788DF80E200446A1
S3150800DF40D0F84801C9789A785B680293036842EA70
S3150800DF500122ADF80C2021461B6902AA9847014602
S3150800DF6010B12046FFF708FE04B010BD13B50446ED
S3150800DF70D0F8440102AB03E906000368DB6898475A
S3150800DF80237CD4F8282160F3000323745370D4F853
S3150800DF902831227D9A70D4F828310022DA70D4F814
S3150800DFA02831228B1A71238BD4F828211B1253711E
S3150800DFB00623C4F8343102B010BD17B402AB03E926
S3150800DFC00600009B5A78044622B1272103B010BCEC
S3150800DFD0FFF7D2BD9A7812B126212046F6E7DB78FC
S3150800DFE0002BF9D103B010BC704782B002AB03E92D
S3150800DFF00600009A5378013B012B03D9272102B06A
S3150800E000FFF7BABD9378002BF8D1D0F828215370C2
S3150800E010D0F828219370D0F82821D3700423C0F8AB
S3150800E020343102B0704707B5D0F8341139B1D0F899
S3150800E030283100930B44019369460368984703B057
S3150800E0405DF804FB1FB56B4683E806000A78FF2ACD
S3150800E05004460DD1019B0393029104AB13E9060014
S3150800E060FFF73AFE204604B0BDE81040FFF7DBBFD5
S3150800E07004B010BD73B50446684680E8060003C8B8
S3150800E0801D4684E80500A3600022069BE36022740F
S3150800E090A261C4E9472284F82421C4E94A22C4F8C3
S3150800E0A0302128460DB1FDF7A7FD4619C4E94A00F7
S3150800E0B0C4F830611DB12A46002107F08DFE002301
S3150800E0C0C4E94D3304F59E73C4E94F33054BC4F8D0
S3150800E0D04431054BC4F82C612046C4F8483102B0D7
S3150800E0E070BD00BFCC200020D02000201B68521A2B
S3150800E0F070B501391C469E18351B002D04DD11F834
S3150800E100015F04F8015BF7E7002AA8BF9B180360C4
S3150800E11070BDF0B585B06B4683E806000E46022151
S3150800E1200546FFF706FD371804462846FFF719FD8A
S3150800E1307678EB68019A1B78041BB44228BF3446EC
S3150800E14004FA03F33B449A4205D221212846FFF7F5
S3150800E15013FD05B0F0BDA6421CD9D5F81C21361B07
S3150800E16002239442EE76AB7605F11C060CD2C5F86E
S3150800E1701C4102AB3A19394603A80296FFF7B6FFC7
S3150800E1800023C5F83431E4E7A21A314603A8FFF79D
S3150800E19084FCEEE7224639462846FFF77AFDD8E79B
S3150800E1A030B585B06B46856883E806000B46511A7C
S3150800E1B08D42044603D22121FFF7DEFC2AE01978B6
S3150800E1C0C839372900F2BC80DFE801F0B1A8A6BA41
S3150800E1D0BABABA9D948B82BABABABABABABABABA3B
S3150800E1E0BABABABABABABABABABABABABABA4C4366
S3150800E1F0BABA79BA70BABABA675E3ABABA55BABA90
S3150800E200372E2A1CCDE9023204AB13E90600204654
S3150800E210FFF762FD204605B0BDE83040FFF703BFB3
S3150800E2202046FFF793FDF5E7CDE9023204AB13E983
S3150800E23006002046FFF79AFEECE700212046BBE7DA
S3150800E240CDE9023204AB13E906002046FFF79AFD32
S3150800E250E0E7CDE9023204AB13E906002046FFF7F2
S3150800E260ACFED7E7CDE9023204AB13E90600204637
S3150800E270FFF7BBFECEE7CDE9023204AB13E9060091
S3150800E2802046FFF768FDC5E7CDE9023204AB13E97E
S3150800E29006002046FFF7C4FDBCE7CDE9023204AB11
S3150800E2A013E906002046FFF7A5FDB3E7CDE90232DC
S3150800E2B004AB13E906002046FFF78EFDAAE7CDE971
S3150800E2C0023204AB13E906002046FFF76AFDA1E710
S3150800E2D0CDE9023204AB13E906002046FFF7AAFD92
S3150800E2E098E7CDE9023204AB13E906002046FFF7AA
S3150800E2F0D8FD8FE7CDE9023204AB13E906002046C4
S3150800E300FFF707FF86E7CDE9023204AB13E90600FB
S3150800E3102046FFF7E1FD7DE729218FE7CDE90232A7
S3150800E32004AB13E906002046FFF7EEFD72E7CDE9D8
S3150800E330023204AB13E906002046FFF7F8FD69E749
S3150800E34020217BE72DE9F04385B06B4683E806007C
S3150800E3504E78C37E9E4204460F460ED02921FFF70B
S3150800E3600BFCD0F82831C27E9A700323C0F83431EA
S3150800E3700123638305B0BDE8F0830221FFF7D9FBCB
S3150800E380054607442046FFF7ECFBE368019A1B782D
S3150800E390451BB54228BF354605FA03F33B449A4266
S3150800E3A004D221212046FFF7E7FBE1E7D4F81C3128
S3150800E3B004F11C0808EB03095B1919D22A464146E1
S3150800E3C003A8FFF76AFB7A19751B02AB394603A83F
S3150800E3D0EDB2CDF80890FFF789FEE5765DB9D4F879
S3150800E3E01C2141462046FFF754FC0123A376C1E7CA
S3150800E3F0C4F81C31E7E70023C4F83431BAE71FB57F
S3150800E4006B4683E806000A78CA2A04460DD1019BA2
S3150800E4100393029104AB13E90600FFF793FF204626
S3150800E42004B0BDE81040FFF7FEBD2921FFF7A4FBA5
S3150800E43001238376F3E73FB46B4683E806000A4672
S3150800E440D0F82811019BFF250D700121C0F8341161
S3150800E450817E01290ED021B1022914D004B030BC26
S3150800E4607047CDE9022304AB13E9060004B030BCBB
S3150800E470FFF7E8BDCDE9022304AB13E9060004B0B3
S3150800E48030BCFFF78DBECDE9022304AB13E90600C5
S3150800E49004B030BCFFF7B3BF08B5037A002B14BF2E
S3150800E4A00820062002F0AAF8002008BD10B5064B81
S3150800E4B0044640F80C3BFEF709FA044B2360204655
S3150800E4C0FFF7EAFA204610BD28640108D063010860
S3150800E4D010B50446FFF7EAFF20461C21FDF79AFB14
S3150800E4E0204610BD10B50446FFF7D0FA064B236048
