S02B0000453A5C7265706F735C63735C72656C656173655C6373335C6373335C6170705C6373332D70726F2EE9
S3150801000000400020290201082D02010833020108D7
S315080100104D020108530201086D02010800000000A3
S31508010020FFFFFFFF00000000000000008702010833
S315080100308D020108000000009302010899020108D7
S3150801004095480208A5480208B5480208C5480208A5
S31508010050D5480208E5480208F54802080549020894
S315080100601549020825490208354902084549020881
S315080100705549020865490208754902088549020871
S3150801008095490208A5490208B5490208C549020861
S31508010090D5490208E5490208F5490208054A020850
S315080100A0154A0208254A0208354A0208454A02083D
S315080100B0554A0208654A0208754A0208854A02082D
S315080100C0954A0208A54A0208B54A0208C54A02081D
S315080100D0D54A0208E54A0208F54A0208054B02080C
S315080100E0154B0208254B0208354B0208454B0208F9
S315080100F0554B0208654B0208754B0208854B0208E9
S31508010100954B0208A54B0208B54B0208C54B0208D8
S31508010110D54B0208E54B0208F54B0208054C0208C7
S31508010120154C0208254C0208354C0208454C0208B4
S31508010130554C0208AD020108AD020108654C0208DA
S31508010140754C0208854C0208954C0208A54C020814
S31508010150B54C0208C54C0208D54C0208E54C020804
S31508010160F54C0208054D0208154D0208254D0208F1
S31508010170354D0208454D0208AD020108AD020108D8
S30908010180554D0208C0
S31508010184333936323035640008B500F0D1F81D4AE2
S315080101941D48824217D300201C4A1D498A421DD391
S315080101A402F0A6F800261B4D1B4C641BA410B4428E
S315080101B41DDC0026194D1A4C641BA410B4421BDC21
S315080101C42DF06EFAFEE7D2E9001394680C32C91AC7
S315080101D49C42DED95D5843F8045BF9E752F8083BBB
S315080101E452F8044C9C42D9D943F8040BFAE755F85A
S315080101F4043B98470136DAE755F8043B9847013634
S31508010204DCE700BF8404010890040108900401088E
S315080102149804010898040108980401089804010837
S31508010224A40401081C48004708B511F027FE1EF06E
S31508010234040F0CBFEFF30880EFF309807146174AE0
S31508010244104708B511F01AFE08B511F017FE1EF08D
S31508010254040F0CBFEFF30880EFF309807146104AC7
S31508010264104708B511F00AFE1EF0040F0CBFEFF390
S315080102740880EFF3098071460A4A104708B511F058
S31508010284FDFD08B511F0FAFD08B511F0F7FD08B53D
S3150801029411F0F4FD704700008D01010847020108B9
S315080102A4670201088102010808B511F0E7FD00009B
S315080102B41B4B1A6822F450221A601A6842F48032D7
S315080102C41A601A689103FCD50121164A520102F1F2
S315080102D4844211604FF4144200219A604FF0E022DF
S315080102E411616FF07F415161116941F00101116199
S315080102F40D4A5A601A6842F080721A601A689201A5
S31508010304FCD540F20361094A11609A6842F0020277
S315080103149A609A6802F00C02082AFAD1704700BF5B
S3150801032400380240743802000C3C4005003C024087
S3150801033470B500244948036843F0010303608460E7
S31508010344036823F0847323F480330360444B4360C6
S31508010354036823F480230360C460FFF7A9FF414BB4
S31508010364414A9A6062B6414ADA60036943F0200356
S315080103740361036923F020030361036B43F020033C
S315080103840363BFF34F8F3A4A136843F0A0431360DC
S315080103944FF4004393614FF480439361436A43F4F2
S315080103A480734362436A23F480734362436C43F460
S315080103B480734364036943F001030361036923F00A
S315080103C401030361036B43F001030363BFF34F8F17
S315080103D4284B294D996841F00101996027494C60D8
S315080103E429682E68314341F4404129604FF48071EC
S315080103F459604FF400111961072159634FF00041FF
S315080104049161996841F08041996019688907FCD519
S31508010414D96CB1F5946FF4D30134642CF1D14FF44A
S31508010424004393614FF080439361436A43F48073B5
S315080104344362436A23F480734362436C23F48073EF
S315080104444364036943F021030361036923F0210328
S315080104540361036B23F02103036370BD0038024073
S315080104641030002400ED00E0000001080003FA053D
S31508010474001402400020014000000240002301400C
S3150801048408BE050800400020904300209043002040
S3150801049418A400207D230108B5F80108E1F801082C
S315080104A838B504461D4600231046C4E900122372CE
S315080104B812F048FF6068012113F008F820684FF424
S315080104C8E13113F09BFB2946206813F0C1FB20682C
S315080104D8294613F0B5FB204638BDF0B51E4685B04A
S315080104E803910446006801AD85E80C00D0E9053298
S315080104F8D21A036AC769511EDB1B48BF9B18CB1A58
S31508010508321D9A4203D90123237205B0F0BD9DF81D
S315080105180C1013F0CBFA2068F1B213F0C7FA9DF85C
S315080105280E10206813F0C2FA9DF80F10206813F010
S31508010538BDFA95E80600206805B0BDE8F04013F055
S3150801054836BB2DE9F0470D4686B069460446286844
S31508010558904681E80C0013F01FFB032881464FF0EB
S31508010568000A05D884F804A0204606B0BDE8F08735
S31508010578042603AB0493059604AF286897E8060092
S31508010588CDF80CA013F0E4FA9DF80D3033444B4529
S31508010598E8D8286813F0A9FA013EFAD19DF80D6042
S315080105A8019B28689E4228BF1E46CDE9048697E81E
S315080105B8060013F0ACFA9DF80D30B34204D80123AE
S315080105C8039823712060CFE7286813F08EFA01365D
S315080105D8F1E7006813F0DABA00487047C111010853
S315080105E8002070470079704701710120704700792A
S315080105F8704701710120704713B5094B09490093E2
S315080106080223019302AB044613E90C0009680C306E
S31508010618FFF763FF0A230448C4E9133302B010BD80
S3150801062841F403089CF303081D0D010813B5094B8A
S31508010638094900930223019302AB044613E90C0006
S3150801064809680C30FFF749FF0A230448C4E913333C
S3150801065802B010BD53F40308A0F30308550D0108A9
S315080106681FB590F824300C49B3FA83F35B098DF862
S31508010678043001AB02930123039304AB044613E93F
S315080106880C0009680C30FFF728FF0A230348C4E958
S31508010698133304B010BD00BF8CF303088D0D010890
S315080106A813B5094B094900930523019302AB04467F
S315080106B813E90C0009680C30FFF70FFF0A230448F1
S315080106C8C4E9133302B010BD61F4030890F30308B3
S315080106D8D10D01081FB54FF40173ADF8043001AB0C
S315080106E8029302230749039304AB044613E90C0052
S315080106F809680C30FFF7F1FE0A230348C4E91333E6
S3150801070804B010BD88F30308C50E010808B540688A
S3150801071800F0FEF808BD002112F0D8BE08B54068F9
S3150801072800F0F9F808BD000038B5084B044603601F
S31508010738406D20B9204601F0A7FA204638BD05685C
S315080107480C2101F00FFE2846F3E700BFB0F30308B2
S3150801075810B50446FFF7E8FF20466C2101F002FEB2
S31508010768204610BD042208B52EF0FAF8B0FA80F032
S31508010778400908BD02780B789A420DD142784B7820
S315080107889A4209D382788B789A4205D1C078CB7870
S31508010798C31A5842584170470020704710B50C1AB9
S315080107A8134605D00146224618462EF0F7F80346A1
S315080107B8181910BD70B58EB0054601A814F0D0FAFF
S315080107C8DDE901641D221D2C4FF0000106A828BF8A
S315080107D81D242EF0FDF801238DF8143009238DF810
S315080107E81730A31C31198DF8153006AA631C304633
S315080107F88DF81630FFF7D2FF05AB08490393043481
S31508010808234605F10C00039A09680494FFF765FE67
S315080108180A230348C5E913330EB070BDA4F30308C8
S315080108288D0E01082DE9F0418EB0054601A814F090
S3150801083897FADDE90178444605AE082C4FF02102FE
S315080108484FF00001304628BF08242EF0C1F84FF4AE
S315080108588173ADF81630234BB8F1080F069303F1E7
S31508010868F55303F5DE1303F6C453079303F10B5344
S3150801087803F53B2303F5FF73089303F15543A3F5E2
S315080108885513A3F67E1309934FF67A43ADF8283024
S315080108984FF0E7038DF82A3004F117038DF8153060
S315080108A804F101038DF82B308CBF08230923391964
S315080108B80DF12D0238468DF82C30FFF76FFF0A49DE
S315080108C81934234605F10C0032460968039604943F
S315080108D8FFF703FE0A230548C5E913330EB0BDE839
S315080108E8F08100BF0611076CA4F30308550E010829
S315080108F80E22064B1968884201D198887047013A31
S3150801090803F10803F6D14FF6FF707047C0F30308E1
S315080109188069FFF7EDBFC069FFF7EABF38B5044636
S315080109280C200D4601F012FD0346021D95E8030049
S3150801093882E80300626D63651A6038BD2DE9F041E6
S315080109488CB06B4683E8060090F84630064663B3D2
S31508010958142A144628BF14240D46002104F1040854
S3150801096805AF424638460B912EF032F896F84530CF
S315080109788DF817408DF81430B6F84A30CDF82C8022
S315080109888DF815301B0A8DF816302B4606AA2C4405
S31508010998E11A00290CDC09490B9B3A46096806F154
S315080109A80C0003970493FFF798FD0CB0BDE8F08196
S315080109B813F8011B02F8011BEAE700BF66F40308EE
S315080109C810B5044621B18369C361012380F8303023
S315080109D82069FFF7A0FE4FF496730248C4E913335A
S315080109E810BD00BF010B0108F0B590F84430044664
S315080109F8022B95B005D0012115B0BDE8F040FFF7E7
S31508010A08DFBF01A814F0ACF9DDE90175372D28BF58
S31508010A18372505AE3C22002130462DF0D9FFB4F81A
S31508010A28483079190DF119023846ADF814308DF8A0
S31508010A381850FFF7B3FE084905352B4604F10C0093
S31508010A483246096803960495FFF747FD0A230348C2
S31508010A58C4E9133315B0F0BD98F30308090E010864
S31508010A6810B504464C3001F03CFC04F1580001F07D
S31508010A7838FC04F1600001F034FCA3692046984764
S31508010A88237DA06133B10023012120462375FFF791
S31508010A9897FFA06110BD000013B5094B09490093DA
S31508010AA80123019302AB044613E90C0009680C30CB
S31508010AB8FFF713FD64230448C4E9133302B010BDD4
S31508010AC834F4030830F40308790B010810B5044611
S31508010AD80121006912F0FAFCE36C43B904F10C0030
S31508010AE8FFF777FD2046BDE81040FFF7D5BF014857
S31508010AF810BD00BF010B0108FFF7E8BF2DE9FF414B
S31508010B08002504462F46DFF85C80CDE9027702AE58
S31508010B1896E80C00684604F10C01FFF712FD9DF8EA
S31508010B2804304BB1009B414630460293FFF722FE3B
S31508010B38002818BF0546E8E745B194F846200AB1E2
S31508010B4884F84630084804B0BDE8F081E36C33B947
S31508010B580121204604B0BDE8F041FFF731BF03483B
S31508010B68F1E700BF35F40308CD0B0108790B010835
S31508010B78FFF7C4BF002313B5CDE90033074902AB14
S31508010B88044613E90C0009680C30FFF7A6FC0A238A
S31508010B980348C4E9133302B010BD00BF94F3030830
S31508010BA80D0F010890F82420012A06D890F82C3050
S31508010BB80BB1FFF7DFBFFFF71FBD0148704700BF3D
S31508010BC8CD0B0108FFF7EEBF7FB5C36D11498365E4
S31508010BD8436E03AA03660023CDE9033380F8303050
S31508010BE88DF8143006238DF80D300C238DF80F3047
S31508010BF8C8238DF8133090F8453009688DF80C30FC
S31508010C0809230C3001920293FFF767FC024807B0E3
S31508010C185DF804FB39F40308191401082DE9F047AE
S31508010C2896B00E46694604461746DDF87C8081E883
S31508010C380C000DF11C0908F1020A53464A4604F14B
S31508010C480C0103A8CDE9059AFFF77BFC9DF810303E
S31508010C589DF80D50002B38D09DF80C30202BECD17F
S31508010C68012DEAD99DF80E20B3789A42E5D19DF867
S31508010C780F20F3789A42E0D19DF81C309DF81D2083
S31508010C8813430FD1023DB8F1000F12D1019B84F825
S31508010C9844505A1004EB6300DB0744BFA358DF59D5
S31508010CA8B84703E001212046FFF78AFE16B0BDE8DA
S31508010CB8F0870DF11E01454594BF491941441E9A0D
S31508010CC80DF11E00FFF76AFDE0E7E36C33B9012170
S31508010CD8204616B0BDE8F047FFF772BEA069E5E7FA
S31508010CE810B50A4B86B004930023044619461846DC
S31508010CF88DE803000593CDE9023306AB204613E9CF
S31508010D080C000349FFF78AFF06B010BD350601082E
S31508010D189CF30308FFF7E4BF10B50A4B86B00493A2
S31508010D2800230446194618468DE803000593CDE9BC
S31508010D38023306AB204613E90C000349FFF76EFF99
S31508010D4806B010BD69060108A0F30308FFF7E4BF5A
S31508010D5810B50A4B86B0049300230446194618466B
S31508010D688DE803000593CDE9023306AB204613E95E
S31508010D780C000349FFF752FF06B010BDA906010882
S31508010D888CF30308FFF7E4BF10B500F1480200F138
S31508010D984A0386B09B1A03930446094B10460493E3
S31508010DA80023039905938DE8030006AB02922046B2
S31508010DB813E90C000349FFF731FF06B010BD00BF60
S31508010DC8F109010890F30308FFF7DEBF10B50A4BCE
S31508010DD886B0049300230446194618468DE803008D
S31508010DE80593CDE9023306AB204613E90C000349FE
S31508010DF8FFF714FF06B010BD2D08010898F303087C
S31508010E08FFF7E4BF30B587B004AD0446284613F0AA
S31508010E18A7FF05990A4A0B4B082998BF1346049355
S31508010E280023194618468DE803000593CDE90233D0
S31508010E3895E80C0020460449FFF7F0FE07B030BDD7
S31508010E48DD060108BD070108A4F30308FFF7DABFA1
S31508010E5810B50A4B86B0049300230446194618466A
S31508010E688DE803000593CDE9023306AB204613E95D
S31508010E780C000349FFF7D2FE06B010BDDD060108CE
S31508010E88A4F30308FFF7E4BF10B50A4B86B0049329
S31508010E9800230446194618468DE803000593CDE94B
S31508010EA8023306AB204613E90C000349FFF7B6FEE1
S31508010EB806B010BDE105010888F30308FFF7E4BF8A
S31508010EC830B5002504462946284687B08DE803002B
S31508010ED8094B0595049306AB13E90C002046CDE9A1
S31508010EE802550649FFF79AFE054B984208BF84F84A
S31508010EF82C5007B030BD00BF0106010894F303085A
S31508010F081D0D0108FFF7DCBFF0B587B00446084692
S31508010F18694681E80C001449FFF72CFC9DF83060F6
S31508010F2805469DF8347068B1009A137A527A8DF895
S31508010F380F3017B94EB1FF2A07D084F84530012377
S31508010F4884F84630284607B0F0BD0DF10F0304931F
S31508010F5801230649059306AB096804F10C0013E950
S31508010F680C00FFF7BAFAEDE759F403083DF403084C
S31508010F7813B50446084602A901E90C000749FFF713
S31508010F88F1FB48B194F8460030B1009B94F8452026
S31508010F989B789B1A5842584102B010BD55F403086C
S31508010FA8F0B504463C2695B005AFCDE9037603AD01
S31508010FB895E80C0004F10C0101A8FFF7C2FA9DF89F
S31508010FC808309BB1CDE90376204695E80C0001A9BE
S31508010FD8FFF7CEFF0028E8D02069FFF79CFB4FF4FE
S31508010FE89673C4E91333044815B0F0BDE36C002BB6
S31508010FF8F2D00248F8E700BF010B010809100108F9
S31508011008FFF7CEBF13B500F1450300930123044644
S315080110180849019302AB13E90C0009680C30FFF77C
S315080110285CFA32232046C4E9133302B0BDE81040FE
S31508011038FFF7B6BF3DF4030837B50446084602A9C3
S3150801104801E90C000B499DF81850FFF78BFB50B1C5
S31508011058009A13794DB113F0010004D02846B2F865
S315080110680130A4F84A3003B030BDD84300F0010076
S31508011078F9E700BF5DF4030813B50446084602A953
S3150801108801E90C000549FFF76DFB20B1009B1B8898
S315080110980BB1A4F8683002B010BD00BF4FF40308BD
S315080110A8F0B587B005460846694681E80C0019492E
S315080110B8FFF760FB9DF830700446D8B1009B1649C6
S315080110C81E7805F10C0003AA04ABB7B195F846706A
S315080110D89FB195F84550B5420FD1049202220124D1
S315080110E8059209680CCB8DF80D408DF80C503C46D5
S315080110F8FFF7F3F9204607B0F0BD0492022200254E
S31508011108059209680CCB8DF80D508DF80C60FFF720
S31508011118E4F9EFE74BF4030847F40308F0B590F848
S315080111282C30044697B053BB90F82430023B012B68
S3150801113825D93C2607AFCDE9057605AD95E80C0016
S3150801114804F10C0103A8FFF7FCF99DF8103053B315
S3150801115894F82430CDE90576B3FA83F35B0901934C
S3150801116801230093204695E80C0003A9FFF7CCFE56
S3150801117878B14FF4FA730D48C4E9133307E02069C7
S31508011188FFF7C9FA4FF49673C4E91333084817B039
S31508011198F0BDCDE90576009003A9204695E80C002F
S315080111A8FFF77EFFC7E70348F1E700BF8112010889
S315080111B8010B0108C1110108FFF7B0BF2DE9F0417C
S315080111C890F824300446032B96B024D0C36C13B385
S315080111D83C2607AFCDE9057605AD95E80C0004F17F
S315080111E80C0103A8FFF7ADF99DF81030002B3FD085
S315080111F84FF00108CDE90576CDF80080204695E837
S315080112080C0003A9FFF718FF68B12046FFF7DCFCB5
S3150801121816B0BDE8F0812046A369E36116B0BDE8BA
S31508011228F041FFF7EFBECDE90576204695E80C00B3
S3150801123803A9FFF79DFE20B141462046FFF7C0FBEB
S31508011248E6E7CDE9000003A995E80C002046FFF773
S315080112585BFE94F82430CDE90576B3FA83F35B0986
S315080112680093204695E80C0003A9FFF719FFB1E793
S315080112780048CDE781120108FFF7A0BFF0B585B090
S315080112880F466946054681E80C0038461149FFF7B5
S3150801129871FA064688B1009C95F8453022789A4233
S315080112A80BD123794BB963793BB97B78A279073B8B
S315080112B89A4202D16D6DE71D15B9304605B0F0BDE4
S315080112C8A379281DCDE9027302A96B6898472D6889
S315080112D8F2E700BF43F403082DE9F04790F82430F4
S315080112E80446032B96B004D116B0BDE8F047FFF7BC
S315080112F889BE836D00F10C0807AE53B9CDE90733EA
S315080113083F4996E80C0040460968FFF7E6F8E36D99
S31508011318A365DFF8F09005AD3C270596069795E88D
S315080113280C00414603A8FFF70CF99DF81030002B6D
S315080113385ED0CDE90567204695E80C0003A9FFF7B5
S3150801134817FE824650B12069FFF7E5F94FF49673FF
S31508011358C4E913332C4816B0BDE8F08703A995E804
S315080113680C002046FFF78AFFCDE90567CDE900AAF3
S3150801137803A995E80C002046FFF7C6FD94F8243022
S31508011388CDE90567B3FA83F35B09009303A995E8E1
S315080113980C002046FFF784FECDE90567204695E847
S315080113A80C0003A9FFF768FE18B1E36DA365636E20
S315080113B823663C230693002305960093204695E861
S315080113C80C0003A9FFF738FE18B12046FFF71AFEE5
S315080113D8C1E7494603A8FFF7CDF900289CD09DF82F
S315080113E81C309DF81D20134396D1636E236693E737
S315080113F8236E0BB10548AEE7A369E361E5E700BFCC
S3150801140880F3030884F30308010B0108191401087A
S31508011418FFF762BF70B504460D46164600F03CFC58
S3150801142820461B4B3246294640F80C3B0123FFF759
S3150801143837F8184A00232262174AC4E90633A26212
S31508011448164AC4E91233C4E90D24154AC4E9143302
S31508011458C4E90F241922C4E917233322206984F819
S31508011468243084F82C3084F8303084F8443084F8F1
S315080114784630A365A4F868306266FFF74CF94FF45D
S315080114889673C4E91333074B2046A36170BD00BFA1
S31508011498B0F3030848F3030858F3030868F3030885
S315080114A878F30308010B010810B50446044B40F804
S315080114B8103B01F02DF8204600F0E6FB204610BD4A
S315080114C8BCF4030810B50446FFF7EEFF20462C21A5
S315080114D800F048FF204610BDC368103093F8301055
S315080114E800F0E3BF38B508461C464AB91B681D69AA
S315080114F80B681B68984701462046A847012038BD4E
S315080115080020FCE713B50C46184662B91B680DF1AD
S3150801151806011B699847236820465B68BDF80610CB
S31508011528984702B010BD0020FBE738B508461C46A7
S315080115384AB91B681D680B681B6898470146204607
S31508011548A847012038BD0020FCE713B50C46184604
S3150801155862B91B680DF107011B689847236820467D
S315080115685B689DF80710984702B010BD0020FBE795
S3150801157838B508461C464AB91B689D680B681B6836
S31508011588984701462046A847012038BD0020FCE7B0
S3150801159813B50C46184662B91B680DF107019B6815
S315080115A89847236820465B689DF80710984702B054
S315080115B810BD0020FBE7000070B50C46054600F093
S315080115C86BFB184B01222B601749EC6005F11000DB
S315080115D800F07AFF102000F0B9FE04F12002134B3F
S315080115E8134903F0F9FA102000F0B0FE114E04F180
S315080115F82802114B114903F0EFFA102000F0A6FE54
S31508011608334604F134020E4903F0E6FA102000F0D5
S315080116189DFE33460B4904F13C0203F0DDFA2846E0
S3150801162870BD00BFBCF40308D0340408B0F403083D
S31508011638AC4A0408A8F40308ACF40308644004088F
S31508011648843C04086C45040813B50446014601227E
S315080116580DF107002DF094F9012220460DF1070135
S315080116682DF08EF902B010BD13B5044601460222C3
S315080116780DF106002DF084F9BDF8063002225BBA91
S3150801168820460DF10601ADF806302DF079F902B0BC
S3150801169810BD70B50D4616460446102000F056FED4
S315080116A833462A462146BDE8704003F095BA00003C
S315080116B82DE9F0410C460546144E0068324601F5F7
S315080116C80561FFF7E6FF3246A86804F65C01FFF7ED
S315080116D8E0FF324604F664016868FFF7DAFF0C4E44
S315080116E82F69102000F032FE3346394604F66C029B
S315080116F803F072FAED68102000F028FE33462946F1
S3150801170804F67402BDE8F04103F066BAA8F40308C2
S31508011718B0F4030830B5044640F2D2450120AB427D
S3150801172800FA02F000F1FF3017D041F2E105AB42A9
S3150801173821D1A568E368C1F140018A1A2DBA1BBAF5
S31508011748C2F12004A2F12001D34005FA04F4234387
S3150801175825FA01F10B43184030BDD4E90235C1F128
S315080117682004A1F12002CB4005FA04F4234325FA03
S3150801177802F21343EFE70020EEE7F0B5144640F20C
S31508011788D24293420F46059907D041F2E1029342A4
S3150801179834D1C4F14003DF1B09BA0122D0E9026535
S315080117A8A4F12003C4F1200C22FA0CFC02FA03F373
S315080117B8A240013A43EA0C0343F1FF33A7F1200C8F
S315080117C802FA0CFCC7F12004BB4022FA04F443EAE6
S315080117D80C032343C7F1200CA7F1200401FA04F4EA
S315080117E821FA0CFC44EA0C04B940BA4071406C4031
S315080117F80A40234072406B40C0E90223F0BD1FB579
S31508011808027D00238DF80420FF2204460169CDE9EB
S315080118180233C361036800911B6969468DF805207F
S3150801182898476946E06810F0C5FD04B010BD81699E
S3150801183831B1C2690A329142C26101D8FFF7DFBFE5
S3150801184870470000F8B504461D460F46164600F0CF
S3150801185823FA054B20462360069BC4E90376A36150
S3150801186800232575E361F8BDD4F4030810B50446C9
S31508011878024B036000F008FA204610BDD4F40308A9
S3150801188810B50468002004B910BD18B96068036862
S315080118981B6898472468F6E7436810B59A68541C84
S315080118A89C601B68995410BD73B544680546A368BE
S315080118B8266822691E4441F2E1039A4218D18DF835
S315080118C8061001220DF106010DF107002DF058F851
S315080118D80DF10700FFF7B8FE012230460DF10701A1
S315080118E82DF04EF82846A3680133A36002B070BDEF
S315080118F88DF80710F0E773B544680546A3682668A6
S3150801190822691E4441F2E1039A4218D18DF806105C
S3150801191801220DF106010DF107002DF031F80DF13F
S315080119280700FFF791FE012230460DF107012DF058
S3150801193827F82846A3680133A36002B070BD8DF85D
S315080119480710F0E773B544680E462368A26805468A
S31508011958991841F2E10322699A424FF001020AD124
S315080119680DF106002DF00CF80DF10600FFF76CFED7
S3150801197801220DF106010DF107002DF001F828469F
S31508011988A3689DF907200133A360327002B070BDC0
S3150801199873B544680E462368A2680546991841F244
S315080119A8E10322699A424FF001020AD10DF10600B4
S315080119B82CF0E6FF0DF10600FFF746FE01220DF1B0
S315080119C806010DF107002CF0DBFF2846A3689DF8F0
S315080119D807200133A360327002B070BD73B544683D
S315080119E80E462368A2680546991841F2E103226959
S315080119F89A424FF001020AD10DF106002CF0C0FFF8
S31508011A080DF10600FFF720FE01220DF106010DF181
S31508011A1807002CF0B5FF2846A3689DF8072001336F
S31508011A28A360327002B070BD73B544680546A368F1
S31508011A38266822691E4441F2E1039A4217D1ADF894
S31508011A480410022201A90DF106002CF099FF0DF1E7
S31508011A580600FFF709FE022230460DF106012CF0B1
S31508011A688FFF2846A3680233A36002B070BDADF89C
S31508011A780610F0E773B544680546A368266822691F
S31508011A881E4441F2E1039A4217D1ADF80410022225
S31508011A9801A90DF106002CF073FF0DF10600FFF7F9
S31508011AA8E3FD022230460DF106012CF069FF2846AE
S31508011AB8A3680233A36002B070BDADF80610F0E75B
S31508011AC873B544680E462368A2680546991841F213
S31508011AD8E10322699A424FF0020207D101A82CF0C4
S31508011AE84FFF01A8FFF7C0FD022201A90DF1060063
S31508011AF82CF046FF2846A368BDF806200233A360E2
S31508011B08328002B070BD73B544680E462368A26870
S31508011B180546991841F2E10322699A424FF00202F1
S31508011B2807D101A82CF02CFF01A8FFF79DFD022279
S31508011B3801A90DF106002CF023FF2846A368BDF973
S31508011B4806200233A360328002B070BD042213B5A1
S31508011B58044601460DEB02002CF012FF0422019BF4
S31508011B6820461BBA0DEB020101932CF009FF02B0BE
S31508011B7810BD73B544680546A368266822691E44DC
S31508011B8841F2E1039A4215D1042200910DEB0200B4
S31508011B9869462CF0F5FE01A8FFF7D8FF042230465E
S31508011BA80DEB02012CF0ECFE2846A3680433A3606A
S31508011BB802B070BD0191F1E773B544680546A3689B
S31508011BC8266822691E4441F2E1039A4215D1042284
S31508011BD800910DEB020069462CF0D2FE01A8FFF729
S31508011BE8B5FF042230460DEB02012CF0C9FE284642
S31508011BF8A3680433A36002B070BD0191F1E773B518
S31508011C0844680E462368A2680546991841F2E10315
S31508011C1822699A424FF0040207D168462CF0B0FEB1
S31508011C286846FFF793FF042269460DEB02002CF07C
S31508011C38A7FE2846A368019A0433A360326002B056
S31508011C4870BD73B544680E462368A2680546991897
S31508011C5841F2E10322699A424FF0040207D1684624
S31508011C682CF08EFE6846FFF771FF042269460DEBD4
S31508011C7802002CF085FE2846A368019A0433A3605E
S31508011C88326002B070BD7047704710B504460C2122
S31508011C9800F068FB204610BD024A02600022C0E92E
S31508011CA80122704738F5030838B5054655F8104F27
S31508011CB8A54200D138BD54F8043C201F1B68984733
S31508011CC82468F5E738B5044654F8105FA54200D1EB
S31508011CD838BD55F8043C281F5B6898472D68F5E711
S31508011CE810B50446FFF7D8FF044B204623600023A6
S31508011CF8E36004F11003C4E9043310BD50F5030881
S31508011D08436910B50A1D00F110048B604C604261E5
S31508011D181A60C3680133C36010BDF8B505460026C5
S31508011D28044655F8100F854203D1C4E90455E660FF
S31508011D38F8BD50F8042C0768D268C0E9006604386B
S31508011D4890473846EFE7000010B50446FFF7C8FF85
S31508011D58014B2046236010BD68F503080346002198
S31508011D6810B553F8042F934203D1C0E90133016032
S31508011D7810BD1468C2E900112246F4E710B50446F5
S31508011D88044B40F80C3BFFF7E9FF2046FFF77CFFB9
S31508011D98204610BD50F5030810B50446FFF7EEFFB7
S31508011DA82046182100F0DEFA204610BD10B5044673
S31508011DB8044B40F80C3BFFF7D1FF2046FFF7DEFF3F
S31508011DC8204610BD68F5030810B50446FFF7EEFF6F
S31508011DD82046182100F0C6FA204610BD0068B0FA58
S31508011DE880F0400970470020704708B54068FFF73A
S31508011DF8F5FF08BD806870470B6808469B68184751
S31508011E084368585C704700207047436818687047EC
S31508011E1800207047F8B51D460B6808469B681646A4
S31508011E280C469847B0420BD92B6831469F682368F8
S31508011E3820461B68984701462846B8470120F8BD39
S31508011E480020FCE773B51E460B6808469B681546CD
S31508011E580C469847A8420ED933680DF107019B68C5
S31508011E68304698472368294620465B689DF8072027
S31508011E78984702B070BD0020FBE738B508461C46EE
S31508011E884AB91B689D690B681B689847014620462D
S31508011E98A847012038BD0020FCE713B50C461846AB
S31508011EA852B91B6801A99B699847236820465B684C
S31508011EB80199984702B010BD0020FBE770B50D4699
S31508011EC816460446102000F041FA33462A462146AA
S31508011ED8BDE8704002F080BE30B585B0044600F012
S31508011EE845FA284D0C302560606000F03FFA083045
S31508011EF8A560E06000F03AFAC4E9045000F036FA41
S31508011F080430A561E061684600F074F8009B1E4D2F
S31508011F186362019B02A8A362256200F075F8029B19
S31508011F2821462363039B194A63631948E562FFF748
S31508011F38C5FF164A174804F10801FFF7BFFF134AF8
S31508011F48154804F11001FFF7B9FF104A04F1180101
S31508011F581248FFF7B3FF102000F0F8F9104B1149A2
S31508011F6804F1200202F038FE636B43B1102000F039
S31508011F78EDF90B4B0C4904F12C0202F02DFE204613
S31508011F8805B030BD90F50308A0F50308D8F5030890
S31508011F986C420408744204087C4704080C46040881
S31508011FA8D4F50308CC450408BC4704087047037AE6
S31508011FB801728B422CBF0023012303717047037AF0
S31508011FC801728B4294BF002301230371704700787D
S31508011FD820F02003413B052B0AD9A0F13003092B30
S31508011FE806D9A0F12B035842584180F001007047E1
S31508011FF80120FAE70346034A92E8030083E8030047
S3150801200818467047DCF50308234970B504460226C5
S315080120180D460846FFF7DBFF00283AD14A1C104649
S31508012028FFF7D5FFD0B98A1C1046FFF7D0FFA8B924
S31508012038CA1C1046FFF7CBFF80B9012E01F104022D
S3150801204817D1164B9B1A022B1CD0032B14D0012B24
S3150801205803D11046FFF7BBFF00B9104A521B062ADF
S31508012068D8BF00232046CCBFC4E90052C4E90033CF
S3150801207870BD01261146CCE71046FFF7A8FF0028D0
S31508012088ECD14A1D1046FFF7A2FF0028E6D1013216
S31508012098DFE70A46E2E700BF840100088C01000869
S315080120A84368003B18BF01230B70704743680B70E0
S315080120B8704743680B70704743680B8070474368DD
S315080120C80B80704743680B60704743680B6070471D
S315080120D8012241600272704701224160027270470B
S315080120E801224160027270470122416002727047FB
S315080120F801224160027270470122416002727047EB
S315080121080122416002727047704708B50FF0B4FEA4
S31508012118027843781AB11B0183F3118870470BB10A
S3150801212862B6704772B670470120704711B943689D
S31508012138036070470023FBE709B100F0D2B842688B
S3150801214802607047054B10B5044618682AF0DBFE8D
S31508012158002320602372204610BD00BF904300204B
S3150801216803689B6B19440123416003727047034650
S31508012178007A40B11A685968926B91424FF0000289
S3150801218803D21A7270470120704710467047436890
S315080121981847000013B5044640F8041BFFF7D4FD99
S315080121A804F11C00FFF7D0FD00232068A36384F817
S315080121B83430E36303694FF47A715B6810309847E2
S315080121C8044B20686946CDE9003411F075FA2046B2
S315080121D802B010BD1322010838B5836B04460133D2
S315080121E883630068836918301B68984794F8343004
S315080121F8054613B1201DFFF765FD20688369183068
S315080122081B689847401BE06338BD4068FFF7E4BF81
S3150801221838B590F8343004468BB9043004F11C05F6
S31508012228FFF742FD2846FFF73FFD012384F83430BE
S315080122382846FFF747FD94F83430002BF8D138BD06
S3150801224837B505460446094B55F81C0B0093084B48
S315080122586946019311F030FA2846FFF7A7FD201DB4
S31508012268FFF7A4FD204603B030BD00BF972101083A
S3150801227811210108426801324260704742680132F9
S3150801228842607047426802324260704742680232C9
S3150801229842607047426804324260704742680432B5
S315080122A8426070474268013242607047024A0260DA
S315080122B800224260704700BF34F603087047436836
S315080122C833B1642102684A43B2FBF3F398B2704703
S315080122D81846704708B5FFF7F2FFC0F1640080B2E7
S315080122E808BD03680BB1013B036070477047FEE7F9
S315080122F808B52CF02FFB582303604FF0FF3008BDB3
S315080123080346044A1068C118116003498A681A44C1
S315080123188A60704700400020984300200346094A0E
S3150801232810B51168013111604107074918BF20F036
S315080123380703086818BF0833C4180C60916819445C
S31508012348916010BD9843002000400020FFF7E6BFC2
S31508012358FFF7E4BF024A536801335360704700BF69
S3150801236898430020FFF7F6BFFFF7F4BF0048704708
S3150801237898430020024B0349034A5B1AD360704706
S3150801238800C0012018A400209843002030380928E5
S315080123988CBF002001207047FEE70346012001B9DA
S315080123A87047CA0748BF584349085B43F7E75B1AAA
S315080123B810B50446084607D0121B05D00299091B11
S315080123C8594391FBF2F1084410BDF0B500230446C0
S315080123D80D464FF080429C4275EB020105D3002059
S315080123E8014653EA020605D1F0BD9B0843EA827302
S315080123F89208F0E71E1842EB0107B44275EB070C81
S3150801240805D3A41B65EB0705F01847EB020140083D
S315080124189B0840EAC17043EA827349089208E0E7D3
S3150801242803460088814203D35888884228BF08464C
S315080124387047000010B504460448FFF7F1FF642306
S3150801244800B2604390FBF3F000B210BD50F60308E2
S3150801245838B504460D4608481146FFF7E1FFC0F1AD
S31508012468640300B260431BB205FB0300642390FBB7
S31508012478F3F000B238BD00BF50F6030838B5054673
S315080124880C4606481146FFF7CBFFC0F164036843BB
S3150801249804FB0303642093FBF0F038BD50F60308E8
S315080124A840687047416001207047037B2BB921B109
S315080124B843697E2B9CBF013343610173704700232F
S315080124C84361037370470000094B10B58360002305
S315080124D804460271074A0373C0E90423064B0160DF
S315080124E818682AF015FD214600F0E4FC204610BDBF
S315080124F858F303085CF603089043002038B51546D7
S3150801250804461A4605EB4101FFF7DEFF204638BDAA
S3150801251810B50446044B18682AF0FAFC214600F05F
S315080125289CFC204610BD00BF9043002003685B68E9
S3150801253818687047006800B9704743681B798B4269
S31508012548F8D10120704703680BB9184670475A68CD
S31508012558107B0028FAD11B68F6E70368002003B93F
S3150801256870475A681B6852691044F8E710B5046839
S3150801257804B910BD6068FFF7A2FF2468F8E70246A8
S31508012588002010B513461A461B6863B15C688C426D
S31508012598F9D11C68146018601846F3E7046808211D
S315080125A8FFF7E0FE20460028F8D110BD38B50D46DC
S315080125B804460820FFF7CAFE2B6843602368206093
S315080125C8036038BD002313B504460191036001A9C8
S315080125D8FFF7ECFF204602B010BD07B5019101A926
S315080125E8FFF7E4FF03B05DF804FB10B50446806AFB
S315080125F803681B689847014604F10C00BDE81040BA
S31508012608FFF753BF10B50446044B40F80C3BFFF7D8
S315080126187FFF2046FFF738FB204610BD6CF60308F6
S3150801262810B50446FFF7EEFF20462C21FFF79AFE60
S31508012638204610BD70B504460D461646FFF72CFB15
S315080126482046054B2A79296840F80C3BFFF73CFFD9
S315080126582046A66270BD00BF6CF603080B680846DB
S315080126689B6818470B6808469B6818470B6808460D
S315080126789B681847F8B51D460B6808469B681646B1
S315080126880C469847B0420BD92B6831461F68236810
S3150801269820461B68984701462846B8470120F8BDD1
S315080126A80020FCE773B51E460B6808469B68154665
S315080126B80C469847A8420ED933680DF107011B68DD
S315080126C8304698472368294620465B689DF80720BF
S315080126D8984702B070BD0020FBE7F8B51D460B68A0
S315080126E808469B6816460C469847B0420BD92B688C
S315080126F831461F69236820461B68984701462846BC
S31508012708B8470120F8BD0020FCE773B51E460B68DB
S3150801271808469B6815460C469847A8420ED9336859
S315080127280DF106011B693046984723682946204654
S315080127385B68BDF80620984702B070BD0020FBE724
S31508012748F8B51D460B6808469B6816460C46984711
S31508012758B0420BD92B6831469F69236820461B6806
S31508012768984701462846B8470120F8BD0020FCE7E6
S3150801277873B51E460B6808469B6815460C46984766
S31508012788A8420CD9336801A99B693046984723683A
S31508012798294620465B68019A984702B070BD002011
S315080127A8FBE770B50D46164604461020FFF7CEFD21
S315080127B833462A462146BDE8704002F00DBA70B57F
S315080127C80D46164604461020FFF7C0FD33462A462D
S315080127D82146BDE8704002F0FFB9000070B505460C
S315080127E80C46224E00F0E2F8324629462048FFF701
S315080127F8E6FF1020FFF7AAFD1E4B04F50A721E49CB
S3150801280802F0EAF9324604F50C711C48FFF7D7FFBE
S3150801281832461B4E04F50E711A48FFF7D0FF3246A9
S3150801282804F514711848FFF7BCFF324604F51B7105
S315080128381648FFF7B6FF1020FFF788FD144B04F575
S315080128481E72144902F0C8F9324604F52071124875
S31508012858FFF7A7FF1020FFF779FD104B104904F57C
S31508012868227202F0B9F9284670BD00BFD8F50308E7
S315080128785C3F0408ACF40308BC4A0408FC3C040899
S31508012888C0F60308543F04081C4304082C440408EA
S31508012898BCF60308A44A04089C4A0408B8F60308BF
S315080128A8C44A04087047000038B504460D46FFF7C0
S315080128B8F3F92046034B294640F80C3B00F03CF84F
S315080128C8204638BDCCF6030810B50446044B40F833
S315080128D80C3BFFF71DFE2046FFF7D6F9204610BD2B
S315080128E8CCF6030810B504461C30FFF725FCE16948
S315080128F82046BDE81040B1FA81F14909FFF7D5BD6F
S3150801290810B50446FFF7DBFD04F11C000021BDE8FC
S315080129181040FFF70BBC000038B504461D46FFF703
S31508012928D3FD044B2046636204F11C03C4E9075529
S31508012938A36238BD80F5030838B50D4604460A79F9
S315080129480968FFF7C1FDAB682046C4E90733034B9D
S31508012958636204F11C03A36238BD00BF80F503084E
S315080129684368243383600120704738B50446636891
S31508012978A56803F12402D3F8243202EB83039D42A6
S3150801298802D10020A2600FE02B1D2846A360FFF79D
S31508012998E4FD0028EBD02846FFF7C8FD0488284639
S315080129A8FFF7D1FD44EAC07038BD0000024AC0E904
S315080129B80021243181607047E4F60308D0F824021F
S315080129C87047002070470020704700207047436809
S315080129D853F821007047806870474068704724306B
S315080129E808B500EB8100FFF7A1FD008808BD243072
S315080129F800EB8100FFF7A7BD243000EB8100FFF744
S31508012A08ACBD000010B50446044B0360FFF785F911
S31508012A182046FFF7B3F9204610BD00BFF4F60308B0
S31508012A2810B50446FFF7EEFF20461821FFF79AFC72
S31508012A38204610BD08B54068FFF7D1FF08BD08B59F
S31508012A484068FFF7D9FF08BD08B54068FFF7B6FF24
S31508012A5808BD08B54068FFF7CAFF08BD70B50D4639
S31508012A680446006820B920602B682360286070BD79
S31508012A7806680821FFF776FC3046F3E7884204D052
S31508012A88B4BF4FF0FF30012070470020704708B5E2
S31508012A984068FFF793FF08BD08B54068FFF78EFF42
S31508012AA808BD10B510460C46FFF740FD0188208879
S31508012AB8FFF7E4FFC0F3C01010BD10B50846144669
S31508012AC8FFF734FD21880088FFF7D8FFC0F3C01047
S31508012AD810BD38B508461546FFF728FD04462846A9
S31508012AE8FFF724FD01882088FFF7C8FFC0F3C01047
S31508012AF838BD38B5D0F8245200F1240404EB85050D
S31508012B08A54200D138BD2046FFF730FD0434F7E762
S31508012B1810B50446FFF7EDFF04F10C00BDE81040B7
S31508012B28FFF7C2B82DE9F84304460C30FFF7CAF88F
S31508012B3894F82C322BB10023204684F82C32FFF75F
S31508012B48D8FF04F5107104F51470431A002B06DD35
S31508012B580A46002503F5107323449A4221D104F540
S31508012B68177504F51B777B1B002B06DD2A460026FD
S31508012B7803F5177323449A4216D1D4F8242204F18B
S31508012B88240303EB820E734511D1002388422ED103
S31508012B98C4F834320023AF422DD1C4F83C32BDE81B
S31508012BA8F88342F8045BD8E742F8046BE3E753F87D
S31508012BB804CBBCF1000FE6D0DCF8048098F80C6069
S31508012BC898F8042036B104EB8209D9F8406201362F
S31508012BD8C9F84062D8F8146036B104EB8202D2F813
S31508012BE85C620136C2F85C62DCF800C0E1E751F8BC
S31508012BF8042B1344CAE755F8042B1344CBE7000002
S31508012C082DE9F0410446FFF747F8234600254FF01A
S31508012C1810081F4A002143F80C2B184618222BF0D6
S31508012C28D7FEFFF75DF81B4B4246E3601A4B294668
S31508012C38C4F82832194BC4F82452C4E98E35C4F8A5
S31508012C48303204F51073184684F82C52C4F83452F5
S31508012C582BF0BEFE0426124F04F51773C4E99470C7
S31508012C68424629461846C4F858622BF0B1FE0D4B60
S31508012C78C4E99B70C4E99E340B4B2046C4E9A034C9
S31508012C880A4BC4F87462C4E9A234BDE8F08100BFEE
S31508012C986CF70308F4F6030858F303080CF7030856
S31508012CA81CF7030830F7030844F7030858F703081D
S31508012CB82DE9F04706460D4690460F46D1F80042DB
S31508012CC844F31D0484B9D5F80042376005EB84043A
S31508012CD8BC4206D03A4641462846FFF7E2FE00B10D
S31508012CE834603046BDE8F0874FEA540907EB890A8C
S31508012CF8424651462846FFF7E0FE28B1013C0AF14B
S31508012D080407A4EB0904DDE74C46DBE737B50546B6
S31508012D1800F124040A4601A82146FFF7C9FFD5F898
S31508012D282432019804EB8304A04203D0FFF70BFC75
S31508012D3803B030BD0020FBE737B5054600F124048A
S31508012D480A4601A82146FFF7B3FFD5F824320198A8
S31508012D5804EB8304A04201D0FFF708FC03B030BD99
S31508012D6837B5054600F124040A4601A82146FFF7A6
S31508012D789FFFD5F82432019804EB8304001B18BF7A
S31508012D88012003B030BD2DE9F84F002307460C464C
S31508012D9890460E46D1F80052036001EB850A037185
S31508012DA845F31D054DB9B24519D10123D4F80022B9
S31508012DB83B71802A1FD12BF0BBFD4FEA550B06EB59
S31508012DC88B09424649462046FFF783FE28B1013D4D
S31508012DD809F10406A5EB0B05E4E75D46E2E7324689
S31508012DE841462046FFF775FE0028DED13D71384673
S31508012DF83E60BDE8F88F04EB8203B3424FF0000149
S31508012E0802F1010007D1D8F80030C8F8001033607C
S31508012E18C4F80002EBE753F804CC1D1F44F822C096
S31508012E2843F8041CC4F80002B54204D141463046A9
S31508012E38FFF714FEDBE7043D2946281DFFF70EFEBA
S31508012E48F2E738B50446006808B9204638BD05686A
S31508012E580821FFF787FA2846F6E773B5054600F10C
S31508012E6824060A6801A80C463146FFF721FFD5F85A
S31508012E782432019806EB8303984214D02146FFF7BA
S31508012E887EFB019C236873B9D5F8243206EB8306C1
S31508012E980434A64209D1301FFFF7D3FFD5F82432E7
S31508012EA8013BC5F8243202B070BD2146201FFFF741
S31508012EB8D5FDEDE77FB505460C4600F124060A68F7
S31508012EC868463146FFF7F4FED5F82432009806EB32
S31508012ED883039842214603D0FFF77FFB04B070BDF0
S31508012EE801A8FFF76FFB02A8314601AAFFF74BFFB6
S31508012EF801A8FFF7A6FFF1E770B5054604460A4B90
S31508012F08D0F8246245F8243B46B904F10C00FFF7CA
S31508012F1879FD2046FEF7B8FE204670BD2846FFF71C
S31508012F2890FF013E0435EFE76CF7030810B5044630
S31508012F38FFF7E2FF20464FF42471FFF713FA2046FC
S31508012F4810BD38B5C26804464069D2F834520368D8
S31508012F585B6885B12269E1695268B1FBF2F101F052
S31508012F68010198470021A06903685B689847E369E6
S31508012F780133E36138BDD2F83C1219B12269E16916
S31508012F889268EAE798472369E1691B68A069B1FB72
S31508012F98F3F1036801F001015B68E7E710B5044638
S31508012FA8024B0360FEF770FE204610BD84F703083E
S31508012FB810B50446FFF7F2FF20462021FFF7D2F99C
S31508012FC8204610BDF8B5044616460F461D46FEF7B7
S31508012FD863FEC4E903760026084B31462360069B3F
S31508012FE82846A3612B6865615B68E6619847A0690D
S31508012FF8314603685B6898472046F8BD84F7030895
S31508013008B0F90400704700207047436833F9110086
S3150801301870470020704780687047000010B504465D
S31508013028024B0360FEF730FE204610BDC0F70308C1
S3150801303810B50446FFF7F2FF20462C21FFF792F94F
S31508013048204610BD10B50124002386B000940A460F
S315080130588DF80C30017C03ABC0680493059411F014
S3150801306884FB20B120469DF80C308DF810309DF868
S31508013078103043EA002006B010BD10B5022400231B
S3150801308886B00094ADF80C3041F0800203AB017CA0
S31508013098C0680493059411F068FB20B10120BDF8B6
S315080130A80C30ADF810308DF812000020BDF810303C
S315080130B863F30F00BDF8123063F31F4006B010BD65
S315080130C8F0B585B001AB02930223039304AB054619
S315080130D80F468DF804108DF80520017C164613E96C
S315080130E80C00C06811F06CFA394604462846FFF701
S315080130F8A9FFADF808003CB19DF8094024B19DF82F
S315080131080840A31B5C425C41204605B0F0BD37B5B3
S31508013118457C044675BB0F2145828582C582FFF722
S3150801312891FF10F47F4FADF8040023D09DF80430C1
S31508013138332B1FD1C0221F212046FFF7C1FFC8B173
S31508013148672220212046FFF7BBFF98B12A4621218D
S315080131582046FFF7B5FF68B12A4622212046FFF720
S31508013168AFFF38B188222321204603B0BDE8304095
S31508013178FFF7A6BF284603B030BD1FB52721044669
S31508013188FFF760FF034613F47F4FADF80000C3F35A
S31508013198072031D09DF800301B072DD52821204658
S315080131A8FFF76BFF2A2101902046FFF766FF2C21BE
S315080131B802902046FFF761FF03909DF80600D8B1F3
S315080131C89DF80A00C0B19DF80E00A8B143F64A5108
S315080131D84FF47A32BDF904304B4393FBF2F3638219
S315080131E8BDF908304B4393FBF2F3A382BDF90C30C2
S315080131F84B4393FBF2F3E38204B010BD13B50721E1
S315080132080446FFF71FFF034613F47F4FADF8000086
S31508013218C3F3072017D09DF800305B0713D50C2197
S315080132282046FFF72AFF034613F47F0F0190C0F3E0
S31508013238074008D00A23BDF90420534348BFFF3382
S315080132481B12FA33238502B010BD70B5044603254F
S3150801325800262046FFF75BFF50B12046FFF78DFF92
S3150801326830B12046FFF7CAFF10B10123637470BD58
S31508013278013D6674EDD1FAE770B5154604460E4662
S31508013288FEF70AFD0C4B002D236014BF32233023A9
S315080132980A492374002304F11202C4E90612032217
S315080132A86374C4F81230E3822385054B2046E66029
S315080132B82262636270BD00BFC0F703089CF7030862
S315080132C8B0F70308036802695B6803EB5203B3FBAB
S315080132D8F2F07047036842695B6803EB5203B3FB74
S315080132E8F2F0704790F84430032B0BD1B1F57A7F89
S315080132F808D8B0F8BC308B4228BF0B46A0F8BE30B8
S315080133080120704700207047B1F57A7F28BF4FF42E
S315080133187A714369018359434FF47A73B1FBF3F11F
S31508013328C0F8B410012070474068704700207047FC
S315080133380079704700207047B0F90400704781800A
S31508013348012070474068704741600120704711B9EC
S3150801335801610120704703685B68B1EB430F05D823
S3150801336803EB5103B3FBF1F30361F2E7002070475E
S3150801337821B94161C0F8B4100120704703685B6838
S31508013388B1EB430F0DD803EB5103B3FBF1F3028BF2
S31508013398436153434FF47A72B3FBF2F3C0F8B4307E
S315080133A8EAE7002070470346D0F8080128B11B68E8
S315080133B8D3F8A40EB0FA80F0400970474068FFF7C1
S315080133C8C6BF4068FFF786BF4068FFF79DBF4068DC
S315080133D8FFF7E9BF4068FFF775BF4368188B704761
S315080133E84068FFF7C5BF4068FFF77CBF90F84400FF
S315080133F8012802D0031F58425841704702680A49F2
S3150801340802F12C03C31A5B114B434FF47A7123F06B
S3150801341803031A4412695200A2F11E034B43B3FB74
S31508013428F2F3A0F8BC307047398EE33803680A22EC
S3150801343810B51C6842F20F7342F2107102FB04328E
S31508013448B2FBF1F2C0F8DC20642202FB0433B3FBB9
S31508013458F1F3C0F8EC30C0F8FC30C0F80C3110BDF7
S31508013468406810F039B8406810F030B8037B10B5D9
S315080134780BB1C1F57A710368826803F12C04001B44
S31508013488064C4011604320F0030003441B69594365
S315080134984FF47A73B1FBF3F1116010BD398EE33835
S315080134A802680B4902F12C03C31A5B114B4323F03B
S315080134B803031A441369017B8268106801B1181A53
S315080134C84FF47A725043B0FBF3F080B2704700BFED
S315080134D8398EE3384068FFF7E3BF0023C0E9303384
S315080134E8C0E93233C0E93433012380F8B93070476B
S315080134F838B500250446C0E94655FFF7EEFF2946C3
S31508013508E830FEF713FE294604F1F800BDE838400D
S31508013518FEF70CBED0F8C43010B58B4231DDC91A96
S3150801352890F84430022B32D0A3F1050CDCF10003E4
S3150801353843EB0C030029D4BF00240124B3EBD17F44
S315080135480CBF01FB01F200229C426FF41C74224451
S3150801355814BF00214943002AD0F8D03019DA134498
S3150801356823EAE373C0F8D0306FF41C7319440029B1
S31508013578D0F8D43015DA0B4423EAE373C0F8D4300B
S3150801358810BDD0F8C8308B42C9DB0021C8E7012332
S31508013598D0E76FF00044E41A9442D4BF1B199B186C
S315080135A8E0E76FF00042D21A8A42D4BF9B185B182B
S315080135B8E4E740F27121D0E934321A440368DB6939
S315080135C84B439A42D4BF002001207047426922B969
S315080135D8C0F81C2180F8B8207047D0F81C3101338F
S315080135E89A4297BF0023C0F81C31C0F81C3180F8ED
S315080135F8B830D0F81C21D0F8B4309A4224BF012338
S3150801360880F8B83070472DE9F041D0F818410669B5
S315080136180134B44228BF002490F8B83005468846D4
S31508013628C0F81841002B33D1FFF7E0FEB5F9783019
S31508013638024658B358423EB3002BB8BF5B429FB205
S31508013648EB6D7B43B3FBF8F14FF47A737143B1FB26
S31508013658F3F1731E9942A8BF1946B5F95430BB420E
S31508013668A8BF3B4602B15B428C42A5BF641A761ACB
S31508013678C1EB4404A6EB4404B5BF5C435C4394FB25
S31508013688F1F494FBF6F42044BDE8F0811846D2E734
S315080136980020F9E791F8B83070B51BB1002303602B
S315080136A8436070BD91F84460CC6D022EB1F8BC3008
S315080136B84FEA440512D0052E10D00E49A3F57A73A0
S315080136C8514353434FF47A7293FBF2F391FBF5F1A5
S315080136D85343640893FBF4F30160E1E75A434FF453
S315080136E87A7392FBF3F25A43002192FBF5F20160D1
S315080136F84260D6E718FCFFFFF7B50E46036804468D
S31508013708014668461D6AFFF7C5FF019843F6FF7724
S31508013718B042A8BF3046009B31469E42B8BF1946FB
S31508013728D4E93162831B002BB8BF5B4205FB0373DF
S31508013738002BB8BFDB1906EBA3368642D4BFC4F8FB
S31508013748C460C4F8C40043F6FF708B1A002BB8BFCF
S315080137585B4205FB0303002BB8BF1B18A2EBA33278
S315080137688A42ACBFC4F8C820C4F8C81003B0F0BD73
S315080137782DE9F04F1646044685B089463146FFF7C6
S3150801378825FFFFF740FF23680546D3E900720A2398
S31508013798B2FBF3F82046FFF729FE41F28831236A7E
S315080137A8A26B03FB08F302FB08F293FBF1F392FB06
S315080137B8F1F1021E4FF47A700292E26D18BFB34610
S315080137C805FB02F208BF4FF0000B92FBF0F25A44D0
S315080137D80392D4F8CC20A5EB0900514300FB03F367
S315080137E848BFFF3194F8B82003EB2123D4F82CC03D
S315080137F8D4F8C010A9EB050AC4F8CC300192DAB995
S315080138084FF00A0EB7FBFEF74745A8BF47460CFB1C
S3150801381807F741F2883C40F6B83297FBFCF702FBFA
S3150801382808F200FB07175042874203DBBA42A8BFD2
S315080138383A461046C4F8C000D4F8C02092FBF8F7F7
S31508013848039A13441F444FF47A735F4397FBF6F7B9
S315080138589F4266DD4FEADA7394F8B92002B90BB1CB
S31508013868C4F8C01084F8B93033B12046FFF7BEFD55
S31508013878002860D04FEADA7394F8BA80B8F1000FD5
S3150801388804D0019A002A5CD183F00108B4F8BC3047
S3150801389841469F42A8BF1F46204627EAE777FFF712
S315080138A8E2FD2046B9B2FFF7E1FD94F8BA303BB11B
S315080138B849462046FFF72EFE32462946FFF71CFFE2
S315080138C8B8F1000F27D0E36D7E4303FB05F14FF4EA
S315080138D87A7391FBF3F896FBF3F64FF4FA6391FBC7
S315080138E8F3F1029BA6EB0B0604F1E80004F1F805CF
S315080138F853B301F5FA718E42D4BF00210121A8F10B
S31508013908FA08FEF719FCB6EB480FB4BF01210021E6
S315080139182846FEF711FC012384F8BA3005B0BDE83C
S31508013928F08F002F05DABAF1000FD4BF002301235F
S3150801393892E7002390E7BAF1000FD4BF00230123C9
S315080139489AE74FF00008A1E7A1F5FA718E42ACBFD4
S315080139580021012108F1FA08FEF7EEFBB6EB480F3C
S31508013968CCBF01210021D3E72DE9F0471746FFF718
S315080139782DFEB0F9786005460C461EB190F8B86078
S3150801398886F001062846FFF731FD95F8BA80814683
S31508013998B8F1000F03D095F8B88088F001084E45AC
S315080139A80CBF4FF0000AB5F8BCA041462846FFF7F8
S315080139B85AFD28465146FFF759FD2846FFF78DFD5A
S315080139C8B8F1000F2BD04E4514BF3B460023B9F179
S315080139D8000F08BF00274FF47A72A3EB070302FB0F
S315080139E803F3EA6D05F1E80093FBF2F303EBD376EB
S315080139F84FEA66064FEA430305F1F80714D0323B46
S31508013A08A342D4BF00210121FEF796FB06F1320134
S31508013A18A142ACBF002101213846FEF78DFB0123DF
S31508013A2885F8BA30BDE8F0873233A342ACBF002126
S31508013A380121FEF781FBA6F13201A142D4BF00217B
S31508013A480121E9E770B5FFF7C1FD036804465D681A
S31508013A58FFF726FD06462046FFF702FDB4F8BE2005
S31508013A68F0B1104BB3FBF5F3F51AAA4203DB9D191E
S31508013A789542A8BF154694F8BA1019B194F8B81022
S31508013A8881F001012046FFF7EEFC2046A9B2FFF7AF
S31508013A98EDFC2046FFF72CFD012384F8BA3070BDEA
S31508013AA81546E8E740420F00F8B540F6C415A1F5F2
S31508013AB800614D4348BF05F2FF7504461646ED12E7
S31508013AC8FFF794FC00283CD06B421BB2A4F890304F
S31508013AD841F2941305F6CA01994204F1D80794BF2D
S31508013AE8002101213846FEF727FB1EB90121384670
S31508013AF8FEF71CFB94F870602EBB00212046FFF7E1
S31508013B08B2FC002384F8BA3094F84430032B00F049
S31508013B1886804FF4FA712046FFF7A8FC2046FFF77E
S31508013B28E7FC002DB8BF6D42182D77DCD4F8D830DC
S31508013B38002B73D004F584700121BDE8F840FEF71F
S31508013B48FBBA2BB2C2E7D4F80821002AD5D194F8D2
S31508013B584430591E01290AD9191F012945D823684C
S31508013B6829462046B3F9882EFFF7FEFE06E02368A4
S31508013B7829462046B3F9882EFFF7FAFD2046FFF7AE
S31508013B8818FD50B1D4E934320A2192FBF1F0834287
S31508013B9836DA0623002684F8A030D4F8D8301BB9BB
S31508013BA803221E4684F8A020D4F8E8301BB901225E
S31508013BB81E4684F8A020D4F8F83043BB022384F8BB
S31508013BC8A030002104F58470FEF7B0FA94F8443061
S31508013BD8032B0CBFB4F8BE30B4F97830C4F8A83052
S31508013BE8B4F89030A4F8B03013E0032B03D120467B
S31508013BF8FFF728FFC2E70723164684F8A030BDE772
S31508013C0893FBF1F39342CCBF05230423C2E7002EA5
S31508013C18D7D0D4F80831002B7FF46FAFF8BDB4F8C4
S31508013C28BE1078E738B50446A3609DF81030C4E994
S31508013C38001223734FF47A731046182223833A4BDA
S31508013C482262E361A3626363402340F6B832002522
S31508013C58A363364BE2622364354B364AC4E9123408
S31508013C68354BC4E9162523656367344A344BC4E9D9
S31508013C781924C4E91F34334A334BE266C4E90455A7
S31508013C8884F84450A4F8545084F87050A4F878502D
S31508013C98C4E921342D4B2E4AC4F88C30C4F8AC300B
S31508013CA84FF48073C4E925242A4AA4F8B830C4F81D
S31508013CB89C20294A294BC4E9292504F1D802C4E9D3
S31508013CC82F35C4E93925264B04F1E802C4E93D250F
S31508013CD804F1F802C4E93B53C4E93F53C4F8E03098
S31508013CE8C4E93155C4E93355C4E93555A4F89050A2
S31508013CF884F8A050A4F8B050C4F8B45084F8BA505F
S31508013D08C4F8DC50C4E94125C4E9435304F584736E
S31508013D18C4E94535C4F81C510FF014FB60682946F7
S31508013D280FF0D4FB204638BDD8F7030848F3030833
S31508013D38E8F703085CF60308F8F7030808F8030820
S31508013D4818F8030858F3030828F80308B0F703080E
S31508013D5838F8030848F8030858F80308DE03F40195
S31508013D6880F5030848307047583070476430704703
S31508013D780B6808469B6818470B6808469B681847E6
S31508013D888068704700207047806870478068704768
S31508013D988068704780687047806870478068704790
S31508013DA88068704780687047806870478068704780
S31508013DB8806870478068704780687047F8B51D46FF
S31508013DC80B6808469B6816460C469847B0420BD9B5
S31508013DD82B6831465F69236820461B689847014660
S31508013DE82846B8470120F8BD0020FCE773B51E46EA
S31508013DF80B6808469B6815460C469847A8420CD98D
S31508013E08336801A95B6930469847236829462046DD
S31508013E185B68019A984702B070BD0020FBE7F8B5C0
S31508013E281D460B6808469B6816460C469847B042D5
S31508013E380BD92B683146DF68236820461B689847E3
S31508013E4801462846B8470120F8BD0020FCE773B5A6
S31508013E581E460B6808469B6815460C469847A842AD
S31508013E680ED933680DF10601DB6830469847236891
S31508013E78294620465B68BDF90620984702B070BDF9
S31508013E880020FBE770B50D46164604461020FEF7D6
S31508013E985DFA33462A462146BDE8704000F09CBEC5
S31508013EA870B50D46164604461020FEF74FFA3346F6
S31508013EB82A462146BDE8704000F08EBE4FF490733D
S31508013EC8406803FB0100036C40301B6818474FF430
S31508013ED89073406803FB0100D0F8AC30AC301B681E
S31508013EE818474FF49073406803FB0100D0F8A430D3
S31508013EF8A4301B6818474FF49073406803FB010008
S31508013F08D0F89C309C301B6818474FF4907340686A
S31508013F1803FB0100D0F8943094301B6818474FF416
S31508013F289073406803FB0100C36E6C301B68184721
S31508013F384FF49073406803FB0100D0F88C308C303D
S31508013F481B6818474FF49073406803FB0100C36E5A
S31508013F5811465B686C3018474FF49073406803FB49
S31508013F680100036C11465B68403018474FF490739B
S31508013F78406803FB0100D0F8843011465B68843039
S31508013F8818474FF49073406803FB0100D0F8843052
S31508013F9884301B6818474FF49073406803FB010087
S31508013FA8C36F11465B687C3018474FF490734068B5
S31508013FB803FB0100C36F7C301B6818474FF49073E5
S31508013FC8406803FB0100436F11465B687430184764
S31508013FD84FF49073406803FB0100436F74301B6804
S31508013FE818474FF49073406803FB0100036D1146A7
S31508013FF85B68503018474FF49073406803FB01001B
S31508014008036D50301B681847584B2C312DE9F04180
S31508014018C0E900310C230446554A8360C0E90321E7
S31508014028544A4361C0E90621534A0362C0E9092192
S31508014038524AC362C0E90C21514A8363C0E90F2178
S31508014048504A4364C0E912214F4A0365C0E915215C
S315080140584E4AC365C0E918214D4A8366C0E91B2142
S315080140684C4A4367C0E91E214B4A4C4FC0E92121F6
S315080140784B4A4C4EC0E924214B4AC0F88030C0E966
S315080140882721C0F88C30C0F89830C0F8A430102021
S31508014098FEF75CF9454D3B462246454900F09CFD2D
S315080140A8324604F10C014348FFF7FAFE2A4604F1A1
S315080140B818014148FFF7E6FE324604F124013F4854
S315080140C8FFF7EEFE324604F130013D4E3D48FFF753
S315080140D8E7FE1020FEF73AF9334604F13C023A495D
S315080140E800F07AFDDFF8E4802A4604F148013848E9
S315080140F8FFF7C8FE1020FEF729F9434604F15402D2
S31508014108344900F069FD1020FEF720F9434604F109
S315080141186002314900F060FD2A4604F16C012F4816
S31508014128FFF7B0FE1020FEF711F9334604F17802BD
S315080141382B4900F051FD1020FEF708F93B4604F11A
S315080141488402284900F048FD1020FEF7FFF8264B9F
S3150801415804F19002254900F03FFD2A46244804F156
S315080141689C01FFF78FFE2046BDE8F08168F8030831
S315080141787CF8030890F80308A4F80308B8F80308B4
S31508014188CCF80308E0F80308F4F8030808F9030863
S315080141981CF9030830F9030844F90308D4F5030898
S315080141A858F90308C0F603086CF90308A4F90308C3
S315080141B8EC440408D4480408CC480408444A0408CA
S315080141C8B8F60308E4480408C4450408BCF6030815
S315080141D88C480408DC4804081C4704081C460408DB
S315080141E8244604080C480408A0F90308BC4904082D
S315080141F8C44904087047D0E9003201EB6200184740
S3150801420813B5094B1446009300234FF49072019392
S315080142184368684602FB0131FFF7EDFF036821464B
S315080142285B68984702B010BD753D010813B5094B7F
S315080142381446009300234FF4907201934368684625
S3150801424802FB0131FFF7D7FF036821465B689847E8
S3150801425802B010BD713D010813B5094B1446009308
S3150801426800234FF4907201934368684602FB0131B3
S31508014278FFF7C1FF036821465B68984702B010BD7E
S315080142886D3D010807B5094B4FF490720093002359
S3150801429801934368684602FB0131FFF7ACFF0368DF
S315080142A81B68984703B05DF804FB00BF753D010814
S315080142B807B5094B4FF4907200930023019343689D
S315080142C8684602FB0131FFF796FF03681B689847A2
S315080142D803B05DF804FB00BF713D010807B5094B3A
S315080142E84FF490720093002301934368684602FBD2
S315080142F80131FFF780FF03681B68984703B05DF82B
S3150801430804FB00BF6D3D010800680B689842ACBF05
S3150801431800200120704710B504460846636811460F
S315080143282278FDF7F7F9237A2BB101232278013A86
S3150801433893405840C01A10BD2DE9F043D0E90075DD
S315080143483C4685B007EBC508039145F31C05002DC6
S3150801435806DCA04512D158F8040C05B0BDE8F0836F
S315080143686E1004EBC609494603A8FFF7CDFF18B92D
S31508014378AE1B09F10804013E3546E8E7A74260681D
S31508014388EBD0039B009354E90112034654F8080C31
S31508014398FEF70DF8E1E773B5044608461146D0E974
S315080143A8053203EBC20293421D4607D10369012B65
S315080143B80CD800232046237102B070BD53F8086B48
S315080143C88E42F0D16B6823600123F3E7C26815684A
S315080143D802EBC300A94250F8080CEADB8142E8DC83
S315080143E86846CDE90023FFF7A7FF2060ECE738B553
S315080143F80D460446114628461A46FFF78CFF2946F4
S3150801440802462046FFF7C7FF204638BDF0B585B0F6
S3150801441804460D46164601461A4602A8FFF7BBFF8B
S315080144289DF80C703FB1029B314600932846636894
S315080144382278FDF7A2F9384605B0F0BD4161704703
S3150801444837B504460D4618300021FEF74BFA21699F
S315080144582A460B7D68468969FFF7C9FF94F86030D3
S315080144689DF8045004F1440063B985F00101FEF78B
S315080144781CF84DB12046236800991B6903B0BDE8AD
S31508014488304018470021F2E703B030BD13B504469A
S315080144980B4B0C4A0360C368CDE900206946D86806
S315080144A80EF07DFC04F14400FEF732F804F1180019
S315080144B8FEF72EF82046FDF7E7FB204602B010BDA9
S315080144C8B0F903081745010810B50446FFF7DEFFDA
S315080144D820466421FDF746FF204610BD10B590F821
S315080144E8603004461BB1013B80F8603010BD036992
S315080144F85B7B002BFAD001211830FEF7F3F994F803
S315080145082430002BF2D023691B696361EEE7406802
S31508014518FFF796BF73B5044615460E46FDF7BCFB6D
S31508014528104BAA7B23602B69A9686361C4E90365F3
S315080145386B7B04F11800FEF7EFF9AA7B696804F1A9
S315080145484400FDF7C1FF2B7BE06884F86030064B11
S315080145586946CDE90034D5E907230DF0DAFD204689
S3150801456802B070BDB0F9030817450108F7B51F462B
S315080145780D4B054618680E46144628F0BFFC00235D
S3150801458801463A46684600F094FB9DF8040040B196
S31508014598324629462046009B03B0BDE8F040FFF79E
S315080145A835BF03B0F0BD00BF9043002010B10368C2
S315080145B89B6818477047F8B504460F46012654F80C
S315080145C8045FA54201D13046F8BD55F8043C281FB9
S315080145D839461B6898472D680640F2E7F8B500265C
S315080145E80446051D4068854201D12046F8BD07687D
S315080145F840F80469FFF7DAFF3846F4E7021D426016
S31508014608002202607047000010B50446024B036099
S3150801461800F056F8204610BDCCF9030810B5044633
S31508014628FFF7F2FF20461421FDF79CFE204610BD30
S3150801463837B504460D4600220169684600F060FA56
S315080146489DF8040040B12946009BA268E06803B0BA
S31508014658BDE83040FFF7DABE03B030BD2DE9F041B9
S315080146681C46104B064618680F46904628F046FC25
S31508014678218800F0EEFA054690B11420FDF766FE8A
S3150801468804464246394600F011F80120064B2561D1
S315080146982360736844F8043F3368746001333360F0
S315080146A8BDE8F08190430020CCF9030810B5034C06
S315080146B8C26004600024C0E9014110BDE0F903089D
S315080146C8704700797047000010B50446024B03602D
S315080146D8FEF7FAF8204610BD04FA030810B5044691
S315080146E8FFF7F2FF20464021FDF73CFE204610BDA4
S315080146F810B50446024B0360FEF7E6F8204610BDDE
S315080147081CFA030810B50446FFF7F2FF20464021B4
S31508014718FDF728FE204610BD10B50446806B0368D0
S315080147281B689847B4F93C108142A8BF002104F1D7
S315080147380C00B8BF0121BDE81040FEF7D3B810B583
S315080147480446806B03681B689847B4F93C10814294
S31508014758D8BF002104F10C00C8BF0121BDE81040EB
S31508014768FEF7C0B82DE9F041054640200E46174622
S3150801477835F9048BFDF7EAFD04462946FEF794F850
S31508014788054B21462360A763A4F83C8006F10C0073
S31508014798BDE8F041FDF7B4BA04FA03082DE9F0417A
S315080147A8054640200E46174635F9048BFDF7CEFD1A
S315080147B804462946FEF778F8054B21462360A76380
S315080147C8A4F83C8006F10C00BDE8F041FDF798BA5B
S315080147D81CFA03082DE9F041054640200E461746FE
S315080147E835F9048BFDF7B2FD04462946FEF75CF850
S315080147F8054B21462360A763A4F83C8006F10C0003
S31508014808BDE8F041FDF77CBA1CFA030838B5044639
S315080148180D460A4601460748FFF7A4FF2A462146D8
S315080148280548FFF79FFF2A462146BDE83840034851
S31508014838FFF7B4BF4CFA03085CFA03083CFA030805
S315080148480A4601460148FFF7C5BF00BF2CFA030807
S3150801485810B50446024B0360FDF716FA204610BD4B
S3150801486874FA030810B50446FFF7F2FF2046242117
S31508014878FDF778FD204610BD10B50446C0680368E3
S315080148881B689847B4F910301B1A58425841A37E39
S3150801489898420AD00023A0766376606994F82010B6
S315080148A80368BDE810405B681847637E227E9A4212
S315080148B886BF0133637684F82000EEE7F8B5044627
S315080148C80F4616461D46FDF7E7F9094B094A2360BF
S315080148D841F21443238300232046E7602682656153
S315080148E8A376E26184F82030FFF7C6FF2046F8BDB3
S315080148F874FA0308F4F9030810B50446024B036071
S31508014908FDF7C2F9204610BD8CFA030810B504460E
S31508014918FFF7F2FF20463021FDF724FD204610BD9A
S3150801492870B50446C06803681B689847014604F1D0
S315080149381400FDF701FC616904F12400B1FA81F15B
S315080149484909FDF734FB94F8283063B124692368CB
S31508014958204628CB984780F001012B462046BDE81A
S315080149687040C9B2184770BDF8B504461D460F46CA
S315080149781646FDF791F90A4B20462360094BC4E907
S315080149880376E36104F114032362002384F82830CB
S3150801499884F82C30044BC4E905556362F8BD00BF99
S315080149A88CFA030880F50308F4F903088088704728
S315080149B810B50446024B0360FDF766F9204610BD9B
S315080149C8B4FA030810B50446FFF7F2FF2046242176
S315080149D8FDF7C8FC204610BDC3888B4205D8038954
S315080149E88B4202D381800120704700207047838B50
S315080149F810B504462BB9C06803681B689847400078
S31508014A0810BD006903681B689847A38B58434FF480
S31508014A189673B0FBF3F0F3E770B5446923685D68EC
S31508014A28FFF7E5FF2B4601462046BDE870401847C3
S31508014A38F8B504460D4617461E46FDF72DF90D4BE2
S31508014A48A9882360069B2A8863610B486B88AD6829
S31508014A58A061A183E2832384C4E903761020FDF7C4
S31508014A6875FC2946054B04F1180200F0B5F82046ED
S31508014A78F8BD00BFB4FA0308A4FA0308A8F40308A2
S31508014A88064B10B5186828F039FABDE81040D0F871
S31508014A98103800F501601B68184700BF90430020CD
S31508014AA803468068596802689268104710B5044633
S31508014AB8044B186828F022FA2146BDE8104000F090
S31508014AC82BB900BF9043002010B50468FFF7D8FF3B
S31508014AD80444A07810BD2DE9F04104460E46154652
S31508014AE8FFF7F2FF48B1A0682A46036861681F689C
S31508014AF83346BC46BDE8F0416047BDE8F081000091
S31508014B08002330B5044685B0CDE90233064B08467D
S31508014B1802AD01A90193FFF7DEFF95E8030084E8D2
S31508014B280300204605B030BD10F6030813B5044640
S31508014B386846FDF7BBFB002269462046FFF7CBFF0F
S31508014B48019C6846FDF7BAFB204602B010BD38B588
S31508014B580546FFF7A5FF04462846FFF7E7FF604322
S31508014B6838BD10B50468FFF78BFF0444207910BDDA
S31508014B782DE9F04104460E461546FFF7F2FF48B1FE
S31508014B88A0682A46036861685F683346BC46BDE87B
S31508014B98F0416047BDE8F08103689B790BB1FFF7DF
S31508014BA8E0BF18467047000037B50A4B0446CDE9F9
S31508014BB800320A466946FFF7DBFF054638B1204643
S31508014BC8FFF7EAFF18B1A38901339BB2A3812846E7
S31508014BD803B030BDECF5030813B58360002304461A
S31508014BE88381C381084BC0E90012186828F086F941
S31508014BF801A9019400F02EFA019810B11021FDF7C8
S31508014C08B1FB204602B010BD90430020704738B565
S31508014C18044600F6180004F5805513F0FEFE2046F2
S31508014C28D5F838389847C5F8380838BD14F054B84F
S31508014C380B681B68198813681B681B88994204D076
S31508014C4805DA4FF0FF30C00F70470020FBE7012057
S31508014C58F9E700F10C03D0F80C0870B503EB8004EA
S31508014C6840F31D0040B99C4205D0186803681B88A3
S31508014C788B4288BF002070BD420853F8226003EBB7
S31508014C888205366836888E4237BF00F1FF301046EE
S31508014C982B1D801AE6E710B509880446FFF7D9FFE0
S31508014CA8014628B104F61800BDE8104014F06DB89D
S31508014CB810BD38B50446084611881D46FFF7C9FFD1
S31508014CC8014628B12A462046FFF71AFF204638BD6D
S31508014CD82071FBE700F58050B0F84028B0F8423853
S31508014CE892B29BB29A420AD1B0F84428B0F846382B
S31508014CF892B29BB29A4202D190F8480870470120AD
S31508014D08704710B504462046FFF7E4FF00B910BD01
S31508014D182046FFF77CFFF6E700F6180014F035B8C9
S31508014D2870B50446D0F80C3800F10C0505EB830676
S31508014D38B54200D170BD204655F8041BFFF7ECFFB4
S31508014D48F6E710B5044600F6180013F08FFF50B1C0
S31508014D5804F58053B3F84428013292B2A3F84428DB
S31508014D68012283F8482810BD10B509880446FFF7BB
S31508014D7870FF014620B12046BDE81040FFF7E1BFA4
S31508014D8810BD00F58052B2F840380C3001339BB299
S31508014D98A2F840380123C2F83C0882F84838704717
S31508014DA870B50546D0F80C3800F10C0404EB8306F7
S31508014DB8A64204D12846BDE87040FFF7E2BF20683D
S31508014DC8FFF7EAFE20B12268938901339BB29381E2
S31508014DD80434EDE710B5044600F6180013F06CFF25
S31508014DE804F58050B0F8443801339BB2A0F844382A
S31508014DF8012380F8483810BDEFF31083DB4303F02D
S31508014E08010372B600F58050B0F84028B0F8421888
S31508014E1892B289B28A420BD1B0F84428B0F846183A
S31508014E2892B289B28A420AD109487BB162B67047F9
S31508014E38A0F84228012280F848280648F5E7A0F88C
S31508014E484628012280F848280348EEE772B67047D3
S31508014E58654E0108C14E0108F14E0108FFF7CCBF9E
S31508014E6838B500F58055D5F82C28104B9A4218D133
S31508014E78D0F80C2800F10C0303EB8203D5F83C287B
S31508014E88934210D0111DC5F83C1811688A89CC8936
S31508014E9892B2A4B2A242F1D0CA8100F6180013F060
S31508014EA8E5FE034800E0034838BD00BF354C010854
S31508014EB8C14E0108F14E0108FFF7D2BF08B500F542
S31508014EC88053D3F82C28054B9A4205D100F61800C9
S31508014ED813F0E2FE024808BD0248FCE7354C010812
S31508014EE81D4F0108F14E0108FFF7E8BF00F580508C
S31508014EF8D0F82C28044B9A4203BF002380F8483877
S31508014F0802480348704700BF354C0108654E010839
S31508014F181D4F0108FFF7EABF70B50446FCF7BCFE4A
S31508014F28124B00252360124B04F61806C4F81038EC
S31508014F380123304684F81438C4F80C5814F01EF9BD
S31508014F480C4A04F58053A3F840583046A3F842584A
S31508014F58C3F83828A3F84458C3F83C58A3F8465860
S31508014F6883F8485813F05EFE204670BDCCFA03084C
S31508014F7858F30308654E010810B50468016044B181
S31508014F882046FFF743FE2046BDE810401021FDF7ED
S31508014F98E9B910BD00232DE9F74F07468A46914618
S31508014FA88846D1F800680360037101EB860546F364
S31508014FB81D0444B9454519D10123B6F5007F3B714E
S31508014FC833D129F0B5FC4FEA540B08EB8B014A4655
S31508014FD850460191FFF72CFE019928B1013C01F1D0
S31508014FE80408A4EB0B04E4E75C46E2E742464946B3
S31508014FF85046FFF71DFE08B30123B6F5007F3B713E
S31508015008DFD055F8043C4AF82630013645F8044DF0
S31508015018CAF80068A845284616D1D9F800104046A6
S31508015028C9F80040FFF7A8FF08E0D9F800300136AB
S31508015038C8F80030C9F80040CAF800683846C7F801
S31508015048008003B0BDE8F08F55F8041D2C60FFF702
S3150801505893FFDFE707B50A4600F10C016846FFF733
S3150801506899FF03B05DF804FBF8B504460E4B04F145
S315080150780C07036000F6180013F01CFDD4F80C5849
S3150801508825B92046FCF700FE2046F8BD57F8046BFB
S31508015098013D002EF4D03046FFF7B8FD1021304601
S315080150A8FDF760F9ECE700BFCCFA030810B504462A
S315080150B8FFF7DAFF204641F64C01FDF753F920467A
S315080150C810BD008A70478088704781800120704723
S315080150D810B50446024B0360FCF7D6FD204610BD01
S315080150E804FB030810B50446FFF7F2FF20462421FE
S315080150F8FDF738F9204610BD406800F00FB840683A
S31508015108FFF7DFBF0346C068198A1A8C03688A1A2B
S3150801511851425B6851411847FFF7F4BF08B5038C3C
S3150801512823B10182FFF7EEFF012008BD1846FCE707
S3150801513838B504460D46FCF7AFFD144B144A2360EF
S315080151480023C4E90524134AE5602382E26123841E
S315080151581020FDF7FBF82A460F4B1049104DFFF7AB
S315080151683BFD1020FDF7F2F82B4604F114020D4910
S31508015178FFF732FD1020FDF7E9F82B460A4904F135
S315080151881C02FFF729FD204638BD00BF04FB0308AA
S31508015198E4FA0308F4FA0308ACF403085C3C0408C7
S315080151A8A8F40308A43C0408B440040803289ABFD1
S315080151B8014B185C4920704714FB0308436893F8A8
S315080151C8082122B9D3F8C430D86800F088BFB0F9E5
S315080151D80800704710B5024C0281C0E9004110BDAC
S315080151E820FB030838B508461C464AB91B685D6999
S315080151F80B681B68984701462046A847012038BD11
S315080152080020FCE713B50C46184652B91B6801A9D4
S315080152185B699847236820465B680199984702B0F5
S3150801522810BD0020FBE770B50D461646044610204A
S31508015238FDF78CF833462A462146BDE87040FFF744
S31508015248CBBC70B50D46164604461020FDF77EF808
S3150801525833462A462146BDE87040FFF7BDBC000023
S3150801526870B50C4605461D4E00F1180132462068F0
S31508015278FFF7E7FF3246606805F12801FFF7E1FF06
S315080152883246174EA06805F13801FFF7DAFF3246AC
S31508015298E06805F16401FFF7C6FF3246206905F1A2
S315080152A86C01FFF7C0FF3246606905F17401FFF723
S315080152B8BAFF3246A06905F17C01FFF7B4FF324609
S315080152C8E06905F18401FFF7AEFF3246206A05F168
S315080152D88C01BDE87040FFF7A6BF00BFA0F9030817
S315080152E83CFB030810B50446084627F007FE636821
S315080152F81988FFF7AEFC014628B123682046BDE8A0
S3150801530810401B68184710BDB0F90000704740687F
S3150801531803681B68184708B50C30FFF7F8FF00281B
S3150801532814BF6420002008BD406803681B68184735
S3150801533838B504462C30FFF7F7FF054604F14C004B
S31508015348FFF7F2FF281A18BF012038BD406803681D
S315080153581B681847436803EB8103588870478068B8
S315080153687047436833F921007047806870470079A8
S31508015378704780887047B0F904007047808870477D
S315080153880079704738B508461C464AB91B68DD686E
S315080153980B681B68984701462046A847012038BD6F
S315080153A80020FCE713B50C46184662B91B680DF1CF
S315080153B80601DB689847236820465B68BDF906102D
S315080153C8984702B010BD0020FBE737B58368044645
S315080153D80D468DF8071008300DF10701984700B1F9
S315080153E8257103B030BD4068FFF7A2BF4068FFF7D3
S315080153F892BF08B54068FFF787FF08BD0978406876
S3150801540800F0C7BE70B50D46164604461020FCF7CF
S315080154189DFF33462A462146BDE87040FFF7DCBBA7
S3150801542870B50D46164604461020FCF78FFF33461D
S315080154382A462146BDE87040FFF7CEBB38B5044673
S31508015448154B0360154B00F590700360FCF71CFCBF
S31508015458D4F81C0170B9D4F8100188B9D4F80C012C
S31508015468A0B904F1CC00FDF7CDFA2046FCF70CFCEF
S31508015478204638BD05680821FCF774FF2846E9E780
S3150801548805680821FCF76EFF2846E6E7056808213E
S31508015498FCF768FF2846E3E758FC0308ACFC030851
S315080154A810B50446FFF7CAFF20464FF41071FCF7FA
S315080154B859FF204610BD03681B68184710B50446EE
S315080154C800F59070FFF7F7FF04F1CC00FFF7F3FF3B
S315080154D810BD03685B681847D0F8C43010B5D8689A
S315080154E8144600F00FFE64236043B0FBF3F080B264
