S02B0000453A5C68676D5C7265706F735C63735C72656C656173655C6373335C6373335C6D61696E5C63733399
S3150801000000400020210201082502010827020108F3
S315080100103D0201083F0201085502010800000000DF
S31508010020FFFFFFFF00000000000000006B0201084F
S315080100306D020108000000006F0201087102010843
S31508010040FD0702080D0802081D0802082D08020806
S315080100503D0802084D0802085D0802086D080208F5
S315080100607D0802088D0802089D080208AD080208E5
S31508010070BD080208CD080208DD080208ED080208D5
S31508010080FD0802080D0902081D0902082D090208C2
S315080100903D0902084D0902085D0902086D090208B1
S315080100A07D0902088D0902089D090208AD090208A1
S315080100B0BD090208CD090208DD090208ED09020891
S315080100C0FD0902080D0A02081D0A02082D0A02087E
S315080100D03D0A02084D0A02085D0A02086D0A02086D
S315080100E07D0A02088D0A02089D0A0208AD0A02085D
S315080100F0BD0A0208CD0A0208DD0A0208ED0A02084D
S31508010100FD0A02080D0B02081D0B02082D0B020839
S315080101103D0B02084D0B02085D0B02086D0B020828
S315080101207D0B02088D0B02089D0B0208AD0B020818
S31508010130BD0B02088502010885020108CD0B0208DC
S31508010140DD0B0208ED0B0208FD0B02080D0C020877
S315080101501D0C02082D0C02083D0C02084D0C020864
S315080101605D0C02086D0C02087D0C02088D0C020854
S315080101709D0C0208AD0C02088502010885020108DA
S31508010180BD0C020808B500F0C1F81D4D1D4AAA426A
S315080101900BD2D2E900130C3252F8044CC91A9C420C
S315080101A0F5D9585843F8040BF9E70021164A174CB4
S315080101B0A24208D252F8083B52F8040C9842F7D9E1
S315080101C043F8041BFAE702F029F90026104C114DF1
S315080101D02D1BAD10B54204DD54F8043B9847013692
S315080101E0F8E700260C4C0D4D2D1BAD10B54204DD6C
S315080101F054F8043B98470136F8E720F0E7FCFEE798
S315080102006404010858040108640401086C0401081F
S315080102106C0401086C0401086C0401087C040108DB
S3150801022014480047FEE71EF0040F0CBFEFF30880E1
S31508010230EFF309807146104A1047FEE7FEE71EF004
S31508010240040F0CBFEFF30880EFF3098071460B4AE0
S315080102501047FEE71EF0040F0CBFEFF30880EFF31B
S3150801026009807146064A1047FEE7FEE7FEE7FEE704
S3150801027070470000850101083B0201085302010885
S3150801028069020108FEE7FFFF1B4B1A6822F4502298
S315080102901A601A6842F480321A601A689103FCD50A
S315080102A00121164A520102F1844211604FF41442A7
S315080102B09A60134A116821F0040111606FF07F41B9
S315080102C05160116841F0010111600E4A5A601A68BD
S315080102D042F080721A601A689201FCD540F20361F5
S315080102E0094A11609A6842F002029A609A6802F015
S315080102F00C02082AFAD17047003802407438020005
S3150801030010E000E00C3C4005003C024038B50024F2
S315080103104848036843F0010303608460036823F0D7
S31508010320847323F480330360434B4360036823F4E7
S3150801033080230360C460FFF7A7FF404B404A9A60D9
S3150801034062B6404ADA60036943F020030361036930
S3150801035023F020030361036B43F020030363BFF318
S315080103604F8F4FF0A043384A13604FF4004393610F
S315080103704FF480439361436A43F480734362436A4B
S3150801038023F480734362436C43F4807343640369C3
S3150801039043F001030361036923F001030361036B5E
S315080103A043F001030363BFF34F8F284B284D996828
S315080103B041F00101996027494C60296841F440419F
S315080103C029604FF4807159604FF4001119610721B2
S315080103D059634FF000419161996841F080419960F4
S315080103E019688907FCD5D96CB1F5946F00D3013426
S315080103F0642CF1D14FF4004393614FF0804393612C
S31508010400436A43F480734362436A23F48073436205
S31508010410436C23F480734364036943F02103036146
S31508010420036923F021030361036B23F021030363AB
S3150801043038BD00BF003802401030002400ED00E04E
S31508010440000001080003FA050014024000200140DB
S30D080104500000024000230140EF
S315080104582C9A040800400020F0400020F0400020B3
S31508010468E4B10020A9240108858E0108B18E010886
S30908010478850E0208D4
S3150801048070B5002604461D46C0E9001206721046DC
S315080104900BF0DAFE606801210BF098FF20684FF433
S315080104A0E1310CF0BBFC314620680CF0D9FC294639
S315080104B020680CF000FD206829460CF0F0FC204667
S315080104C070BDF0B5154685B0039101A981E80C0008
S315080104D004460068029ED0E90532D21A036AC76942
S315080104E0511EDB1B48BF9B18771B3A1DCB1A9A4234
S315080104F003D90123237205B0F0BD9DF80C100CF049
S315080105000CFCF9B220680CF008FC9DF80E10206866
S315080105100CF003FC9DF80F1020680CF0FEFBB542A9
S31508010520E9D015F8011BF7E72DE9F0410D4686B02C
S3150801053069468046286881E80C0017460CF062FC7B
S315080105400328044606D80023404688F8043006B036
S31508010550BDE8F08103AB04AE0493059696E8060060
S3150801056028680CF02BFC9DF80D300433A342EAD819
S31508010570042428680CF0F0FB013CFAD1019C9DF893
S315080105800D30E41B9C4228BF1C4604972744059757
S3150801059096E8060028680CF0F1FB9DF80D30A34299
S315080105A004D928680CF0D8FB0134F6E7039801232F
S315080105B0C8F80000C8E700680CF01EBC024A0260D1
S315080105C000224260704700BFBD050108024A026069
S315080105D000224260704700BF951701080020704746
S315080105E000797047017101207047007970470171E0
S315080105F001207047072998BF436882B09BBF03EB68
S3150801060041031B8E0023ADF8043098BF0123002057
S315080106108DF80630BDF8043063F30F00BDF80630D7
S3150801062063F31F4002B070470020704708207047E7
S31508010630072998BF436882B09BBF03EB41031B8C14
S315080106400023ADF8043098BF012300208DF8063049
S31508010650BDF8043063F30F00BDF8063063F31F409D
S3150801066002B0704708207047072998BF0B4B82B024
S315080106709BBF03EB81035B880023ADF8043098BF69
S31508010680012300208DF80630BDF8043063F30F000E
S31508010690BDF8063063F31F4002B0704740280308CF
S315080106A008207047072998BF0A4B82B097BF33F8CD
S315080106B021300023ADF80430012300208DF80630DF
S315080106C0BDF8043063F30F00BDF8063063F31F402D
S315080106D002B07047402803080820704741680B4854
S315080106E0D1E90123824202D16BB9C869704708482A
S315080106F08242F9D007498A4205D1002B14BF4FF02F
S31508010700FF30082070474FF0FF307047050B01088E
S31508010710850B0108BD0501080020704737B50D4650
S3150801072004460C4B0C4900930233019302AB13E9BF
S315080107300C0005F10C000968FFF7C3FE05F154002A
S315080107400A2101F051FE054B204623600023636010
S3150801075003B030BDBD2803087C2803081910010819
S3150801076030B591F82C300C46B3FA83F3054685B0BB
S315080107705B098DF8043081F84D3001AB02930C49C1
S315080107800DF10503039304AB13E90C0004F10C0006
S315080107900968FFF796FE04F154000A2101F024FEC8
S315080107A0044B28462B6000236B6005B030BD00BFA3
S315080107B06C2803084D10010837B50D4604460C4B45
S315080107C00C4900930533019302AB13E90C0005F1BB
S315080107D00C000968FFF775FE05F154000A2101F0BE
S315080107E003FE054B204623600023636003B030BD3A
S315080107F0DB280308702803088110010838B5074B60
S3150801080004460360C06D20B1056801F043FE284621
S31508010810F9E7204601F0A5FB204638BD8C280308D8
S3150801082010B50446FFF7EAFF2046DC2101F034FE45
S31508010830204610BD02780B789A420DD142784B7842
S315080108409A4209D382788B789A4205D1C078CB78B7
S31508010850C31A5842584170470020704770B50025A1
S3150801086004460160C0E9015529460C3001F0B6FD80
S31508010870102608233246E36129466575E582A56196
S3150801088004F1200021F0BAFA3246294604F1300073
S3150801089021F0B4FA094B2046C4E91034084BC4E9DF
S315080108A01234084BC4E91434074BC4E91634074B10
S315080108B0C4E91834064BC4E9013570BD0427030899
S315080108C014270308282703083C2703085027030889
S315080108D0550A0108437D37B50446C3B16D460C3048
S315080108E001F097FDA36828465A1013F0010F04EB8F
S315080108F00201636818BFA25804F1040418BFD3584B
S31508010900984795E8030084E8030003B030BD024A1E
S31508010910C0E90123F9E700BF550A01084FF0FF3185
S3150801092008234FF6FF72C0E90613C28200F12001BF
S3150801093000F13003994202D021F8022BFAE74FF66B
S31508010940FF7200F140018B4202D023F8022BFAE72D
S31508010950437D0BB10023437570470000022330B570
S3150801096085B08DF8053091F82C300C46002B0CBF5C
S315080109700423002305468DF8043001AB02930E4982
S315080109800DF10603039304AB13E90C0004F10C0003
S315080109900968FFF796FD0A2104F1540001F024FDC8
S315080109A004F16000FFF7BAFF044B28462B600023C9
S315080109B06B6005B030BD00BF6828030881110108C6
S315080109C0002200B589B006928DF81C20C8228BB288
S315080109D001918DF81530090C1B128DF816308DF81A
S315080109E0171005AB091203938DF81B208DF8181003
S315080109F0027D0DF11D030649049303AB8DF81420FE
S31508010A0009680CCB0068FFF75CFD09B05DF804FBCB
S31508010A10AD28030838B5CB690C46072B88BF0023D8
S31508010A20054688BFCB61CA69084B204653F8221090
S31508010A30FFF7C6FF04F10C004FF4C87101F0D4FCAE
S31508010A40034B28462B6000236B6038BD40280308FA
S31508010A50050B01084B7D10B504461BB1FFF7DAFFFC
S31508010A60204610BD014AC0E90023F9E7550A0108E5
S31508010A7038B50D460446CA69084B284653F822106C
S31508010A80FFF79EFF05F10C004FF4C87101F0ACFCAD
S31508010A90034B204623600023636038BD40280308C2
S31508010AA0850B010870B5002205460823084601F1A1
S31508010AB0200634463188248A0236A14228BF2146B7
S31508010AC0B1F5005F07D2082B15D000EB4304248C3F
S31508010AD08C4288BF13460132082AEAD1082B04D072
S31508010AE0064A52F82310FFF76BFF054B28462B6081
S31508010AF000236B6070BD1346EDE700BF402803086D
S31508010B00BD05010870B5CB690446C8685A0040B9E5
S31508010B104FF6FF758818068CAE4204BF4FF6FE7570
S31508010B2005844FF6FF700A44128C824220D0072BA7
S31508010B3013D1CB6901EB4302128CB2F5005F04D3E2
S31508010B402046FFF795FF204670BD1BB92046FFF7E3
S31508010B50A9FFF8E7013BCB61EBE70848013330F819
S31508010B6023009042E5D2CB612046FFF753FFEAE71F
S31508010B70034B236000236360E5E700BF40280308B1
S31508010B80050B010838B5CB69CD6801EB430304466B
S31508010B904FF6FF72188E6DB9904202D14FF6FE726A
S31508010BA01A864FF6FE72CB695BB92046FFF77AFFC4
S31508010BB0204638BD9042F4D1074B23600023636079
S31508010BC0F6E7013BCB6101EB43031B8C9342EAD168
S31508010BD02046FFF74DFFEBE7850B010838B50446BC
S31508010BE00C200D4601F04AFC0346021D95E8030058
S31508010BF082E80300E26DE3651A6038BD2DE9F0412C
S31508010C008CB06B4683E8060090F84F3006469BB3D6
S31508010C10541A142C28BF14240D46002104F1040883
S31508010C2005AF424638460B9121F0E8F896F84E3062
S31508010C300B9A8DF81430B6F8523042448DF81530B7
S31508010C401B128DF816302B460B928DF8174006AA03
S31508010C502C449C4204D013F8011B02F8011BF8E747
S31508010C600B9B07493B44CDE9037303AB0CCB0968DE
S31508010C7006F10C00FFF725FC0CB0BDE8F08100BFBA
S31508010C80E028030838B505460C4652B101F12003A0
S31508010C9001F1180292E8030083E80300012384F8AE
S31508010CA03830206900210BF091FB04F154004FF410
S31508010CB0967101F099FB034B28462B6000236B6064
S31508010CC038BD00BF010E01087FB50446543001F056
S31508010CD0A0FB04F1C80001F09CFB04F1D00001F06F
S31508010CE098FBE36902AE5A1013F0010F04EB0201F7
S31508010CF0A36918BFA258304618BFD35804F118057E
S31508010D00984796E8030085E8030004F16000FFF7B9
S31508010D10E1FD237D5BB100236E46214630462375EE
S31508010D200122FFF7AFFF96E8030085E8030004B048
S31508010D3070BD00002DE9F043002604460D46B04675
S31508010D40DFF8749085B0CDE9028802AF97E80C0008
S31508010D5005F10C016846FFF7E7FB9DF804304BB136
S31508010D60009B494638460293FFF764FD002818BFE1
S31508010D700646E8E77EB1022285F84D2095F84F2010
S31508010D800AB185F84F300A4B236000236360204679
S31508010D9005B0BDE8F0836B6D2BB9012229462046C3
S31508010DA0FFF770FFF3E7034BC4E90036EFE700BF2F
S31508010DB0710E0108350D0108A928030837B50D4636
S31508010DC004460C4B0C4900930133019302AB13E91A
S31508010DD00C0005F10C000968FFF773FB05F15400D7
S31508010DE0642101F001FB054B204623600023636063
S31508010DF003B030BDA8280308A4280308350D010847
S31508010E0038B50D460446012128690BF0DFFA6B6DEA
S31508010E104BB905F10C00FFF7CEFB29462046FFF733
S31508010E20CDFF204638BD024B236000236360F8E7F7
S31508010E30010E010873B500250E460446CDE9005595
S31508010E40094902AB13E90C0006F10C000968FFF722
S31508010E5038FB06F154000A2101F0C6FA2046034B75
S31508010E60C4E9003502B070BD74280308D10F010822
S31508010E7091F82C2010B5012A044605D891F834308A
S31508010E8043B9FFF74BFC03E0044B036000234360BF
S31508010E90204610BDFFF7CEFFFAE700BF710E010825
S31508010EA038B591F84E300C4681F874300123054661
S31508010EB081F8753001F1C80001F093FA04F1D00008
S31508010EC001F08FFA0023034A84F83830C5E9002374
S31508010ED0284638BDA11A010882B02DE9F04F89B01C
S31508010EE000AFFB6499463B6D0646FB60D7E915A33F
S31508010EF0A3EB0A05BB6005F1090323F00703ADEB74
S31508010F00030D0C46E8469346AA1C0DEB02037B60CB
S31508010F1001F10C033B607B68C7F81880FB6107F198
S31508010F20200313E90C00396807F11000FFF7FCFAF2
S31508010F303A7D7B7C9AB9636D5BB9012221463046BD
S31508010F40FFF7A0FE30462437BD46BDE8F04F02B094
S31508010F507047183494E8030086E80300F2E73A7C00
S31508010F60202AD8D1012BD6D9B97C9BF802209142E7
S31508010F70D1D1F97C9BF803209142CCD198F8002075
S31508010F80002ADAD198F80120002AD6D1BA68A3F145
S31508010F90020B92450FD1FB68FA685B1084F84CB0D6
S31508010FA0D20704EB030148BFE358304648BF53F85C
S31508010FB00990C847C6E75D452A4628BF5A46002A0A
S31508010FC0E9D008F10201504620F0F0FEE3E70000FF
S31508010FD0002330B504460D4689B0CDE9043301AA8C
S31508010FE004A903C982E803000093084A084B294665
S31508010FF02046FFF771FF2268064B9A4203D16368C0
S315080110000BB985F83430204609B030BD7428030879
S315080110101D07010819100108002330B504460D46BD
S3150801102089B0CDE9043301AA04A903C982E80300FA
S3150801103000932046034B044A2946FFF74DFF2046F5
S3150801104009B030BD610701087C280308002330B5C3
S3150801105004460D4689B0CDE9043301AA04A903C99A
S3150801106082E8030000932046034B044A2946FFF70A
S3150801107033FF204609B030BDB90701086C280308BB
S3150801108030B501F1500389B0049301F15203059378
S3150801109004AA01AB05460C4692E8030083E803005F
S315080110A0002328460093044A044B2146FFF714FF00
S315080110B0284609B030BD00BF70280308811401080D
S315080110C0002330B504460D4689B0CDE9043301AA9B
S315080110D004A903C982E8030000932046034B044A86
S315080110E02946FFF7F9FE204609B030BD311501083A
S315080110F07828030830B589B0044606A80D460FF0CE
S31508011100E5FDDDE906239B1A082B4FF0000394BF82
S315080111100B4A0C4ACDE906230023CDE9043304AA78
S3150801112001AB92E8030083E80300079B204600937E
S31508011130054A069B2946FFF7CFFE204609B030BD72
S315080111405D0901081116010880280308002330B536
S3150801115004460D4689B0CDE9043301AA04A903C999
S3150801116082E8030000932046034B044A2946FFF709
S31508011170B3FE204609B030BD5D0901088028030881
S31508011180002330B504460D4689B0CDE9043301AADA
S3150801119004A903C982E8030000932046034B044AC5
S315080111A02946FFF799FE204609B030BDCD0501084D
S315080111B068280308F0B587B004460846694681E8F9
S315080111C00C001349FFF736FB9DF830609DF8347023
S315080111D0054668B1009A137A8DF80F301FB956B1D2
S315080111E0527BFF2A07D084F84E30012384F84F300A
S315080111F0284607B0F0BD0DF10F030493054904AB6A
S3150801120005930CCB096804F10C00FFF75AF9EFE7CF
S31508011210D3280308B9280308F0B587B00546084658
S31508011220694681E80C001A49FFF704FB9DF83070FE
S315080112300446E8B1009B05F10C0093F800C003AE23
S315080112400DF10E02134904ABAFB195F84F7097B182
S3150801125095F84E5065450ED10124CDE90462096819
S315080112600CCB8DF80D408DF80C503C46FFF729F94B
S31508011270204607B0F0BD0025CDE9046209680CCB0C
S31508011280ADF80C508DF80CC0FFF71BF9F0E700BF5D
S31508011290C7280308C3280308F0B585B00F46694671
S315080112A0054681E80C0038461249FFF7C3FA064697
S315080112B0E0B1009C95F84E3022789A4216D12379EE
S315080112C0A3B9637993B97B78A279073B9A420DD181
S315080112D0ED6DE71D55B1A379281D07332344CDE9E3
S315080112E0027302A96B6898472D68F3E7304605B083
S315080112F0F0BD00BFBF280308F7B5044626460D46CC
S31508011300174600F037FE244B3A4646F80C3B294669
S3150801131001233046FFF7B4F8204B0025A362204B82
S31508011320294623631F4BC4E90655C4E90F341E4BEE
S31508011330C4E90855C4E911344FF4007384F82C50F4
S31508011340A4F84C3084F8345084F8385084F84F5057
S31508011350256504F1540001F041F831466E46E5650C
S3150801136004F16000FFF77AFA192104F1C80001F0C7
S3150801137035F8332104F1D00001F030F82146304622
S315080113802A46FFF77FFC96E8030004F1180383E871
S315080113900300204603B0F0BD8C2803086427030820
S315080113A074270308842703089427030830B585B0F2
S315080113B06B460C4683E80600114645680368AB424E
S315080113C01CD01A68A24206D15A688A4205D014B9B5
S315080113D00A43D20701D50C33F1E71B89ADF80C3066
S315080113E0012300208DF80E30BDF80C3063F30F0091
S315080113F0BDF80E3063F31F4005B030BD0023F0E79A
S315080114001FB5426802AB183292E8030083E803006D
S31508011410074893E80600FFF7C9FF10F47F0F01900C
S315080114200CBF4FF6FF70BDF8040005B05DF804FB6C
S315080114309C2703081FB5426802AB203292E80300D5
S3150801144083E80300074893E80600FFF7AFFF10F4A7
S315080114507F0F01900CBF4FF6FF70BDF8040005B071
S315080114605DF804FB9C27030810B50C1A134605D032
S3150801147001462246184620F0A7FC0346181910BD56
S315080114802DE9F04385B091F84C3000AF022B804628
S315080114900D4607D00122FFF7F5FB40461437BD4636
S315080114A0BDE8F08338460FF011FCD7E900010B1AA5
S315080114B003F10C0222F00702ADEB020DB5F850203C
S315080114C000248DF800200DF1050C12128DF801206B
S315080114D06E46624603F105098DF804308DF802401F
S315080114E08DF80340013B002B03DB0CF8014B013B54
S315080114F0F9E7FFF7B9FFBE600B494E44FE6007F1F5
S31508011500100313E90C00096805F10C00FEF7D9FF71
S315080115100A2105F1540000F067FF044BC8F80030B2
S315080115200023C8F80430B8E778280308C110010871
S315080115302DE9F0438FB0074601A8894605AD0FF09E
S31508011540C5FBDDE90186A6EB0806082E4FF0210248
S315080115504FF000012846344628BF082420F04EFCE7
S315080115604FF48173ADF81630264B082E069303F116
S31508011570F55303F5DE1303F6C453079303F10B532F
S3150801158003F53B2303F5FF73089303F15543A3F5CD
S315080115905513A3F67E1309934FF67A43ADF828300F
S315080115A04FF0E7038DF82A3004F117038DF815304B
S315080115B004F101038DF82B308CBF0823092308EBAE
S315080115C004010DF12D02404619348DF82C302C44B6
S315080115D0FFF74AFF0C490395049403AB0CCB09F1B9
S315080115E00C000968FEF76DFF09F154000A2100F0A5
S315080115F0FBFE064B38463B6000237B600FB0BDE817
S31508011600F08300BF0611076C80280308F51001084E
S315080116102DE9F0418EB0064601A888460FF056FB23
S31508011620DDE90174E41B1D2C4FF01D024FF000018A
S3150801163006A828BF1D2420F0E1FB01238DF81430EC
S3150801164009238DF81730A31C39198DF8153005AD06
S31508011650631C06AA384604348DF816302C44FFF765
S3150801166003FF0B490395049403AB0CCB08F10C005B
S315080116700968FEF726FF08F154000A2100F0B4FEB6
S31508011680044B30463360002373600EB0BDE8F08129
S31508011690802803084D11010808B513460A1A06D011
S315080116A0194620F075FBB0FA80F0400908BD012003
S315080116B0FCE700002DE9F341884602A901E90C007F
S315080116C0D0E901352F4A04469342009E42D1B5FA24
S315080116D085F700257F092C494046FFF7ABF8E0B1AD
S315080116E0637D002B33D0227D33789A422FD1B3788C
S315080116F0727842EA0322E2823179F37843EA0123D6
S315080117002383B179737943EA01236383E369072B59
S3150801171003D857B304EB43031A841C4A08F104019E
S315080117204046FFF7B9FF90B1637D83B1338873B142
S31508011730E269072A0BD84FF6FD7103F500538B4270
S3150801174028BF0B469BB2B7B104EB4204238402B00F
S31508011750BDE8F0810E4A934209BFB5FA85F500271F
S315080117606D09002718BF3D46B5E7002DD5D004EB16
S3150801177043031A86D1E7002DE9D004EB42042386F8
S31508011780E5E700BF050B0108B5280308B1280308DA
S31508011790850B01082DE9F04191F8343096B00646DB
S315080117A00C46C3B991F82C30023B012B13D907AF6C
S315080117B001F10C0816AB0597069305AD95E80C00E3
S315080117C0414603A8FEF7B0FE9DF8103063B91F4ADB
S315080117D03260736004E0002221463046FFF752FA70
S315080117E0304616B0BDE8F08116AB0597069395E825
S315080117F00C0003A904F16000FFF75CFF16AB069322
S3150801180094F82C300597B3FA83F35B090193012306
S31508011810009395E80C0003A92046FFF7CBFC48B1D5
S315080118204FF4FA7104F1540000F0DEFD084B336001
S315080118300023CEE716AB00900597069395E80C00B2
S3150801184003A92046FFF7E8FCB4E700BF951701088E
S31508011850B519010837B50546084602A901E90C007C
S315080118600C4A011D9DF81840FFF716FF60B1009A52
S31508011870137903F001004CB130B1204691785378C1
S3150801188043EA0123A5F8523003B030BDD84300F02E
S315080118900100F9E7D728030813B50446084602A943
S315080118A001E90C00074A011DFFF7F6FE38B1009B56
S315080118B05A781B7853EA022318BFA4F8D83002B025
S315080118C010BD00BFCB28030813B50446084602A974
S315080118D001E90C00084A011DFFF7DEFE48B194F83C
S315080118E04F0030B1009B987894F84E30C31A58428D
S315080118F0584102B010BD00BFCF2803082DE9F041B9
S3150801190006460D4694B005AF01F10C0814AB0397D2
S31508011910049303AC94E80C00414601A8FEF704FEC3
S315080119209DF8083073B96A6D42B9002229463046D6
S31508011930FFF7A8F9304614B0BDE8F0810C4AC6E9AC
S315080119400023F7E714AB0397049394E80C0001A965
S3150801195005F16000FFF7AEFE14AB0397049394E814
S315080119600C0001A92846FFF7AFFF0028CED0DCE717
S31508011970FD18010837B50C46054601F14E030093DB
S3150801198001F14F030A49019302AB13E90C0004F173
S315080119900C000968FEF795FD04F15400322100F0A8
S315080119A023FD28462146FFF7A9FF284603B030BD87
S315080119B0B92803082DE9F04391F82C3097B0032B89
S315080119C006460C4615D04B6D9BB107AF01F10C08C5
S315080119D016AB0597069305AD95E80C00414603A895
S315080119E0FEF7A2FD9DF810309BB92C4AC6E90023E3
S315080119F00BE004F1200304F1180292E8030083E8DE
S31508011A00030021463046FFF7B5FF304617B0BDE85B
S31508011A10F0834FF0010916AB0597069395E80C007C
S31508011A2003A904F16000FFF745FE16AB0597069377
S31508011A30CDF8009095E80C0003A92046FFF70AFFA8
S31508011A4020B121463046FFF72BFADEE716AB05979C
S31508011A50069395E80C0003A92046FFF735FF28B140
S31508011A604A4621463046FFF70DF9CEE7CDE9000093
S31508011A7003A995E80C002046FFF79CFB16AB0693D5
S31508011A8094F82C300597B3FA83F35B09009395E82C
S31508011A900C0003A92046FFF7BFFB99E7B519010812
S31508011AA02DE9F04791F82C3096B0032B07460C46E2
S31508011AB002D1FFF75FFF3CE0D1F8C83001F10C080D
S31508011AC007AE63B9CDE907334D49404696E80C00A0
S31508011AD00968FEF7F6FC04F1C80000F082FCDFF89D
S31508011AE0289105AD16AB0596069395E80C00414677
S31508011AF003A8FEF719FD9DF81030002B6FD016AB21
S31508011B000596069395E80C0003A904F16000FFF712
S31508011B10D1FD16AB0596069395E80C0003A9204658
S31508011B20FFF7D2FE824640B1002221463846FFF72A
S31508011B30A9F8384616B0BDE8F08795E80C0003A960
S31508011B402046FFF7A9FBCDE900AA16AB0596069331
S31508011B5095E80C0003A92046FFF72CFB16AB069364
S31508011B6094F82C300596B3FA83F35B09009395E84C
S31508011B700C0003A92046FFF74FFB16AB0596069303
S31508011B8095E80C0003A92046FFF786FE38B104F153
S31508011B90C80000F026FC04F1D00000F022FC16ABC8
S31508011BA0069300230596009395E80C0003A92046A1
S31508011BB0FFF750FE10B1214638467AE7494603A891
S31508011BC0FEF738FE00288DD09DF81C209DF81D30A3
S31508011BD0134387D104F1D00000F003FC82E7D4F85F
S31508011BE0D02042B904F1200304F1180292E8030057
S31508011BF083E80300DFE7034AC7E9002399E700BF43
S31508011C0060280308A11A01086428030810B50446C8
S31508011C10164B40F8A03B00F0A5FC04F1900002F039
S31508011C2093FE04F1800002F08FFE04F1700002F0C9
S31508011C308BFE04F1600002F087FE04F1500002F009
S31508011C4083FE04F1400002F07FFE04F1300002F049
S31508011C507BFE04F1200002F077FE04F1100002F089
S31508011C6073FE204600F07DF9204610BDEC280308D6
S31508011C7010B50446FFF7CAFF2046C42100F00CFC44
S31508011C80204610BDC368A03093F8381000F042BC56
S31508011C9038B504460D4600F06DF9254B05F12802C5
S31508011CA02360E560234904F1100002F0D6FD05F131
S31508011CB03002214904F1200002F09CFD05F13C02A5
S31508011CC01E4904F1300002F0AEFD05F144021C493B
S31508011CD004F1400002F0A7FD05F1A002194904F13B
S31508011CE0500002F0ADFD05F1A802174904F16000A4
S31508011CF002F0E7FD05F1B002144904F1700002F0A3
S31508011D00E0FD05F1B802124904F1800002F0D9FD9F
S31508011D1005F1C0020F4904F1900002F0D2FD02223A
S31508011D200D4904F1A00000F003FC204638BD00BFB0
S31508011D30EC280308CC6C0308BC6403080C6103088F
S31508011D4054690308CC610308446803083C6803081E
S31508011D50BC670308E4680308CC57030870B5154641
S31508011D6004460E4601F50562296802F05CFD06F691
S31508011D705C02A96804F1100002F055FD06F664023A
S31508011D80696804F1200002F04EFD06F66C02296925
S31508011D9004F1300002F061FD06F67402E96804F107
S31508011DA0400002F05AFD204670BD10B50446403089
S31508011DB002F0CAFD04F1300002F0C6FD04F120006C
S31508011DC002F0C2FD04F1100002F0BEFD204602F049
S31508011DD0BBFD204610BD30B501249440013C1BB122
S31508011DE0012B17D0002030BD8568C368C1F14001B9
S31508011DF08A1A2DBAC2F120001BBAA2F1200105FAEE
S31508011E0000F023FA02F2024325FA01F10A4304EA31
S31508011E100200E8E7D0E90235C1F12000A1F120026C
S31508011E2005FA00F023FA01F1014325FA02F21143FA
S31508011E3004EA0100D7E72DE9F04F099E1BB1012BF2
S31508011E4036D0BDE8F08F4FF00109A2F1200BC2F19F
S31508011E50200A29FA0AFA09FA0BF709FA02F4C2F171
S31508011E60400CACEB010C14F1FF3447EA0A0747F1C1
S31508011E70FF37ACF1200AC56807FA0CF3CCF1200943
S31508011E8004FA0AFA96FA86F824FA09F943EA0A03D9
S31508011E9004FA0CF408FA0CFC876843EA09038CEA8D
S31508011EA0050C03EA0C0327EA04046B40C0E9024364
S31508011EB0D0E902754FF0010CA2F12008C2F1200EFB
S31508011EC00CFA02F30CFA08F42CFA0EFE13F1FF339E
S31508011ED044EA0E0444F1FF32A1F1200C03FA0CFC8A
S31508011EE0C1F120048A4023FA04F442EA0C0222438F
S31508011EF0C1F1200CA1F1200406FA04F426FA0CFC1F
S31508011F008B4044EA0C0406FA01F179406C400B4017
S31508011F1022407B406A40C0E9023292E704289ABF10
S31508011F20014B185C4920704704290308406870472B
S31508011F3000207047808870478368994205D3C36833
S31508011F40994202D84160012070470020704700007D
S31508011F5003681988014B186803F08DBD0C410020F0
S31508011F607047704710B504460C2100F095FA2046D3
S31508011F7010BD0000024A02600022C0E90122704732
S31508011F805C29030838B5054655F8104FAC4206D00A
S31508011F9054F8043C201F9B6898472468F6E738BD27
S31508011FA038B5054655F8104FAC4206D054F8043CEE
S31508011FB0201FDB6898472468F6E738BD38B505461B
S31508011FC055F8104FAC4206D054F8043C201F1B6943
S31508011FD098472468F6E738BD38B5054655F8104FD1
S31508011FE0AC4206D054F8043C201F5B699847246824
S31508011FF0F6E738BD0346002110B553F8042F93427E
S3150801200004D01468C2E900112246F8E7C0E9013391
S31508012010016010BD10B50446044B40F80C3BFFF7B0
S31508012020E9FF2046FFF79DFF204610BD7C290308DE
S3150801203010B50446FFF7EEFF2046182100F02CFAEA
S31508012040204610BD10B50446044B40F80C3BFFF77B
S31508012050D1FF2046FFF7DEFF204610BD9C29030865
S3150801206010B50446FFF7EEFF2046182100F014FAD2
S31508012070204610BD10B50446FFF77CFF044B2046E9
S3150801208023600023E36004F11003C4E9043310BD9F
S315080120907C290308436910B50A1D00F110048B60F9
S315080120A04C6042611A60C3680133C36010BDF8B55C
S315080120B004460546002654F8103F9C420AD0181FCC
S315080120C01F68C3E9006603D053F8043C5B68984768
S315080120D03B46F2E7C5E90444EE60F8BD10B504468F
S315080120E0FFF7C8FF014B2046236010BD9C29030852
S315080120F0D0E901239B1A994238BF535C82B036BF97
S315080121008DF804300023012300208DF805309DF851
S31508012110043063F307009DF8053063F30F2002B01E
S3150801212070470020704782684068101A70474368F4
S315080121301868704738B5044600F0B2F91D4D0C30E1
S31508012140224660601C49256004F1080002F078FB0C
S3150801215000F0A6F9083004F11802E0611749A561F3
S3150801216004F1200002F06CFB00F09AF904F1300248
S31508012170C4E90C50124904F1380002F061FB00F081
S315080121808FF90430E06404F14802A5640D4904F1AD
S31508012190500002F055FB0C4B04F1600223660B4B11
S315080121A00B4963660A33A36604F16C0002F0A3FBCC
S315080121B0204638BDBC290308AC660308B466030883
S315080121C01C6B0308E4690308CC290308D82903080A
S315080121D0AC69030810B504466C3002F0B5FB04F18E
S315080121E0500002F0B1FB04F1380002F0ADFB04F136
S315080121F0200002F0A9FB04F1080002F0A5FB204625
S3150801220010BD007970470000024A0260002202717F
S3150801221002727047EC29030829B1037A83F0010396
S315080122200371017270470B46FAE719B9037A03710C
S31508012230017270470023FAE7C3680171836070472A
S3150801224019B9C368017183607047836823B1013B7B
S3150801225083600023037170470123FBE7034A026089
S3150801226000220271C0E90221704700BFEC29030868
S315080122700022C0E90022027170477047034B1B68B0
S31508012280DB6B19440123016003717047F04000209C
S31508012290037953B1074A01681268D26B91424FF02C
S315080122A0000204D20271184670470123FBE7134660
S315080122B0F9E700BFF040002013B50446124B186039
S315080122C0124B08301B6803F5BD5340F8043CFFF771
S315080122D005FF04F12000FFF701FF00236068E363AF
S315080122E084F83830236403694FF47A715B681030D7
S315080122F09847074B60686946CDE900340AF058FBF0
S31508012300204602B010BD00BFF0400020DC4300208B
S315080123104923010838B5C36B04460133C3634068D2
S31508012320836918301B68984794F8383005461BB1FD
S3150801233004F10800FFF742FE6068836918301B68DC
S315080123409847401B206438BD4068FFF7E3BF00008B
S3150801235090F8383070B504462BBB00F108063046B4
S3150801236004F12005FFF70EFE2846FFF70BFE0E4B7C
S31508012370186803F00FFC3046FFF712FE2846FFF7F0
S315080123800FFE012384F838302846FFF717FE94F824
S315080123903830002BF8D13046FFF71EFE2846BDE837
S315080123A07040FFF719BE70BD0C41002037B50446D1
S315080123B0002569464068CDE900550AF0F9FA04F1A5
S315080123C02000FFF73FFE04F10800FFF73BFE204619
S315080123D0014B1D6003B030BDF0400020C0E900117B
S315080123E07047436803607047C0E900117047436846
S315080123F033B1026864205043B0FBF3F398B27047D7
S315080124001846704708B5FFF7F2FFC0F1640080B2BD
S3150801241008BD03680BB1013B036070477047FEE7CF
S3150801242008B51FF0AFFC582303604FF0FF3008BD15
S31508012430044B1A681118196003498B6803448B60A9
S315080124401046704700400020F84000200346094A1C
S3150801245010B51168013111604107074918BF20F00D
S315080124600703086818BF0833C4180C6091680B4441
S31508012470936010BDF840002000400020FFF7E6BF3A
S31508012480FFF7E4BF024A536801335360704700BF40
S31508012490F8400020FFF7F6BFFFF7F4BFFFF7F2BFDA
S315080124A000487047F8400020024B0349034A5B1A6B
S315080124B0D360704700C00120E4B10020F840002035
S315080124C0303809288CBF002001207047FEE70346F3
S315080124D0012029B1CA0748BF584349085B43F8E7B1
S315080124E070475B1A10B507D0121A05D0029C241A38
S315080124F0634393FBF2F31944084610BD40687047DD
S3150801250041600120704700880B8898422CBF002043
S3150801251001207047037D2BB921B1C3697E2B9CBF6E
S315080125200133C361017570470023C36103757047A1
S31508012530002310B504460273074AC0E90033026155
S31508012540064A0375C0E90623054B816001461868EA
S3150801255000F088FC204610BD74270308FC290308EF
S315080125600841002010B50446034B0146186800F0DF
S315080125700DFB204610BD00BF084100200C3000F0BD
S31508012580A2B8000038B504460D46FFF7F3FC20460D
S31508012590034B294640F80C3B00F0ACF8204638BD01
S315080125A00C2A030810B50446044B40F80C3BFFF708
S315080125B0D9FF2046FFF7D5FC204610BD0C2A030893
S315080125C038B504460D4600F0CFF805F614221C4925
S315080125D004F1200002F00EF905F61C22194904F14E
S315080125E0300002F02DF905F62422174904F14000BE
S315080125F002F026F905F63C22144904F1500002F0CE
S315080126006DF905F65822124904F1600002F066F9DF
S3150801261005F664220F4904F1700002F052F905F635
S315080126206C220D4904F1800002F058F905F674226E
S315080126300A4904F1900002F01DF9204638BD00BF91
S31508012640DC6C030874610308AC6303084C67030870
S315080126505C680308C46C0308BC6C0308E46C0308D3
S3150801266010B50446903002F06FF904F1800002F0CB
S315080126706BF904F1700002F067F904F1600002F0E9
S3150801268063F904F1500002F05FF904F1400002F029
S315080126905BF904F1300002F057F904F1200002F069
S315080126A053F904F1100002F04FF9204610BD10B598
S315080126B004462430FFF7C4FD94F828102046BDE8E7
S315080126C01040FFF727BF10B50446FFF72DFF04F1A9
S315080126D024000021BDE81040FFF7AEBD38B5044619
S315080126E01D46FFF725FF294604F12400FFF7B6FD2D
S315080126F0204638BD38B505460C460A790968FFF7FC
S3150801270017FFA16805F12400FFF7A8FD284638BD83
S3150801271042680120136810335360704770B5054647
S3150801272014262B6803F11002D3F8103A3BB106FBC5
S3150801273003236C689C4204D100206A6070BD13466D
S31508012740F7E704F114036B60204600F0CAF8002885
S31508012750E7D0236820461D8800F099F845EAC0703D
S31508012760ECE74068FFF7DABF10B50446064B01608F
S3150801277010314160C0E9023000F108020349103006
S3150801278002F05EF8204610BD2C2A0308B46303083C
S31508012790002070474368D3F8100A70470020704735
S315080127A04368D3F8100A7047436882B0D3F8102AF1
S315080127B0002091423DBF142202FB01310B6900231F
S315080127C03EBF1B88ADF8043001238DF80630BDF8ED
S315080127D0043063F30F00BDF8063063F31F4002B0FF
S315080127E070474368D3F8100A704710B5D1E9014319
S315080127F01B1BB2EBA30F37BF54F82230002303602B
S315080128000123037110BD83684068181A8010704748
S31508012810406870471423026803FB01210160704771
S31508012820034670B5044600250C4AD0F8101A43F839
S31508012830102B61B1184650F80C2F0139824204D089
S315080128401668C2E900553246F8E71433F1E7044B36
S3150801285020461960FFF785FB204670BD9C2A0308B0
S315080128600841002010B50446FFF7DAFF204640F676
S315080128707C21FFF711FE204610BDD1F8102A01F17F
S31508012880100312B1142101FB02330360704750F89B
S315080128900C3F834203D01A7D12B91B68F9E700225F
S315080128A01046704707B54068D0F8103A8B4216D9DA
S315080128B01423103003FB0100FFF7E9FF01238DF80C
S315080128C0040000208DF805309DF8043063F30700F5
S315080128D09DF8053063F30F2003B05DF804FB002370
S315080128E0EFE7002250F80C3F834203D0D9691B68F1
S315080128F00A44F9E7104670474B6810B5D3F8101A21
S31508012900044691420AD91420103300FB0230FFF71E
S31508012910E8FF012320602371204610BD0023FAE752
S3150801292038B5054655F80C4FAC4204D02046FFF79A
S31508012930FBFD2468F8E738BD03790A7B934228BF73
S3150801294013460371036900F10C024B600A600161C9
S31508012950196083680133836070478B680A7B03605B
S31508012960002310B5836000F10C030271C0E903333B
S31508012970FFF7E2FF10BD0423024670B50025037177
S3150801298052F80C3F934213D099420AD1D1E9004635
S31508012990346066608468013C8460C1E900551B683F
S315080129A0F0E71C7B0679B44228BF34460471F6E782
S315080129B070BD38B5D0F8103A00F110044BB11425A2
S315080129C005FB0345A54204D02046FFF7A9FF1434A9
S315080129D0F8E738BDFFF7EDBF2DE9F84390F8183A47
S315080129E0044623B1002380F8183AFFF7E2FF0023D3
S315080129F0D4F8107A04F62C29C4F82C3AC4F8303ADB
S31508012A00C4F8343AC4F8383A04F64828C4F8483AB7
S31508012A10C4F84C3AC4F8503AC4F8543A04F11005CB
S31508012A20EFB1142303FB0757BD4218D028462E7968
S31508012A30FFF72DFF30B104EB8602D2F82C3A0133A9
S31508012A40C2F82C3A2846FFF74CFF30B104EB86064C
S31508012A50D6F8483A0133C6F8483A1435E4E700236C
S31508012A6004F63C21894503D059F8042B1344F9E7A8
S31508012A70C4F8203A002304F65821884503D058F8AB
S31508012A80042B1344F9E7C4F8283ABDE8F883000093
S31508012A90D1F8103A2DE9F34706468846174601F15B
S31508012AA0100503B3142202FB03532C465B1B194A78
S31508012AB09B1002FB03F9B9F1000F16DD4FEA690A0B
S31508012AC0514601A80194FFF7A5FE019B39461868EE
S31508012AD0FFF719FD28B1019CA9EB0A0A14340AF17A
S31508012AE0FF3AD146E7E72B46DFE7D8F8103A13B1A4
S31508012AF0142202FB0355AC4206D021683846FFF77B
S31508012B0002FD002818BF2C463046346002B0BDE8E5
S31508012B10F08700BFCDCCCCCC13B504460A46014696
S31508012B206846FFF7B5FF01A82146FFF7A6FEDDE9CE
S31508012B300003C01A18BF012002B010BD13B5044620
S31508012B400A4601466846FFF7A3FF01A82146FFF793
S31508012B5094FEDDE90003834203D0FFF798FE02B035
S31508012B6010BD0020FBE713B504460A460146684630
S31508012B70FFF78EFF01A82146FFF77FFEDDE9000377
S31508012B80834201D0FFF7CCFE02B010BD37B505462A
S31508012B908A680C4601466846FFF77AFF01A8294666
S31508012BA0FFF76BFEDDE90003834202D02146FFF7FA
S31508012BB0E2FE03B030BD0000F8B504460025102733
S31508012BC0FFF7D8F9214B3A462360214B29461C6069
S31508012BD0204BC4F8105AC4F8143A1F4B84F8185AF3
S31508012BE0C4F81C3AC4F8243A04F62C23C4F8205A2B
S31508012BF0C4F8285A18461FF001F9184E04F63C2362
S31508012C00C4F8443A04F64823C4F8400AC4F83C6AAE
S31508012C103A46294618461FF0F1F804F65823C4F82F
S31508012C20603A0F4BC4F85C0AC4F8643A0D4BC4F811
S31508012C30586AC4F86C3A0C4BC4F8684AC4F8704A26
S31508012C40C4F8743AC4F8784A2046F8BD9C2A0308A1
S31508012C5008410020742703083C2A03084C2A030864
S31508012C60602A0308742A0308882A03088142F0B5F2
S31508012C7024D002680B680AB9C0E900000BB9C1E99A
S31508012C800011D1E90064D0E900C57768DCF804E0F1
S31508012C90CCF80470C6F804E027682E682F60266011
S31508012CA004680D6805600C604D68446845604C60B1
S31508012CB00AB9C1E900220BB9C0E90033F0BD000029
S31508012CC02DE9F84380460E46174610464FF000098F
S31508012CD008F10C05A5F10C039E4200F114041AD063
S31508012CE055F80C3C0C3044F8143C15F8083C40F8EF
S31508012CF0049C00F8083C294644E90200FFF7B6FFA0
S31508012D0055F8042C54F80C3C143544F80C2C204680
S31508012D1045F8183CDEE7A6EB08060548B60846431B
S31508012D20142026F0404600FB0670BDE8F88300BF74
S31508012D30CDCCCC0C38B50B68044603600B790D462F
S31508012D40037100230C3040F8043C0C31C4E903003C
S31508012D50FFF78CFFA368AA682046A260AB6038BD5E
S31508012D602DE9F84F002303600371D1F8003A804634
S31508012D700E461746EBB14FF0140909FB0319A9EBE7
S31508012D800605AB10364D34465D431423ADB14FEA03
S31508012D90550A03FB0AF23968A05804EB020BFFF740
S31508012DA0B2FB142338B1013DA5EB0A050BEB03046D
S31508012DB0ECE78946E3E75546E8E7A14508D101234B
S31508012DC0D6F8002A88F80430802A0ED11EF0C8FFEA
S31508012DD021683868FFF797FB0028F0D188F8045076
S31508012DE0C8F800404046BDE8F88F142303FB026289
S31508012DF0944209D139462046FFF79CFFD6F8003A96
S31508012E000133C6F8003AEBE7A2F114051146284644
S31508012E10FFF756FFD6F8003A0133C6F8003AAC4236
S31508012E200FD055F8143D6B612B7905F10C012B7602
S31508012E3005F12000FFF71AFFEB69AA68AB60EA61A2
S31508012E40EDE73B6807F10C0123603B7904F10C00BF
S31508012E502371FFF70BFFA368BA68A260BB60BFE7DF
S31508012E60CDCCCCCC30B504460D4689B08A6801462E
S31508012E706846FFF70DFE214603A8FFF7FEFC0098FA
S31508012E80039B2946834203D0FFF756FD09B030BD9F
S31508012E9003A8FFF762FD03AA01A804F11001FFF7D1
S31508012EA05FFF0022069B06A88342EFD01968C3E993
S31508012EB000220B46F8E7B0F9040070470020704776
S31508012EC0D0E901239B1AB1EB630F38BF32F81130F1
S31508012ED082B036BFADF804300023012300208DF8F7
S31508012EE00630BDF8043063F30F00BDF8063063F30E
S31508012EF01F4002B070470020704783684068181A5F
S31508012F00401070471FB5002301248DF8083000943E
S31508012F1002AB09F0ADFC80B19DF808308DF80D4083
S31508012F208DF80C3000209DF80C3063F307009DF8EE
S31508012F300D3063F30F2004B010BD8DF80D00F1E7D5
S31508012F402DE9F34116468DF800208DF801306A46C1
S31508012F501D4602230746884609F0C0FB3246044649
S31508012F6041463846FFF7CEFFADF804003CB19DF85F
S31508012F70054024B19DF80440631B5C425C41204630
S31508012F8002B0BDE8F0811FB50023ADF80830022371
S31508012F9042F08002009302AB09F06AFCB0B19DF8D9
S31508012FA009209DF8083043EA0223ADF80C300123C5
S31508012FB08DF80E300020BDF80C3063F30F00BDF814
S31508012FC00E3063F31F4005B05DF804FB8DF80E0063
S31508012FD0F0E72DE9FF41044603270125002694F869
S31508012FE01180B8F1000F60D02722217CE068FFF735
S31508012FF089FF637CADF80000002BC0F3072014BFDE
S31508013000034600236374F8B19DF800301A071BD5EF
S315080130102822217CE068FFF7B6FF2A220190217C4D
S31508013020E068FFF7B0FF2C220290217CE068FFF7E9
S31508013030AAFF637C03903BB19DF806301BB19DF84E
S315080130400A30002B77D166740722217CE068FFF7E6
S3150801305059FF637CADF80800002BC0F3072014BFA5
S31508013060034600236374E0B19DF808305B0718D561
S315080130700C22217CE068FFF786FF637C0390002B16
S31508013080C0F3074014BF03460023637408B1BDF8B3
S315080130900C000A2300B2584348BFFF300012FA3029
S315080130A02085637C002B40D042E065740F22217C89
S315080130B0E068FFF727FF10F47F4FADF80C002BD01F
S315080130C09DF80C30332B27D16574C0231F22217C30
S315080130D0E068FFF735FFF8B1657467232022217C84
S315080130E0E068FFF72DFFB8B1657443462122217CBC
S315080130F0E068FFF725FF78B1657443462222217CF3
S31508013100E068FFF71DFF38B1657488232322217C07
S31508013110E068FFF715FF804684F811806682A6826B
S31508013120E682B8F1000F7FF45FAF013F7FF457AF36
S3150801313004B0BDE8F0819DF80E30002B83D043F62C
S315080131404A534FF47A31BDF904205A4392FBF1F2FE
S315080131506282BDF908205A4392FBF1F2A282BDF9B7
S315080131600C20534393FBF1F3E3826DE710B5044654
S31508013170024B0360FEF7F5FE204610BDE02A030860
S3150801318010B50446FFF7F2FF20462C21FFF784F914
S31508013190204610BD70B5154604460E46FEF7EAFEF2
S315080131A00C4B002D236014BF3223302323740023D4
S315080131B0094AE660A26104F11202E26104F1180209
S315080131C02262064A637463826361626223852046CA
S315080131D070BD00BFE02A0308BC2A0308D02A0308E9
S315080131E04068704700207047007970470020704793
S315080131F04368988A7047B0F90400704781800120B6
S315080132007047007F012802D0031F58425841704772
S3150801321090F8E43023B9034B1B6893F8CC0C70473C
S3150801322000207047E04300204068FFF7F1BF000027
S31508013230044BC0681B689B6803EB5003B3FBF0F0B3
S31508013240704700BFE04300204068FFF7F1BF000068
S3150801325011B9C16001207047064B1B689B68B1EB29
S31508013260430F05D803EB5103B3FBF1F3C360F1E751
S3150801327000207047E04300204068FFF7E9BF0000DF
S31508013280044B00691B689B6803EB5003B3FBF0F022
S31508013290704700BFE04300204068FFF7F1BF000018
S315080132A021B90161C0F88C1001207047094B1B68D0
S315080132B09B68B1EB430F0BD803EB5103B3FBF1F159
S315080132C0838A016159434FF47A73B1FBF3F1E9E754
S315080132D000207047E04300204068FFF7E1BF037F05
S315080132E0032B0BD1B1F57A7F08D8B0F892308B420F
S315080132F028BF0B46A0F8943001207047002070477C
S315080133004068FFF7ECBFB1F57A7F28BF4FF47A71B1
S31508013310036981824B434FF47A71B3FBF1F3C0F829
S315080133208C30012070474068FFF7EDBF0B4B1968D9
S3150801333001F13003C31ADA10094B534323F003038F
S315080133400B445A694FF4FA635343A3F5EA43303BF6
S315080133505200B3FBF2F3A0F892307047E043002025
S31508013360DF7BEFBD124B70B51D6842F20F740A235D
S3150801337042F210716A68642603FB0242B2FBF1F25B
S31508013380C0F8BC206A6806FB0242B2FBF1F2C0F83B
S31508013390CC206A6806FB0242B2FBF1F2C0F8DC20D7
S315080133A06B6806FB0343B3FBF1F3C0F8EC3070BD61
S315080133B0E0430020006809F00FB8006809F006B874
S315080133C0037A10B50BB1C1F57A710A4B44681A68CC
S315080133D002F13003C01A084BC010584320F003000D
S315080133E01044436959434FF47A73B1FBF3F12160F1
S315080133F010BD00BFE0430020DF7BEFBD0B4B196812
S3150801340001F13003C31ADA10094B534323F00303BE
S315080134100B445A69017A43681B6801B1D31A4FF400
S315080134207A705843B0FBF2F080B27047E04300204F
S31508013430DF7BEFBD4068FFF7E1BF38B500250446DD
S31508013440C0E93C55C0E92655C0E92855C0E92A55C1
S315080134502946C030FEF7F0FE294604F1D000BDE842
S315080134603840FEF7E9BE0023C0E92633C0E9283310
S31508013470C0E92A337047000082B0F0B5D0E9275475
S315080134808D42069364DD491B067F022E65D0A6F19F
S31508013490050CDCF1000646EB0C060029D4BF002713
S315080134A00127B6EBD17F0CBF01FB01F30023B7421D
S315080134B06FF41C7633440CBF49430021002BD0F826
S315080134C0A8604CDA334423EAE373C0F8A8306FF4F2
S315080134D01C7319440029D0F8AC3048DA194421EA9A
S315080134E0E171274B079E1B6896425F6AA8BF16467D
S315080134F0069BC0F8AC109A42B8BF1A4643F6FF734A
S31508013500711B0029B8BF494207FB01310029B8BF21
S31508013510C91805EBA13543F6FF71131BB542D4BF94
S31508013520C0F89C50C0F89C60002BB8BF5B4207FBF3
S315080135300313002BB8BF5B18A4EBA3339342ACBFAC
S31508013540C0F8A030C0F8A020BDE8F04002B070472E
S31508013550A142CCBF091B002196E701269DE76FF022
S315080135600047BF1B9F42D4BFF319F318ADE76FF0AD
S315080135700046F61A8E42D4BF99195918B1E700BF09
S31508013580E0430020D0E92A301844054B1B681A6A23
S3150801359040F2712353439842D4BF0020012070475B
S315080135A0E0430020D0F8F430026901339342C0F8B1
S315080135B0F43022BF0023C0F8F4300123D0F8F420F8
S315080135C028BF80F89030D0F88C309A4224BF002367
S315080135D080F890307047D0F8F020F8B5C568013208
S315080135E0AA4228BF0023C0F8F02028BFC0F8F0304F
S315080135F004460F46FFF705FEB4F9506048B3724218
S3150801360094F890300BB9216971BB05B3002E636B31
S31508013610B8BF76427343B3FBF7F14FF47A73694344
S31508013620B1FBF3F16B1E9942A8BF1946B4F92C30C8
S31508013630B342A8BF334600B15B42D4F8F0008842D2
S3150801364009DAC1EB4000434393FBF1F10A44104602
S31508013650F8BD3246D4E76D1A411AA5EB41014B4331
S3150801366093FBF5F31A44F2E71A46F0E72DE9F04F12
S31508013670164687B004468846FFF794FF3146FFF79A
S31508013680AAFF07460A20694B41F288311A6840F6B3
S31508013690B83395685268B5FBF0FAB2FBF0F25245B9
S315080136A0A8BF524618255A4305FB0AF54FEA8A135D
S315080136B0B2FBF1F2B5FBF1F5B3FBF1F1204603924A
S315080136C00291FFF79EFD4FF47A73002840F6B83E43
S315080136D0606B18BFB14600FB07F008BF4FF0000941
S315080136E090FBF3F00299D4F8A430A7EB080C4B43EE
S315080136F0039AD4F8981005FB0CF50EFB0AFE02FB9B
S315080137000C1248BFFF3305EB2323CEF10005AA426D
S31508013710A8EB070B4844C4F8A43003DB9645754665
S31508013720A8BF1546C4F8985095FBFAF503442B44EF
S315080137304FF47A755D4395FBF6F3B3F57A7F05DDAC
S31508013740BBF1000F07DAC4F8981004E0002B02DA7F
S31508013750BBF1000FF7DCB4F8925020469D42A8BF92
S315080137601D4625EAE575A9B2FFF72AFE204601217D
S31508013770FFF723FE207F626B0228B4F8923048D007
S3150801378005284FEA420C44D02949A3F57A737143B7
S3150801379091FBFCF104914FF47A71734393FBF1F3B6
S315080137A04B43520893FBF2F30593059B3A46414670
S315080137B000932046049BFFF75FFE4FF47A73616B13
S315080137C0754301FB07F895FBF3F598FBF3F7FFF74C
S315080137D018FDA5EB09097F004FF4FA6318B33946BA
S315080137E098FBF3F7A1F5FA714945D4BF00210121E8
S315080137F004F1C00007F5FA77FEF722FD4F45ACBF85
S315080138000021012104F1D00007B0BDE8F04FFEF711
S3150801381017BD002104914FF47A71734393FBF1F3B9
S3150801382052004B43BEE798FBF3F1DBE7E043002088
S3150801383018FCFFFF2DE9F04105460E461746FFF72E
S31508013840B1FEB0F9504034B190F890401CB9046902
S31508013850B4FA84F464092846FFF7D3FC844214BFFA
S31508013860B5F89210002180462846FFF7A9FD0121E7
S315080138702846FFF7A2FD2846FFF7F5FDFFF7C1FC2D
S31508013880444514BF3C460024002808BF00274FF4CE
S315080138907A73E41B5C43696B05F1C00094FBF1F490
S315080138A004EBD4777F106400A7423946B8BF214696
S315080138B03231B142ACBF00210121FEF7C1FCBC4245
S315080138C0A8BF3C46A4F13201B14205F1D000D8BFE8
S315080138D00021BDE8F041C8BF0121FEF7B1BC0000D7
S315080138E0134B70B51B6804469E68FFF787FD0546AE
S315080138F02046FFF75FFDB4F89420B0B10D4BB3FB3A
S31508013900F6F3E91A8A4203DB59199142A8BF11460F
S31508013910204689B2FFF754FD20460121FFF74DFDE8
S315080139202046BDE87040FFF788BD1146F0E700BFA5
S31508013930E043002040420F00F8B540F6C415A1F552
S3150801394000614D4348BF05F2FF7504461646ED1260
S31508013950FFF757FC002838D06B421BB2A4F8683031
S3150801396041F2941305F6CA01994204F1B00794BFCE
S31508013970002101213846FEF763FC1EB901213846AC
S31508013980FEF75AFC94F848300BBB00212046FFF796
S3150801399014FD237F032B00F086804FF4FA7120462D
S315080139A0FFF70EFD2046FFF748FD002DB8BF6D4213
S315080139B0182D77DC94F8B430002B73D104F1E000AC
S315080139C00121BDE8F840FEF73BBC2BB2C6E794F8E7
S315080139D0E460002ED9D0237F5A1E012A0BD91A1F5B
S315080139E0012A46D8314B29461B682046B3F9AC2C27
S315080139F0FFF720FF07E02D4B29461B682046B3F940
S31508013A00AC2CFFF733FE2046FFF7BCFD50B1D4E9D5
S31508013A102A320A2192FBF1F0834235DA062300267F
S31508013A2084F8783094F8B4301BB10323002684F85F
S31508013A30783094F8C4301BB10223002684F8783014
S31508013A4094F8D4303BB3012384F87830002104F18B
S31508013A50E000FEF7F1FB237F032B0CBFB4F894308B
S31508013A60B4F95030C4F88030B4F86830A4F8883016
S31508013A7013E0032B03D12046FFF732FFC3E70723E1
S31508013A80002684F87830BEE793FBF1F39342CCBF66
S31508013A9005230423C3E7002ED8D094F8E430002B7D
S31508013AA03FF473AFF8BDB4F8941078E7E04300200B
S31508013AB038B503724FF47A730025C0E90012838280
S31508013AC0304A314BC0E90C258361304A304BC0E995
S31508013AD00F20C0E908302F4A2F4B42648362C36422
S31508013AE02E4A2F4BC0E91B20C0E915302D4A2E4B13
S31508013AF04267C0E917302D4A2D4B0577858580F831
S31508013B004850A0F850504366A0F8685080F878509D
S31508013B10C0E90355C0E91F25C0F8843040F2DE33F9
S31508013B20A0F892304FF4FA730446A0F89430A0F83E
S31508013B308850C0F88C5080F89050C0E92655C0E9E5
S31508013B402855C0E92A552946B030FEF787FB29468C
S31508013B5004F1C000FEF782FB294604F1D000FEF706
S31508013B607DFB294604F1E000FEF778FB2068C4E9ED
S31508013B703C5508F069FB2068294608F027FC2046D1
S31508013B8038BD00BFFC29030864270308202B030856
S31508013B90002B030874270308102B0308502B03086E
S31508013BA0302B0308602B0308402B0308702B0308EE
S31508013BB0D02A030813B5D0E90143104A1B1BDB10B1
S31508013BC05343994217D2F82000FB0140D0F88430BC
S31508013BD084301B6898470123ADF8040000208DF84E
S31508013BE00630BDF8043063F30F00BDF8063063F301
S31508013BF01F4002B010BD0023F0E700BFDF7BEFBD19
S31508013C00836840681B1A0248DB105843704700BF97
S31508013C10DF7BEFBD10B50446D1E9010309491B1A3B
S31508013C20DB104B439A420BD2F82303FB0200C36F06
S31508013C307C301B689847012320602371204610BDFC
S31508013C400023FAE7DF7BEFBD0020704783684068F1
S31508013C501B1A0248DB105843704700BFDF7BEFBDD4
S31508013C6013B5D0E901430F4A1B1BDB105343994295
S31508013C7016D2F82000FB0140436F74301B68984741
S31508013C8001238DF8040000208DF805309DF80430D5
S31508013C9063F307009DF8053063F30F2002B010BDEA
S31508013CA00023F0E7DF7BEFBD836840681B1A0248F3
S31508013CB0DB105843704700BFDF7BEFBD13B5D0E972
S31508013CC001430F4A1B1BDB105343994216D2F820B6
S31508013CD000FB0140C36E6C301B68984701238DF8C1
S31508013CE0040000208DF805309DF8043063F30700C1
S31508013CF09DF8053063F30F2002B010BD0023F0E7ED
S31508013D00DF7BEFBD836840681B1A0248DB10584306
S31508013D10704700BFDF7BEFBD13B5D0E901430F4AFA
S31508013D201B1BDB105343994216D2F82000FB0140B6
S31508013D30436E64301B6898470123ADF804000020E0
S31508013D408DF80630BDF8043063F30F00BDF8063070
S31508013D5063F31F4002B010BD0023F0E7DF7BEFBD20
S31508013D60836840681B1A0248DB105843704700BF36
S31508013D70DF7BEFBD13B5D0E901430F4A1B1BDB10EF
S31508013D805343994216D2F82000FB0140C36D5C30BB
S31508013D901B6898470123ADF8040000208DF806300A
S31508013DA0BDF8043063F30F00BDF8063063F31F4016
S31508013DB002B010BD0023F0E7DF7BEFBD70B4D0E998
S31508013DC00164094DA41BE4106C43A14208D2F820F2
S31508013DD000FB016070BCC36D11465B685C30184717
S31508013DE0002070BC704700BFDF7BEFBD8368406869
S31508013DF01B1A0248DB105843704700BFDF7BEFBD33
S31508013E0013B5D0E901430F4A1B1BDB1053439942F3
S31508013E1016D2F82000FB0140436D54301B689847C1
S31508013E200123ADF8040000208DF80630BDF80430F2
S31508013E3063F30F00BDF8063063F31F4002B010BDEF
S31508013E400023F0E7DF7BEFBD70B4D0E90164094DCB
S31508013E50A41BE4106C43A14208D2F82000FB0160C0
S31508013E6070BC436D11465B6854301847002070BC1E
S31508013E70704700BFDF7BEFBD836840681B1A0248A5
S31508013E80DB105843704700BFDF7BEFBD13B5D0E9A0
S31508013E9001430F4A1B1BDB105343994216D2F820E4
S31508013EA000FB0140C36C4C301B6898470123ADF8F1
S31508013EB0040000208DF80630BDF8043063F30F00C6
S31508013EC0BDF8063063F31F4002B010BD0023F0E7CA
S31508013ED0DF7BEFBD70B4D0E90164094DA41BE41082
S31508013EE06C43A14208D2F82000FB016070BCC36C88
S31508013EF011465B684C301847002070BC704700BFFC
S31508013F00DF7BEFBD836840681B1A0248DB10584304
S31508013F10704700BFDF7BEFBD13B5D0E901430F4AF8
S31508013F201B1BDB105343994216D2F82000FB0140B4
S31508013F30436C44301B68984701238DF80400002020
S31508013F408DF805309DF8043063F307009DF80530B8
S31508013F5063F30F2002B010BD0023F0E7DF7BEFBD4E
S31508013F6070B4D0E90164094DA41BE4106C43A14265
S31508013F7008D2F82000FB016070BC436C11465B68EF
S31508013F8044301847002070BC704700BFDF7BEFBD87
S31508013F90836840681B1A0248DB105843704700BF04
S31508013FA0DF7BEFBD10B50446D1E9010309491B1AA8
S31508013FB0DB104B439A420BD2F82303FB0200C36B77
S31508013FC03C301B689847012320602371204610BDA9
S31508013FD00023FAE7DF7BEFBD70B4D0E90164094D30
S31508013FE0A41BE4106C43A14208D2F82000FB01602F
S31508013FF070BCC36B11465B683C301847002070BC27
S31508014000704700BFDF7BEFBD836840681B1A024813
S31508014010DB105843704700BFDF7BEFBD10B5044680
S31508014020D1E9010309491B1ADB104B439A420BD20A
S31508014030F82303FB0200036B30301B689847012302
S3150801404020602371204610BD0023FAE7DF7BEFBD10
S3150801405070B4D0E90164094DA41BE4106C43A14274
S3150801406008D2F82000FB016070BC036B11465B683F
S3150801407030301847002070BC704700BFDF7BEFBDAA
S31508014080836840681B1A0248DB105843704700BF13
S31508014090DF7BEFBD13B5D0E901430F4A1B1BDB10CC
S315080140A05343994216D2F82000FB0140836A28300F
S315080140B01B6898470123ADF8040000208DF80630E7
S315080140C0BDF8043063F30F00BDF8063063F31F40F3
S315080140D002B010BD0023F0E7DF7BEFBD70B4D0E975
S315080140E00164094DA41BE4106C43A14208D2F820CF
S315080140F000FB016070BC836A11465B68283018476B
S31508014100002070BC704700BFDF7BEFBD8368406845
S315080141101B1A0248DB105843704700BFDF7BEFBD0F
S3150801412010B50446D1E9010309491B1ADB104B43B3
S315080141309A420BD2F82303FB0200036A20301B685C
S315080141409847012320602371204610BD0023FAE712
S31508014150DF7BEFBD70B4D0E90164094DA41BE410FF
S315080141606C43A14208D2F82000FB016070BC036AC7
S3150801417011465B6820301847002070BC704700BFA5
S31508014180DF7BEFBD836840681B1A0248DB10584382
S31508014190704700BFDF7BEFBD13B5D0E901430F4A76
S315080141A01B1BDB105343994216D2F82000FB014032
S315080141B0836918301B68984701238DF8040000208D
S315080141C08DF805309DF8043063F307009DF8053036
S315080141D063F30F2002B010BD0023F0E7DF7BEFBDCC
S315080141E070B4D0E90164094DA41BE4106C43A142E3
S315080141F008D2F82000FB016070BC836911465B6830
S3150801420018301847002070BC704700BFDF7BEFBD30
S31508014210836840681B1A0248DB105843704700BF81
S31508014220DF7BEFBD70B50446534B01F1300601F54E
S315080142303D65C0E900368560024650490C3000F0FC
S315080142405AFB4F4B04F11C02C4E9073665624D4916
S3150801425004F1280000F042FB4B4B04F13802C4E993
S315080142600E362564494904F1440000F010FB484B19
S3150801427004F15402C4E91536E565464904F16000BE
S3150801428000F02CFB444B04F17002C4E91C36A56707
S31508014290424904F17C0000F021FB414B04F18C02F8
S315080142A0C4E92336C4F894503E4904F1980000F055
S315080142B0E1FA3D4B04F1A802C4E92A36C4F8B05024
S315080142C03A4904F1B40000F0E2FA394B04F1C402A8
S315080142D0C4E93136C4F8CC50364904F1D00000F0AF
S315080142E0F0FA354B04F1E002C4E93836C4F8E8506F
S315080142F0324904F1EC0000F0E4FA314B04F1FC0216
S31508014300C4E93F36C4F804512E4904F5847000F017
S31508014310BEFA2D4B04F58C72C4E94636C4F8205111
S315080143202A4904F5927000F0A5FA294B04F59A7208
S31508014330C4E94D36C4F83C51264904F5A07000F08D
S31508014340DAFA254B04F5A872C4E95436C4F858516B
S31508014350224904F5AE7000F0A7FA214BC4F874514E
S31508014360C4E95B3604F5B6721E4904F5BC7000F063
S315080143708EFA204670BD00BF802B0308F468030837
S31508014380942B0308E46B0308A82B0308DC6B0308CA
S31508014390BC2B03088C6C0308D02B0308F46B0308A9
S315080143A0E42B0308A4690308F82B0308AC6B03087C
S315080143B00C2C0308EC6B0308202C0308C46A0308B9
S315080143C0342C0308F4690308482C0308FC6903081C
S315080143D05C2C0308846B0308702C03085C6C0308C7
S315080143E0842C0308646C030810B5044600F5BC70F8
S315080143F000F0AAFA04F5AE7000F0A6FA04F5A0706A
S3150801440000F0A2FA04F5927000F09EFA04F58470A1
S3150801441000F09AFA04F1EC0000F096FA04F1D000E3
S3150801442000F092FA04F1B40000F08EFA04F1980053
S3150801443000F08AFA04F17C0000F086FA04F16000C3
S3150801444000F082FA04F1440000F07EFA04F1280033
S3150801445000F07AFA04F10C0000F076FA204610BD55
S3150801446010B504460846636811462278FDF7B3FC81
S31508014470237A2BB123785A1E012393405840C01A38
S3150801448010BD82896AB14369994203DB83698B420C
S31508014490A8BF0B46B0F90A104B4393FBF2F3016927
S315080144A019440846704730B5D0E90723044602EB9C
S315080144B0C3039A42104606D0083252F8045C8D426C
S315080144C0F7D1006830BDB4F90A306BB12069091A11
S315080144D0A089484390FBF3F360698342F2DBA06944
S315080144E09842A8BF1846EDE71846EBE773B50D469F
S315080144F0194604461646FFF7D6FF636800902278E8
S3150801450028463146FDF797FC012002B070BD436984
S315080145108B4205DC80698842B4BF002001207047C0
S315080145200020704770B50D460446114628461A46BE
S31508014530FFF796FFD5E90731024603EBC1018B4226
S31508014540184609D053F8086B9642F8D14368236098
S3150801455001232371204670BD11462846FFF7D7FF70
S3150801456020B12846FFF78DFF2060F1E72071F1E7BA
S315080145704161704703691A7B42641B69436170474D
S3150801458003691B694361704710B504460121183058
S31508014590FEF78DF894F82C3013B123691B69636112
S315080145A010BD000013B504460B4B0C4A0360C368E3
S315080145B0CDE900206946D86807F0BFFA04F14C0036
S315080145C0FDF7D0FF04F11800FDF7CCFF2046FDF7F3
S315080145D0C8FC204602B010BD982C030843460108C2
S315080145E010B50446FFF7DEFF20467021FDF754FF9C
S315080145F0204610BD37B5044600690A46037D00F119
S3150801460018016846FFF78EFF9DF8043004F14C0542
S3150801461083B1236800999B6920469847284600215B
S31508014620FDF778FF002104F1180003B0BDE830401A
S31508014630FEF73DB80121284603B0BDE83040FDF735
S3150801464069BF4068FFF7D6BF7FB5044615460E46D3
S31508014650FDF790FC174BC4E9036523602B69AA7B18
S3150801466063616B7BA96804F11800FEF737F8AA7B2A
S31508014670696804F14C00FDF75BFFD5E90F310E4A75
S3150801468023F00043CDE90224019AE06802F00042D2
S315080146901A43009B019203F0004321F000421343A1
S315080146A0009301AA6B4602A906F098FB204604B0BE
S315080146B070BD00BF982C030843460108F8B50646A5
S315080146C00F46002456F8045FB54209D055F8043C54
S315080146D0281F1B68394698470443E4B22D68F3E757
S315080146E02046F8BDF8B504460546002754F8043FA8
S315080146F09C420AD018461E6840F8047918B153F846
S31508014700043C9B6898473346F2E72846F8BD021DE4
S31508014710426000220260704710B50446024B0360EE
S3150801472000F054F8204610BDBC2C030810B5044609
S31508014730FFF7F2FF20461421FDF7AEFE204610BD15
S3150801474037B504460D4600220169684600F0ACFDFE
S315080147509DF8040040B12946009BA268E06803B0B1
S31508014760BDE83040FFF7C2BE03B030BD2DE9F041C8
S315080147700F4619880E4B06461868904601F07BF9D4
S31508014780054690B11420FDF779FE0446424639469E
S3150801479000F012F80120074B25612360736844F87D
S315080147A0043F3368746001333360BDE8F08100BFAC
S315080147B00C410020BC2C030810B5034CC2600460F0
S315080147C00024C0E9014110BDD02C03087047000040
S315080147D0034B1868D0F8143800F614001B681847FC
S315080147E00C410020024B0146186801F04ABB00BF84
S315080147F00C410020002310B50446838101608260C4
S315080148004360C381FFF7EEFF204610BD052310B5AF
S31508014810436000230446838101608260C381FFF7F8
S31508014820E1FF204610BD022310B54360002304466C
S31508014830838101608260C381FFF7D4FF204610BDE2
S31508014840032310B543600023044683810160826017
S31508014850C381FFF7C7FF204610BD012310B543608A
S3150801486000230446838101608260C381FFF7BAFF92
S31508014870204610BD072310B54360002304468381F3
S3150801488001608260C381FFF7ADFF204610BD0C238E
S3150801489010B5436000230446838101608260C381A9
S315080148A0FFF7A0FF204610BD0D2310B54360002376
S315080148B00446838101608260C381FFF793FF204626
S315080148C010BD092310B543600023044683810160A6
S315080148D08260C381FFF786FF204610BD0A2310B503
S315080148E0436000230446838101608260C381FFF728
S315080148F079FF204610BD082310B5436000230446FE
S31508014900838101608260C381FFF76CFF204610BD79
S3150801491010B50468FFF75CFF2044807810BD10B518
S315080149200468FFF755FF2044007910BD03689B7999
S315080149300BB1FFF7F4BF184670470368D84398428E
S31508014940B8BF18467047000010B50446064B014625
S31508014950186801F081F9201DFFF7EFFF0D2801D92D
S315080149601DF0FEF9204610BD0C41002010B5044685
S315080149700430FFF7E2FF0D280ED8DFE800F00F0F2D
S315080149800F0F0F0F0F07070707070707A068BDE8EF
S31508014990104003689B6818471DF0E2F9012010BD15
S315080149A02DE9F04F002487B010469C46A246A14641
S315080149B0A046274626462546CDE90044CDE90244C8
S315080149C0A3460D2900F28081DFE811F00E003100BF
S315080149D04900610077008F00A700BF00DA00F600E2
S315080149E011012D0149016401056800942868DCF864
S315080149F00040FFF78DFF009A38B16B68ABB92368A1
S31508014A0020461B689847024601208DF810208DF82C
S31508014A10110000209DF8103063F307009DF811304E
S31508014A2063F30F2007B0BDE8F08F0020EDE70568B6
S31508014A3000942868DCF80040FFF76AFF009B48B13C
S31508014A406A6852B9236820461B689847031C18BF31
S31508014A50012301208DF81030D9E70020FAE705680F
S31508014A60DCF800402868FFF753FF58B16B6863B953
S31508014A70236820461B68984710F1000B18BF4FF0B2
S31508014A80010B01208DF810B0C1E70020FAE706688E
S31508014A90DCF800503068FFF73BFF48B1736853B93B
S31508014AA02B6828461B689847041C18BF0124012057
S31508014AB08DF81040ABE70020FAE70568DCF80040FE
S31508014AC02868FFF725FF58B16B6863B92368204644
S31508014AD01B68984710F1000A18BF4FF0010A012018
S31508014AE08DF810A093E70020FAE70568DCF8004086
S31508014AF02868FFF70DFF58B16B6863B9236820462C
S31508014B001B68984710F1000918BF4FF001090120E9
S31508014B108DF810907BE70020FAE70568DCF800407D
S31508014B202868FFF7F5FE58B16B6863B92368204614
S31508014B301B68984710F1000818BF4FF001080120BB
S31508014B408DF8108063E70020FAE70568DCF8004075
S31508014B502868FFF7DDFE88B1236869681B68204667
S31508014B60984710F47F4FADF8100007D001239DF840
S31508014B7010708DF810708DF811304AE70023F8E7A8
S31508014B800568DCF800402868FFF7C2FE90B1236883
S31508014B9069681B682046984710F47F4FADF81000E6
S31508014BA008D09DF810600123003618BF01268DF83C
S31508014BB01060E0E70023FAE70668DCF80040306891
S31508014BC0FFF7A6FE88B1236871681B6820469847D7
S31508014BD010F47F0F049008D0BDF81050012300355A
S31508014BE018BF01258DF81050C5E70023FAE70568B7
S31508014BF0DCF800402868FFF78BFE90B123686A68E5
S31508014C001B68214604A898479DF814304BB1049BAC
S31508014C10003318BF012300930123009A8DF8102051
S31508014C20A9E70023F9E70568DCF800402868FFF7DB
S31508014C306FFE90B1236869681B682046984710F48F
S31508014C407F4FADF8100008D09DF91030003318BF1A
S31508014C50012301930123019AE0E70023FBE7056895
S31508014C60DCF800402868FFF753FE88B123686968B5
S31508014C701B682046984710F47F0F049008D0BDF9A9
S31508014C801030003318BF012302930123029AC5E7A6
S31508014C900023FBE70568DCF800402868FFF738FEC3
S31508014CA080B123686A681B68214604A898479DF85D
S31508014CB014303BB1049B003318BF0123039301232E
S31508014CC0039AABE70023FBE71DF04AF830B58DB030
S31508014CD00546CDE90A010AAB043009930024FFF71A
S31508014CE02CFE4FF00003CDE902448DF804308DF80F
S31508014CF00030014605F1080309AA6868FFF750FE66
S31508014D00C3B263F30704C0F3072060F30F242046F8
S31508014D100DB030BD2DE9F04F002487B010469C46F2
S31508014D20A346A246A146A0462746CDE90044CDE9B9
S31508014D300244264625460D2900F26181DFE811F075
S31508014D400E002F0045005B00700085009A00AF0039
S31508014D50CA00E500FD0015012F0147010668DCF8C8
S31508014D6000503068FFF7D4FD38B17368ABB92B68CA
S31508014D7028461B68984784B20120ADF810408DF883
S31508014D8012000020BDF8103063F30F00BDF8123091
S31508014D9063F31F4007B0BDE8F08F0020EDE7056813
S31508014DA000942868DCF80040FFF7B2FD009A38B194
S31508014DB06B6843B9236820461B68984782B201206D
S31508014DC0ADF81020DBE70020FAE7056800942868AB
S31508014DD0DCF80040FFF79CFD009B38B16A6842B9D0
S31508014DE0236820461B68984703460120ADF8103012
S31508014DF0C5E70020FAE70568DCF800402868FFF7F0
S31508014E0087FD40B16B684BB9236820461B689847F4
S31508014E101FFA80FB0120ADF810B0B0E70020FAE7D1
S31508014E200568DCF800402868FFF772FD40B16B6839
S31508014E304BB9236820461B6898471FFA80FA012058
S31508014E40ADF810A09BE70020FAE70568DCF80040FA
S31508014E502868FFF75DFD40B16B684BB923682046AA
S31508014E601B6898471FFA80F90120ADF8109086E76C
S31508014E700020FAE70568DCF800402868FFF748FDD6
S31508014E8040B16B684BB9236820461B6898471FFADF
S31508014E9080F80120ADF8108071E70020FAE705686F
S31508014EA0DCF800402868FFF733FD88B12368696894
S31508014EB01B682046984710F47F4FADF8100007D0BD
S31508014EC001239DF81070ADF810708DF8123058E76F
S31508014ED00023F8E70568DCF800402868FFF718FDA5
S31508014EE088B1236869681B682046984710F47F4F84
S31508014EF0ADF8100007D09DF8103000930123009AF1
S31508014F00ADF81020E1E70023F9E70568DCF8004071
S31508014F102868FFF7FDFC70B1236869681B6820469D
S31508014F20984710F47F0F049005D0BDF8103001930F
S31508014F300123019AE4E70023FBE70568DCF8004052
S31508014F402868FFF7E5FC70B123686A681B68214683
S31508014F5004A898479DF814302BB1BDF81030029378
S31508014F600123029ACCE70023FBE70568DCF8004039
S31508014F702868FFF7CDFC80B1236869681B6820465D
S31508014F80984710F47F4FADF8100006D09DF9103000
S31508014F909BB203930123039AB2E70023FBE7056853
S31508014FA0DCF800402868FFF7B3FC70B1236869682C
S31508014FB01B682046984710F47F0F049005D00123FB
S31508014FC0BDF81060ADF810607FE70023FAE70668C0
S31508014FD0DCF800403068FFF79BFC70B12368726803
S31508014FE01B68214604A898479DF814302BB1012364
S31508014FF0BDF81050ADF8105067E70023FAE71CF02A
S31508015000AFFE30B58DB00546CDE90A010AAB0430CD
S3150801501006930024FFF791FC4FF00003CDE9024403
S315080150208DF804308DF80030014605F1080306AA0B
S315080150306868FFF76FFE83B263F30F04000C60F331
S315080150401F4420460DB030BD73B5069904460D2A96
S3150801505000F28180DFE802F00C0C0C0C0C0C0C1D24
S315080150601D326C45596C00232046237102B070BD70
S315080150701E680D683068FFF74BFC0028F3D073688B
S31508015080002BF0D12B6828461B689847206001231E
S31508015090EAE71E680D683068FFF73AFC0028E2D097
S315080150A02B6871681B682846984710F47F4FADF83E
S315080150B00000D8D09DF800302360E8E71E680D6827
S315080150C03068FFF725FC0028CDD02B6871681B686E
S315080150D02846984710F47F0F0090C4D0BDF80030D9
S315080150E0EAE71E680D683068FFF712FC0028BAD097
S315080150F02B6871681B682846984710F47F4FADF8EE
S315080151000000B0D09DF90030D6E71E680D683068FA
S31508015110FFF7FEFB0028A6D02B6871681B68284696
S31508015120984710F47F0F00909DD0BDF90030C3E772
S315080151301E680D683068FFF7EBFB002893D02B68D3
S3150801514072681B682946684698479DF80430002B03
S3150801515089D0009BB0E71CF003FE30B58BB005463D
S3150801516008AB081D0C46CDE908120793FFF7E5FBC6
S315080151700023CDE903338DF808308DF8043004F1A6
S3150801518008030093024607AB28466168FFF75CFFF0
S3150801519028460BB030BD73B5069904460D2A00F2B0
S315080151A08180DFE802F00C0C0C0C0C0C0C1D1D3276
S315080151B06C45596C00232046237102B070BD1E68E8
S315080151C00D683068FFF7A4FB0028F3D07368002B3D
S315080151D0F0D12B6828461B68984720600123EAE727
S315080151E01E680D683068FFF793FB0028E2D02B682C
S315080151F071681B682846984710F47F4FADF8000080
S31508015200D8D09DF800302360E8E71E680D6830683D
S31508015210FFF77EFB0028CDD02B6871681B682846EE
S31508015220984710F47F0F0090C4D0BDF80030EAE724
S315080152301E680D683068FFF76BFB0028BAD02B682B
S3150801524071681B682846984710F47F4FADF800002F
S31508015250B0D09DF90030D6E71E680D683068FFF7B3
S3150801526057FB0028A6D02B6871681B682846984703
S3150801527010F47F0F00909DD0BDF90030C3E71E687A
S315080152800D683068FFF744FB002893D02B687268D5
S315080152901B682946684698479DF80430002B89D033
S315080152A0009BB0E71CF05CFD30B58BB0054608AB3A
S315080152B0081D0C46CDE908120793FFF73EFB0023AC
S315080152C0CDE903338DF808308DF8043004F108036D
S315080152D00093024607AB28466168FFF75CFF28463C
S315080152E00BB030BD70B50D2900F2D580DFE811F09D
S315080152F00E00250036006B004A005B006B007D003E
S3150801530090009C00C400AC00B800C40014681D6875
S315080153102068FFF704FB002800F0BF806368002BB4
S3150801532040F0BB80A36819882B68003118BF01219A
S315080153305B682846BDE87040184714681D682068F0
S31508015340FFF7EDFA002800F0A8806368002B40F00B
S31508015350A480A2682B6811785B68EAE714681D685F
S315080153602068FFF7DCFA002800F097806368002BB5
S3150801537040F09380A2682B6811885B682846BDE8CF
S315080153807040184714681D682068FFF7C8FA002896
S3150801539000F083806368002B7FD1A2682B6892F99D
S315080153A000105B68C5E714681D682068FFF7B7FA3F
S315080153B0002872D06368002B6FD1A2682B68B2F9F6
S315080153C000105B68DAE714681D682068FFF7A7FA1A
S315080153D0002862D06368002B5FD1A2682B68284633
S315080153E0BDE870405B681188184714681D68206815
S315080153F0FFF795FA002850D0A3681A882B6800325F
S3150801540018BF01225B6861682846BDE870401847E5
S3150801541014681D682068FFF782FA00283DD0A26843
S315080154202B6812785B68EEE714681D682068FFF739
S3150801543076FA002831D0A2682B6812885B68616801
S315080154402846BDE87040184714681D682068FFF7AC
S3150801545066FA10B3A2682B6892F900205B68D2E756
S3150801546014681D682068FFF75AFAB0B1A2682B685C
S31508015470B2F900205B68E2E714681D682068FFF747
S315080154804EFA50B1A2682B6861682846BDE870409B
S315080154905B68128818471CF063FC002070BD30B5A4
S315080154A089B00446CDE9050105AB0430079204939A
S315080154B0FFF743FA00230146CDE902338DF804309C
S315080154C08DF8003004AA04F108036068FFF70AFFA3
S315080154D0054638B12046FFF729FA18B1A3890133E1
S315080154E09BB2A381284609B030BD70B50D2900F2DB
