S01B00007372632F6373332F6170702F6373332D70726F2E7372656363
S315080100000040002065030108690301086F03010820
S31508010010890301088F030108A903010800000000EC
S31508010020FFFFFFFF0000000000000000C3030108F6
S31508010030C903010800000000CF030108D503010820
S315080100401523020825230208352302084523020839
S315080100505523020865230208752302088523020829
S3150801006095230208A5230208B5230208C523020819
S31508010070D5230208E5230208F52302080524020808
S3150801008015240208252402083524020845240208F5
S3150801009055240208652402087524020885240208E5
S315080100A095240208A5240208B5240208C5240208D5
S315080100B0D5240208E5240208F524020805250208C4
S315080100C015250208252502083525020845250208B1
S315080100D055250208652502087525020885250208A1
S315080100E095250208A5250208B5250208C525020891
S315080100F0D5250208E5250208F52502080526020880
S31508010100152602082526020835260208452602086C
S31508010110552602086526020875260208852602085C
S3150801012095260208A5260208B5260208C52602084C
S31508010130D52602085D0301085D030108E5260208C4
S31508010140F5260208052702081527020825270208A9
S315080101503527020845270208552702086527020898
S31508010160752702088527020895270208A527020888
S31508010170B5270208C52702085D0301085D030108C2
S30908010180D527020866
S3150801018466343639613133001B4B1A6822F450221E
S315080101941A601A6842F480321A601A689103FCD507
S315080101A40121164A520102F1844211604FF41442A4
S315080101B400219A604FF0E02211616FF07F4151618D
S315080101C4116941F0010111610D4A5A601A6842F038
S315080101D480721A601A689201FCD540F20361094AD1
S315080101E411609A6842F002029A609A6802F00C0257
S315080101F4082AFAD1704700BF003802407438024011
S315080102040C3C4005003C024070B50024494803688B
S3150801021443F0010303608460036823F0847323F4C1
S3150801022480330360444B4360036823F480230360EB
S31508010234C460FFF7A9FF414B414A9A6062B6414A35
S31508010244DA60036943F020030361036923F0200399
S315080102540361036B43F020030363BFF34F8F3A4AE9
S31508010264136843F0A04313604FF4004393614FF4BA
S3150801027480439361436A43F480734362436A23F474
S3150801028480734362436C43F480734364036943F0A4
S3150801029401030361036923F001030361036B43F05B
S315080102A401030363BFF34F8F284B294D996841F026
S315080102B40101996027494C6029682E68314341F444
S315080102C4404129604FF4807159604FF40011196156
S315080102D4072159634FF000419161996841F08041C2
S315080102E4996019688907FCD5D96CB1F5946FF4D36B
S315080102F40134642CF1D14FF4004393614FF08043E8
S315080103049361436A43F480734362436A23F48073B3
S315080103144362436C23F480734364036943F0210302
S315080103240361036923F021030361036B23F02103AA
S31508010334036370BD003802401030002400ED00E06C
S31508010344000001080003FA050014024000200140D8
S31508010354000002400023014008B515F067F90000C2
S315080103641C48004708B515F061F91EF0040F0CBFC7
S31508010374EFF30880EFF309807146174A104708B569
S3150801038415F054F908B515F051F91EF0040F0CBF10
S31508010394EFF30880EFF309807146104A104708B550
S315080103A415F044F91EF0040F0CBFEFF30880EFF3C0
S315080103B4098071460A4A104708B515F037F908B590
S315080103C415F034F908B515F031F908B515F02EF913
S315080103D470470000E903010883030108A303010820
S315080103E4BD03010808B5FFF70FFF1D4A1D488242E0
S315080103F417D300201C4A1D498A421DD3002616F02C
S31508010404C7FF1B4D1B4B5B1B9C10B4421DDC00260E
S31508010414194D1A4B5B1B9C10B4421BDC00F06AF89D
S31508010424FEE7D2E9001394680C32C91A9C42DED954
S315080104345D5843F8045BF9E752F8083B52F8044C53
S315080104449C42D9D943F8040BFAE755F8043B984773
S315080104540136DAE755F8043B98470136DCE700BF6D
S315080104648404010890040108900401089804010809
S31508010474980401089804010898040108A4040108C9
S31508010484643E050800400020B0440020B044002022
S3150801049404B100200574020889E90208B5E90208CD
S315080104A810B504460B4B40F8F03B0BF027FED4F881
S315080104B8E0301BB11B6804F160009847606918B100
S315080104C8E169091A16F092FF204616F0B8FC20468B
S315080104D810BD00BFB8EF040810B50446FFF7E0FFE2
S315080104E820464FF4C47116F081FF204610BD00005E
S315080104F810B5084C2368DB0707D4074800F0EEFB5C
S315080105080123064823602BF02AFD034800F0D7FB90
S31508010518002010BDB0440020B84400202905010870
S3150801052808B50B48FFF7BCFF0A4B0B4A03F6C81078
S31508010538C3F8C82916F083FC084800F00DFB0848DB
S315080105481FF0FAFCBDE80840064800F059B900BF93
S31508010558A4AE0020B8A40020B0FF040834AE0020D9
S31508010568F4AD0020B84400200068043070470068DC
S3150801057800F5F15014307047006800F5854070475A
S31508010588006800F5854040307047006800F58A40E4
S3150801059870307047114B70B504460360D0F8B8013E
S315080105A880B904F5A67504F1AC06AE4210D015F863
S315080105B8083C283D002BF8D028690028F5D016F004
S315080105C817FFF2E705680C2116F010FF2846E7E73A
S315080105D8204616F034FC204670BD00BF1CFC0408F2
S315080105E810B50446FFF7D6FF20464FF4BB6116F04F
S315080105F8FDFE204610BD10B500220446D0F83C3150
S3150801060800F59E71994207D1206918B1A169091A9D
S3150801061816F0ECFE204610BD1868C3E90022034609
S31508010628F0E700002DE9F04F04466F4B04F5F15940
S3150801063885B009F114091860006004300DF092FAC2
S31508010648484617F07DFF04F5854604F5EE51403610
S31508010658103104F5854016F0A1FD304618F0AEFBB9
S3150801066804F58A4B04F1300304F58A400BF1700B43
S3150801067831465E4A009304F5BB4704F1240350301A
S3150801068818F082FC1037584611F0DCF804F5D071D9
S31508010698574A38461CF0D2FC04F5BC4014F06EFFE4
S315080106A804F5C743583318460BF5E461514A0393D1
S315080106B81AF09EF804F5CA4039464E4A44301EF0E7
S315080106C8BDFE04F5BF4104F5CD404A4A3031143020
S315080106D81EF014FF04F5CF42643204F5CF481046DC
S315080106E8494608F16C0802921EF0EAF940461EF0DE
S315080106F861FE04F5CF40783016F0D0FC04F5D040F9
S31508010708211D18300DF014FD04F5D1407C300FF089
S3150801071861FF04F5D240043016F0C8FD04F5D2404D
S3150801072804F585411C3016F0ABFD04F5D240314677
S31508010738243018F027F904F585450BF5E4612E48A8
S315080107481AF0C0F804350BF57A612C481AF0BAF88C
S315080107582846211D16F0B0FB3146284616F0ACFB93
S31508010768304604F5B47118F08DFF304604F61C219D
S3150801077818F0A2FF04F58A412846503116F09CFB69
S315080107885946284616F098FB2846039916F094FB0D
S315080107983946284616F090FB04F58545029A04F56C
S315080107A8C0431C35C3F82825C3F82C85C3F8882601
S315080107B8C3F88C86C3F8D827C3F8DC87284604F516
S315080107C8BC4116F079FB4946284616F075FB04F52F
S315080107D8F1512846043116F06FFB38461CF078FCAF
S315080107E8204605B0BDE8F08F38B00020C84804088F
S315080107F8BC480408B84804087C480408684804083A
S3150801080810B5044600F5D240243018F029F904F544
S31508010818D240043016F07CFD04F5D04018300DF0AE
S315080108286DFD04F5CF40783016F074FC04F5CF4019
S315080108386C301EF0DBFD04F5CF4064301EF036F946
S3150801084804F5CD401430FFF7D6FE04F5CA40443006
S31508010858FFF7D1FE04F5C740583019F061FF04F5D2
S31508010868BC40FFF797FE04F5BB4010301BF04AFE63
S3150801087804F58A40703011F00FF804F58A405030B3
S3150801088818F06EFB04F58540403018F05DF904F55B
S31508010898854016F0D9FC04F5F150143017F0E4FE3A
S315080108A8201D0DF04FFB0022014B20461A6010BD92
S315080108B838B00020836810B59B68C1F12002D3E9D6
S315080108C80004A1F12003C84004FA02F2104324FAED
S315080108D803F3184300F0010010BD30B5D0E9003222
S315080108E803EB82029A4201D1002006E053F8044B31
S315080108F825888D42F6D18460012030BD007970477C
S3150801090801710120704780887047818001207047EE
S3150801091808B54068FFF7E1FF08BD13B50C4672B97B
S315080109281A680DF106011846126990472046236888
S31508010938BDF806105B6802B0BDE8104018470020EC
S3150801094802B010BD10B51C4652B90B6808461B689B
S315080109589847236801461B6920469847012010BD18
S315080109680020FCE713B50C4672B91A680DF10701A0
S31508010978184692689047204623689DF807105B68D1
S3150801098802B0BDE810401847002002B010BD10B5E6
S315080109981C4652B90B6808461B68984723680146DE
S315080109A89B6820469847012010BD0020FCE7097876
S315080109B84068FFF77FBF73B5436904460D468DF84E
S315080109C8071014300DF10701984768B1D4E90032C8
S315080109D803EB82029A4201D1002005E053F8041B71
S315080109E80E78AE42F6D1A16002B070BD08B540686E
S315080109F8FFF7E1FF08BD43689B68187870474368A5
S31508010A089B681888704783681B8853B1828B9A42FA
S31508010A1807D1836A90F844201B78981A18BF0120D1
S31508010A287047012070470000826A0E4B2DE9F34191
S31508010A389A42054613D1D0E9084304EB8306A64230
S31508010A480DD054F8047B0DF107013B7805F1340004
S31508010A588DF807306B6B98470028F0D0AF6202B063
S31508010A68BDE8F081E011050810B50446006810B123
S31508010A780368DB689847204610BD0000334B2DE90B
S31508010A88F3471E6804463046FFF771FD05462046BA
S31508010A98FFF7B9FF074628B1284617F0AFFC2846DD
S31508010AA817F046FC2046FFF7BFFF4FF41370D4F83A
S31508010AB80890D4F828A016F08DFC52464946804677
S31508010AC806F0D0FB0023A06C0193C4F8488010B146
S31508010AD80368DB68984701A8FFF7C6FFA36A30468B
S31508010AE85B689847A36830465B689847A36A3046A7
S31508010AF89B689847A06A3146C3680C309847A0682E
S31508010B083146036910309847EFB1284617F05DFC5E
S31508010B18284617F00DFCA3680D491B882846A383A8
S31508010B2817F038FC284617F003FCA36A28461B78F1
S31508010B38084984F8443017F02DFC284602B0BDE868
S31508010B48F04717F0F5BB02B0BDE8F08738B00020CA
S31508010B58504904084C49040810B504464830FFF7BB
S31508010B6883FF204610BD0000F8B52D4B04465A6888
S31508010B781B68C0E900322B4B2B4A83602B4B8261D9
S31508010B88C0E9033000232A4AC361516812684364DD
S31508010B98C0E90821274A83648262274AC26200F1AA
S31508010BA820020263254AC0E90D20254A026410205D
S31508010BB816F010FC074604F10C02224B224917F0DD
S31508010BC829FB384617F088FA102016F003FC074661
S31508010BD804F12C021D4B1E4917F01CFB384617F069
S31508010BE87BFA102016F0F6FB074604F11802154B96
S31508010BF8184917F00FFB384617F06EFA102016F049
S31508010C08E9FB0646114B144904F1400217F002FBA9
S31508010C18304617F061FA2046FFF730FF2046F8BD3F
S31508010C28D4C00308D8600408EC480408DC4804085A
S31508010C3890490408E0110508FC480408B7090108A1
S31508010C480C49040840490408484904083C49040869
S31508010C5844490408504904084C490408406870473F
S31508010C6841600120704738B51C4652B91B680846C9
S31508010C785D690B681B68984701462046A847012005
S31508010C8838BD0020FCE713B50C465AB91A68184648
S31508010C9801A952699047236820465B6801999847D4
S31508010CA802B010BD0020FBE7006800F5D2403C30D1
S31508010CB87047036803F5C043D3F8C409704710B5EC
S31508010CC8044600F5F150143017F041FB62B604F5F5
S31508010CD88540BDE8104016F09FBA00002DE9F84393
S31508010CE80446FFF79FFC04F5994104F5D2401031F3
S31508010CF83C301FF059F904F5D24004F5D3477C3046
S31508010D08FFF732FF483704F529513846043117F0F9
S31508010D180DFD04F5D34004F5C241194A6C300BF0B0
S31508010D28B1FB002304F5C049C9F8783B154B1020D7
S31508010D38C9F8743B16F04EFB04F5D642124B7432C9
S31508010D48124904F5854517F065FA043504F5D241C3
S31508010D5828463C3116F0B0F82846D9F8C41916F0D1
S31508010D68ABF83946284616F0A7F804F5D34104F531
S31508010D7885406C311C3016F09FF82046BDE8F8838B
S31508010D887C4904085C490408784904088C4904081C
S31508010D9870B50446C06803681B68984706466569BE
S31508010DA82469A54200D170BD606814F9081B036857
S31508010DB88A1B51425B6851419847F2E7074B10B5C0
S31508010DC804460360006918B1A169091A16F00EFBF1
S31508010DD8204616F034F8204610BD00BF2C4A0408F0
S31508010DE810B50446FFF7EAFF20461C2116F0FEFA5D
S31508010DF8204610BDF7B504460D46CDE9002316F081
S31508010E0827F8DDE90070114BB0F1805F23604FF0D8
S31508010E180003E560C4E90433A3614FEAC00502D3B8
S31508010E280B482AF035F810B1284616F0D3FA4619B0
S31508010E38C4E90400A66125B12A4639462BF0DAF831
S31508010E4830466061204603B0F0BD00BF2C4A04084D
S31508010E58932A040800797047B0F9040070470020FE
S31508010E687047017101207047183015F0F9BF18301D
S31508010E7816F004B810B50446044B036016F029F8B1
S31508010E88204616F059F8204610BD00BF7C4A0408CA
S31508010E9810B50446FFF7EEFF2046182116F0A6FA04
S31508010EA8204610BD10B50446024B036015F0C7FF6E
S31508010EB8204610BD644A040810B50446FFF7F2FF38
S31508010EC82046702116F092FA204610BD10B5044640
S31508010ED8044B40F8183BFFF7CDFF204615F0AFFF46
S31508010EE8204610BD944A040810B50446FFF7EEFFDC
S31508010EF82046302116F07AFA204610BD38B51C4628
S31508010F0852B91B680846DD680B681B68984701468D
S31508010F182046A847012038BD0020FCE713B50C4632
S31508010F286AB91A6818460DF10601D2689047236806
S31508010F3820465B68BDF90610984702B010BD002027
S31508010F48FBE738B51C4652B91B6808461D680B6885
S31508010F581B68984701462046A847012038BD002046
S31508010F68FCE713B50C466AB91A6818460DF1070164
S31508010F7812689047236820465B689DF807109847CA
S31508010F8802B010BD0020FBE730B5D0E906410022C2
S31508010F9823461630994208D1091B4B100029B8BFB8
S31508010FA80B3392FBF3F000B230BD33F9025B2A44E6
S31508010FB88342EFD3163BFBE70A2928BF0A210129F1
S31508010FC838BF0121F8B50446D0E90730C01A4310DD
S31508010FD80028B8BF0B33CD1A2E4604F11A07002E7E
S31508010FE80EDB002DA3EB0103C8BF002304F11A0683
S31508010FF82B4473B91DB1201DFFF7C6FF2085F8BD1F
S31508011008E0690230B84202D2E0610136E7E71638EC
S31508011018F8E7206A811CB14203D20280013B2162AA
S31508011028E7E71639F7E700002DE9F84305460C46C0
S3150801103815F00EFF3F4B404A2B60637A05F11807F6
S315080110482A61EC602B75384615F026FF3B4B1020B4
S31508011058AB6116F0BFF90446394B3A4905F1100256
S3150801106817F0D8F8204617F037F82B7D002B5ED0F5
S31508011078354B1868FFF778FAEB6800F52B741E7A72
S3150801108848235E430021A01915F07CF80121A0190F
S3150801109815F089F87020D5F80C8016F09BF9D8E96F
S315080110A8009830362644044615F0D2FEC4E9036989
S315080110B80026264BC4F81480DFF89480314623604D
S315080110C8162226832684C4F81C8004F128002AF0EF
S315080110D875FF32460A21C4E91000C4E9128604F1EB
S315080110E82400FFF769FF642301221A4904F1500015
S315080110F817F0E6FC64230122174904F1600017F08A
S31508011108DFFC102016F066F9144B154904F11C0288
S3150801111817F080F8E668102016F05CF9114932468E
S315080111280E4B17F077F82146384615F0C5FE2846BE
S31508011138BDE8F883944A0408444A04087C4A040822
S31508011148D04A0408F44A040838B00020644A040856
S31508011158544A0408DC4A0408DE4A0408CC4A040846
S31508011168EC4A0408F04A0408F0B50346044689B06F
S31508011178CDE9060100EB810541F31D01002905DCCE
S31508011188AB4211D133F9020C09B0F0BD481033F955
S31508011198207003EB80069742DCBF081A00F1FF307E
S315080111A80146D8BF331DE9E79C42B3F90200EBD0E3
S315080111B8D51733F9024C33F9041CCDE90425C217AE
S315080111C8CDE90202B3F900300846DA17CDE900324B
S315080111D8C9172246E31716F02EF900B2D4E738B52F
S315080111E8436904461BB9B4F91800208438BDC06898
S315080111F803681B689847636C04F12802023B9A4204
S3150801120832D86364236C023B9A422FD81880104659
S315080112182364FFF7B9FE05462369A4F84C00B3F918
S3150801122800108142D4BF0021012104F1500015F0B4
S315080112387AFF6369226903F18043013B32F9231076
S3150801124804F16000A942ACBF0021012115F06BFF2A
S31508011258236D002BC7D0236E002BC4D0D4E9040113
S315080112682A46FFF781FFC0E71633C8E71633CBE7E7
S3150801127870B50469C068236800F5A8705D680368D5
S315080112881B68984710F17F0F18BF00280CBF01206B
S3150801129800202B4680F001012046BDE8704018471A
S315080112A810B50446024B036015F0C9FD204610BD6A
S315080112B8004B040810B50446FFF7F2FF204614212F
S315080112C816F094F8204610BD70B504460E46154624
S315080112D815F0BEFD024B2046C4E90365236070BDBF
S315080112E8004B0408002070470079704770B504461A
S315080112F8D0E9035015F01CF8014618B9606915F0CC
S3150801130817F8014604F1240015F00DFFA06915F038
S315080113180FF818B1012384F8203070BDA0698369D4
S3150801132818301B68984720B9636A13B195F968316B
S315080113380BB10023EFE7206914F0C1FF0028E9D1B2
S31508011348606914F0BCFF0028E4D1E6E710B5044645
S31508011358024B036015F073FD204610BD384B04088F
S3150801136810B50446FFF7F2FF2046342116F03EF879
S31508011378204610BD43681868B0FA80F040097047DE
S3150801138838B504460D4615F063FD144B2846236007
S31508011398FFF78FFCE0602846FFF7E6F800F21440ED
S315080113A820612846FFF7E0F800F573706061284662
S315080113B8FFF7DAF80A4B0021E361C82300F2A440D3
S315080113C8C4E90933074BA06104F12400C4E90B30C9
S315080113D8216215F0A2FE204638BD00BF384B040825
S315080113E8284B0408184B040813B5064A0446009204
S315080113F80A2201920B46DDE9001200F059F8204647
S3150801140802B010BD484B040800797047002AB6BFD8
S31508011418534213465BB2002910B4AEBF0C464C4280
S3150801142864B29C4203DA114610BC00F027B801DD04
S315080114380C30F9E7014810BC704700BF004000208E
S3150801144873B5092604460D460A4B019600930B46C1
S315080114589DE8060000F02CF8074B04F10C00CDE9CD
S3150801146800362B469DE8060000F022F8204602B011
S3150801147870BD00BF044C0408BC4B040810B5D0E97C
S3150801148800329342184601D1034804E013F9084B80
S315080114988C42F6D1406810BD0040002010B50446BC
S315080114A8006810B1082115F0A1FF204610BD0000FB
S315080114B82DE9F04F89B001930023B2F1805F044604
S315080114C8CDE90412C0E90033836002D33C4829F008
S315080114D8DFFC4FEAC20932B1484615F07BFFC4E979
S315080114E800004844A0604FF0000A049E06EB090371
S315080114F80093009BB34203D1204609B0BDE8F08F9B
S315080115080820756815F066FF2988019A834617F039
S31508011518ADFAD4E901739F4296F900100BD03970D8
S31508011528C7F804B00837676007A8CDF81CA00836BD
S31508011538FFF7B4FFDDE76FF07040D4F80090A7EB2A
S315080115480902B0EBE20F4FEAE20501D11D48BEE7F1
S31508011558012D2CBF6D190135854228BF0546ED00B9
S315080115682846CDE9021215F035FF8046039A0299F5
S31508011578104408F80210C0F804B04A46C346974210
S315080115880BF1080B0DD1B9F1000F05D0A168484632
S31508011598A1EB090115F02AFF4544C4E9008BA560AA
S315080115A8C2E71046117802920BF8081C51684BF8E5
S315080115B8041C40F804AFFFF771FF029A0832DEE708
S315080115C8C42A0408D42A040890F9002091F900309D
S315080115D89A4208D143784A78534013F0030F0CBF4F
S315080115E80120002070470020704730B587B0CDE943
S315080115F80201694601A8ADF80420ADF80030FFF7E5
S31508011608E3FF70B1BDF80430ADF8143000209DF839
S31508011618143063F307009DF8153063F30F2007B0FC
S3150801162830BD0623DDE9024503FB0545AC42E9D091
S31508011638204601A9FFF7C8FF40B16946A01CFFF774
S31508011648C3FF18B1A388ADF81430DFE70634EDE710
S3150801165810B586B0CDE90201029BADF8042003EB6B
S31508011668810150B28B4203D10023ADF8143012E040
S3150801167893F9004084421FD15C7884EA1224A407AE
S315080116881AD15B88ADF8103001238DF81230049B06
S31508011698ADF814301B0C00208DF816309DF814305F
S315080116A863F307009DF8153063F30F209DF816308C
S315080116B863F3174006B010BD0433D3E7B0F9040045
S315080116C87047818001207047002070470B680846DB
S315080116D89B6818470B6808469B68184780887047AF
S315080116E8B0F904007047B0F904007047F8B51D460B
S315080116F80B6808469B6816460C469847B0420BD9AC
S315080117082B683146DF68236820461B6898470146D7
S315080117182846B8470120F8BD0020FCE773B51E46E0
S315080117280B6808469B6815460C469847A8420ED981
S3150801173833680DF10601DB68304698472368294660
S3150801174820465B68BDF90620984702B070BD00209F
S31508011758FBE7F8B51D460B6808469B6816460C460E
S315080117689847B0420BD92B6831461F69236820462A
S315080117781B68984701462846B8470120F8BD002046
S31508011788FCE773B51E460B6808469B6815460C4662
S315080117989847A8420ED933680DF106011B693046E8
S315080117A898472368294620465B68BDF80620984766
S315080117B802B070BD0020FBE738B51C4652B91B6854
S315080117C808461D690B681B68984701462046A847BD
S315080117D8012038BD0020FCE713B50C466AB91A681A
S315080117E818460DF1060112699047236820465B6879
S315080117F8BDF80610984702B010BD0020FBE710B5E2
S315080118080446406803681B68984728B1E068036876
S31508011818BDE810401B681847A068F8E710B50446E4
S31508011828406803681B68984728B1E0680368BDE8FB
S3150801183810401B681847A068F8E7B0F906308B42CC
S3150801184806DCB0F908308B4202DB8180012070473B
S3150801185800207047C3888B4205D803898B4202D377
S315080118688180012070470020704770B50D461646DD
S315080118780446102015F0AEFD33462A462146BDE832
S31508011888704016F0C7BC436858681B68C01A8010B0
S315080118987047436858681B68C01A801070474368C0
S315080118A81B6803EB8103B3F90200704743681B6899
S315080118B833F821007047B0F91030934209DCB0F9C2
S315080118C81230934205DB0368012003EB81035A8032
S315080118D870470020704708B54068FFF7ECFF08BD58
S315080118E88368B3F900208A4206DCB3F902308B42D1
S315080118F802DB81800120704700207047838910B573
S31508011908934216D8C389934213D3046804EB810317
S3150801191824F82120416804330431994201D1012070
S3150801192810BD33F8040C0433904238BF23F8082C49
S31508011938F3E70020F4E708B54068FFF7DFFF08BDBD
S3150801194808B54B1C03D00139C9B2012904D800F5D9
S315080119582770FFF763FF08BD0020FCE710B50446AA
S31508011968006803681B689847D4E9012300280CBF57
S315080119781046184610BD00002DE9F04F4FF0000932
S3150801198805461E4689B09DF948A0CDE9031203709C
S3150801199880F801A0C0F82491564503DD284609B008
S315080119A8BDE8F08F95F9003032469E42B8BF1A460F
S315080119B895F901109142D4BFC3EB0103C3EB0203A6
S315080119C8039AD5F8241102EB830B049A082902EB2A
S315080119D8830301934FF0240301FB03F305F1040282
S315080119E802EB030453D01399BBF80270B1F900103E
S315080119F8C7F30907029113994FEA8708B1F9021043
S31508011A08002F3CD04046CDE90623059115F0E2FCA6
S31508011A18DDE90512079BD05000EB0803A36087BBD5
S31508011A2863604FF4C803E360029B61822382194B02
S31508011A381020C4E90534184B0136C4E9073415F0F2
S31508011A48C9FC07465946154B04F1140216F0E2FB80
S31508011A58384616F041FB102015F0BCFC0746104B1A
S31508011A68019904F11C0216F0D5FB384616F034FB29
S31508011A78D5F8243176B20133C5F824318CE73846CE
S31508011A88C9E720F8049B20F8029C013FC7E72AF01A
S31508011A985FFA00BF984C0408AC4C0408504D04087A
S31508011AA84C4D04082DE9F74304461D460E461746CC
S31508011AB815F0CEF965610025464BC4E9036723602D
S31508011AC8454BC4E90875A361D6F8C430A583D86817
S31508011AD805F0B4FE236904F12808CDE900033F4A55
S31508011AE83F4901234046FFF747FFD6F8C43004F5B6
S31508011AF8A877D86805F0A2FE23693A4ACDE9000312
S31508011B08394901233846FFF737FF4422C4E9A25564
S31508011B18A4F88822C822E368C4E9A5553349A4F874
S31508011B288C22A4F89822324AEC33C4E9A723C4F8CC
S31508011B388412C4F8901208226721C4E9AC55A4F89E
S31508011B489412A4F8B0222B496422C4F8AC12C4F83A
S31508011B58B8120C21C4E9AF55A4F8B422A4F8C022D6
S31508011B68254AC4E99E38C4F8807204F5217904F532
S31508011B78247804F52B7704F52E76C4E9B123A4F85D
S31508011B88BC12C4E9A99804F11801C4E9B3761B4A39
S31508011B981B48FFF76AFE4946184A1A48FFF765FEC1
S31508011BA84146164A1848FFF760FE102015F012FC40
S31508011BB83A46164B164916F02DFB102015F00AFC65
S31508011BC83246124B134916F025FB204603B0BDE8E9
S31508011BD8F08300BF004D0408884C0408904D04089A
S31508011BE8A84D0408584D0408704D0408C04C04084B
S31508011BF8D04C0408E04C0408F04C0408CC4A040804
S31508011C08C84D0408C04D0408884D0408544D0408F5
S31508011C18C44D04088C4D040870B505460446D0F829
S31508011C2820610EB9284670BD2068013E18B1A16821
S31508011C38091A15F0DBFB2434F3E7000010B504464E
S31508011C48074B036000F5AA70FFF7E6FF04F12C00BD
S31508011C58FFF7E2FF204615F0F2F8204610BD00BF4F
S31508011C68004D040810B50446FFF7E8FF20464FF46F
S31508011C78357115F0BBFB204610BDF0B50346044681
S31508011C8889B0CDE9060100EB810541F31D0100295B
S31508011C9805DCAB4211D133F9020C09B0F0BD481085
S31508011CA833F8207003EB800697429CBF081A00F1A7
S31508011CB8FF30014698BF331DE9E79C42B3F9020094
S31508011CC8EBD0002133F9025C33F8044CCDE9042141
S31508011CD8C217CDE902021B882A46CDE900312046FA
S31508011CE8EB1715F0A8FB00B2D7E713B5044614F9A4
S31508011CF8043B90F901009942B8BF19468842D4BFF6
S31508011D08C3EB0003C3EB010324214B43E018E15855
S31508011D18436800915B1A9B100193642A28BF6422C1
S31508011D28DDE90001FFF7A9FF02B010BD2DE9F04171
S31508011D380446C06804F51E77C36A2C301B689847A1
S31508011D480128B8BF012045B23846FFF707FE002229
S31508011D582946FFF7CAFF06463846FFF7FFFD074635
S31508011D68E068C36F7C301B6898472946024638469F
S31508011D78FFF7BBFF074604F53170FFF740FDBE1BA9
S31508011D88014630B215F0ACFB0744E068D0F850318B
S31508011D9800F5A8701B68984701462046FFF7D0FD4D
S31508011DA818B3C823616AC7299CBF013161624143D7
S31508011DB8B1FBF3F1394409B247F6FF72E36893F8C0
S31508011DC8080193F8F830002818BF11461BB904F121
S31508011DD81800FFF785FD2269D2E9023103EB4101B3
S31508011DE88B42184604D1127907E039B26062E3E7F3
S31508011DF813F9026BAE42F3D1427863690F2A9ABF87
S31508011E0803EB8203186CD86BB4F91C100368BDE898
S31508011E18F0415B68184700002DE9F34116460F465D
S31508011E281D46FEF7A4FB3188044616F028FA8046B3
S31508011E3830B316F04BF9102822D12046298816F016
S31508011E481EFA0646E0B116F041F9102818D1002401
S31508011E580D4D21462A88404616F0C4F9BB6835F85F
S31508011E68022B0093FB6801939DE80300FFF705FF22
S31508011E78214602460134304616F0B4F9102CE8D149
S31508011E8802B0BDE8F08100BFCC4D04082DE9F84F32
S31508011E98D0E9004605460F46DFF84090DFF840A02E
S31508011EA8DFF840B02644B44201D1BDE8F88F14F9E9
S31508011EB8012B2946013A4FEA820809EB820338467B
S31508011EC80AEB8202FFF7A8FF074A294638460BEBB1
S31508011ED808034244FFF7A0FFE5E700BF904D040851
S31508011EE8A84D0408584D0408704D04080020704789
S31508011EF890F904007047000010B50446024B0360C8
S31508011F0814F09DFF204610BD4C4E040810B5044632
S31508011F18FFF7F2FF2046242115F068FA204610BD7E
S31508011F2838B51C4652B91B6808465D680B681B68B4
S31508011F38984701462046A847012038BD0020FCE7F6
S31508011F4813B50C466AB91A6818460DF1070152689D
S31508011F589047236820465B689DF90710984702B0A1
S31508011F6810BD0020FBE737B5D0E9053204460D4612
S31508011F7802EB42021A449A4203D100231A46194629
S31508011F8807E0194611F9030BA84211D159789A782D
S31508011F9801238DF804108DF805208DF806302BB12C
S31508011FA80199206922F09FF884F8205003B030BDC2
S31508011FB80B46E0E710B50446C068C36C4C301B688D
S31508011FC8984701462046BDE81040FFF7CCBF0000F8
S31508011FD873B504460D468DE80C0014F039FF9DE8E3
S31508011FE803000F4BC4E905012360069BE5602361DD
S31508011FF8D5F8C4300B4ADB6804F11C0693F904309A
S315080120081020E26184F8203015F0E4F93246064BCF
S31508012018064916F0FFF820462E6302B070BD00BFC8
S315080120284C4E04083C4E0408704E0408744E0408C5
S31508012038036882B093F8083183B103798DF80430BF
S3150801204801238DF8053000209DF8043063F3070055
S315080120589DF8053063F30F2002B07047ADF80430D8
S31508012068F1E7016002717047406884B004B000F076
S31508012078E7BF406884B004B0FFF7DABF406884B0A8
S3150801208804B001F059B838B5044608200D4615F0CC
S31508012098A1F9D4F8183145600360C4F8180138BDA8
S315080120A870B50446016040F204500D4615F092F9E0
S315080120B80646294600F0DAFC05F1CC00314614F04B
S315080120C8FBFE2046666070BD38B504460C200D46F1
S315080120D815F080F9034695E803002268C3E901016A
S315080120E81A60236038BD000073B5066804464420A3
S315080120F815F070F905460D4A06F1BC03314600F09C
S31508012108B9FF294606F1CC0014F0D6FE6068084BDB
S3150801211869464830CDE90035FFF7D6FF206805F14D
S315080121283C01FFF7B0FF02B070BD00BF9C4E040822
S315080121387120010873B506680446442015F04AF962
S3150801214805460D4A06F1B403314600F093FF2946C0
S3150801215806F1CC0014F0B0FE6068084B69464830B1
S31508012168CDE90035FFF7B0FF206805F13C01FFF717
S315080121788AFF02B070BD00BF804E040871200108AD
S3150801218873B5044608200E4615F024F90546324665
S315080121982168FFF766FF6068044B69464830CDE950
S315080121A80035FFF791FF02B070BD00BF7B2001081B
S315080121B837B504460C2015F00DF90546064A216877
S315080121C800F0D6FF6068054B69464830CDE9003509
S315080121D8FFF77AFF03B030BD784E04088520010859
S315080121E810B50446FFF780FF2046FFF7A3FF2046F0
S315080121F8BDE81040FFF7DCBF2DE9F34116460F4647
S315080122081D46FEF7B4F93188044616F038F88046B3
S3150801221830B315F05BFF102822D12046298816F01D
S315080122282EF80646E0B115F051FF102818D10024FA
S315080122380D4D21462A88404615F0D4FF7B6835F8A6
S31508012248022B0093BB6801939DE80300FFF715FD70
S31508012258214602460134304615F0C4FF102CE8D150
S3150801226802B0BDE8F08100BFCC4E040870B50D4632
S31508012278044690F900201A491A4B013A03EB8203DE
S3150801228801EB820201462846FFF7B6FF94F90020BA
S315080122981549164B013A284603EB820301EB8202DC
S315080122A82146FFF7A9FF94F900201149114B013A74
S315080122B8284603EB820301EB82022146FFF79CFFBE
S315080122C894F900200C490D4B013A284603EB820381
S315080122D801EB82022146BDE87040FFF78DBF00BFBA
S315080122E8B04F0408944F0408404F0408244F0408C3
S315080122F8784F04085C4F0408084F0408EC4E040894
S31508012308D0F81832013921EAE1719942A8BF19466C
S3150801231808467047642380894843B0FBF3F000B246
S31508012328704700002DE9F04F4D8885B001930E9B43
S31508012338C5F309058846DDE90F671188B2F802B0C1
S315080123480446B3F900A0B3F90290AA00002D5CD09F
S3150801235810460391029215F03DF8DDE902218446FB
S315080123682B464FF0000E02442060A260002B4ED186
S31508012378BD4228BF3D46A1812C496260C4E90514BE
S315080123882B49A4F80EB0C4E90714A4F810A0A4F8B8
S315080123981290E5B145F31D0100F1020C06F1020997
S315080123A836F823E020F823E039F823E02CF823E06F
S315080123B801338B42F4D100EB8500131A002B06DD95
S315080123C807F18047013F06EB8706904225D1102081
S315080123D815F000F80546414604F11402154B15F0A7
S315080123E819FF284615F078FE102014F0F3FF054664
S315080123F8114B019904F11C0215F00CFF284615F03A
S315080124086BFE204605B0BDE8F08F2846A7E72CF8ED
S3150801241804EB2CF802EC013BA8E73388043020F8D2
S31508012428043C738820F8023CCFE700BF984C04089F
S31508012438AC4C0408504D04084C4D04082DE9F041EC
S31508012448002506468C46984686B0CDE904550F4FB1
S31508012458DDE904011346CDE901010D4A6146304615
S315080124680097FFF75FFFCDE904550C9BDDE90401E9
S31508012478074ACDE901010097414606F12400FFF70D
S3150801248851FF304606B0BDE8F08100BFCC4F0408BD
S31508012498D04F04082DE9F74317468A8A304B8281BB
S315080124A8322203600123C2815F2203712D4B028206
S315080124B883600A8C00254361642304460E46D1F8D5
S315080124C81880028383834583C0F81852102014F0B4
S315080124D881FF41462246244B15F09CFED6F810800A
S315080124E8102014F077FF4146204B04F1080215F035
S315080124F891FED6F81C80102014F06CFF41461B4B40
S3150801250804F1140215F086FE4FF0480904F1200873
S315080125186BB2BB4203DB204603B0BDE8F083D4F8AF
S3150801252818E2F06831687268B368BEF1070F00EB04
S31508012538850C01EB850102EB850203EB850309FB93
S315080125480E8005F1010509D0CDF800C0FFF776FF21
S31508012558D4F818320133C4F81832D9E729F0F8FC47
S31508012568444A0408E04C0408D04A0408544D0408AF
S3150801257813B500F12004FFF7C3FE482303FB004007
S31508012588416A836A00915B1A9B100193DDE9000190
S31508012598FFF773FB02B010BD13B50446FFF7B0FE8B
S315080125A84821484304F120031C1819586368009107
S315080125B85B1A9B100193DDE90001FFF75EFB02B088
S315080125C810BD10B50139044649B2FFF7E5FF642283
S315080125D8238B4343B3FBF2F3184400B210BD2DE92C
S315080125E8F04106460F469046FFF7D6FF6425B4899B
S315080125F8424644433946B4FBF5F43046FFF7B8FF7B
S3150801260824B2A042A8BF2046337900B2002B08BFDE
S315080126180446338B6343B3FBF5F3E01800B2BDE810
S31508012628F08100280FD007DC10F17F0F0DD0431C6D
S3150801263814BF492052207047431EDBB2082B06D81F
S315080126483030C0B270474E20704750207047492035
S3150801265870470B6808469B6818474368585C704773
S3150801266800207047806870470079704700207047D6
S3150801267890F904007047F8B51D460B6808469B682B
S3150801268816460C469847B0420BD92B6831469F68BF
S31508012698236820461B68984701462846B8470120FB
S315080126A8F8BD0020FCE773B51E460B6808469B680B
S315080126B815460C469847A8420ED933680DF1070105
S315080126C89B68304698472368294620465B689DF8E3
S315080126D80720984702B070BD0020FBE710B50446ED
S315080126E8406803681B68984728B1E0680368BDE82D
S315080126F810401B681847A068F8E713B50C4672B965
S315080127081A680DF10701184692689047204623680A
S315080127189DF807105B6802B0BDE81040184700200D
S3150801272802B010BD10B51C4652B90B6808461B689D
S315080127389847236801469B6820469847012010BD9B
S315080127480020FCE790F905308B4206DC90F9063043
S315080127588B4202DB0171012070470020704770B572
S315080127680D4616460446102014F034FE33462A460A
S315080127782146BDE8704015F04DBDC06805F05EB844
S3150801278830B5C368054689B0D3F8C400FFF7F5FF25
S315080127980446AD6C15B9204609B030BDD5E9010125
S315080127A8CDE9060106A8069B984710F47F4FADF8B0
S315080127B81400ADF81000ADF80800ADF80C00ADF836
S315080127C80400ADF8000005D09DF900309C42A8BF69
S315080127D81C4664B22D68DDE770B5054690F91440C4
S315080127E8FFF7CEFFA042B8BF204644B2E868D0F842
S315080127F8503100F5A8701B68984710F1800F0FD063
S3150801280810F17F0F2BD0EB68D3F8C430DA68D2E918
S31508012818043203EB4202934219460CD1034610E0EF
S31508012828EB68D3F8C430DB6893F904309C42A8BF37
S315080128381C46204670BD13F9026B8642EBD191F905
S3150801284801309C42A8BF1C4664B2A042A8BF2046D4
S3150801285895F92C2040B2A242D8BF0446E9E70024DC
S31508012868E7E738B50446C068D0F8303100F59870FE
S315080128781B6898470546E068D0F8383100F59C701A
S315080128881B689847281A38BD38B5C4680546D4F868
S31508012898503104F5A8701B6898470138C0B2072853
S315080128A802D894F9683173B1002385F8443095F84C
S315080128B82C3095F91C0085F8453095F9243098424D
S315080128C8A8BF184638BDD4F8403104F5A0701B686E
S315080128D898470028E8D00123284685F8443095F812
S315080128E84540FFF7BEFF95F91430204440B2984297
S315080128F8B8BF95F92C300128B8BF01209842B8BF4E
S31508012908184695F924209042A8BF104685F845002F
S31508012918D8E7F8B5CB68044693F8F8200D4632B1DE
S315080129280323037091F8343063702046F8BD93F891
S3150801293808713FB10422D3F8C430DB6893F904302F
S315080129480270F1E701F5996091F94060FFF7C6FE53
S3150801295810B127706670E8E795F8443013B1022379
S315080129682370F7E70123FBE773B50646C068C36C0E
S315080129784C301B689847044696F8DC0401280ED0A3
S3150801298802D9831E022B2ED804F0DEF80246204609
S31508012998FFF747FED2B242EA002002B070BDF568D9
S315080129A8D5F8503105F5A8701B689847F3680446A9
S315080129B8D3F8C400FFF7E1FEA04209D02046013C3E
S315080129C8E4B2FFF72EFE082C34BF44222022E1E7A1
S315080129D8D5F8283105F594701B6898470028EDD174
S315080129E844202022D6E720200246D3E71E4B70B59D
S315080129F81A681B79026003710446C8680E46C36CD7
S31508012A084C301B6898470546F068D0F8503100F5F0
S31508012A18A8701B6898477F3003D1002D08BF6FF04F
S31508012A287E0596F8DC04012815D002D9831E022BE7
S31508012A3818D804F089F820702846FFF7F2FDA51C76
S31508012A486070F068436A24301B68984708B14C23BC
S31508012A582B70204670BD2846FFF7E3FD254605F885
S31508012A68010BEEE72546ECE7F05004082DE9F84F87
S31508012A780D460446002614F0EBF9DFF81C82874B4D
S31508012A88D5F8C4202360C4E90686C4E90886C4E9DA
S31508012A980A86C4F81080D068E560666104F0C6FE47
S31508012AA8E2680746D2F8C400FFF767FE7C4AA663C0
S31508012AB8226340F205522287E26884F8357084F861
S31508012AC8346084F83600A4F8446084F84660C4F88B
S31508012AD83C80D2F8C4002664A664FFF74EFE04F1CA
S31508012AE84C08421E6F49404652B2FFF7D3FCE268CA
S31508012AF804F51A77D2F8C400FFF73FFE421E6A4961
S31508012B08384652B2FFF7C6FC42F21071E268C4F8B9
S31508012B189864C4F8A464A4F89814A4F8A414634996
S31508012B28EC32C4F8A8146249C4F88424C4F8AC245D
S31508012B38C4F8CC245F4AC4F8B814C4F8C0145E496A
S31508012B48C4F8D82442F22002C4F8C81404F59C61D2
S31508012B58C4F8E8140221C4F88C74584F5848A4F8E4
S31508012B68E024584AC4F8888404F5926AC4F890742B
S31508012B7804F29C49C4F89C7404F5976804F59867A7
S31508012B8804F59E63C4F89404C4F8A004C4F8E424BC
S31508012B98C4F8EC14C4F8B0A4C4F8B494C4F8BC6472
S31508012BA8C4F8C464C4F8D084C4F8D474C4F8DC641A
S31508012BB8C4F8F06484F8F464C4F8F824C4F8FC3456
S31508012BC8052304F1180BC4F8003504F110013E4A2F
S31508012BD83E48FFF7C4FD59463B4A3D48FFF7BFFD46
S31508012BE804F12001384A3B48FFF7B9FD04F12801E9
S31508012BF8354A3948FFF7B3FD04F13001324A3748F7
S31508012C08FFF7ADFD102014F0E5FB04F59B62344B84
S31508012C18344915F0FFFA102014F0DCFB5246324B02
S31508012C28324915F0F7FA102014F0D4FB4A462E4B10
S31508012C382F4915F0EFFA102014F0CCFB42462D4B1C
S31508012C482D4915F0E7FA102014F0C4FB3A46294B2A
S31508012C582A4915F0DFFA102014F0BCFB04F2E44205
S31508012C68274B284915F0D6FA102014F0B3FB244B44
S31508012C78254904F59F6215F0CDFA04F128032B6559
S31508012C8804F110032B6404F120032046AB63C5F84D
S31508012C9848B0BDE8F88F00BF3C4E04082050040828
S31508012CA8DC4F04088450040860500408D04C040812
S31508012CB8444A0408FC4F0408EC4F0408C04C0408AD
S31508012CC87C15D0070C500408704E0408B85004083F
S31508012CD8B4500408B0500408C4500408BC50040889
S31508012CE85C500408C0500408CC4A0408E05004089B
S31508012CF8CC500408D04A0408E4500408D050040803
S31508012D0858500408AC500408A850040810B50446DD
S31508012D18006803681B689847D4E9012300280CBF93
S31508012D281046184610BD2DE9F0470646C068012425
S31508012D38D0F8EC3100F5F6701B689847F3688046B9
S31508012D48D3F8C400FFF719FD0746F068C36C4C3081
S31508012D581B6898470128B8BF012045B2BD4206F548
S31508012D689560A8BF3D46FEF759FD814606F284409F
S31508012D78FFF7CCFF4946FFF7CDFA82466DB2AC425A
S31508012D8806DB2C46A7420DDA3C462046BDE8F08705
S31508012D9842462146F06804F0E1F85045F5DB01346E
S31508012DA864B2ECE742462146F06804F0D7F848458C
S31508012DB8EBDB013464B2E5E72DE9F8430646C0685A
S31508012DC806F28449436F74301B6898470746F068CA
S31508012DD8D0F8EC3100F5F6701B689847F368804619
S31508012DE8D3F8C400FFF7C9FC0446F068C36C4C3035
S31508012DF81B6898470128B8BF012045B2A542A8BF54
S31508012E0825466DB2AC4208DC012406F28446AC427A
S31508012E180FDB2C462046BDE8F8834846FFF776FFC0
S31508012E283A462146FFF7CDFB8045F3DC013C64B2FF
S31508012E38E8E73046FFF76AFF3A462146FFF7CFFB30
S31508012E484045E7DC013464B2E1E770B50546FFF7AA
S31508012E58B3FF0446E868D0F88C308C301B6898476D
S31508012E68064605F59560FEF7D9FC631C5BB28642F2
S31508012E78ACBF1846204670BD1FB50446FFF753FF79
S31508012E8820752046FFF7A8FC84F824002046FFF79A
S31508012E98DCFF207704F59960FFF720FC70B394F9F5
S31508012EA8240094F93A3098422CD0002384F83A0041
S31508012EB884F83930214603A8FFF72BFD9DF80C2025
S31508012EC89DF90D3084F8DC24E26884F82C3092F8F0
S31508012ED8F8200AB984F834302046FFF745FD21461B
S31508012EE8A4F8E0046846FFF781FD0098C4F8F004E1
S31508012EF89DF8043084F8F43404B010BD2046FFF771
S31508012F08C3FCCEE794F8393094F838209A4286BF3C
S31508012F18013384F8393084F84000CBE710B5044604
S31508012F28006818B1A168091A14F060FA204610BD9C
S31508012F3870B505460446D0F8F8610EB9284670BD3D
S31508012F4804F12400FFF7EAFF2046FFF7E7FF013EF1
S31508012F584834F2E738B504460B4B036000F522708E
S31508012F68FFF7E6FF04F16C00FFF7E2FFA06C20B952
S31508012F78204613F064FF204638BD05680C2114F075
S31508012F8835FA2846F3E700BF2050040810B5044669
S31508012F98FFF7E0FF204640F2045114F027FA2046CD
S31508012FA810BDB0F90400704710B50446024B03601A
S31508012FB813F045FF204610BD1051040810B5044604
S31508012FC8FFF7F2FF2046442114F010FA204610BDF7
S31508012FD8B0F906308B4206DCB0F908308B4202DBC1
S31508012FE88180012070470020704710B504460069A2
S31508012FF803681B689847B4F920308342CCBF002080
S31508013008012094F8383098420AD0002384F8380009
S31508013018636394F8403063B194F92C00207610BDA7
S31508013028D4E90C2393423ABF0133636384F8400019
S31508013038EFE7E368D3F8C430D86804F0FFFBEDE797
S3150801304890F8403082B08BB190F92C308DF8043065
S3150801305801238DF8053000209DF8043063F3070035
S315080130689DF8053063F30F2002B07047ADF80430B8
S31508013078F1E70000F8B504460E461F46154613F053
S31508013088E7FE264BC4E903672360D6F8C430D86837
S3150801309804F0D4FB224B20766361B5F90630B5F9FD
S315080130A80810B5F90420A3841E48D6F8C43021842B
S315080130B8E0616284D86895F9187004F0BFFB1A4B69
S315080130C884F82E00A362012384F82C7084F82D3025
S315080130D82B69164AC4E90C3300232E6884F838305C
S315080130E8E26384F84030102014F074F9314604F18B
S315080130F81C020F4B15F08EF86E69102014F06AF948
S3150801310831460C4B04F1280215F084F8297B6889A5
S3150801311804F13C0215F07CFB2046F8BD1051040861
S315080131283C4E040800510408DC4F0408284B0408DF
S31508013138CC4A0408704E040813B504460068436A65
S3150801314824301B68984780B1237A8DF80430012307
S315080131588DF8053000209DF8043063F307009DF8C3
S31508013168053063F30F2002B010BDADF80400F1E78E
S3150801317870B50446D1F8C4300160D86892F904607C
S31508013188154604F05BFB084BA0726360012326729F
S3150801319863722D68102014F01DF92946034B221D68
S315080131A815F038F8204670BDDC4F0408704E04083F
S315080131B8704707B5019001A81FF00AFC03B000BDC6
S315080131C84368084618470000F8B50446FDF771FD37
S315080131D805462046FDF7D9F900F5E466382014F0C6
S315080131E8F9F80446314605F1CC071DF0EFFA2146F0
S315080131F83846303413F060FEC5F89040382014F08C
S31508013208E9F8044631461DF01BFB2146384613F0FA
S3150801321853FE3034102014F0DDF82246034B0449D6
S3150801322814F0F8FFAC67C5F88040F8BD544D04089A
S315080132383451040807B5019001A81FF0C9FB03B06A
S3150801324800BD00002DE9F0410446FDF732FD0546AB
S315080132582046FDF79AF900F5E466382014F0BAF81D
S315080132680446314605F1CC071DF05EFB2146384672
S31508013278303413F021FEC5F89040382014F0AAF826
S31508013288044631461DF016FB21463846303413F0FC
S3150801329813FEAC67C5F88040102014F09BF8224647
S315080132A8BDE8F041014B024914F0B4BF544D040876
S315080132B84C51040807B5019001A81FF089FB03B012
S315080132C800BD00002DE9F0410446FDF7F2FC05466C
S315080132D82046FDF75AF900F5E466382014F07AF81D
S315080132E80446314605F1CC071DF098FB21463846B8
S315080132F8303413F0E1FDC5F89040382014F06AF827
S31508013308044631461DF050FB21463846303413F041
S31508013318D3FDAC67C5F88040102014F05BF8224647
S31508013328BDE8F041014B024914F074BF544D040835
S315080133384C510408436833F8110070478068704790
S3150801334810B50446024B036013F079FD204610BDFB
S315080133588051040810B50446FFF7F2FF20464C21B0
S3150801336814F044F8204610BD8389934207D8C389C7
S31508013378934204D34368012023F81120704700209B
S3150801338870471FB54BB2ADF8041041F307218B42BC
S315080133981ED05C1CE2B2092A1AD84A1CD2B2092ADA
S315080133A816D88B42D4BF00230123C3EB44030D2B44
S315080133B80ED800EB4300838A012200208DF80E20DF
S315080133C863F30F00BDF80E3063F31F4004B010BD58
S315080133D86423F1E737B50546C068C36A2C301B680C
S315080133E89847C4B2E868C36C4C301B6898470023F1
S315080133F864F3070360F30F23184603B030BD37B5E6
S315080134080446C06803F06CFC0546014604F1400011
S3150801341813F0CAFD206995B10A234361032303778B
S31508013428012383772046FFF7D5FFADF804000199F4
S315080134382046FFF7A6FF2569686203B030BD94F8F0
S31508013448445025B103B0BDE830401CF029BF1CF033
S3150801345827FF23695D61F0E7F8B504460E46154668
S3150801346813F0F6FC1B4BE6602360282095F83470A8
S3150801347813F0B0FF06463A4629461CF021FF3146A5
S3150801348805F1100004F1140513F016FD00211C229C
S315080134982661284628F092FD0F4B0E22C4E90C3501
S315080134A84FF4C8031020C4E90E2304F1300613F0BB
S315080134B891FF0A4B32460A4914F0ACFE0023C4E9C7
S315080134C81133084B2364642325F8023BAE42FBD12A
S315080134D82046F8BD805104086C510408504D04086B
S315080134E890510408284B04088A68054B9A4206D164
S315080134F84B6823B11A6801895268184610477047FC
S31508013508544D0408008B704730F81C0C7047B0F905
S315080135181800704730F91C0C7047406803F09ABBCD
S31508013528406804F0A6B907B5019001A81FF050FA3A
S3150801353803B000BD10B50446034B03601C3343634F
S315080135481CF06EFC204610BD9C51040810B50446B3
S31508013558FFF7F0FF2046382113F048FF204610BD33
S3150801356810B50446034B03601C3343631CF058FC2F
S31508013578204610BDC851040810B50446FFF7F0FFE8
S315080135882046382113F032FF204610BD70B50E4685
S315080135984368D3E9004504EBC505A54200D170BDCA
S315080135A820462368314698470834F6E72DE9F3415A
S315080135B80746382098460D46164613F00BFF04466B
S315080135C80023294625463246009343461CF078FCD3
S315080135D80A4B366823601C3345F8343F102013F02C
S315080135E8F9FE2A463146064B14F014FE384621469A
S315080135F813F062FC204602B0BDE8F081C851040800
S31508013608544D04082DE9F3410446FDF752FB0546D6
S315080136182046FDF749FB044690F82C70382013F02C
S31508013628D9FE0023804600933B4647462146234A4E
S315080136381CF046FC224B1020C8F800301C3347F80A
S31508013648343F13F0C7FE3A461E4B1F4914F0E2FDF4
S31508013658414605F1CC0013F02FFCC5F890702146B8
S3150801366894F82C30194A05F1CC00FFF79FFF00F1B1
S315080136783407AF67214694F82C30154A05F1CC0072
S31508013688FFF794FF3430C5F88000102013F0A2FE26
S315080136983A46104B104914F0BDFD4C2013F09AFE1A
S315080136A8074629462246FFF7D7FE394605F1CC00D3
S315080136B802B0BDE8F04113F0FFBB00BFA4520408ED
S315080136C89C510408CC4A0408CC52040850520408F0
S315080136D830520408544D04084C5104088A68064BAC
S315080136E89A4207D14B682BB11A68B0F90810526883
S315080136F818461047704700BFCC4A0408406803F0CB
S31508013708A9BA07B5019001A81FF062F903B000BD6F
S31508013718F8B50446FDF7CDFA06462046FCF735FF07
S3150801372800F5E464382013F055FE074606F1CC0582
S3150801373821461DF095FA39462846303713F0BCFB61
S31508013748C6F89070382013F045FE074621461DF045
S31508013758C1FA39462846303713F0AEFBB767C6F8BB
S315080137688070382013F036FE074621461DF0CAF93F
S3150801377839462846303713F09FFBC6F8B07038200B
S3150801378813F028FE064621461DF082F931462846D9
S3150801379813F092FB382013F01DFE064621461DF04C
S315080137A8EBF93146284613F087FB382013F012FE49
S315080137B8064621461DF01AFA3146284613F07CFBBF
S315080137C8382013F007FE064621461DF0BDFA314694
S315080137D82846BDE8F84013F06FBB07B5019001A864
S315080137E81FF0F6F803B000BD70B50D461646044637
S315080137F8102013F0EFFD33462A462146BDE87040EE
S3150801380814F008BD2DE9F84F0446FDF752FA0646A5
S315080138182046FCF7BAFE00F5E465382013F0DAFD10
S31508013828074629461CF0CEFD394606F1CC00303745
S3150801383813F042FBC6F89070382013F0CBFD074603
S3150801384829461CF0DBFE394606F1CC0013F034FB99
S315080138583037102013F0BEFD3A46304B304914F084
S31508013868D9FC382013F0B6FD834629461CF072FEAA
S31508013878594606F1CC0013F01FFB382013F0AAFDB0
S31508013888824629461CF0D8FD514606F1CC0013F0AC
S3150801389813FB382013F09EFD814629461CF020FEAD
S315080138A8494606F1CC0013F007FB40F6E80013F089
S315080138B891FD80460BF130030AF1300209F1300116
S315080138C801F01CFC414606F1CC0013F0F5FA4FF459
S315080138D85F7013F07FFD054608F50E62314601F063
S315080138E8CBF9294606F1CC0013F0E6FA05F12401CD
S315080138F80C4A0D483166FFF777FF0A4A0B4805F166
S315080139081401FFF771FF074A094805F11C01FFF77A
S315080139186BFFB767C6F88070BDE8F88F544D040881
S3150801392834510408CC4A0408AC540408A8540408B9
S31508013938A454040807B5019001A81FF049F803B073
S3150801394800BD00002DE9F0410446FDF7B2F9064627
S315080139582046FCF71AFE00F5E465382013F03AFD0F
S31508013968044606F1CC0729461DF062FA214638466F
S31508013978303413F0A1FAC6F89040382013F02AFD1E
S31508013988044629461DF01AFA21463846303413F0FA
S3150801399893FA1020B46713F01DFD114B22461149FD
S315080139A814F038FC382013F015FD804629461DF019
S315080139B879FA4146384613F07FFA382013F00AFD9A
S315080139C80546214608F1300202F006FC2946384622
S315080139D8143513F071FAC6F88050BDE8F08100BFB6
S315080139E8544D04084C51040807B5019001A81EF066
S315080139F8EFFF03B000BD00002DE9F0410446FDF7CD
S31508013A0858F907462046FCF7C0FD00F5E465382055
S31508013A1813F0E0FC044607F1CC0629461DF0B6FA70
S31508013A2821463046303413F047FAC7F89040382013
S31508013A3813F0D0FC044629461DF06EFA2146304695
S31508013A4813F03AFA382013F0C5FC074629461DF043
S31508013A58D7FA3946304613F02FFA382013F0BAFC4C
S31508013A68054607F1300204F1300102F0B5FB294693
S31508013A78304613F021FA102013F0ACFC04F1300299
S31508013A88024B0349BDE8F04114F0C4BB544D040880
S31508013A984C51040807B5019001A81EF099FF03B017
S31508013AA800BD0000F8B50446FDF703F905462046AA
S31508013AB8FCF76BFD00F5E464382013F08BFC064629
S31508013AC805F1CC0721461DF083FB314638463036C9
S31508013AD813F0F2F9C5F89060382013F07BFC064616
S31508013AE821461DF0C7FA31463846303613F0E4F94F
S31508013AF8AE67102013F06EFC3246104B104914F0CD
S31508013B0889FB382013F066FC064621461DF026FB7C
S31508013B1831463846303613F0CFF9C5F88060382073
S31508013B2813F058FC064621461DF0DEFA314638469A
S31508013B38303613F0C1F9C5F8B060F8BD544D04081C
S31508013B484C51040807B5019001A81EF041FF03B0BE
S31508013B5800BD00002DE9F0410446FDF7AAF805461F
S31508013B682046FCF712FD00F5E466382013F032FC0E
S31508013B780446314605F1CC071DF09EFB2146384619
S31508013B88303413F099F9C5F89040382013F022FC1F
S31508013B98044631461DF056FB21463846303413F0A3
S31508013BA88BF9AC67C5F88040102013F013FC224640
S31508013BB8BDE8F041014B024914F02CBB544D0408E9
S31508013BC84C51040807B5019001A81EF001FF03B07E
S31508013BD800BD00002DE9F0410446FDF76AF80546DF
S31508013BE82046FCF7D2FC00F5E466382013F0F2FB10
S31508013BF80446314605F1CC071DF0D2FB2146384665
S31508013C08303413F059F9C5F89040382013F0E2FB1F
S31508013C18044631461DF08AFB21463846303413F0EE
S31508013C284BF9AC67C5F88040102013F0D3FB224640
S31508013C38BDE8F041014B024914F0ECBA544D0408A9
S31508013C484C51040807B5019001A81EF0C1FE03B03E
S31508013C5800BD00002DE9F0410446FDF72AF805469E
S31508013C682046FCF792FC00F5E466382013F0B2FB0F
S31508013C780446314605F1CC071DF006FC21463846AF
S31508013C88303413F019F9C5F89040382013F0A2FB1F
S31508013C98044631461DF0BEFB21463846303413F03A
S31508013CA80BF9AC67C5F88040102013F093FB224640
S31508013CB8BDE8F041014B024914F0ACBA544D040869
S31508013CC83451040807B5019001A81EF081FE03B016
S31508013CD800BD00002DE9F0410446FCF7EAFF064657
S31508013CE82046FCF752FC00F5E465382013F072FB10
S31508013CF8044606F1CC0729461DF03AFC2146384602
S31508013D08303413F0D9F8C6F89040382013F062FB1E
S31508013D18044629461DF0F2FB21463846303413F08D
S31508013D28CBF81020B46713F055FB2246144B1549F6
S31508013D3814F070FA102013F04DFB114B2246124964
S31508013D4814F068FA382013F045FB804629461DF019
S31508013D5883FC4146384613F0AFF8382013F03AFB8E
S31508013D680546214608F1300202F036FA2946384650
S31508013D78143513F0A1F8C6F88050BDE8F08100BFE4
S31508013D88544D04084C5104083451040807B50190E8
S31508013D9801A81EF01DFE03B000BD2DE9F041044639
S31508013DA8FCF787FF06462046FCF7EFFB00F5E465B6
S31508013DB8382013F00FFB044606F1CC0729461DF0F7
S31508013DC8D7FB21463846303413F076F8C6F89040C2
S31508013DD8382013F0FFFA044629461DF003FC21464C
S31508013DE83846303413F068F83820B46713F0F2FA15
S31508013DF8804629461DF030FC4146384613F05CF8E2
S31508013E08382013F0E7FA0546214608F1300202F090
S31508013E18E3F929463846143513F04EF8C6F88050A2
S31508013E28BDE8F08107B5019001A81EF0D1FD03B0E0
S31508013E3800BD0000F8B50446FCF73BFF05462046D9
S31508013E48FCF7A3FB00F5E466382013F0C3FA044629
S31508013E58314605F1CC071DF0BDFC214638463034FC
S31508013E6813F02AF8C5F89040382013F0B3FA044637
S31508013E7831461DF04FFC21463846303413F01CF8FC
S31508013E881020AC6713F0A6FA2246034B034914F02F
S31508013E98C1F9C5F88040F8BD544D04084C510408C9
S31508013EA807B5019001A81EF093FD03B000BD0000F7
S31508013EB82DE9F0410446FCF7FCFE06462046FCF7C8
S31508013EC864FB00F5E465382013F084FA044606F124
S31508013ED8CC0729461DF07CFD21463846303412F0B8
S31508013EE8EBFFC6F89040382013F074FA04462946C1
S31508013EF81DF034FD21463846303412F0DDFF102016
S31508013F08B46713F067FA114B2246114914F082F97E
S31508013F18382013F05FFA804629461DF093FD41467D
S31508013F28384612F0C9FF382013F054FA05462146D7
S31508013F3808F1300202F050F929463846143512F0CC
S31508013F48BBFFC6F88050BDE8F08100BF544D040890
S31508013F584C51040807B5019001A81EF039FD03B0B4
S31508013F6800BD0000F8B50446FCF7A3FE0546204641
S31508013F78FCF70BFB00F5E466382013F02BFA044628
S31508013F88314605F1CC071DF0D3FD214638463034B4
S31508013F9812F092FFC5F89040382013F01BFA044630
S31508013FA831461DF089FD21463846303412F084FF22
S31508013FB81020AC6713F00EFA2246034B034914F096
S31508013FC829F9C5F88040F8BD544D04084C51040830
S31508013FD807B5019001A81EF0FBFC03B000BD00005F
S31508013FE82DE9F3410746382098460D46164613F03B
S31508013FF8F1F90446002329462546324600934346E5
S315080140081BF05EFF0A4B366823601C3345F8343FBC
S31508014018102013F0DFF92A463146064B14F0FAF850
S315080140283846214612F048FF204602B0BDE8F0811D
S31508014038C8510408544D04082DE9F3410446FCF710
S3150801404838FE06462046FCF72FFE044690F82C5003
S31508014058382013F0BFF90023804600932B464546BE
S3150801406821461C4A1BF02CFF1B4B1020C8F80030B0
S315080140781C3345F8343F13F0ADF906F1CC072A4647
S31508014088164B174914F0C6F84146384612F014FF7C
S31508014098C6F89050214694F82C303846114AFFF74D
S315080140A89FFF00F13405B567214694F82C300E4A6E
S315080140B83846FFF795FF3430C6F88000102013F00C
S315080140C889F92A46094B0A4902B0BDE8F04114F0B4
S315080140D8A1B800BF6C5604089C510408CC4A0408C8
S315080140E8CC5204084C5604082C560408544D0408A6
S315080140F84C5104088088704707B5019001A81EF03D
S3150801410867FC03B000BD000010B50446024B036006
S3150801411812F095FE204610BDA456040810B50446AB
S31508014128FFF7F2FF20462C2113F060F9204610BD4F
S3150801413838B5B0F914400546B4F57A7FA8BF4FF4E7
S315080141487A74C068642C0368B8BF64241B689847E6
S315080141584FF47A73584390FBF4F000B29842A8BF1B
S315080141681846A3F5FA639842B8BF18460A230028E1
S315080141782885B8BF404280B2B0FBF3F0288438BD21
S315080141882DE9F0470446FCF794FD05462046FCF759
S31508014198FCF900F5E466382013F01CF9044605F124
S315080141A8CC0731461DF074FD21463846303412F0E5
S315080141B883FEC5F89040382013F00CF904463146B9
S315080141C81DF0F2FC21463846303412F075FEAC670C
S315080141D8382013F0FFF8804631461DF01FFD414689
S315080141E8384608F1300812F067FEC5F860802C20B9
S315080141F813F0F0F8044612F02BFE1E4A1E4B2261F4
S315080142081E4A2360626100234FF47A72A36123620E
S315080142182283A3621A4A1B4BC4F80C80E2616362C3
S31508014228102013F0D7F804F11002174B174913F0A9
S31508014238F1FF102013F0CEF804F12402124B1449A9
S3150801424813F0E8FF04F11C082146384612F034FE3B
S315080142583820C5F8808013F0BDF8044631461DF0AC
S3150801426873FD21463846303412F026FEAC62BDE8A5
S31508014278F08700BFC04C0408A45604085E01640010
S3150801428894560408544A0408CC4A0408C454040831
S31508014298C852040807B5019001A81EF099FB03B096
S315080142A800BD2DE9F0410446FCF703FD0546204605
S315080142B8FCF76BF900F5E467382013F08BF8044628
S315080142C839461DF07FFD214605F1CC00303412F040
S315080142D8F3FD3820AC6713F07DF8064639461DF01C
S315080142E8ABFD314605F1CC00303612F0E5FDC5F8CF
S315080142F89060C5F88040BDE8F08100002DE9F041DD
S315080143080446FCF7D6FC06462046FCF73EF900F5B6
S31508014318E465382013F05EF8044606F1CC07294609
S315080143281DF0FEFD21463846303412F0C5FDC6F8A3
S315080143389040382013F04EF8044629461DF0B6FD7C
S3150801434821463846303412F0B7FD1020B46713F009
S3150801435841F8114B2246114913F05CFF382013F036
S3150801436839F8804629461DF015FE4146384612F0A9
S31508014378A3FD382013F02EF80546214608F1300228
S3150801438801F02AFF29463846143512F095FDC6F874
S315080143988050BDE8F08100BF544D04084C5104080B
S315080143A807B5019001A81EF013FB03B000BD000074
S315080143B82DE9F0410446FCF77CFC06462046FCF745
S315080143C8E4F800F5E465382013F004F8044606F124
S315080143D8CC0729461CF086F921463846303412F0AE
S315080143E86BFDC6F89040382012F0F4FF04462946BA
S315080143F81CF03EF921463846303412F05DFD10208E
S31508014408B46712F0E7FF114B2246114913F002FF70
S31508014418382012F0DFFF804629461CF09DF94146EF
S31508014428384612F049FD382012F0D4FF05462146D0
S3150801443808F1300201F0D0FE29463846143512F043
S315080144483BFDC6F88050BDE8F08100BF544D04080D
S315080144584C51040807B5019001A81EF0B9FA03B032
S3150801446800BD73B50446FCF724FC05462046FCF74F
S315080144788CF8064601A8019401F0E6FA382012F0EC
S31508014488A9FF044606F5E4611DF0BEFD214605F1BE
S31508014498CC0012F011FD3034C5F8904002B070BD59
S315080144A807B5019001A81EF093FA03B000BDF8B547
S315080144B80446FCF7FEFB05462046FCF766F800F5B8
S315080144C8E466382012F086FF0446314605F1CC0722
S315080144D81DF00EFE21463846303412F0EDFCC5F8BB
S315080144E89040382012F076FF044631461DF0C6FD85
S315080144F821463846303412F0DFFCAC67C5F88040EF
S31508014508F8BD436853F82100704700207047806852
S3150801451870470B6808469B6818470B6808469B68E6
S31508014528184700EB8100406870474FF400707047E0
S3150801453800EB4100B0F9040070472020704700EBF2
S3150801454881004068704710207047000010B504467E
S31508014558024B036012F073FC204610BDF05904089B
S3150801456810B50446FFF7F2FF204640F6F40112F0AB
S315080145783DFF204610BDF8B51D460B6808469B68E1
S3150801458816460C469847B0420BD92B6831469F699F
S31508014598236820461B68984701462846B8470120DC
S315080145A8F8BD0020FCE773B51E460B6808469B68EC
S315080145B815460C469847A8420CD9336801A99B6940
S315080145C8304698472368294620465B68019A9847E2
S315080145D802B070BD0020FBE7F8B51D460B68084612
S315080145E89B6816460C469847B0420BD92B68314644
S315080145F85F69236820461B68984701462846B847D5
S315080146080120F8BD0020FCE773B51E460B6808466D
S315080146189B6815460C469847A8420CD9336801A9E0
S315080146285B69304698472368294620465B68019A9C
S31508014638984702B070BD0020FBE7436C10B51C68AB
S31508014648A24207DB5B689A4204DC00EB8100426000
S31508014658012010BD0020FCE7436C10B5B3F90040F2
S31508014668944208DCB3F90230934204DB00EB4100BB
S315080146788280012010BD0020FCE7D0F8043810B567
S315080146881C68A24207D35B689A4204D800EB8100EA
S315080146984260012010BD0020FCE730B5D0E903418E
S315080146A8002223460C30994208D1091B4B100029D0
S315080146B8B8BF063392FBF3F000B230BD33F9025B9B
S315080146C82A448342EFD30C3BFBE70023F0B5C568C0
S315080146D887B0AB4206D1826803F10043013B32F940
S315080146E813000BE04768066907FB031456F82440CC
S315080146F8A2421DD223B98368B3F90000C11715E090
S315080147088568581E07FB001135F910C056F82100AF
S315080147180021CDE9042135F91330CDE90041DA172D
S31508014728CDE902326246D31712F085FE07B0F0BD0D
S315080147380133CEE72DE9F04F0646D0E90040256852
S3150801474800F18040A942B8BF29460138830004EB25
S31508014758800754F8200091468142A8BF01460D46B4
S31508014768191D234604EB010E8BB08910002904DCB8
S31508014778734512D1083B089313E04FEA610C53F8C5
S315080147882C0003EB8C08A842B7BFA1EB0C016146C4
S3150801479808F1040301F1FF31E8E79F4225D1043FF7
S315080147A80897089B4A46D3E9007A1C1BA410214698
S315080147B83046FFF78AFF4A46CDE906013046611CAD
S315080147C8FFF783FF4FEAEA78EA17CDE90201CDE94F
S315080147D80452DDE906233846CDE900A8F91712F08F
S315080147E82AFE00B20BB0BDE8F08F9C4201D10894AD
S315080147F8D7E7043BBFE72DE9F041D0E9036704464B
S31508014808002506EB8707BE4201D03368C3B9D4F839
S31508014818DC3885F30F0504F6CC00023B98421CD810
S31508014828C4F8DC38D4F8D838023B984217D81D8022
S31508014838C4F8D838FFF731FFA4F8E408BDE8F081D1
S31508014848606903681B68984756F8042B014604F5FE
S315080148580B60FFF76FFF0544D5E70C33DEE70C332A
S31508014868E3E7052928BF0521012938BF0121F8B53C
S315080148780446D0E90430C01A43100028B8BF0633E5
S31508014888CD1A2E4604F11007002E0EDB002DA3EBD8
S315080148980103C8BF002304F110062B4473B91DB1DF
S315080148A8201DFFF7FAFEA083F8BD20690230B84239
S315080148B802D220610136E7E70C38F8E76069811CFE
S315080148C8B14203D20280013B6161E7E70C39F7E798
S315080148D82DE9F34104461D468DE8060012F0B8FA9B
S315080148E89DE803002246474B04F1600742F80C3B52
S315080148F882E8030065614822002104F1180027F0BF
S315080149085DFB414B4822A361404B0021E3653846CC
S3150801491827F054FB3E4B40F6080223663D4B00211F
S31508014928C4F8A43004F1A80027F048FB3A4B10252F
S31508014938C4F8A830394B2846C4F8AC3804F11C0326
S31508014948C4F8B03804F16403C4F8B8382023C4F8A5
S31508014958BC3804F1AC03C4F8C0384FF40073C4F882
S31508014968B458C4F8C43812F035FD04F118022C4BB2
S315080149782C4913F04FFC284612F02CFD3A462A4BCF
S315080149882A4913F047FC284612F024FD04F1A80227
S31508014998274B284913F03EFC002204F6CC03C4F839
S315080149A8D838C4F8DC38244BC4F8CC28C4F8D0283D
S315080149B8C4F8D428C4F8E428C4F8E03804F6C800CA
S315080149C80521FFF74EFFD4E903231C49C4F8EC284F
S315080149D8C4F8E818C4F8F038284612F0FBFC04F6BF
S315080149E8E802134B164913F015FC284612F0F2FC97
S315080149F8144B154904F50E6213F00CFC204602B057
S31508014A08BDE8F081F059040878590408085A0408D9
S31508014A188C5904082C5A0408A0590408105A040881
S31508014A28045A0408285A04084C4D0408245A040848
S31508014A38005A0408205A0408544A0408DC59040888
S31508014A481C5A0408CC4A0408185A0408B0F90C3048
S31508014A5810B5934217DCB0F90E30934213DB04689C
S31508014A6804EB810324F8212041680433043199426F
S31508014A7801D1012010BD33F9040C04339042B8BFA3
S31508014A8823F8082CF3E70020F4E708B54068FFF790
S31508014A98DDFF08BD436858681B68C01A801070474F
S31508014AA8436858681B68C01A8010704743681B68B2
S31508014AB803EB8103B3F90200704743681B6833F9AE
S31508014AC821007047B0F91030934209DCB0F9123069
S31508014AD8934205DB0368012003EB81035A8070477B
S31508014AE80020704708B54068FFF7ECFF08BD0000CD
S31508014AF838B50446502012F06DFC002200F1500327
S31508014B082060A3600280428004308342FAD1636040
S31508014B184FF0FA63124A1020C4E90323114BC4E97A
S31508014B280534114BC4E9073412F054FC054604F15F
S31508014B3814020E4B0E4913F06DFB284613F0CCFAF6
S31508014B48102012F047FC0546084B0A4904F11C02D5
S31508014B5813F060FB284613F0BFFA204638BD00BF9C
S31508014B680000983A385A04084C5A04084C4D040867
S31508014B785C5A0408585A040800EB4100B0F90400C5
S31508014B8870474FF4A070704700EB4100B0F9040074
S31508014B9870471020704700EB4100B0F904007047D0
S31508014BA814207047C36A10B5B3F90040944208DC6B
S31508014BB8B3F90230934204DB00EB410082800120FD
S31508014BC810BD0020FCE770B50D46164604461020B0
S31508014BD812F000FC33462A462146BDE8704013F018
S31508014BE819BBD0F8843210B5B3F90040944208DCF1
S31508014BF8B3F90230934204DB00EB410082800120BD
S31508014C0810BD0020FCE7436A10B5B3F90040944289
S31508014C1808DCB3F90230934204DB00EB41008280D9
S31508014C28012010BD0020FCE70C4B10B504460360B3
S31508014C38D0F8480320B1D4F85013091A12F0D6FB54
S31508014C48D4F8240320B1D4F82C13091A12F0CEFB90
S31508014C58204612F0F4F8204610BD00BFA45A0408ED
S31508014C6810B50446FFF7E0FF20464FF45F7112F0CE
S31508014C78BDFB204610BD00002DE9F04104460E464D
S31508014C88154612F0E5F8C4E903650025324B2946AD
S31508014C982360324B3022C4E90735C4E90935636113
S31508014CA8A56104F12C0027F089F92D4B04F15C075D
S31508014CB8E3622C4B2946A3652822384627F07EF954
S31508014CC8294B2946E365294B4FF42272C4F88030EB
S31508014CD804F1840027F072F9254B04F12C01C4F874
S31508014CE88430244B244AC4F8083304F13003C4F841
S31508014CF80C331423C4F8103304F16003C4F81433CD
S31508014D081023C4F8183304F18803C4F81C334FF484
S31508014D18A0731A48C4F82033FFF755FF3946164ACF
S31508014D281748FFF750FF04F18401134A1548FFF79E
S31508014D384AFF04F54970FFF7DBFE04F5527001F0E6
S31508014D48C5F932230122104904F55B7013F0B8FE40
S31508014D582046BDE8F08100BFA45A0408544A04084D
S31508014D68685A0408CC4F04087C5A04082C5A0408C3
S31508014D78905A0408C25A04084C4D0408BE5A040835
S31508014D88BA5A0408B65A0408B45A0408F7B50C46B8
S31508014D98CDE9001201EB420542F31E01224600291C
S31508014DA807DCAA4213D10223043A0260436003B01E
S31508014DB8F0BD4E1032F916C021F001079C4517447B
S31508014DC8B7BF891B3146BA1C01F1FF31E7E7023D36
S31508014DD8AA424FF0020302D1023A0260E6E7944278
S31508014DE8FAD10460E2E72DE9F04FD0E900B80646A2
S31508014DF86FF00043BBF9000008EB03048842B8BF0B
S31508014E080846D6E902A13BF914900B44BAF90010F1
S31508014E188145A8BF81469142B8BF11463AF9137030
S31508014E288BB08F42A8BF0F4696E80300CDE9060165
S31508014E384B46DDE9061202A8FFF7A8FFD6E90201E3
S31508014E48CDE908013B46DDE9081204A8029DFFF7EA
S31508014E589DFF039B002B66D0059B002B63D0049905
S31508014E68B5F90200B1F902E0B1F90040A1EB0A016E
S31508014E78491008FB01F1D6F810A0B5F900C0884415
S31508014E88A5EB0B0501EB65064FEA650B08EB65050E
S31508014E983AF91550AEEB04020095B0EB0C053AF950
S31508014EA816604FEAE27304D1CAB930460BB0BDE8B9
S31508014EB8F08FEB1701930BF1010319443AF9111015
S31508014EC8A0EB090BA9EB0C0C92B92A4681FB0C013C
S31508014ED8CBFB0601019B26F01FFB06B2E5E7009905
S31508014EE8381B80FB0101AEEB070ECEFB0601F2E784
S31508014EF83C1B0BFB04F043443AF91380009BAEEBC9
S31508014F08070E0CFB04F70CFB0EFC80FB03040BFBDA
S31508014F180EFECEFB0604CCFB0104214685FB0223C3
S31508014F28C7FB0801D7E71E46BFE7F0B589B0CDE943
S31508014F38060100EB810541F31D0304460146002BD2
S31508014F4805DCA94211D131F8020C09B0F0BD581097
S31508014F5831F9207001EB80069742DCBF181A00F177
S31508014F68FF300346D8BF311DE9E78C424888ECD0A3
S31508014F780023D61731F9044C31F8025CCDE9042629
S31508014F88CDE90203B1F900102046CA17CDE9001286
S31508014F982A46E11712F04FFA80B2D6E773B50446E6
S31508014FA8C068D0F88C308C301B689847064620694B
S31508014FB803681B6898473146024604F54370FFF7AC
S31508014FC812FFD4F82423D4F8283300929B1A9B108D
S31508014FD80193208332469DE80300FCF7C5F8002EA5
S31508014FE8208427DDB4F91830002B23DCE068436FE9
S31508014FF874301B689847D4F84823D4F84C33009280
S315080150089B1A9B10019305469DE803003246FFF754
S315080150188CFF854294BF0021012104F55B7012F0CB
S3150801502882F8D4F86C333BB1238B228C9B1A2385DF
S3150801503802B070BD0021F0E74FF47A73F7E7000074
S3150801504810B50446024B036011F0F9FE204610BD5F
S31508015058D05A040810B50446FFF7F2FF204640F671
S31508015068E80112F0C3F9204610BD30B5D0E903416D
S31508015078002223460C30994208D1091B4B100029F6
S31508015088B8BF063392FBF3F000B230BD33F9025BC1
S315080150982A448342EFD30C3BFBE738B5044600693B
S315080150A803681B6898470546606903681B6898473B
S315080150B82D1AE06803681B6898472946024604F5CD
S315080150C80B60FFF737FBD4F8DC3804F6CC02023B51
S315080150D89A420FD8C4F8DC38D4F8D838023B9A4231
S315080150E80AD818801046C4F8D838FFF7BEFFA4F8BE
S315080150F8E40838BD0C33EBE70C33F0E72DE9F0414A
S3150801510804460F4616461D4611F0A2FE3D4BC4E954
S315080151180376236065614822002104F1180026F008
S315080151284DFF394B04F16007A361384B4822E36503
S315080151380021384626F042FF354B40F60802236619
S31508015148344B0021C4F8A43004F1A80026F036FF30
S31508015158314B1025C4F8A830304B2846C4F8AC386A
S3150801516804F11C03C4F8B03804F16403C4F8B83868
S315080151782023C4F8BC3804F1AC03C4F8C0384FF48A
S315080151880073C4F8B458C4F8C43812F023F904F102
S315080151981802234B234913F03DF8284612F01AF949
S315080151A83A46214B214913F035F8284612F012F9E7
S315080151B804F1A8021E4B1F4913F02CF8002204F625
S315080151C8CC03C4F8D838C4F8DC381B4BC4F8CC2847
S315080151D8C4F8D028C4F8D428C4F8E428C4F8E038B0
S315080151E8052104F6C800FFF73CFB284612F0F2F839
S315080151F8124B134904F50E6213F00CF82046BDE864
S31508015208F08100BFD05A040878590408085A0408D6
S315080152188C5904082C5A0408A0590408105A040879
S31508015228045A0408285A04084C4D0408245A040840
S31508015238005A0408205A0408544A0408CC4A04089F
S31508015248185A040810B50446024B036011F0F7FD15
S31508015258204610BDF85A040810B50446FFF7F2FFB0
S3150801526820466C2112F0C2F8204610BD10B5044636
S31508015278024B036011F0E3FD204610BD105B0408DC
S3150801528810B50446FFF7F2FF20463C2112F0AEF8A6
S31508015298204610BD10B50446024B0360FFF7E6FF2A
S315080152A8204610BD385B040810B50446FFF7F2FF1F
S315080152B82046442112F09AF8204610BDC268B0F972
S315080152C82030B2F948102DE9F0410B44B0F93C10E9
S315080152D886B08B42CCBF01230023044680F8603090
S315080152E804DD9088A08206B0BDE8F08180690027B0
S315080152F803681B6898470546E368B3F93A10B4F991
S315080153083C3019448842B4BF0021012104F1440004
S3150801531811F009FFE368B4F92010B3F9223004F152
S3150801532828002B448B42CCBF0021012111F0FBFE3A
S31508015338B4F92060B4F93C00B542B8BF35462DB278
S315080153488542A8BF0546E3684FEAE578DA89B3F8DE
S3150801535810E094F85830C117CDE904584FEAE67CAD
S31508015368CDF808E03BB9CDE900013046614603931B
S3150801537812F061F8B6E73B46CDE9006C0397F7E703
S31508015388074B10B504460360006F18B1A16F091AD7
S3150801539812F02CF82046FBF785FD204610BD00BF04
S315080153A8505B040810B50446FFF7EAFF2046942126
S315080153B812F01CF8204610BD70B50D46164604466F
S315080153C8102012F007F833462A462146BDE87040F0
S315080153D812F020BFFBF76DBCFBF7C6B8F8B5054652
S315080153E80068FFF7F9FF00F5E65011491C300AF085
S315080153F872FE2868FFF7EEFF06462868FFF7ECFFF6
S315080154080746642011F0E6FF044607F5E7521C3201
S31508015418084913F0C9FE214606F1CC0011F04CFDE6
S315080154282868FFF7D7FF4C34C0F89040F8BD00BF8D
S31508015438305C0408405C0408F8B505460068FFF7BF
S31508015448CBFF00F5E65011491C300AF044FE2868DE
S31508015458FFF7C0FF06462868FFF7BEFF0746642020
S3150801546811F0B8FF044607F5E7521C32084913F04C
S315080154789BFE214606F1CC0011F01EFD2868FFF7B0
S31508015488A9FF4C34C0F89040F8BD00BF045C040875
S31508015498145C040810B504460021283011F03DFEB5
S315080154A8002104F1440011F038FE002384F8603025
S315080154B8E3689B88A38210BD08B5FFF7EBFF08BD13
S315080154C810B50446FFF7E6FF626E938901339381A7
S315080154D8A26E93890133938110BD08B54068FFF719
S315080154E8EFFF08BDF8B5054610200E46174611F018
