S02B00002E2E2F6275696C642F6D61696E2F6373332D73706F72742D6366303161343365343130332E73726504
S3150801000000400020190401081D0401081F04010805
S3150801001035040108370401084D04010800000000F1
S31508010020FFFFFFFF00000000000000006304010855
S315080100306504010800000000670401086904010855
S315080100405196010861960108719601088196010881
S3150801005091960108A1960108B1960108C196010871
S31508010060D1960108E1960108F19601080197010860
S31508010070119701082197010831970108419701084D
S31508010080519701086197010871970108819701083D
S3150801009091970108A1970108B1970108C19701082D
S315080100A0D1970108E1970108F1970108019801081C
S315080100B01198010821980108319801084198010809
S315080100C051980108619801087198010881980108F9
S315080100D091980108A1980108B1980108C1980108E9
S315080100E0D1980108E1980108F198010801990108D8
S315080100F011990108219901083199010841990108C5
S3150801010051990108619901087199010881990108B4
S3150801011091990108A1990108B1990108C1990108A4
S31508010120D1990108E1990108F1990108019A010893
S31508010130119A01087D0401087D040108219A010824
S31508010140319A0108419A0108519A0108619A0108F0
S31508010150719A0108819A0108919A0108A19A0108E0
S31508010160B19A0108C19A0108D19A0108E19A0108D0
S31508010170F19A0108019B01087D0401087D04010823
S31508010180119B010808B500F0A1F8254B25488342C3
S3150801019020D30020244B25498B4228D301F06EFD3C
S315080101A00025234E234CA41BA410AC4228DC0025B1
S315080101B0214E224CA41BA410AC4226DC00F086F981
S315080101C006461F4D1F4C641BA410002C22DC30462A
S315080101D001F056FDD3E900120C3353F8044C891A81
S315080101E09442D4D95558043242F8045CF8E753F8D6
S315080101F0082B53F8044C9442CED910600432FAE71E
S3150801020056F8253098470135CFE756F825309847EF
S315080102100135D1E7013C55F824309847D5E700BFA9
S31508010220800401088C0401088C040108940401085F
S31508010230940401089404010894040108B00401080F
S31508010240B0040108BC0401081B4B1A6822F45022A9
S315080102501A601A6842F480321A601A689103FCD54A
S315080102600121164A520102F1844211604FF41442E7
S315080102709A60134A116821F0040111606FF07F41F9
S315080102805160116841F0010111600E4A5A601A68FD
S3150801029042F080721A601A689201FCD540F2036135
S315080102A0094A11609A6842F002029A609A6802F055
S315080102B00C02082AFAD17047003802407438020045
S315080102C010E000E00C3C4005003C024038B5002433
S315080102D04848036843F0010303608460036823F018
S315080102E0847323F480330360434B4360036823F428
S315080102F080230360C460FFF7A7FF404B404A9A601A
S3150801030062B6404ADA60036943F020030361036970
S3150801031023F020030361036B43F020030363BFF358
S315080103204F8F4FF0A043384A13604FF4004393614F
S315080103304FF480439361436A43F480734362436A8B
S3150801034023F480734362436C43F480734364036903
S3150801035043F001030361036923F001030361036B9E
S3150801036043F001030363BFF34F8F284B284D996868
S3150801037041F00101996027494C60296841F44041DF
S3150801038029604FF4807159604FF4001119610721F2
S3150801039059634FF000419161996841F08041996034
S315080103A019688907FCD5D96CB1F5946F00D3013466
S315080103B0642CF1D14FF4004393614FF0804393616C
S315080103C0436A43F480734362436A23F48073436246
S315080103D0436C23F480734364036943F02103036187
S315080103E0036923F021030361036B23F021030363EC
S315080103F038BD00BF003802401030002400ED00E08F
S31508010400000001080003FA0500140240002001401B
S31508010410000002400023014014480047FEE71EF091
S31508010420040F0CBFEFF30880EFF309807146104AF9
S315080104301047FEE7FEE71EF0040F0CBFEFF3088036
S31508010440EFF3098071460B4A1047FEE71EF0040FC9
S315080104500CBFEFF30880EFF309807146064A10478F
S31508010460FEE7FEE7FEE7FEE77047000085010108A3
S31308010470330401084B04010861040108FEE784
S315080104801C11030800400020484000204840002075
S3150801049070870020E51C0108153001085130010854
S315080104A051B8010889E60108DDE601085982020802
S311080104B06930010895E60108E9E6010833
S315080104C0014818F0EBBD00BF5040002010B5084C9C
S315080104D02368DB0707D4074818F079FD0123064886
S315080104E0236018F073FF034818F08CFD002010BD37
S315080104F04840002050400020C104010870B500267C
S3150801050004461D46C0E900120672104607F0D8FED9
S315080105106068012107F096FF20684FF4E1310CF07D
S3150801052025F8314620680CF043F8294620680CF076
S315080105306AF8206829460CF05AF8204670BD2DE95C
S31508010540FF41039101A981E80C000446006816469B
S31508010550D0E90553029F5D1B0BF09DFFA7EB06082B
S315080105606B1E08F104021B1A9A4204D9012323724D
S3150801057004B0BDE8F0819DF80C1020680BF076FFF9
S315080105805FFA88F120680BF071FF9DF80E1020685C
S315080105900BF06CFF9DF80F1020680BF067FFBE4249
S315080105A0E6D016F8011BF7E72DE9F0410E4686B0AD
S315080105B069468046306881E80C0017460BF0CBFF88
S315080105C00328044606D80023404688F8003006B0BA
S315080105D0BDE8F08106AD03AB45F8083D059595E8FC
S315080105E0060030680BF093FF9DF80D300433A342E3
S315080105F0E9D8042430680BF058FF013CFAD1019C74
S315080106009DF80D30E41B9C4228BF1C4604972744DD
S31508010610059795E8060030680BF059FF9DF80D30EF
S31508010620A34204D930680BF040FF0134F6E703987A
S315080106300123C8F80100C7E700680BF086BF000070
S31508010640024A026000224260704700BF4106010863
S31508010650024A026000224260704700BFF91601088B
S3150801066000207047007970470171012070470079B1
S315080106707047017101207047072A97BF4B6800230D
S3150801068003EB4202138E9CBF43800123037070471C
S315080106900020704708207047072A97BF4B68002338
S315080106A003EB4202138C9CBF4380012303707047FE
S315080106B008207047072A97BF044B002303EB8202E1
S315080106C053889CBF438001230370704770960208C4
S315080106D008207047072A97BF044B002333F82230B6
S315080106E0438098BF01230370704700BF70960208C4
S315080106F00820704741680B48D1E90123824202D19B
S315080107006BB9C869704708488242F9D007498A42D5
S3150801071005D1002B14BF4FF0FF30082070474FF06A
S31508010720FF307047710C0108F10C010841060108F8
S315080107300020704737B50D4604460C4B0C4900930B
S315080107400233019302AB13E90C0005F10C000968A9
S31508010750FFF7F5FE05F154000A2105F083FE054B66
S31508010760204623600023636003B030BDE996020882
S31508010770AC960208E915010830B591F82C300C46FB
S31508010780B3FA83F3054685B004AA5B0902F80C3D62
S3150801079081F84D300DF105030B490393029204AB21
S315080107A013E90C0004F10C000968FFF7C8FE04F10F
S315080107B054000A2105F056FE044B28462B600023F7
S315080107C06B6005B030BD00BF9C9602081D16010876
S315080107D037B50D4604460C4B0C4900930533019376
S315080107E002AB13E90C0005F10C000968FFF7A7FE37
S315080107F005F154000A2105F035FE054B2046236014
S315080108000023636003B030BD07970208A09602086B
S315080108105116010838B5074B04460360C06D20B16F
S31508010820056801F057FA2846F9E7204605F022FC43
S31508010830204638BDB896020810B50446FFF7EAFF08
S315080108402046DC2101F048FA204610BD02780B78D3
S315080108509A420DD142784B789A4209D382788B789D
S315080108609A4205D1C078CB78C31A58425841704785
S315080108700020704782B002AB03E903003D4ADDE977
S315080108800030934206D1003018BF0120404280B2A1
S3150801089002B07047384A934205D100284FF6FF70D7
S315080108A008BF0120F4E7354A934205D100284FF6DF
S315080108B0FF7008BF0220EBE7314A934205D10028B1
S315080108C04FF6FF7008BF0320E2E72E4A934205D18F
S315080108D000284FF6FF7008BF0420D9E72A4A934239
S315080108E005D100284FF6FF7008BF0520D0E7274A33
S315080108F0934205D100284FF6FF7008BF0620C7E7C7
S31508010900234A934205D100284FF6FF7008BF0720F6
S31508010910BEE7204A934205D100284FF6FF7008BF6B
S315080109200820B5E71C4A934205D100284FF6FF7007
S3150801093008BF0920ACE7194A934205D100284FF6AA
S31508010940FF7008BF0A20A3E7154A934205D100287C
S315080109504FF6FF7008BF0B209AE7124A934205D15A
S3150801096000284FF6FF7008BF0C2091E74FF6FF707D
S315080109708EE700BFA10F0108011401081110010833
S31508010980A1150108E91501081D16010851160108E6
S3150801099091160108C5160108F916010895180108E6
S315080109A099190108CD17010808B54368183393E862
S315080109B00300FFF75FFF08BD08B54368203393E8D6
S315080109C00300FFF757FF08BD70B50025044601600F
S315080109D0C0E9015529460C3005F03EFD10260823CD
S315080109E03246E36129462575E5822583658304F147
S315080109F0200018F024FD3246294604F1300018F08B
S31508010A001EFD0A4B2046C4E91034094BC4E91234C9
S31508010A10084BC4E91434084BC4E91634074BC4E936
S31508010A201834074BC4E9013570BD00BFD8950208D3
S31508010A30E8950208FC950208109602082496020811
S31508010A40C10B0108037D37B50446C3B16D460C30A9
S31508010A5005F01DFDA36828465A1013F0010F04EB93
S31508010A600201636818BFA25804F1040418BFD358D9
S31508010A70984795E8030084E8030003B030BD024AAD
S31508010A80C0E90123F9E700BFC10B01084FF6FF7260
S31508010A900823C282C3610283428300F1200300F165
S31508010AA030018B4202D023F8022BFAE74FF6FF7288
S31508010AB000F14001994202D023F8022BFAE7037D9F
S31508010AC00BB1002303757047022330B585B08DF845
S31508010AD0053091F82C300C46002B0CBF022200225F
S31508010AE0054604AB03F80C2D02930E490DF10603D6
S31508010AF0039304AB13E90C0004F10C000968FFF732
S31508010B001EFD0A2104F1540005F0ACFC04F1600055
S31508010B10FFF7BCFF044B28462B6000236B6005B02A
S31508010B2030BD00BF98960208C5160108002200B517
S31508010B3089B006928DF81C20C8228BB201918DF8D6
S31508010B401530090C1B128DF816308DF8171005ABE8
S31508010B50091203938DF81B208DF81810427D0DF1AB
S31508010B601D030649049303AB8DF8142000680CCBCA
S31508010B700968FFF7E4FC09B05DF804FBD996020899
S31508010B8038B5CB690C46072B88BF0023054688BFB5
S31508010B90CB61CA69084B204653F82210FFF7C6FFF6
S31508010BA004F10C004FF4C87105F05CFC034B2846B0
S31508010BB02B6000236B6038BD70960208710C010822
S31508010BC00B7D10B504461BB1FFF7DAFF204610BDB1
S31508010BD0014AC0E90023F9E7C10B010838B50D46FA
S31508010BE00446CA69084B284653F82210FFF79EFFA8
S31508010BF005F10C004FF4C87105F034FC034B20468F
S31508010C0023600023636038BD70960208F10C010861
S31508010C1070B5002205460823084601F12006344628
S31508010C203188248A0236A14228BF2146B1F5005FE0
S31508010C3007D2082B15D000EB4304248C8C4288BFBD
S31508010C4013460132082AEAD1082B04D0064A52F87B
S31508010C502310FFF76BFF054B28462B6000236B60BB
S31508010C6070BD1346EDE700BF7096020841060108FC
S31508010C7070B5CB690446C8685A0040B94FF6FF7586
S31508010C808818068CAE4204BF4FF6FE7505844FF6EA
S31508010C90FF700A44128C824220D0072B13D1CB69EC
S31508010CA001EB4302128CB2F5005F04D32046FFF72D
S31508010CB095FF204670BD1BB92046FFF7A9FFF8E747
S31508010CC0013BCB61EBE70848013330F8230090423A
S31508010CD0E5D2CB612046FFF753FFEAE7034B2360D2
S31508010CE000236360E5E700BF70960208710C0108EE
S31508010CF038B5CA68CB6904465B0042B94FF6FF703E
S31508010D00CA18158E854204BF4FF6FE7010860B442D
S31508010D101A8E4FF6FF739A4213D04FF6FE72CB69BD
S31508010D2023B92046FFF774FF204638BD013BCB6146
S31508010D3001EB43031B8C9342F1D12046FFF74EFF8B
S31508010D40F2E7024B236000236360EDE7F10C01082B
S31508010D5038B504460C200D4600F0AEFF0346021DC9
S31508010D6095E8030082E80300E26DE3651A6038BD81
S31508010D702DE9F0438DB06B4683E8060090F84E30B6
S31508010D8006469BB3551A142D28BF1425002405F1D0
S31508010D90040905AF4A468846384621460B9418F099
S31508010DA04EFB214696F84F300B9A8DF81430B6F85B
S31508010DB052304A448DF815301B120B928DF81630B5
S31508010DC08DF81750A94205D018F801207B181A7119
S31508010DD00131F7E70B9B07493B44CDE9037303ABA5
S31508010DE00CCB096806F10C00FFF7A9FB0DB0BDE8AD
S31508010DF0F08300BF0C97020838B505460C4652B178
S31508010E0001F1200301F1180292E8030083E80300C7
S31508010E10012384F838302069002107F013FB04F117
S31508010E2054004FF4967105F01DFB034B28462B60C1
S31508010E3000236B6038BD00BFA10F01087FB50446CA
S31508010E40543005F024FB04F1C80005F020FB04F139
S31508010E50D00005F01CFBE36902AE5A1013F0010F2E
S31508010E6004EB0201A36918BFA258304618BFD3582C
S31508010E7004F11805984796E8030085E8030004F18C
S31508010E806000FFF7DFFD237D5BB100236E46214637
S31508010E90304623750122FFF7AFFF96E8030085E880
S31508010EA0030004B070BD00002DE9F04184B091F84B
S31508010EB04C3000AF022B06460C4607D00122FFF73D
S31508010EC09BFF30461037BD46BDE8F08138460AF02B
S31508010ED0F3FBD7E90012521A02F10C0323F00703B8
S31508010EE0ADEB030DB4F850300DF1050E8DF8003059
S31508010EF01B128DF8013000236D46704602F1050874
S31508010F008DF802308DF803308DF8042002F1FF3C8C
S31508010F10BCF1000F04DB0EF8013B0CF1FF3CF7E7CF
S31508010F200AB118F073FABD600A494544FD6007F134
S31508010F30100313E90C00096804F10C00FFF7FFFA26
S31508010F400A2104F1540005F08DFA034B336000239E
S31508010F507360B6E7A89602089116010837B50D46DB
S31508010F6004460C4B0C4900930133019302AB13E978
S31508010F700C0005F10C000968FFF7E1FA05F15400C8
S31508010F80642105F06FFA054B204623600023636050
S31508010F9003B030BDD4960208D096020801140108A0
S31508010FA038B50D4604460121286907F04BFA6B6DE1
S31508010FB04BB905F10C00FFF73FFB29462046FFF721
S31508010FC0CDFF204638BD024B236000236360F8E756
S31508010FD0A10F010873B500250E460446CDE9005553
S31508010FE0094902AB13E90C0006F10C000968FFF781
S31508010FF0A6FA06F154000A2105F034FA2046034BF5
S31508011000C4E9003502B070BDA4960208A11501080D
S3150801101091F82C2010B5012A044605D891F83430E8
S3150801102043B1FFF7D7FF03E0044B03600023436096
S31508011030204610BDFFF77EFBFAE700BF1110010835
S3150801104038B591F8742091F84F3005460C4681F869
S3150801105075307AB104F1C80005F001FA04F1D0003F
S3150801106005F0FDF90023054A84F83830C5E900235F
S31508011070284638BD012381F87430EBE79919010830
S31508011080F0B587B004460846694681E80C0016495A
S31508011090FFF7DCFB9DF830609DF83470054670B1AA
S315080110A0009A137A8DF80F301FB97EB1527BFF2A49
S315080110B00CD094F84E2084F84F301AB115462846BC
S315080110C007B0F0BD012384F84E30F8E706AB0DF101
S315080110D00F0243F8082D054905930CCB096804F15D
S315080110E00C00FFF72CFAEAE7FF960208E5960208D4
S315080110F0F0B587B005460846694681E80C001A49E5
S31508011100FFF7A4FB9DF830700446E8B1009B05F192
S315080111100C0093F800C003AE0DF10E02134904AB9F
S31508011120AFB195F84E7097B195F84F5065450ED108
S315080111300124CDE9046209680CCB8DF80D408DF8C0
S315080111400C503C46FFF7FBF9204607B0F0BD0025D9
S31508011150CDE9046209680CCBADF80C508DF80CC0CA
S31508011160FFF7EDF9F0E700BFF3960208EF960208DC
S31508011170F0B585B00F466946054681E80C00384644
S315080111801249FFF763FB0646E0B1009C95F84F301C
S3150801119022789A4216D12379A3B9637993B97B78D0
S315080111A0A279073B9A420DD1ED6DE71D55B1A37999
S315080111B0281D07332344CDE9027302A96B689847B2
S315080111C02D68F3E7304605B0F0BD00BFEB9602087F
S315080111D0F7B5044626460D46174604F053FF254B38
S315080111E03A4646F80C3B294601233046FFF786F96D
S315080111F0214B0025A362214B29462363204BC4E9D1
S315080112000655C4E90F341F4BC4E90855C4E911341E
S31508011210022384F82C5084F84D3084F8345084F82D
S31508011220385084F84C5084F84E50256504F1540022
S3150801123005F012F931466E46E56504F16000FFF7DF
S31508011240C3FB192104F1C80005F006F9332104F19D
S31508011250D00005F001F9214630462A46FFF7CCFDB4
S3150801126096E8030004F1180383E80300204603B057
S31508011270F0BD00BFB89602083896020848960208DB
S31508011280589602086896020808B513460A1A06D03F
S31508011290194618F0A1F8B0FA80F0400908BD0120F6
S315080112A0FCE70000F7B50F4602A901E90C00D0E9F1
S315080112B00126234B04469A4208BFB6FA86F6214907
S315080112C038460CBF76090026009DFFF7BFFAE0B144
S315080112D0237D002B31D0627D2B789A422DD1AB78B4
S315080112E06A7842EA0322E2822979EB7843EA012302
S315080112F02383A9796B7943EA01236383E369072B7E
S3150801130003D816B104EB43031A840F4A391D38462C
S31508011310FFF7BAFF88B1237D7BB12B886BB1E269F0
S31508011320072A0AD84EB104EB42044FF6FD7203F5BB
S315080113300053934228BF1346238403B0F0BD00BF70
S31508011340710C0108E1960208DD96020837B50546D3
S31508011350084602A901E90C000C4A011D9DF818402E
S31508011360FFF792FF60B1009A137903F001004CB1BF
S3150801137030B120469178537843EA0123A5F85230D3
S3150801138003B030BDD84300F00100F9E7039702081E
S3150801139013B50446084602A901E90C00074A011DCE
S315080113A0FFF772FF38B1009B5A781B7853EA02237C
S315080113B018BFA4F8D83002B010BD00BFF7960208CE
S315080113C013B50446084602A901E90C00084A011D9D
S315080113D0FFF75AFF48B194F84E0030B1009B987850
S315080113E094F84F30C31A5842584102B010BD00BF95
S315080113F0FB96020803780BB10023037070470000BF
S315080114002DE9FF47002604460D46B146DFF884A0BC
S31508011410CDE9029902AF97E80C0005F10C0168467F
S31508011420FFF7C2F89DF80080B8F1000F0DD0DDF87E
S315080114300100514602903846FFF708FA002818BFFE
S3150801144006466846FFF7D6FFE2E76846FFF7D2FF8A
S315080114507EB1022385F84D3095F84E300BB185F8EB
S315080114604E800A4B236000236360204604B0BDE822
S31508011470F0876B6D2BB9012229462046FFF7BCFC84
S31508011480F3E7034BC4E90036EFE700BF1110010883
S3150801149001140108D596020882B02DE9F04F89B0EA
S315080114A000AFFB6499463B6D0646FB60D7E915A379
S315080114B0A3EB0A05BB6005F1090323F00703ADEBAE
S315080114C0030D0C46E8469346AA1C0DEB02037B6006
S315080114D001F10C033B607B68C7F81880FB6107F1D3
S315080114E0200313E90C00396807F11000FFF75CF8CF
S315080114F03B7CBBB9636D7BB9012221463046FFF7B8
S315080115007BFC07F11000FFF775FF30462437BD460F
S31508011510BDE8F04F02B07047183494E8030086E836
S315080115200300EEE77B7C202B29D1BB7C012B26D936
S31508011530F97C9BF80220914221D1397D9BF8032041
S3150801154091421CD198F80020002AD5D198F801209B
S31508011550002AD1D1BA68A3F1020B924514D1FB68CE
S31508011560FA685B1084F84CB0D20704EB030148BF54
S31508011570E358304648BF53F80990C847C1E707F111
S315080115801000FFF737FFA6E75D452A4628BF5A46EA
S31508011590002AE4D008F10201504617F02CFFDEE7D5
S315080115A0002330B504460D4689B0CDE9043301AAB6
S315080115B004A903C982E803000093084A084B29468F
S315080115C02046FFF769FF2268064B9A4203D16368F2
S315080115D00BB985F83430204609B030BDA496020807
S315080115E035070108E9150108002330B504460D46FB
S315080115F089B0CDE9043301AA04A903C982E8030025
S3150801160000932046034B044A2946FFF745FF204627
S3150801161009B030BD79070108AC960208002330B538
S3150801162004460D4689B0CDE9043301AA04A903C9C4
S3150801163082E8030000932046034B044A2946FFF734
S315080116402BFF204609B030BDD10701089C96020838
S3150801165030B501F1500389B0049301F152030593A2
S3150801166004AA01AB05460C4692E8030083E8030089
S31508011670002328460093044A044B2146FFF70CFF32
S31508011680284609B030BD00BFA0960208A90E010878
S31508011690002330B504460D4689B0CDE9043301AAC5
S315080116A004A903C982E8030000932046034B044AB0
S315080116B02946FFF7F1FE204609B030BDC90A0108DF
S315080116C0A8960208002330B504460D4689B0CDE92F
S315080116D0043301AA04A903C982E80300009320463A
S315080116E0034B044A2946FFF7D7FE204609B030BD09
S315080116F051060108989602082DE9F04191F834300F
S3150801170096B006460C46002B55D191F82C30023B73
S31508011710012B50D907AF01F10C0816AB05970693B3
S3150801172005AD95E80C00414603A8FEF73DFF9DF877
S315080117300C304BB9234A3260736003A8FFF75AFE8F
S31508011740304616B0BDE8F08116AB0597069395E8C5
S315080117500C000DF10D0104F16000FFF7A3FD16ABB6
S31508011760069394F82C300597B3FA83F35B09019332
S315080117700123009395E80C000DF10D012046FFF7B2
S315080117807FFC48B14FF4FA7104F1540004F06AFE83
S315080117900D4B33600023CFE716AB009005970693F0
S315080117A095E80C000DF10D012046FFF7A1FC03A8F1
S315080117B0FFF720FEB1E7002221463046FFF71CFB62
S315080117C0BEE700BFF9160108951801082DE9F04191
S315080117D006460D4694B005AF01F10C0814AB039704
S315080117E0049303AC94E80C00414601A8FEF7DCFE1D
S315080117F09DF804308BB96A6D5AB9002229463046DC
S31508011800FFF7FAFA01A8FFF7F5FD304614B0BDE86F
S31508011810F0810F4AC6E90023F4E714AB0397049352
S3150801182094E80C000DF1050105F16000FFF73AFD9A
S3150801183014AB0397049394E80C000DF105012846AF
S31508011840FFF7BEFD0028D8D101A8FFF7D3FDC5E7EC
S31508011850CD17010837B50C46054601F14F0300932C
S3150801186001F150030A49019302AB13E90C0004F193
S315080118700C000968FEF763FE04F15400322104F0F6
S31508011880F1FD28462146FFF7A1FF284603B030BDE2
S31508011890E59602082DE9F04391F82C3097B0032B11
S315080118A006460C4669D04B6D002B66D007AF01F191
S315080118B00C0816AB0597069305AD95E80C0041464D
S315080118C003A8FEF771FE9DF80C304BB9314AC6E9FB
S315080118D0002303A8FFF78EFD304617B0BDE8F08355
S315080118E04FF0010916AB0597069395E80C000DF123
S315080118F00D0104F16000FFF7D5FC16AB05970693B9
S31508011900CDF8009095E80C000DF10D012046FFF782
S315080119101DFD20B121463046FFF792FBD9E716ABEC
S315080119200597069395E80C000DF10D012046FFF782
S3150801193047FD28B14A4621463046FFF75DFAC8E712
S31508011940CDE900000DF10D0195E80C002046FFF7E1
S3150801195097FB16AB069394F82C300597B3FA83F3E5
S315080119605B09009395E80C000DF10D012046FFF780
S31508011970BFFB03A8FFF73EFD9BE704F1200304F133
S31508011980180292E8030083E8030021463046FFF770
S3150801199061FFA1E7951801082DE9F04791F82C3068
S315080119A096B0032B07460C4602D1FFF753FF42E0D8
S315080119B0D1F8C83001F10C0807AE63B9CDE9073390
S315080119C05749404696E80C000968FEF7B8FD04F148
S315080119D0C80004F044FDDFF8509105AD16AB059635
S315080119E0069395E80C00414603A8FEF7DDFD9DF830
S315080119F00CA0BAF1000F7ED016AB0596069395E8B2
S31508011A000C000DF10D0104F16000FFF74BFC16AB5C
S31508011A100596069395E80C000DF10D012046FFF792
S31508011A20CFFC824658B1002221463846FFF7E4F931
S31508011A3003A8FFF7DFFC384616B0BDE8F08795E83E
S31508011A400C000DF10D012046FFF792FBCDE900AA26
S31508011A5016AB0596069395E80C000DF10D01204687
S31508011A60FFF70EFB16AB069394F82C300596B3FADE
S31508011A7083F35B09009395E80C000DF10D012046EF
S31508011A80FFF736FB16AB0596069395E80C000DF1A4
S31508011A900D012046FFF77CFC38B104F1C80004F0BB
S31508011AA0DEFC04F1D00004F0DAFC16AB0693002341
S31508011AB00596009395E80C000DF10D012046FFF7F8
S31508011AC045FC20B121463846FFF7C4FEB0E7494632
S31508011AD00DF10D00FEF7BAFE48B19DF81C3033B979
S31508011AE09DF81D301BB904F1D00004F0B8FC03A819
S31508011AF0FFF780FC72E703A8FFF77CFCD4F8D03027
S31508011B0053B904F1200304F1180292E8030083E8AB
S31508011B1003002146384648E7024BC7E9003A8AE7F7
S31508011B2090960208991901089496020810B5044678
S31508011B30164B40F8A03B04F0F1FC04F190000DF0BF
S31508011B408FFF04F180000DF08BFF04F170000DF09A
S31508011B5087FF04F160000DF083FF04F150000DF0DA
S31508011B607FFF04F140000DF07BFF04F130000DF01A
S31508011B7077FF04F120000DF073FF04F110000DF05A
S31508011B806FFF204604F076FA204610BD1897020822
S31508011B9010B50446FFF7CAFF2046C42100F09CF899
S31508011BA0204610BDC368A03093F8381004F08DBCE8
S31508011BB038B504460D4604F065FA254B05F12802A9
S31508011BC02360E560234904F110000DF0FAFE05F1E2
S31508011BD03002214904F120000DF0C0FE05F13C0256
S31508011BE01E4904F130000DF0D2FE05F144021C49EC
S31508011BF004F140000DF0CBFE05F1A002194904F1EC
S31508011C0050000DF0D1FE05F1A802174904F1600054
S31508011C100DF0FEFE05F1B002144904F170000DF055
S31508011C20F7FE05F1B802124904F180000DF0F0FE45
S31508011C3005F1C0020F4904F190000DF0E9FE0222F8
S31508011C400D4904F1A00004F04FFC204638BD00BF41
S31508011C501897020870CA0208D8C3020848C00208C1
S31508011C6030C80208F8C0020840C7020838C7020887
S31508011C70C0C60208A8C7020856A302087047FEE7AD
S31508011C8008B5FFF7FCFFFEE70346094A10B51168D8
S31508011C90013111604107074918BF20F00703086899
S31508011CA018BF0833C4180C6091680B44936010BDC3
S31508011CB0E883002000400020FFF7E6BFFFF7E4BFF6
S31508011CC0FFF7E2BF024A536801335360704700BF0A
S31508011CD0E8830020FFF7F6BFFFF7F4BF0048704717
S31508011CE0E8830020024B0349034A5B1AD360704715
S31508011CF000C0012070870020E8830020FEE730B588
S31508011D00C1F12005A1F12004D0E9023000FA05F558
S31508011D1020FA04F4012023FA01F1294390402143D2
S31508011D200138084030BD30B58468C068C2F1400347
S31508011D30591A00BAC1F12005A1F1200320FA01F1CF
S31508011D40012024BA04FA05F5294324FA03F390403D
S31508011D5019430138084030BD9C4601232DE9F04F4F
S31508011D60D0E90267A2F12009C2F1200803FA02FAB2
S31508011D7003FA09FB23FA08F81AF1FF344BEA080BB0
S31508011D804BF1FF35A1F1200904FA09F905FA01F326
S31508011D90C1F1200824FA08F843EA090343EA0803CB
S31508011DA0A1F12009C1F120080CFA09FB2CFA08F85F
S31508011DB04BEA080B0CFA01FA04FA01F28BEA070559
S31508011DC08AEA060402EA040803EA050988EA060219
S31508011DD089EA07034FF0000EC0E90223BDE8F08F38
S31508011DE02DE9F04F93FA83FE01234FF0000CA2F17F
S31508011DF02009C2F12008C2F1400403FA09FB23FABB
S31508011E0008F803FA02FA611A1AF1FF364BEA080BC7
S31508011E104BF1FF37A1F1200906FA09F907FA01F38F
S31508011E20C1F1200826FA08F843EA09030EFA01F96E
S31508011E30D0E9024543EA080306FA01F289EA0507E9
S31508011E408CEA040602EA060803EA070988EA040294
S31508011E5089EA0503C0E90223BDE8F08FC0EBC00398
S31508011E60B0EBD30307D00238834204D8082B28BF26
S31508011E7008231846704701207047002070474068BC
S31508011E80704780887047C3888B4205D803898B427F
S31508011E9002D38180012070470020704700F58763CF
S31508011EA037B5C0F84838C0F84C3800230446C0F89E
S31508011EB06838C0F860380169124B0831CDE900303D
S31508011EC0684607F069FB21690F4B0A316846CDE977
S31508011ED0003407F061FB21690C4B0C316846CDE9EA
S31508011EE0003407F059FB2369D3E905450C2303FBA5
S31508011EF00545AC4204D0204606F0E2F90C34F8E771
S31508011F0003B030BD812301080324010869240108AF
S31508011F1038B5036915495D6804468D420CBF4FF013
S31508011F2000754FF08065124B186A284318622269BA
S31508011F3052688A420CBF4FF000714FF080611A6AED
S31508011F4022EA01021A622069083007F061FB20695A
S31508011F500A3007F05DFB20690C3007F059FB04F5E0
S31508011F608763C4F84838C4F84C3838BD0064004063
S31508011F700038024010B50446024B036004F07AF8B3
S31508011F80204610BD889B020810B50446FFF7F2FFEC
S31508011F9020464FF40861FFF79FFE204610BD00005A
S31508011FA010B5037F04469BB903695B685B68DB0769
S31508011FB00ED4C06800F0D0FD032223695B685A611C
S31508011FC02169044A096913680B43136001232377BE
S31508011FD010BD00BF003C01400A6810B5C2F380730A
S31508011FE05B0012F0005FC2F31C041ABF43EAC40384
S31508011FF043F0040343EA445303600B7943608B6857
S315080120008360CB68C36010BD1FB50469C0682478B6
S31508012010CDE901239DF80C300A4664F3020301A9B0
S315080120208DF80C3000F0DAFD04B010BD47F23051DE
S3150801203038B50446B0F85408192201EB5001B1FB32
S31508012040F0F1B1FBF2F302FB1313551E8BB91046DF
S31508012050FFF704FF04280CD8C2EBC203B2EBD30383
S3150801206042D0901E83423FD8082B02D8EB1A102B78
S3150801207020D9022D2A46E4D11922B1FBF2F302FB3B
S315080120801313BBB1013A022AF7D119220D4610469C
S3150801209001EB5003B3FBF0F34343994234BF5B1A98
S315080120A0CB1AAB4238BF024600F1FF3038BF1D4696
S315080120B00228EDD101EB52011046B1FBF2F1FFF70F
S315080120C0CDFE236904285C68034628BF0423023A27
S315080120D0121A013B120442EA0362013842EA00502D
S315080120E001390843E06138BD0123BFE710B504464D
S315080120F003695A68136823F00203136003695A686F
S31508012100136843F00103136003695B685A68D207D1
S31508012110FCD51A68204642F040021A60FFF786FF8E
S3150801212023695A68136823F00103136010BD036914
S315080121305B689869000E70474068FFF7F8BF036946
S315080121405B689869C0F3074070474068FFF7F7BFB7
S3150801215008B54FF48262044917F04DF90346C3F8EE
S315080121601004C3F8140408BD7097020870B5044634
S3150801217015460E4603F086FFC4E90365354B04F19F
S31508012180200023606B685B0103F1844303F5207328
S3150801219063616B6800255B0103F1844303F52173D1
S315080121A0A3612577FFF7D4FF04F58760FFF7D0FF12
S315080121B0294B2A49C4F85038294BC4F86058C4F841
S315080121C054384FF47A73A4F85838264BC4F868582B
S315080121D0C4F85C38C4F86438234BC4F87048C4F8AA
S315080121E06C38224BC4F87848C4F87438236958689F
S315080121F01F4B88420CBF4FF000704FF080601A6A7F
S3150801220002431A62226950681A6A88420CBF4FF063
S3150801221000704FF0806022EA00021A622269526851
S315080122208A420CBF4FF000714FF080611A6C0A4365
S315080122301A64BFF34F8F2369D3E905560C2303FBB1
S315080122400656B54204D0284606F03AF80C35F8E7A2
S31508012250204670BD889B0208389702080064004032
S31508012260F4010A0048970208589702086897020875
S31508012270003802400B6800F58262103393420CBFA6
S3150801228008600B6070470000F8B50446EFF3118546
S315080122908023C5F3031583F31188D0F84828D0F8AD
S315080122A04C389B1A1E11002BB8BF41363F2E11D848
S315080122B0D0F84C780FC987E80F0004F64C0104F5ED
S315080122C08760FFF7D7FF2EB9236993F90A20034BD5
S315080122D0C3F8002E2D0185F31188F8BD00E100E051
S315080122E02DE9F0410446254E00F1200700F2344855
S315080122F023695B68DA6892073DD0D4F83014D4F8BC
S315080123003424521A1111002AB8BF41313F2928D85D
S31508012310D3F8B021D10861F31C05C2F3800161F33A
S315080123205D75C2F34002D3F8B41162F39E75D3F812
S31508012330B421D3F8B8C1D3F8BC01D4F834343BB1CD
S31508012340C3E902C001F00F01120A1D6019715A7121
S3150801235041463846FFF78EFFD4F860380133C4F892
S315080123606038202223695B68DA6022693369126959
S3150801237013433361BCE7BDE8F08100BF003C01406F
S315080123804068FFF7ADBF2DE9F843044600254FF035
S3150801239080684FF0010900F58767236908FA05F196
S315080123A05A689368194227D0EB0009FA03F3936038
S315080123B0D4F84828D4F84C389A421DD02B011E4629
S315080123C02269D4F84818506800F5C0701844FFF718
S315080123D003FE04F648013846FFF74CFF23695B689C
S315080123E03344D3F8802142F00102C3F88021D4F89E
S315080123F068380133C4F868380135032DCDD1BDE8F5
S31508012400F8834068FFF7BFBF70B5044600F12005A1
S3150801241000F58666D4F83024D4F8343421699A4212
S315080124200AD0E068D4F83024097800F04CFC31462B
S315080124302846FFF71FFFEDE70A4B09691A6922EAE1
S3150801244001021A61226912695A61D4F83014D4F862
S315080124503424914204D021691A6909690A431A6127
S3150801246070BD00BF003C01404068FFF7CDBF70B5A5
S31508012470154604460E4601F5056229680DF087FAE8
S3150801248006F65C02A96804F110000DF08DFA06F64D
S315080124906402696804F120000DF086FA06F66C02FA
S315080124A0296904F130000DF08CFA06F67402E96820
S315080124B004F140000DF085FA204670BD10B50446BA
S315080124C040300DF0CDFA04F130000DF0C9FA04F1EF
S315080124D020000DF0C5FA04F110000DF0C1FA2046EE
S315080124E00DF0BEFA204610BDF0B5034607468E46E6
S315080124F0164614464FF0000C734504F110040ED02D
S3150801250093E80700A4F1100585E8070044F804CC10
S31508012510DA68103344F8042C43F804CCECE7D81BEA
S315080125203044F0BD10B504460C20FFF7C5FB002169
S315080125300346024643F8041B94E8030083E80300B4
S31508012540104610BD38B5D0E900530C4693E807008C
S31508012550002384E80700E3602846FFF7E3FFE0600D
S3150801256038BDC2780368C2F3801040009206C3F3EF
S315080125701C0346BF40EAC30040F0040040EA43504A
S315080125807047C1780368C1F380108906C3F31C0339
S315080125904FEA00120AD54FF6E07000EA533142F0CD
S315080125A008000843C3F3C23318437047580180B281
S315080125B01043704710B5C4780368C4F38012C4F396
S315080125C04014E000C3F31C0340EA021249B14FF676
S315080125D0E07000EA53301043C3F3C2330343D843D0
S315080125E010BD580180B2104340F00700C043F7E719
S315080125F070B50D460B68044603604B6843600B7A59
S315080126000372C06820B10668FFF764FB3046F9E734
S31508012610E060EB68E360E860204670BD1FB56B4675
S3150801262002680C4607CA83E80700002219462046B5
S315080126300392FFF7DDFF039820B10468FFF74AFB11
S315080126402046F9E704B010BD7FB5D0E900636C46B2
S315080126500D4693E80700002384E8070030460393F4
S31508012660FFF760FF214603902846FFF7C1FF03984D
S3150801267020B10468FFF72EFB2046F9E704B070BDC8
S3150801268002680B689A420CD142684B689A4208D193
S31508012690037A0A7A534013F0070F0CBF0120002072
S315080126A0704700207047C3784268C3F3401322B1CC
S315080126B0002B0CBF032004207047002B0CBF0220FF
S315080126C001207047F8B50446FFF7EDFF05460846B1
S315080126D0FFF7E9FF237A0A7A03F0070702F00706EC
S315080126E0B7420FD3534013F0070309D1854209D3E3
S315080126F00AD120680B6898422CBF00200120F8BD3A
S315080127000020FCE70120FAE71846F8E773B5D0F888
S31508012710006700EB0111702E054601F1100401D185
S31508012720FFF7B1FA00EB0613A342019109D107C9D4
S3150801273083E8070000220136DA60C5F8006702B0AF
S3150801274070BDA3F110061A4619463046FFF7CCFEAE
S31508012750D5F800370133C5F800373546AC4206D0FF
S31508012760103D294605F11000FFF742FFF6E76FF025
S315080127700F01341B240901FB046101A8FFF74EFF71
S31508012780DDE700002DE9F74F012715460A68012BF9
S3150801279007FA02F781460E466FEA07087B4C33D1E2
S315080127A0D4F804323B43C4F80432D4F80C323B4320
S315080127B0C4F80C322868431C2B6009EB0010D1F8C9
S315080127C000A0FFF7CEFE0AF1480A44F83A00286845
S315080127D0431C2B6009EB0010FFF7C3FE356848352B
S315080127E004EBC5056860D4F8143203EA0803C4F893
S315080127F01432D4F81C321F43C4F81C7233680133EF
S31508012800336003B0BDE8F08F022B41D1D4F804320E
S315080128103B43C4F80432D4F80C3203EA0803C4F87B
S315080128200C32D5F800A00AF101034FEA0A1B2B6006
S315080128305844FFF7A6FE0AF1020301900BF11000B6
S315080128402B604844FFF79DFE3368019A483342EAF4
S31508012850004044F83300D5F800A00AF101034FEA15
S315080128600A1B2B6009EB0B00FFF78BFE0AF102032B
S3150801287001900BF110002B604844FFF782FE336884
S31508012880019A483342EA004004EBC3035860AAE7B9
S31508012890032B3CD1D4F8043203EA0803C4F8043202
S315080128A0D4F80C3203EA0803C4F80C322B6800EB9F
S315080128B0031A5046FFF765FE9AF803108346C1F3DB
S315080128C040110AF10400FFF775FE33684BEA004030
S315080128D0483344F833002B68013309EB03192B609D
S315080128E04846FFF74EFE99F803108246C1F3401198
S315080128F009F10400FFF75EFE33684AEA00404833EF
S3150801290004EBC30358602B6801332B606BE7042B78
S315080129107FF469AFD4F8043203EA0803C4F8043231
S31508012920D4F80C323B43C4F80C322868D1F800A01D
S3150801293009EB0010FFF715FE0AF1480A44F83A00B8
S315080129402B68326809EB031999F80330D9F804C0E2
S3150801295013F0200F99F8071010D0C1F340139B000C
S3150801296043EACC0343F00103C1F3801143EA41036F
S31508012970DB43483204EBC2025360C4E7C1F340109B
S315080129808000034B40EA4C500343EDE700640040E6
S31508012990F9FF1F002DE9F04F1E461B68044617462E
S315080129A09A4685B0D0F800B7019300EB0315DA45CE
S315080129B075D22A7A02F007028A4209D12846FFF718
S315080129C072FE012805F1100502D10AF1010AEEE7A6
S315080129D0D14604EB0A1898F8082002F007028A4241
S315080129E033D14046FFF75FFE02282ED109F10105D2
S315080129F05D4508F1100826D3A846A946019BAAEB0E
S31508012A000302A9EB0A03A8EB09094FEA59014FEAA0
S31508012A10930A0291A5EB080103F0030509F00103E6
S31508012A204FF000094FEA520B039102F00108019396
S31508012A30D94538D00123324639462046FFF7A2FE4A
S31508012A4009F10109F4E7A946C5E7C84604EB0915E2
S31508012A502A7A02F007028A420CD12846FFF723FE9A
S31508012A60032807D108F10108D84505F11005EFD368
S31508012A704546C3E7454604EB0812107A00F00700FD
S31508012A808842BBD110460292FFF70DFE0428029A2E
S31508012A90B4D101355D4502F11002EED3AEE7D04659
S31508012AA0D1465546AAE7B8F1000F09D03168204644
S31508012AB0FFF72CFE0123324639462046FFF762FE10
S31508012AC04FF00008D04508D0022332463946204641
S31508012AD0FFF758FE08F10108F4E7012D15D1316811
S31508012AE02046FFF713FE0123324639462046FFF7F3
S31508012AF049FE0025029B9D4212D0032332463946E0
S31508012B002046FFF73FFE0135F4E7022DEBD0032DF2
S31508012B10EFD1316820460131FFF7F8FD0223E3E7DB
S31508012B20019B4BB131682046FFF7F0FD032332467E
S31508012B3039462046FFF726FE0025039B9D4207D00E
S31508012B400423324639462046FFF71CFE0135F4E7D1
S31508012B5005B0BDE8F08F000073B51E4C0546D4F8E4
S31508012B600032002113F0010331D002AE46F8041DEC
S31508012B7033466A460091FFF70DFFD4F80012019B10
S31508012B8021F47C5118020143C4F800121249DBB240
S31508012B90D1F8002285F8053722F47C520243C1F8A0
S31508012BA0002295F8042772B1334628466A46012160
S31508012BB0FFF7F0FE0120D4F8003223F00103C4F830
S31508012BC0003202B070BD012385F80437ECE71846D8
S31508012BD0F7E700BF00640040006800402DE9F04FA8
S31508012BE006468A4690460446D0F8009785B04FEACD
S31508012BF0091547192D11002D12DD4FEA650B04EB56
S31508012C000B13184651460193FFF75CFD019B28B14A
S31508012C10A5EB0B05013D03F11004ECE75D46EAE778
S31508012C20A74213D051462046FFF72AFD70B1E36843
S31508012C30002B41D05968D8F80020914204D19968EF
S31508012C40D8F80420914213D01B68F1E7B9F1700F47
S31508012C5001D1FFF718F8A742CDE9028A0BD1394607
S31508012C6002A8FFF76FFCD6F800370133C6F800371C
S31508012C7005B0BDE8F08FA7F1100845463A46394632
S31508012C804046FFF731FCD6F800370133C6F800375E
S31508012C90AC4206D0103D294605F11000FFF7A8FC05
S31508012CA0F6E76FF00F01A8EB0404240901FB048180
S31508012CB002A8FFF7C9FCDBE74046FFF733FCE368E8
S31508012CC00360E060D4E738B501295379154614BF86
S31508012CD0002290F80527134400EB0310C4682CB1B1
S31508012CE06368201D294698472468F8E738BD00001F
S31508012CF00022C0F8002780F80427044AD2F80032D7
S31508012D0043F00103C2F80032704700BF0064004077
S31508012D1070B50E4604460025206898B142683368A6
S31508012D209A420DD1826873689A4209D1031D9E425F
S31508012D3005D003682360FEF7CDFF204600E025464F
S31508012D400446E9E735B1286803682B60BDE8704099
S31508012D50FEF7C0BF70BD70B504460E46D4F80037FD
S31508012D6000F1100504EB0313984205D00C303146E7
S31508012D70FFF7CEFF2846F1E770BD00002DE9F041C7
S31508012D80044603F07FF9134B04F110052360124B37
S31508012D9004F1280628461C6004F5E66803F03EFAA5
S31508012DA03046FFF7A5FF04F57B6731460B4A4046D7
S31508012DB0FFF7DCF90A4A31463846FFF7D7F94146A3
S31508012DC0284603F0EFF92846394603F0EBF9204681
S31508012DD0BDE8F081109C0208F8830020D09B020808
S31508012DE0EC9B0208103003F055B9103003F060B9B6
S31508012DF0103003F06BB9000008B5103003F074F910
S31508012E00044B1A6A42F0C0621A621A6A22F0C06258
S31508012E101A6208BD00380240F8B50446124B04F19F
S31508012E202805036000F57B60FFF7A4F804F5E66062
S31508012E30FFF7A0F8D4F8286716F1FF3608D3E86833
S31508012E4020B10768FEF746FF3846F9E71035F3E77C
S31508012E5004F1100003F07EF90022044B20461A60A3
S31508012E6003F008F92046F8BD109C0208F8830020F3
S31508012E7010B50446FFF7D0FF204641F63001FEF7AC
S31508012E802BFF204610BD000038B504460D46074AFB
S31508012E9001F5E661FFF7EBFA054A05F57B6104F1F1
S31508012EA05000FFF7E4FA204638BD00BF289C020807
S31508012EB03C9C020810B504465030FFF7FFFA20463D
S31508012EC0FFF7FCFA204610BD4368187D704710B518
S31508012ED0C06801F0D5FCBDE81040436C01215B6870
S31508012EE04430184710B50446024B036003F0C2F894
S31508012EF0204610BD689C020810B50446FFF7F2FF8C
S31508012F0020462021FEF7E8FE204610BD08B50346F7
S31508012F1001750069DB680268526819B1D98B904757
S31508012F20012008BD998BFAE74068FFF7EFBF00005B
S31508012F3038B504460D4603F0A5F8094BE56023604C
S31508012F40284601F09DFC00232375064B5C30206161
S31508012F50C4E90634284601F09FFC204638BD00BF67
S31508012F60689C0208589C02084368187D704710B58A
S31508012F70C06801F085FCBDE81040436C01215B681F
S31508012F804430184710B50446024B036003F072F843
S31508012F90204610BD989C020810B50446FFF7F2FFBB
S31508012FA020462021FEF798FE204610BD08B50346A7
S31508012FB001750069DB680268526821B1B3F904102A
S31508012FC09047012008BDB3F90210F9E74068FFF7F9
S31508012FD0EDBF000038B504460D4603F053F8094B1A
S31508012FE0E5602360284601F04BFC00232375064B58
S31508012FF04C302061C4E90634284601F04DFC2046D0
S3150801300038BD00BF989C0208889C0208084670478C
S3150801301008467047034B044A1A60044B044A1A606F
S31508013020704700BF00840020B89C0208FC8300207A
S31508013030C49C02080048704704400020B0F9040007
S3150801304070470020704700797047002070470000DC
S3150801305010B5034C204601F05FFC024B236010BDFE
S3150801306004840020F09C02080248034B036001F027
S3150801307059BC00BF04840020F09C02080368198823
S31508013080014B18680DF062BEC486002000797047AE
S3150801309000880B8898422CBF002001207047012A1E
S315080130A097BF4B68002303EB820253889CBF43807A
S315080130B001230370704702207047012A97BF4B68A6
S315080130C0002333F82230438098BF012303707047E9
S315080130D0022070470F2A97BF4B68002303EB820231
S315080130E053889CBF438001230370704710207047A3
S315080130F00F2A97BF4B68002333F82230438098BFC5
S3150801310001230370704710207047000010B504466C
S31508013110024B036002F0AEFF204610BDA49D0208D3
S3150801312010B50446FFF7F2FF20464421FEF7D4FD09
S31508013130204610BD10B50446006903681B68984708
S31508013140B4F93430002B04DB9842A8BF184600B204
S3150801315010BD0020FCE708B54068FFF7EBFF08BD86
S3150801316003888B4205D84088884234BF0020012055
S315080131707047002070470F2970B50E46154609D8C5
S3150801318044681146606CFFF7EBFF10B104EB860447
S31508013190658070BD0020FCE7012970B50E4615460D
S315080131A009D844681146E068FFF7DAFF10B104EB65
S315080131B08604658070BD0020FCE7002370B500EB2E
S315080131C081058B42148805D02E880133A64288BF13
S315080131D02C80F6E700EB830120F823400F2B06D855
S315080131E010880C880133844238BF0880F6E770BD21
S315080131F00F2973B50E4603D90024204602B070BDC7
S3150801320045681146286CADF80620FFF7A9FF044664
S315080132100028F1D00DF1060231462846FFF7CDFF09
S31508013220EBE7002370B500EB81058B42148805D0C6
S315080132302E880133A64288BF2C80F6E700EB83016E
S3150801324020F82340012B06D810880C8801338442C4
S3150801325038BF0880F6E770BD012973B50E4603D954
S315080132600024204602B070BD45681146A868ADF82D
S315080132700620FFF775FF04460028F1D00DF1060276
S3150801328031462846FFF7CDFFEBE72DE9FF47D0E9A1
S31508013290006735460DF11009BC1B29F8021DA4105B
S315080132A0002C10DD4FEA640805EB880A51464846AA
S315080132B0FFF7EEFE28B9A4EB08040AF10405013C60
S315080132C0EEE74446ECE7AF4205D137F8023C18462B
S315080132D004B0BDE8F087AE426B88F8D0BDF80E4061
S315080132E02A8835F8021C35F8040C009403F0D4F842
S315080132F083B2ECE713B50446006903681B6898476F
S31508013300B4F93430002B19DB8342A8BF03461BB23C
S3150801331064214B4393FBF0F104F11402009289B244
S3150801332004F11C0268460192FFF7AFFF236C0146C0
S315080133301A6818465268904702B010BD0023E7E79D
S3150801334070B50C4621EAE17383860646006903686F
S315080133501B689847002C0EDBA042A8BF204605B281
S315080133603046FFF7C7FFA54207D047F6FF70231A75
S315080133705842584170BD0025F2E70120FAE708B521
S315080133804068FFF7DDFF08BD38B50546C06804305B
S3150801339001F076FA0446436C01215B68443098478C
S315080133A0E36C01215B6804F14C0098472846FFF756
S315080133B0A1FF38BD08B5FFF79DFF08BD08B5FFF7A2
S315080133C099FF08BD73B504460E46006C91B2019289
S315080133D0FFF7C6FE054680B1BDF80610606CFFF71B
S315080133E0BFFE054648B1204601AA3146FFF7E5FE6C
S315080133F0BDF8063004EB86046380284602B070BD2A
S3150801340073B504460E46806891B20192FFF7A8FE8D
S31508013410054680B1BDF80610E068FFF7A1FE05462E
S3150801342048B1204601AA3146FFF7FBFEBDF8063032
S3150801343004EB86046380284602B070BD2DE9F74384
S3150801344004460E46154602F01DFE3A4B04F11408D1
S3150801345023600023C4E90365D6E908756361C8F8E2
S315080134600430354BED1BE361344BAD102362344B0D
S31508013470022DC4E90938334BC4E90B381ED94FF07C
S3150801348002093A887B88ADF80420ADF80630019A1E
S3150801349000214046FFF7B4FFB9F1010F11D105F13B
S315080134A08045013D07EB850337F825205B88ADF894
S315080134B00020ADF80230009A49460AE065B1A946EE
S315080134C0DFE70121BA88FB88ADF80420ADF806309C
S315080134D0019A4046FFF794FF0023A3861A4B371D2E
S315080134E0C4E90E34384601F0CBF996F82830543041
S315080134F02064BBB13168154D102005EBC105FEF7F7
S31508013500DBFB04F1240229460CF082FA104D3168DE
S31508013510102005EBC105FEF7CFFB04F12C02294665
S315080135200CF076FA384601F0B7F9204603B0BDE843
S31508013530F08300BFA49D0208C09D0208BC9D020835
S315080135406C9D0208809D0208949D0208D0C7020856
S3150801355070C602087047406803681B6818474068C8
S3150801356003681B681847808870470079704701719E
S315080135700120704743689B681878704773B544689B
S3150801358002AB03F8011D6269194604F1140090475C
S3150801359058B166689DF807102368B34207D053F8F7
S315080135A0042B15788D42F8D1A26002B070BD0020B7
S315080135B0FBE78088704781800120704743689B68D4
S315080135C018887047436830B5D3E90025954207D076
S315080135D052F8040B04888C42F8D19860012030BD5A
S315080135E00020FCE7406803681B68184738B505469C
S315080135F01420FEF761FB0446294614F0EFFD204628
S3150801360038BD03681B69184710B50446F030FFF743
S31508013610A2FFB4F90831181A18BF012010BD38B530
S31508013620044600F58870FFF796FF0546D4F80C01A5
S315080136300368DB68984703681B689847281A18BF08
S31508013640012038BD4068FFF7EABFC36A0978986860
S3150801365002F004BD4068FFF7F8BF0000C26E054BD3
S315080136609A4206D1044AD2E9003293421CBF1B682A
S31508013670C3667047549E0208C0950208C26A054B84
S315080136809A4206D1044AD2E9003293421CBF1B680A
S31508013690C36270470C400020C895020870B50446FD
S315080136A0FFF7ECFFFFF7DAFFC36A1A88DD68A0F8AF
S315080136B05020C26E127880F898204FF4EC70FEF70D
S315080136C0FBFA06462A46214604F10C0500F07AFB68
S315080136D03146284602F066FDE36EC4F8C4605B68AD
S315080136E020469847C4F8C8000146284602F05AFD04
S315080136F0E36A2046BDE870405B6818470E4B70B513
S315080137001C680E4D20460DF0AFFA2E46636D204615
S31508013710AB420CD1A36D53B90DF0CCFA636DB3422C
S3150801372001D1A36D33B12046FFF76BFFF6E7FFF72B
S3150801373068FFEBE770BD00BFC4860020C50B020811
S31508013740044B1B68D3F89030003318BF012380F867
S31508013750CC30704710840020F8B5044602F092FC7C
S31508013760204600255E4B5F4E40F80C3B02F060FD9B
S315080137705D4A04F1240392E803005C4A83E80300E6
S31508013780E2625B4A5B49C4E90C2304F13C0004F19B
S3150801379030020CF0FCF8584B04F14C02E364A4F82F
S315080137A05050564904F154000CF0F1F8544A04F10A
S315080137B0640392E80300534A83E80300E266524A27
S315080137C05249C4E91C23524B04F17002C4E91E3460
S315080137D004F184000CF0F5F84E4B04F19402C4F898
S315080137E0943084F898504C4904F19C000CF0E9F89F
S315080137F004F1AC024949C4F8AC6084F8B05004F14C
S31508013800B4000CF0ABF8C4E9315584F8CC5004F196
S31508013810D00001F089F8424A424BC4F81421424AC1
S315080138204249C4F80C31C4F81821414B414F424A68
S315080138304248C4F81031C4F82411C4F82C11C4F84C
S315080138403031C4F83421C4F83C713D4AC4F8447196
S31508013850C4F848313B4FC4F85411C4F85831C4F878
S3150801386060313949394BC4F82001C4F86C31C4F8C0
S315080138702801C4F83821C4F84021C4F85001C4F815
S315080138805C11C4F86821A4F8085104F5B872C4F8A3
S315080138901C41C4F84C71C4F86471C4F8706184F8A9
S315080138A074512B4904F5BC700CF058F804F5C47230
S315080138B0C4F8886184F88C51264904F5C8700CF05F
S315080138C04DF8254B84F8A451C4F8A03104F5D072FB
S315080138D0224904F5D4700CF074F82046F8BD00BFEF
S315080138E0989E020848960208C89502080C400020CE
S315080138F0FC9D0208A8C002080C9E0208E8C5020839
S31508013900C0950208549E02081C9E020888CA02082D
S31508013910553601082C9E020888C0020818C00208FC
S3150801392004400020048400203C9E02082440002014
S31508013930DC9D020834400020809E0208CC9D0208C6
S31508013940EC9D02083C400020789E0208889E0208E9
S3150801395000C1020898C002083896020810C0020879
S3150801396070B5D0E900460D46B44205D02368204615
S31508013970294698470834F7E770BD10B504460C3058
S3150801398002F088FBE06E21460830FFF7E9FFE06A9E
S3150801399021461030FFF7E4FF10BD000038B5044694
S315080139A0214B00F13C011D6828460DF050F904F140
S315080139B0540128460DF04BF904F1840128460DF00F
S315080139C046F904F19C0128460DF041F9E36A1B8882
S315080139D04BB1B4F850209A4205D1E36E1A7894F89F
S315080139E098309A420ED02046FFF758FE2046FFF738
S315080139F0C4FF2046FFF782FE0023A4F8083184F8A5
S31508013A00CC3038BD04F1B40128460DF020F904F58F
S31508013A10D47128460DF01BF92046FFF73FFE2046D4
S31508013A20FFF7ABFFE8E700BFC486002010B50446E0
S31508013A30FFF786FEF030FFF78EFDA4F8080104F1C2
S31508013A400C00BDE8104002F041BB0C3002F030BB5F
S31508013A5010B504460C3002F047FB0023A4F80831E0
S31508013A6084F8CC3010BD000010B50446174B03602E
S31508013A7000F5D4700BF0F4FF04F5C8700BF0F0FFF5
S31508013A8004F5BC700BF0ECFF04F1F8000BF0E8FF4D
S31508013A9004F1B4000BF0E4FF04F19C000BF0E0FF25
S31508013AA004F184000BF0DCFF04F154000BF0D8FF9D
S31508013AB004F13C000BF0D4FF04F10C0002F096FB74
S31508013AC0204602F0D7FA204610BD00BF989E02088C
S31508013AD010B50446FFF7C8FF20464FF4DC71FEF720
S31508013AE0FBF8204610BD70474368B3F900007047DC
S31508013AF0D1E90131C91AB2EBA10F3BBF03EB82032E
S31508013B005B880023438038BF0123037070478368AD
S31508013B104068181A8010704710B5D1E901431B1B7C
S31508013B20B2EBA30F37BF34F92230002343800123B8
S31508013B30037010BD0020704783684068181A80100A
S31508013B407047B0F9040070478088704780887047CD
S31508013B5081800120704710B504461021FEF7BCF894
S31508013B60204610BD10B50446214B036000F5E470EC
S31508013B700BF076FF04F5D8700BF072FF04F5CA70E6
S31508013B800BF06EFF04F5BA700BF06AFF04F5AE7020
S31508013B900BF066FF04F5A0700BF062FF04F5927056
S31508013BA00BF05EFF04F584700BF05AFF04F1EC008C
S31508013BB00BF056FF04F1D4000BF052FF04F1BC00E0
S31508013BC00BF04EFF04F1A4000BF04AFF04F17C0050
S31508013BD00BF046FF04F164000BF042FF04F13C00D0
S31508013BE00BF03EFF204602F045FA204610BD00BF05
S31508013BF0309F020810B50446FFF7B4FF20464FF47C
S31508013C00EC71FEF769F8204610BD10B50069144637
S31508013C1002F002FA60436424B0FBF4F080B210BDEE
S31508013C2010B551B1B0F878404C306143642491FB2A
S31508013C30F4F4FFF7D7FC201A10BD0846FCE710B5C7
S31508013C400446006902F0E8F901462046BDE810403D
S31508013C50FFF7E6BFF8B504465430FFF7C3FC05463F
S31508013C60B0FA80F094F89220400982426BD0002382
S31508013C7084F8920084F8913004F15C00FFF76FFC38
S31508013C8000286CD0B4F854312269B4F800111078C0
S31508013C906422012870D0022863D0A4F878505543CD
S31508013CA0B5FBF3F35343B3FBF1F3A4F8A030E06893
S31508013CB004F14C06D0F8103100F588701B68984756
S31508013CC001462046FFF7BBFFA4F8B8003046FFF7C8
S31508013CD089FCB4F8783023B164225043B0FBF3F37E
S31508013CE09BB204F11C07A4F8D0303846FFF77AFCDA
S31508013CF005463046FFF776FC281AA4F8E800384648
S31508013D00FFF770FC238F94F82A2083428CBF00208A
S31508013D100120824238D0002384F82A0084F8293009
S31508013D20B4F8A010B4F83831B4F870214B43BF2168
S31508013D30B3FBF1F39BB2A4F870319B1AA4F8842162
S31508013D40A4F88631F8BD94F8913094F89010994208
S31508013D5086BF013384F8913084F898208CE7642370
S31508013D6092E76943B1FBF2F14B43A4F8A050B3FBC8
S31508013D70F2F3A4F878309AE702FB05F0B0FBF1F10B
S31508013D806B43A4F8A010F2E794F8293094F82810A8
S31508013D90994286BF013384F8293084F83020BFE779
S31508013DA00023A0F87830A0F8A030A0F8B830A0F821
S31508013DB0E830A0F8D030A0F87031C0F884317047E7
S31508013DC0FFF7EEBF2DE9F84F044615460E4602F0F9
S31508013DD059F9824BC4E903652360284602F0F0F8D5
S31508013DE0A082284602F0FCF8E082284602F007F98C
S31508013DF07B4B002643F2322A63634FF4C873DFF81C
S31508013E004C82784FDFF848B2DFF848922083C4F82D
S31508013E101C802762238704F13402C4F824B0A4F86D
S31508013E2028A084F82A60C4F82C9084F830606E497A
S31508013E3004F13C000BF0ABFD6C4BC4E91387E36559
S31508013E406B4BC4E915876B4F236604F15C026A491B
S31508013E5004F164000BF082FD04F174026767A4F8AB
S31508013E607860664904F17C000BF091FD0123DFF8C7
S31508013E70E88184F8923084F8983004F19C02C4F8F9
S31508013E808CB0A4F890A0C4F89490C4F89C70A4F8D7
S31508013E90A0605B4904F1A4000BF079FDC4F8B48075
S31508013EA004F1B402A4F8B860564904F1BC000BF059
S31508013EB061FD04F1CC02C4F8CC70A4F8D060524973
S31508013EC004F1D4000BF063FDC4F8E48004F1E402C4
S31508013ED0A4F8E8604D4904F1EC000BF04BFD4C4B9E
S31508013EE0DFF87881C4F8003140F2DC5304F1FC02B2
S31508013EF0A4F80431C4F8FC80464904F584700BF033
S31508013F0046FD454B04F58C72C4F81C314CF250330E
S31508013F10C4F81881A4F82031404904F592700BF0D1
S31508013F2036FD3F4B04F59A72C4F8383140F2F64330
S31508013F30C4F83481A4F83C313A4904F5A0700BF071
S31508013F4026FD394B04F5A872C4F854314FF47A7337
S31508013F50C4F85081A4F85831344904F5AE700BF011
S31508013F6016FD04F5B672C4F86C71A4F8706130498F
S31508013F7004F5BA700BF00BFD2E49C4F88461D5E936
S31508013F80022304F5CA70C4F88811C4F88C21C4F850
S31508013F90903104F5C47228490BF02DFDD5E90223A9
S31508013FA02649C4F8A821C4F8A411C4F8AC3104F50B
S31508013FB0D272234904F5D8700BF02AFD214B10352E
S31508013FC0C4F8C031C4F8C45104F5E0721E4904F5B9
S31508013FD0E4700BF0CFFC2046BDE8F88F309F02084D
S31508013FE0C89E02082C40002000C90208CC9D020880
S31508013FF024400020D89E0208C8C3020840C9020806
S31508014000C0C70208D0C30208A8C5020898C9020891
S3150801401072010A0010C102087805C80038C00208F2
S31508014020E4027C0178C002086400320098C50208DF
S3150801403080C00208F89E0208A0C502080C9F020863
S3150801404020C60208209F020890C70208EC9D0208B4
S31508014050B89E0208349D0208E89E020838970208AD
S315080140600F2A97BF4B68002303EB8202B2F902308D
S315080140709CBF4380012303707047102070470F2AA5
S3150801408097BF4B68002333F92230438098BF012339
S3150801409003707047102070470F2910B50ED8436872
S315080140A0586CB0F90040944208DCB0F9020090421D
S315080140B004DB012003EB81035A8010BD0020FCE7D5
S315080140C0002370B500EB81058B42B2F9004006D09A
S315080140D0B5F900600133A642C8BF2C80F4E700EBAE
S315080140E0830120F823400F2B08D8B2F90000B1F953
S315080140F0004001338442B8BF0880F4E770BD0F2938
S3150801410013B502D9002002B010BD4068ADF80620EB
S31508014110036CB3F900409442F4DCB3F902309342DC
S31508014120F0DB0DF10602FFF7CBFF0120EBE773B5D4
S31508014130036C0192B3F9006012B2964204460D4629
S3150801414019DCB3F90230934215DB426CBDF906302E
S31508014150B2F900609E420EDCB2F902209A420ADBED
S3150801416001AAFFF7ADFF0120BDF8063004EB85046F
S31508014170638002B070BD0020FBE78368B3F90020B5
S315080141808A4206DCB3F902308B4202DB81800120C8
S31508014190704700207047002108B5816100F5CF609E
S315080141A0FFF7EBFF08BD00880B8898422CBF00205B
S315080141B00120704780887047B0F9040070470F2ABC
S315080141C097BF4B68002303EB8202B2F902309CBF0A
S315080141D04380012303707047102070470F2A97BF49
S315080141E04B68002333F82230438098BF01230370BC
S315080141F070470F2930B517D84368186C048894425C
S3150801420012D8408890424FF000000CD303EB81048A
S31508014210814205D025880130954288BF2280F7E77B
S31508014220012023F8212030BD0020FCE7102070472B
S315080142300F2910B50ED84368586CB0F9004094425E
S3150801424008DCB0F90200904204DB012003EB81038C
S315080142505A8010BD0020FCE783681A888A4205D86F
S315080142605B888B4202D3818001207047002070470A
S3150801427070B50446204B04F54475036000F284606A
S315080142800BF0EEFB04F25C600BF0EAFB04F24C6007
S315080142900BF0E6FB04F5C3600BF0E2FB04F5C16025
S315080142A00BF0DEFBD4F8E06516F1FF3609D305F10C
S315080142B068000BF0D5FB05F158000BF0D1FB7835FA
S315080142C0F2E7D4F8046304F1340516F1FF3609D38D
S315080142D005F168000BF0C4FB05F158000BF0C0FBB3
S315080142E07835F2E704F11C000BF0BAFB204601F021
S315080142F0C1FE204670BD00BFC89F020810B504461E
S31508014300FFF7B6FF204640F29461FDF7E5FC20462B
S3150801431010BD013189B2032910B5044617D8012306
S3150801432003FA01F111F00D0F11D0D0F82806036830
S315080143301B689847D4F82C26D4F83036BDE81040C7
S31508014340002808BF13461A68184612681047002045
S3150801435010BD10B50446006803681B689847D4E980
S315080143600132002814BF1046184610BD642A28BF1A
S3150801437064222DE9F04FB0F9003085B0994217460D
S3150801438022DBB0F90240A142A8BF214678240830B1
S31508014390C91A04FB0104102625460DF1100904F17A
S315080143A0400A29F8027D002E12DD4FEA660805EB60
S315080143B0880B59464846FFF7F6FE38B9A6EB0806B4
S315080143C00BF10405013EEEE71946DFE74646EAE743
S315080143D0AA4505D13AF9023C184605B0BDE8F08F61
S315080143E0AC42B5F90230F7D02A8835F9021C35F8FE
S315080143F0040C009702F050F803B2EDE72DE9F041FD
S315080144000446C06804F2E457D0F8103100F5887004
S315080144101B6898470128B8BF012006B23846FFF73E
S3150801442098FF31460022FFF7A1FF05463846FFF7F8
S3150801443090FF0746E068D0F8403100F5A0701B6888
S315080144409847314602463846FFF790FF86B2D4F8B8
S315080144506C06751B03682DB21B689847D4F8742639
S31508014460D4F87036002818BF13461A681846126819
S31508014470904745436420E36895FBF0F5D3F8F400CB
S3150801448035440368ADB21B68984701462046FFF7D5
S3150801449040FF10B3A269C72A9CBF0132A261A36972
S315080144A04343C820B3FBF0F31D442DB247F6FF730F
S315080144B0E268606992F8CC1092F88C21002918BF3D
S315080144C01D4603685B685AB929469847294604F583
S315080144D0CF60FFF752FEBDE8F0812DB2A061E5E796
S315080144E0B4F97C16BDE8F041184700002DE9F74FED
S315080144F005461F462B80031D00930023934664221D
S315080145008A46BDF930808380C0F8D83200F10803A5
S31508014510A0F80280C280019347453EDCB5F9003018
S315080145209F4236DBB5F90260BE42A8BF3E46D5F8C2
S31508014530D842F61AF600052C0AEB06095E442AD873
S315080145407823019A002103FB04244022204614F013
S3150801455076FF009B04F1480223640D9B4946636478
S31508014560104B04F15800C4E912340F4B0137C4E962
S3150801457014340BF04DFA04F15002314604F1680087
S315080145800BF039FAD5F8D8323FB20133C5F8D8322B
S31508014590C2E71E46CBE7FDF776FB284603B0BDE822
S315080145A0F08F00BF789F02088C9F02082DE9F0431F
S315080145B004460E469846002785B0039201F062FD2F
S315080145C04E4BBDF80C202360BDF90E30E660228201
S315080145D063824246C4F814804949A76104F11C0064
S315080145E00BF0C8F9D6F8C43004F11005186901F0C2
S315080145F0D9FC04F12C09CDE90005424A42490123B7
S315080146004846FFF773FFD6F8C43004F542781869AF
S3150801461001F0C8FC0123CDE900053C4A3C49404666
S31508014620FFF764FFE368672203F5B873C4F8E43556
S315080146304423384EA4F8F435374BC4F8E89504F505
S31508014640BE69C4F8F835C4F80436C4F8EC85A4F88C
S31508014650002604F2FC584A46C4F8F065C4F8FC651D
S315080146602E4904F5C1600BF085F942462C4904F53B
S31508014670C3600BF07FF9E3682A4A03F5B873C4F8F7
S3150801468028360823C4F83426C4F840260C22A4F890
S315080146903836254BC4F82C9604F23469C4F83C36EE
S315080146A0C4F84836C4F83086A4F8442604F5C86820
S315080146B04A461E4904F24C600BF069F942461C4908
S315080146C004F25C600BF063F9E368C4F8709603F5CD
S315080146D0B873C4F86C36C4F87486C4F87866A4F856
S315080146E07C76C4F8805604F5CF62124904F28460D8
S315080146F00BF040F9204605B0BDE8F083C89F0208D3
S3150801470038C9020810C30208E0C2020870C30208C9
S3150801471040C30208A09F0208B89F0208F8C302080E
S3150801472000C40208B09F0208BC9F020818C102080B
S3150801473020C10208F0C50208F8B50446FEF79EFC3A
S31508014740D0B143686668DA439342B8BF1346092B6A
S3150801475012D1856800242B6828469B689847074626
S31508014760A74209D032682B6832F8142021465B68C3
S31508014770284698470134F3E7F8BD2DE9F04F0B6851
S3150801478089B083469B680846884698470026039061
S31508014790039B9E4241D0D8F80020DBF800305268CE
S315080147A01B680292DBF8042033F81630D2E9009A26
S315080147B04C46AAEB0905ADF81E30AD10002D12DDE9
S315080147C06F1004EB870211460DF11E000593049242
S315080147D0FFF7E9FC059B20B9049AED1B141D013D61
S315080147E0ECE73D46EAE7A24507D13AF9022C3146FC
S315080147F04046029B98470136CAE7A145B4F902200B
S31508014800F5D0258834F9021C34F8040C00931346B4
S315080148102A4601F041FE02B2E9E709B0BDE8F08F88
S3150801482013B50446FEF72AFC70B1D4E90123CDE994
S3150801483000234368DA439342B8BF13460C2B03D1CE
S3150801484081686846FFF799FF02B010BDCB6E10B5B7
S3150801485019780446006801F001FC80B1201DFFF7B4
S315080148606BFF04F10C00FFF7DBFF04F11800FFF7FB
S3150801487063FF04F12000BDE81040FFF7D1BF10BD6A
S315080148800278C020034B1B6803F6081300FB0230AD
S31508014890704700BF1C840020F8B5C024054600787F
S315080148A01B4B44431E6804F1180006F608172644F4
S315080148B0D6F8203969785B6838449847D6F8283994
S315080148C004F12000E9685B6838449847D6F830391E
S315080148D004F12800B5F910105B6838449847D6F8F2
S315080148E0383904F13000A9685B6838449847D6F826
S315080148F0443904F13C0069695B6838449847054BBB
S31508014900AA6929781868BDE8F84002F0F3BA00BF29
S315080149101C84002014840020014B0360704700BFEB
S31508014920E89F02087047000010B504460A4A0B4B77
S315080149300260C0E90132C0E90332C0E90532C36148
S31508014940074B00F120020362064B074943622830F0
S315080149500BF010F8204610BDCC9D0208244000201B
S31508014960DC9D02080440002000C6020810B5044672
S31508014970FEF784FB60B14368DA439342B8BF134636
S3150801498033B9806821790368BDE810405B68184728
S3150801499010BD2DE9F04F0B6889B083469B68084620
S315080149A08846984700260390039B9E4240D0D8F834
S315080149B00020DBF8003052681B680292DBF80420FD
S315080149C033F81630D2E9009A4C46AAEB0905ADF838
S315080149D01E30AD10002D12DD6F1004EB8702114653
S315080149E00DF11E0005930492FEF752FB059B20B9B3
S315080149F0049AED1B141D013DECE73D46EAE7A24585
S31508014A0007D13AF8022C31464046029B98470136AF
S31508014A10CAE7A1456288F6D0258834F8021C34F81D
S31508014A20040C009313462A4601F036FD82B2EAE7E2
S31508014A3009B0BDE8F08F2DE9F3410546FEF71EFBE7
S31508014A40D0B143686F68DA439342B8BF1346092B5E
S31508014A5012D186680024336830469B689847804699
S31508014A60A04509D03A68336832F8142021465B68B4
S31508014A70304698470134F3E705F10800FEF7FEFAD8
S31508014A8070B1D5E90323CDE900234368DA4393429C
S31508014A90B8BF1346092B03D181686846FFF779FF2A
S31508014AA002B0BDE8F081CB6E10B5197804460068EE
S31508014AB001F0D4FAC0B1201DFFF758FF04F10C002C
S31508014AC0FFF754FF04F11400FFF7B5FF04F12800BE
S31508014AD0FFF7B1FF04F13C00FFF7ADFF04F1500009
S31508014AE0BDE81040FFF7A7BF10BD00002DE9F74F3D
S31508014AF04FF0400904468B469246DFF888801E4FE0
S31508014B001E4E1F4D4A460021019314F098FC04F1EC
S31508014B1048025946C4F840806764C4E91264C4E986
S31508014B20145404F158000AF073FF04F15002514677
S31508014B3004F1680004F1780A0AF06AFF4A4600217E
S31508014B40504614F07CFC019B04F1C0021946C4E9E5
S31508014B502E87C4E9306AC4E9325A04F1D0000AF052
S31508014B6057FF04F1C8020C9904F1E0000AF050FF5E
S31508014B70204603B0BDE8F08FFC9F0208449D020859
S31508014B80589D0208F89F02080139D0F8000503D498
S31508014B908842A8BF0846704700207047808B484363
S31508014BA06421B0FBF1F080B270470000294B2DE972
S31508014BB0F743036001230D4604460371896991464B
S31508014BC0024608300AF0CAFEAB8A234EA383234B5A
S31508014BD0A661236204F11802296904F124000AF086
S31508014BE0D6FE2B8C666300264FF0F00823871C4BF4
S31508014BF004F13402E363E96904F140000AF0C7FEEF
S31508014C0004F15007C4F8006533B299451EDDAB6857
S31508014C10F000D4F800C503EB000E29686A68EB6852
S31508014C20BCF1040F0144024406F1010618440BD8ED
S31508014C300090734608FB0C70FFF758FFD4F800354F
S31508014C400133C4F80035DFE7FDF71DF8204603B048
S31508014C50BDE8F08348960208B09F020800A0020842
S31508014C6004A0020807B50346FFF78EFF03F15001BA
S31508014C70F02303FB001000F17803B83001901146C8
S31508014C8068460093FEF701FB03B05DF804FB07B520
S31508014C900346FFF779FF03F15001F02303FB0010E8
S31508014CA000904030019011466846FEF7EEFA03B0CF
S31508014CB05DF804FB10B50139044609B2FFF7E7FFB1
S31508014CC06422238F4343B3FBF2F3184480B210BD29
S31508014CD0F8B505460E461746FFF7D9FFAC8B3A4697
S31508014CE044436420B4FBF0F431462846FFF7BAFF83
S31508014CF02B79A4B21BB9844228BF0446A4B2642303
S31508014D00288F6043B0FBF3F0204480B2F8BDB0F9B8
S31508014D100000B1F900309842ACBF0020012070476D
S31508014D204368B3F96800704710B50446024B03603F
S31508014D3001F0A0F9204610BD20A0020810B50446CE
S31508014D40FFF7F2FF20467821FCF7C6FF204610BD83
S31508014D502DE9FF47D0E9006735460DF11009BC1B5F
S31508014D6029F8021DA410002C10DD4FEA640805EB92
S31508014D70880A51464846FFF7CAFF28B9A4EB080432
S31508014D800AF10405013CEEE74446ECE7AF4205D1DA
S31508014D9037F9023C184604B0BDE8F087AE42B5F9CA
S31508014DA00230F7D0BDF90E40B5F9002035F9021CDD
S31508014DB035F9040C009401F06FFB03B2EAE713B569
S31508014DC0044600F11003B0F96810009300F150038E
S31508014DD068460193FFF7BCFF636F01461A681846D8
S31508014DE05268904702B010BD38B5B0F91030054683
S31508014DF099420C4604DBB0F94C308B42A8BF0B46EE
S31508014E00A5F868302846FFF7DAFFB5F96830A342F6
S31508014E1005D047F6FF70231A5842584138BD01207C
S31508014E20FCE708B54068FFF7DFFF08BD10B5044683
S31508014E30C0680430FFF724FD436C01215B684430E8
S31508014E4098472046FFF7BBFF10BD08B5FFF7B7FF28
S31508014E5008BD08B5FFF7B3FF08BD00002DE9F34704
S31508014E6004460F4601F00EF9D7E909963A4B04F1C3
S31508014E7010082360E76040220021404614F0DFFA5B
S31508014E8007F120032365BB1D6365344BA6EB0906B1
S31508014E90C4E91638B510324B102DC4E9183829D98A
S31508014EA04FF0100A002609EB860339F82620B3F9D4
S31508014EB00230ADF80420ADF806303146019A404675
S31508014EC00136FFF734F95645EDD105F18045013D27
S31508014ED009EB8505102E10D02A88B5F90230ADF8F0
S31508014EE00020ADF802303146009A4046FFF71FF917
S31508014EF00136EFE70DB1AA46D4E7238A3E1DA4F889
S31508014F006830184B3046C4E91B34FFF7B9FC97F8EB
S31508014F102C304C306067BBB13968134D102005EB56
S31508014F20C105FCF7C9FE04F1580229460AF063FDDA
S31508014F300E4D3968102005EBC105FCF7BDFE04F1DD
S31508014F40600229460AF057FD3046FFF7A5FC2046C0
S31508014F5002B0BDE8F08700BF20A00208509F0208F2
S31508014F60649F020810A00208F0C6020870C602086B
S31508014F702C307047443070471430704700F6EC20E7
S31508014F807047431C0A2B0CD8DFE803F00D06080806
S31508014F9008080808080808004E2070473030C0B2D3
S31508014FA070473F207047522070470369D3F8C430D1
S31508014FB01B69B3F90430A0F8F03A7047A0F1040070
S31508014FC0FFF7F3BF70477047B0F906308B4206DC2E
S31508014FD0B0F908308B4202DB81800120704700203E
S31508014FE07047B0F9040070470079704710B5D1E9E8
S31508014FF001431B1B9A4237BFA35C0023437001235D
S31508015000037010BD0020704782684068101A704707
S3150801501010B504461021FCF75FFE204610BD704707
S31508015020D0F8C430186900F0BDBFD0F80C01036888
S31508015030DB68184708B50069FFF7F2FF08BD70B5C8
S315080150400446D0F8006500F1500516F1FF3611D374
S3150801505005F1E0000AF004FD05F1D0000AF000FDB3
S3150801506005F168000AF0FCFC05F158000AF0F8FCA5
S31508015070F035EAE704F140000AF0F2FC04F12400F5
S315080150800AF0EEFC04F108000AF0EAFC204670BDBD
S3150801509010B50446204B03F1080238330260436019
S315080150A000F664300AF0DCFC04F648300AF0D8FC55
S315080150B004F624300AF0D4FC04F614300AF0D0FCC5
S315080150C004F6F4200AF0CCFC04F6C4200AF0C8FC65
S315080150D004F698200AF0C4FC04F67C200AF0C0FC09
S315080150E004F5AC60FFF7ABFF04F15C00FFF7A7FF1F
S315080150F004F14C000AF0B4FC04F134000AF0B0FCE7
S3150801510004F11C000AF0ACFC201D00F0B3FF204698
S31508015110FFF708FC204610BDC8A00208A0F104004C
S31508015120FFF7B6BF10B50446FFF7B2FF204640F6B3
S315080151307431FCF7D1FD204610BDA0F10400FFF73C
S31508015140F1BF00002DE9F74F044600250E46FFF78B
S31508015150E3FB201D00F096FF724B734F03F1080223
S31508015160383363602260676104F11402266125837E
S315080151706E4904F11C000AF0FDFBE76204F12C02FA
S3150801518025866B4904F134000AF0F4FB04F1440264
S3150801519067646849A4F8485004F14C000AF0EAFB30
S315080151A03046FFF73DFF04F15C09421E12B262491F
S315080151B04846FFF7FBFC3046FFF732FF41F27C5BBE
S315080151C004F5AC68421E12B25C494046FFF7EEFC94
S315080151D05B4BC4F86C8ADFF8A48106F5B87AC4F883
S315080151E0689A04F52769C4F8703AC4F8788A4A4671
S315080151F0C4F864AAA4F874BA524904F67C20019347
S315080152000AF0C5FB019BC4F8948A04F68C28C4F8F5
S315080152108C3A4246A4F890BA4B4904F698200AF00B
S31508015220B6FB4A4B04F6B822C4F8B43A484BC4F85C
S31508015230B08AC4F8B83A04F6B623C4F8BC3AC4F836
S31508015240C02AC4F8A8AAC4F8AC9A424904F6C420EC
S315080152500AF0F8FB404BC4F8E07AC4F8D83A40F2B1
S315080152600553C4F8EC7AC4F8DC3A04F6EC22C4F81F
S31508015270D45AA4F8E45A84F8E85AA4F8F05A3749F3
S3150801528004F6F4200AF076FB354B04F60438C4F824
S31508015290043BC4F80C3B04F60C37424684F8085B19
S315080152A084F8105B2F4904F614300AF057FB3A4686
S315080152B02D4904F624300AF051FB236904F53462BA
S315080152C003F5B873C4F8343B284B2949C4F83C7B29
S315080152D0C4F8403BC4F8388B84F8445B04F648307C
S315080152E00AF06FFBD6F8C430186900F053FE07467A
S315080152F03046FFF795FE1F4BA4F8600BC4F8583BE0
S31508015300A4F85C5BA4F85E7B04F658321A4904F6E5
S3150801531064300AF02FFB2046C6F80C4103B0BDE8FD
S31508015320F08F00BFC8A00208E89E0208C8C7020895
S3150801533068C6020848C802087CA00208A0A002089C
S31508015340B09F020858C6020860C60208000020205D
S3150801535040A0020808C6020854A0020810C40208A0
S3150801536048960208B0C30208B8C3020864A0020836
S31508015370A0C3020874A0020840C60208C4A0020815
S3150801538010B504460069F030FEF7E5F8FB2804D0AD
S31508015390FF2806D0A4F8B40A02E00023A4F8B43A18
S315080153A010BD2369D3F8C4301B69B3F90430F5E796
S315080153B038B590F8443B0446042B0DD8DFE803F0D2
S315080153C00D170D0D0300462380F8B63AB0F9F00A19
S315080153D0FFF7D7FD84F8B70A38BDB0F9F00AFFF729
S315080153E0D0FD202384F8B60A84F8B73AF4E70069B1
S315080153F0F030FEF7B0F8431E9BB2052B0546EED8F2
S315080154004423206984F8B63AFFF70AFE854201D09B
S315080154102846DDE72020DDE7002110B5044690F88F
S31508015420DC3AA0F8481001860183A0F8F01A80F842
S31508015430E81AC0F8D41AA0F8B41AA0F8DE1AA0F827
S31508015440E41A80F8DD3A00F65830FFF7BDFD20462C
S31508015450BDE81040FFF7ACBFA0F10400FFF7DCBFC1
S3150801546038B504460069D030FEF779F80546206953
S31508015470D830FEF774F81DB180F00100C0B238BD0E
S315080154804042FCE738B5B0F8B43A0446013B052B6F
S315080154900D4621D80069FEF7B7F8E8B92069E0306A
S315080154A0FEF75DF8C0B10123204684F8E83AB4F85E
S315080154B0D45AFFF7D5FF284400B20128B8BF012006
S315080154C0B4F91830834210DCB4F9B43A9842A8BF4B
S315080154D01846C4F8D40A07E00023284684F8E83AAF
S315080154E0B4F9F03AC4F8D43A38BDB4F9F00AEBE79E
S315080154F0B0F9B41AB0F930309942A8BF1946FFF786
