S02B0000453A5C7265706F735C63735C72656C656173655C6373335C6373335C6170705C6373332D70726F2EE9
S3150801000000400020290201082D02010833020108D7
S315080100104D020108530201086D02010800000000A3
S31508010020FFFFFFFF00000000000000008702010833
S315080100308D020108000000009302010899020108D7
S3150801004095800208A5800208B5800208C5800208C5
S31508010050D5800208E5800208F580020805810208B4
S3150801006015810208258102083581020845810208A1
S315080100705581020865810208758102088581020891
S3150801008095810208A5810208B5810208C581020881
S31508010090D5810208E5810208F58102080582020870
S315080100A0158202082582020835820208458202085D
S315080100B0558202086582020875820208858202084D
S315080100C095820208A5820208B5820208C58202083D
S315080100D0D5820208E5820208F5820208058302082C
S315080100E01583020825830208358302084583020819
S315080100F05583020865830208758302088583020809
S3150801010095830208A5830208B5830208C5830208F8
S31508010110D5830208E5830208F583020805840208E7
S3150801012015840208258402083584020845840208D4
S3150801013055840208AD020108AD020108658402086A
S31508010140758402088584020895840208A584020834
S31508010150B5840208C5840208D5840208E584020824
S31508010160F584020805850208158502082585020811
S315080101703585020845850208AD020108AD02010868
S309080101805585020888
S31508010184633965393662640008B500F0D1F81D4A49
S315080101941D48824217D300201C4A1D498A421DD391
S315080101A401F094FD00261B4D1B4C641BA410B4429C
S315080101B41DDC0026194D1A4C641BA410B4421BDC21
S315080101C42DF0B6FDFEE7D2E9001394680C32C91A7C
S315080101D49C42DED95D5843F8045BF9E752F8083BBB
S315080101E452F8044C9C42D9D943F8040BFAE755F85A
S315080101F4043B98470136DAE755F8043B9847013634
S31508010204DCE700BF8404010890040108900401088E
S315080102149804010898040108980401089804010837
S31508010224A40401081C48004708B512F045FA1EF053
S31508010234040F0CBFEFF30880EFF309807146174AE0
S31508010244104708B512F038FA08B512F035FA1EF057
S31508010254040F0CBFEFF30880EFF309807146104AC7
S31508010264104708B512F028FA1EF0040F0CBFEFF375
S315080102740880EFF3098071460A4A104708B512F057
S315080102841BFA08B512F018FA08B512F015FA08B5EA
S3150801029412F012FA704700008D010108470201089D
S315080102A4670201088102010808B512F005FA00007F
S315080102B41B4B1A6822F450221A601A6842F48032D7
S315080102C41A601A689103FCD50121164A520102F1F2
S315080102D4844211604FF4144200219A604FF0E022DF
S315080102E411616FF07F415161116941F00101116199
S315080102F40D4A5A601A6842F080721A601A689201A5
S31508010304FCD540F20361094A11609A6842F0020277
S315080103149A609A6802F00C02082AFAD1704700BF5B
S3150801032400380240743802000C3C4005003C024087
S3150801033470B500244948036843F0010303608460E7
S31508010344036823F0847323F480330360444B4360C6
S31508010354036823F480230360C460FFF7A9FF414BB4
S31508010364414A9A6062B6414ADA60036943F0200356
S315080103740361036923F020030361036B43F020033C
S315080103840363BFF34F8F3A4A136843F0A0431360DC
S315080103944FF4004393614FF480439361436A43F4F2
S315080103A480734362436A23F480734362436C43F460
S315080103B480734364036943F001030361036923F00A
S315080103C401030361036B43F001030363BFF34F8F17
S315080103D4284B294D996841F00101996027494C60D8
S315080103E429682E68314341F4404129604FF48071EC
S315080103F459604FF400111961072159634FF00041FF
S315080104049161996841F08041996019688907FCD519
S31508010414D96CB1F5946FF4D30134642CF1D14FF44A
S31508010424004393614FF080439361436A43F48073B5
S315080104344362436A23F480734362436C23F48073EF
S315080104444364036943F021030361036923F0210328
S315080104540361036B23F02103036370BD0038024073
S315080104641030002400ED00E0000001080003FA053D
S31508010474001402400020014000000240002301400C
S315080104844CBD05080040002080430020804300201D
S315080104945CA00020591D0108D902020805030208B7
S315080104A870B5044600261D461046C4E90012267290
S315080104B813F0D2FB6068012113F092FC20684FF40F
S315080104C8E13114F0E9FA3146206814F007FB2946A8
S315080104D8206814F01BFB2068294614F00FFB2046F8
S315080104E870BDF0B51E4685B00446006801AD85E8BD
S315080104F80C00D0E90532D21A036AC7690391DB1BD6
S3150801050848BF9B18511ECB1A321D9A4203D901239B
S31508010518237205B0F0BD9DF80C1014F015FA206881
S31508010528F1B214F011FA9DF80E10206814F00CFABD
S315080105389DF80F10206814F007FA95E80600206858
S3150801054805B0BDE8F04014F080BA2DE9F0430D4630
S3150801055887B0694604462868904681E80C0014F075
S3150801056869FA0328814605D800232046237107B06E
S31508010578BDE8F083042603AB0493059604AF2868FF
S3150801058897E8060014F032FA9DF80D3033444B45C6
S31508010598EAD8286814F0F7F9013EFAD19DF80D60F2
S315080105A8019B28689E4228BF1E46CDE9048697E81E
S315080105B8060014F0FAF99DF80D30B34203D80398EA
S315080105C801232060D1E7286814F0DDF90136F2E73E
S315080105D8006814F029BA000000487047BD110108DF
S315080105E8002070470079704701710120704700792A
S315080105F8704701710120704713B5094B09490093E2
S315080106080223019302AB044613E90C0009680C306E
S31508010618FFF767FF0A230448C4E9133302B010BD7C
S3150801062843F9030845F90308650D010813B5094B8C
S31508010638094900930223019302AB044613E90C0006
S3150801064809680C30FFF74DFF0A230448C4E9133338
S3150801065802B010BD3DF903083FF903089D0D0108CD
S315080106681FB590F824300222B3FA83F35B09934045
S315080106788DF8043001ABCDE90232084904AB0446CA
S315080106888DF80520096813E90C000C30FFF729FFD6
S315080106980A230348C4E9133304B010BD24F903082F
S315080106A80D0F01081FB590F824300C49B3FA83F3E6
S315080106B85B098DF8043001AB02930123039304AB5C
S315080106C8044613E90C0009680C30FFF70AFF0A23E8
S315080106D80348C4E9133304B010BD00BF39F9030848
S315080106E8D50D010813B5094B09490093052301934B
S315080106F802AB044613E90C0009680C30FFF7F1FE52
S315080107080A230448C4E9133302B010BD30F90308B3
S3150801071835F90308190E010808B5406800F0F6F816
S3150801072808BD002113F05CBB08B5406800F0F1F874
S3150801073808BD03461046CA1A02D019462EF0DEBB72
S315080107487047000030B58FB0054601A817F008FFB5
S31508010758029C1D221D2C4FF0000106A828BF1D2446
S315080107682EF0E6FB01238DF81430092301988DF83C
S315080107781730A31C01198DF8153006AA631C8DF8C4
S315080107881630FFF7D6FF05AB084903930434234609
S3150801079805F10C00039A09680494FFF7A2FE0A23D7
S315080107A80348C5E913330FB030BD00BF28F903085C
S315080107B8D50E0108F0B58FB0054601A817F0D0FE89
S315080107C8029F05AE082F4FF021024FF0000130466F
S315080107D83C4628BF08242EF0ABFB4FF48173ADF8CD
S315080107E81630224B092F069303F1F55303F5DE1349
S315080107F803F6C453079303F10B5303F53B2303F598
S31508010808FF73089303F15543A3F55513A3F67E130E
S3150801081809934FF67A43ADF828304FF0E7038DF878
S315080108282A3004F117038DF8153004F101038DF800
S315080108382B3034BF0923082301980DF12D0201191C
S315080108488DF82C30FFF775FF09491934234605F148
S315080108580C003246096803960494FFF742FE0A23F8
S315080108680448C5E913330FB0F0BD00BF0611076C7C
S3150801087828F903089D0E010838B5084B0446036094
S31508010888406D20B9204600F08EFF204638BD056820
S315080108980C2101F055FA2846F3E700BFE8F80308E2
S315080108A810B50446FFF7E8FF20466C2101F048FA1F
S315080108B8204610BD042208B52EF010FB003818BFD3
S315080108C8012008BD02780B789A420DD142784B78F7
S315080108D89A4209D382788B789A4205D1C078CB781F
S315080108E8C31A584258417047002070470F22064BD1
S315080108F8013A02D14FF6FF7070471968884201D14B
S31508010908988870470833F3E75CF903088069FFF7A5
S31508010918EDBFC069FFF7EABF38B504460C200D4696
S3150801092801F002FA0346021D95E8030082E803006E
S31508010938626D63651A6038BD2DE9F0418CB06B4666
S3150801094883E8060090F8463005468BB3142A88BF13
S3150801095818274FF000030E4698BF171D0DF1140806
S3150801096814464FF000013A46404688BF14240B93B3
S315080109782EF0DEFA95F845308DF817408DF81430C3
S31508010988B5F84A300B978DF815301B0A8DF81630CD
S315080109983346344406AA9C420DD109490B9B424663
S315080109A8096805F10C00CDF80C800493FFF799FD49
S315080109B80CB0BDE8F08113F8011B02F8011BEAE740
S315080109C856F9030810B5044621B18369C3610123A1
S315080109D880F830302069FFF7A4FE4FF49673024871
S315080109E8C4E9133310BD00BF090B010810B5044645
S315080109F84C3001F064F904F1580001F060F904F18A
S31508010A08600001F05CF9A36920469847237DA06137
S31508010A1833B10023012120462375FFF7D3FFA061CF
S31508010A2810BD000070B590F844300446022B94B006
S31508010A3805D0012114B0BDE87040FFF7C3BF01A86E
S31508010A4817F08EFDDDE90165372D28BF37253A22CE
S31508010A5800210DF116002EF06BFAB4F84830711919
S31508010A6830460DF11902ADF814308DF81850FFF714
S31508010A7860FE05AB0849039305352B4604F10C00BE
S31508010A88039A09680495FFF72CFD0A230348C4E964
S31508010A98133314B070BD00BF2CF90308510E0108B1
S31508010AA813B5094B094900930123019302AB04467F
S31508010AB813E90C0009680C30FFF713FD6423044891
S31508010AC8C4E9133302B010BD51F9030852F90308F2
S31508010AD8810B010810B504460121006913F080F954
S31508010AE8E36C43B904F10C00FFF772FD2046BDE833
S31508010AF81040FFF7D5BF014810BD00BF090B010813
S31508010B08FFF7E8BF2DE9FF41002504462F46DFF820
S31508010B185C80CDE9027702AE96E80C00684604F1D6
S31508010B280C01FFF712FD9DF804304BB1009B4146B5
S31508010B3830460293FFF7C6FE002818BF0546E8E7C0
S31508010B4845B194F846200AB184F84630084804B0F5
S31508010B58BDE8F081E36C33B90121204604B0BDE84C
S31508010B68F041FFF72FBF0348F1E700BF4DF9030826
S31508010B78D50B0108810B0108FFF7C4BF002313B57C
S31508010B88CDE90033074902AB044613E90C000968A5
S31508010B980C30FFF7A6FC0A230348C4E9133302B04D
S31508010BA810BD00BF49F903082D0D010890F8242046
S31508010BB8012A06D890F82C300BB1FFF7DFBFFFF7EB
S31508010BC81BBD0148704700BFD50B0108FFF7EEBFEB
S31508010BD810B5044686B0583001F05CF804F1600097
S31508010BE801F058F80023CDF80E3084F83030CDF8E6
S31508010BF8113006238DF80D300C238DF80F30C823D4
S31508010C088DF8133094F8453007498DF80C3003AB45
S31508010C180193092304F10C00019A09680293FFF765
S31508010C2860FC024806B010BD18F903082514010826
S31508010C382DE9F04F97B00F46DDE920966946044637
S31508010C48904681E80C000DF1180A06F1020B5B467D
S31508010C58524604F10C0102A8CDE904ABFFF775FC6D
S31508010C689DF80C309DF8095053B9E36C33B9012145
S31508010C782046FFF7A7FE17B0BDE8F08FA069FAE787
S31508010C889DF80830202BE2D1012DE0D99DF80A20DC
S31508010C98BB789A42DBD19DF80B20FB789A42D6D1CC
S31508010CA89DF818309DF819201343E0D1023D46B145
S31508010CB8AE422A4612D325B148460DF11A012EF03D
S31508010CC845F9019B84F844505A1004EB6300DB0785
S31508010CD844BFA35853F80880C047CCE73246EBE728
S31508010CE830B5002504462946284687B08DE803000D
S31508010CF8094B0595049306AB13E90C002046CDE983
S31508010D0802550649FFF794FF054B984208BF84F830
S31508010D182C5007B030BD00BF0106010849F9030880
S31508010D28650D0108FFF7DCBF10B50A4B86B00493B9
S31508010D3800230446194618468DE803000593CDE9AC
S31508010D48023306AB204613E90C000349FFF770FF87
S31508010D5806B010BD3506010845F90308FFF7E4BFD3
S31508010D6810B50A4B86B0049300230446194618465B
S31508010D788DE803000593CDE9023306AB204613E94E
S31508010D880C000349FFF754FF06B010BDAD0601086C
S31508010D983FF90308FFF7E4BF10B50A4B86B0049379
S31508010DA800230446194618468DE803000593CDE93C
S31508010DB8023306AB204613E90C000349FFF738FF4F
S31508010DC806B010BDED06010839F90308FFF7E4BFB7
S31508010DD810B500F1480200F14A0386B09B1A03933D
S31508010DE80446094B104604930023039905938DE895
S31508010DF8030006AB0292204613E90C000349FFF7E4
S31508010E0817FF06B010BD00BF2D0A010835F90308FA
S31508010E18FFF7DEBF10B50A4B86B0049300230446D4
S31508010E28194618468DE803000593CDE9023306AB42
S31508010E38204613E90C000349FFF7FAFE06B010BD70
S31508010E48BD0701082CF90308FFF7E4BF30B587B0D9
S31508010E5804AD0446284617F083FB05990A4A0B4B45
S31508010E68082988BF134604930023194618468DE8AE
S31508010E7803000593CDE9023395E80C002046044999
S31508010E88FFF7D6FE07B030BD4D0701086906010808
S31508010E9828F90308FFF7DABF10B50A4B86B0049399
S31508010EA800230446194618468DE803000593CDE93B
S31508010EB8023306AB204613E90C000349FFF7B8FECF
S31508010EC806B010BD6906010828F90308FFF7E4BF4B
S31508010ED810B50A4B86B004930023044619461846EA
S31508010EE88DE803000593CDE9023306AB204613E9DD
S31508010EF80C000349FFF79CFE06B010BDE105010881
S31508010F0824F90308FFF7E4BFF0B587B00446084695
S31508010F18694681E80C001449FFF7D4FC9DF830604E
S31508010F2805469DF8347068B1009A137A8DF80F3022
S31508010F381FB956B1527BFF2A07D084F845300123D9
S31508010F4884F84630284607B0F0BD0DF10F0304931F
S31508010F5801230649059306AB096804F10C0013E950
S31508010F680C00FFF7BEFAEDE710F9030814F90308B0
S31508010F7813B50446084602A901E90C000849FFF712
S31508010F8899FC58B994F8460030B1009B94F8452065
S31508010F989B789B1A5842584102B010BD0020FBE7BE
S31508010FA80CF90308F0B504463C2695B005AFCDE91A
S31508010FB8037603AD95E80C0004F10C0101A8FFF7C7
S31508010FC8C4FA9DF808305BB9E36CA3B92069FFF741
S31508010FD8A8FB4FF49673C4E91333084815B0F0BD56
S31508010FE8CDE90376204695E80C0001A9FFF7C0FF6D
S31508010FF80028DCD0EAE70248F0E700BF090B010838
S315080110080D100108FFF7CEBF13B500F1450300938C
S31508011018012304460849019302AB13E90C00096840
S315080110280C30FFF75EFA32232046C4E9133302B0BF
S31508011038BDE81040FFF7B6BF14F9030837B50446EB
S31508011048084602A901E90C000B499DF81850FFF753
S3150801105831FC78B9009A137945B1DB0704D52846D6
S31508011068B2F80130A4F84A3003B030BDDB4303F0C7
S315080110780100F9E70020F7E708F9030813B504465C
S31508011088084602A901E90C00042207492DF026FFA2
S3150801109838B9009B1B880BB1A4F86830012002B047
S315080110A810BD0020FBE700BF04F90308F0B587B0B7
S315080110B804460846694681E80C001549FFF702FC0B
S315080110C89DF830700546D0B1009B12491E7804F187
S315080110D80C0003AA04ABAFB194F8467097B194F81B
S315080110E84540B4420ED101268DF80C408DF80D60A5
S315080110F804920222059209680CCBFFF7F2F92846F1
S3150801110807B0F0BD00248DF80C608DF80D40EFE7A7
S3150801111800F90308FCF80308F0B590F82C300446E2
S3150801112897B053BB90F82430023B012B25D93C26AE
S3150801113807AFCDE9057605AD95E80C0004F10C0174
S3150801114803A8FFF702FA9DF8103053B394F8243030
S31508011158CDE90576B3FA83F35B0901930123009375
S31508011168204695E80C0003A9FFF7CEFE78B14FF49F
S31508011178FA730D48C4E9133307E02069FFF7D1FA72
S315080111884FF49673C4E91333084817B0F0BDCDE98F
S315080111980576009003A9204695E80C00FFF786FF17
S315080111A8C7E70348F1E700BF7D120108090B0108E3
S315080111B8BD110108FFF7B0BF2DE9F04190F82430B9
S315080111C80446032B96B024D0C36C13B33C2607AF49
S315080111D8CDE9057605AD95E80C0004F10C0103A8DF
S315080111E8FFF7B3F99DF81030002B3FD04FF00108EF
S315080111F8CDE90576CDF80080204695E80C0003A9C7
S31508011208FFF71CFF68B12046FFF7E2FC16B0BDE8F8
S31508011218F0812046A369E36116B0BDE8F041FFF7FE
S31508011228F3BECDE90576204695E80C0003A9FFF734
S315080112389FFE20B141462046FFF7C4FBE6E7CDE904
S31508011248000003A995E80C002046FFF75DFE94F80F
S315080112582430CDE90576B3FA83F35B090093204672
S3150801126895E80C0003A9FFF721FFB1E70048CDE788
S315080112787D120108FFF7A0BFF0B585B00F4669468C
S31508011288054681E80C0038461149FFF71BFB064657
S3150801129888B1009C95F8453022789A420BD1237972
S315080112A84BB963793BB97B78A279073B9A4202D154
S315080112B86D6DE71D15B9304605B0F0BDA379281D32
S315080112C8CDE9027302A96B6898472D68F2E700BF52
S315080112D8F8F803082DE9F04790F824300446032B5B
S315080112E896B004D116B0BDE8F047FFF78DBE836DF9
S315080112F800F10C0807AE63B9CDE9073343494046FF
S3150801130896E80C000968FFF7ECF804F1580000F0B4
S31508011318C1FCDFF8FC9005AD3C270596069795E8CC
S315080113280C00414603A8FFF710F99DF81030002B69
S3150801133864D0CDE90567204695E80C0003A9FFF7AF
S3150801134817FE824650B12069FFF7EBF94FF49673F9
S31508011358C4E913332F4816B0BDE8F08703A995E801
S315080113680C002046FFF788FFCDE90567CDE900AAF5
S3150801137803A995E80C002046FFF7C6FD94F8243022
S31508011388CDE90567B3FA83F35B09009303A995E8E1
S315080113980C002046FFF78AFECDE90567204695E841
S315080113A80C0003A9FFF76AFE38B104F1580000F0EA
S315080113B871FC04F1600000F06DFC3C2306930023E0
S315080113C805960093204695E80C0003A9FFF736FE13
S315080113D818B12046FFF718FEBDE7494603A8FFF7E7
S315080113E871FA002898D09DF81C309DF81D201343E2
S315080113F892D104F1600000F04DFC8DE7236E0BB124
S315080114080548A8E7A369E361E3E700BF20F90308EC
S315080114181CF90308090B010825140108FFF75ABF27
S3150801142870B504460D46164600F0C6F920461A4B0D
S315080114383246294640F80C3B0123FFF731F8174A8B
S3150801144800232262164AC4E90633A262154AC4E988
S315080114581233C4E90D24144AC4E91433C4E90F2420
S31508011468192284F82430C4E9172384F82C3084F81F
S31508011478303084F8443084F84630A365332320692C
S315080114886366FFF74EF94FF49673C4E91333074BAE
S315080114982046A36170BD00BFE8F80308A8F8030849
S315080114A8B8F80308C8F80308D8F80308090B0108A7
S315080114B810B50446044B40F8103B00F0D7FC20460B
S315080114C800F071F9204610BDD4F9030810B5044691
S315080114D8FFF7EEFF20462C2100F032FC204610BD0E
S315080114E8C368103093F8301000F08DBC73B50C46FC
S315080114F8054600F061F9194B01222B60EC60184981
S3150801150805F1100000F08EFC04F120030093012375
S31508011518694614488DF8043004F08EFC04F1280352
S3150801152800930023022669460F488DF8043004F013
S3150801153883FC04F1340369460C4800938DF804606A
S315080115483C3404F079FC6946094800948DF804602E
S3150801155804F072FC284602B070BD00BFD4F903082E
S3150801156820380408804C0408284C0408384C040818
S31508011578304C040873B505460C46022601F5056381
S315080115880068694600938DF8046004F055FC04F672
S315080115985C036946A86800938DF8046004F04CFC5E
S315080115A88DF80460012604F66403694668680093A1
S315080115B804F042FC04F66C036946286900938DF821
S315080115C8046004F6740404F037FC6946E868009474
S315080115D88DF8046004F030FC02B070BD30B50446DD
S315080115E80120904001381BB1012B15D0002030BDD0
S315080115F8A568E368C1F140018A1A2DBA1BBAC2F176
S315080116082004A2F12001D34005FA04F4234325FA5C
S3150801161801F10B431840EAE7D4E90235C1F1200480
S31508011628A1F12002CB4005FA04F4234325FA02F274
S315080116381343EFE7F0B59446059F13B1012B2CD058
S31508011648F0BDC1F140018D1A0122D0E9024639BA25
S31508011658ACF12003CCF1200722FA07F702FA03F3C3
S3150801166802FA0CF2013A43EA070343F1FF33A5F1FB
S31508011678200C02FA0CFCC5F12007AB4022FA07F741
S3150801168843EA0C03A9403B437140AA400B4024EAAC
S3150801169802047340C0E90243D2E7A2F12004C2F169
S315080116A8200203FA04F423FA02F203FA0CF3013BC3
S315080116B842EA0402A1F1200C42F1FF3203FA0CFCBA
S315080116C8C1F120048A4023FA04F442EA0C022243AF
S315080116D8C1F1200CA1F1200407FA04F427FA0CFC3D
S315080116E88B4044EA0C0407FA01F1D0E90265714016
S315080116F86C400B40224073406A40C0E902329FE7BA
S315080117080023C361704730B585B0009B016903F0B2
S31508011718004321F000410B430093FF2300220446AE
S31508011728057D8DF805300368C2616946CDE902224F
S315080117381B698DF8045098476946E06811F05EFA06
S3150801174805B030BD816931B1C2690A329142C261B7
S3150801175801D8FFF7D8BF7047F8B5044616460F46AD
S315080117681D4600F029F8094B21692360336801F001
S31508011778004123F000431943069B2046A361002331
S31508011788E76021612575E361F8BD00BFECF9030837
S3150801179810B50446024B036000F005F8204610BD53
S315080117A8ECF903087047704710B504460C2100F098
S315080117B8C7FA204610BD0000024A02600022C0E9A5
S315080117C80122704708FA030838B5054655F8104F37
S315080117D8A54200D138BD54F8043C201F1B68984718
S315080117E82468F5E738B5044654F8105FA54200D1D0
S315080117F838BD55F8043C281F5B6898472D68F5E7F6
S3150801180810B50446FFF7D8FF044B2046236000238A
S31508011818E36004F11003C4E9043310BD20FA030890
S31508011828436910B50A1D00F110048B604C604261CA
S315080118381A60C3680133C36010BDF8B505460026AA
S31508011848044655F8100F854203D1C4E90455E660E4
S31508011858F8BD50F8042C0768D268C0E90066043850
S3150801186890473846EFE7000010B50446FFF7C8FF6A
S31508011878014B2046236010BD38FA030803460021A8
S3150801188810B553F8042F934203D1C0E90133016017
S3150801189810BD1468C2E900112246F4E710B50446DA
S315080118A8044B40F80C3BFFF7E9FF2046FFF77BFF9F
S315080118B8204610BD20FA030810B50446FFF7EEFFC7
S315080118C82046182100F03CFA204610BD10B50446FA
S315080118D8044B40F80C3BFFF7D1FF2046FFF7DEFF24
S315080118E8204610BD38FA030810B50446FFF7EEFF7F
S315080118F82046182100F024FA204610BD0068B0FADF
S3150801190880F0400970470020704708B54068FFF71E
S31508011918F5FF08BD80687047002070474368186856
S31508011928704700207047836882B0994237BF436879
S3150801193800235B5C8DF8043038BF01239DF8040049
S3150801194840EA032002B0704730B587B0044600F074
S31508011958FBF92F4D0C302560606000F0F5F9083069
S31508011968A560E06000F0F0F9C4E9045000F0ECF96C
S315080119780430A561E06102A800F07EF8029B254DB6
S315080119886362039B2562A36204A800F07FF8E562F7
S315080119980325049B69462363059B1F4863638DF8E2
S315080119A80450009404F048FA04F1080369461B48F0
S315080119B800938DF8045004F03FFA04F110036946C0
S315080119C8174800938DF8045004F036FA8DF8045038
S315080119D8082504F1180369461248009304F02CFAFD
S315080119E804F120036946104800938DF8045004F061
S315080119F823FA636B43B104F12C0369460B48009338
S31508011A088DF8045004F018FA204607B030BD00BF17
S31508011A1860FA030870FA0308D84B0408E04B04086F
S31508011A28D04B0408C84B0408F04B0408E84B0408D3
S31508011A38704729B1037A83F001030371017270476C
S31508011A480B46FAE719B9037A03710172704700233D
S31508011A58FAE720F02003413B052B0AD9A0F1300308
S31508011A68092B06D9A0F12B035842584180F00100E9
S31508011A7870470120FAE700000346034A92E8030083
S31508011A8883E80300184670477CFA0308264970B5A7
S31508011A98044602260D460878FFF7DBFF002840D1E1
S31508011AA84878FFF7D6FF70B14A1C521B062AD8BFD9
S31508011AB800232046CCBFC4E90052C4E9003370BDEF
S31508011AC801261146E7E78878FFF7C3FF08B18A1C9C
S31508011AD8EBE7C878FFF7BDFF08B1CA1CE5E7012E91
S31508011AE801F10402ECD11148831A022B0BD0032BFE
S31508011AF803D0012B0DD00246D7E71078FFF7A9FFC7
S31508011B080028D2D14A1D1078FFF7A3FF0028CCD1A7
S31508011B1801321078FFF79DFF044B002808BF1A46C3
S31508011B28C3E70A46C1E700BF840100088C0100081B
S31508011B38704708B510F0BEFD027843781AB11B0143
S31508011B4883F3118870470BB162B6704772B670474E
S31508011B5811B94368036070470023FBE709B100F030
S31508011B68AEB800F097B80000054B10B504461868DA
S31508011B782BF061FD002320602372204610BD00BFAB
S31508011B888043002003689B6B194401234160037253
S31508011B987047037A3BB1036842689B6B9A424FF0D8
S31508011BA8000302D20372012070471846704743683A
S31508011BB81847000013B5044640F8041BFFF754FEFE
S31508011BC804F11C00FFF750FE00232068A36384F87C
S31508011BD83430E36303694FF47A715B6810309847C8
S31508011BE8044B20686946CDE9003412F087FC204683
S31508011BF802B010BD331C010838B5836B044601339E
S31508011C0883630068836918301B68984794F83430E9
S31508011C18054613B1201DFFF7E5FD206883691830CD
S31508011C281B689847401BE06338BD4068FFF7E4BF67
S31508011C3838B590F8343004466BB9043004F11C05FC
S31508011C48FFF7C2FD2846FFF7BFFD012384F83430A4
S31508011C5894F8343003B938BD2846FFF7C3FDF7E7CA
S31508011C6837B505460446094B55F81C0B0093084B2E
S31508011C786946019312F042FC2846FFF727FE201D04
S31508011C88FFF724FE204603B030BD00BFB71B010885
S31508011C98391B0108436803607047436833B16421F7
S31508011CA802684A43B2FBF3F398B27047184670477D
S31508011CB808B5FFF7F2FFC0F1640080B208BD0368F2
S31508011CC80BB1013B036070477047FEE708B52DF075
S31508011CD837F9582303604FF0FF3008BD0346044A15
S31508011CE81068C118116003498A681A448A607047DE
S31508011CF800400020884300200346094A10B51168A8
S31508011D08013111604107074918BF20F00703086820
S31508011D1818BF0833C4180C6091681944916010BD3E
S31508011D288843002000400020FFF7E6BFFFF7E4BF1D
S31508011D38024A536801335360704700BF884300203D
S31508011D48FFF7F6BFFFF7F4BF00487047884300203E
S31508011D58024B0349034A5B1AD360704700C0012046
S31508011D685CA0002088430020303809288CBF002051
S31508011D7801207047FEE70346012001B97047CA07E3
S31508011D8848BF584349085B43F7E75B1A10B5044649
S31508011D98084607D0121B05D00299091B594391FB1E
S31508011DA8F2F1084410BDF0B5002304460D464FF07C
S31508011DB880429C4275EB020105D30020014653EA8D
S31508011DC8020605D1F0BD9B0843EA82739208F0E73B
S31508011DD81E1842EB0107B44275EB070C05D3A41B81
S31508011DE865EB0705F01847EB020140089B0840EA2E
S31508011DF8C17043EA827349089208E0E74068704768
S31508011E08416001207047037B2BB921B143697E2BB9
S31508011E189CBF013343610173704700234361037310
S31508011E2870470000094B10B5836000230446027108
S31508011E38074A0373C0E90423064B016018682BF0A7
S31508011E48FFFB214600F06DFC204610BDB8F80308D3
S31508011E588CFA03088043002038B5154604461A4605
S31508011E6805EB4101FFF7DEFF204638BD10B50446EC
S31508011E78044B18682BF0E4FB214600F076FC204653
S31508011E8810BD00BF8043002003685B681868704767
S31508011E98006800B9704743681B798B42F8D101205D
S31508011EA8704703680BB9184670475A68107B0028AB
S31508011EB8FAD11B68F6E70368002003B970475A6820
S31508011EC81B6852691044F8E710B5046804B910BDCF
S31508011ED86068FFF7A2FF2468F8E70246002010B5F4
S31508011EE813461A461B6863B15C688C42F9D11C68AB
S31508011EF8146018601846F3E704680821FFF720FFFD
S31508011F0820460028F8D110BD38B50D4604460820E4
S31508011F18FFF70AFF2B68436023682060036038BD12
S31508011F28002313B504460191036001A9FFF7ECFFE5
S31508011F38204602B010BD07B5019101A9FFF7E4FFD4
S31508011F4803B05DF804FB10B50446806A03681B688C
S31508011F589847014604F10C00BDE81040FFF753BF46
S31508011F6810B50446044B40F80C3BFFF77FFF2046A3
S31508011F78FFF719FC204610BD9CFA030810B504465C
S31508011F88FFF7EEFF20462C21FFF7DAFE204610BDA3
S31508011F9870B504460D461646FFF70EFC2046054B56
S31508011FA82A79296840F80C3BFFF73CFF2046A662C8
S31508011FB870BD00BF9CFA030873B50C46054603268F
S31508011FC800F0F0F869462A488DF80460009503F090
S31508011FD833FF04F50A7300930023694625488DF8EB
S31508011FE8043003F029FF04F50C7369462248009367
S31508011FF88DF8046003F020FF8DF804600A2604F5BD
S315080120080E7369461D48009303F016FF04F5147309
S3150801201869461B4800938DF8046003F00DFF04F523
S315080120281B736946174800938DF8046003F004FF8B
S3150801203804F51E7300930923694613488DF804307D
S3150801204803F0FAFE04F520736946104800938DF8E3
S31508012058046003F0F1FE0723694604F522740C4867
S3150801206800948DF8043003F0E7FE284602B070BDE7
S31508012078884B0408B84B0408804B0408B04B04087D
S31508012088784B0408A84B0408A04B0408984B040885
S31508012098904B040870470C3000F02CB838B5044644
S315080120A80D46FFF789FB2046034B294640F80C3BAA
S315080120B800F03EF8204638BDB4FA030810B50446C0
S315080120C8044B40F80C3BFFF7D1FE2046FFF76BFBA4
S315080120D8204610BDB4FA030810B504461C30FFF7AC
S315080120E83DFDE1692046BDE81040B1FA81F149098B
S315080120F8FFF789BE10B50446FFF78FFE04F11C00E9
S315080121080021BDE81040FFF723BD000038B5044695
S315080121181D46FFF787FE0023C4E90735034B20460A
S31508012128636204F11C03A36238BD00BF50FA0308B1
S3150801213838B50D460A7909680446FFF773FE002281
S31508012148AB682046C4E90723024B636204F11C0302
S31508012158A36238BD50FA0308436824338360012013
S31508012168704738B504466368A56803F12402D3F8AD
S31508012178243202EB83039D4202D10020A26038BDB6
S315080121882B1D2846A360FFF796FE0028EBD02846A4
S31508012198FFF77AFE04882846FFF783FE44EAC070EB
S315080121A8EDE70000024AC0E9002124318160704741
S315080121B8CCFA0308D0F8240270470020704700209B
S315080121C87047002070478068704740687047243018
S315080121D808B500EB8100FFF757FE008808BD2430D3
S315080121E800EB8100FFF75DBE243000EB8100FFF7A5
S315080121F862BE000010B50446044B0360FFF71DFBD9
S315080122082046FFF74BFB204610BD00BFDCFA030842
S3150801221810B50446FFF7EEFF20461821FFF790FD93
S31508012228204610BD8B689A4237BF4B68002353F87E
S315080122382230036038BF01230371704708B5406827
S31508012248FFF7B8FF08BD70B50446084616460D4699
S31508012258FFF7F4FFB04208D931466868FFF7C4FFAB
S31508012268012320602046237170BD0023FAE770B563
S315080122780D460446006820B920602B68236028604B
S3150801228870BD06680821FFF75BFD3046F3E788420B
S3150801229804D0ACBF01204FF0FF30704700207047CB
S315080122A808B54068FFF786FF08BD37B50C460546E9
S315080122B8FFF7F6FFA0420CD921466868FFF78FFF9A
S315080122C801238DF804009DF8040040EA032003B0B1
S315080122D830BD0023F7E708B54068FFF76BFF08BD6F
S315080122E837B50C460546FFF7F6FFA04213D921462E
S315080122F86868FFF76CFF0123ADF8040000208DF824
S315080123080630BDF8043063F30F00BDF8063063F3F1
S315080123181F4003B030BD0023F0E710B510460C4640
S31508012328FFF7B2FD01882088FFF7B1FFC0F3C01097
S3150801233810BD10B508461446FFF7A6FD2188008882
S31508012348FFF7A5FFC0F3C01010BD38B508461546F6
S31508012358FFF79AFD04462846FFF796FD0188208867
S31508012368FFF795FFC0F3C01038BD38B5D0F8245229
S3150801237800F1240404EB8505AC4200D138BD20469A
S31508012388FFF7A2FD0434F7E710B50446FFF7EDFF9A
S3150801239804F10C00BDE81040FFF716BA2DE9F84319
S315080123A804460C30FFF71EFA94F82C322BB1002399
S315080123B8204684F82C32FFF7D8FF04F5107104F586
S315080123C81470431A002B06DD0A46002503F5107317
S315080123D823449A4221D104F5177504F51B777B1B0B
S315080123E8002B06DD2A46002603F5177323449A426D
S315080123F816D1D4F8242204F1240303EB820E9E4550
S3150801240811D1002381422ED1C4F834320023BD42AA
S315080124182DD1C4F83C32BDE8F88342F8045BD8E705
S3150801242842F8046BE3E753F804CBBCF1000FE6D096
S31508012438DCF8048098F80C6098F8042036B104EBA7
S315080124488209D9F840620136C9F84062D8F8146099
S3150801245836B104EB8202D2F85C620136C2F85C62D4
S31508012468DCF800C0E1E751F8042B1344CAE755F82C
S31508012478042B1344CBE700002DE9F0410446FFF786
S315080124889BF9234600254FF010081E4A002143F8F8
S315080124980C2B184618222CF04BFDFFF7B1F91A4BED
S315080124A84246E360194B2946C4F82832184BC4F842
S315080124B82452C4E98C35C4E98E3504F510731846D7
S315080124C884F82C522CF034FD0426124F04F51773A0
S315080124D8C4E99470424629461846C4F858622CF04D
S315080124E827FD0D4BC4E99B70C4E99E340B4B204666
S315080124F8C4E9A0340A4BC4F87462C4E9A234BDE835
S31508012508F08100BF54FB0308DCFA0308B8F803088E
S31508012518F4FA030804FB030818FB03082CFB030851
S3150801252840FB03082DE9F04706460D4690460F4637
S31508012538D1F8004244F31D0484B9D5F8004237603E
S3150801254805EB8404BC4206D03A4641462846FFF7BD
S31508012558E4FE00B134603046BDE8F0874FEA540915
S3150801256807EB890A424651462846FFF7E2FE28B193
S31508012578013C0AF10407A4EB0904DDE74C46DBE74D
S3150801258837B5054600F124040A4601A82146FFF78E
S31508012598C9FFD5F82432019804EB8304A04204D074
S315080125A803B0BDE83040FFF77CBC002003B030BD5E
S315080125B837B5054600F124040A4601A82146FFF75E
S315080125C8B1FFD5F82432019804EB8304A04204D05C
S315080125D803B0BDE83040FFF777BC03B030BD37B567
S315080125E8054600F124040A4601A82146FFF79AFF81
S315080125F8D5F82432019804EB8304001B18BF01207F
S3150801260803B030BD2DE9F84F002307460C4690461E
S315080126180E46D1F80052036001EB850A037145F3AA
S315080126281D054DB9B24519D10123D4F800223B71CC
S31508012638802A1FD12CF00CFC4FEA550B06EB8B09A7
S31508012648424649462046FFF780FE28B1013D09F171
S315080126580406A5EB0B05E4E75D46E2E73246414683
S315080126682046FFF772FE0028DED13D7138463E60E6
S31508012678BDE8F88F04EB8203B3424FF0000102F17B
S31508012688010007D1D8F80030C8F800103360C4F83B
S315080126980002EBE753F804CC1D1F44F822C043F89F
S315080126A8041CC4F80002AE4204D141463046FFF77D
S315080126B8DEFDDBE7043D2946281DFFF7D8FDF2E7CD
S315080126C838B50446006808B9204638BD05680821A2
S315080126D8FFF736FB2846F6E770B5054604460A4B62
S315080126E8D0F8246245F8243B46B904F10C00FFF7F3
S315080126F881FD2046FFF757F8204670BD2846FFF7A3
S31508012708DFFF013E0435EFE754FB030810B504461D
S31508012718FFF7E2FF20464FF42471FFF711FB204625
S3150801272810BD7FB505460C4600F124060A686846B9
S315080127383146FFF7F7FED5F82432009806EB8303EE
S315080127489842214604D004B0BDE87040FFF7F3BBB0
S3150801275801A8FFF7E5FB314601AA02A8FFF752FFD0
S3150801276801A8FFF7ADFF04B070BDF7B5054600F13E
S3150801277824060A680F4601A83146FFF7D3FED5F89D
S315080127882432019C06EB83039C4214D03946204621
S31508012798FFF7A3FB236873B9D5F8243206EB83063A
S315080127A80434A64209D1301FFFF78AFFD5F8243227
S315080127B8013BC5F8243203B0F0BD2146201FFFF7B7
S315080127C856FDEDE710B504464069002103685B68C4
S315080127D89847A0690021BDE8104003685B68184757
S315080127E838B5C26804464069D2F8345203685B684A
S315080127F885B12269E1695268B1FBF2F101F001017B
S3150801280898470021A06903685B689847E36901331B
S31508012818E36138BDD2F83C1219B12269E1699268B7
S31508012828EAE798472369E1691B68A069B1FBF3F1EF
S31508012838036801F001015B68E7E7000010B5044683
S31508012848024B0360FEF7AFFF204610BD6CFB030879
S3150801285810B50446FFF7F2FF20462021FFF770FA64
S31508012868204610BDF8B504461D460F461646FEF71E
S31508012878A3FF054B20462360069BC4E90376A3619B
S3150801288800236561E361F8BD6CFB0308B0F9040030
S3150801289870470020704700207047806870471FB549
S315080128A8002301248DF80830009402AB11F067FD66
S315080128B820B120469DF808308DF80C309DF80C306B
S315080128C843EA002004B010BD2DE9F34116468DF8F8
S315080128D800208DF801306A461D46022307468846B8
S315080128E811F080FC3246044641463846FFF7D7FFC1
S315080128F8ADF804003CB19DF8054024B19DF80440A3
S31508012908631B5C425C41204602B0BDE8F0811FB5F5
S315080129180023ADF80830022342F08002009302AB87
S3150801292811F02DFD20B10120BDF80830ADF80C30A5
S315080129388DF80E000020BDF80C3063F30F00BDF8C2
S315080129480E3063F31F4005B05DF804FBF0B5044685
S31508012958032585B0667CE068217C002E5DD0272298
S31508012968217CE068FFF79BFF637CADF80000002B2C
S31508012978C0F3072014BF034600236374E8B19DF822
S3150801298800301A0719D52822217CE068FFF7BFFF0E
S315080129982A22217C0190E068FFF7B9FF2C220290D0
S315080129A8217CE068FFF7B3FF637C03902BB19DF8A0
S315080129B80630002B78D1002363740722217CE0684E
S315080129C8FFF76DFF637CADF80800002BC0F30720FD
S315080129D814BF034600236374E0B19DF808305B070A
S315080129E818D50C22217CE068FFF791FF637C0390D8
S315080129F8002BC0F3074014BF03460023637408B1CC
S31508012A08BDF80C000A2300B2434348BFFF331B1223
S31508012A18FA332385637CD3B11BE001270F22677438
S31508012A28FFF73DFF10F47F4FADF80C000BD09DF86A
S31508012A380C30332B07D1C0231F22217CE068677429
S31508012A48FFF742FF38B90023637463826361013D66
S31508012A5880D105B0F0BD67232022217CE068677420
S31508012A68FFF732FF0028EED033462122217CE068A1
S31508012A786774FFF729FF0028E5D033462222217C0F
S31508012A88E0686774FFF720FF0028DCD08823232233
S31508012A98217CE0686774FFF717FF66826074A6826F
S31508012AA8E6820028D3D05AE79DF80A30002B82D04F
S31508012AB89DF80E306374002B3FF47FAF43F64A51F5
S31508012AC84FF47A32BDF904304B4393FBF2F3638230
S31508012AD8BDF908304B4393FBF2F3A382BDF90C30D9
S31508012AE84B4393FBF2F3E38267E7000010B504460C
S31508012AF8024B0360FEF757FE204610BDA8FB0308E4
S31508012B0810B50446FFF7F2FF20462C21FFF718F9FE
S31508012B18204610BD836882B0994236BF43680023B0
S31508012B2833F811304FF000003CBFADF804300123EB
S31508012B388DF80630BDF8043063F30F00BDF806308A
S31508012B4863F31F4002B0704770B5154604460E4632
S31508012B58FEF732FE0B4B002D23600CBF30233223C0
S31508012B68094A2374A26104F11202E26103220023CD
S31508012B782262064A2046E66063746382636162627A
S31508012B88238570BDA8FB030884FB030898FB030883
S31508012B980346D0F8080128B11B68D3F8A40EB0FA81
S31508012BA880F040097047036802695B6803EB5203C2
S31508012BB8B3FBF2F0704741B103685B68B1EB430FA9
S31508012BC806D803EB5103B3FBF1F101610120704704
S31508012BD800207047036842695B6803EB5203B3FB3D
S31508012BE8F2F0704721B94161C0F8B4100120704765
S31508012BF803685B68B1EB430F0BD803EB5103B3FBCF
S31508012C08F1F3018B436159434FF47A73B1FBF3F13D
S31508012C18EAE70020704790F84430032B0BD1B1F549
S31508012C287A7F08D8B0F8BC308B4228BF0B46A0F883
S31508012C38BE300120704700207047B1F57A7F28BF5A
S31508012C484FF47A714369018359434FF47A73B1FB97
S31508012C58F3F1C0F8B41001207047406870470020A6
S31508012C6870470079704700207047B0F9040070472B
S31508012C78818001207047406870474160012070478C
S31508012C884068FFF790BF4068FFF782BF4068FFF7C3
S31508012C9892BF4068FFF7BFBF4368188B7047406803
S31508012CA8FFF798BF4068FFF79DBF4068FFF7C5BFA4
S31508012CB890F84400012802D0031F5842584170472A
S31508012CC802680B4902F12C03C31A5B114B4323F023
S31508012CD803031A444FF4FA6312695343A3F5EA4303
S31508012CE8303B5200B3FBF2F3A0F8BC30704700BF83
S31508012CF8398EE33803680A2210B51C6842F20F7345
S31508012D0842F2107102FB0432B2FBF1F2C0F8DC2080
S31508012D18642202FB0433B3FBF1F3C0F8EC30C0F8C4
S31508012D28FC30C0F80C3110BD406811F05FB8406836
S31508012D3811F056B8037B10B50BB1C1F57A71036862
S31508012D48826803F12C04001B064C4011604320F0ED
S31508012D58030003441B6959434FF47A73B1FBF3F132
S31508012D68116010BD398EE33802680B4902F12C034C
S31508012D78C31A5B114B4323F003031A441369017BF6
S31508012D888268106801B1181A4FF47A725043B0FB79
S31508012D98F3F080B2704700BF398EE3384068FFF711
S31508012DA8E3BF0023C0E93033C0E93233C0E934331D
S31508012DB8012380F8B930704738B500250446C0E9BB
S31508012DC84655FFF7EEFF2946E830FEF7C1FE2946C4
S31508012DD804F1F800BDE83840FEF7BABE70B5D0E987
S31508012DE83435D0F8C44090F844208C4206DD022ACE
S31508012DF8A1EB040110D10122002617E0D0F8C8403A
S31508012E088C4205DB022A01D0052A34D000242FE09A
S31508012E18022AA1EB040125D0541F62426241002906
S31508012E28D4BF00260126B2EBD17F1DD1494396426C
S31508012E380CBF0C4600246FF41C721144002929DAC8
S31508012E480B4423EAE373C0F8D0306FF41C73E31814
S31508012E58002B19DB6FF00041491B9942D4BF6D1845
S31508012E68ED1814E001221646964204D101FB01F435
S31508012E786FF41C71E4E76FF41C710B4423EAE373DE
S31508012E88C0F8D0306FF41C731D4425EAE575C0F8FF
S31508012E98D45070BD6FF00042D21A8A42D4BF9B182B
S31508012EA85B18D0E740F27121D0E934321A44036835
S31508012EB8DB694B439A42D4BF002001207047426917
S31508012EC822B9C0F81C2180F8B8207047D0F81C31FF
S31508012ED801339A4297BF0023C0F81C31C0F81C3148
S31508012EE880F8B830D0F81C21D0F8B4309A4224BFFB
S31508012EF8012380F8B83070472DE9F041D0F8184118
S31508012F0806690134B44228BF002490F8B83005464A
S31508012F188846C0F8184193BBFFF7CAFEB5F9783059
S31508012F281A4600B15A423EB3002BB8BF5B429FB25C
S31508012F38EB6D7B43B3FBF8F14FF47A737143B1FB3D
S31508012F48F3F1731E9942A8BF1946B5F95430BB4225
S31508012F58A8BF3B4600B15B42A142DBBF641A761A99
S31508012F68C1EB4404A6EB4404CBBF5C435C4394FB26
S31508012F78F1F494FBF6F422441046BDE8F0810022E8
S31508012F88FAE7000091F8B83070B51BB10023036061
S31508012F98436070BD91F84460CC6D022EB1F8BC301F
S31508012FA84FEA440512D0052E10D00E49A3F57A73B7
S31508012FB8514353434FF47A7293FBF2F391FBF5F1BC
S31508012FC85343640893FBF4F30160E1E75A434FF46A
S31508012FD87A7392FBF3F25A43002192FBF5F20160E8
S31508012FE84260D6E718FCFFFFF7B50E4603680446A4
S31508012FF8014668461D6AFFF7C5FFD4E93102019BF8
S3150801300843F6FF77B342A8BF33461946009B9E424B
S31508013018B8BF1E460B1A002BB8BF5B4205FB0373E4
S31508013028002BB8BFDB1900EBA3308842D4BFC4F81C
S31508013038C400C4F8C41043F6FF71B31A002BB8BF0D
S315080130485B4205FB0313002BB8BF5B18A2EBA3323F
S31508013058B242ACBFC4F8C820C4F8C86003B0F0BD12
S315080130682DE9F04F1646044685B089463146FFF7DD
S3150801307826FFFFF741FF23680546D3E900820A239D
S31508013088B2FBF3FA2046FFF713FE41F28831E26AEA
S31508013098236A0292A26B03FB0AF302FB0AF293FB69
S315080130A8F1F392FBF1F1021E4FF47A700192E26D87
S315080130B818BFB34605FB02F208BF4FF0000B92FB97
S315080130C8F0F25A440392D4F8CC20A5EB09005143EF
S315080130D800FB03F348BFFF3194F8B87003EB2123CB
S315080130E8A9EB050CD4F8C010C4F8CC30EFB94FF0E9
S315080130F80A0EB8FBFEF8D045A8BFD046DDF808E0A9
S3150801310840F6B8320EFB08F841F2883E98FBFEF8FD
S3150801311802FB0AF200FB08185042804503DB4245C8
S31508013128A8BF42461046C4F8C000D4F8C02092FB8E
S31508013138FAFA039A13449A444FF47A7303FB0AFA80
S315080131489AFBF6FABAF57A7F94F8B9300CDDBCF130
S31508013158000F0CDA01232046C4F8C01084F8B930E8
S31508013168FFF7A6FD60B907E0BAF1000F53DB002B9C
S315080131785FD1002384F8B93094F8BA30002B5BD1B3
S315080131880027B4F8BC803946D045A8BFD0462046A2
S3150801319828EAE878FFF7CBFD20461FFA88F1FFF7FA
S315080131A8C9FD94F8BA303BB149462046FFF716FEE1
S315080131B832462946FFF718FF3FB3E36D08FB06F6C3
S315080131C803FB05F14FF47A7391FBF3F796FBF3F6D4
S315080131D84FF4FA6391FBF3F1019BA6EB0B0604F195
S315080131E8E80004F1F80553B301F5FA718E42D4BF24
S315080131F800210121FA3FFEF7B1FCB6EB470FB4BF30
S31508013208012100212846FEF7A9FC012384F8BA30D2
S3150801321805B0BDE8F08FBCF1000FA8DD01232046F3
S31508013228C4F8C01084F8B930FFF742FD0028A3D1C5
S31508013238A6E7C4F8C0109CE787F00107A1E7A1F53E
S31508013248FA718E42ACBF00210121FA37FEF786FCD6
S31508013258B6EB470FCCBF01210021D3E72DE9F0478B
S315080132689046FFF72CFEB0F9787005460E461FB151
S3150801327890F8B87087F001072846FFF719FD95F801
S31508013288BA4081461CB195F8B84084F001044F4507
S315080132980CBF4FF0000AB5F8BCA021462846FFF72F
S315080132A846FD28465146FFF745FD2846FFF779FDAD
S315080132B82CB34F4514BF444600244FF47A72EB6D7C
S315080132C805F1E80005F1F807B9F1000F1CD0A4EBE0
S315080132D80804544394FBF3F461003239B142D4BF6C
S315080132E800210121FEF73AFC04EBD4714910323169
S315080132F8B142ACBF002101213846FEF72FFC012354
S3150801330885F8BA30BDE8F087544394FBF3F46100B5
S315080133183231B142ACBF00210121FEF71FFC04EB93
S31508013328D47149103239B142D4BF00210121E3E7EA
S315080133387FB5FFF7C4FD036804465E68FFF714FD09
S3150801334805462046FFF7F0FCB4F8BE1038B3154B0E
S315080133580191B3FBF6F3EA1A91420292A8BF0A460B
S315080133681D44B4BF02AB01AB95420395B8BF03AB85
S315080133781D6894F8BA1019B194F8B81081F00101CA
S315080133882046FFF7D4FC2046A9B2FFF7D3FC20460E
S31508013398FFF712FD012384F8BA3004B070BD0D4653
S315080133A8E7E700BF40420F00F8B540F6C415A1F596
S315080133B800614D4348BF05F2FF7504461646ED12EE
S315080133C8FFF776FC00283CD06B421BB2A4F8903074
S315080133D841F2941305F6CA01994204F1D80794BF34
S315080133E8002101213846FEF7B9FB1EB901213846E5
S315080133F8FEF7AEFB94F870602EBB00212046FFF756
S3150801340896FC002384F8BA3094F84430032B00F06C
S3150801341888804FF4FA712046FFF78CFC2046FFF79F
S31508013428CBFC002DB8BF6D42182D79DCD4F8D830FD
S31508013438002B75D004F584700121BDE8F840FEF724
S315080134488DBB2BB2C2E7D4F80821002AD5D194F846
S315080134584430591E01290AD9191F012943D8236855
S3150801346829462046B3F9882EFFF7F8FE06E02368B1
S3150801347829462046B3F9882EFFF7F2FD2046FFF7BD
S3150801348811FD50B1D4E934320A2192FBF1F0834295
S3150801349834DA0623002684F8A030D4F8D810D4F8EC
S315080134A8E820D4F8F83081BB032184F8A01012B9B2
S315080134B8012284F8A02013B9022384F8A030002138
S315080134C804F58470FEF744FB94F84430032B0CBFCB
S315080134D8B4F8BE30B4F97830C4F8A830B4F89030E6
S315080134E8A4F8B03017E0032B04D00723164684F84E
S315080134F8A030C3E72046FFF71BFFBFE793FBF1F3AD
S315080135089342D4BF04230523C4E7002AD0D0002B4D
S31508013518D2D0002ED3D0D4F80831002B7FF46DAF62
S31508013528F8BDB4F8BE1076E738B50446A3609DF829
S315080135381030C4E9001223734FF47A73104618221F
S3150801354823833A4B2262E361A3626363402340F60D
S31508013558B8320025A363364BE2622364354B364AF3
S31508013568C4E91234354BC4E9162523656367344A19
S31508013578344BC4E91924C4E91F34334A334BE26688
S31508013588C4E9045584F84450A4F8545084F8705092
S31508013598A4F87850C4E921342D4B2E4AC4F88C3046
S315080135A8C4F8AC304FF48073C4E925242A4AA4F830
S315080135B8B830C4F89C20294A294BC4E9292504F1BD
S315080135C8D802C4E92F35C4E93925264B04F1E8029E
S315080135D8C4E93D2504F1F802C4E93B53C4E93F535C
S315080135E8C4F8E030C4E93155C4E93355C4E9355559
S315080135F8A4F8905084F8A050A4F8B050C4F8B45070
S3150801360884F8BA50C4F8DC50C4E94125C4E94353DF
S3150801361804F58473C4E94535C4F81C5110F01CFB3C
S315080136286068294610F0DCFB204638BDC0FB030854
S31508013638A8F80308D0FB03088CFA0308E0FB03087B
S31508013648F0FB030800FC0308B8F8030810FC030894
S3150801365898FB030820FC030830FC030840FC030810
S31508013668DE03F40150FA03084830704758307047AA
S3150801367864307047806870470020704780687047D3
S3150801368880687047806870478068704780687047A7
S315080136988068704780687047806870478068704797
S315080136A88068704780687047806870478068704787
S315080136B80B4611468268934208D24FF490724068C5
S315080136C802FB0300C36E6C305B681847002070471D
S315080136D80B4611468268934208D24FF490724068A5
S315080136E802FB0300036C40305B68184700207047EB
S315080136F8836807B5994212D24FF49073406803FB61
S315080137080100C36E6C301B68984701238DF80400C5
S315080137189DF8040040EA032003B05DF804FB002382
S31508013728F6E7836807B599421AD24FF49073406849
S3150801373803FB0100D0F88C308C301B6898470123AD
S31508013748ADF8040000208DF80630BDF8043063F39F
S315080137580F00BDF8063063F31F4003B05DF804FB9C
S315080137680023EFE7836807B599421AD24FF4907395
S31508013778406803FB0100D0F8AC30AC301B689847A9
S315080137880123ADF8040000208DF80630BDF8043091
S3150801379863F30F00BDF8063063F31F4003B05DF805
S315080137A804FB0023EFE7836807B5994212D24FF461
S315080137B89073406803FB0100036C40301B68984707
S315080137C801238DF804009DF8040040EA032003B09C
S315080137D85DF804FB0023F6E78B6810B59A420446A0
S315080137E80ED24FF49073486803FB0200D0F8A43050
S315080137F8A4301B689847012320602046237110BD11
S315080138080023FAE7836807B5994213D24FF49073F0
S31508013818406803FB0100D0F8943094301B68984738
S3150801382801238DF804009DF8040040EA032003B03B
S315080138385DF804FB0023F6E7836807B5994213D2B6
S315080138484FF49073406803FB0100D0F89C309C3014
S315080138581B68984701238DF804009DF8040040EA7F
S31508013868032003B05DF804FB0023F6E70B4611466F
S315080138788268934209D24FF49072406802FB0300AA
S31508013888D0F8843084305B6818470020704783680D
S3150801389807B599421AD24FF49073406803FB0100A1
S315080138A8D0F8843084301B6898470123ADF80400A2
S315080138B800208DF80630BDF8043063F30F00BDF813
S315080138C8063063F31F4003B05DF804FB0023EFE7F6
S315080138D80B4611468268934208D24FF490724068A3
S315080138E802FB0300C36F7C305B68184700207047EA
S315080138F8836807B5994219D24FF49073406803FB58
S315080139080100C36F7C301B6898470123ADF8040092
S3150801391800208DF80630BDF8043063F30F00BDF8B2
S31508013928063063F31F4003B05DF804FB0023EFE795
S315080139380B4611468268934208D24FF49072406842
S3150801394802FB0300436F74305B6818470020704711
S31508013958836807B5994219D24FF49073406803FBF7
S315080139680100436F74301B6898470123ADF80400BA
S3150801397800208DF80630BDF8043063F30F00BDF852
S31508013988063063F31F4003B05DF804FB0023EFE735
S315080139980B4611468268934208D24FF490724068E2
S315080139A802FB0300036D50305B6818470020704717
S315080139B8836807B5994219D24FF49073406803FB97
S315080139C80100036D50301B6898470123ADF80400C0
S315080139D800208DF80630BDF8043063F30F00BDF8F2
S315080139E8063063F31F4003B05DF804FB0023EFE7D5
S315080139F82DE9F3410C25044608270A265F4B2C3185
S31508013A08C0E900315E4B8560C0E903315D4B45610C
S31508013A18C0E906315C4B0562C0E909315B4BC562F1
S31508013A28C0E90C315A4B8563C0E90F31594B4564D6
S31508013A38C0E91231584B0565C0E91531574BC565BB
S31508013A48C0E91831564B8566C0E91B31554B4567A0
S31508013A58C0E91E31544BC0F88050C0E92131534B97
S31508013A68C0F88C50C0E92431514BC0F89850C0E9C8
S31508013A782731C0F8A450694600904E488DF804705D
S31508013A8802F0DAF9631969464B4800938DF8046020
S31508013A9802F0D2F904F118036946484800938DF8EB
S31508013AA8045002F0C9F904F124036946444800930D
S31508013AB88DF8046002F0C0F98DF8046007264FF006
S31508013AC8090804F1300369463E48009302F0B4F93F
S31508013AD804F13C0369463C4800938DF8046002F0FA
S31508013AE8ABF904F148036946384800938DF8045040
S31508013AF802F0A2F904F154036946354800938DF892
S31508013B08048002F099F904F1600369463148009383
S31508013B188DF8048002F090F904F16C0369462E4881
S31508013B2800938DF8045002F087F904F17803694681
S31508013B382A4800938DF8046002F07EF904F184039B
S31508013B486946274800938DF8047002F075F904F15F
S31508013B58900300930D23694622488DF8043002F034
S31508013B686BF904F19C0369461F4800938DF80450C4
S31508013B7802F062F9204602B0BDE8F08150FC03085C
S31508013B8864FC030878FC03088CFC0308A0FC0308FA
S31508013B98B4FC0308C8FC0308DCFC0308F0FC0308AA
S31508013BA804FD030818FD03082CFD030840FD030856
S31508013BB854FD0308004004086840040860400408E6
S31508013BC8584004085040040840400408384004088E
S31508013BD848400408084004083040040828400408F6
S31508013BE82040040818400408104004087047D0E922
S31508013BF8003201EB62001847836813B599421446E7
S31508013C0812D20B4B4FF49072009300230193436829
S31508013C18684602FB0131FFF7EAFF214603685B683C
S31508013C2802B0BDE810401847002002B010BD00BF19
S31508013C3871360108836813B59942144612D20B4B9B
S31508013C484FF490720093002301934368684602FB78
S31508013C580131FFF7CCFF214603685B6802B0BDE86E
S31508013C6810401847002002B010BD00BF753601087C
S31508013C78836813B59942144612D20B4B4FF49072C6
S31508013C880093002301934368684602FB0131FFF755
S31508013C98AEFF214603685B6802B0BDE810401847C5
S31508013CA8002002B010BD00BF793601088B6813B52C
S31508013CB89A4204464FF000030FD20A48CDE9000399
S31508013CC84B684FF49071684601FB0231FFF78FFF85
S31508013CD803681B689847012320602046237102B0B0
S31508013CE810BD00BF713601088B6813B59A420446A0
S31508013CF84FF000030FD20A48CDE900034B684FF489
S31508013D089071684601FB0231FFF771FF03681B686A
S31508013D189847012320602046237102B010BD00BFD1
S31508013D28753601088B6813B59A4204464FF00003A5
S31508013D380FD20A48CDE900034B684FF490716846DB
S31508013D4801FB0231FFF753FF03681B6898470123F4
S31508013D5820602046237102B010BD00BF79360108DC
S31508013D6800680B689842ACBF00200120704710B55F
S31508013D7804460846636811462278FDF72FFC237A1C
S31508013D882BB101232278013A93405840C01A10BD35
S31508013D982DE9F043D0E90064354685B006EBC40839
S31508013DA8039144F31C04002C06DCA84513D158F8E2
S31508013DB8040C05B0BDE8F083671005EBC709494649
S31508013DC803A8FFF7CDFF20B9E41B09F10805013C53
S31508013DD8E9E73C46E7E7AE426868EAD0039B009301
S31508013DE855E90112034655F8080CFDF7CEFFE0E739
S31508013DF870B50446D1E9053086B003EBC0008342A5
S31508013E081D4607D10D69012D0CD8002320462371BB
S31508013E1806B070BD53F8086B9642F0D16B682360FB
S31508013E280123F3E76E46CB6893E8030086E80300A7
S31508013E3803EBC50102AE11E9030086E80300009900
S31508013E488A42E2DB8242E0DC114604A8CDE9043560
S31508013E58FFF79EFF2060E3E738B50D46044611468D
S31508013E6828461A46FFF783FF294602462046FFF7E2
S31508013E78BFFF204638BDF0B585B004460D4616463F
S31508013E8801461A4602A8FFF7B3FF9DF80C703FB121
S31508013E98029B31460093284663682278FDF7CAFBD8
S31508013EA8384605B0F0BD4161704737B504460D4639
S31508013EB818300021FEF710F9216968460B7D2A4654
S31508013EC88969FFF7C9FF94F8603004F1440083B99A
S31508013ED89DF8041081F00101FDF795FF9DF804305E
S31508013EE84BB12046236800991B6903B0BDE83040E9
S31508013EF818470021F0E703B030BD000013B50446A2
S31508013F080B4B0C4A0360C368CDE900206946D8689B
S31508013F180FF0A4FB04F14400FDF7A8FF04F118000B
S31508013F28FDF7A4FF2046FDF73EFC204602B010BD6A
S31508013F3868FD0308873F010810B50446FFF7DEFF49
S31508013F4820466421FDF7FCFE204610BD10B590F801
S31508013F58603004461BB1013B80F8603010BD036927
S31508013F685B7B002BFAD001211830FEF7B5F894F8D7
S31508013F782430002BF2D023691B696361EEE7406898
S31508013F88FFF793BF7FB5044615460E46FDF714FCA1
S31508013F98184BAA7B23602B69A9686361C4E9036581
S31508013FA86B7B04F11800FEF7B1F8AA7B696804F17E
S31508013FB84400FDF737FF2B7BE06884F860300E4B29
S31508013FC8D5E90712CDE90234019B21F0004103F036
S31508013FD800430B430193009B22F0004203F0004380
S31508013FE81343009301AA6B4602A90EF0B0FC2046BA
S31508013FF804B070BD68FD0308873F0108F7B51F4679
S315080140080D4B054618680E46144629F00FFB002382
S3150801401801463A46684602F06DF89DF8040040B133
S31508014028324629462046009B03B0BDE8F040FFF713
S3150801403822BF03B0F0BD00BF8043002010B103685A
S315080140489B6818477047F8B505460F46002455F882
S31508014058046FAE4201D12046F8BD56F8043C301F1C
S3150801406839461B68984704433668E4B2F1E7F8B558
S3150801407800260446051D4068854201D12046F8BD3B
S31508014088076840F80469FFF7D9FF3846F4E7021DBF
S31508014098426000220260704710B50446024B03606D
S315080140A800F056F8204610BD84FD030810B50446ED
S315080140B8FFF7F2FF20461421FDF742FE204610BD00
S315080140C837B504460D4600220169684601F03CFFEA
S315080140D89DF8040040B12946009BA268E06803B030
S315080140E8BDE83040FFF7C7BE03B030BD2DE9F04142
S315080140F81C46104B064618680F46904629F096FA4C
S31508014108218801F0C7FF054690B11420FDF70CFE7A
S3150801411804464246394600F011F80120064B256146
S315080141282360736844F8043F336874600133336065
S31508014138BDE8F0818043002084FD030810B5034CCF
S31508014148C26004600024C0E9014110BD98FD030856
S31508014158704700797047000010B50446024B0360A2
S31508014168FDF7ACFF204610BDBCFD030810B5044693
S31508014178FFF7F2FF20464021FDF7E2FD204610BD74
S3150801418810B50446024B0360FDF798FF204610BD9B
S31508014198D4FD030810B50446FFF7F2FF204640216F
S315080141A8FDF7CEFD204610BD10B50446806B0368A1
S315080141B81B689847B4F93C108142A8BF002104F14D
S315080141C80C00B8BF0121BDE81040FDF785BF10B541
S315080141D80446806B03681B689847B4F93C1081420A
S315080141E8D8BF002104F10C00C8BF0121BDE8104061
S315080141F8FDF772BF2DE9F041054640200E461746E0
S3150801420835F9048BFDF790FD04462946FDF746FF67
S31508014218054B21462360A763A4F83C8006F10C00E8
S31508014228BDE8F041FDF7FCBABCFD030870B50546C3
S315080142380E460A4601460E48FFF7DCFF324629466E
S315080142480C48FFF7D7FF4020FDF76EFD04460A49DB
S31508014258FDF724FF094B214623604FF47A53A663D9
S31508014268A38705F10C00BDE87040FDF7D9BA00BF70
S3150801427814FE030804FE0308F8FD0308D4FD030821
S3150801428870B5054640200E46FDF74EFD0446084919
S31508014298FDF704FF074B2146236040F2EE23A66388
S315080142A8A38705F10C00BDE87040FDF7B9BA00BF50
S315080142B8E8FD0308D4FD030803685B68184700008E
S315080142C810B50446024B0360FDF76DFA204610BD8A
S315080142D82CFE030810B50446FFF7F2FF20462421F1
S315080142E8FDF72EFD204610BD10B50446C0680368C3
S315080142F81B689847B4F910301B1A58425841A37ECF
S3150801430898420AD00023A0766376606994F820104B
S315080143180368BDE810405B681847637E227E9A42A7
S3150801432886BF0133637684F82000EEE7F8B50446BC
S3150801433816461D460F46FDF73FFA084B084A2360FD
S3150801434841F21443238300232046E76026826561E8
S31508014358A376E26184F82030F8BD00BF2CFE030875
S31508014368ACFD030810B50446024B0360FDF71BFABA
S31508014378204610BD44FE030810B50446FFF7F2FFB0
S3150801438820463021FDF7DCFC204610BD70B50446F1
S31508014398C06803681B689847014604F11400FDF7CD
S315080143A8DDFB616904F12400B1FA81F14909FDF7D8
S315080143B840FB94F8283063B124692368204628CB42
S315080143C8984780F001012B462046BDE87040C9B2DE
S315080143D8184770BD10B5044600211430FDF7BEFB19
S315080143E804F124000021BDE81040FDF722BBFFF7C0
S315080143F8F1BF0000F8B5044616461D460F46FDF7F7
S31508014408DBF90022094B20462360094BC4E90376E8
S31508014418E36104F114032362064BC4E9052584F80C
S315080144282C20636284F82820F8BD00BF44FE0308DF
S3150801443850FA0308ACFD03088088704710B504468E
S31508014448024B0360FDF7AFF9204610BD6CFE030861
S3150801445810B50446FFF7F2FF20462421FDF770FC44
S31508014468204610BDC3888B4205D803898B4202D3DF
S3150801447881800120704700207047838B10B5044658
S315080144882BB9C06803681B689847400010BD0069C6
S3150801449803681B689847A38B58434FF49673B0FB78
S315080144A8F3F0F3E770B5446923685D68FFF7E5FF3C
S315080144B82B4601462046BDE870401847F7B504461D
S315080144C80D4617461E46FDF777F90D4BA988236051
S315080144D8089B2A8863616B880A48238404F11803B0
S315080144E800930223A061A183C4E903766946A868F3
S315080144F8E2838DF8043001F09FFC204603B0F0BD35
S315080145086CFE03085CFE0308012070470220704709
S3150801451804207047064B10B5186829F087F8BDE8D6
S315080145281040D0F8103800F501601B68184700BF1D
S315080145388043002001207047086808B503689B680E
S315080145489847800008BD086808B503689B689847B6
S31508014558400008BD086808B503689B689847800045
S3150801456808BD086808B503689B689847400008BDF0
S31508014578086803689B681847086803689B681847AA
S31508014588086803689B681847086803689B6818479A
S31508014598086803689B681847086803689B6818478A
S315080145A80420704701207047012070470120704791
S315080145B80120704701207047012070470120704784
S315080145C80120704702207047086803689B681847E6
S315080145D8086803689B681847086803689B6818474A
S315080145E8086803689B68184707B5054B027A011DD1
S315080145F853F8223001A8984703B05DF804FB00BFB9
S31508014608B4FE030807B5054B027A011D53F8223093
S3150801461801A8984703B05DF804FB00BF7CFE0308B0
S3150801462810B50446044B186829F000F82146BDE878
S31508014638104001F092BD00BF8043002010B5046800
S31508014648FFF768FF0444A07810BD73B505460068EE
S3150801465800240E68FFF7F2FF90B16A68336831469D
S315080146681B686846126898479DF8043043B1009C50
S315080146780120003C18BF012444EA002002B070BD9D
S315080146882046F9E773B50546006800240E68FFF762
S31508014698D5FF98B16A68336830461B681168984728
S315080146A810F47F0F019009D0BDF904400120003CA0
S315080146B818BF012444EA002002B070BD2046F9E774
S315080146C873B50546006800240E68FFF7B7FFA0B161
S315080146D86A68336830461B681168984710F47F4F33
S315080146E8ADF8040009D09DF904400120003C18BF23
S315080146F8012444EA002002B070BD2046F9E773B5E3
S315080147080546006800240E68FFF798FF90B16A68A5
S31508014718336831461B686846126898479DF804301D
S3150801472843B1009C0120003C18BF012444EA00203B
S3150801473802B070BD2046F9E773B50546006800243E
S315080147480E68FFF77BFF98B16A68336830461B68BD
S315080147581168984710F47F0F019009D0BDF80440F5
S315080147680120003C18BF012444EA002002B070BDAC
S315080147782046F9E773B50546006800240E68FFF771
S315080147885DFFA0B16A68336830461B6811689847A7
S3150801479810F47F4FADF8040009D09DF804400120B4
S315080147A8003C18BF012444EA002002B070BD204627
S315080147B8F9E773B50546006800240E68FFF73EFF5A
S315080147C888B16A68336830461B681168984710F4D7
S315080147D87F4FADF8040006D001209DF8044044EA4D
S315080147E8002002B070BD2046F9E773B50546006892
S315080147F800240E68FFF722FF70B16B681B685BB966
S31508014808336830461B689847041B18BF01240120E2
S3150801481844EA002002B070BD2046F9E773B505469B
S31508014828006800240E68FFF709FF70B16B681B68FA
S315080148385BB9336830461B689847041B18BF0124BF
S31508014848012044EA002002B070BD2046F9E773B595
S315080148580546006800240E68FFF7F0FE70B16B681C
S315080148681B685BB9336830461B689847041B18BF31
S315080148780124012044EA002002B070BD2046F9E768
S3150801488873B50546006800240E68FFF7D7FE70B1B0
S315080148986B681B685BB9336830461B689847041B05
S315080148A818BF0124012044EA002002B070BD204641
S315080148B8F9E773B50546006800240E68FFF7BEFEDA
S315080148C870B16B681B685BB9336830461B689847D3
S315080148D8041B18BF0124012044EA002002B070BD58
S315080148E82046F9E773B50546006800240E68FFF700
S315080148F8A5FE70B16B681B685BB9336830461B68DF
S315080149089847041B18BF0124012044EA002002B075
S3150801491870BD2046F9E773B50546006800240E6898
S31508014928FFF78CFE68B16B681B6853B93368304664
S315080149381B68984704460120E4B244EA002002B0FD
S3150801494870BD2046F8E773B50546006800240E6869
S31508014958FFF774FE80B16A68336831461B68684692
S31508014968126898479DF8043033B101209DF8004034
S3150801497844EA002002B070BD2046F9E773B505463A
S31508014988006800240E68FFF759FE80B16A68336823
S3150801499830461B681168984710F47F0F019006D0B6
S315080149A801209DF8044044EA002002B070BD204663
S315080149B8F9E773B50546006800240E68FFF73EFE59
S315080149C888B16A68336830461B681168984710F4D5
S315080149D87F4FADF8040006D001209DF8044044EA4B
S315080149E8002002B070BD2046F9E773B50546006890
S315080149F800240E68FFF722FE80B16A6833683146DB
S31508014A081B686846126898479DF8043033B1012037
S31508014A189DF8004044EA002002B070BD2046F9E737
S31508014A2873B50546006800240E68FFF707FE80B1CE
S31508014A386A68336830461B681168984710F47F0F0F
S31508014A48019006D001209DF8044044EA002002B0EE
S31508014A5870BD2046F9E773B50546006800240E6857
S31508014A68FFF7ECFD88B16A68336830461B68116838
S31508014A78984710F47F4FADF8040006D001209DF839
S31508014A88044044EA002002B070BD2046F9E773B530
S31508014A980546006800240E68FFF7D0FD88B16A68E4
S31508014AA8336830461B681168984710F47F4FADF88C
S31508014AB8040006D001209DF8044044EA002002B00B
S31508014AC870BD2046F9E773B50546006800240E68E7
S31508014AD8FFF7B4FD60B16B681B684BB9336830469C
S31508014AE81B689847C4B2012044EA002002B070BD89
S31508014AF82046F9E773B50546006800240E68FFF7EE
S31508014B089DFD60B16B681B684BB9336830461B68F5
S31508014B189847C4B2012044EA002002B070BD204675
S31508014B28F9E773B50546006800240E68FFF786FDA0
S31508014B3860B16B681B684BB9336830461B68984780
S31508014B48C4B2012044EA002002B070BD2046F9E744
S31508014B5873B50546006800240E68FFF76FFD60B156
S31508014B686B681B684BB9336830461B689847C4B2EB
S31508014B78012044EA002002B070BD2046F9E773B562
S31508014B880546006800240E68FFF758FD60B16B6892
S31508014B981B684BB9336830461B689847C4B201206D
S31508014BA844EA002002B070BD2046F9E773B5054608
S31508014BB8006800240E68FFF741FD68B16B681B6839
S31508014BC853B9336830461B68984704460120E4B24E
S31508014BD844EA002002B070BD2046F8E773B50546D9
S31508014BE8006800240E68FFF729FD68B16B681B6821
S31508014BF853B9336830461B68984704460120E4B21E
S31508014C0844EA002002B070BD2046F8E773B50546A8
S31508014C18006800240E68FFF711FDB8B16A683368A1
S31508014C2831461B686846126898479DF804306BB187
S31508014C380123BDF8004000208DF80230BDF8023086
S31508014C4864F30F0063F31F4002B070BD2346F2E711
S31508014C5873B50546006800240E68FFF7EFFCB8B17E
S31508014C686A68336830461B681168984710F47F0FDD
S31508014C7801900DD00123BDF8044000208DF80630B7
S31508014C88BDF8063064F30F0063F31F4002B070BD28
S31508014C982346F2E773B50546006800240E68FFF750
S31508014CA8CDFCC8B16A68336830461B6811689847ED
S31508014CB810F47F4FADF804000ED001239DF9044086
S31508014CC8A4B200208DF80630BDF8063064F30F004B
S31508014CD863F31F4002B070BD2346F2E773B5054674
S31508014CE8006800240E68FFF7A9FCB8B16A6833683A
S31508014CF831461B686846126898479DF804306BB1B7
S31508014D080123BDF8004000208DF80230BDF80230B5
S31508014D1864F30F0063F31F4002B070BD2346F2E740
S31508014D2873B50546006800240E68FFF787FCB8B115
S31508014D386A68336830461B681168984710F47F0F0C
S31508014D4801900DD00123BDF8044000208DF80630E6
S31508014D58BDF8063064F30F0063F31F4002B070BD57
S31508014D682346F2E773B50546006800240E68FFF77F
S31508014D7865FCC0B16A68336830461B68116898478C
S31508014D8810F47F4FADF804000DD001239DF80440B7
S31508014D9800208DF80630BDF8063064F30F0063F37A
S31508014DA81F4002B070BD2346F2E773B50546006891
S31508014DB800240E68FFF742FCC0B16A6833683046BA
S31508014DC81B681168984710F47F4FADF804000DD099
S31508014DD801239DF8044000208DF80630BDF80630F9
S31508014DE864F30F0063F31F4002B070BD2346F2E770
S31508014DF873B50546006800240E68FFF71FFC98B1CD
S31508014E086B681B6883B9336830461B689847012362
S31508014E1884B200208DF80630BDF8063064F30F0019
S31508014E2863F31F4002B070BD2346F2E773B5054622
S31508014E38006800240E68FFF701FC98B16B681B68C7
S31508014E4883B9336830461B689847012384B2002022
S31508014E588DF80630BDF8063064F30F0063F31F407A
S31508014E6802B070BD2346F2E773B50546006800240B
S31508014E780E68FFF7E3FB98B16B681B6883B933685B
S31508014E8830461B689847012384B200208DF80630FE
S31508014E98BDF8063064F30F0063F31F4002B070BD16
S31508014EA82346F2E773B50546006800240E68FFF73E
S31508014EB8C5FB98B16B681B6883B9336830461B68AC
S31508014EC89847012384B200208DF80630BDF80630CC
S31508014ED864F30F0063F31F4002B070BD2346F2E77F
S31508014EE873B50546006800240E68FFF7A7FB98B155
S31508014EF86B681B6883B9336830461B689847012372
S31508014F08044600208DF80630BDF8063064F30F0014
S31508014F1863F31F4002B070BD2346F2E773B5054631
S31508014F28006800240E68FFF789FB98B16B681B684F
S31508014F3883B9336830461B6898470123044600201D
S31508014F488DF80630BDF8063064F30F0063F31F4089
S31508014F5802B070BD2346F2E773B50546006800241A
S31508014F680E68FFF76BFB98B16B681B6883B93368E2
S31508014F7830461B6898470123044600208DF80630F9
S31508014F88BDF8063064F30F0063F31F4002B070BD25
S31508014F982346F2E773B5044608680D461668FFF70F
S31508014FA84DFB18B92071204602B070BD6A6833688E
S31508014FB831461B686846126898479DF8043013B14C
S31508014FC8009B236001232371EDE773B5044608683E
S31508014FD80D461668FFF732FB18B92071204602B04C
S31508014FE870BD6A68336830461B681168984710F4BB
S31508014FF87F0F0190C0F307431EBFBDF90430236034
S3150801500801232371EAE773B5044608680D4616684D
S31508015018FFF714FB18B92071204602B070BD6A68FB
S31508015028336830461B681168984710F47F4FADF806
S315080150380400C0F307231EBF9DF90430236001232A
S315080150482371E9E773B5044608680D461668FFF73C
S31508015058F5FA18B92071204602B070BD6A68336836
S3150801506831461B686846126898479DF8043013B19B
S31508015078009B236001232371EDE773B5044608688D
S315080150880D461668FFF7DAFA18B92071204602B0F4
S3150801509870BD6A68336830461B681168984710F40A
S315080150A87F0F0190C0F307431EBFBDF80430236084
S315080150B801232371EAE773B5044608680D4616689D
S315080150C8FFF7BCFA18B92071204602B070BD6A68A4
S315080150D8336830461B681168984710F47F4FADF856
S315080150E80400C0F307231EBF9DF80430236001237B
S315080150F82371E9E773B5044608680D461668FFF78C
S315080151089DFA18B92071204602B070BD6A683368DD
S3150801511830461B681168984710F47F4FADF80400AC
S31508015128C0F307231EBF9DF80430236001232371AA
S31508015138E9E770B5044608680D461668FFF77EFA6A
S3150801514810B92071204670BD6B681B683BB9336876
S3150801515830461B689847012320602371F2E700232C
S31508015168FBE770B5044608680D461668FFF766FA40
S3150801517810B92071204670BD6B681B683BB9336846
S3150801518830461B689847012320602371F2E70023FC
S31508015198FBE770B5044608680D461668FFF74EFA28
S315080151A810B92071204670BD6B681B683BB9336816
S315080151B830461B689847012320602371F2E70023CC
S315080151C8FBE770B5044608680D461668FFF736FA10
S315080151D810B92071204670BD6B681B683BB93368E6
S315080151E830461B689847012320602371F2E700239C
S315080151F8FBE770B5044608680D461668FFF71EFAF8
S3150801520810B92071204670BD6B681B683BB93368B5
S3150801521830461B689847012320602371F2E700236B
S31508015228FBE770B5044608680D461668FFF706FADF
S3150801523810B92071204670BD6B681B683BB9336885
S3150801524830461B689847012320602371F2E700233B
S31508015258FBE770B5044608680D461668FFF7EEF9C8
S3150801526810B92071204670BD6B681B683BB9336855
S3150801527830461B689847012320602371F2E700230B
S31508015288FBE773B5044608680D461668FFF7D6F9AD
S3150801529818B92071204602B070BD6A68336831466C
S315080152A81B686846126898479DF8043013B1009B35
S315080152B8236001232371EDE773B5044608680D4693
S315080152C81668FFF7BBF918B92071204602B070BDF8
S315080152D86A68336830461B681168984710F47F0F67
S315080152E80190C0F307431EBFBDF9043023600123AB
S315080152F82371EAE773B5044608680D461668FFF789
S315080153089DF918B92071204602B070BD6A683368DC
S3150801531830461B681168984710F47F4FADF80400AA
S31508015328C0F307231EBF9DF90430236001232371A7
S31508015338E9E773B5044608680D461668FFF77EF966
S3150801534818B92071204602B070BD6A6833683146BB
S315080153581B686846126898479DF8043013B1009B84
S31508015368236001232371EDE773B5044608680D46E2
S315080153781668FFF763F918B92071204602B070BD9F
S315080153886A68336830461B681168984710F47F0FB6
S315080153980190C0F307431EBFBDF8043023600123FB
S315080153A82371EAE773B5044608680D461668FFF7D8
S315080153B845F918B92071204602B070BD6A68336884
S315080153C830461B681168984710F47F4FADF80400FA
S315080153D8C0F307231EBF9DF80430236001232371F8
S315080153E8E9E773B5044608680D461668FFF726F90E
S315080153F818B92071204602B070BD6A68336830460C
S315080154081B681168984710F47F4FADF80400C0F37C
S3150801541807231EBF9DF80430236001232371E9E79A
S3150801542870B5044608680D461668FFF707F910B9F6
S315080154382071204670BD6B681B683BB933683046D6
S315080154481B689847012320602371F2E70023FBE7CD
S3150801545870B5044608680D461668FFF7EFF810B9DF
S315080154682071204670BD6B681B683BB933683046A6
S315080154781B689847012320602371F2E70023FBE79D
S3150801548870B5044608680D461668FFF7D7F810B9C7
S315080154982071204670BD6B681B683BB93368304676
S315080154A81B689847012320602371F2E70023FBE76D
S315080154B870B5044608680D461668FFF7BFF810B9AF
S315080154C82071204670BD6B681B683BB93368304646
S315080154D81B689847012320602371F2E70023FBE73D
S315080154E870B5044608680D461668FFF7A7F810B997
