S02B0000453A5C68676D5C7265706F735C6373322D6465765C72656C656173655C6373335C6373335C6D6169CE
S3150801000000400020490201084D0201084F0201087B
S3150801001065020108670201087D0201080000000067
S31508010020FFFFFFFF00000000000000009302010827
S3150801003095020108000000009702010899020108CB
S315080100407DF801088DF801089DF80108ADF8010849
S31508010050BDF80108CDF80108DDF80108EDF8010839
S31508010060FDF801080DF901081DF901082DF9010826
S315080100703DF901084DF901085DF901086DF9010815
S315080100807DF901088DF901089DF90108ADF9010805
S31508010090BDF90108CDF90108DDF90108EDF90108F5
S315080100A0FDF901080DFA01081DFA01082DFA0108E2
S315080100B03DFA01084DFA01085DFA01086DFA0108D1
S315080100C07DFA01088DFA01089DFA0108ADFA0108C1
S315080100D0BDFA0108CDFA0108DDFA0108EDFA0108B1
S315080100E0FDFA01080DFB01081DFB01082DFB01089E
S315080100F03DFB01084DFB01085DFB01086DFB01088D
S315080101007DFB01088DFB01089DFB0108ADFB01087C
S31508010110BDFB0108CDFB0108DDFB0108EDFB01086C
S31508010120FDFB01080DFC01081DFC01082DFC010859
S315080101303DFC0108AD020108AD0201084DFC0108AC
S315080101405DFC01086DFC01087DFC01088DFC0108B8
S315080101509DFC0108ADFC0108BDFC0108CDFC0108A8
S31508010160DDFC0108EDFC0108FDFC01080DFD010897
S315080101701DFD01082DFD0108AD020108AD020108AA
S315080101803DFD010808B500F0D5F8254D254AAA42D6
S315080101900CD2D2E900130C3252F8044CC91A9C420B
S315080101A0F5D95858043343F8040CF8E700211E4AD8
S315080101B01E4CA24208D252F8083B52F8040C984247
S315080101C0F7D919600433FAE702F064F90025184EE5
S315080101D0184CA41BA410AC4204DD56F825309847E8
S315080101E00135F8E70025144E144CA41BA410AC42A3
S315080101F004DD56F8253098470135F8E72DF0D4FF88
S3150801020006460F4D0F4C641BA410002C04DD013C5F
S3150801021055F824309847F8E7304602F03DF900BF13
S315080102208C040108800401088C040108940401085F
S31508010230940401089404010894040108A40401081B
S31508010240A4040108AC04010814480047FEE71EF09F
S31508010250040F0CBFEFF30880EFF309807146104ACB
S315080102601047FEE7FEE71EF0040F0CBFEFF3088008
S31508010270EFF3098071460B4A1047FEE71EF0040F9B
S315080102800CBFEFF30880EFF309807146064A104761
S31508010290FEE7FEE7FEE7FEE7704700008501010875
S315080102A0630201087B02010891020108FEE7FFFFCC
S315080102B01B4B1A6822F450221A601A6842F48032DB
S315080102C01A601A689103FCD50121164A520102F1F6
S315080102D0844211604FF414429A60134A116821F05E
S315080102E0040111606FF07F415160116841F001010D
S315080102F011600E4A5A601A6842F080721A601A68CA
S315080103009201FCD540F20361094A11609A6842F0EC
S3150801031002029A609A6802F00C02082AFAD170471A
S31508010320003802407438020010E000E00C3C400539
S31508010330003C024038B500244848036843F00103ED
S3150801034003608460036823F0847323F480330360B5
S31508010350434B4360036823F480230360C460FFF7BB
S31508010360A7FF404B404A9A6062B6404ADA60036981
S3150801037043F020030361036923F020030361036B40
S3150801038043F020030363BFF34F8F4FF0A043384A6E
S3150801039013604FF4004393614FF480439361436ABA
S315080103A043F480734362436A23F480734362436C64
S315080103B043F480734364036943F0010303610369EA
S315080103C023F001030361036B43F001030363BFF3E6
S315080103D04F8F284B284D996841F0010199602749AB
S315080103E04C60296841F4404129604FF48071596095
S315080103F04FF400111961072159634FF000419161CA
S31508010400996841F08041996019688907FCD5D96CCA
S31508010410B1F5946F00D30134642CF1D14FF4004344
S3150801042093614FF080439361436A43F48073436257
S31508010430436A23F480734362436C23F480734364F1
S31508010440036943F021030361036923F0210303616F
S31508010450036B23F02103036338BD00BF0038024054
S315080104601030002400ED00E0000001080003FA0541
S315080104700014024000200140000002400023014010
S3150801048080B6050800400020384100203841002088
S31508010490088C00202D250108D5810108158201083F
S311080104A0EDFE0108ED8101082D8201081E
S315080104AC70B5002604461D46C0E9001206721046B0
S315080104BC0EF02CFE606801210EF0EAFE20684FF45E
S315080104CCE1310FF035FE314620680FF053FE29460F
S315080104DC20680FF07AFE206829460FF06AFE20463E
S315080104EC70BD2DE9FF41039101A981E80C00044671
S315080104FC00681646D0E90553029F5D1B0FF0ADFD4A
S3150801050CA7EB06086B1E08F104021B1A9A4204D9BA
S3150801051C0123237204B0BDE8F0819DF80C10206804
S3150801052C0FF086FD5FFA88F120680FF081FD9DF8C2
S3150801053C0E1020680FF07CFD9DF80F1020680FF047
S3150801054C77FDBE42E6D016F8011BF7E72DE9F04117
S3150801055C0E4686B069468046306881E80C00174617
S3150801056C0FF0DBFD0328044606D80023404688F81D
S3150801057C043006B0BDE8F08106AD03AB45F8083D7D
S3150801058C059595E8060030680FF0A3FD9DF80D302A
S3150801059C0433A342E9D8042430680FF068FD013C02
S315080105ACFAD1019C9DF80D30E41B9C4228BF1C46D0
S315080105BC04972744059795E8060030680FF069FDFE
S315080105CC9DF80D30A34204D930680FF050FD013463
S315080105DCF6E703980123C8F80000C7E700680FF08F
S315080105EC96BD0000024A026000224260704700BFB5
S315080105FCF1050108024A026000224260704700BFF9
S3150801060C1516010800207047007970470171012001
S3150801061C704700797047017101207047072A97BF07
S3150801062C4B68002303EB4202138E9CBF0380012304
S3150801063C837070470020704708207047072A97BFB8
S3150801064C4B68002303EB4202138C9CBF03800123E6
S3150801065C8370704708207047072A97BF044B0023FD
S3150801066C03EB820253889CBF038001238370704776
S3150801067C0040002008207047072A97BF044B002327
S3150801068C33F82230038098BF01238370704700BF6B
S3150801069C004000200820704741680B48D1E9012326
S315080106AC824202D16BB9C869704708488242F9D0AF
S315080106BC07498A4205D1002B14BF4FF0FF30082099
S315080106CC70474FF0FF307047310C0108B10C010827
S315080106DCF10501080020704737B50D4604460C4B49
S315080106EC0C4900930233019302AB13E90C0005F193
S315080106FC0C000968FFF7F5FE05F154000A2101F013
S3150801070CA9FE054B204623600023636003B030BD68
S3150801071C9DFE030860FE03080112010830B591F825
S3150801072C2C300C46B3FA83F3054685B004AA5B094B
S3150801073C02F80C3D81F84D300DF105030B49039375
S3150801074C029204AB13E90C0004F10C000968FFF7DB
S3150801075CC8FE04F154000A2101F07CFE044B28461C
S3150801076C2B6000236B6005B030BD00BF50FE03083B
S3150801077C3512010837B50D4604460C4B0C49009346
S3150801078C0533019302AB13E90C0005F10C0009685A
S3150801079CFFF7A7FE05F154000A2101F05BFE054B94
S315080107AC204623600023636003B030BDBBFE0308FB
S315080107BC54FE03086912010838B5074B0446036051
S315080107CCC06D20B1056801F0A1FE2846F9E720465F
S315080107DC01F0FAFB204638BD6CFE030810B5044639
S315080107ECFFF7EAFF2046DC2101F092FE204610BDF8
S315080107FC02780B789A420DD142784B789A4209D3F2
S3150801080C82788B789A4205D1C078CB78C31A58422C
S3150801081C584170470020704782B002AB03E90300C8
S3150801082C3D4ADDE90030934206D1003018BF01205C
S3150801083C404280B202B07047384A934205D100282B
S3150801084C4FF6FF7008BF0120F4E7354A934205D1EC
S3150801085C00284FF6FF7008BF0220EBE7314A934296
S3150801086C05D100284FF6FF7008BF0320E2E72E4A90
S3150801087C934205D100284FF6FF7008BF0420D9E72B
S3150801088C2A4A934205D100284FF6FF7008BF052066
S3150801089CD0E7274A934205D100284FF6FF7008BFC7
S315080108AC0620C7E7234A934205D100284FF6FF7065
S315080108BC08BF0720BEE7204A934205D100284FF608
S315080108CCFF7008BF0820B5E71C4A934205D10028DA
S315080108DC4FF6FF7008BF0920ACE7194A934205D1B8
S315080108EC00284FF6FF7008BF0A20A3E7154A934262
S315080108FC05D100284FF6FF7008BF0B209AE7124A5C
S3150801090C934205D100284FF6FF7008BF0C2091E7DA
S3150801091C4FF6FF708EE700BFE90F0108690E010853
S3150801092C59100108B91101080112010835120108FB
S3150801093C69120108A9120108DD1201081516010828
S3150801094C35180108251901087D17010808B54368EA
S3150801095C183393E80300FFF75FFF08BD08B5436832
S3150801096C203393E80300FFF757FF08BD70B5002540
S3150801097C04460160C0E9015529460C3001F064FDB5
S3150801098C102608233246E36129466575E5822583D7
S3150801099C658304F120002EF08EFD3246294604F1BA
S315080109AC30002EF088FD0A4B2046C4E91034094B59
S315080109BCC4E91234084BC4E91434084BC4E9163497
S315080109CC074BC4E91834074BC4E9013570BD00BFA0
S315080109DCACFD0308BCFD0308D0FD0308E4FD0308C0
S315080109ECF8FD0308810B0108437D017503B17047B6
S315080109FC0123437570470000437D37B50446C3B1DF
S31508010A0C6D460C3001F03BFDA36828465A1013F0CD
S31508010A1C010F04EB0201636818BFA25804F1040420
S31508010A2C18BFD358984795E8030084E8030003B028
S31508010A3C30BD024AC0E90123F9E700BF810B010861
S31508010A4C4FF6FF720823C282C3610283428300F107
S31508010A5C200300F130018B4202D023F8022BFAE76E
S31508010A6C4FF6FF7200F140018B4202D023F8022B9C
S31508010A7CFAE7437D0BB1002343757047022330B562
S31508010A8C85B08DF8053091F82C300C46002B0CBF2F
S31508010A9C02220022054604AB03F80C2D02930E49DB
S31508010AAC0DF10603039304AB13E90C0004F10C00D6
S31508010ABC0968FFF716FD0A2104F1540001F0CAFC76
S31508010ACC04F16000FFF7BCFF044B28462B6000239A
S31508010ADC6B6005B030BD00BF4CFE0308DD12010882
S31508010AEC002200B589B006928DF81C20C8228BB25B
S31508010AFC01918DF81530090C1B128DF816308DF8ED
S31508010B0C171005AB091203938DF81B208DF81810D5
S31508010B1C027D0DF11D030649049303AB8DF81420D0
S31508010B2C00680CCB0968FFF7DCFC09B05DF804FB1F
S31508010B3C8DFE030838B5CB690C46072B88BF0023F5
S31508010B4C054688BFCB61CA69084B204653F8221063
S31508010B5CFFF7C6FF04F10C004FF4C87101F07AFCDB
S31508010B6C034B28462B6000236B6038BD00400020E0
S31508010B7C310C01084B7D10B504461BB1FFF7DAFFA2
S31508010B8C204610BD014AC0E90023F9E7810B01088B
S31508010B9C38B50D460446CA69084B284653F822103F
S31508010BACFFF79EFF05F10C004FF4C87101F052FCDA
S31508010BBC034B204623600023636038BD00400020A8
S31508010BCCB10C010870B5002205460823084601F147
S31508010BDC200634463188248A0236A14228BF21468A
S31508010BECB1F5005F07D2082B15D000EB4304248C12
S31508010BFC8C4288BF13460132082AEAD1082B04D045
S31508010C0C064A52F82310FFF76BFF054B28462B6053
S31508010C1C00236B6070BD1346EDE700BF0040002052
S31508010C2CF105010870B5CB690446C8685A0040B984
S31508010C3C4FF6FF758818068CAE4204BF4FF6FE7543
S31508010C4C05844FF6FF700A44128C824220D0072B7A
S31508010C5C13D1CB6901EB4302128CB2F5005F04D3B5
S31508010C6C2046FFF795FF204670BD1BB92046FFF7B6
S31508010C7CA9FFF8E7013BCB61EBE70848013330F8EC
S31508010C8C23009042E5D2CB612046FFF753FFEAE7F2
S31508010C9C034B236000236360E5E700BF0040002097
S31508010CAC310C010838B5CA68CB6904465B0042B9F0
S31508010CBC4FF6FF70CA18158E854204BF4FF6FE70A3
S31508010CCC10860B441A8E4FF6FF739A4213D04FF6C1
S31508010CDCFE72CB6923B92046FFF774FF204638BD4F
S31508010CEC013BCB6101EB43031B8C9342F1D12046AB
S31508010CFCFFF74EFFF2E7024B236000236360EDE733
S31508010D0CB10C010838B504460C200D4601F0F0FB70
S31508010D1C0346021D95E8030082E80300E26DE365CC
S31508010D2C1A6038BD2DE9F0438DB06B4683E8060091
S31508010D3C90F84F3006469BB3551A142D28BF142527
S31508010D4C002405F1040905AF4A468846384621466A
S31508010D5C0B942EF0B0FB214696F84E300B9A8DF873
S31508010D6C1430B6F852304A448DF815301B120B92D2
S31508010D7C8DF816308DF81750A94205D018F80120B0
S31508010D8C7B181A710131F7E70B9B07493B44CDE9EF
S31508010D9C037303AB0CCB096806F10C00FFF7A1FB37
S31508010DAC0DB0BDE8F08300BFC0FE030838B5054693
S31508010DBC0C4652B101F1200301F1180292E8030025
S31508010DCC83E80300012384F83830206900210EF0EA
S31508010DDC5FFA04F154004FF4967101F03BFB034B97
S31508010DEC28462B6000236B6038BD00BFE90F01084C
S31508010DFC7FB50446543001F042FB04F1C80001F0FA
S31508010E0C3EFB04F1D00001F03AFBE36902AE5A103D
S31508010E1C13F0010F04EB0201A36918BFA25830465F
S31508010E2C18BFD35804F11805984796E8030085E8C6
S31508010E3C030004F16000FFF7DFFD237D5BB100239E
S31508010E4C6E462146304623750122FFF7AFFF96E819
S31508010E5C030085E8030004B070BD00002DE9F043DA
S31508010E6C002604460D46B046DFF8749085B0CDE9E8
S31508010E7C028802AF97E80C0005F10C016846FFF7EA
S31508010E8C65FB9DF804304BB1009B494638460293E5
S31508010E9CFFF7AEFC002818BF0646E8E77EB102222A
S31508010EAC85F84D2095F84F200AB185F84F300A4B35
S31508010EBC236000236360204605B0BDE8F0836B6DA3
S31508010ECC2BB9012229462046FFF770FFF3E7034B9E
S31508010EDCC4E90036EFE700BF59100108690E01088D
S31508010EEC89FE03082DE9F04184B091F84C3000AF26
S31508010EFC022B06460C4607D00122FFF757FF304650
S31508010F0C1037BD46BDE8F08138460EF019FFD7E912
S31508010F1C0012521A02F10C0323F00703ADEB030D71
S31508010F2CB4F850300DF1050E8DF800301B128DF802
S31508010F3C013000236D46704602F105088DF8023022
S31508010F4C8DF803308DF8042002F1FF3CBCF1000F3B
S31508010F5C04DB0EF8013B0CF1FF3CF7E70AB12EF066
S31508010F6C91FABD600A494544FD6007F1100313E97E
S31508010F7C0C00096804F10C00FFF7B3FA0A2104F115
S31508010F8C540001F067FA034B336000237360B6E72C
S31508010F9C5CFE0308A912010837B50D4604460C4B2D
S31508010FAC0C4900930133019302AB13E90C0005F1CB
S31508010FBC0C000968FFF795FA05F15400642101F054
S31508010FCC49FA054B204623600023636003B030BD04
S31508010FDC88FE030884FE0308690E010838B50D4618
S31508010FEC0446012128690EF053F96B6D4BB905F1CD
S31508010FFC0C00FFF7F3FA29462046FFF7CDFF2046EA
S3150801100C38BD024B236000236360F8E7E90F01083A
S3150801101C73B500250E460446CDE90055094902ABC0
S3150801102C13E90C0006F10C000968FFF75AFA06F1E8
S3150801103C54000A2101F00EFA2046034BC4E9003587
S3150801104C02B070BD58FE0308B911010891F82C209D
S3150801105C10B5012A044605D891F8343043B1FFF787
S3150801106CD7FF03E0044B036000234360204610BD01
S3150801107CFFF732FBFAE700BF5910010838B50C46E1
S3150801108C054691F84E1004F16000FFF7ADFC04F12A
S3150801109CC80001F0DCF904F1D00001F0D8F90023FD
S315080110AC034A84F83830C5E90023284638BD00BF01
S315080110BC2519010882B02DE9F04F89B000AFFB6400
S315080110CC99463B6D0646FB60D7E915A3A3EB0A05C2
S315080110DCBB6005F1090323F00703ADEB030D0C46C1
S315080110ECE8469346AA1C0DEB02037B6001F10C033F
S315080110FC3B607B68C7F81880FB6107F1200313E98D
S3150801110C0C00396807F11000FFF720FA3B7D9BB9F3
S3150801111C636D5BB9012221463046FFF747FE30461F
S3150801112C2437BD46BDE8F04F02B07047183494E831
S3150801113C030086E80300F2E73B7C202BD9D17B7CA4
S3150801114C012BD6D9B97C9BF802209142D1D1F97CD5
S3150801115C9BF803209142CCD198F80020002AD9D1CA
S3150801116C98F80120002AD5D1BA68A3F1020B924549
S3150801117C0FD1FB68FA685B1084F84CB0D20704EB04
S3150801118C030148BFE358304648BF53F80990C8478E
S3150801119CC5E75D452A4628BF5A46002AE9D008F113
S315080111AC020150462EF063F9E3E70000002330B53F
S315080111BC04460D4689B0CDE9043301AA04A903C92D
S315080111CC82E803000093084A084B29462046FFF794
S315080111DC71FF2268064B9A4203D163680BB985F8ED
S315080111EC3430204609B030BD58FE0308E50601081F
S315080111FC01120108002330B504460D4689B0CDE924
S3150801120C043301AA04A903C982E803000093204602
S3150801121C034B044A2946FFF74DFF204609B030BD5A
S3150801122C2907010860FE0308002330B504460D465C
S3150801123C89B0CDE9043301AA04A903C982E80300DC
S3150801124C00932046034B044A2946FFF733FF2046F1
S3150801125C09B030BD8107010850FE030830B501F10C
S3150801126C500389B0049301F15203059304AA01AB07
S3150801127C05460C4692E8030083E80300002328463A
S3150801128C0093044A044B2146FFF714FF284609B07C
S3150801129C30BD00BF54FE0308F10E0108002330B51A
S315080112AC04460D4689B0CDE9043301AA04A903C93C
S315080112BC82E8030000932046034B044A2946FFF7AC
S315080112CCF9FE204609B030BD890A01085CFE0308FF
S315080112DC002330B504460D4689B0CDE9043301AA7D
S315080112EC04A903C982E8030000932046034B044A68
S315080112FC2946FFF7DFFE204609B030BD0106010875
S3150801130C4CFE0308F0B587B004460846694681E8E1
S3150801131C0C001649FFF76CFA9DF830609DF834708D
S3150801132C054668B1009A137A8DF80F301FB976B154
S3150801133C527BFF2A0BD094F84F2084F84E3012B109
S3150801134C284607B0F0BD012384F84F30F8E706AB01
S3150801135C0DF10F0243F8082D054905930CCB0968C5
S3150801136C04F10C00FFF7BDF8EAE700BFB3FE03086A
S3150801137C99FE0308F0B587B005460846694681E823
S3150801138C0C001A49FFF734FA9DF830700446E8B197
S3150801139C009B05F10C0093F800C003AE0DF10E028B
S315080113AC134904ABAFB195F84F7097B195F84E50F8
S315080113BC65450ED10124CDE9046209680CCB8DF87B
S315080113CC0D408DF80C503C46FFF78BF8204607B0BC
S315080113DCF0BD0025CDE9046209680CCBADF80C50BB
S315080113EC8DF80CC0FFF77DF8F0E700BFA7FE0308E0
S315080113FCA3FE0308F0B585B00F466946054681E894
S3150801140C0C0038461249FFF7F3F90646E0B1009C81
S3150801141C95F84E3022789A4216D12379A3B9637975
S3150801142C93B97B78A279073B9A420DD1ED6DE71DED
S3150801143C55B1A379281D07332344CDE9027302A9B3
S3150801144C6B6898472D68F3E7304605B0F0BD00BFC9
S3150801145C9FFE0308F7B5044626460D46174600F0C7
S3150801146CBBFD254B3A4646F80C3B2946012330462B
S3150801147CFFF716F8214B0025A362214B2946236356
S3150801148C204BC4E90655C4E90F341F4BC4E908556A
S3150801149CC4E91134022384F82C5084F84D3084F8AD
S315080114AC345084F8385084F84C5084F84F502565DC
S315080114BC04F1540000F0C8FF31466E46E56504F1A7
S315080114CC6000FFF753FA192104F1C80000F0BCFFBC
S315080114DC332104F1D00000F0B7FF214630462A46E5
S315080114ECFFF764FC96E8030004F1180383E803008C
S315080114FC204603B0F0BD00BF6CFE03080CFE0308C2
S3150801150C1CFE03082CFE03083CFE030808B513460B
S3150801151C0A1A06D019462DF09BFFB0FA80F040093D
S3150801152C08BD0120FCE700002DE9F341884602A914
S3150801153C01E90C00D0E901352F4A04469342009E75
S3150801154C42D1B5FA85F700257F092C494046FFF7A4
S3150801155C4FF9E0B1637D002B33D0227D33789A4263
S3150801156C2FD1B378727842EA0322E2823179F37881
S3150801157C43EA01232383B179737943EA012363830C
S3150801158CE369072B03D857B304EB43031A841C4AA4
S3150801159C08F104014046FFF7B9FF90B1637D83B1A9
S315080115AC338873B1E269072A0BD84FF6FD7103F537
S315080115BC00538B4228BF0B469BB2B7B104EB4204CE
S315080115CC238402B0BDE8F0810E4A934209BFB5FAED
S315080115DC85F500276D09002718BF3D46B5E7002D8F
S315080115ECD5D004EB43031A86D1E7002DE9D004EBD9
S315080115FC42042386E5E700BF310C010895FE030872
S3150801160C91FE0308B10C01082DE9F04191F834302B
S3150801161C96B006460C46002B4CD191F82C30023B61
S3150801162C012B47D907AF01F10C0816AB05970693A1
S3150801163C05AD95E80C00414603A8FEF787FF9DF812
S3150801164C103033B91E4A32607360304616B0BDE8A5
S3150801165CF08116AB0597069395E80C0003A904F1DE
S3150801166C6000FFF761FF16AB069394F82C300597CB
S3150801167CB3FA83F35B0901930123009395E80C00F4
S3150801168C03A92046FFF73EFE48B14FF4FA7104F15F
S3150801169C540000F0DFFE0B4B33600023D4E716AB86
S315080116AC00900597069395E80C0003A92046FFF7C9
S315080116BC61FEBAE7002221463046FFF777FBC4E7FD
S315080116CC151601083518010837B50546084602A945
S315080116DC01E90C000C4A011D9DF81840FFF716FF8D
S315080116EC60B1009A137903F001004CB130B1204670
S315080116FC9178537843EA0123A5F8523003B030BDEB
S3150801170CD84300F00100F9E7B7FE030813B5044600
S3150801171C084602A901E90C00074A011DFFF7F6FE66
S3150801172C38B1009B5A781B7853EA022318BFA4F8E0
S3150801173CD83002B010BD00BFABFE030813B5044682
S3150801174C084602A901E90C00084A011DFFF7DEFE4D
S3150801175C48B194F84F0030B1009B987894F84E3004
S3150801176CC31A5842584102B010BD00BFAFFE030858
S3150801177C2DE9F04106460D4694B005AF01F10C086A
S3150801178C14AB0397049303AC94E80C00414601A8E7
S3150801179CFEF7DCFE9DF8083073B96A6D42B9002272
S315080117AC29463046FFF702FB304614B0BDE8F081F6
S315080117BC0C4AC6E90023F7E714AB0397049394E89C
S315080117CC0C0001A905F16000FFF7AEFE14AB0397F7
S315080117DC049394E80C0001A92846FFF7AFFF0028EB
S315080117ECCED0DCE77D17010837B50C46054601F165
S315080117FC4E03009301F14F030A49019302AB13E916
S3150801180C0C0004F10C000968FEF76BFE04F1540098
S3150801181C322100F01FFE28462146FFF7A9FF28466C
S3150801182C03B030BD99FE03082DE9F04391F82C302D
S3150801183C97B0032B06460C465ED04B6D002B5BD03E
S3150801184C07AF01F10C0816AB0597069305AD95E89C
S3150801185C0C00414603A8FEF779FE9DF8103033B902
S3150801186C2C4AC6E90023304617B0BDE8F0834FF081
S3150801187C010916AB0597069395E80C0003A904F123
S3150801188C6000FFF751FE16AB05970693CDF800904D
S3150801189C95E80C0003A92046FFF716FF20B121464F
S315080118AC3046FFF7EBFBDEE716AB0597069395E893
S315080118BC0C0003A92046FFF741FF28B14A462146E9
S315080118CC3046FFF773FACEE7CDE9000003A995E890
S315080118DC0C002046FFF716FD16AB069394F82C3030
S315080118EC0597B3FA83F35B09009395E80C0003A9F2
S315080118FC2046FFF73FFDA6E704F1200304F1180281
S3150801190C92E8030083E8030021463046FFF76CFF93
S3150801191CA9E700BF351801082DE9F04791F82C30D5
S3150801192C96B0032B07460C4602D1FFF75DFF3CE048
S3150801193CD1F8C83001F10C0807AE63B9CDE9073304
S3150801194C4E49404696E80C000968FEF7CAFD04F1B3
S3150801195CC80000F07CFDDFF82C9105AD16AB059699
S3150801196C069395E80C00414603A8FEF7EFFD9DF892
S3150801197C1030002B71D016AB0596069395E80C0022
S3150801198C03A904F16000FFF7CFFD16AB0596069384
S3150801199C95E80C0003A92046FFF7D0FE824640B114
S315080119AC002221463846FFF701FA384616B0BDE83B
S315080119BCF08795E80C0003A92046FFF71BFDCDE936
S315080119CC00AA16AB0596069395E80C0003A92046C2
S315080119DCFFF798FC16AB069394F82C300596B3FAD8
S315080119EC83F35B09009395E80C0003A92046FFF7DE
S315080119FCC1FC16AB0596069395E80C0003A920467F
S31508011A0CFFF784FE38B104F1C80000F020FD04F19B
S31508011A1CD00000F01CFD16AB069300230596009327
S31508011A2C95E80C0003A92046FFF74EFE10B1214696
S31508011A3C38467AE7494603A8FEF7DAFE00288DD020
S31508011A4C9DF81C30002B89D19DF81D30002B85D1B2
S31508011A5C04F1D00000F0FBFC80E7D4F8D02042B9A1
S31508011A6C04F1200304F1180292E8030083E8030049
S31508011A7CDDE7034AC7E9002397E700BF44FE0308DD
S31508011A8C2519010848FE030810B50446164B40F8FB
S31508011A9CA03B00F0DBFD04F1900001F06BFE04F1B4
S31508011AAC800001F067FE04F1700001F063FE04F199
S31508011ABC600001F05FFE04F1500001F05BFE04F1D9
S31508011ACC400001F057FE04F1300001F053FE04F119
S31508011ADC200001F04FFE04F1100001F04BFE2046E8
S31508011AEC00F072FA204610BDCCFE030810B5044668
S31508011AFCFFF7CAFF2046C42100F00AFD204610BD97
S31508011B0CC368A03093F8381000F06EBD38B504469A
S31508011B1C0D4600F061FA254B05F128022360E560B4
S31508011B2C234904F1100001F0D7FD05F130022149D2
S31508011B3C04F1200001F090FD05F13C021E4904F167
S31508011B4C300001F0AFFD05F144021C4904F14000D7
S31508011B5C01F0A8FD05F1A002194904F1500001F0A4
S31508011B6CAEFD05F1A802174904F1600001F0DBFD91
S31508011B7C05F1B002144904F1700001F0D4FD05F128
S31508011B8CB802124904F1800001F0CDFD05F1C0023D
S31508011B9C0F4904F1900001F0C6FD02220D4904F12A
S31508011BACA00000F02FFD204638BD00BFCCFE03086F
S31508011BBC4C4004089C360408E43204085C3B0408CF
S31508011BCCA4330408443A04083C3A0408B439040812
S31508011BDCE43A04083027040803683A4A934207D1C1
S31508011BEC394A536C43F001035364BFF34F8F704763
S31508011BFC364A934205D1344A136C43F001031364F4
S31508011C0CF3E7334A934204D12F4A136C43F0020388
S31508011C1CF5E7304A934204D12B4A136C43F004037B
S31508011C2CEDE72D4A934204D1274A136C43F0080376
S31508011C3CE5E72A4A934204D1234A136C43F010036D
S31508011C4CDDE7274A934204D11F4A136C43F020035C
S31508011C5CD5E7244A934204D11B4A536C43F0020339
S31508011C6CC2E7214A934204D1174A536C43F4803391
S31508011C7CBAE71E4A934204D1134A536C43F4003310
S31508011C8CB2E71B4A934204D10F4A536C43F480239F
S31508011C9CAAE7184A934204D10B4A136C43F0400342
S31508011CACADE7154A934204D1074A136C43F08003F6
S31508011CBCA5E7124A934298D1034A136C43F48073ED
S31508011CCC9DE700BF000001400038024000000040BB
S31508011CDC0004004000080040000C004000100040C1
S31508011CEC001400400004014000400140004401403A
S31508011CFC0048014000180040001C0040002000402C
S31508011D0C70B5154604460E4601F50562296801F0BB
S31508011D1CC9FC06F65C02A96804F1100001F0C2FCC4
S31508011D2C06F66402696804F1200001F0BBFC06F6AC
S31508011D3C6C02296904F1300001F0CEFC06F6740236
S31508011D4CE96804F1400001F0C7FC204670BD10B5E6
S31508011D5C0446403001F00EFD04F1300001F00AFD95
S31508011D6C04F1200001F006FD04F1100001F002FD5A
S31508011D7C204601F0FFFC204610BD30B5C1F1200507
S31508011D8CA1F12004D0E9023000FA05F520FA04F491
S31508011D9C012023FA01F129439040214301380840D7
S31508011DAC30BD30B58468C068C2F14003591A00BA0F
S31508011DBCC1F12005A1F1200320FA01F1012024BA71
S31508011DCC04FA05F5294324FA03F39040194301381B
S31508011DDC084030BD9C4601232DE9F04FD0E9026736
S31508011DECA2F12009C2F1200803FA02FA03FA09FB47
S31508011DFC23FA08F81AF1FF344BEA080B4BF1FF35B5
S31508011E0CA1F1200904FA09F905FA01F3C1F120082F
S31508011E1C24FA08F843EA090343EA0803A1F120095D
S31508011E2CC1F120080CFA09FB2CFA08F84BEA080B45
S31508011E3C0CFA01FA04FA01F28BEA07058AEA060496
S31508011E4C02EA040803EA050988EA060289EA07038D
S31508011E5C4FF0000EC0E90223BDE8F08F2DE9F04FD3
S31508011E6C93FA83FE01234FF0000CA2F12009C2F16B
S31508011E7C2008C2F1400403FA09FB23FA08F803FA0D
S31508011E8C02FA611A1AF1FF364BEA080B4BF1FF37C6
S31508011E9CA1F1200906FA09F907FA01F3C1F120089B
S31508011EAC26FA08F843EA09030EFA01F9D0E90245BC
S31508011EBC43EA080306FA01F289EA05078CEA0406DD
S31508011ECC02EA060803EA070988EA040289EA05030D
S31508011EDCC0E90223BDE8F08F0023C361704703688C
S31508011EEC9B681847F0B5C37C85B0C3F380120669A5
S31508011EFCC3F34017009B002166F31C030093C3F33D
S31508011F0C076367F3451362F386138DF80330FF23D2
S31508011F1C0446057D8DF805300368C161CDE90211CA
S31508011F2C9B6969468DF8045098476946E06808F03C
S31508011F3C21FA05B0F0BD816931B1C3690A339942F9
S31508011F4CC36101D8FFF7CEBF70470000F8B5044648
S31508011F5C15460F461E4600F03FF80D4B21692360C6
S31508011F6C2B68EA7863F31C012161C2F34013C1F3B0
S31508011F7C076163F34511069BC2F38012A361002323
S31508011F8C62F38611E760E1742675E3612046F8BDB4
S31508011F9CECFE030810B50446024B036000F014F876
S31508011FAC204610BDECFE03084068704780887047D0
S31508011FBC8368994205D3C368994202D841600120C6
S31508011FCC7047002070477047704710B504460C21BE
S31508011FDC00F09EFA204610BD024A02600022C0E9B2
S31508011FEC0122704730FF030838B5054655F8104FDE
S31508011FFCAC4206D054F8043C201F9B6898472468C9
S3150801200CF6E738BD38B5054655F8104FAC4206D03B
S3150801201C54F8043C201FDB6898472468F6E738BD5A
S3150801202C38B5054655F8104FAC4206D054F8043C61
S3150801203C201F1B6998472468F6E738BD38B505464D
S3150801204C55F8104FAC4206D054F8043C201F5B6976
S3150801205C98472468F6E738BD0346002110B553F8AE
S3150801206C042F934204D01468C2E900112246F8E7FA
S3150801207CC0E90133016010BD10B50446044B40F8A4
S3150801208C0C3BFFF7E9FF2046FFF79EFF204610BDE4
S3150801209C50FF030810B50446FFF7EEFF204618213A
S315080120AC00F036FA204610BD10B50446044B40F82C
S315080120BC0C3BFFF7D1FF2046FFF7DEFF204610BD8C
S315080120CC70FF030810B50446FFF7EEFF20461821EA
S315080120DC00F01EFA204610BD10B50446FFF77CFF2A
S315080120EC044B204623600023E36004F11003C4E982
S315080120FC043310BD50FF0308436910B50A1D00F1DE
S3150801210C10048B604C6042611A60C3680133C3606A
S3150801211C10BDF8B504460546002654F8103F9C42F6
S3150801212C0AD0181F1F68C3E9006603D053F8043C8C
S3150801213C5B6898473B46F2E7C5E90444EE60F8BD8F
S3150801214C10B50446FFF7C8FF014B2046236010BDA6
S3150801215C70FF030810B5D1E901431B1B9A4237BF1F
S3150801216CA35C002303700123437010BD0020704744
S3150801217C82684068101A70474368186870470000EF
S3150801218C38B5044600F0C8F91D4D0C30224660607E
S3150801219C1C49256004F1080001F091FA00F0BCF91C
S315080121AC083004F11802E0611749A56104F1200011
S315080121BC01F085FA00F0B0F904F13002C4E90C50CB
S315080121CC124904F1380001F07AFA00F0A5F9043045
S315080121DCE06404F14802A5640D4904F1500001F0CC
S315080121EC6EFA0C4B04F1600223660B4B0B496366C2
S315080121FC0D33A36604F16C0001F0AFFA204638BD25
S3150801220C90FF03089C380408A43804084C3D0408BC
S3150801221CEC3B0408A0FF0308ACFF0308B43B040815
S3150801222C10B504466C3001F0A5FA04F1500001F022
S3150801223CA1FA04F1380001F09DFA04F1200001F02D
S3150801224C99FA04F1080001F095FA204610BD0079B7
S3150801225C7047002070470000024A02600022027192
S3150801226C02727047C4FF030829B1037A83F001038C
S3150801227C0371017270470B46FAE719B9037A0371B0
S3150801228C017270470023FAE7B0F904007047002081
S3150801229C7047406870478088704700797047C368F3
S315080122AC01718360704719B9C368017183607047FE
S315080122BC836823B1013B83600023037170470123B3
S315080122CCFBE70000034A026000220271C0E9022101
S315080122DC704700BFC4FF030800220271704770479C
S315080122EC054B1B68DB6B19440379016003B1704715
S315080122FC01230371704700BF38410020037953B19C
S3150801230C074A01681268D26B91424FF0000204D257
S3150801231C0271184670470123FBE71346F9E700BF1C
S3150801232C3841002013B50446124B1860124B08307D
S3150801233C1B6803F59F53083340F8043CFFF700FF6D
S3150801234C04F12000FFF7FCFE00236068E36384F8C0
S3150801235C3830236403694FF47A715B6810309847F7
S3150801236C064B60686946CDE9003409F009F920463F
S3150801237C02B010BD3841002018440020C1230108C1
S3150801238C38B5C36B04460133C36340688369183097
S3150801239C1B68984794F8383005461BB104F10800B8
S315080123ACFFF73EFE6068836918301B689847401B27
S315080123BC206438BD4068FFF7E3BF000090F8383059
S315080123CC70B504462BBB00F10806304604F120050E
S315080123DCFFF70AFE2846FFF707FE0E4B186802F0B0
S315080123EC87F83046FFF70EFE2846FFF70BFE01234A
S315080123FC84F8383094F838301BB12846FFF710FEAC
S3150801240CF8E73046FFF71AFE2846BDE87040FFF795
S3150801241C15BE70BD5441002037B5044600256946E2
S3150801242C4068CDE9005509F0ABF804F12000FFF737
S3150801243C3BFE04F10800FFF737FE2046014B1D60F1
S3150801244C03B030BD38410020C0E90011704743681C
S3150801245C03607047C0E900117047436833B10268DD
S3150801246C64205043B0FBF3F398B270471846704793
S3150801247C08B5FFF7F2FFC0F1640080B208BD036826
S3150801248C0BB1013B036070477047FEE708B5FFF7D0
S3150801249CFCFF08B52CF0D6FF582303604FF0FF302C
S315080124AC08BD0000044B1A681118196003498B689A
S315080124BC03448B6010467047504000204041002071
S315080124CC0346094A10B511680131116041070749DC
S315080124DC18BF20F00703086818BF0833C4180C6026
S315080124EC91680B44936010BD404100205040002078
S315080124FCFFF7E6BFFFF7E4BFFFF7E2BF024A5368EF
S3150801250C01335360704700BF40410020FFF7F6BF07
S3150801251CFFF7F4BFFFF7F2BF0048704740410020B0
S3150801252C024B0349034A5B1AD360704700C001206A
S3150801253C088C002040410020303809288CBF002027
S3150801254C01207047FEE70346012029B1CA0748BF97
S3150801255C584349085B43F8E770475B1A10B507D02F
S3150801256C121A05D0029C241A634393FBF2F31944FD
S3150801257C084610BDF0B5002204460D464FF08043BF
S3150801258C9D4208BF944206D2910841EA8371980884
S3150801259C0A460346F4E70020002152EA030616D040
S315080125AC161843EB0107BD4208BFB44205D3A41B59
S315080125BC65EB0705B01847EB0301960846EA8376DF
S315080125CC9F0849084FEA300032463B46E5E7F0BD1D
S315080125DC4068704741600120704700880B88984213
S315080125EC2CBF002001207047037D2BB921B1C3698B
S315080125FC7E2B9CBF0133C361017570470023C361F0
S3150801260C03757047002310B504460273074AC0E9DF
S3150801261C00330261064A0375C0E90623054B81603E
S3150801262C0146186800F07EFC204610BD1CFE030806
S3150801263C140004085041002010B5044602EB410170
S3150801264C1A46FFF7DFFF204610BD000010B50446F9
S3150801265C034B0146186800F05EFA204610BD00BF10
S3150801266C504100200C3000F02BB8000038B5044658
S3150801267C0D46FFF7B1FC2046034B294640F80C3BA7
S3150801268C00F035F8204638BD2400040810B5044678
S3150801269C044B40F80C3BFFF7D9FF2046FFF794FC97
S315080126AC204610BD2400040810B504462430FFF753
S315080126BCFAFD94F828102046BDE81040FFF794BFA0
S315080126CC10B50446FFF79AFF04F124000021BDE872
S315080126DC1040FFF7E4BD38B504461D46FFF792FFD7
S315080126EC294604F12400FFF7EDFD204638BD38B51F
S315080126FC05460C460A790968FFF784FFA16805F1B6
S3150801270C2400FFF7DFFD284638BD002070474368D3
S3150801271C58697047002070474368586970474B6879
S3150801272C5969914281BF196914235A438B5891BF30
S3150801273C00231B88038001238370704743685869FB
S3150801274C704710B5D1E901431B1BB2EBA30F37BF79
S3150801275C54F82230002303600123037110BD8368EA
S3150801276C4068181A801070474068704750F80C3F3B
S3150801277C984203D01A7D12B91B68F9E70022104654
S3150801278C70474B6810B55969044691420AD9142009
S3150801279C1B6900FB0230FFF7E9FF01232070637008
S315080127AC204610BD0023FAE7002250F80C3F984248
S315080127BC03D0D9691B680A44F9E7104670474B6878
S315080127CC10B55969044691420AD914201B6900FBB4
S315080127DC0230FFF7E9FF012320602371204610BD63
S315080127EC0023FAE738B5054655F80C4FA54204D02F
S315080127FC2046FFF703FF2468F8E738BD03790A7BFF
S3150801280C934228BF13460371036900F10C024B600E
S3150801281C0A600161196083680133836070478B68AC
S3150801282C0A7B0360002310B5836000F10C03027167
S3150801283CC0E90333FFF7E2FF10BD0423024670B566
S3150801284C0025037152F80C3F934213D099420AD1D1
S3150801285CD1E90046346066608468013C8460C1E94C
S3150801286C00551B68F0E71C7B0679B44228BF344631
S3150801287C0471F6E770BD0246002110B552F8043F03
S3150801288C9A4204D01C68C3E900112346F8E710BD27
S3150801289C10B5044640B10830FFF7EDFF2046BDE8F8
S315080128AC10401421FFF734BE10BD000070B5044664
S315080128BC1C4B40F8F43B00F05DFF04F1DC0000F022
S315080128CC59FF04F1C40000F055FF04F1AC0000F007
S315080128DC51FF04F1800000F04DFF04F1540000F0A3
S315080128EC49FF04F13C0000F045FF04F1240000F017
S315080128FC41FFD4E9045616F1FF3605D305F1080054
S3150801290CFFF7B9FF1435F6E7A36913B12069FFF789
S3150801291CBFFF0022044B20461A60FFF755FB2046E1
S3150801292C70BD00BFA40004085041002010B5044630
S3150801293CFFF7BCFF20464FF48271FFF7E9FD2046ED
S3150801294C10BDD1E90023142101FB03230360704751
S3150801295C2DE9F74F88464FF0140B58F8105F0646C9
S3150801296C414601A81746FFF7ECFF019C641BA3100F
S3150801297C154C5C43002C12DD4FEA64090BFB09F379
S3150801298C3946E85805EB030AFFF727FE28B1A4EBED
S3150801299C0904013C0AF11405ECE74C46EAE7414601
S315080129AC01A8FFF7CEFF019BAB420AD0296838462E
S315080129BCFFF713FE28B1019B3360304603B0BDE81F
S315080129CCF08F3560F9E700BFCDCCCCCC13B50446F6
S315080129DC0A4601466846FFF7BBFF01A804F1100138
S315080129ECFFF7AFFFDDE90003C01A18BF012002B0DB
S315080129FC10BD13B504460A4601466846FFF7A8FFFB
S31508012A0C01A804F11001FFF79CFFDDE900038342DD
S31508012A1C03D0FFF7ABFE02B010BD0020FBE713B5E0
S31508012A2C014601A851F8104FFFF78BFF2046019B71
S31508012A3C1434834202D0FFF7D5FEF7E702B010BD76
S31508012A4CFFF7EDBF90F820302DE9F74F044623B177
S31508012A5C002380F82030FFF7E2FF04F16409CA4627
S31508012A6C002304F17402524502D04AF8043BFAE7F2
S31508012A7C04F19007B846002304F1A002424502D09E
S31508012A8C48F8043BFAE7214601A851F8105FFFF70D
S31508012A9C58FFDDF804B05D4516D028462E79FFF7A8
S31508012AAC65FE20B104EB8602536E01335366284644
S31508012ABCFFF77AFE30B104EB8606D6F8903001336F
S31508012ACCC6F890301435E6E70023CA4503D059F801
S31508012ADC042B1344F9E7A3630023B84503D057F82D
S31508012AEC042B1344F9E7236503B0BDE8F08F13B53E
S31508012AFC04460A4601466846FFF72AFF01A804F16F
S31508012B0C1001FFF71EFFDDE90003834201D0FFF731
S31508012B1C69FE02B010BD37B505468A680C460146F2
S31508012B2C6846FFF715FF01A805F11001FFF709FF24
S31508012B3CDDE90003834202D02146FFF77EFE03B08E
S31508012B4C30BDD0E90032142000FB02307047F0B5D5
S31508012B5C0B680468A34233D022681B6812B9246037
S31508012B6C046864601BB90C6824600C6864600468AA
S31508012B7CD4E900C50C68DCF804E0D4E9006477688C
S31508012B8CCCF80470C6F804E027682E682F60266016
S31508012B9C0E6804683668256826600C6825600E6818
S31508012BAC04687668656866600C6865601AB90C68AD
S31508012BBC226009684A601BB902681360026853608F
S31508012BCCF0BD37B5031D05460C4600930B1D02A92E
S31508012BDC41F8043D6846FFF7BAFF2B6822682A605C
S31508012BEC236003B030BD0346002210B5044643F8F2
S31508012BFC042BC0E90133FFF7E4FF204610BD0000A2
S31508012C0C2DE9F04114251646091A104B8908594322
S31508012C1C21F040414D4300F1080404EB05084445F5
S31508012C2C02F114070ED054F8083C214647F8143C17
S31508012C3C14F8043C02F108001371FFF7D4FF14349D
S31508012C4C3A46ECE77019BDE8F08100BFCDCCCC0C47
S31508012C5C2DE9F04104460025FFF7BEF94F4B504EBE
S31508012C6C2360504B04F11C021C604F4B4F49E36126
S31508012C7CC4E90455A56184F8205004F1240000F038
S31508012C8CEBFCC4E90D6504F13402494904F13C0035
S31508012C9C00F015FDC4E9136504F14C02454904F12C
S31508012CAC540000F00CFD04F1640318461022294661
S31508012CBC2CF001FC404E04F17402C4E91D60E26774
S31508012CCC3E4904F1800000F03BFD04F190031846DF
S31508012CDC102229462CF0EFFB04F1A002C4E9286066
S31508012CECC4F8A820364904F1AC0000F029FD354B8F
S31508012CFC04F1BC02C4E92F34334904F1C40000F0D1
S31508012D0C12FD324B04F1D402C4E93534304904F1CD
S31508012D1CDC0000F015FD2F4B04F1EC02C4E93B3441
S31508012D2C2D4904F1F40000F0E4FCA3697F2B2FD89C
S31508012D3C2A494FF42060FFF7DDFBD4E90456074610
S31508012D4C4DB34FF0140808FB065602463146284681
S31508012D5CFFF756FF6169024608FB01513046FFF73A
S31508012D6C4FFF0646D4F8148018F1FF3805D305F140
S31508012D7C0800FFF780FD1435F6E72069FFF788FD93
S31508012D8C174BF61BB6105E43802327616661A36158
S31508012D9C2046BDE8F0810646F2E700BFA400040808
S31508012DAC44000408504100201CFE03085C4004083A
S31508012DBC4C330408943504085400040844390408AF
S31508012DCC5C3A040868000408444004087C000408BA
S31508012DDC3C400408900004086440040844B60508FD
S31508012DECCDCCCCCC2DE9F74F1E46D2F800808146C6
S31508012DFCD1E9012308680C469342A8EB000100911E
S31508012E0C06F1080A54D1444DEA1A01D12CF008FBF3
S31508012E1C002B39D0934201D81D461D4414203F4935
S31508012E2C6843FFF767FBD4F800B007460246BBF1C7
S31508012E3C000F04D041465846FFF7E2FE02463168B8
S31508012E4C02F1080011603179019211715146FFF7AF
S31508012E5CCAFE019A02F11406BBF1000F19D014200F
S31508012E6C6168324600FB01B14046FFF7C9FE0646CA
S31508012E7CD4F8048018F1FF3808D30BF10800FFF7D2
S31508012E8CFAFC0BF1140BF5E70125C6E72068FFF7E9
S31508012E9CFFFCF21B224E92107243C4E901252760EE
S31508012EAC4846009B1F44C9F8007003B0BDE8F08F73
S31508012EBC14235343C21842450DD13168C150337995
S31508012ECC5146137102F10800FFF78DFE6368013351
S31508012EDC63602768E4E7A2F1140511462846FFF753
S31508012EEC8FFE63680133636045450BD055F8143D75
S31508012EFC6B612B7905F108012B7605F11C00FFF79F
S31508012F0C60FEF1E7336851462B60337905F1080009
S31508012F1C2B71FFF756FEDCE7CCCCCC0C44B6050876
S31508012F2CCDCCCCCC2DE9F04704460D4688B08A6841
S31508012F3C04F1100701466846FFF70AFD394603A84E
S31508012F4CFFF7FFFC0098039B2946834204D0FFF741
S31508012F5C55FC08B0BDE8F08703A8FFF760FC002311
S31508012F6C384601932569FFF7ECFD4FF0140A8046A4
S31508012F7C441BA310134C5C437CB166080AFB06F38D
S31508012F8C0399E85805EB0309FFF727FB18B1013C30
S31508012F9C09F11405A61B3446EEE7A845019509D196
S31508012FAC03AB01AA394602A8FFF71CFF05A8FFF7D0
S31508012FBC62FCCEE729680398FFF70FFB0028EFD1CF
S31508012FCCF4E700BFCDCCCCCCB0F90400704710B5F2
S31508012FDCD1E901431B1BB2EB630F37BF34F912302E
S31508012FEC002303800123837010BD0020704783687A
S31508012FFC4068181A4010704730B5002585B004464C
S3150801300C084611461A4604AB03F8045D01250095DA
S3150801301C0CF0A5FB30B19DF80C3065702370204679
S3150801302C05B030BD6070FAE72DE9F34116468DF807
S3150801303C00208DF801306A461D460223884607464C
S3150801304C0CF0C0FA044633464246394601A8FFF746
S3150801305CD3FF3CB19DF8054024B19DF80440631B90
S3150801306C5C425C41204602B0BDE8F08130B50446AD
S3150801307C08461146002285B004AD25F8042D43F007
S3150801308C8002022300932B460CF069FB58B19DF87C
S3150801309C0D209DF80C3043EA022323800123A370EB
S315080130AC204605B030BDA070FAE7F0B504460326F4
S315080130BC012585B0677C002F3AD10F236574227CD4
S315080130CCE16803A8FFF798FF9DF80D305BB39DF8EF
S315080130DC0C30332B27D16574C0231F22217CE06861
S315080130ECFFF7A2FFF8B1657467232022217CE068FB
S315080130FCFFF79AFFB8B165743B462122217CE0683B
S3150801310CFFF792FF78B165743B462222217CE06871
S3150801311CFFF78AFF38B1657488232322217CE0687E
S3150801312CFFF782FF0746002367746382A382E38253
S3150801313C637C002B5AD02723227CE1686846FFF76B
S3150801314C5BFF627C9DF80130002A18BF1A4662742F
S3150801315C0BB19DF800301A071CD52823227CE1688F
S3150801316C01A8FFF783FF2A23227CE16802A8FFF74F
S3150801317C7DFF2C23227CE16803A8FFF777FF637C8C
S3150801318C43B19DF806301BB19DF80A30002B34D19A
S3150801319C002363740723227CE16802A8FFF72CFF3E
S315080131AC627C9DF80930002A18BF1A4662740BB165
S315080131BC9DF808305B0719D50C23227C0DEB03000F
S315080131CCE168FFF753FF627C9DF80E30002A18BFA1
S315080131DC1A4662740BB1BDF80C300A221BB2534362
S315080131EC4FF4807293FBF2F3FA332385637C13B99C
S315080131FC013E7FF45FAF05B0F0BD9DF80E30002B94
S3150801320CC6D043F64A534FF47A31BDF904205A43D2
S3150801321C92FBF1F26282BDF908205A4392FBF1F254
S3150801322CA282BDF90C20534393FBF1F3E382B1E778
S3150801323C10B50446024B0360FEF7C6FE204610BDC8
S3150801324CE800040810B50446FFF7F2FF20462C21C6
S3150801325CFFF75EF9204610BD70B5154604460E46B5
S3150801326CFEF7BAFE0C4B002D236014BF3223302314
S3150801327C23740023094AE660A26104F11202E26191
S3150801328C04F118022262064A63746382A382E382FA
S3150801329C62622385204670BDE8000408C400040850
S315080132ACD800040810B504466378084611462278F6
S315080132BC53B1FEF776FDA3782BB123785A1E012359
S315080132CC93405840C01A10BDFEF757FDF3E7C28864
S315080132DC6AB1C368994203DB03698B42A8BF0B46E3
S315080132ECB0F904104B4393FBF2F381681944084671
S315080132FC704730B5D0E90523044602EBC3039A425D
S3150801330C104606D0083252F8045C8D42F7D1006893
S3150801331C30BDB4F904306BB1A068091AE08848438A
S3150801332C90FBF3F3E0688342F2DB20699842A8BF6D
S3150801333C1846EDE71846EBE770B506460C461946EE
S3150801334C1546FFF7D6FF71780346327829B1294617
S3150801335C2046FEF783FD012070BD29462046FEF75F
S3150801336C39FDF8E7C3688B4205DC00698842B4BFAE
S3150801337C0020012070470020704770B50D460446A1
S3150801338C114628461A46FFF78DFFD5E9053102463F
S3150801339C03EBC1018B42184609D053F8086B9642C8
S315080133ACF8D14368236001232371204670BD114669
S315080133BC2846FFF7D7FF20B12846FFF788FF20607C
S315080133CCF1E72071F1E703691A7B42641B694361D2
S315080133DC704703691B694361704710B5044601219F
S315080133EC1830FFF761F994F82C3013B123691B696E
S315080133FC636110BD13B504460B4B0C4A0360C368D5
S3150801340CCDE900206946D86807F0DFFD04F14C00C8
S3150801341CFFF71CF904F11800FFF718F92046FEF717
S3150801342CD3FD204602B010BD080104088F340108EB
S3150801343C10B50446FFF7DEFF20467021FFF768F842
S3150801344C204610BD13B5044600690A46037D00F1F2
S3150801345C18016846FFF791FF9DF8043004F14C00FA
S3150801346C5BB1009B00216361FFF7BEF8002104F1F3
S3150801347C1800FFF719F902B010BD0121FFF7B4F8CE
S3150801348CF9E74068FFF7DEBFF0B5144605460E4668
S3150801349C85B0FEF7A1FD234BC5E903642B602369AF
S315080134ACA27B6B61637BA16805F11800FFF713F921
S315080134BCA27B616805F14C00FFF7A4F894F8373044
S315080134CCD4F834C0C3F34017C3F3801194F83B30D6
S315080134DCA66BC3F34010C3F38012134BCDE9023527
S315080134EC019B6CF31C030193C3F3076367F3451341
S315080134FC61F386138DF80730009B02A966F31C034A
S3150801350C0093C3F3076360F3451362F386138DF8CF
S3150801351C0330E8686B4601AA06F048FD284605B053
S3150801352CF0BD00BF080104088F340108F8B506463A
S3150801353C0F46002456F8045FAE4209D055F8043CF0
S3150801354C281F1B68394698470443E4B22D68F3E7EC
S3150801355C2046F8BDF8B504460546002754F8043F3D
S3150801356C9C420AD018461E6840F8047918B153F8DB
S3150801357C043C9B6898473346F2E72846F8BD021D7A
S3150801358C426000220260704710B50446024B036084
S3150801359C00F050F8204610BD2801040810B5044661
S315080135ACFFF7F2FF20461421FEF7B2FF204610BDA5
S315080135BC73B5002204460E460169684600F0F4FB11
S315080135CC9DF804502DB1009BA2683146E068FFF7BF
S315080135DCB3FE284602B070BD2DE9F0410F46198895
S315080135EC0D4B05461868904600F0E2FF064688B171
S315080135FC1420FEF77DFF04464246394600F010F8C2
S3150801360C064B266123606B6844F8043F2B686C6093
S3150801361C01332B60BDE8F0815441002028010408D0
S3150801362C10B5034CC26004600024C0E9014110BD09
S3150801363C3C01040870470000024B1868C3691C302A
S3150801364C1B68184754410020024B0146186801F0C3
S3150801365C07B900BF54410020002310B504468381E5
S3150801366C016082604360C381FFF7EEFF204610BDFF
S3150801367C052310B5436000230446838101608260EB
S3150801368CC381FFF7E1FF204610BD062310B5436041
S3150801369C00230446838101608260C381FFF7D4FF4E
S315080136AC204610BD022310B54360002304468381CE
S315080136BC01608260C381FFF7C7FF204610BD032353
S315080136CC10B5436000230446838101608260C3817F
S315080136DCFFF7BAFF204610BD012310B5436000233E
S315080136EC0446838101608260C381FFF7ADFF2046E2
S315080136FC10BD072310B5436000230446838101607E
S3150801370C8260C381FFF7A0FF204610BD0C2310B5BC
S3150801371C436000230446838101608260C381FFF7FD
S3150801372C93FF204610BD092310B5436000230446B8
S3150801373C838101608260C381FFF786FF204610BD35
S3150801374C0A2310B543600023044683810160826015
S3150801375CC381FFF779FF204610BD082310B54360D6
S3150801376C00230446838101608260C381FFF76CFFE5
S3150801377C204610BD10B50446034B0146186800F0E7
S3150801378C9EFF204610BD00BF5441002010B50468A9
S3150801379CFFF752FF2044807810BD10B50468FFF777
S315080137AC4BFF2044007910BD03689B790BB1FFF7D9
S315080137BCF4BF184670470368D8439842B8BF1846F1
S315080137CC70470023184710B50D290ED8DFE801F00C
S315080137DC10101010101010070707070707071868AD
S315080137ECBDE8104003689B681847FFF7EAFF10BD50
S315080137FC0120FCE730B587B0044604AB06AD0430AE
S3150801380C45F8043DFFF7D7FF00230146CDE90233FE
S3150801381C8DF804308DF800302A4604F108036068E7
S3150801382CFFF7D1FF07B030BD10B504460023984702
S3150801383C204610BD73B5069904460D2A00F2AC80D4
S3150801384CDFE802F0071B1B1B1B1B1B2D4259956D31
S3150801385C81951E680D683068FFF798FF40B173684B
S3150801386C33B92B6828461B6898472070012300E05A
S3150801387C00236370204602B070BD1E680D6830685F
S3150801388CFFF784FF0028F3D07368002BF0D12B685F
S3150801389C28461B689847003018BF0120E5E71E68C3
S315080138AC0D683068FFF772FF0028E1D02B68726843
S315080138BC1B682946684698479DF80130002BD7D0D6
S315080138CC9DF800302370D1E71E680D683068FFF744
S315080138DC5DFF0028CCD02B6872681B6829466846A0
S315080138EC98479DF80130002BC2D09DF80030003363
S315080138FC18BF0123E6E71E680D683068FFF746FF17
S3150801390C0028B5D02B6872681B6829466846984703
S3150801391C9DF80230002BABD0BDF80030E7E71E68E6
S3150801392C0D683068FFF732FF0028A1D02B68726842
S3150801393C1B682946684698479DF80130002B97D095
S3150801394C9DF90030D3E71E680D683068FFF71EFF36
S3150801395C00288DD02B6872681B68294668469847DB
S3150801396C9DF80230002B83D0BDF90030BFE71E68E5
S3150801397C0D683068FFF70AFF00283FF479AF2B680A
S3150801398C72681B682946684698479DF80430002BCF
S3150801399C3FF46EAF009BAAE72046FFF745FF69E7A0
S315080139AC70B58AB0064608AB0AAD081D0C46CDE9BA
S315080139BC081245F80C3DFFF7FEFE0023CDE903334B
S315080139CC8DF808308DF8043004F10803009302468B
S315080139DC2B4630466168FFF72DFF30460AB070BD9D
S315080139EC10B5044600239847204610BD73B50699B1
S315080139FC04460D2A6ED8DFE802F00C0C0C0C0C0CE4
S31508013A0C0C1D1D465A32465A0023A370204602B095
S31508013A1C70BD1E680D683068FFF7B8FE0028F3D034
S31508013A2C7368002BF0D12B6828461B6898472080B1
S31508013A3C0123EAE71E680D683068FFF7A7FE002820
S31508013A4CE2D02B6872681B682946684698479DF828
S31508013A5C0130002BD8D09DF800302380E8E71E688A
S31508013A6C0D683068FFF792FE0028CDD02B68726876
S31508013A7C1B682946684698479DF80130002BC3D028
S31508013A8C9DF90030E9E71E680D683068FFF77EFE80
S31508013A9C0028B9D02B6872681B682946684698476E
S31508013AAC9DF80230002BAFD0BDF80030D5E71E6863
S31508013ABC0D683068FFF76AFE0028A5D02B68726876
S31508013ACC1B682946684698479DF80430002B9BD0FD
S31508013ADC009BC2E72046FFF783FF97E770B58AB0CC
S31508013AEC064608AB0AAD081D0C46CDE9081245F881
S31508013AFC0C3DFFF760FE0023CDE903338DF8083042
S31508013B0C8DF8043004F10803009302462B4630461F
S31508013B1C6168FFF76BFF30460AB070BD10B50446F5
S31508013B2C00239847204610BD73B5069904460D2AFD
S31508013B3C00F28380DFE802F00C0C0C0C0C0C0C1D4B
S31508013B4C1D326E465A6E00232371204602B070BD93
S31508013B5C1E680D683068FFF719FE0028F3D07368E4
S31508013B6C002BF0D12B6828461B6898472060012347
S31508013B7CEAE71E680D683068FFF708FE0028E2D0F0
S31508013B8C2B6872681B682946684698479DF8013068
S31508013B9C002BD8D09DF800302360E8E71E680D6825
S31508013BAC3068FFF7F3FD0028CDD02B6872681B68C7
S31508013BBC2946684698479DF80230002BC3D0BDF8B4
S31508013BCC0030E9E71E680D683068FFF7DFFD00284D
S31508013BDCB9D02B6872681B682946684698479DF8C0
S31508013BEC0130002BAFD09DF90030D5E71E680D6862
S31508013BFC3068FFF7CBFD0028A5D02B6872681B68C7
S31508013C0C2946684698479DF80230002B9BD0BDF98A
S31508013C1C0030C1E71E680D683068FFF7B7FD00284C
S31508013C2C91D02B6872681B682946684698479DF897
S31508013C3C0430002B87D0009BAEE72046FFF76EFFBA
S31508013C4C83E770B58AB0064608AB0AAD081D0C4663
S31508013C5CCDE9081245F80C3DFFF7ADFD0023CDE97A
S31508013C6C03338DF808308DF8043004F108030093FA
S31508013C7C02462B4630466168FFF756FF30460AB0B6
S31508013C8C70BD10B5044600239847204610BD73B580
S31508013C9C069904460D2A00F28380DFE802F00C0C23
S31508013CAC0C0C0C0C0C1D1D326E465A6E002323711E
S31508013CBC204602B070BD1E680D683068FFF766FDB8
S31508013CCC0028F3D07368002BF0D12B6828461B68A3
S31508013CDC984720600123EAE71E680D683068FFF7EC
S31508013CEC55FD0028E2D02B6872681B682946684680
S31508013CFC98479DF80130002BD8D09DF800302360E9
S31508013D0CE8E71E680D683068FFF740FD0028CDD03E
S31508013D1C2B6872681B682946684698479DF80230D5
S31508013D2C002BC3D0BDF80030E9E71E680D68306872
S31508013D3CFFF72CFD0028B9D02B6872681B68294639
S31508013D4C684698479DF80130002BAFD09DF9003095
S31508013D5CD5E71E680D683068FFF718FD0028A5D051
S31508013D6C2B6872681B682946684698479DF8023085
S31508013D7C002B9BD0BDF90030C1E71E680D68306871
S31508013D8CFFF704FD002891D02B6872681B68294639
S31508013D9C684698479DF80430002B87D0009BAEE700
S31508013DAC2046FFF76EFF83E770B58AB0064608AB67
S31508013DBC0AAD081D0C46CDE9081245F80C3DFFF76E
S31508013DCCFAFC0023CDE903338DF808308DF804305D
S31508013DDC04F10803009302462B4630466168FFF747
S31508013DEC56FF30460AB070BD0023184770B50D2929
S31508013DFC00F2D680DFE811F00E00240033006500CE
S31508013E0C45005500650077008A009600C300A70097
S31508013E1CB500C30014681D682068FFF7BEFC08B915
S31508013E2C002070BD6368002BFAD1A36819882B682A
S31508013E3C003118BF01215B682846BDE87040184758
S31508013E4C14681D682068FFF7A8FC0028E8D0636889
S31508013E5C002BE5D1A2682B6811785B68ECE714682E
S31508013E6C1D682068FFF799FC0028D9D06368002BD8
S31508013E7CD6D1A2682B6811885B682846BDE87040C4
S31508013E8C184714681D682068FFF787FC0028C7D0F7
S31508013E9C6368002BC4D1A2682B6892F900105B6881
S31508013EACCAE714681D682068FFF777FC0028B7D0A5
S31508013EBC6368002BB4D1A2682B68B2F900105B6851
S31508013ECCDBE714681D682068FFF767FC0028A7D094
S31508013EDC6368002BA4D1A2682B682846BDE87040FC
S31508013EEC5B681188184714681D682068FFF755FC2C
S31508013EFC002895D0A3681A882B68003218BF0122AE
S31508013F0C5B6861682846BDE87040184714681D68E7
S31508013F1C2068FFF742FC002882D0A2682B68127829
S31508013F2C5B68EEE714681D682068FFF736FC002805
S31508013F3C3FF476AFA2682B6812885B6861682846DD
S31508013F4CBDE87040184714681D682068FFF725FC02
S31508013F5C00283FF465AFA2682B6892F900205B68CC
S31508013F6CCFE714681D682068FFF717FC00283FF493
S31508013F7C57AFA2682B68B2F900205B68DEE71468B4
S31508013F8C1D682068FFF709FC00283FF449AFA268B1
S31508013F9C2B6861682846BDE870405B68128818472B
S31508013FACFFF722FF3DE730B589B00446CDE9050197
S31508013FBC08AD05AB043045F8103D0792FFF7FBFB3E
S31508013FCC00232A46CDE902338DF804308DF80030EA
S31508013FDC014604F108036068FFF708FF054638B186
S31508013FEC2046FFF7E1FB18B1A38901339BB2A381E4
S31508013FFC284609B030BD70B50D2900F2D680DFE828
S3150801400C11F00E00240033006500450055006500CB
S3150801401C77008A009600C300A700B500C300146890
S3150801402C1D682068FFF7B9FB08B9002070BD6368E5
S3150801403C002BFAD1A36819682B68003118BF012126
S3150801404C5B682846BDE87040184714681D682068E7
S3150801405CFFF7A3FB0028E8D06368002BE5D1A2681B
S3150801406C2B6811785B68ECE714681D682068FFF704
S3150801407C94FB0028D9D06368002BD6D1A2682B688B
S3150801408C11885B682846BDE87040184714681D6896
S3150801409C2068FFF782FB0028C7D06368002BC4D1C0
S315080140ACA2682B6892F900105B68CAE714681D6848
S315080140BC2068FFF772FB0028B7D06368002BB4D1D0
S315080140CCA2682B68B2F900105B68DBE714681D68F7
S315080140DC2068FFF762FB0028A7D06368002BA4D1E0
S315080140ECA2682B682846BDE870405B6811681847BA
S315080140FC14681D682068FFF750FB002895D0A36843
S3150801410C1A682B68003218BF01225B686168284659
S3150801411CBDE87040184714681D682068FFF73DFB19
S3150801412C002882D0A2682B6812785B68EEE71468BF
S3150801413C1D682068FFF731FB00283FF476AFA268AB
S3150801414C2B6812885B6861682846BDE87040184779
S3150801415C14681D682068FFF720FB00283FF465AF3B
S3150801416CA2682B6892F900205B68CFE714681D6872
S3150801417C2068FFF712FB00283FF457AFA2682B689B
S3150801418CB2F900205B68DEE714681D682068FFF742
S3150801419C04FB00283FF449AFA2682B6861682846DE
S315080141ACBDE870405B6812681847FFF71DFE3DE7CE
S315080141BC30B589B00446CDE9050108AD05AB043027
S315080141CC45F8103D0792FFF7F6FA00232A46CDE982
S315080141DC02338DF804308DF80030014604F10803DA
S315080141EC6068FFF708FF054638B12046FFF7DCFA89
S315080141FC18B1A38901339BB2A381284609B030BDF6
S3150801420C70B50D2900F2D680DFE811F00E002400F6
S3150801421C3300650045005500650077008A00960055
S3150801422CC300A700B500C30014681D682068FFF712
S3150801423CB4FA08B9002070BD6368002BFAD1A368DB
S3150801424C19682B68003118BF01215B682846BDE83F
S3150801425C7040184714681D682068FFF79EFA0028F5
S3150801426CE8D06368002BE5D1A2682B6811785B68E6
S3150801427CECE714681D682068FFF78FFA0028D9D077
S3150801428C6368002BD6D1A2682B6811885B6828460F
S3150801429CBDE87040184714681D682068FFF77DFA59
S315080142AC0028C7D06368002BC4D1A2682B6892F981
S315080142BC00105B68CAE714681D682068FFF76DFA79
S315080142CC0028B7D06368002BB4D1A2682B68B2F961
S315080142DC00105B68DBE714681D682068FFF75DFA58
S315080142EC0028A7D06368002BA4D1A2682B6828469E
S315080142FCBDE870405B681168184714681D6820682A
S3150801430CFFF74BFA002895D0A3681A682B68003278
S3150801431C18BF01225B6861682846BDE870401847DA
S3150801432C14681D682068FFF738FA002882D0A2683D
S3150801433C2B6812785B68EEE714681D682068FFF72E
S3150801434C2CFA00283FF476AFA2682B6812885B68B2
S3150801435C61682846BDE87040184714681D682068CE
S3150801436CFFF71BFA00283FF465AFA2682B6892F990
S3150801437C00205B68CFE714681D682068FFF70DFA03
S3150801438C00283FF457AFA2682B68B2F900205B6886
S3150801439CDEE714681D682068FFF7FFF900283FF46B
S315080143AC49AFA2682B6861682846BDE870405B680E
S315080143BC12681847FFF718FD3DE730B589B0044672
S315080143CCCDE9050108AD05AB043045F8103D07925A
S315080143DCFFF7F1F900232A46CDE902338DF80430AB
S315080143EC8DF80030014604F108036068FFF708FFF1
S315080143FC054638B12046FFF7D7F918B1A389013319
S3150801440C9BB2A381284609B030BD0000024A02605E
S3150801441C00224260704700BF19440108074B10B5CA
S3150801442CD1E911249A42064B03D1064A002C08BF3E
S3150801443C134603600023436010BD00BF75A1020833
S3150801444C294401081944010838B54A6C094B044634
S3150801445C9A420AD18D6C45B901F1240015F03CFF3D
S3150801446C054BC4E90035204638BD044B23600023AF
S3150801447C6360F8E775A10208294401085544010847
S3150801448C0B681968136808881B681B8898422CBF27
S3150801449C002001207047243016F044B810B50446A4
S315080144AC243015F003FF18B1024B63650023A3658D
S315080144BC10BD00BF554401080369C365024B43652A
S315080144CC00238365704700BF5D45010810B5044696
S315080144DC243015F00FFF024B63650023A36510BD4D
S315080144EC55440108D1E9003203EB82030360704796
S315080144FC37B50146054651F8104F01A8FFF7F2FFEB
S3150801450C019BA34205D054F8041B2846FFF7C3FFA9
S3150801451CF6E703B030BD000037B50146044651F83D
S3150801452C105F01A8FFF7DEFF0199A94206D055F8DD
S3150801453C042B938901339BB29381F6E72369E365CF
S3150801454C024B63650023A36503B030BD5D450108C5
S3150801455CF7B5144B4A6C04469A420D4601F12406EA
S3150801456C1ED18B6CE3B901F11007394601A8FFF787
S3150801457CB9FFEB6D019A934206D10B4B236020468A
S3150801458C0023636003B0F0BD53F8041BEB658B89FC
S3150801459CCA899BB29342E8D0CB81304615F086FE88
S315080145AC024BEBE775A10208554401085D45010864
S315080145BC73B5054655F8104F0E4601A82946FFF75F
S315080145CC91FF019B1B1B9B10002B0EDD5A1054F8F7
S315080145DC220004EB820100680088B04203D29B1AC0
S315080145EC013B0C1DF0E71346EEE7294601A8FFF738
S315080145FC79FF019BA34207D0206803681B88B34245
S3150801460C88BF002002B070BD0020FBE710B50988F1
S3150801461C0446FFF7CDFF014628B104F12400BDE895
S3150801462C104015F07FBF10BD05C800EB820070471E
S3150801463C70B5054655F8104F0E462846FFF7F4FF98
S3150801464C001B801000280EDD431054F8231004EBD0
S3150801465C830209680988B14203D2C01A0138141DAC
S3150801466CF0E71846EEE72846FFF7DEFF844206D048
S3150801467C206803681B88B34288BF002070BD0020E0
S3150801468CFCE738B50446084611881D46FFF7D0FFE6
S3150801469C014610B92071204638BD2A462046FFF737
S315080146AC83FBF8E7884238B5154606D00C1A22461C
S315080146BC014628462AF0E6FE2544284638BD2DE94A
S315080146CCF04F054655F8107F85B0019106462946E7
S315080146DC03A8FFF707FF039CE41BA410002C4CD07E
S315080146EC4FEA540A4FEA8A0907EB090801AA414617
S315080146FC2846FFF7C5FE30B1013C08F10407A4EBC7
S3150801470C0A0A5446EAE7424601A92846FFF7B8FEC3
S3150801471C0028F6D107EB840403944FEAA909B9F1E9
S3150801472C000F12D04FEA590A07EB8A0B01AA594610
S3150801473C2846FFF7A5FE30B109F1FF39A9EB0A099D
S3150801474C0BF10407EBE7D146E9E708F10408A4EBFA
S3150801475C0804A41094B14FEA540908EB890A524685
S3150801476C01A92846FFF78CFE28B9013CA4EB0904DC
S3150801477C0AF10408EEE74C46ECE7B846B8450FD003
S3150801478C47450DD0D6E9044004EB800421463A4648
S3150801479C4046FFF787FF201A7469A4EBA0047461DD
S315080147AC05B0BDE8F08F00002DE9F0410446FDF790
S315080147BC13FC264B00252360254B04F124071C60AA
S315080147CC244BC4E90455E3610123A56184F820301F
S315080147DC384616F04FF8204B04F11001C4E915358B
S315080147EC04F15C00FFF77EFEA369B3F5007F24D2C2
S315080147FC1A494FF40060FDF77DFED4E90485064697
S3150801480CB8F1000F1FD008EB85050246294640462C
S3150801481CFFF748FF6169024608EB81012846FFF755
S3150801482C41FF042105462069FDF772FE4FF400731A
S3150801483CAD1BAD1026616561A361384615F06CFD9B
S3150801484C2046BDE8F0810546F0E700BF5001040893
S3150801485C544100201CFE03081944010844B60508F6
S3150801486C2DE9F74F00F11007056904460DF1080902
S3150801487C384649F8041DFFF7D7FE8246461BB61083
S3150801488C8EB14FEA560805EB880B4A465946384607
S3150801489CFFF7F6FD28B1013EA6EB08060BF1040558
S315080148ACEEE74646ECE7554505D02A4601A93846B2
S315080148BCFFF7E6FDB8B3D4E90523934238D16FF077
S315080148CC4047FA1A01D12AF0ABFD7BB3934201D8C2
S315080148DC1F461F442549B800FDF70CFED4F8109065
S315080148EC8046B9F1000F04D0024629464846FFF71F
S315080148FCD9FE0646019B46F8043BB9F1000F0BD0CD
S3150801490C6169324609EB81012846FFF7CBFE042182
S3150801491C06462069FDF7FCFDA6EB0806B610C4E9A8
S3150801492C0567C4F8108003B0BDE8F08F0127D0E7FE
S3150801493C2669DDF8048006EB8206AE4204D1013203
S3150801494CC5F800806261EEE7371F324631463846B4
S3150801495CFFF7A8FE63697A1B013363612946B01A0E
S3150801496C2AF090FDC5F80080DDE700BF44B60508BE
S3150801497C10B50446094B40F8243B15F013FCA36902
S3150801498C1BB104212069FDF7C3FD0022044B204607
S3150801499C1A60FDF719FB204610BD00BF500104082B
S315080149AC5441002010B50446FFF7E2FF204660216A
S315080149BCFDF7AEFD204610BD37B504466D462430CD
S315080149CC15F0DAFBA36D28465A1013F0010F04EB08
S315080149DC0201636D18BFA25804F1540418BFD358C9
S315080149EC984795E8030084E8030003B030BD10B579
S315080149FC0D291ED8DFE801F0202007092007090B2D
S31508014A0C0B11170B1117022010BD0420FCE71868AF
S31508014A1CBDE8104003689B681847186803689B68CB
S31508014A2C98474000F0E7186803689B689847800028
S31508014A3CEAE7FEF7C6FEE7E70120E5E710B5034608
S31508014A4C86B0406806AA04A942F8041DC14300248D
S31508014A5C8142CDE902448DF804408DF8004003F1FA
S31508014A6C0803B8BF0146FFF7C2FF80B206B010BDF6
S31508014A7C808870478180012070474368188C70477D
S31508014A8C10B50446084B40F8443BFEF773FE04F197
S31508014A9C2C00FEF76FFE04F11000FEF76BFE2046A4
S31508014AACFDF792FA204610BD9001040810B504468C
S31508014ABCFFF7E6FF20465421FDF72AFD204610BDD7
S31508014ACC0346C068198CB3F8402003688A1A514208
S31508014ADC5B6851411847FFF7F3BF08B5B0F840308A
S31508014AEC23B10184FFF7ECFF012008BD1846FCE74A
S31508014AFC4068FFF7F2BF000038B504460025FDF7FC
S31508014B0C6BFA114B11492360114B04F110001A6809
S31508014B1C1C32E260FEF7A0FD0E4B04F12402C4E937
S31508014B2C093425840C4904F12C00FEF7BBFD0B4B0B
S31508014B3CA4F84050E36304F13C02094904F144002A
S31508014B4CFEF7B0FD204638BD90010408BC320408B6
S31508014B5C5441002070010408043304088001040838
S31508014B6CE436040821B90169006800EB4100704775
S31508014B7C83688B428BBF40680068C01AC91A0844FF
S31508014B8C704710B50446406F70B1E06803681B683E
S31508014B9C984723695843636FB0FBF3F043F69823A0
S31508014BAC984228BF184680B210BD03680A689A4213
S31508014BBC04BF43680B600B68023B0B60704738B542
S31508014BCC0D46D0E900412046FFF7CCFF696802463D
S31508014BDC2046FFF7C7FF101A401038BD0B68023381
S31508014BEC0B604268934204BF03680B60704710B5AB
S31508014BFC0446011D0068FFF7F1FFD4E90032DB68B2
S31508014C0C20469A4204BF0023636010BD836A37B5F8
S31508014C1C044600F1180203B1036A0025CDE9002305
S31508014C2C019B23B11D806846FFF7E1FFF8E7A4F85D
S31508014C3C5C3003B030BDFFF7E9BF436810B55C1AA9
S31508014C4CB2EB640FA2BF00681B1AA2EB63025200F7
S31508014C5C881810BD0A1E38B5044611DD09C803B9F2
S31508014C6CC3680568591BB2EB610FC2BF4168491B82
S31508014C7CA2EB6102520052421A446260204638BDC8
S31508014C8CFCD00568416852422846FFF7D6FFEB6807
S31508014C9C6060984204BF00236360EFE710B50446D1
S31508014CAC064B40F8803BFEF765FD04F16000FEF704
S31508014CBC61FD2046FDF788F9204610BDB0010408B0
S31508014CCC10B50446FFF7EAFF20469021FDF720FCB4
S31508014CDC204610BD2DE9F0439846D0E90036F31A63
S31508014CEC06694D68C6EB63069642894685B0044645
S31508014CFC174628BF1646C168EDB90DF1100949F8D2
S31508014D0C041DB5420AD0D8F8003049461A88039BC7
S31508014D1C20461A800135FFF761FFF2E7AF4230D919
S31508014D2CD8F8003003A91A88039B20461A80013546
S31508014D3CFFF754FFF2E7013A0191FFF77EFFCDE940
S31508014D4C0205D9F80420019B9A420CD001A92046E8
S31508014D5CFFF72BFF019B02A91A88029B20461A8092
S31508014D6CFFF723FFEDE70025AF420AD0D8F800304C
S31508014D7C03A91A88039B20461A800135FFF72EFFD3
S31508014D8CF2E7E1683A462046FFF757FFBA1BE0609F
S31508014D9CA1682046FFF751FF2369A0601E442661CE
S31508014DAC05B0BDE8F08302680B6811881888108075
S31508014DBC19807047F0B503680E68B3421ED00233EA
S31508014DCC9E421BD01C46056834F8021B2A888A4267
S31508014DDC0BD95A1B5210002A04DD33F8027D013A0D
S31508014DEC5F80F8E729802346EAE733F8022C9142DB
S31508014DFC02D223F80229F8E71980F4E7F0BDF0B5D9
S31508014E0C0224561E96FBF4F60468084686420FDD04
S31508014E1C01304500681E34F8157034F810C0BC45CD
S31508014E2C98BF284634F81070254425F8027CEDE71E
S31508014E3CD5070CD40225023A92FBF5F2824206D129
S31508014E4C4200013234F8125024F81050104602254B
S31508014E5C421E92FBF5F24600814204EB060709DA7B
S31508014E6C34F81200834205D9A053561E104696FBF8
S31508014E7CF5F2F0E73B80F0BD2DE9FF478046894600
S31508014E8C92461F46DAF80050D8F800402B1B062B21
S31508014E9C40F38180002F3DD1D9F800600236331BCF
S31508014EAC022B4FEA630A13DD0223AAF1020797FBC9
S31508014EBCF3F74FF0000234F8173039468DF8002015
S31508014ECC03A852460394FFF79AFF0FB1013FF0E787
S31508014EDCB54211D936F8023B22889342F8D226F804
S31508014EEC022C4FF0000200218DF8002003A852462F
S31508014EFC0394FFF784FFEBE7D8F8003004A9029373
S31508014F0CD9F8003002A841F8043DFFF74CFF04B06C
S31508014F1CBDE8F0879B1034F81320618804EB430035
S31508014F2C914235F8023C07F1FF3704F10206A5F167
S31508014F3C020C039408D29A4201D2029007E09942D4
S31508014F4C04D2CDF808C002E0994219D2029602A9F8
S31508014F5C03A8FFF728FF334621881A8802368A42A6
S31508014F6CF9D3AA1E15462888023A8842FAD8AB42C2
S31508014F7C09D3D9F800209A420AD2CAF8003081E737
S31508014F8C9A42DAD2DDE7CDE9023503A902A8E0E7B0
S31508014F9CC8F8003076E704A941F8045D4FF0000221
S31508014FAC02A80294FFF706FFB1E77FB500681368FC
S31508014FBC834216D00A689A4213D0CDE9030206AA8F
S31508014FCC42F8043D1B1A5B10B3FA83F34FF0000148
S31508014FDCC3F11F038DF800105B0004A903A8FFF7A2
S31508014FEC4BFF07B05DF804FB70B50D4600212E6921
S31508014FFC92B0152E119101D92AF012FA06AC72004B
S3150801500C20462AF058FA119B334411932B6903B1A4
S3150801501CAB68CDE904530295002504A902A80395AA
S3150801502CFFF7CDFD0646731B002B08DD059B04A86F
S3150801503C1B8824F81530FFF7DAFD0135F3E7119BC8
S3150801504C01945D1E25F0010504EB43026119DB078A
S3150801505C0491029204A902AA01A815D4FFF7A5FF87
S3150801506C119B665B23F001056219049204EB430359
S3150801507C01A802AA04A901940293FFF796FF605BA3
S3150801508C3044400812B070BDFFF78FFF605BF9E73B
S3150801509CF8B5044600F11406FFF773FD04F118057B
S315080150AC04F1240107462846FFF77FFDD4E90612C9
S315080150BCA36A521A013BB3EB620FA3620FD13BB140
S315080150CC04F120012846FFF770FD236A1F806362ED
S315080150DC29463046FFF788FFA4F85C00F8BD04F1B1
S315080150EC20012846FFF761FD236A1F80A36A013355
S315080150FCA362EDE7F0B589B00446ADF8062079B39D
S3150801510C152928BF15216369CD1A002D35DA261DF7
S3150801511C03B1E368294606A8CDE90263CDE906631E
S3150801512CFFF798FD0368039A049343689A4205931B
S3150801513C0ED0059BB3B904F1100529463046FFF785
S3150801514C34FDD4E90423013B6361039B9A42F4D1F0
S3150801515C211D2046FFF748FFA4F8480009B0F0BD09
S3150801516C0121D0E702A8039DFFF741FD059F04A87D
S3150801517CFFF73DFD3B882B80DBE7EFD0271D03B1FD
S3150801518CE368CDE90473D4E901060023361A04A9A8
S3150801519C06A806970793FFF712FD7610321AD7D091
S315080151AC0DF10603AA42069328BF2A4606AB04A9A3
S315080151BC3846FFF78FFDCBE7F8B5044616460D467C
S315080151CCFCF70AFFE66000261B4B04F11407236063
S315080151DCAB6904F15602236104F12C03A361C4E9FA
S315080151EC0833164BE261A36532463846A66284F843
S315080151FC5660A4F85C601521FFF77CFF04F1580290
S3150801520C296804F16000FEF74DFAD5E902122B69FB
S3150801521C0B48C4E91E23C4E91C0104F17002696830
S3150801522C04F18000FEF74BFA384632466969FFF7F6
S3150801523C61FF2046F8BD00BFB001040810FF030842
S3150801524C20FF030821B90169006800EB410070478A
S3150801525C83688B428BBF40680068C01AC91A084418
S3150801526C704710B50446406F70B1E06803681B6857
S3150801527C984723695843636FB0FBF3F043F69823B9
S3150801528C984228BF184680B210BD836A37B50446C2
S3150801529C00F1180203B1036A0025CDE90023019B2D
S315080152AC23B11D806846FFF7A2FCF8E7A4F85C3029
S315080152BC03B030BDFFF7E9BF036937B5054603B13E
S315080152CC83680024CDE90053019B2BB11B886846E2
S315080152DC1C44FFF78CFCF7E72869B4FBF0F080B2A5
S315080152EC03B030BD70B50446FFF7BBFF04F11805D2
S315080152FC04F1240106462846FFF757FCD4E90612A1
S3150801530CA36A521A013BB3EB620FA3620ED13BB1EE
S3150801531C04F120012846FFF748FC236A1E806362C4
S3150801532C2846FFF7C9FFA4F85C0070BD04F12001FB
S3150801533C2846FFF73AFC236A1E80A36A0133A36247
S3150801534CEEE7000010B50446064B40F8803BFEF725
S3150801535C11FA04F16000FEF70DFA2046FCF734FE4B
S3150801536C204610BDD001040810B50446FFF7EAFF24
S3150801537C20469021FDF7CCF8204610BD2DE9F041C9
S3150801538C88B00446ADF8062079B3152928BF15212E
S3150801539C6369CE1A002E35DA251D03B1E368314649
S315080153AC06A8CDE90253CDE90653FFF753FC03686A
S315080153BC039A049343689A4205930ED0059BB3B995
S315080153CC04F1100631462846FFF7EFFBD4E904230E
S315080153DC013B6361039B9A42F4D1201DFFF76CFFD5
S315080153ECA4F8480008B0BDE8F0810121D0E702A86D
S315080153FC039EFFF7FCFB059F04A8FFF7F8FB3B8808
S3150801540C3380DBE7EED004F1040803B3E568002129
S3150801541C4046CDE90685FFF715FF2946074640465E
S3150801542CFFF710FFD4E90132381AD21A4010D0EB23
S3150801543C6202D2D00DF1060108ABB24243F8101D37
S3150801544C28BF324606A94046FFF744FCC5E71D4668
S3150801545CDDE70000F8B5044616460D46FCF7BCFD1B
S3150801546CE66000261B4B04F114072360AB6904F1B3
S3150801547C5602236104F12C03A361C4E90833164BC4
S3150801548CE261A36532463846A66284F85660A4F8EA
S3150801549C5C601521FFF772FF04F15802296804F1C3
S315080154AC6000FEF7FFF8D5E902122B690B48C4E92F
S315080154BC1E23C4E91C0104F17002696804F1800019
S315080154CCFEF7FDF8384632466969FFF757FF20465D
S315080154DCF8BD00BFD001040810FF030820FF03081C
