S02B0000453A5C7265706F735C63735C72656C656173655C6373335C6373335C6170705C6373332D73706F72A4
S3150801000000400020290201082D02010833020108D7
S315080100104D020108530201086D02010800000000A3
S31508010020FFFFFFFF00000000000000008702010833
S315080100308D020108000000009302010899020108D7
S315080100407D3A02088D3A02089D3A0208AD3A02083D
S31508010050BD3A0208CD3A0208DD3A0208ED3A02082D
S31508010060FD3A02080D3B02081D3B02082D3B02081A
S315080100703D3B02084D3B02085D3B02086D3B020809
S315080100807D3B02088D3B02089D3B0208AD3B0208F9
S31508010090BD3B0208CD3B0208DD3B0208ED3B0208E9
S315080100A0FD3B02080D3C02081D3C02082D3C0208D6
S315080100B03D3C02084D3C02085D3C02086D3C0208C5
S315080100C07D3C02088D3C02089D3C0208AD3C0208B5
S315080100D0BD3C0208CD3C0208DD3C0208ED3C0208A5
S315080100E0FD3C02080D3D02081D3D02082D3D020892
S315080100F03D3D02084D3D02085D3D02086D3D020881
S315080101007D3D02088D3D02089D3D0208AD3D020870
S31508010110BD3D0208CD3D0208DD3D0208ED3D020860
S31508010120FD3D02080D3E02081D3E02082D3E02084D
S315080101303D3E0208AD020108AD0201084D3E020826
S315080101405D3E02086D3E02087D3E02088D3E0208AC
S315080101509D3E0208AD3E0208BD3E0208CD3E02089C
S31508010160DD3E0208ED3E0208FD3E02080D3F02088B
S315080101701D3F02082D3F0208AD020108AD02010824
S309080101803D3F0208E6
S31508010184346537623965300008B500F0D1F81D4A7F
S315080101941D48824217D300201C4A1D498A421DD391
S315080101A402F09AF800261B4D1B4C641BA410B4429A
S315080101B41DDC0026194D1A4C641BA410B4421BDC21
S315080101C41FF032FDFEE7D2E9001394680C32C91A0E
S315080101D49C42DED95D5843F8045BF9E752F8083BBB
S315080101E452F8044C9C42D9D943F8040BFAE755F85A
S315080101F4043B98470136DAE755F8043B9847013634
S31508010204DCE700BF8404010890040108900401088E
S315080102149804010898040108980401089804010837
S31508010224A40401081C48004708B50DF0D9FF1EF0BF
S31508010234040F0CBFEFF30880EFF309807146174AE0
S31508010244104708B50DF0CCFF08B50DF0C9FF1EF02F
S31508010254040F0CBFEFF30880EFF309807146104AC7
S31508010264104708B50DF0BCFF1EF0040F0CBFEFF3E1
S315080102740880EFF3098071460A4A104708B50DF05C
S31508010284AFFF08B50DF0ACFF08B50DF0A9FF08B529
S315080102940DF0A6FF704700008D0101084702010809
S315080102A4670201088102010808B50DF099FF0000EB
S315080102B41B4B1A6822F450221A601A6842F48032D7
S315080102C41A601A689103FCD50121164A520102F1F2
S315080102D4844211604FF4144200219A604FF0E022DF
S315080102E411616FF07F415161116941F00101116199
S315080102F40D4A5A601A6842F080721A601A689201A5
S31508010304FCD540F20361094A11609A6842F0020277
S315080103149A609A6802F00C02082AFAD1704700BF5B
S3150801032400380240743802000C3C4005003C024087
S3150801033470B500244948036843F0010303608460E7
S31508010344036823F0847323F480330360444B4360C6
S31508010354036823F480230360C460FFF7A9FF414BB4
S31508010364414A9A6062B6414ADA60036943F0200356
S315080103740361036923F020030361036B43F020033C
S315080103840363BFF34F8F3A4A136843F0A0431360DC
S315080103944FF4004393614FF480439361436A43F4F2
S315080103A480734362436A23F480734362436C43F460
S315080103B480734364036943F001030361036923F00A
S315080103C401030361036B43F001030363BFF34F8F17
S315080103D4284B294D996841F00101996027494C60D8
S315080103E429682E68314341F4404129604FF48071EC
S315080103F459604FF400111961072159634FF00041FF
S315080104049161996841F08041996019688907FCD519
S31508010414D96CB1F5946FF4D30134642CF1D14FF44A
S31508010424004393614FF080439361436A43F48073B5
S315080104344362436A23F480734362436C23F48073EF
S315080104444364036943F021030361036923F0210328
S315080104540361036B23F02103036370BD0038024073
S315080104641030002400ED00E0000001080003FA053D
S31508010474001402400020014000000240002301400C
S315080104841097040800400020784300207843002090
S31508010494F8A300206523010895BB0108C1BB01081F
S315080104A838B504461D4600231046C4E900122372CE
S315080104B80FF0FAF8606801210FF0BAF920684FF4CD
S315080104C8E1310FF04DFD294620680FF073FD2068CC
S315080104D829460FF067FD204638BDF0B51E4685B09A
S315080104E803910446006801AD85E80C00D0E9053298
S315080104F8D21A036AC769511EDB1B48BF9B18CB1A58
S31508010508321D9A4203D90123237205B0F0BD9DF81D
S315080105180C100FF07DFC2068F1B20FF079FC9DF8FC
S315080105280E1020680FF074FC9DF80F1020680FF064
S315080105386FFC95E80600206805B0BDE8F0400FF0A5
S31508010548E8BC2DE9F0470D4686B069460446286891
S31508010558904681E80C000FF0D1FC032881464FF03C
S31508010568000A05D884F804A0204606B0BDE8F08735
S31508010578042603AB0493059604AF286897E8060092
S31508010588CDF80CA00FF096FC9DF80D3033444B4579
S31508010598E8D828680FF05BFC013EFAD19DF80D6092
S315080105A8019B28689E4228BF1E46CDE9048697E81E
S315080105B806000FF05EFC9DF80D30B34204D80123FE
S315080105C8039823712060CFE728680FF040FC0136AD
S315080105D8F1E700680FF08CBC00487047C1110108A3
S315080105E8002070470079704701710120704700792A
S315080105F8704701710120704713B5094B09490093E2
S315080106080223019302AB044613E90C0009680C306E
S31508010618FFF763FF0A230448C4E9133302B010BD80
S315080106286D170308C81603081D0D010813B5094BEC
S31508010638094900930223019302AB044613E90C0006
S3150801064809680C30FFF749FF0A230448C4E913333C
S3150801065802B010BD7F170308CC160308550D01080B
S315080106681FB590F824300C49B3FA83F35B098DF862
S31508010678043001AB02930123039304AB044613E93F
S315080106880C0009680C30FFF728FF0A230348C4E958
S31508010698133304B010BD00BFB81603088D0D010841
S315080106A813B5094B094900930523019302AB04467F
S315080106B813E90C0009680C30FFF70FFF0A230448F1
S315080106C8C4E9133302B010BD8D170308BC16030815
S315080106D8D10D01081FB54FF40173ADF8043001AB0C
S315080106E8029302230749039304AB044613E90C0052
S315080106F809680C30FFF7F1FE0A230348C4E91333E6
S3150801070804B010BDB4160308C50E010808B540683B
S3150801071800F0FEF808BD00210FF08AB808B5406850
S3150801072800F0F9F808BD000038B5084B044603601F
S31508010738406D20B9204601F09BFA204638BD056868
S315080107480C2101F003FE2846F3E700BFDC1603086F
S3150801075810B50446FFF7E8FF20466C2101F0F6FDBF
S31508010768204610BD042208B520F098FAB0FA80F0A0
S31508010778400908BD02780B789A420DD142784B7820
S315080107889A4209D382788B789A4205D1C078CB7870
S31508010798C31A5842584170470020704710B50C1AB9
S315080107A8134605D001462246184620F095FA03460F
S315080107B8181910BD70B58EB0054601A813F0C4FB0B
S315080107C8DDE901641D221D2C4FF0000106A828BF8A
S315080107D81D2420F09BFA01238DF8143009238DF87E
S315080107E81730A31C31198DF8153006AA631C304633
S315080107F88DF81630FFF7D2FF05AB08490393043481
S31508010808234605F10C00039A09680494FFF765FE67
S315080108180A230348C5E913330EB070BDD016030879
S315080108288D0E01082DE9F0418EB0054601A813F091
S315080108388BFBDDE90178444605AE082C4FF0210209
S315080108484FF00001304628BF082420F05FFA4FF41C
S315080108588173ADF81630234BB8F1080F069303F1E7
S31508010868F55303F5DE1303F6C453079303F10B5344
S3150801087803F53B2303F5FF73089303F15543A3F5E2
S315080108885513A3F67E1309934FF67A43ADF8283024
S315080108984FF0E7038DF82A3004F117038DF8153060
S315080108A804F101038DF82B308CBF08230923391964
S315080108B80DF12D0238468DF82C30FFF76FFF0A49DE
S315080108C81934234605F10C0032460968039604943F
S315080108D8FFF703FE0A230548C5E913330EB0BDE839
S315080108E8F08100BF0611076CD0160308550E0108DA
S315080108F80E22064B1968884201D198887047013A31
S3150801090803F10803F6D14FF6FF707047EC16030892
S315080109188069FFF7EDBFC069FFF7EABF38B5044636
S315080109280C200D4601F006FD0346021D95E8030055
S3150801093882E80300626D63651A6038BD2DE9F041E6
S315080109488CB06B4683E8060090F84630064663B3D2
S31508010958142A144628BF14240D46002104F1040854
S3150801096805AF424638460B9120F0D0F996F845303E
S315080109788DF817408DF81430B6F84A30CDF82C8022
S315080109888DF815301B0A8DF816302B4606AA2C4405
S31508010998E11A00290CDC09490B9B3A46096806F154
S315080109A80C0003970493FFF798FD0CB0BDE8F08196
S315080109B813F8011B02F8011BEAE700BF921703089F
S315080109C810B5044621B18369C361012380F8303023
S315080109D82069FFF7A0FE4FF496730248C4E913335A
S315080109E810BD00BF010B0108F0B590F84430044664
S315080109F8022B95B005D0012115B0BDE8F040FFF7E7
S31508010A08DFBF01A813F0A0FADDE90175372D28BF64
S31508010A18372505AE3C220021304620F077F9B4F88F
S31508010A28483079190DF119023846ADF814308DF8A0
S31508010A381850FFF7B3FE084905352B4604F10C0093
S31508010A483246096803960495FFF747FD0A230348C2
S31508010A58C4E9133315B0F0BDC4160308090E010815
S31508010A6810B504464C3001F030FC04F1580001F089
S31508010A782CFC04F1600001F028FCA369204698477C
S31508010A88237DA06133B10023012120462375FFF791
S31508010A9897FFA06110BD000013B5094B09490093DA
S31508010AA80123019302AB044613E90C0009680C30CB
S31508010AB8FFF713FD64230448C4E9133302B010BDD4
S31508010AC8601703085C170308790B010810B5044673
S31508010AD8012100690EF0ACFEE36C43B904F10C0080
S31508010AE8FFF777FD2046BDE81040FFF7D5BF014857
S31508010AF810BD00BF010B0108FFF7E8BF2DE9FF414B
S31508010B08002504462F46DFF85C80CDE9027702AE58
S31508010B1896E80C00684604F10C01FFF712FD9DF8EA
S31508010B2804304BB1009B414630460293FFF722FE3B
S31508010B38002818BF0546E8E745B194F846200AB1E2
S31508010B4884F84630084804B0BDE8F081E36C33B947
S31508010B580121204604B0BDE8F041FFF731BF03483B
S31508010B68F1E700BF61170308CD0B0108790B0108E6
S31508010B78FFF7C4BF002313B5CDE90033074902AB14
S31508010B88044613E90C0009680C30FFF7A6FC0A238A
S31508010B980348C4E9133302B010BD00BFC0160308E1
S31508010BA80D0F010890F82420012A06D890F82C3050
S31508010BB80BB1FFF7DFBFFFF71FBD0148704700BF3D
S31508010BC8CD0B0108FFF7EEBF7FB5C36D11498365E4
S31508010BD8436E03AA03660023CDE9033380F8303050
S31508010BE88DF8143006238DF80D300C238DF80F3047
S31508010BF8C8238DF8133090F8453009688DF80C30FC
S31508010C0809230C3001920293FFF767FC024807B0E3
S31508010C185DF804FB65170308191401082DE9F0475F
S31508010C2896B00E46694604461746DDF87C8081E883
S31508010C380C000DF11C0908F1020A53464A4604F14B
S31508010C480C0103A8CDE9059AFFF77BFC9DF810303E
S31508010C589DF80D50002B38D09DF80C30202BECD17F
S31508010C68012DEAD99DF80E20B3789A42E5D19DF867
S31508010C780F20F3789A42E0D19DF81C309DF81D2083
S31508010C8813430FD1023DB8F1000F12D1019B84F825
S31508010C9844505A1004EB6300DB0744BFA358DF59D5
S31508010CA8B84703E001212046FFF78AFE16B0BDE8DA
S31508010CB8F0870DF11E01454594BF491941441E9A0D
S31508010CC80DF11E00FFF76AFDE0E7E36C33B9012170
S31508010CD8204616B0BDE8F047FFF772BEA069E5E7FA
S31508010CE810B50A4B86B004930023044619461846DC
S31508010CF88DE803000593CDE9023306AB204613E9CF
S31508010D080C000349FFF78AFF06B010BD350601082E
S31508010D18C8160308FFF7E4BF10B50A4B86B0049353
S31508010D2800230446194618468DE803000593CDE9BC
S31508010D38023306AB204613E90C000349FFF76EFF99
S31508010D4806B010BD69060108CC160308FFF7E4BF0B
S31508010D5810B50A4B86B0049300230446194618466B
S31508010D688DE803000593CDE9023306AB204613E95E
S31508010D780C000349FFF752FF06B010BDA906010882
S31508010D88B8160308FFF7E4BF10B500F1480200F1E9
S31508010D984A0386B09B1A03930446094B10460493E3
S31508010DA80023039905938DE8030006AB02922046B2
S31508010DB813E90C000349FFF731FF06B010BD00BF60
S31508010DC8F1090108BC160308FFF7DEBF10B50A4B7F
S31508010DD886B0049300230446194618468DE803008D
S31508010DE80593CDE9023306AB204613E90C000349FE
S31508010DF8FFF714FF06B010BD2D080108C41603082D
S31508010E08FFF7E4BF30B587B004AD0446284613F0AA
S31508010E189BF805990A4A0B4B082998BF1346049368
S31508010E280023194618468DE803000593CDE90233D0
S31508010E3895E80C0020460449FFF7F0FE07B030BDD7
S31508010E48DD060108BD070108D0160308FFF7DABF52
S31508010E5810B50A4B86B0049300230446194618466A
S31508010E688DE803000593CDE9023306AB204613E95D
S31508010E780C000349FFF7D2FE06B010BDDD060108CE
S31508010E88D0160308FFF7E4BF10B50A4B86B00493DA
S31508010E9800230446194618468DE803000593CDE94B
S31508010EA8023306AB204613E90C000349FFF7B6FEE1
S31508010EB806B010BDE1050108B4160308FFF7E4BF3B
S31508010EC830B5002504462946284687B08DE803002B
S31508010ED8094B0595049306AB13E90C002046CDE9A1
S31508010EE802550649FFF79AFE054B984208BF84F84A
S31508010EF82C5007B030BD00BF01060108C01603080B
S31508010F081D0D0108FFF7DCBFF0B587B00446084692
S31508010F18694681E80C001449FFF72CFC9DF83060F6
S31508010F2805469DF8347068B1009A137A527A8DF895
S31508010F380F3017B94EB1FF2A07D084F84530012377
S31508010F4884F84630284607B0F0BD0DF10F0304931F
S31508010F5801230649059306AB096804F10C0013E950
S31508010F680C00FFF7BAFAEDE78517030869170308AE
S31508010F7813B50446084602A901E90C000749FFF713
S31508010F88F1FB48B194F8460030B1009B94F8452026
S31508010F989B789B1A5842584102B010BD811703081D
S31508010FA8F0B504463C2695B005AFCDE9037603AD01
S31508010FB895E80C0004F10C0101A8FFF7C2FA9DF89F
S31508010FC808309BB1CDE90376204695E80C0001A9BE
S31508010FD8FFF7CEFF0028E8D02069FFF79CFB4FF4FE
S31508010FE89673C4E91333044815B0F0BDE36C002BB6
S31508010FF8F2D00248F8E700BF010B010809100108F9
S31508011008FFF7CEBF13B500F1450300930123044644
S315080110180849019302AB13E90C0009680C30FFF77C
S315080110285CFA32232046C4E9133302B0BDE81040FE
S31508011038FFF7B6BF6917030837B50446084602A974
S3150801104801E90C000B499DF81850FFF78BFB50B1C5
S31508011058009A13794DB113F0010004D02846B2F865
S315080110680130A4F84A3003B030BDD84300F0010076
S31508011078F9E700BF8917030813B50446084602A904
S3150801108801E90C000549FFF76DFB20B1009B1B8898
S315080110980BB1A4F8683002B010BD00BF7B1703086E
S315080110A8F0B587B005460846694681E80C0019492E
S315080110B8FFF760FB9DF830700446D8B1009B1649C6
S315080110C81E7805F10C0003AA04ABB7B195F846706A
S315080110D89FB195F84550B5420FD1049202220124D1
S315080110E8059209680CCB8DF80D408DF80C503C46D5
S315080110F8FFF7F3F9204607B0F0BD0492022200254E
S31508011108059209680CCB8DF80D508DF80C60FFF720
S31508011118E4F9EFE77717030873170308F0B590F8AA
S315080111282C30044697B053BB90F82430023B012B68
S3150801113825D93C2607AFCDE9057605AD95E80C0016
S3150801114804F10C0103A8FFF7FCF99DF8103053B315
S3150801115894F82430CDE90576B3FA83F35B0901934C
S3150801116801230093204695E80C0003A9FFF7CCFE56
S3150801117878B14FF4FA730D48C4E9133307E02069C7
S31508011188FFF7C9FA4FF49673C4E91333084817B039
S31508011198F0BDCDE90576009003A9204695E80C002F
S315080111A8FFF77EFFC7E70348F1E700BF8112010889
S315080111B8010B0108C1110108FFF7B0BF2DE9F0417C
S315080111C890F824300446032B96B024D0C36C13B385
S315080111D83C2607AFCDE9057605AD95E80C0004F17F
S315080111E80C0103A8FFF7ADF99DF81030002B3FD085
S315080111F84FF00108CDE90576CDF80080204695E837
S315080112080C0003A9FFF718FF68B12046FFF7DCFCB5
S3150801121816B0BDE8F0812046A369E36116B0BDE8BA
S31508011228F041FFF7EFBECDE90576204695E80C00B3
S3150801123803A9FFF79DFE20B141462046FFF7C0FBEB
S31508011248E6E7CDE9000003A995E80C002046FFF773
S315080112585BFE94F82430CDE90576B3FA83F35B0986
S315080112680093204695E80C0003A9FFF719FFB1E793
S315080112780048CDE781120108FFF7A0BFF0B585B090
S315080112880F466946054681E80C0038461149FFF7B5
S3150801129871FA064688B1009C95F8453022789A4233
S315080112A80BD123794BB963793BB97B78A279073B8B
S315080112B89A4202D16D6DE71D15B9304605B0F0BDE4
S315080112C8A379281DCDE9027302A96B6898472D6889
S315080112D8F2E700BF6F1703082DE9F04790F82430A5
S315080112E80446032B96B004D116B0BDE8F047FFF7BC
S315080112F889BE836D00F10C0807AE53B9CDE90733EA
S315080113083F4996E80C0040460968FFF7E6F8E36D99
S31508011318A365DFF8F09005AD3C270596069795E88D
S315080113280C00414603A8FFF70CF99DF81030002B6D
S315080113385ED0CDE90567204695E80C0003A9FFF7B5
S3150801134817FE824650B12069FFF7E5F94FF49673FF
S31508011358C4E913332C4816B0BDE8F08703A995E804
S315080113680C002046FFF78AFFCDE90567CDE900AAF3
S3150801137803A995E80C002046FFF7C6FD94F8243022
S31508011388CDE90567B3FA83F35B09009303A995E8E1
S315080113980C002046FFF784FECDE90567204695E847
S315080113A80C0003A9FFF768FE18B1E36DA365636E20
S315080113B823663C230693002305960093204695E861
S315080113C80C0003A9FFF738FE18B12046FFF71AFEE5
S315080113D8C1E7494603A8FFF7CDF900289CD09DF82F
S315080113E81C309DF81D20134396D1636E236693E737
S315080113F8236E0BB10548AEE7A369E361E5E700BFCC
S31508011408AC160308B0160308010B010819140108DC
S31508011418FFF762BF70B504460D46164600F030FC64
S3150801142820461B4B3246294640F80C3B0123FFF759
S3150801143837F8184A00232262174AC4E90633A26212
S31508011448164AC4E91233C4E90D24154AC4E9143302
S31508011458C4E90F241922C4E917233322206984F819
S31508011468243084F82C3084F8303084F8443084F8F1
S315080114784630A365A4F868306266FFF74CF94FF45D
S315080114889673C4E91333074B2046A36170BD00BFA1
S31508011498DC16030874160308841603089416030849
S315080114A8A4160308010B010810B50446044B40F8B5
S315080114B8103B00F0D9FF204600F0DAFB204610BDA4
S315080114C8E817030810B50446FFF7EEFF20462C2156
S315080114D800F03CFF204610BDC368103093F8301061
S315080114E800F099BF38B508461C464AB91B681D69F4
S315080114F80B681B68984701462046A847012038BD4E
S315080115080020FCE713B50C46184662B91B680DF1AD
S3150801151806011B699847236820465B68BDF80610CB
S31508011528984702B010BD0020FBE738B508461C46A7
S315080115384AB91B681D680B681B6898470146204607
S31508011548A847012038BD0020FCE713B50C46184604
S3150801155862B91B680DF107011B689847236820467D
S315080115685B689DF80710984702B010BD0020FBE795
S3150801157838B508461C464AB91B689D680B681B6836
S31508011588984701462046A847012038BD0020FCE7B0
S3150801159813B50C46184662B91B680DF107019B6815
S315080115A89847236820465B689DF80710984702B054
S315080115B810BD0020FBE7000070B50C46054600F093
S315080115C85FFB184B01222B601749EC6005F11000E7
S315080115D800F030FF102000F0ADFE04F12002134B95
S315080115E8134903F089FA102000F0A4FE114E04F1FC
S315080115F82802114B114903F07FFA102000F09AFED0
S31508011608334604F134020E4903F076FA102000F045
S3150801161891FE33460B4904F13C0203F06DFA28465C
S3150801162870BD00BFE8170308CA550308DC17030885
S3150801163828690308D4170308D8170308006103089B
S31508011648585D03088865030813B50446014601224F
S315080116580DF107001FF032FB012220460DF10701A3
S315080116681FF02CFB02B010BD13B504460146022231
S315080116780DF106001FF022FBBDF8063002225BBAFF
S3150801168820460DF10601ADF806301FF017FB02B02A
S3150801169810BD70B50D4616460446102000F04AFEE0
S315080116A833462A462146BDE8704003F025BA0000AC
S315080116B82DE9F0410C460546144E0068324601F5F7
S315080116C80561FFF7E6FF3246A86804F65C01FFF7ED
S315080116D8E0FF324604F664016868FFF7DAFF0C4E44
S315080116E82F69102000F026FE3346394604F66C02A7
S315080116F803F002FAED68102000F01CFE334629466D
S3150801170804F67402BDE8F04103F0F6B9D4170308E4
S31508011718DC17030830B5044640F2D2450120AB422E
S3150801172800FA02F000F1FF3017D041F2E105AB42A9
S3150801173821D1A568E368C1F140018A1A2DBA1BBAF5
S31508011748C2F12004A2F12001D34005FA04F4234387
S3150801175825FA01F10B43184030BDD4E90235C1F128
S315080117682004A1F12002CB4005FA04F4234325FA03
S3150801177802F21343EFE70020EEE7F0B5144640F20C
S31508011788D24293420F46059907D041F2E1029342A4
S3150801179834D1C4F14003DF1B09BA0122D0E9026535
S315080117A8A4F12003C4F1200C22FA0CFC02FA03F373
S315080117B8A240013A43EA0C0343F1FF33A7F1200C8F
S315080117C802FA0CFCC7F12004BB4022FA04F443EAE6
S315080117D80C032343C7F1200CA7F1200401FA04F4EA
S315080117E821FA0CFC44EA0C04B940BA4071406C4031
S315080117F80A40234072406B40C0E90223F0BD1FB579
S31508011808027D00238DF80420FF2204460169CDE9EB
S315080118180233C361036800911B6969468DF805207F
S3150801182898476946E0680CF077FF04B010BD8169EE
S3150801183831B1C2690A329142C26101D8FFF7DFBFE5
S3150801184870470000F8B504461D460F46164600F0CF
S3150801185817FA054B20462360069BC4E90376A3615C
S3150801186800232575E361F8BD0018030810B5044679
S31508011878024B036000F0FCF9204610BD0018030866
S31508011888436810B59A68541C9C601B68995410BD26
S3150801189873B544680546A368266822691E4441F259
S315080118A8E1039A4218D18DF8061001220DF10601B5
S315080118B80DF107001FF002FA0DF10700FFF7C4FE44
S315080118C8012230460DF107011FF0F8F92846A368E9
S315080118D80133A36002B070BD8DF80710F0E773B540
S315080118E844680546A368266822691E4441F2E1034D
S315080118F89A4218D18DF8061001220DF106010DF14B
S3150801190807001FF0DBF90DF10700FFF79DFE01221D
S3150801191830460DF107011FF0D1F92846A3680133AE
S31508011928A36002B070BD8DF80710F0E773B5446877
S315080119380E462368A2680546991841F2E103226909
S315080119489A424FF001020AD10DF106001FF0B6F9C5
S315080119580DF10600FFF778FE01220DF106010DF1DA
S3150801196807001FF0ABF92846A3689DF9072001333C
S31508011978A360327002B070BD73B544680E46236819
S31508011988A2680546991841F2E10322699A424FF07D
S3150801199801020AD10DF106001FF090F90DF10600B2
S315080119A8FFF752FE01220DF106010DF107001FF09E
S315080119B885F92846A3689DF807200133A360327084
S315080119C802B070BD73B544680E462368A268054619
S315080119D8991841F2E10322699A424FF001020AD1A4
S315080119E80DF106001FF06AF90DF10600FFF72CFE46
S315080119F801220DF106010DF107001FF05FF92846CE
S31508011A08A3689DF807200133A360327002B070BD40
S31508011A1873B544680546A368266822691E4441F2D7
S31508011A28E1039A4217D1ADF80410022201A90DF172
S31508011A3806001FF043F90DF10600FFF715FE02220D
S31508011A4830460DF106011FF039F92846A368023315
S31508011A58A36002B070BDADF80610F0E773B5446827
S31508011A680546A368266822691E4441F2E1039A429B
S31508011A7817D1ADF80410022201A90DF106001FF0CD
S31508011A881DF90DF10600FFF7EFFD022230460DF1AB
S31508011A9806011FF013F92846A3680233A36002B0AA
S31508011AA870BDADF80610F0E773B544680E462368AD
S31508011AB8A2680546991841F2E10322699A424FF04C
S31508011AC8020207D101A81FF0F9F801A8FFF7CCFD12
S31508011AD8022201A90DF106001FF0F0F82846A368AD
S31508011AE8BDF806200233A360328002B070BD73B513
S31508011AF844680E462368A2680546991841F2E10327
S31508011B0822699A424FF0020207D101A81FF0D6F8B6
S31508011B1801A8FFF7A9FD022201A90DF106001FF088
S31508011B28CDF82846A368BDF906200233A36032809A
S31508011B3802B070BD042213B5044601460DEB020036
S31508011B481FF0BCF80422019B20461BBA0DEB0201C3
S31508011B5801931FF0B3F802B010BD73B54468054682
S31508011B68A368266822691E4441F2E1039A4215D1FF
S31508011B78042200910DEB020069461FF09FF801A89F
S31508011B88FFF7D8FF042230460DEB02011FF096F83D
S31508011B982846A3680433A36002B070BD0191F1E732
S31508011BA873B544680546A368266822691E4441F246
S31508011BB8E1039A4215D1042200910DEB0200694608
S31508011BC81FF07CF801A8FFF7B5FF042230460DEB94
S31508011BD802011FF073F82846A3680433A36002B00C
S31508011BE870BD0191F1E773B544680E462368A2688A
S31508011BF80546991841F2E10322699A424FF004020F
S31508011C0807D168461FF05AF86846FFF793FF04227A
S31508011C1869460DEB02001FF051F82846A368019A98
S31508011C280433A360326002B070BD73B544680E46CA
S31508011C382368A2680546991841F2E10322699A427E
S31508011C484FF0040207D168461FF038F86846FFF7CF
S31508011C5871FF042269460DEB02001FF02FF828468A
S31508011C68A368019A0433A360326002B070BD704755
S31508011C78704710B504460C2100F068FB204610BDD4
S31508011C88024A02600022C0E9012270476418030863
S31508011C9838B5054655F8104FA54200D138BD54F850
S31508011CA8043C201F1B6898472468F5E738B504469D
S31508011CB854F8105FA54200D138BD55F8043C281FD1
S31508011CC85B6898472D68F5E710B50446FFF7D8FF0E
S31508011CD8044B204623600023E36004F11003C4E99A
S31508011CE8043310BD7C180308436910B50A1D00F1B1
S31508011CF810048B604C6042611A60C3680133C36083
S31508011D0810BDF8B505460026044655F8100F854254
S31508011D1803D1C4E90455E660F8BD50F8042C0768F0
S31508011D28D268C0E90066043890473846EFE70000EC
S31508011D3810B50446FFF7C8FF014B2046236010BDBE
S31508011D48941803080346002110B553F8042F934243
S31508011D5803D1C0E90133016010BD1468C2E9001155
S31508011D682246F4E710B50446044B40F80C3BFFF746
S31508011D78E9FF2046FFF77CFF204610BD7C180308BB
S31508011D8810B50446FFF7EEFF2046182100F0DEFAE3
S31508011D98204610BD10B50446044B40F80C3BFFF726
S31508011DA8D1FF2046FFF7DEFF204610BD9418030829
S31508011DB810B50446FFF7EEFF2046182100F0C6FACB
S31508011DC8204610BD0068B0FA80F040097047002027
S31508011DD8704708B54068FFF7F5FF08BD8068704782
S31508011DE80B6808469B6818474368585C7047002083
S31508011DF8704743681868704700207047F8B51D464C
S31508011E080B6808469B6816460C469847B0420BD994
S31508011E182B6831469F68236820461B689847014600
S31508011E282846B8470120F8BD0020FCE773B51E46C9
S31508011E380B6808469B6815460C469847A8420ED96A
S31508011E4833680DF107019B68304698472368294688
S31508011E5820465B689DF80720984702B070BD0020A8
S31508011E68FBE738B508461C464AB91B689D690B68DD
S31508011E781B68984701462046A847012038BD002017
S31508011E88FCE713B50C46184652B91B6801A99B69A4
S31508011E989847236820465B680199984702B010BDA0
S31508011EA80020FBE770B50D4616460446102000F0DB
S31508011EB841FA33462A462146BDE8704002F01CBE5F
S31508011EC830B585B0044600F045FA284D0C30256032
S31508011ED8606000F03FFA0830A560E06000F03AFA61
S31508011EE8C4E9045000F036FA0430A561E061684691
S31508011EF800F074F8009B1E4D6362019B02A8A36259
S31508011F08256200F075F8029B21462363039B194A4B
S31508011F1863631948E562FFF7C5FF164A174804F1CE
S31508011F280801FFF7BFFF134A154804F11001FFF727
S31508011F38B9FF104A04F118011248FFF7B3FF102038
S31508011F4800F0F8F9104B114904F1200202F0D4FD0A
S31508011F58636B43B1102000F0EDF90B4B0C4904F102
S31508011F682C0202F0C9FD204605B030BDBC1803088D
S31508011F78CC18030804190308F86203080063030860
S31508011F88686703082066030800190308E06503085B
S31508011F98986703087047037A01728B422CBF00239E
S31508011FA8012303717047037A01728B4294BF002398
S31508011FB8012303717047007820F02003413B052B64
S31508011FC80AD9A0F13003092B06D9A0F12B035842E7
S31508011FD8584180F0010070470120FAE70346034A91
S31508011FE892E8030083E803001846704708190308AE
S31508011FF8234970B5044602260D460846FFF7DBFF56
S3150801200800283AD14A1C1046FFF7D5FFD0B98A1CD1
S315080120181046FFF7D0FFA8B9CA1C1046FFF7CBFF31
S3150801202880B9012E01F1040217D1164B9B1A022B0E
S315080120381CD0032B14D0012B03D11046FFF7BBFF85
S3150801204800B9104A521B062AD8BF00232046CCBF1E
S31508012058C4E90052C4E9003370BD01261146CCE72C
S315080120681046FFF7A8FF0028ECD14A1D1046FFF7CE
S31508012078A2FF0028E6D10132DFE70A46E2E700BFF8
S31508012088840100088C0100084368003B18BF012336
S315080120980B70704743680B70704743680B7070473D
S315080120A843680B80704743680B80704743680B6029
S315080120B8704743680B607047012241600272704796
S315080120C8012241600272704701224160027270471B
S315080120D8012241600272704701224160027270470B
S315080120E801224160027270470122416002727047FB
S315080120F8704708B50CF072F8027843781AB11B01D3
S3150801210883F3118870470BB162B6704772B6704788
S315080121180120704711B94368036070470023FBE73C
S3150801212809B100F0D2B8426802607047054B10B58C
S31508012138044618681DF0ABF900232060237220466F
S3150801214810BD00BF7843002003689B6B194401231F
S315080121584160037270470346007A40B11A685968A4
S31508012168926B91424FF0000203D21A72704701200E
S3150801217870471046704743681847000013B5044668
S3150801218840F8041BFFF7D4FD04F11C00FFF7D0FD46
S3150801219800232068A36384F83430E36303694FF4A2
S315080121A87A715B6810309847044B20686946CDE90F
S315080121B800340DF033FC204602B010BDFB2101089E
S315080121C838B5836B0446013383630068836918301D
S315080121D81B68984794F83430054613B1201DFFF754
S315080121E865FD2068836918301B689847401BE063BA
S315080121F838BD4068FFF7E4BF38B590F8343004466F
S315080122088BB9043004F11C05FFF742FD2846FFF790
S315080122183FFD012384F834302846FFF747FD94F833
S315080122283430002BF8D138BD37B505460446094B75
S3150801223855F81C0B0093084B694601930DF0EEFB04
S315080122482846FFF7A7FD201DFFF7A4FD204603B082
S3150801225830BD00BF7F210108F92001084268013213
S3150801226842607047426801324260704742680232EA
S3150801227842607047426802324260704742680432D7
S3150801228842607047426804324260704742680132C8
S3150801229842607047024A026000224260704700BFE6
S315080122A8601903087047436833B1642102684A43D1
S315080122B8B2FBF3F398B270471846704708B5FFF7AB
S315080122C8F2FFC0F1640080B208BD03680BB1013B97
S315080122D8036070477047FEE708B51EF0D9FC582316
S315080122E803604FF0FF3008BD0346044A1068C11859
S315080122F8116003498A681A448A60704700400020B9
S31508012308804300200346094A10B511680131116056
S315080123184107074918BF20F00703086818BF08339B
S31508012328C4180C6091681944916010BD8043002057
S3150801233800400020FFF7E6BFFFF7E4BF024A5368EB
S3150801234801335360704700BF80430020FFF7F6BF8B
S31508012358FFF7F4BF0048704780430020024B034942
S31508012368034A5B1AD360704700C00120F8A300200E
S3150801237880430020303809288CBF00200120704787
S31508012388FEE70346012001B97047CA0748BF584303
S3150801239849085B43F7E75B1A10B50446084607D0B0
S315080123A8121B05D00299091B594391FBF2F10844FE
S315080123B810BD03460088814203D35888884228BF3E
S315080123C80846704710B504460448FFF7F2FF642328
S315080123D800B2604390FBF3F000B210BD7C19030804
S315080123E838B504460D4608481146FFF7E2FFC0F11D
S315080123F8640300B260431BB205FB0300642390FB28
S31508012408F3F000B238BD00BF7C190308406870476D
S31508012418416001207047037B2BB921B143697E2BA3
S315080124289CBF0133436101737047002343610373FA
S3150801243870470000094B10B58360002304460271F2
S31508012448074A0373C0E90423064B016018681DF09F
S3150801245823F8214600F0D2FC204610BD841603084D
S31508012468881903087843002010B50446044B1868F0
S315080124781DF012F8214600F094FC204610BD00BF55
S315080124887843002003685B681868704703680BB9C6
S31508012498184670475A68107B0028FAD11B68F6E770
S315080124A80368002003B970475A681B6852691044C3
S315080124B8F8E710B5046804B910BD6068FFF7B5FFF9
S315080124C82468F8E70246002010B513461A461B6821
S315080124D863B15C688C42F9D11C68146018601846A7
S315080124E8F3E704680821FFF731FF20460028F8D1E9
S315080124F810BD38B50D4604460820FFF71BFF2B68A3
S31508012508436023682060036038BD002313B5044679
S315080125180191036001A9FFF7ECFF204602B010BD3F
S3150801252807B5019101A9FFF7E4FF03B05DF804FBBC
S3150801253810B50446806A03681B689847014604F182
S315080125480C00BDE81040FFF766BF000010B5044649
S31508012558044B40F80C3BFFF787FF2046FFF788FB3B
S31508012568204610BD9819030810B50446FFF7EEFF73
S3150801257820462C21FFF7EAFE204610BD70B5044611
S315080125880D461646FFF77CFB2046054B2A7929682E
S3150801259840F80C3BFFF74EFF2046A66270BD00BF08
S315080125A8981903080B6808469B6818470B68084674
S315080125B89B6818470B6808469B681847F8B51D466F
S315080125C80B6808469B6816460C469847B0420BD9CD
S315080125D82B6831461F68236820461B6898470146B9
S315080125E82846B8470120F8BD0020FCE773B51E4602
S315080125F80B6808469B6815460C469847A8420ED9A3
S3150801260833680DF107011B68304698472368294640
S3150801261820465B689DF80720984702B070BD0020E0
S31508012628FBE7F8B51D460B6808469B6816460C462F
S315080126389847B0420BD92B6831461F69236820464B
S315080126481B68984701462846B8470120F8BD002067
S31508012658FCE773B51E460B6808469B6815460C4683
S315080126689847A8420ED933680DF106011B69304609
S3150801267898472368294620465B68BDF80620984787
S3150801268802B070BD0020FBE7F8B51D460B68084681
S315080126989B6816460C469847B0420BD92B683146B3
S315080126A89F69236820461B68984701462846B84704
S315080126B80120F8BD0020FCE773B51E460B680846DD
S315080126C89B6815460C469847A8420CD9336801A950
S315080126D89B69304698472368294620465B68019ACC
S315080126E8984702B070BD0020FBE770B50D4616463F
S315080126F804461020FFF71EFE33462A462146BDE842
S31508012708704002F0F9B970B50D4616460446102010
S31508012718FFF710FE33462A462146BDE8704002F007
S31508012728EBB9000070B505460C46224E00F0E2F8F2
S31508012738324629462048FFF7E6FF1020FFF7FAFD3B
S315080127481E4B04F50A721E4902F0D6F9324604F5FB
S315080127580C711C48FFF7D7FF32461B4E04F50E715C
S315080127681A48FFF7D0FF324604F514711848FFF7DF
S31508012778BCFF324604F51B711648FFF7B6FF102051
S31508012788FFF7D8FD144B04F51E72144902F0B4F983
S31508012798324604F520711248FFF7A7FF1020FFF704
S315080127A8C9FD104B104904F5227202F0A5F928460D
S315080127B870BD00BF04190308F85F0308D817030892
S315080127C838690308C05D0308EC190308F05F0308B4
S315080127D8A063030898640308E8190308206903082D
S315080127E818690308E41903084069030870470000D3
S315080127F838B504460D46FFF743FA2046034B2946E2
S3150801280840F80C3B00F03CF8204638BDF819030897
S3150801281810B50446044B40F80C3BFFF725FE204645
S31508012828FFF726FA204610BDF819030810B504461D
S315080128381C30FFF775FCE1692046BDE81040B1FA7E
S3150801284881F14909FFF7E7BD10B50446FFF7EDFD24
S3150801285804F11C000021BDE81040FFF75BBC00002D
S3150801286838B504461D46FFF7E5FD044B2046636265
S3150801287804F11C03C4E90755A36238BDAC1803085B
S3150801288838B50D4604460A790968FFF7D3FDAB68DA
S315080128982046C4E90733034B636204F11C03A362A8
S315080128A838BD00BFAC180308436824338360012088
S315080128B8704738B504466368A56803F12402D3F856
S315080128C8243202EB83039D4202D10020A2600FE065
S315080128D82B1D2846A360FFF7E3FD0028EBD0284601
S315080128E8FFF7D0FD04882846FFF7D0FD44EAC070F3
S315080128F838BD0000024AC0E90021243181607047C9
S31508012908101A0308D0F824027047002070470020DF
S31508012918704700207047436853F82100704780685C
S31508012928704740687047243008B500EB8100FFF707
S31508012938A9FD008808BD243000EB8100FFF7A6BD74
S31508012948243000EB8100FFF7ABBD000010B5044643
S31508012958044B0360FFF7D5F92046FFF703FA20462B
S3150801296810BD00BF201A030810B50446FFF7EEFF8D
S3150801297820461821FFF7EAFC204610BD08B540682D
S31508012988FFF7D1FF08BD08B54068FFF7D9FF08BDAD
S3150801299808B54068FFF7B6FF08BD08B54068FFF7F0
S315080129A8CAFF08BD70B50D460446006820B92060FF
S315080129B82B682360286070BD06680821FFF7C6FCE6
S315080129C83046F3E7884204D0B4BF4FF0FF30012000
S315080129D870470020704708B54068FFF793FF08BDA0
S315080129E808B54068FFF78EFF08BD10B510460C46B6
S315080129F8FFF748FD01882088FFF7E4FFC0F3C010F8
S31508012A0810BD10B508461446FFF73CFD2188008815
S31508012A18FFF7D8FFC0F3C01010BD38B508461546EC
S31508012A28FFF730FD04462846FFF72CFD0188208864
S31508012A38FFF7C8FFC0F3C01038BD38B5D0F824521F
S31508012A4800F1240404EB8505A54200D138BD2046CA
S31508012A58FFF72FFD0434F7E710B50446FFF7EDFF36
S31508012A6804F10C00BDE81040FFF712B92DE9F84347
S31508012A7804460C30FFF71AF994F82C322BB10023C7
S31508012A88204684F82C32FFF7D8FF04F5107104F5AF
S31508012A981470431A002B06DD0A46002503F5107340
S31508012AA823449A4221D104F5177504F51B777B1B34
S31508012AB8002B06DD2A46002603F5177323449A4296
S31508012AC816D1D4F8242204F1240303EB820E7345A4
S31508012AD811D1002388422ED1C4F834320023AF42DB
S31508012AE82DD1C4F83C32BDE8F88342F8045BD8E72F
S31508012AF842F8046BE3E753F804CBBCF1000FE6D0C0
S31508012B08DCF8048098F80C6098F8042036B104EBD0
S31508012B188209D9F840620136C9F84062D8F81460C2
S31508012B2836B104EB8202D2F85C620136C2F85C62FD
S31508012B38DCF800C0E1E751F8042B1344CAE755F855
S31508012B48042B1344CBE700002DE9F0410446FFF7AF
S31508012B5897F8234600254FF010081F4A002143F825
S31508012B680C2B184618221EF0D1F8FFF7ADF81B4BA7
S31508012B784246E3601A4B2946C4F82832194BC4F869
S31508012B882452C4E98E35C4F8303204F51073184650
S31508012B9884F82C52C4F834521EF0B8F80426124F99
S31508012BA804F51773C4E99470424629461846C4F8C9
S31508012BB858621EF0ABF80D4BC4E99B70C4E99E3404
S31508012BC80B4B2046C4E9A0340A4BC4F87462C4E91D
S31508012BD8A234BDE8F08100BF981A0308201A030831
S31508012BE884160308381A0308481A03085C1A0308DE
S31508012BF8701A0308841A03082DE9F04706460D4694
S31508012C0890460F46D1F8004244F31D0484B9D5F815
S31508012C180042376005EB8404BC4206D03A46414671
S31508012C282846FFF7E2FE00B134603046BDE8F08772
S31508012C384FEA540907EB890A424651462846FFF7DF
S31508012C48E0FE28B1013C0AF10407A4EB0904DDE713
S31508012C584C46DBE737B5054600F124040A4601A8C0
S31508012C682146FFF7C9FFD5F82432019804EB8304F6
S31508012C78A04203D0FFF70AFC03B030BD0020FBE7EA
S31508012C8837B5054600F124040A4601A82146FFF787
S31508012C98B3FFD5F82432019804EB8304A04201D086
S31508012CA8FFF707FC03B030BD37B5054600F1240424
S31508012CB80A4601A82146FFF79FFFD5F8243201984D
S31508012CC804EB8304001B18BF012003B030BD2DE9AE
S31508012CD8F84F002307460C4690460E46D1F800528F
S31508012CE8036001EB850A037145F31D054DB9B24524
S31508012CF819D10123D4F800223B71802A1FD11DF06E
S31508012D08B5FF4FEA550B06EB8B094246494620465D
S31508012D18FFF783FE28B1013D09F10406A5EB0B056A
S31508012D28E4E75D46E2E7324641462046FFF775FE87
S31508012D380028DED13D7138463E60BDE8F88F04EBC0
S31508012D488203B3424FF0000102F1010007D1D8F816
S31508012D580030C8F800103360C4F80002EBE753F8EE
S31508012D6804CC1D1F44F822C043F8041CC4F8000209
S31508012D78B54204D141463046FFF714FEDBE7043D68
S31508012D882946281DFFF70EFEF2E738B504460068FE
S31508012D9808B9204638BD05680821FFF7D7FA284635
S31508012DA8F6E773B5054600F124060A6801A80C4634
S31508012DB83146FFF721FFD5F82432019806EB83033C
S31508012DC8984214D02146FFF77DFB019C236873B905
S31508012DD8D5F8243206EB83060434A64209D1301FF6
S31508012DE8FFF7D3FFD5F82432013BC5F8243202B0E0
S31508012DF870BD2146201FFFF7D5FDEDE77FB50546CE
S31508012E080C4600F124060A6868463146FFF7F4FEBF
S31508012E18D5F82432009806EB83039842214603D055
S31508012E28FFF77EFB04B070BD01A8FFF76EFB02A889
S31508012E38314601AAFFF74BFF01A8FFF7A6FFF1E7FD
S31508012E4870B5054604460A4BD0F8246245F8243B72
S31508012E5846B904F10C00FFF779FD2046FEF708FF8D
S31508012E68204670BD2846FFF790FF013E0435EFE777
S31508012E78981A030810B50446FFF7E2FF20464FF4EF
S31508012E882471FFF763FA204610BD38B5C2680446AF
S31508012E984069D2F8345203685B6885B12269E169E9
S31508012EA85268B1FBF2F101F0010198470021A069C6
S31508012EB803685B689847E3690133E36138BDD2F86B
S31508012EC83C1219B12269E1699268EAE798472369C8
S31508012ED8E1691B68A069B1FBF3F1036801F0010117
S31508012EE85B68E7E710B50446024B0360FEF7C0FEC8
S31508012EF8204610BDB01A030810B50446FFF7F2FFBD
S31508012F0820462021FFF722FA204610BDF8B50446C7
S31508012F1816460F461D46FEF7B3FEC4E90376002694
S31508012F28084B31462360069B2846A3612B686561D1
S31508012F385B68E6619847A069314603685B68984704
S31508012F482046F8BDB01A0308B0F9040070470020F6
S31508012F587047436833F91100704700207047806845
S31508012F687047000010B50446024B0360FEF780FE61
S31508012F78204610BDEC1A030810B50446FFF7F2FF00
S31508012F8820462C21FFF7E2F9204610BD10B5012489
S31508012F98002386B000940A468DF80C30017C03ABF1
S31508012FA8C0680493059410F0D4FC20B120469DF816
S31508012FB80C308DF810309DF8103043EA002006B021
S31508012FC810BD10B50224002386B00094ADF80C3064
S31508012FD841F0800203AB017CC0680493059410F0A4
S31508012FE8B8FC20B10120BDF80C30ADF810308DF8C9
S31508012FF812000020BDF8103063F30F00BDF8123037
S3150801300863F31F4006B010BDF0B585B001AB029356
S315080130180223039304AB05460F468DF804108DF871
S315080130280520017C164613E90C00C06810F0BCFBA4
S31508013038394604462846FFF7A9FFADF808003CB10A
S315080130489DF8094024B19DF80840A31B5C425C41E0
S31508013058204605B0F0BD37B5457C044675BB0F213A
S3150801306845828582C582FFF791FF10F47F4FADF837
S31508013078040023D09DF80430332B1FD1C0221F2109
S315080130882046FFF7C1FFC8B1672220212046FFF76E
S31508013098BBFF98B12A4621212046FFF7B5FF68B13B
S315080130A82A4622212046FFF7AFFF38B18822232175
S315080130B8204603B0BDE83040FFF7A6BF284603B04F
S315080130C830BD1FB527210446FFF760FF034613F4F1
S315080130D87F4FADF80000C3F3072031D09DF80030C3
S315080130E81B072DD528212046FFF76BFF2A210190BA
S315080130F82046FFF766FF2C2102902046FFF761FF5D
S3150801310803909DF80600D8B19DF80A00C0B19DF84C
S315080131180E00A8B143F64A514FF47A32BDF9043084
S315080131284B4393FBF2F36382BDF908304B4393FB98
S31508013138F2F3A382BDF90C304B4393FBF2F3E38216
S3150801314804B010BD13B507210446FFF71FFF034650
S3150801315813F47F4FADF80000C3F3072017D09DF885
S3150801316800305B0713D50C212046FFF72AFF0346D3
S3150801317813F47F0F0190C0F3074008D00A23BDF95D
S315080131880420534348BFFF331B12FA33238502B081
S3150801319810BD70B50446032500262046FFF75BFFD8
S315080131A850B12046FFF78DFF30B12046FFF7CAFF19
S315080131B810B10123637470BD013D6674EDD1FAE758
S315080131C870B5154604460E46FEF75AFD0C4B002DFA
S315080131D8236014BF322330230A492374002304F1D8
S315080131E81202C4E9061203226374C4F81230E38290
S315080131F82385054B2046E6602262636270BD00BFDF
S31508013208EC1A0308C81A0308DC1A030803680269D2
S315080132185B6803EB5203B3FBF2F070470368426934
S315080132285B6803EB5203B3FBF2F0704790F844303E
S31508013238032B0BD1B1F57A7F08D8B0F8BC308B428D
S3150801324828BF0B46A0F8BE300120704700207047FA
S31508013258B1F57A7F28BF4FF47A71436901835943D7
S315080132684FF47A73B1FBF3F1C0F8B4100120704733
S3150801327840687047002070470079704700207047FA
S31508013288B0F904007047818001207047406870478B
S3150801329841600120704711B901610120704703682F
S315080132A85B68B1EB430F05D803EB5103B3FBF1F3A5
S315080132B80361F2E70020704721B94161C0F8B410EB
S315080132C80120704703685B68B1EB430F0DD803EB20
S315080132D85103B3FBF1F3028B436153434FF47A72FB
S315080132E8B3FBF2F3C0F8B430EAE7002070470346A7
S315080132F8D0F8080128B11B68D3F8A40EB0FA80F0F3
S31508013308400970474068FFF7C6BF4068FFF786BFA0
S315080133184068FFF79DBF4068FFF7E9BF4068FFF7B8
S3150801332875BF4368188B70474068FFF7C5BF406883
S31508013338FFF77CBF90F84400012802D0031F5842C2
S315080133485841704702680A4902F12C03C31A5B11EE
S315080133584B434FF47A7123F003031A441269520056
S31508013368A2F11E034B43B3FBF2F3A0F8BC30704736
S31508013378398EE33803680A2210B51C6842F20F73BE
S3150801338842F2107102FB0432B2FBF1F2C0F8DC20FA
S31508013398642202FB0433B3FBF1F3C0F8EC30C0F83E
S315080133A8FC30C0F80C3110BD40680CF047BA4068CB
S315080133B80CF03EBA037B10B50BB1C1F57A710368F7
S315080133C8826803F12C04001B064C4011604320F067
S315080133D8030003441B6959434FF47A73B1FBF3F1AC
S315080133E8116010BD398EE33802680B4902F12C03C6
S315080133F8C31A5B114B4323F003031A441369017B70
S315080134088268106801B1181A4FF47A725043B0FBF2
S31508013418F3F080B2704700BF398EE3384068FFF78A
S31508013428E3BF0023C0E93033C0E93233C0E9343396
S31508013438012380F8B930704738B500250446C0E934
S315080134484655FFF7EEFF2946E830FEF763FE29469B
S3150801345804F1F800BDE83840FEF75CBED0F8C43080
S3150801346810B58B4231DDC91A90F84430022B32D097
S31508013478A3F1050CDCF1000343EB0C030029D4BFC7
S3150801348800240124B3EBD17F0CBF01FB01F2002212
S315080134989C426FF41C74224414BF00214943002A34
S315080134A8D0F8D03019DA134423EAE373C0F8D030D8
S315080134B86FF41C7319440029D0F8D43015DA0B4473
S315080134C823EAE373C0F8D43010BDD0F8C8308B426C
S315080134D8C9DB0021C8E70123D0E76FF00044E41AE5
S315080134E89442D4BF1B199B18E0E76FF00042D21A21
S315080134F88A42D4BF9B185B18E4E740F27121D0E9E8
S3150801350834321A440368DB694B439A42D4BF002014
S3150801351801207047426922B9C0F81C2180F8B820F1
S315080135287047D0F81C3101339A4297BF0023C0F877
S315080135381C31C0F81C3180F8B830D0F81C21D0F8F5
S31508013548B4309A4224BF012380F8B83070472DE970
S31508013558F041D0F8184106690134B44228BF00245D
S3150801356890F8B83005468846C0F81841002B33D17B
S31508013578FFF7E0FEB5F97830024658B358423EB32C
S31508013588002BB8BF5B429FB2EB6D7B43B3FBF8F1E7
S315080135984FF47A737143B1FBF3F1731E9942A8BFCD
S315080135A81946B5F95430BB42A8BF3B4602B15B423E
S315080135B88C42A5BF641A761AC1EB4404A6EB4404E7
S315080135C8B5BF5C435C4394FBF1F494FBF6F42044E1
S315080135D8BDE8F0811846D2E70020F9E791F8B83036
S315080135E870B51BB100230360436070BD91F8446050
S315080135F8CC6D022EB1F8BC304FEA440512D0052E1F
S3150801360810D00E49A3F57A73514353434FF47A728E
S3150801361893FBF2F391FBF5F15343640893FBF4F337
S315080136280160E1E75A434FF47A7392FBF3F25A437E
S31508013638002192FBF5F201604260D6E718FCFFFF0C
S31508013648F7B50E4603680446014668461D6AFFF73C
S31508013658C5FF019843F6FF77B042A8BF3046009BDD
S3150801366831469E42B8BF1946D4E93162831B002BFD
S31508013678B8BF5B4205FB0373002BB8BFDB1906EB22
S31508013688A3368642D4BFC4F8C460C4F8C40043F656
S31508013698FF708B1A002BB8BF5B4205FB0303002B8F
S315080136A8B8BF1B18A2EBA3328A42ACBFC4F8C8201C
S315080136B8C4F8C81003B0F0BD2DE9F04F1646044604
S315080136C885B089463146FFF725FFFFF740FF23688E
S315080136D80546D3E900720A23B2FBF3F82046FFF739
S315080136E829FE41F28831236AA26B03FB08F302FB20
S315080136F808F293FBF1F392FBF1F1021E4FF47A708B
S315080137080292E26D18BFB34605FB02F208BF4FF0F5
S31508013718000B92FBF0F25A440392D4F8CC20A5EB9D
S315080137280900514300FB03F348BFFF3194F8B82059
S3150801373803EB2123D4F82CC0D4F8C010A9EB050A49
S31508013748C4F8CC300192DAB94FF00A0EB7FBFEF786
S315080137584745A8BF47460CFB07F741F2883C40F6A0
S31508013768B83297FBFCF702FB08F200FB0717504231
S31508013778874203DBBA42A8BF3A461046C4F8C000D6
S31508013788D4F8C02092FBF8F7039A13441F444FF460
S315080137987A735F4397FBF6F79F4266DD4FEADA735A
S315080137A894F8B92002B90BB1C4F8C01084F8B93035
S315080137B833B12046FFF7BEFD002860D04FEADA7319
S315080137C894F8BA80B8F1000F04D0019A002A5CD19E
S315080137D883F00108B4F8BC3041469F42A8BF1F468A
S315080137E8204627EAE777FFF7E2FD2046B9B2FFF751
S315080137F8E1FD94F8BA303BB149462046FFF72EFE5B
S3150801380832462946FFF71CFFB8F1000F27D0E36DAA
S315080138187E4303FB05F14FF47A7391FBF3F896FBA4
S31508013828F3F64FF4FA6391FBF3F1029BA6EB0B0649
S3150801383804F1E80004F1F80553B301F5FA718E426B
S31508013848D4BF00210121A8F1FA08FEF769FCB6EBF5
S31508013858480FB4BF012100212846FEF761FC012360
S3150801386884F8BA3005B0BDE8F08F002F05DABAF149
S31508013878000FD4BF0023012392E7002390E7BAF18A
S31508013888000FD4BF002301239AE74FF00008A1E7E8
S31508013898A1F5FA718E42ACBF0021012108F1FA0897
S315080138A8FEF73EFCB6EB480FCCBF01210021D3E752
S315080138B82DE9F0471746FFF72DFEB0F9786005465A
S315080138C80C461EB190F8B86086F001062846FFF73F
S315080138D831FD95F8BA808146B8F1000F03D095F8FD
S315080138E8B88088F001084E450CBF4FF0000AB5F8B4
S315080138F8BCA041462846FFF75AFD28465146FFF718
S3150801390859FD2846FFF78DFDB8F1000F2BD04E4516
S3150801391814BF3B460023B9F1000F08BF00274FF42F
S315080139287A72A3EB070302FB03F3EA6D05F1E800D4
S3150801393893FBF2F303EBD3764FEA66064FEA4303A2
S3150801394805F1F80714D0323BA342D4BF002101215F
S31508013958FEF7E6FB06F13201A142ACBF00210121BF
S315080139683846FEF7DDFB012385F8BA30BDE8F0874E
S315080139783233A342ACBF00210121FEF7D1FBA6F1E0
S315080139883201A142D4BF00210121E9E770B5FFF749
S31508013998C1FD036804465D68FFF726FD064620460D
S315080139A8FFF702FDB4F8BE20F0B1104BB3FBF5F3EF
S315080139B8F51AAA4203DB9D199542A8BF154694F83C
S315080139C8BA1019B194F8B81081F001012046FFF729
S315080139D8EEFC2046A9B2FFF7EDFC2046FFF72CFDC1
S315080139E8012384F8BA3070BD1546E8E740420F004E
S315080139F8F8B540F6C415A1F500614D4348BF05F26F
S31508013A08FF7504461646ED12FFF794FC00283CD0CC
S31508013A186B421BB2A4F8903041F2941305F6CA0119
S31508013A28994204F1D80794BF002101213846FEF7C7
S31508013A3877FB1EB901213846FEF76CFB94F87060CE
S31508013A482EBB00212046FFF7B2FC002384F8BA30C2
S31508013A5894F84430032B00F086804FF4FA71204617
S31508013A68FFF7A8FC2046FFF7E7FC002DB8BF6D4213
S31508013A78182D77DCD4F8D830002B73D004F5847068
S31508013A880121BDE8F840FEF74BBB2BB2C2E7D4F8D3
S31508013A980821002AD5D194F84430591E01290AD992
S31508013AA8191F012945D8236829462046B3F9882EBE
S31508013AB8FFF7FEFE06E0236829462046B3F9882E55
S31508013AC8FFF7FAFD2046FFF718FD50B1D4E934325D
S31508013AD80A2192FBF1F0834236DA0623002684F896
S31508013AE8A030D4F8D8301BB903221E4684F8A02082
S31508013AF8D4F8E8301BB901221E4684F8A020D4F868
S31508013B08F83043BB022384F8A030002104F58470F9
S31508013B18FEF700FB94F84430032B0CBFB4F8BE300B
S31508013B28B4F97830C4F8A830B4F89030A4F8B030AD
S31508013B3813E0032B03D12046FFF728FFC2E7072323
S31508013B48164684F8A030BDE793FBF1F39342CCBF40
S31508013B5805230423C2E7002ED7D0D4F80831002B51
S31508013B687FF46FAFF8BDB4F8BE1078E738B50446E8
S31508013B78A3609DF81030C4E9001223734FF47A73D1
S31508013B881046182223833A4B2262E361A3626363D0
S31508013B98402340F6B8320025A363364BE262236414
S31508013BA8354B364AC4E91234354BC4E9162523651B
S31508013BB86367344A344BC4E91924C4E91F34334AC0
S31508013BC8334BE266C4E9045584F84450A4F85450C2
S31508013BD884F87050A4F87850C4E921342D4B2E4A3C
S31508013BE8C4F88C30C4F8AC304FF48073C4E9252482
S31508013BF82A4AA4F8B830C4F89C20294A294BC4E9AA
S31508013C08292504F1D802C4E92F35C4E93925264BF3
S31508013C1804F1E802C4E93D2504F1F802C4E93B5375
S31508013C28C4E93F53C4F8E030C4E93155C4E933550A
S31508013C38C4E93555A4F8905084F8A050A4F8B050B2
S31508013C48C4F8B45084F8BA50C4F8DC50C4E941251C
S31508013C58C4E9435304F58473C4E94535C4F81C51CA
S31508013C680BF022FD606829460BF0E2FD204638BDB7
S31508013C78041B030874160308141B03088819030888
S31508013C88241B0308341B0308441B0308841603086A
S31508013C98541B0308DC1A0308641B0308741B03086E
S31508013CA8841B0308DE03F401AC180308483070477F
S31508013CB858307047643070470B6808469B68184740
S31508013CC80B6808469B681847806870470020704744
S31508013CD88068704780687047806870478068704751
S31508013CE88068704780687047806870478068704741
S31508013CF88068704780687047806870478068704731
S31508013D0880687047F8B51D460B6808469B681646CD
S31508013D180C469847B0420BD92B6831465F69236828
S31508013D2820461B68984701462846B8470120F8BD2A
S31508013D380020FCE773B51E460B6808469B681546BE
S31508013D480C469847A8420CD9336801A95B693046DD
S31508013D5898472368294620465B68019A984702B01E
S31508013D6870BD0020FBE7F8B51D460B6808469B6839
S31508013D7816460C469847B0420BD92B683146DF6878
S31508013D88236820461B68984701462846B8470120F4
S31508013D98F8BD0020FCE773B51E460B6808469B6804
S31508013DA815460C469847A8420ED933680DF10601FF
S31508013DB8DB68304698472368294620465B68BDF97B
S31508013DC80620984702B070BD0020FBE770B50D467E
S31508013DD8164604461020FEF7ADFA33462A4621460A
S31508013DE8BDE8704000F088BE70B50D461646044613
S31508013DF81020FEF79FFA33462A462146BDE8704049
S31508013E0800F07ABE4FF49073406803FB0100036C17
S31508013E1840301B6818474FF49073406803FB01004C
S31508013E28D0F8AC30AC301B6818474FF4907340682B
S31508013E3803FB0100D0F8A430A4301B6818474FF4D7
S31508013E489073406803FB0100D0F89C309C301B68CE
S31508013E5818474FF49073406803FB0100D0F8943073
S31508013E6894301B6818474FF49073406803FB0100A8
S31508013E78C36E6C301B6818474FF49073406803FB90
S31508013E880100D0F88C308C301B6818474FF49073B2
S31508013E98406803FB0100C36E11465B686C3018471E
S31508013EA84FF49073406803FB0100036C11465B6885
S31508013EB8403018474FF49073406803FB0100D0F867
S31508013EC8843011465B68843018474FF4907340680C
S31508013ED803FB0100D0F8843084301B6818474FF477
S31508013EE89073406803FB0100C36F11465B687C3019
S31508013EF818474FF49073406803FB0100C36F7C3081
S31508013F081B6818474FF49073406803FB0100436F19
S31508013F1811465B68743018474FF49073406803FB81
S31508013F280100436F74301B6818474FF49073406853
S31508013F3803FB0100036D11465B68503018474FF4BF
S31508013F489073406803FB0100036D50301B681847DE
S31508013F58584B2C312DE9F041C0E900310C230446B0
S31508013F68554A8360C0E90321544A4361C0E90621D9
S31508013F78534A0362C0E90921524AC362C0E90C21BE
S31508013F88514A8363C0E90F21504A4364C0E91221A3
S31508013F984F4A0365C0E915214E4AC365C0E9182188
S31508013FA84D4A8366C0E91B214C4A4367C0E91E216D
S31508013FB84B4A4C4FC0E921214B4A4C4EC0E92421B2
S31508013FC84B4AC0F88030C0E92721C0F88C30C0F8C0
S31508013FD89830C0F8A4301020FEF7ACF9454D3B4699
S31508013FE82246454900F088FD324604F10C0143484A
S31508013FF8FFF7FAFE2A4604F118014148FFF7E6FEDB
S31508014008324604F124013F48FFF7EEFE324604F131
S3150801401830013D4E3D48FFF7E7FE1020FEF78AF9C5
S31508014028334604F13C023A4900F066FDDFF8E480BC
S315080140382A4604F148013848FFF7C8FE1020FEF75A
S3150801404879F9434604F15402344900F055FD102024
S31508014058FEF770F9434604F16002314900F04CFD58
S315080140682A4604F16C012F48FFF7B0FE1020FEF727
S3150801407861F9334604F178022B4900F03DFD102019
S31508014088FEF758F93B4604F18402284900F034FD45
S315080140981020FEF74FF9264B04F19002254900F046
S315080140A82BFD2A46244804F19C01FFF78FFE20467A
S315080140B8BDE8F081941B0308A81B0308BC1B030869
S315080140C8D01B0308E41B0308F81B03080C1C030888
S315080140D8201C0308341C0308481C03085C1C030835
S315080140E8701C030800190308841C0308EC19030843
S315080140F8981C0308D01C03082865030840680308A8
S3150801410838680308E8680308E419030850680308C7
S31508014118D8650308E8190308006803084868030806
S31508014128106703083066030838660308D867030862
S31508014138CC1C0308B8680308C06803087047D0E9A7
S31508014148003201EB6200184713B5094B1446009370
S3150801415800234FF4907201934368684602FB0131C4
S31508014168FFF7EDFF036821465B68984702B010BD63
S31508014178BD3C010813B5094B1446009300234FF4B7
S31508014188907201934368684602FB0131FFF7D7FF2E
S31508014198036821465B68984702B010BDB93C010817
S315080141A813B5094B1446009300234FF490720193F3
S315080141B84368684602FB0131FFF7C1FF03682146D8
S315080141C85B68984702B010BDB53C010807B5094BAD
S315080141D84FF490720093002301934368684602FBE3
S315080141E80131FFF7ACFF03681B68984703B05DF810
S315080141F804FB00BFBD3C010807B5094B4FF4907293
S315080142080093002301934368684602FB0131FFF7CF
S3150801421896FF03681B68984703B05DF804FB00BF5F
S31508014228B93C010807B5094B4FF49072009300236E
S3150801423801934368684602FB0131FFF780FF03686B
S315080142481B68984703B05DF804FB00BFB53C010835
S3150801425800680B689842ACBF00200120704710B56A
S3150801426804460846636811462278FDF753FA237A05
S315080142782BB101232278013A93405840C01A10BD40
S315080142882DE9F043D0E900753C4685B007EBC5082A
S31508014298039145F31C05002D06DCA04512D158F8F3
S315080142A8040C05B0BDE8F0836E1004EBC60949464F
S315080142B803A8FFF7CDFF18B9AE1B09F10804013E9B
S315080142C83546E8E7A7426068EBD0039B009354E9B3
S315080142D80112034654F8080CFEF75DF8E1E773B5D1
S315080142E8044608461146D0E9053203EBC202934251
S315080142F81D4607D10369012B0CD8002320462371D3
S3150801430802B070BD53F8086B8E42F0D16B68236012
S315080143180123F3E7C268156802EBC300A94250F8FE
S31508014328080CEADB8142E8DC6846CDE90023FFF799
S31508014338A7FF2060ECE738B50D460446114628461E
S315080143481A46FFF78CFF294602462046FFF7C7FF9C
S31508014358204638BDF0B585B004460D4616460146D1
S315080143681A4602A8FFF7BBFF9DF80C703FB1029BDE
S3150801437831460093284663682278FDF7FEF93846E0
S3150801438805B0F0BD4161704737B504460D4618308A
S315080143980021FEF74BFA21692A460B7D6846896989
S315080143A8FFF7C9FF94F860309DF8045004F14400FA
S315080143B863B985F00101FEF72EF84DB12046236849
S315080143C800991B6903B0BDE8304018470021F2E798
S315080143D803B030BD13B504460B4B0C4A0360C368DA
S315080143E8CDE900206946D8680AF08BFE04F1440035
S315080143F8FEF73AF804F11800FEF736F82046FDF7F5
S3150801440837FC204602B010BDDC1C03085F440108CE
S3150801441810B50446FFF7DEFF20466421FDF796FF2F
S31508014428204610BD10B590F8603004461BB1013B13
S3150801443880F8603010BD03695B7B002BFAD0012137
S315080144481830FEF7F3F994F82430002BF2D02369D3
S315080144581B696361EEE74068FFF796BF73B50446C3
S3150801446815460E46FDF70CFC104BAA7B23602B69F3
S31508014478A9686361C4E903656B7B04F11800FEF753
S31508014488EFF9AA7B696804F14400FDF7D3FF2B7B92
S31508014498E06884F86030064B6946CDE90034D5E909
S315080144A8072309F0E8FF204602B070BDDC1C0308A3
S315080144B85F440108F7B51F460D4B054618680E46B1
S315080144C814461AF0DFFF002301463A46684600F00B
S315080144D880FB9DF8040040B1324629462046009BD8
S315080144E803B0BDE8F040FFF735BF03B0F0BD00BF24
S315080144F87843002010B103689B6818477047F8B5D8
S3150801450804460F46012654F8045FA54201D13046F0
S31508014518F8BD55F8043C281F39461B6898472D6885
S315080145280640F2E7F8B500260446051D40688542A7
S3150801453801D12046F8BD076840F80469FFF7DAFF94
S315080145483846F4E7021D42600022026070470000FF
S3150801455810B50446024B036000F056F8204610BD14
S31508014568F81C030810B50446FFF7F2FF2046142184
S31508014578FDF7ECFE204610BD37B504460D46002268
S315080145880169684600F04CFA9DF8040040B12946CD
S31508014598009BA268E06803B0BDE83040FFF7DABEC1
S315080145A803B030BD2DE9F0411C46104B0646186884
S315080145B80F4690461AF066FF218800F0DAFA054692
S315080145C890B11420FDF7B6FE04464246394600F076
S315080145D811F80120064B25612360736844F8043FE6
S315080145E83368746001333360BDE8F081784300208D
S315080145F8F81C030810B5034CC26004600024C0E91E
S31508014608014110BD0C1D0308704700797047000069
S3150801461810B50446024B0360FEF7FAF8204610BDAA
S31508014628301D030810B50446FFF7F2FF204640215E
S31508014638FDF78CFE204610BD10B50446024B0360F3
S31508014648FEF7E6F8204610BD481D030810B50446CE
S31508014658FFF7F2FF20464021FDF778FE204610BDF8
S3150801466810B50446806B03681B689847B4F93C1073
S315080146788142A8BF002104F10C00B8BF0121BDE899
S315080146881040FEF7D3B810B50446806B03681B685B
S315080146989847B4F93C108142D8BF002104F10C00AF
S315080146A8C8BF0121BDE81040FEF7C0B82DE9F041A1
S315080146B8054640200E46174635F9048BFDF73AFE9E
S315080146C804462946FEF794F8054B21462360A76355
S315080146D8A4F83C8006F10C00BDE8F041FDF704BBDF
S315080146E8301D030870B505460E460A4601460E48AA
S315080146F8FFF7DCFF324629460C48FFF7D7FF40206B
S31508014708FDF718FE04460A49FEF772F8094B2146D1
S3150801471823604FF47A53A663A38705F10C00BDE815
S315080147287040FDF7E1BA00BF781D0308881D030824
S315080147386C1D0308481D030870B5054640200E463A
S31508014748FDF7F8FD04460849FEF752F8074B2146D6
S31508014758236040F2EE23A663A38705F10C00BDE8A2
S315080147687040FDF7C1BA00BF5C1D0308481D030860
S3150801477810B50446024B0360FDF77AFA204610BDC8
S31508014788A01D030810B50446FFF7F2FF20462421A9
S31508014798FDF7DCFD204610BD10B50446C068036860
S315080147A81B689847B4F910301B1A58425841A37E1A
S315080147B898420AD00023A0766376606994F8201097
S315080147C80368BDE810405B681847637E227E9A42F3
S315080147D886BF0133637684F82000EEE7F8B5044608
S315080147E80F4616461D46FDF74BFA094B094A23603B
S315080147F841F21443238300232046E7602682656134
S31508014808A376E26184F82030FFF7C6FF2046F8BD93
S31508014818A01D0308201D030810B50446024B0360B2
S31508014828FDF726FA204610BDB81D030810B504463B
S31508014838FFF7F2FF20463021FDF788FD204610BD17
S3150801484870B50446C06803681B689847014604F1B1
S315080148581400FDF765FC616904F12400B1FA81F1D8
S315080148684909FDF798FB94F8283063B12469236848
S31508014878204628CB984780F001012B462046BDE8FB
S315080148887040C9B2184770BDF8B504461D460F46AB
S315080148981646FDF7F5F90A4B20462360094BC4E984
S315080148A80376E36104F114032362002384F82830AC
S315080148B884F82C30044BC4E905556362F8BD00BF7A
S315080148C8B81D0308AC180308201D0308808870471B
S315080148D810B50446024B0360FDF7CAF9204610BD18
S315080148E8E01D030810B50446FFF7F2FF2046242108
S315080148F8FDF72CFD204610BDC3888B4205D80389D0
S315080149088B4202D381800120704700207047838B30
S3150801491810B504462BB9C06803681B689847400058
S3150801492810BD006903681B689847A38B58434FF461
S315080149389673B0FBF3F0F3E770B5446923685D68CD
S31508014948FFF7E5FF2B4601462046BDE870401847A4
S31508014958F8B504460D4617461E46FDF791F90D4B5F
S31508014968A9882360069B2A8863610B486B88AD680A
S31508014978A061A183E2832384C4E903761020FDF7A5
S31508014988D9FC2946054B04F1180200F0B5F820466A
S31508014998F8BD00BFE01D0308D01D0308D417030896
S315080149A8064B10B518681AF06DFDBDE81040D0F829
S315080149B8103800F501601B68184700BF78430020C6
S315080149C803468068596802689268104710B5044614
S315080149D8044B18681AF056FD2146BDE8104000F048
S315080149E82BB900BF7843002010B50468FFF7D8FF34
S315080149F80444A07810BD2DE9F04104460E46154633
S31508014A08FFF7F2FF48B1A0682A46036861681F687C
S31508014A183346BC46BDE8F0416047BDE8F081000071
S31508014A28002330B5044685B0CDE90233064B08465E
S31508014A3802AD01A90193FFF7DEFF95E8030084E8B3
S31508014A480300204605B030BD3C19030813B50446D2
S31508014A586846FDF71FFC002269462046FFF7CBFF8B
S31508014A68019C6846FDF71EFC204602B010BD38B504
S31508014A780546FFF7A5FF04462846FFF7E7FF604303
S31508014A8838BD10B50468FFF78BFF0444207910BDBB
S31508014A982DE9F04104460E461546FFF7F2FF48B1DF
S31508014AA8A0682A46036861685F683346BC46BDE85C
S31508014AB8F0416047BDE8F08103689B790BB1FFF7C0
S31508014AC8E0BF18467047000037B50A4B0446CDE9DA
S31508014AD800320A466946FFF7DBFF054638B1204624
S31508014AE8FFF7EAFF18B1A38901339BB2A3812846C8
S31508014AF803B030BD1819030813B5836000230446AB
S31508014B088381C381084BC0E9001218681AF0BAFCF8
S31508014B1801A9019400F02EFA019810B11021FDF7A8
S31508014B2815FC204602B010BD78430020704738B5F9
S31508014B38044600F6180004F5805510F01CF92046BD
S31508014B48D5F838389847C5F8380838BD10F072BA14
S31508014B580B681B68198813681B681B88994204D057
S31508014B6805DA4FF0FF30C00F70470020FBE7012038
S31508014B78F9E700F10C03D0F80C0870B503EB8004CB
S31508014B8840F31D0040B99C4205D0186803681B8884
S31508014B988B4288BF002070BD420853F8226003EB98
S31508014BA88205366836888E4237BF00F1FF301046CF
S31508014BB82B1D801AE6E710B509880446FFF7D9FFC1
S31508014BC8014628B104F61800BDE8104010F08BBA62
S31508014BD810BD38B50446084611881D46FFF7C9FFB2
S31508014BE8014628B12A462046FFF71AFF204638BD4E
S31508014BF82071FBE700F58050B0F84028B0F8423834
S31508014C0892B29BB29A420AD1B0F84428B0F846380B
S31508014C1892B29BB29A4202D190F84808704701208D
S31508014C28704710B504462046FFF7E4FF00B910BDE2
S31508014C382046FFF77CFFF6E700F6180010F053BA8E
S31508014C4870B50446D0F80C3800F10C0505EB830657
S31508014C58B54200D170BD204655F8041BFFF7ECFF95
S31508014C68F6E710B5044600F6180010F0ADF950B18C
S31508014C7804F58053B3F84428013292B2A3F84428BC
S31508014C88012283F8482810BD10B509880446FFF79C
S31508014C9870FF014620B12046BDE81040FFF7E1BF85
S31508014CA810BD00F58052B2F840380C3001339BB27A
S31508014CB8A2F840380123C2F83C0882F848387047F8
S31508014CC870B50546D0F80C3800F10C0404EB8306D8
S31508014CD8A64204D12846BDE87040FFF7E2BF20681E
S31508014CE8FFF7EAFE20B12268938901339BB29381C3
S31508014CF80434EDE710B5044600F6180010F08AF9F1
S31508014D0804F58050B0F8443801339BB2A0F844380A
S31508014D18012380F8483810BDEFF31083DB4303F00D
S31508014D28010372B600F58050B0F84028B0F8421869
S31508014D3892B289B28A420BD1B0F84428B0F846181B
S31508014D4892B289B28A420AD109487BB162B67047DA
S31508014D58A0F84228012280F848280648F5E7A0F86D
S31508014D684628012280F848280348EEE772B67047B4
S31508014D78854D0108E14D0108114E0108FFF7CCBF21
S31508014D8838B500F58055D5F82C28104B9A4218D114
S31508014D98D0F80C2800F10C0303EB8203D5F83C285C
S31508014DA8934210D0111DC5F83C1811688A89CC8917
S31508014DB892B2A4B2A242F1D0CA8100F6180010F044
S31508014DC803F9034800E0034838BD00BF554B0108FD
S31508014DD8E14D0108114E0108FFF7D2BF08B500F5E4
S31508014DE88053D3F82C28054B9A4205D100F61800AA
S31508014DF810F000F9024808BD0248FCE7554B0108BE
S31508014E083D4E0108114E0108FFF7E8BF00F580502D
S31508014E18D0F82C28044B9A4203BF002380F8483857
S31508014E2802480348704700BF554B0108854D0108DC
S31508014E383D4E0108FFF7EABF70B50446FCF720FFA7
S31508014E48124B00252360124B04F61806C4F81038CD
S31508014E580123304684F81438C4F80C5810F03CFB82
S31508014E680C4A04F58053A3F840583046A3F842582B
S31508014E78C3F83828A3F84458C3F83C58A3F8465841
S31508014E8883F8485810F07CF8204670BDF81D0308C9
S31508014E9884160308854D010810B50468016044B1F4
S31508014EA82046FFF743FE2046BDE810401021FDF7CE
S31508014EB84DBA10BD00232DE9F74F07468A46914694
S31508014EC88846D1F800680360037101EB860546F345
S31508014ED81D0444B9454519D10123B6F5007F3B712F
S31508014EE833D11BF0C3FE4FEA540B08EB8B014A4634
S31508014EF850460191FFF72CFE019928B1013C01F1B1
S31508014F080408A4EB0B04E4E75C46E2E74246494693
S31508014F185046FFF71DFE08B30123B6F5007F3B711E
S31508014F28DFD055F8043C4AF82630013645F8044DD1
S31508014F38CAF80068A845284616D1D9F80010404687
S31508014F48C9F80040FFF7A8FF08E0D9F8003001368C
S31508014F58C8F80030C9F80040CAF800683846C7F8E2
S31508014F68008003B0BDE8F08F55F8041D2C60FFF7E3
S31508014F7893FFDFE707B50A4600F10C016846FFF714
S31508014F8899FF03B05DF804FBF8B504460E4B04F126
S31508014F980C07036000F618000FF03AFFD4F80C580E
S31508014FA825B92046FCF764FE2046F8BD57F8046B78
S31508014FB8013D002EF4D03046FFF7B8FD10213046E2
S31508014FC8FDF7C4F9ECE700BFF81D030810B5044658
S31508014FD8FFF7DAFF204641F64C01FDF7B7F92046F7
S31508014FE810BD008A70478088704781800120704704
S31508014FF810B50446024B0360FCF73AFE204610BD7D
S31508015008301E030810B50446FFF7F2FF204624218F
S31508015018FDF79CF9204610BD406800F00FB84068B6
S31508015028FFF7DFBF0346C068198A1A8C03688A1A0C
S3150801503851425B6851411847FFF7F4BF08B5038C1D
S3150801504823B10182FFF7EEFF012008BD1846FCE7E8
S3150801505838B504460D46FCF713FE144B144A23606B
S315080150680023C4E90524134AE5602382E2612384FF
S315080150781020FDF75FF92A460F4B1049104DFFF727
S315080150883BFD1020FDF756F92B4604F114020D498C
S31508015098FFF732FD1020FDF74DF92B460A4904F1B1
S315080150A81C02FFF729FD204638BD00BF301E03083C
S315080150B8101E0308201E0308D8170308305D0308C5
S315080150C8D4170308785D03084061030804289ABFC2
S315080150D8014B185C49207047401E030810B5044661
S315080150E808461AF0CFF963681988FFF742FD0146A1
S315080150F828B123682046BDE810401B68184710BD2B
S31508015108B0F900007047406803681B68184708B576
S315080151186C30FFF7F8FF002814BF6420002008BD8B
S31508015128406803681B68184738B504461430FFF702
S31508015138F7FF054604F11C00FFF7F2FF281A18BF06
S31508015148012038BD406803681B681847436803EBA4
S3150801515881035888704780687047436833F9210086
S315080151687047806870470079704780887047B0F93A
S31508015178040070478088704700797047B430FCF797
S3150801518887BD000010B50446044B40F8B43BFDF74B
S31508015198DDFB2046FCF76CFD204610BD601F0308A1
S315080151A810B50446FFF7EEFF20464FF4FC71FDF7EC
S315080151B8CDF8204610BD38B508461C464AB91B68BD
S315080151C8DD680B681B68984701462046A8470120F1
S315080151D838BD0020FCE713B50C46184662B91B68AA
S315080151E80DF10601DB689847236820465B68BDF917
S315080151F80610984702B010BD0020FBE737B583684B
S3150801520804460D468DF8071008300DF10701984731
S3150801521800B1257103B030BD4068FFF785BF406806
S31508015228FFF775BF08B54068FFF76AFF08BD097833
S31508015238406800F071BC70B50D4616460446102044
S31508015248FDF778F833462A462146BDE87040FFF748
S3150801525853BC70B50D46164604461020FDF76AF884
S3150801526833462A462146BDE87040FFF745BC10B5C6
S315080152780446D030FFF754FFB4F90831181A18BF95
S31508015288012010BD064B10B5044618681AF004F932
S31508015298D0F86832003B18BF012384F8CC3010BD1A
S315080152A878430020D0F8AC3010B5D868144600F019
S315080152B8FCFB64236043B0FBF3F080B210BD10B564
S315080152C851B16423B0F8AC4194304C43B4FBF3F4C0
S315080152D8FFF738FF201A10BD0846FCE7D0F8AC30AE
S315080152E810B50446D86800F0E0FB01462046BDE83B
S315080152F81040FFF7E4BFF8B504469C30FFF722FFD4
S315080153080546B0FA80F094F89E314009984275D05E
S31508015318002384F89E0184F89D3104F1A400FFF75F
S31508015328F2FE002876D0B4F8641194F88401642250
S315080153380128B4F840317AD002286DD0A4F8AC51C6
S315080153485543B5FBF1F55543B5FBF3F5A4F8B45147
S3150801535804F114052846FFF7E3FEB4F8AC21014623
S315080153682046FFF79FFFA4F8BC012846FFF7D8FE99
S3150801537801462046FFF7B2FF04F19407A4F8C401D1
S315080153883846FFF7DFFEB4F8AC3123B1642250433F
S31508015398B0FBF3F39BB204F10C06A4F8CC31304602
S315080153A8FFF7D0FE05463846FFF7CCFE2D1AA4F8B6
S315080153B8D4513046FFF7C6FEB4F8703183428CBF24
S315080153C80020012094F8763198423CD0002384F8CD
S315080153D8760184F87531B4F85811B4F8B431B4F8CB
S315080153E894214B43BF21B3FBF1F39BB2A4F8943143
S315080153F89B1AA4F89821A4F89A31F8BD94F89D3116
S3150801540894F89C219A4286BF013384F89D3184F821
S31508015418A40182E7642188E76B43B3FBF2F34B43A4
S31508015428B3FBF2F3A4F8B451A4F8AC3190E702FB44
S3150801543805F04D43B0FBF3F3B5FBF2F5A4F8B43127
S31508015448A4F8AC5184E794F8753194F874219A4212
S3150801545886BF013384F8753184F87C01BBE710B53A
S315080154680446FFF70FFF2046FFF745FF04F1D00072
S31508015478FFF756FEA4F8080104F1B400BDE8104088
S31508015488FCF714BCF8B5054610200E461746FCF776
S3150801549851FF04463B4632462946FFF72DFB20466F
S315080154A8F8BD00002DE9F041044688461746FCF781
S315080154B8E7FBB248B24BB349B34DC4E914102360AC
S315080154C8B249B34B04F58A7CB24EC4E90653C4E91A
S315080154D80853C4E90A53C4E90C53C4E91610C4E9C4
S315080154E81813C4E91EC3AC4ADFF8B0C2AC49A563B0
