S02B0000453A5C7265706F735C63735C72656C656173655C6373335C6373335C6170705C6373332D70726F2EE9
S3150801000000400020290201082D02010833020108D7
S315080100104D020108530201086D02010800000000A3
S31508010020FFFFFFFF00000000000000008702010833
S315080100308D020108000000009302010899020108D7
S315080100408148020891480208A1480208B1480208F5
S31508010050C1480208D1480208E1480208F1480208E5
S3150801006001490208114902082149020831490208D1
S3150801007041490208514902086149020871490208C1
S315080100808149020891490208A1490208B1490208B1
S31508010090C1490208D1490208E1490208F1490208A1
S315080100A0014A0208114A0208214A0208314A02088D
S315080100B0414A0208514A0208614A0208714A02087D
S315080100C0814A0208914A0208A14A0208B14A02086D
S315080100D0C14A0208D14A0208E14A0208F14A02085D
S315080100E0014B0208114B0208214B0208314B020849
S315080100F0414B0208514B0208614B0208714B020839
S31508010100814B0208914B0208A14B0208B14B020828
S31508010110C14B0208D14B0208E14B0208F14B020818
S31508010120014C0208114C0208214C0208314C020804
S31508010130414C0208AD020108AD020108514C020802
S31508010140614C0208714C0208814C0208914C020864
S31508010150A14C0208B14C0208C14C0208D14C020854
S31508010160E14C0208F14C0208014D0208114D020842
S31508010170214D0208314D0208AD020108AD02010800
S30908010180414D0208D4
S31508010184646430663438390008B500F0D1F81D4A7C
S315080101941D48824217D300201C4A1D498A421DD391
S315080101A402F09AF800261B4D1B4C641BA410B4429A
S315080101B41DDC0026194D1A4C641BA410B4421BDC21
S315080101C42EF086FBFEE7D2E9001394680C32C91AAD
S315080101D49C42DED95D5843F8045BF9E752F8083BBB
S315080101E452F8044C9C42D9D943F8040BFAE755F85A
S315080101F4043B98470136DAE755F8043B9847013634
S31508010204DCE700BF8404010890040108900401088E
S315080102149804010898040108980401089804010837
S31508010224A40401081C48004708B511F0F1FA1EF0A8
S31508010234040F0CBFEFF30880EFF309807146174AE0
S31508010244104708B511F0E4FA08B511F0E1FA1EF001
S31508010254040F0CBFEFF30880EFF309807146104AC7
S31508010264104708B511F0D4FA1EF0040F0CBFEFF3CA
S315080102740880EFF3098071460A4A104708B511F058
S31508010284C7FA08B511F0C4FA08B511F0C1FA08B5E8
S3150801029411F0BEFA704700008D01010847020108F2
S315080102A4670201088102010808B511F0B1FA0000D4
S315080102B41B4B1A6822F450221A601A6842F48032D7
S315080102C41A601A689103FCD50121164A520102F1F2
S315080102D4844211604FF4144200219A604FF0E022DF
S315080102E411616FF07F415161116941F00101116199
S315080102F40D4A5A601A6842F080721A601A689201A5
S31508010304FCD540F20361094A11609A6842F0020277
S315080103149A609A6802F00C02082AFAD1704700BF5B
S3150801032400380240743802000C3C4005003C024087
S3150801033470B500244948036843F0010303608460E7
S31508010344036823F0847323F480330360444B4360C6
S31508010354036823F480230360C460FFF7A9FF414BB4
S31508010364414A9A6062B6414ADA60036943F0200356
S315080103740361036923F020030361036B43F020033C
S315080103840363BFF34F8F3A4A136843F0A0431360DC
S315080103944FF4004393614FF480439361436A43F4F2
S315080103A480734362436A23F480734362436C43F460
S315080103B480734364036943F001030361036923F00A
S315080103C401030361036B43F001030363BFF34F8F17
S315080103D4284B294D996841F00101996027494C60D8
S315080103E429682E68314341F4404129604FF48071EC
S315080103F459604FF400111961072159634FF00041FF
S315080104049161996841F08041996019688907FCD519
S31508010414D96CB1F5946FF4D30134642CF1D14FF44A
S31508010424004393614FF080439361436A43F48073B5
S315080104344362436A23F480734362436C23F48073EF
S315080104444364036943F021030361036923F0210328
S315080104540361036B23F02103036370BD0038024073
S315080104641030002400ED00E0000001080003FA053D
S31508010474001402400020014000000240002301400C
S31508010484DCDB05080040002098430020984300203F
S3150801049420A400206523010885F20108B1F20108A8
S315080104A838B504461D4600231046C4E900122372CE
S315080104B812F0BAFC6068012112F07AFD20684FF43F
S315080104C8E13113F0BDFB2946206813F0E3FB2068E8
S315080104D8294613F0D7FB204638BDF0B51E4685B028
S315080104E803910446006801AD85E80C00D0E9053298
S315080104F8D21A036AC769511EDB1B48BF9B18CB1A58
S31508010508321D9A4203D90123237205B0F0BD9DF81D
S315080105180C1013F0EDFA2068F1B213F0E9FA9DF818
S315080105280E10206813F0E4FA9DF80F10206813F0EE
S31508010538DFFA95E80600206805B0BDE8F04013F033
S3150801054858BB2DE9F0470D4686B069460446286822
S31508010558904681E80C0013F041FB032881464FF0C9
S31508010568000A05D884F804A0204606B0BDE8F08735
S31508010578042603AB0493059604AF286897E8060092
S31508010588CDF80CA013F006FB9DF80D3033444B4506
S31508010598E8D8286813F0CBFA013EFAD19DF80D6020
S315080105A8019B28689E4228BF1E46CDE9048697E81E
S315080105B8060013F0CEFA9DF80D30B34204D801238C
S315080105C8039823712060CFE7286813F0B0FA01363B
S315080105D8F1E7006813F0FCBA00487047C111010831
S315080105E8002070470079704701710120704700792A
S315080105F8704701710120704713B5094B09490093E2
S315080106080223019302AB044613E90C0009680C306E
S31508010618FFF763FF0A230448C4E9133302B010BD80
S3150801062869060408C40504081D0D010813B5094B14
S31508010638094900930223019302AB044613E90C0006
S3150801064809680C30FFF749FF0A230448C4E913333C
S3150801065802B010BD7B060408C8050408550D010833
S315080106681FB590F824300C49B3FA83F35B098DF862
S31508010678043001AB02930123039304AB044613E93F
S315080106880C0009680C30FFF728FF0A230348C4E958
S31508010698133304B010BD00BFB40504088D0D010855
S315080106A813B5094B094900930523019302AB04467F
S315080106B813E90C0009680C30FFF70FFF0A230448F1
S315080106C8C4E9133302B010BD89060408B80504083D
S315080106D8D10D01081FB54FF40173ADF8043001AB0C
S315080106E8029302230749039304AB044613E90C0052
S315080106F809680C30FFF7F1FE0A230348C4E91333E6
S3150801070804B010BDB0050408C50E010808B540684F
S3150801071800F0FEF808BD002112F04ABC08B5406889
S3150801072800F0F9F808BD000038B5084B044603601F
S31508010738406D20B9204601F0A7FA204638BD05685C
S315080107480C2101F003FE2846F3E700BFD805040883
S3150801075810B50446FFF7E8FF20466C2101F0F6FDBF
S31508010768204610BD042208B52FF00EFAB0FA80F01B
S31508010778400908BD02780B789A420DD142784B7820
S315080107889A4209D382788B789A4205D1C078CB7870
S31508010798C31A5842584170470020704710B50C1AB9
S315080107A8134605D00146224618462FF00BFA03468A
S315080107B8181910BD70B58EB0054601A814F0C6FA09
S315080107C8DDE901641D221D2C4FF0000106A828BF8A
S315080107D81D242FF011FA01238DF8143009238DF8F9
S315080107E81730A31C31198DF8153006AA631C304633
S315080107F88DF81630FFF7D2FF05AB08490393043481
S31508010808234605F10C00039A09680494FFF765FE67
S315080108180A230348C5E913330EB070BDCC0504088D
S315080108288D0E01082DE9F0418EB0054601A814F090
S315080108388DFADDE90178444605AE082C4FF0210208
S315080108484FF00001304628BF08242FF0D5F94FF498
S315080108588173ADF81630234BB8F1080F069303F1E7
S31508010868F55303F5DE1303F6C453079303F10B5344
S3150801087803F53B2303F5FF73089303F15543A3F5E2
S315080108885513A3F67E1309934FF67A43ADF8283024
S315080108984FF0E7038DF82A3004F117038DF8153060
S315080108A804F101038DF82B308CBF08230923391964
S315080108B80DF12D0238468DF82C30FFF76FFF0A49DE
S315080108C81934234605F10C0032460968039604943F
S315080108D8FFF703FE0A230548C5E913330EB0BDE839
S315080108E8F08100BF0611076CCC050408550E0108EE
S315080108F80E22064B1968884201D198887047013A31
S3150801090803F10803F6D14FF6FF707047E8050408A6
S315080109188069FFF7EDBFC069FFF7EABF38B5044636
S315080109280C200D4601F006FD0346021D95E8030055
S3150801093882E80300626D63651A6038BD2DE9F041E6
S315080109488CB06B4683E8060090F84630064663B3D2
S31508010958142A144628BF14240D46002104F1040854
S3150801096805AF424638460B912FF046F996F84530B9
S315080109788DF817408DF81430B6F84A30CDF82C8022
S315080109888DF815301B0A8DF816302B4606AA2C4405
S31508010998E11A00290CDC09490B9B3A46096806F154
S315080109A80C0003970493FFF798FD0CB0BDE8F08196
S315080109B813F8011B02F8011BEAE700BF8E060408B3
S315080109C810B5044621B18369C361012380F8303023
S315080109D82069FFF7A0FE4FF496730248C4E913335A
S315080109E810BD00BF010B0108F0B590F84430044664
S315080109F8022B95B005D0012115B0BDE8F040FFF7E7
S31508010A08DFBF01A814F0A2F9DDE90175372D28BF62
S31508010A18372505AE3C22002130462FF0EDF8B4F80B
S31508010A28483079190DF119023846ADF814308DF8A0
S31508010A381850FFF7B3FE084905352B4604F10C0093
S31508010A483246096803960495FFF747FD0A230348C2
S31508010A58C4E9133315B0F0BDC0050408090E010829
S31508010A6810B504464C3001F030FC04F1580001F089
S31508010A782CFC04F1600001F028FCA369204698477C
S31508010A88237DA06133B10023012120462375FFF791
S31508010A9897FFA06110BD000013B5094B09490093DA
S31508010AA80123019302AB044613E90C0009680C30CB
S31508010AB8FFF713FD64230448C4E9133302B010BDD4
S31508010AC85C06040858060408790B010810B504469B
S31508010AD80121006912F06CFAE36C43B904F10C00C0
S31508010AE8FFF777FD2046BDE81040FFF7D5BF014857
S31508010AF810BD00BF010B0108FFF7E8BF2DE9FF414B
S31508010B08002504462F46DFF85C80CDE9027702AE58
S31508010B1896E80C00684604F10C01FFF712FD9DF8EA
S31508010B2804304BB1009B414630460293FFF722FE3B
S31508010B38002818BF0546E8E745B194F846200AB1E2
S31508010B4884F84630084804B0BDE8F081E36C33B947
S31508010B580121204604B0BDE8F041FFF731BF03483B
S31508010B68F1E700BF5D060408CD0B0108790B0108FA
S31508010B78FFF7C4BF002313B5CDE90033074902AB14
S31508010B88044613E90C0009680C30FFF7A6FC0A238A
S31508010B980348C4E9133302B010BD00BFBC050408F5
S31508010BA80D0F010890F82420012A06D890F82C3050
S31508010BB80BB1FFF7DFBFFFF71FBD0148704700BF3D
S31508010BC8CD0B0108FFF7EEBF7FB5C36D11498365E4
S31508010BD8436E03AA03660023CDE9033380F8303050
S31508010BE88DF8143006238DF80D300C238DF80F3047
S31508010BF8C8238DF8133090F8453009688DF80C30FC
S31508010C0809230C3001920293FFF767FC024807B0E3
S31508010C185DF804FB61060408191401082DE9F04773
S31508010C2896B00E46694604461746DDF87C8081E883
S31508010C380C000DF11C0908F1020A53464A4604F14B
S31508010C480C0103A8CDE9059AFFF77BFC9DF810303E
S31508010C589DF80D50002B38D09DF80C30202BECD17F
S31508010C68012DEAD99DF80E20B3789A42E5D19DF867
S31508010C780F20F3789A42E0D19DF81C309DF81D2083
S31508010C8813430FD1023DB8F1000F12D1019B84F825
S31508010C9844505A1004EB6300DB0744BFA358DF59D5
S31508010CA8B84703E001212046FFF78AFE16B0BDE8DA
S31508010CB8F0870DF11E01454594BF491941441E9A0D
S31508010CC80DF11E00FFF76AFDE0E7E36C33B9012170
S31508010CD8204616B0BDE8F047FFF772BEA069E5E7FA
S31508010CE810B50A4B86B004930023044619461846DC
S31508010CF88DE803000593CDE9023306AB204613E9CF
S31508010D080C000349FFF78AFF06B010BD350601082E
S31508010D18C4050408FFF7E4BF10B50A4B86B0049367
S31508010D2800230446194618468DE803000593CDE9BC
S31508010D38023306AB204613E90C000349FFF76EFF99
S31508010D4806B010BD69060108C8050408FFF7E4BF1F
S31508010D5810B50A4B86B0049300230446194618466B
S31508010D688DE803000593CDE9023306AB204613E95E
S31508010D780C000349FFF752FF06B010BDA906010882
S31508010D88B4050408FFF7E4BF10B500F1480200F1FD
S31508010D984A0386B09B1A03930446094B10460493E3
S31508010DA80023039905938DE8030006AB02922046B2
S31508010DB813E90C000349FFF731FF06B010BD00BF60
S31508010DC8F1090108B8050408FFF7DEBF10B50A4B93
S31508010DD886B0049300230446194618468DE803008D
S31508010DE80593CDE9023306AB204613E90C000349FE
S31508010DF8FFF714FF06B010BD2D080108C005040841
S31508010E08FFF7E4BF30B587B004AD0446284613F0AA
S31508010E189DFF05990A4A0B4B082998BF134604935F
S31508010E280023194618468DE803000593CDE90233D0
S31508010E3895E80C0020460449FFF7F0FE07B030BDD7
S31508010E48DD060108BD070108CC050408FFF7DABF66
S31508010E5810B50A4B86B0049300230446194618466A
S31508010E688DE803000593CDE9023306AB204613E95D
S31508010E780C000349FFF7D2FE06B010BDDD060108CE
S31508010E88CC050408FFF7E4BF10B50A4B86B00493EE
S31508010E9800230446194618468DE803000593CDE94B
S31508010EA8023306AB204613E90C000349FFF7B6FEE1
S31508010EB806B010BDE1050108B0050408FFF7E4BF4F
S31508010EC830B5002504462946284687B08DE803002B
S31508010ED8094B0595049306AB13E90C002046CDE9A1
S31508010EE802550649FFF79AFE054B984208BF84F84A
S31508010EF82C5007B030BD00BF01060108BC0504081F
S31508010F081D0D0108FFF7DCBFF0B587B00446084692
S31508010F18694681E80C001449FFF72CFC9DF83060F6
S31508010F2805469DF8347068B1009A137A527A8DF895
S31508010F380F3017B94EB1FF2A07D084F84530012377
S31508010F4884F84630284607B0F0BD0DF10F0304931F
S31508010F5801230649059306AB096804F10C0013E950
S31508010F680C00FFF7BAFAEDE78106040865060408D6
S31508010F7813B50446084602A901E90C000749FFF713
S31508010F88F1FB48B194F8460030B1009B94F8452026
S31508010F989B789B1A5842584102B010BD7D06040831
S31508010FA8F0B504463C2695B005AFCDE9037603AD01
S31508010FB895E80C0004F10C0101A8FFF7C2FA9DF89F
S31508010FC808309BB1CDE90376204695E80C0001A9BE
S31508010FD8FFF7CEFF0028E8D02069FFF79CFB4FF4FE
S31508010FE89673C4E91333044815B0F0BDE36C002BB6
S31508010FF8F2D00248F8E700BF010B010809100108F9
S31508011008FFF7CEBF13B500F1450300930123044644
S315080110180849019302AB13E90C0009680C30FFF77C
S315080110285CFA32232046C4E9133302B0BDE81040FE
S31508011038FFF7B6BF6506040837B50446084602A988
S3150801104801E90C000B499DF81850FFF78BFB50B1C5
S31508011058009A13794DB113F0010004D02846B2F865
S315080110680130A4F84A3003B030BDD84300F0010076
S31508011078F9E700BF8506040813B50446084602A918
S3150801108801E90C000549FFF76DFB20B1009B1B8898
S315080110980BB1A4F8683002B010BD00BF7706040882
S315080110A8F0B587B005460846694681E80C0019492E
S315080110B8FFF760FB9DF830700446D8B1009B1649C6
S315080110C81E7805F10C0003AA04ABB7B195F846706A
S315080110D89FB195F84550B5420FD1049202220124D1
S315080110E8059209680CCB8DF80D408DF80C503C46D5
S315080110F8FFF7F3F9204607B0F0BD0492022200254E
S31508011108059209680CCB8DF80D508DF80C60FFF720
S31508011118E4F9EFE7730604086F060408F0B590F8D2
S315080111282C30044697B053BB90F82430023B012B68
S3150801113825D93C2607AFCDE9057605AD95E80C0016
S3150801114804F10C0103A8FFF7FCF99DF8103053B315
S3150801115894F82430CDE90576B3FA83F35B0901934C
S3150801116801230093204695E80C0003A9FFF7CCFE56
S3150801117878B14FF4FA730D48C4E9133307E02069C7
S31508011188FFF7C9FA4FF49673C4E91333084817B039
S31508011198F0BDCDE90576009003A9204695E80C002F
S315080111A8FFF77EFFC7E70348F1E700BF8112010889
S315080111B8010B0108C1110108FFF7B0BF2DE9F0417C
S315080111C890F824300446032B96B024D0C36C13B385
S315080111D83C2607AFCDE9057605AD95E80C0004F17F
S315080111E80C0103A8FFF7ADF99DF81030002B3FD085
S315080111F84FF00108CDE90576CDF80080204695E837
S315080112080C0003A9FFF718FF68B12046FFF7DCFCB5
S3150801121816B0BDE8F0812046A369E36116B0BDE8BA
S31508011228F041FFF7EFBECDE90576204695E80C00B3
S3150801123803A9FFF79DFE20B141462046FFF7C0FBEB
S31508011248E6E7CDE9000003A995E80C002046FFF773
S315080112585BFE94F82430CDE90576B3FA83F35B0986
S315080112680093204695E80C0003A9FFF719FFB1E793
S315080112780048CDE781120108FFF7A0BFF0B585B090
S315080112880F466946054681E80C0038461149FFF7B5
S3150801129871FA064688B1009C95F8453022789A4233
S315080112A80BD123794BB963793BB97B78A279073B8B
S315080112B89A4202D16D6DE71D15B9304605B0F0BDE4
S315080112C8A379281DCDE9027302A96B6898472D6889
S315080112D8F2E700BF6B0604082DE9F04790F82430B9
S315080112E80446032B96B004D116B0BDE8F047FFF7BC
S315080112F889BE836D00F10C0807AE53B9CDE90733EA
S315080113083F4996E80C0040460968FFF7E6F8E36D99
S31508011318A365DFF8F09005AD3C270596069795E88D
S315080113280C00414603A8FFF70CF99DF81030002B6D
S315080113385ED0CDE90567204695E80C0003A9FFF7B5
S3150801134817FE824650B12069FFF7E5F94FF49673FF
S31508011358C4E913332C4816B0BDE8F08703A995E804
S315080113680C002046FFF78AFFCDE90567CDE900AAF3
S3150801137803A995E80C002046FFF7C6FD94F8243022
S31508011388CDE90567B3FA83F35B09009303A995E8E1
S315080113980C002046FFF784FECDE90567204695E847
S315080113A80C0003A9FFF768FE18B1E36DA365636E20
S315080113B823663C230693002305960093204695E861
S315080113C80C0003A9FFF738FE18B12046FFF71AFEE5
S315080113D8C1E7494603A8FFF7CDF900289CD09DF82F
S315080113E81C309DF81D20134396D1636E236693E737
S315080113F8236E0BB10548AEE7A369E361E5E700BFCC
S31508011408A8050408AC050408010B01081914010804
S31508011418FFF762BF70B504460D46164600F03CFC58
S3150801142820461B4B3246294640F80C3B0123FFF759
S3150801143837F8184A00232262174AC4E90633A26212
S31508011448164AC4E91233C4E90D24154AC4E9143302
S31508011458C4E90F241922C4E917233322206984F819
S31508011468243084F82C3084F8303084F8443084F8F1
S315080114784630A365A4F868306266FFF74CF94FF45D
S315080114889673C4E91333074B2046A36170BD00BFA1
S31508011498D805040870050408800504089005040899
S315080114A8A0050408010B010810B50446044B40F8C9
S315080114B8103B01F021F8204600F0E6FB204610BD56
S315080114C8E406040810B50446FFF7EEFF20462C216A
S315080114D800F03CFF204610BDC368103093F8301061
S315080114E800F0D7BF38B508461C464AB91B681D69B6
S315080114F80B681B68984701462046A847012038BD4E
S315080115080020FCE713B50C46184662B91B680DF1AD
S3150801151806011B699847236820465B68BDF80610CB
S31508011528984702B010BD0020FBE738B508461C46A7
S315080115384AB91B681D680B681B6898470146204607
S31508011548A847012038BD0020FCE713B50C46184604
S3150801155862B91B680DF107011B689847236820467D
S315080115685B689DF80710984702B010BD0020FBE795
S3150801157838B508461C464AB91B689D680B681B6836
S31508011588984701462046A847012038BD0020FCE7B0
S3150801159813B50C46184662B91B680DF107019B6815
S315080115A89847236820465B689DF80710984702B054
S315080115B810BD0020FBE7000070B50C46054600F093
S315080115C86BFB184B01222B601749EC6005F11000DB
S315080115D800F06EFF102000F0ADFE04F12002134B57
S315080115E8134903F0F3FA102000F0A4FE114E04F192
S315080115F82802114B114903F0E9FA102000F09AFE66
S31508011608334604F134020E4903F0E0FA102000F0DB
S3150801161891FE33460B4904F13C0203F0D7FA2846F2
S3150801162870BD00BFE4060408E8450408D80604089E
S31508011638005C0408D0060408D406040840510408C6
S31508011648684D04087056040813B504460146012274
S315080116580DF107002EF0A8FA012220460DF107011F
S315080116682EF0A2FA02B010BD13B5044601460222AD
S315080116780DF106002EF098FABDF8063002225BBA7B
S3150801168820460DF10601ADF806302EF08DFA02B0A6
S3150801169810BD70B50D4616460446102000F04AFEE0
S315080116A833462A462146BDE8704003F08FBA000042
S315080116B82DE9F0410C460546144E0068324601F5F7
S315080116C80561FFF7E6FF3246A86804F65C01FFF7ED
S315080116D8E0FF324604F664016868FFF7DAFF0C4E44
S315080116E82F69102000F026FE3346394604F66C02A7
S315080116F803F06CFAED68102000F01CFE3346294603
S3150801170804F67402BDE8F04103F060BAD00604088D
S31508011718D806040830B5044640F2D2450120AB4242
S3150801172800FA02F000F1FF3017D041F2E105AB42A9
S3150801173821D1A568E368C1F140018A1A2DBA1BBAF5
S31508011748C2F12004A2F12001D34005FA04F4234387
S3150801175825FA01F10B43184030BDD4E90235C1F128
S315080117682004A1F12002CB4005FA04F4234325FA03
S3150801177802F21343EFE70020EEE7F0B5144640F20C
S31508011788D24293420F46059907D041F2E1029342A4
S3150801179834D1C4F14003DF1B09BA0122D0E9026535
S315080117A8A4F12003C4F1200C22FA0CFC02FA03F373
S315080117B8A240013A43EA0C0343F1FF33A7F1200C8F
S315080117C802FA0CFCC7F12004BB4022FA04F443EAE6
S315080117D80C032343C7F1200CA7F1200401FA04F4EA
S315080117E821FA0CFC44EA0C04B940BA4071406C4031
S315080117F80A40234072406B40C0E90223F0BD1FB579
S31508011808027D00238DF80420FF2204460169CDE9EB
S315080118180233C361036800911B6969468DF805207F
S3150801182898476946E06810F08FFA04B010BD8169D7
S3150801183831B1C2690A329142C26101D8FFF7DFBFE5
S3150801184870470000F8B504461D460F46164600F0CF
S3150801185823FA054B20462360069BC4E90376A36150
S3150801186800232575E361F8BDFC06040810B504468E
S31508011878024B036000F008FA204610BDFC0604086E
S3150801188810B50468002004B910BD18B96068036862
S315080118981B6898472468F6E7436810B59A68541C84
S315080118A89C601B68995410BD73B544680546A368BE
S315080118B8266822691E4441F2E1039A4218D18DF835
S315080118C8061001220DF106010DF107002EF06CF93B
S315080118D80DF10700FFF7B8FE012230460DF10701A1
S315080118E82EF062F92846A3680133A36002B070BDD9
S315080118F88DF80710F0E773B544680546A3682668A6
S3150801190822691E4441F2E1039A4218D18DF806105C
S3150801191801220DF106010DF107002EF045F90DF129
S315080119280700FFF791FE012230460DF107012EF057
S315080119383BF92846A3680133A36002B070BD8DF848
S315080119480710F0E773B544680E462368A26805468A
S31508011958991841F2E10322699A424FF001020AD124
S315080119680DF106002EF020F90DF10600FFF76CFEC1
S3150801197801220DF106010DF107002EF015F9284689
S31508011988A3689DF907200133A360327002B070BDC0
S3150801199873B544680E462368A2680546991841F244
S315080119A8E10322699A424FF001020AD10DF10600B4
S315080119B82EF0FAF80DF10600FFF746FE01220DF1A1
S315080119C806010DF107002EF0EFF82846A3689DF8E1
S315080119D807200133A360327002B070BD73B544683D
S315080119E80E462368A2680546991841F2E103226959
S315080119F89A424FF001020AD10DF106002EF0D4F8E9
S31508011A080DF10600FFF720FE01220DF106010DF181
S31508011A1807002EF0C9F82846A3689DF80720013360
S31508011A28A360327002B070BD73B544680546A368F1
S31508011A38266822691E4441F2E1039A4217D1ADF894
S31508011A480410022201A90DF106002EF0ADF80DF1D8
S31508011A580600FFF709FE022230460DF106012EF0AF
S31508011A68A3F82846A3680233A36002B070BDADF88F
S31508011A780610F0E773B544680546A368266822691F
S31508011A881E4441F2E1039A4217D1ADF80410022225
S31508011A9801A90DF106002EF087F80DF10600FFF7EA
S31508011AA8E3FD022230460DF106012EF07DF828469F
S31508011AB8A3680233A36002B070BDADF80610F0E75B
S31508011AC873B544680E462368A2680546991841F213
S31508011AD8E10322699A424FF0020207D101A82EF0C2
S31508011AE863F801A8FFF7C0FD022201A90DF1060056
S31508011AF82EF05AF82846A368BDF806200233A360D3
S31508011B08328002B070BD73B544680E462368A26870
S31508011B180546991841F2E10322699A424FF00202F1
S31508011B2807D101A82EF040F801A8FFF79DFD02226A
S31508011B3801A90DF106002EF037F82846A368BDF964
S31508011B4806200233A360328002B070BD042213B5A1
S31508011B58044601460DEB02002EF026F80422019BE5
S31508011B6820461BBA0DEB020101932EF01DF802B0AF
S31508011B7810BD73B544680546A368266822691E44DC
S31508011B8841F2E1039A4215D1042200910DEB0200B4
S31508011B9869462EF009F801A8FFF7D8FF042230464E
S31508011BA80DEB02012EF000F82846A3680433A3605A
S31508011BB802B070BD0191F1E773B544680546A3689B
S31508011BC8266822691E4441F2E1039A4215D1042284
S31508011BD800910DEB020069462DF0E6FF01A8FFF713
S31508011BE8B5FF042230460DEB02012DF0DDFF28462C
S31508011BF8A3680433A36002B070BD0191F1E773B518
S31508011C0844680E462368A2680546991841F2E10315
S31508011C1822699A424FF0040207D168462DF0C4FF9B
S31508011C286846FFF793FF042269460DEB02002DF07B
S31508011C38BBFF2846A368019A0433A360326002B041
S31508011C4870BD73B544680E462368A2680546991897
S31508011C5841F2E10322699A424FF0040207D1684624
S31508011C682DF0A2FF6846FFF771FF042269460DEBBE
S31508011C7802002DF099FF2846A368019A0433A36048
S31508011C88326002B070BD7047704710B504460C2122
S31508011C9800F05CFB204610BD024A02600022C0E93A
S31508011CA8012270476007040838B5054655F8104FEC
S31508011CB8A54200D138BD54F8043C201F1B68984733
S31508011CC82468F5E738B5044654F8105FA54200D1EB
S31508011CD838BD55F8043C281F5B6898472D68F5E711
S31508011CE810B50446FFF7D8FF044B204623600023A6
S31508011CF8E36004F11003C4E9043310BD7807040846
S31508011D08436910B50A1D00F110048B604C604261E5
S31508011D181A60C3680133C36010BDF8B505460026C5
S31508011D28044655F8100F854203D1C4E90455E660FF
S31508011D38F8BD50F8042C0768D268C0E9006604386B
S31508011D4890473846EFE7000010B50446FFF7C8FF85
S31508011D58014B2046236010BD90070408034600215D
S31508011D6810B553F8042F934203D1C0E90133016032
S31508011D7810BD1468C2E900112246F4E710B50446F5
S31508011D88044B40F80C3BFFF7E9FF2046FFF77CFFB9
S31508011D98204610BD7807040810B50446FFF7EEFF7C
S31508011DA82046182100F0D2FA204610BD10B504467F
S31508011DB8044B40F80C3BFFF7D1FF2046FFF7DEFF3F
S31508011DC8204610BD9007040810B50446FFF7EEFF34
S31508011DD82046182100F0BAFA204610BD80687047D7
S31508011DE80B6808469B6818474368585C7047002083
S31508011DF8704743681868704700207047F8B51D464C
S31508011E080B6808469B6816460C469847B0420BD994
S31508011E182B6831469F68236820461B689847014600
S31508011E282846B8470120F8BD0020FCE773B51E46C9
S31508011E380B6808469B6815460C469847A8420ED96A
S31508011E4833680DF107019B68304698472368294688
S31508011E5820465B689DF80720984702B070BD0020A8
S31508011E68FBE738B508461C464AB91B689D690B68DD
S31508011E781B68984701462046A847012038BD002017
S31508011E88FCE713B50C46184652B91B6801A99B69A4
S31508011E989847236820465B680199984702B010BDA0
S31508011EA80020FBE770B50D4616460446102000F0DB
S31508011EB841FA33462A462146BDE8704002F086BEF5
S31508011EC830B585B0044600F045FA284D0C30256032
S31508011ED8606000F03FFA0830A560E06000F03AFA61
S31508011EE8C4E9045000F036FA0430A561E061684691
S31508011EF800F074F8009B1E4D6362019B02A8A36259
S31508011F08256200F075F8029B21462363039B194A4B
S31508011F1863631948E562FFF7C5FF164A174804F1CE
S31508011F280801FFF7BFFF134A154804F11001FFF727
S31508011F38B9FF104A04F118011248FFF7B3FF102038
S31508011F4800F0F8F9104B114904F1200202F03EFE9F
S31508011F58636B43B1102000F0EDF90B4B0C4904F102
S31508011F682C0202F033FE204605B030BDA807040846
S31508011F78B8070408F0070408485304085053040826
S31508011F88A058040818570408EC070408D856040882
S31508011F98E85804087047037A01728B422CBF00235C
S31508011FA8012303717047037A01728B4294BF002398
S31508011FB8012303717047007820F02003413B052B64
S31508011FC80AD9A0F13003092B06D9A0F12B035842E7
S31508011FD8584180F0010070470120FAE70346034A91
S31508011FE892E8030083E8030018467047F4070408D3
S31508011FF8234970B5044602260D460846FFF7DBFF56
S3150801200800283AD14A1C1046FFF7D5FFD0B98A1CD1
S315080120181046FFF7D0FFA8B9CA1C1046FFF7CBFF31
S3150801202880B9012E01F1040217D1164B9B1A022B0E
S315080120381CD0032B14D0012B03D11046FFF7BBFF85
S3150801204800B9104A521B062AD8BF00232046CCBF1E
S31508012058C4E90052C4E9003370BD01261146CCE72C
S315080120681046FFF7A8FF0028ECD14A1D1046FFF7CE
S31508012078A2FF0028E6D10132DFE70A46E2E700BFF8
S31508012088840100088C0100084368003B18BF012336
S315080120980B70704743680B70704743680B7070473D
S315080120A843680B80704743680B80704743680B6029
S315080120B8704743680B607047012241600272704796
S315080120C8012241600272704701224160027270471B
S315080120D8012241600272704701224160027270470B
S315080120E801224160027270470122416002727047FB
S315080120F8704708B50FF08AFB027843781AB11B01B5
S3150801210883F3118870470BB162B6704772B6704788
S315080121180120704711B94368036070470023FBE73C
S3150801212809B100F0D2B8426802607047054B10B58C
S31508012138044618682BF0FBFF00232060237220460B
S3150801214810BD00BF9843002003689B6B19440123FF
S315080121584160037270470346007A40B11A685968A4
S31508012168926B91424FF0000203D21A72704701200E
S3150801217870471046704743681847000013B5044668
S3150801218840F8041BFFF7E0FD04F11C00FFF7DCFD2E
S3150801219800232068A36384F83430E36303694FF4A2
S315080121A87A715B6810309847044B20686946CDE90F
S315080121B8003410F0F3FF204602B010BDFB210108D8
S315080121C838B5836B0446013383630068836918301D
S315080121D81B68984794F83430054613B1201DFFF754
S315080121E871FD2068836918301B689847401BE063AE
S315080121F838BD4068FFF7E4BF38B590F8343004466F
S315080122088BB9043004F11C05FFF74EFD2846FFF784
S315080122184BFD012384F834302846FFF753FD94F81B
S315080122283430002BF8D138BD37B505460446094B75
S3150801223855F81C0B0093084B6946019310F0AEFF3D
S315080122482846FFF7B3FD201DFFF7B0FD204603B06A
S3150801225830BD00BF7F210108F92001084268013213
S3150801226842607047426801324260704742680232EA
S3150801227842607047426802324260704742680432D7
S3150801228842607047426804324260704742680132C8
S3150801229842607047024A026000224260704700BFE6
S315080122A84C0804087047436833B1642102684A43F5
S315080122B8B2FBF3F398B270471846704708B5FFF7AB
S315080122C8F2FFC0F1640080B208BD03680BB1013B97
S315080122D8036070477047FEE708B52DF04FFC582391
S315080122E803604FF0FF3008BD0346044A1068C11859
S315080122F8116003498A681A448A60704700400020B9
S31508012308A04300200346094A10B511680131116036
S315080123184107074918BF20F00703086818BF08339B
S31508012328C4180C6091681944916010BDA043002037
S3150801233800400020FFF7E6BFFFF7E4BF024A5368EB
S3150801234801335360704700BFA0430020FFF7F6BF6B
S31508012358FFF7F4BF00487047A0430020024B034922
S31508012368034A5B1AD360704700C0012020A40020E5
S31508012378A0430020303809288CBF00200120704767
S31508012388FEE70346012001B97047CA0748BF584303
S3150801239849085B43F7E75B1A10B50446084607D0B0
S315080123A8121B05D00299091B594391FBF2F10844FE
S315080123B810BDF0B5002304460D464FF080429C42F5
S315080123C875EB020105D30020014653EA020605D139
S315080123D8F0BD9B0843EA82739208F0E71E1842EBA0
S315080123E80107B44275EB070C05D3A41B65EB070572
S315080123F8F01847EB020140089B0840EAC17043EA16
S31508012408827349089208E0E703460088814203D3A4
S315080124185888884228BF08467047000010B5044600
S315080124280448FFF7F1FF642300B2604390FBF3F019
S3150801243800B210BD6808040838B504460D460848B0
S315080124481146FFF7E1FFC0F1640300B260431BB20E
S3150801245805FB0300642390FBF3F000B238BD00BF07
S315080124686808040838B505460C4606481146FFF7B4
S31508012478CBFFC0F16403684304FB0303642093FBA1
S31508012488F0F038BD680804084068704741600120C3
S315080124987047037B2BB921B143697E2B9CBF013356
S315080124A84361017370470023436103737047000052
S315080124B8094B10B58360002304460271074A037362
S315080124C8C0E90423064B016018682BF035FE21463E
S315080124D800F0F0FC204610BD8005040874080408BD
S315080124E89843002038B5154604461A4605EB4101B6
S315080124F8FFF7DEFF204638BD10B50446044B1868B9
S315080125082BF01AFE214600F0A8FC204610BD00BF94
S315080125189843002003685B6818687047006800B923
S31508012528704743681B798B42F8D1012070470368C5
S315080125380BB9184670475A68107B0028FAD11B68E8
S31508012548F6E70368002003B970475A681B68526999
S315080125581044F8E710B5046804B910BD6068FFF7B8
S31508012568A2FF2468F8E70246002010B513461A4662
S315080125781B6863B15C688C42F9D11C6814601860E1
S315080125881846F3E704680821FFF7E0FE2046002805
S31508012598F8D110BD38B50D4604460820FFF7CAFE1E
S315080125A82B68436023682060036038BD002313B590
S315080125B804460191036001A9FFF7ECFF204602B022
S315080125C810BD07B5019101A9FFF7E4FF03B05DF84E
S315080125D804FB10B50446806A03681B6898470146D8
S315080125E804F10C00BDE81040FFF753BF10B50446C7
S315080125F8044B40F80C3BFFF77FFF2046FFF744FBE7
S31508012608204610BD8408040810B50446FFF7EEFFF6
S3150801261820462C21FFF79AFE204610BD70B50446C0
S315080126280D461646FFF738FB2046054B2A792968D1
S3150801263840F80C3BFFF73CFF2046A66270BD00BF79
S31508012648840804080B6808469B6818470B680846F7
S315080126589B6818470B6808469B681847F8B51D46CE
S315080126680B6808469B6816460C469847B0420BD92C
S315080126782B6831461F68236820461B689847014618
S315080126882846B8470120F8BD0020FCE773B51E4661
S315080126980B6808469B6815460C469847A8420ED902
S315080126A833680DF107011B683046984723682946A0
S315080126B820465B689DF80720984702B070BD002040
S315080126C8FBE7F8B51D460B6808469B6816460C468F
S315080126D89847B0420BD92B6831461F6923682046AB
S315080126E81B68984701462846B8470120F8BD0020C7
S315080126F8FCE773B51E460B6808469B6815460C46E3
S315080127089847A8420ED933680DF106011B69304668
S3150801271898472368294620465B68BDF806209847E6
S3150801272802B070BD0020FBE7F8B51D460B680846E0
S315080127389B6816460C469847B0420BD92B68314612
S315080127489F69236820461B68984701462846B84763
S315080127580120F8BD0020FCE773B51E460B6808463C
S315080127689B6815460C469847A8420CD9336801A9AF
S315080127789B69304698472368294620465B68019A2B
S31508012788984702B070BD0020FBE770B50D4616469E
S3150801279804461020FFF7CEFD33462A462146BDE8F2
S315080127A8704002F013BA70B50D4616460446102055
S315080127B8FFF7C0FD33462A462146BDE8704002F0B8
S315080127C805BA000070B505460C46224E00F0EEF82B
S315080127D8324629462048FFF7E6FF1020FFF7AAFDEB
S315080127E81E4B04F50A721E4902F0F0F9324604F541
S315080127F80C711C48FFF7D7FF32461B4E04F50E71BC
S315080128081A48FFF7D0FF324604F514711848FFF73E
S31508012818BCFF324604F51B711648FFF7B6FF1020B0
S31508012828FFF788FD144B04F51E72144902F0CEF918
S31508012838324604F520711248FFF7A7FF1020FFF763
S3150801284879FD104B104904F5227202F0BFF92846A2
S3150801285870BD00BFF007040820500408D406040810
S31508012868105C0408E04D0408D80804081850040840
S315080128780854040828550408D4080408F85B040809
S31508012888F05B0408D0080408185C040870470000BF
S3150801289838B504460D46FFF7FFF92046034B294686
S315080128A840F80C3B00F048F8204638BDE40804080F
S315080128B810B50446044B40F80C3BFFF71DFE2046AD
S315080128C8FFF7E2F9204610BDE40804080068B0FAE3
S315080128D880F0400970470020704708B54068FFF73F
S315080128E8F5FF08BD10B504461C30FFF719FCE16968
S315080128F82046BDE81040B1FA81F14909FFF7C9BD7B
S3150801290810B50446FFF7CFFD04F11C000021BDE808
S315080129181040FFF7FFBB000038B504461D46FFF710
S31508012928C7FD044B2046636204F11C03C4E9075535
S31508012938A36238BDFC08040838B50D4604460A7969
S315080129480968FFF7B5FDAB682046C4E90733034BA9
S31508012958636204F11C03A36238BD00BFFC080408BE
S315080129684368243383600120704738B50446636891
S31508012978A56803F12402D3F8243202EB83039D42A6
S3150801298802D10020A2600FE02B1D2846A360FFF79D
S31508012998D8FD0028EBD02846FFF7BCFD0488284651
S315080129A8FFF7C5FD44EAC07038BD0000024AC0E910
S315080129B800212431816070470C090408D0F82402E3
S315080129C87047002070470020704700207047436809
S315080129D853F821007047806870474068704724306B
S315080129E808B500EB8100FFF795FD008808BD24307E
S315080129F800EB8100FFF79BBD243000EB8100FFF750
S31508012A08A0BD000010B50446044B0360FFF785F91D
S31508012A182046FFF7B3F9204610BD00BF1C09040874
S31508012A2810B50446FFF7EEFF20461821FFF78EFC7E
S31508012A38204610BD08B54068FFF7D1FF08BD08B59F
S31508012A484068FFF7D9FF08BD08B54068FFF7B6FF24
S31508012A5808BD08B54068FFF7CAFF08BD70B50D4639
S31508012A680446006820B920602B682360286070BD79
S31508012A7806680821FFF76AFC3046F3E7884204D05E
S31508012A88B4BF4FF0FF30012070470020704708B5E2
S31508012A984068FFF793FF08BD08B54068FFF78EFF42
S31508012AA808BD10B510460C46FFF734FD0188208885
S31508012AB8FFF7E4FFC0F3C01010BD10B50846144669
S31508012AC8FFF728FD21880088FFF7D8FFC0F3C01053
S31508012AD810BD38B508461546FFF71CFD04462846B5
S31508012AE8FFF718FD01882088FFF7C8FFC0F3C01053
S31508012AF838BD38B5D0F8245200F1240404EB85050D
S31508012B08A54200D138BD2046FFF724FD0434F7E76E
S31508012B1810B50446FFF7EDFF04F10C00BDE81040B7
S31508012B28FFF7C2B82DE9F84304460C30FFF7CAF88F
S31508012B3894F82C322BB10023204684F82C32FFF75F
S31508012B48D8FF04F5107104F51470431A002B06DD35
S31508012B580A46002503F5107323449A4221D104F540
S31508012B68177504F51B777B1B002B06DD2A460026FD
S31508012B7803F5177323449A4216D1D4F8242204F18B
S31508012B88240303EB820E734511D1002388422ED103
S31508012B98C4F834320023AF422DD1C4F83C32BDE81B
S31508012BA8F88342F8045BD8E742F8046BE3E753F87D
S31508012BB804CBBCF1000FE6D0DCF8048098F80C6069
S31508012BC898F8042036B104EB8209D9F8406201362F
S31508012BD8C9F84062D8F8146036B104EB8202D2F813
S31508012BE85C620136C2F85C62DCF800C0E1E751F8BC
S31508012BF8042B1344CAE755F8042B1344CBE7000002
S31508012C082DE9F0410446FFF747F8234600254FF01A
S31508012C1810081F4A002143F80C2B184618222CF0D5
S31508012C28EBFFFFF75DF81B4B4246E3601A4B294653
S31508012C38C4F82832194BC4F82452C4E98E35C4F8A5
S31508012C48303204F51073184684F82C52C4F83452F5
S31508012C582CF0D2FF0426124F04F51773C4E99470B1
S31508012C68424629461846C4F858622CF0C5FF0D4B4A
S31508012C78C4E99B70C4E99E340B4B2046C4E9A034C9
S31508012C880A4BC4F87462C4E9A234BDE8F08100BFEE
S31508012C98940904081C090408800504083409040869
S31508012CA844090408580904086C0904088009040831
S31508012CB82DE9F04706460D4690460F46D1F80042DB
S31508012CC844F31D0484B9D5F80042376005EB84043A
S31508012CD8BC4206D03A4641462846FFF7E2FE00B10D
S31508012CE834603046BDE8F0874FEA540907EB890A8C
S31508012CF8424651462846FFF7E0FE28B1013C0AF14B
S31508012D080407A4EB0904DDE74C46DBE737B50546B6
S31508012D1800F124040A4601A82146FFF7C9FFD5F898
S31508012D282432019804EB8304A04203D0FFF7FFFB82
S31508012D3803B030BD0020FBE737B5054600F124048A
S31508012D480A4601A82146FFF7B3FFD5F824320198A8
S31508012D5804EB8304A04201D0FFF7FCFB03B030BDA6
S31508012D6837B5054600F124040A4601A82146FFF7A6
S31508012D789FFFD5F82432019804EB8304001B18BF7A
S31508012D88012003B030BD2DE9F84F002307460C464C
S31508012D9890460E46D1F80052036001EB850A037185
S31508012DA845F31D054DB9B24519D10123D4F80022B9
S31508012DB83B71802A1FD12CF0CFFE4FEA550B06EB43
S31508012DC88B09424649462046FFF783FE28B1013D4D
S31508012DD809F10406A5EB0B05E4E75D46E2E7324689
S31508012DE841462046FFF775FE0028DED13D71384673
S31508012DF83E60BDE8F88F04EB8203B3424FF0000149
S31508012E0802F1010007D1D8F80030C8F8001033607C
S31508012E18C4F80002EBE753F804CC1D1F44F822C096
S31508012E2843F8041CC4F80002B54204D141463046A9
S31508012E38FFF714FEDBE7043D2946281DFFF70EFEBA
S31508012E48F2E738B50446006808B9204638BD05686A
S31508012E580821FFF77BFA2846F6E773B5054600F118
S31508012E6824060A6801A80C463146FFF721FFD5F85A
S31508012E782432019806EB8303984214D02146FFF7BA
S31508012E8872FB019C236873B9D5F8243206EB8306CD
S31508012E980434A64209D1301FFFF7D3FFD5F82432E7
S31508012EA8013BC5F8243202B070BD2146201FFFF741
S31508012EB8D5FDEDE77FB505460C4600F124060A68F7
S31508012EC868463146FFF7F4FED5F82432009806EB32
S31508012ED883039842214603D0FFF773FB04B070BDFC
S31508012EE801A8FFF763FB02A8314601AAFFF74BFFC2
S31508012EF801A8FFF7A6FFF1E770B5054604460A4B90
S31508012F08D0F8246245F8243B46B904F10C00FFF7CA
S31508012F1879FD2046FEF7B8FE204670BD2846FFF71C
S31508012F2890FF013E0435EFE79409040810B50446F5
S31508012F38FFF7E2FF20464FF42471FFF707FA204608
S31508012F4810BD38B5C26804464069D2F834520368D8
S31508012F585B6885B12269E1695268B1FBF2F101F052
S31508012F68010198470021A06903685B689847E369E6
S31508012F780133E36138BDD2F83C1219B12269E16916
S31508012F889268EAE798472369E1691B68A069B1FB72
S31508012F98F3F1036801F001015B68E7E710B5044638
S31508012FA8024B0360FEF770FE204610BDAC09040803
S31508012FB810B50446FFF7F2FF20462021FFF7C6F9A8
S31508012FC8204610BDF8B5044616460F461D46FEF7B7
S31508012FD863FEC4E903760026084B31462360069B3F
S31508012FE82846A3612B6865615B68E6619847A0690D
S31508012FF8314603685B6898472046F8BDAC0904085A
S31508013008B0F90400704700207047436833F9110086
S3150801301870470020704780687047000010B504465D
S31508013028024B0360FEF730FE204610BDE809040886
S3150801303810B50446FFF7F2FF20462C21FFF786F95B
S31508013048204610BD10B50124002386B000940A460F
S315080130588DF80C30017C03ABC0680493059411F014
S315080130687AFB20B120469DF80C308DF810309DF872
S31508013078103043EA002006B010BD10B5022400231B
S3150801308886B00094ADF80C3041F0800203AB017CA0
S31508013098C0680493059411F05EFB20B10120BDF8C0
S315080130A80C30ADF810308DF812000020BDF810303C
S315080130B863F30F00BDF8123063F31F4006B010BD65
S315080130C8F0B585B001AB02930223039304AB054619
S315080130D80F468DF804108DF80520017C164613E96C
S315080130E80C00C06811F062FA394604462846FFF70B
S315080130F8A9FFADF808003CB19DF8094024B19DF82F
S315080131080840A31B5C425C41204605B0F0BD37B5B3
S31508013118457C044675BB0F2145828582C582FFF722
S3150801312891FF10F47F4FADF8040023D09DF80430C1
S31508013138332B1FD1C0221F212046FFF7C1FFC8B173
S31508013148672220212046FFF7BBFF98B12A4621218D
S315080131582046FFF7B5FF68B12A4622212046FFF720
S31508013168AFFF38B188222321204603B0BDE8304095
S31508013178FFF7A6BF284603B030BD1FB52721044669
S31508013188FFF760FF034613F47F4FADF80000C3F35A
S31508013198072031D09DF800301B072DD52821204658
S315080131A8FFF76BFF2A2101902046FFF766FF2C21BE
S315080131B802902046FFF761FF03909DF80600D8B1F3
S315080131C89DF80A00C0B19DF80E00A8B143F64A5108
S315080131D84FF47A32BDF904304B4393FBF2F3638219
S315080131E8BDF908304B4393FBF2F3A382BDF90C30C2
S315080131F84B4393FBF2F3E38204B010BD13B50721E1
S315080132080446FFF71FFF034613F47F4FADF8000086
S31508013218C3F3072017D09DF800305B0713D50C2197
S315080132282046FFF72AFF034613F47F0F0190C0F3E0
S31508013238074008D00A23BDF90420534348BFFF3382
S315080132481B12FA33238502B010BD70B5044603254F
S3150801325800262046FFF75BFF50B12046FFF78DFF92
S3150801326830B12046FFF7CAFF10B10123637470BD58
S31508013278013D6674EDD1FAE770B5154604460E4662
S31508013288FEF70AFD0C4B002D236014BF32233023A9
S315080132980A492374002304F11202C4E90612032217
S315080132A86374C4F81230E3822385054B2046E66029
S315080132B82262636270BD00BFE8090408C4090408EC
S315080132C8D8090408036802695B6803EB5203B3FB70
S315080132D8F2F07047036842695B6803EB5203B3FB74
S315080132E8F2F0704790F84430032B0BD1B1F57A7F89
S315080132F808D8B0F8BC308B4228BF0B46A0F8BE30B8
S315080133080120704700207047B1F57A7F28BF4FF42E
S315080133187A714369018359434FF47A73B1FBF3F11F
S31508013328C0F8B410012070474068704700207047FC
S315080133380079704700207047B0F90400704781800A
S31508013348012070474068704741600120704711B9EC
S3150801335801610120704703685B68B1EB430F05D823
S3150801336803EB5103B3FBF1F30361F2E7002070475E
S3150801337821B94161C0F8B4100120704703685B6838
S31508013388B1EB430F0DD803EB5103B3FBF1F3028BF2
S31508013398436153434FF47A72B3FBF2F3C0F8B4307E
S315080133A8EAE7002070470346D0F8080128B11B68E8
S315080133B8D3F8A40EB0FA80F0400970474068FFF7C1
S315080133C8C6BF4068FFF786BF4068FFF79DBF4068DC
S315080133D8FFF7E9BF4068FFF775BF4368188B704761
S315080133E84068FFF7C5BF4068FFF77CBF90F84400FF
S315080133F8012802D0031F58425841704702680A49F2
S3150801340802F12C03C31A5B114B434FF47A7123F06B
S3150801341803031A4412695200A2F11E034B43B3FB74
S31508013428F2F3A0F8BC307047398EE33803680A22EC
S3150801343810B51C6842F20F7342F2107102FB04328E
S31508013448B2FBF1F2C0F8DC20642202FB0433B3FBB9
S31508013458F1F3C0F8EC30C0F8FC30C0F80C3110BDF7
S3150801346840680FF0ABBD40680FF0A2BD037B10B5ED
S315080134780BB1C1F57A710368826803F12C04001B44
S31508013488064C4011604320F0030003441B69594365
S315080134984FF47A73B1FBF3F1116010BD398EE33835
S315080134A802680B4902F12C03C31A5B114B4323F03B
S315080134B803031A441369017B8268106801B1181A53
S315080134C84FF47A725043B0FBF3F080B2704700BFED
S315080134D8398EE3384068FFF7E3BF0023C0E9303384
S315080134E8C0E93233C0E93433012380F8B93070476B
S315080134F838B500250446C0E94655FFF7EEFF2946C3
S31508013508E830FEF707FE294604F1F800BDE8384019
S31508013518FEF700BED0F8C43010B58B4231DDC91AA2
S3150801352890F84430022B32D0A3F1050CDCF10003E4
S3150801353843EB0C030029D4BF00240124B3EBD17F44
S315080135480CBF01FB01F200229C426FF41C74224451
S3150801355814BF00214943002AD0F8D03019DA134498
S3150801356823EAE373C0F8D0306FF41C7319440029B1
S31508013578D0F8D43015DA0B4423EAE373C0F8D4300B
S3150801358810BDD0F8C8308B42C9DB0021C8E7012332
S31508013598D0E76FF00044E41A9442D4BF1B199B186C
S315080135A8E0E76FF00042D21A8A42D4BF9B185B182B
S315080135B8E4E740F27121D0E934321A440368DB6939
S315080135C84B439A42D4BF002001207047426922B969
S315080135D8C0F81C2180F8B8207047D0F81C3101338F
S315080135E89A4297BF0023C0F81C31C0F81C3180F8ED
S315080135F8B830D0F81C21D0F8B4309A4224BF012338
S3150801360880F8B83070472DE9F041D0F818410669B5
S315080136180134B44228BF002490F8B83005468846D4
S31508013628C0F81841002B33D1FFF7E0FEB5F9783019
S31508013638024658B358423EB3002BB8BF5B429FB205
S31508013648EB6D7B43B3FBF8F14FF47A737143B1FB26
S31508013658F3F1731E9942A8BF1946B5F95430BB420E
S31508013668A8BF3B4602B15B428C42A5BF641A761ACB
S31508013678C1EB4404A6EB4404B5BF5C435C4394FB25
S31508013688F1F494FBF6F42044BDE8F0811846D2E734
S315080136980020F9E791F8B83070B51BB1002303602B
S315080136A8436070BD91F84460CC6D022EB1F8BC3008
S315080136B84FEA440512D0052E10D00E49A3F57A73A0
S315080136C8514353434FF47A7293FBF2F391FBF5F1A5
S315080136D85343640893FBF4F30160E1E75A434FF453
S315080136E87A7392FBF3F25A43002192FBF5F20160D1
S315080136F84260D6E718FCFFFFF7B50E46036804468D
S31508013708014668461D6AFFF7C5FF019843F6FF7724
S31508013718B042A8BF3046009B31469E42B8BF1946FB
S31508013728D4E93162831B002BB8BF5B4205FB0373DF
S31508013738002BB8BFDB1906EBA3368642D4BFC4F8FB
S31508013748C460C4F8C40043F6FF708B1A002BB8BFCF
S315080137585B4205FB0303002BB8BF1B18A2EBA33278
S315080137688A42ACBFC4F8C820C4F8C81003B0F0BD73
S315080137782DE9F04F1646044685B089463146FFF7C6
S3150801378825FFFFF740FF23680546D3E900720A2398
S31508013798B2FBF3F82046FFF729FE41F28831236A7E
S315080137A8A26B03FB08F302FB08F293FBF1F392FB06
S315080137B8F1F1021E4FF47A700292E26D18BFB34610
S315080137C805FB02F208BF4FF0000B92FBF0F25A44D0
S315080137D80392D4F8CC20A5EB0900514300FB03F367
S315080137E848BFFF3194F8B82003EB2123D4F82CC03D
S315080137F8D4F8C010A9EB050AC4F8CC300192DAB995
S315080138084FF00A0EB7FBFEF74745A8BF47460CFB1C
S3150801381807F741F2883C40F6B83297FBFCF702FBFA
S3150801382808F200FB07175042874203DBBA42A8BFD2
S315080138383A461046C4F8C000D4F8C02092FBF8F7F7
S31508013848039A13441F444FF47A735F4397FBF6F7B9
S315080138589F4266DD4FEADA7394F8B92002B90BB1CB
S31508013868C4F8C01084F8B93033B12046FFF7BEFD55
S31508013878002860D04FEADA7394F8BA80B8F1000FD5
S3150801388804D0019A002A5CD183F00108B4F8BC3047
S3150801389841469F42A8BF1F46204627EAE777FFF712
S315080138A8E2FD2046B9B2FFF7E1FD94F8BA303BB11B
S315080138B849462046FFF72EFE32462946FFF71CFFE2
S315080138C8B8F1000F27D0E36D7E4303FB05F14FF4EA
S315080138D87A7391FBF3F896FBF3F64FF4FA6391FBC7
S315080138E8F3F1029BA6EB0B0604F1E80004F1F805CF
S315080138F853B301F5FA718E42D4BF00210121A8F10B
S31508013908FA08FEF70DFCB6EB480FB4BF01210021F2
S315080139182846FEF705FC012384F8BA3005B0BDE848
S31508013928F08F002F05DABAF1000FD4BF002301235F
S3150801393892E7002390E7BAF1000FD4BF00230123C9
S315080139489AE74FF00008A1E7A1F5FA718E42ACBFD4
S315080139580021012108F1FA08FEF7E2FBB6EB480F48
S31508013968CCBF01210021D3E72DE9F0471746FFF718
S315080139782DFEB0F9786005460C461EB190F8B86078
S3150801398886F001062846FFF731FD95F8BA80814683
S31508013998B8F1000F03D095F8B88088F001084E45AC
S315080139A80CBF4FF0000AB5F8BCA041462846FFF7F8
S315080139B85AFD28465146FFF759FD2846FFF78DFD5A
S315080139C8B8F1000F2BD04E4514BF3B460023B9F179
S315080139D8000F08BF00274FF47A72A3EB070302FB0F
S315080139E803F3EA6D05F1E80093FBF2F303EBD376EB
S315080139F84FEA66064FEA430305F1F80714D0323B46
S31508013A08A342D4BF00210121FEF78AFB06F1320140
S31508013A18A142ACBF002101213846FEF781FB0123EB
S31508013A2885F8BA30BDE8F0873233A342ACBF002126
S31508013A380121FEF775FBA6F13201A142D4BF002187
S31508013A480121E9E770B5FFF7C1FD036804465D681A
S31508013A58FFF726FD06462046FFF702FDB4F8BE2005
S31508013A68F0B1104BB3FBF5F3F51AAA4203DB9D191E
S31508013A789542A8BF154694F8BA1019B194F8B81022
S31508013A8881F001012046FFF7EEFC2046A9B2FFF7AF
S31508013A98EDFC2046FFF72CFD012384F8BA3070BDEA
S31508013AA81546E8E740420F00F8B540F6C415A1F5F2
S31508013AB800614D4348BF05F2FF7504461646ED12E7
S31508013AC8FFF794FC00283CD06B421BB2A4F890304F
S31508013AD841F2941305F6CA01994204F1D80794BF2D
S31508013AE8002101213846FEF71BFB1EB9012138467C
S31508013AF8FEF710FB94F870602EBB00212046FFF7ED
S31508013B08B2FC002384F8BA3094F84430032B00F049
S31508013B1886804FF4FA712046FFF7A8FC2046FFF77E
S31508013B28E7FC002DB8BF6D42182D77DCD4F8D830DC
S31508013B38002B73D004F584700121BDE8F840FEF71F
S31508013B48EFBA2BB2C2E7D4F80821002AD5D194F8DE
S31508013B584430591E01290AD9191F012945D823684C
S31508013B6829462046B3F9882EFFF7FEFE06E02368A4
S31508013B7829462046B3F9882EFFF7FAFD2046FFF7AE
S31508013B8818FD50B1D4E934320A2192FBF1F0834287
S31508013B9836DA0623002684F8A030D4F8D8301BB9BB
S31508013BA803221E4684F8A020D4F8E8301BB901225E
S31508013BB81E4684F8A020D4F8F83043BB022384F8BB
S31508013BC8A030002104F58470FEF7A4FA94F844306D
S31508013BD8032B0CBFB4F8BE30B4F97830C4F8A83052
S31508013BE8B4F89030A4F8B03013E0032B03D120467B
S31508013BF8FFF728FFC2E70723164684F8A030BDE772
S31508013C0893FBF1F39342CCBF05230423C2E7002EA5
S31508013C18D7D0D4F80831002B7FF46FAFF8BDB4F8C4
S31508013C28BE1078E738B50446A3609DF81030C4E994
S31508013C38001223734FF47A731046182223833A4BDA
S31508013C482262E361A3626363402340F6B832002522
S31508013C58A363364BE2622364354B364AC4E9123408
S31508013C68354BC4E9162523656367344A344BC4E9D9
S31508013C781924C4E91F34334A334BE266C4E90455A7
S31508013C8884F84450A4F8545084F87050A4F878502D
S31508013C98C4E921342D4B2E4AC4F88C30C4F8AC300B
S31508013CA84FF48073C4E925242A4AA4F8B830C4F81D
S31508013CB89C20294A294BC4E9292504F1D802C4E9D3
S31508013CC82F35C4E93925264B04F1E802C4E93D250F
S31508013CD804F1F802C4E93B53C4E93F53C4F8E03098
S31508013CE8C4E93155C4E93355C4E93555A4F89050A2
S31508013CF884F8A050A4F8B050C4F8B45084F8BA505F
S31508013D08C4F8DC50C4E94125C4E9435304F584736E
S31508013D18C4E94535C4F81C510FF086F86068294688
S31508013D280FF046F9204638BD000A0408700504084C
S31508013D38100A040874080408200A0408300A040842
S31508013D48400A040880050408500A0408D809040822
S31508013D58600A0408700A0408800A0408DE03F401E4
S31508013D68FC08040848307047583070476430704773
S31508013D780B6808469B6818470B6808469B681847E6
S31508013D888068704700207047806870478068704768
S31508013D988068704780687047806870478068704790
S31508013DA88068704780687047806870478068704780
S31508013DB8806870478068704780687047F8B51D46FF
S31508013DC80B6808469B6816460C469847B0420BD9B5
S31508013DD82B6831465F69236820461B689847014660
S31508013DE82846B8470120F8BD0020FCE773B51E46EA
S31508013DF80B6808469B6815460C469847A8420CD98D
S31508013E08336801A95B6930469847236829462046DD
S31508013E185B68019A984702B070BD0020FBE7F8B5C0
S31508013E281D460B6808469B6816460C469847B042D5
S31508013E380BD92B683146DF68236820461B689847E3
S31508013E4801462846B8470120F8BD0020FCE773B5A6
S31508013E581E460B6808469B6815460C469847A842AD
S31508013E680ED933680DF10601DB6830469847236891
S31508013E78294620465B68BDF90620984702B070BDF9
S31508013E880020FBE770B50D46164604461020FEF7D6
S31508013E9851FA33462A462146BDE8704000F096BED7
S31508013EA870B50D46164604461020FEF743FA334602
S31508013EB82A462146BDE8704000F088BE4FF4907343
S31508013EC8406803FB0100036C40301B6818474FF430
S31508013ED89073406803FB0100D0F8AC30AC301B681E
S31508013EE818474FF49073406803FB0100D0F8A430D3
S31508013EF8A4301B6818474FF49073406803FB010008
S31508013F08D0F89C309C301B6818474FF4907340686A
S31508013F1803FB0100D0F8943094301B6818474FF416
S31508013F289073406803FB0100C36E6C301B68184721
S31508013F384FF49073406803FB0100D0F88C308C303D
S31508013F481B6818474FF49073406803FB0100C36E5A
S31508013F5811465B686C3018474FF49073406803FB49
S31508013F680100036C11465B68403018474FF490739B
S31508013F78406803FB0100D0F8843011465B68843039
S31508013F8818474FF49073406803FB0100D0F8843052
S31508013F9884301B6818474FF49073406803FB010087
S31508013FA8C36F11465B687C3018474FF490734068B5
S31508013FB803FB0100C36F7C301B6818474FF49073E5
S31508013FC8406803FB0100436F11465B687430184764
S31508013FD84FF49073406803FB0100436F74301B6804
S31508013FE818474FF49073406803FB0100036D1146A7
S31508013FF85B68503018474FF49073406803FB01001B
S31508014008036D50301B681847584B2C312DE9F04180
S31508014018C0E900310C230446554A8360C0E90321E7
S31508014028544A4361C0E90621534A0362C0E9092192
S31508014038524AC362C0E90C21514A8363C0E90F2178
S31508014048504A4364C0E912214F4A0365C0E915215C
S315080140584E4AC365C0E918214D4A8366C0E91B2142
S315080140684C4A4367C0E91E214B4A4C4FC0E92121F6
S315080140784B4A4C4EC0E924214B4AC0F88030C0E966
S315080140882721C0F88C30C0F89830C0F8A430102021
S31508014098FEF750F9454D3B462246454900F096FD3F
S315080140A8324604F10C014348FFF7FAFE2A4604F1A1
S315080140B818014148FFF7E6FE324604F124013F4854
S315080140C8FFF7EEFE324604F130013D4E3D48FFF753
S315080140D8E7FE1020FEF72EF9334604F13C023A4969
S315080140E800F074FDDFF8E4802A4604F148013848EF
S315080140F8FFF7C8FE1020FEF71DF9434604F15402DE
S31508014108344900F063FD1020FEF714F9434604F11B
S315080141186002314900F05AFD2A4604F16C012F481C
S31508014128FFF7B0FE1020FEF705F9334604F17802C9
S315080141382B4900F04BFD1020FEF7FCF83B4604F12D
S315080141488402284900F042FD1020FEF7F3F8264BB1
S3150801415804F19002254900F039FD2A46244804F15C
S315080141689C01FFF78FFE2046BDE8F081900A0408F6
S31508014178A40A0408B80A0408CC0A0408E00A0408C8
S31508014188F40A0408080B04081C0B0408300B040875
S31508014198440B0408580B04086C0B0408EC070408BC
S315080141A8800B0408D8080408940B0408CC0B0408E7
S315080141B8E8550408005A0408F8590408705B040805
S315080141C8D0080408105A0408D0560408D408040864
S315080141D8B8590408085A040840580408285704080E
S315080141E83057040838590408C80B0408E85A04085B
S315080141F8F05A04087047D0E9003201EB6200184703
S3150801420813B5094B1446009300234FF49072019392
S315080142184368684602FB0131FFF7EDFF036821464B
S315080142285B68984702B010BD753D010813B5094B7F
S315080142381446009300234FF4907201934368684625
S3150801424802FB0131FFF7D7FF036821465B689847E8
S3150801425802B010BD713D010813B5094B1446009308
S3150801426800234FF4907201934368684602FB0131B3
S31508014278FFF7C1FF036821465B68984702B010BD7E
S315080142886D3D010807B5094B4FF490720093002359
S3150801429801934368684602FB0131FFF7ACFF0368DF
S315080142A81B68984703B05DF804FB00BF753D010814
S315080142B807B5094B4FF4907200930023019343689D
S315080142C8684602FB0131FFF796FF03681B689847A2
S315080142D803B05DF804FB00BF713D010807B5094B3A
S315080142E84FF490720093002301934368684602FBD2
S315080142F80131FFF780FF03681B68984703B05DF82B
S3150801430804FB00BF6D3D010810B5044608466368FD
S3150801431811462278FDF7FEF9237A2BB10123227873
S31508014328013A93405840C01A10BDF0B505462C46C7
S3150801433885B004AB03E9030000EBC10041F31C0394
S31508014348002B05DC844212D154F8040C05B0F0BDE3
S31508014358591054F8317004EBC1069742DCBF591A53
S3150801436801F1FF310B46D8BF06F10804E8E7A54273
S315080143786068EBD00092034654E9011254F8080C18
S31508014388FEF709F8E2E773B50446D1E9053003EB08
S31508014398C00083421D4607D10B69012B0CD800239F
S315080143A82046237102B070BD53F8086B9642F0D1C6
S315080143B86B6823600123F3E7C968CDE9001303F1A4
S315080143C80053013B51F8333009688A42E7DB9A42C0
S315080143D8E5DC02AB13E90300FFF7A7FF2060E9E76D
S315080143E838B50D460446114628461A46FFF78CFF86
S315080143F8294602462046FFF7C6FF204638BDF0B5CE
S3150801440885B004460D46164601461A4602A8FFF720
S31508014418BAFF9DF80C703FB1029B314600932846B6
S3150801442863682278FDF7A9F9384605B0F0BD4161F8
S31508014438704737B504460D4618300021FEF752FA7B
S3150801444821692A460B7D68468969FFF7C9FF94F8E9
S3150801445860309DF8045004F1440063B985F0010100
S31508014468FEF717F84DB12046236800991B6903B072
S31508014478BDE8304018470021F2E703B030BD000017
S3150801448813B504460B4B0C4A0360C368CDE90020F3
S315080144986946D8680EF04DF904F14400FEF72CF880
S315080144A804F11800FEF728F82046FDF7EDFB20462B
S315080144B802B010BDD80B04080B45010810B504460F
S315080144C8FFF7DEFF20466421FDF740FF204610BDB1
S315080144D810B590F8603004461BB1013B80F860308E
S315080144E810BD03695B7B002BFAD001211830FEF752
S315080144F8F9F994F82430002BF2D023691B69636112
S31508014508EEE74068FFF795BF73B5044615460E46AC
S31508014518FDF7C2FB104BAA7B23602B69A968636167
S31508014528C4E903656B7B04F11800FEF7F5F9AA7B64
S31508014538696804F14400FDF7BBFF2B7BE06884F842
S315080145486030064B6946CDE90034D5E907230DF0F5
S31508014558AAFA204602B070BDD80B04080B45010813
S31508014568F7B51F460D4B054618680E46144629F039
S31508014578D9FD002301463A46684600F094FB9DF8A2
S31508014588040040B1324629462046009B03B0BDE8DF
S31508014598F040FFF734BF03B0F0BD00BF98430020D1
S315080145A810B103689B6818477047F8B504460F4663
S315080145B8012654F8045FA54201D13046F8BD55F8DD
S315080145C8043C281F39461B6898472D680640F2E7B8
S315080145D8F8B500260446051D4068854201D12046DE
S315080145E8F8BD076840F80469FFF7DAFF3846F4E7C3
S315080145F8021D4260002202607047000010B5044699
S31508014608024B036000F056F8204610BDF40B040867
S3150801461810B50446FFF7F2FF20461421FDF796FE6A
S31508014628204610BD37B504460D460022016968467D
S3150801463800F060FA9DF8040040B12946009BA2687B
S31508014648E06803B0BDE83040FFF7D9BE03B030BD16
S315080146582DE9F0411C46104B064618680F46904648
S3150801466829F060FD218800F0EEFA054690B114207C
S31508014678FDF760FE04464246394600F011F8012066
S31508014688064B25612360736844F8043F33687460F0
S3150801469801333360BDE8F08198430020F40B040820
S315080146A810B5034CC26004600024C0E9014110BD7D
S315080146B8080C0408704700797047000010B50446CD
S315080146C8024B0360FEF7F4F8204610BD2C0C0408CB
S315080146D810B50446FFF7F2FF20464021FDF736FEDE
S315080146E8204610BD10B50446024B0360FEF7E0F8F4
S315080146F8204610BD440C040810B50446FFF7F2FF1E
S3150801470820464021FDF722FE204610BD10B5044675
S31508014718806B03681B689847B4F93C108142A8BFA7
S31508014728002104F10C00B8BF0121BDE81040FEF7CD
S31508014738D9B810B50446806B03681B689847B4F95D
S315080147483C108142D8BF002104F10C00C8BF0121E1
S31508014758BDE81040FEF7C6B82DE9F04105464020E8
S315080147680E46174635F9048BFDF7E4FD0446294636
S31508014778FEF78EF8054B21462360A763A4F83C800B
S3150801478806F10C00BDE8F041FDF7BABA2C0C04088D
S315080147982DE9F041054640200E46174635F9048BA2
S315080147A8FDF7C8FD04462946FEF772F8054B21466A
S315080147B82360A763A4F83C8006F10C00BDE8F04124
S315080147C8FDF79EBA440C04082DE9F0410546402038
S315080147D80E46174635F9048BFDF7ACFD04462946FE
S315080147E8FEF756F8054B21462360A763A4F83C80D3
S315080147F806F10C00BDE8F041FDF782BA440C04083D
S3150801480838B504460D460A4601460748FFF7A4FF88
S315080148182A4621460548FFF79FFF2A462146BDE84D
S3150801482838400348FFF7B4BF740C0408840C04081D
S31508014838640C04080A4601460148FFF7C5BF00BFCC
S31508014848540C040810B50446024B0360FDF71CFA1C
S31508014858204610BD9C0C040810B50446FFF7F2FF64
S3150801486820462421FDF772FD204610BD10B50446E1
S31508014878C06803681B689847B4F910301B1A584270
S315080148885841A37E98420AD00023A07663766069C8
S3150801489894F820100368BDE810405B681847637EE2
S315080148A8227E9A4286BF0133637684F82000EEE7B2
S315080148B8F8B504460F4616461D46FDF7EDF9094BA8
S315080148C8094A236041F21443238300232046E760FB
S315080148D826826561A376E26184F82030FFF7C6FF70
S315080148E82046F8BD9C0C04081C0C040810B504469F
S315080148F8024B0360FDF7C8F9204610BDB40C04083D
S3150801490810B50446FFF7F2FF20463021FDF71EFDD4
S31508014918204610BD70B50446C06803681B689847E9
S31508014928014604F11400FDF7FBFB616904F1240053
S31508014938B1FA81F14909FDF72EFB94F8283063B1DC
S3150801494824692368204628CB984780F001012B461D
S315080149582046BDE87040C9B2184770BDF8B5044687
S315080149681D460F461646FDF797F90A4B204623605A
S31508014978094BC4E90376E36104F1140323620023AE
S3150801498884F8283084F82C30044BC4E90555636249
S31508014998F8BD00BFB40C0408FC0804081C0C04087C
S315080149A88088704710B50446024B0360FDF76CF919
S315080149B8204610BDDC0C040810B50446FFF7F2FFC3
S315080149C820462421FDF7C2FC204610BDC3888B4228
S315080149D805D803898B4202D38180012070470020BC
S315080149E87047838B10B504462BB9C06803681B68E2
S315080149F89847400010BD006903681B689847A38B50
S31508014A0858434FF49673B0FBF3F0F3E770B544696E
S31508014A1823685D68FFF7E5FF2B4601462046BDE892
S31508014A2870401847F8B504460D4617461E46FDF761
S31508014A3833F90D4BA9882360069B2A8863610B48BD
S31508014A486B88AD68A061A183E2832384C4E90376F0
S31508014A581020FDF76FFC2946054B04F1180200F0F2
S31508014A68B5F82046F8BD00BFDC0C0408CC0C0408D0
S31508014A78D0060408064B10B5186829F053FBBDE89B
S31508014A881040D0F8103800F501601B68184700BFB8
S31508014A989843002003468068596802689268104757
S31508014AA810B50446044B186829F03CFB2146BDE8B5
S31508014AB8104000F02BB900BF9843002010B50468D0
S31508014AC8FFF7D8FF0444A07810BD2DE9F041044644
S31508014AD80E461546FFF7F2FF48B1A0682A4603684D
S31508014AE861681F683346BC46BDE8F0416047BDE8C2
S31508014AF8F0810000002330B5044685B0CDE90233BC
S31508014B08064B084602AD01A90193FFF7DEFF95E8B2
S31508014B18030084E80300204605B030BD28080408C8
S31508014B2813B504466846FDF7B5FB002269462046D3
S31508014B38FFF7CBFF019C6846FDF7B4FB204602B098
S31508014B4810BD38B50546FFF7A5FF04462846FFF701
S31508014B58E7FF604338BD10B50468FFF78BFF0444C7
S31508014B68207910BD2DE9F04104460E461546FFF792
S31508014B78F2FF48B1A0682A46036861685F68334648
S31508014B88BC46BDE8F0416047BDE8F08103689B79FA
S31508014B980BB1FFF7E0BF18467047000037B50A4B57
S31508014BA80446CDE900320A466946FFF7DBFF0546A2
S31508014BB838B12046FFF7EAFF18B1A38901339BB23A
S31508014BC8A381284603B030BD0408040813B58360D9
S31508014BD8002304468381C381084BC0E9001218687B
S31508014BE829F0A0FA01A9019400F02EFA019810B14A
S31508014BF81021FDF7ABFB204602B010BD98430020F3
S31508014C08704738B5044600F6180004F5805513F0C0
S31508014C18FAFE2046D5F838389847C5F8380838BD11
S31508014C2814F050B80B681B68198813681B681B8829
S31508014C38994204D005DA4FF0FF30C00F70470020BB
S31508014C48FBE70120F9E700F10C03D0F80C0870B569
S31508014C5803EB800440F31D0040B99C4205D018684F
S31508014C6803681B888B4288BF002070BD420853F829
S31508014C78226003EB8205366836888E4237BF00F113
S31508014C88FF3010462B1D801AE6E710B50988044639
S31508014C98FFF7D9FF014628B104F61800BDE8104008
S31508014CA814F069B810BD38B50446084611881D467A
S31508014CB8FFF7C9FF014628B12A462046FFF71AFF1A
S31508014CC8204638BD2071FBE700F58050B0F840282A
S31508014CD8B0F8423892B29BB29A420AD1B0F844283F
S31508014CE8B0F8463892B29BB29A4202D190F848086F
S31508014CF870470120704710B504462046FFF7E4FFC0
S31508014D0800B910BD2046FFF77CFFF6E700F6180044
S31508014D1814F031B870B50446D0F80C3800F10C0512
S31508014D2805EB8306B54200D170BD204655F8041B2C
S31508014D38FFF7ECFFF6E710B5044600F6180013F07E
S31508014D488BFF50B104F58053B3F84428013292B267
S31508014D58A3F84428012283F8482810BD10B5098804
S31508014D680446FFF770FF014620B12046BDE810400A
S31508014D78FFF7E1BF10BD00F58052B2F840380C3094
S31508014D8801339BB2A2F840380123C2F83C0882F8DD
S31508014D984838704770B50546D0F80C3800F10C0448
S31508014DA804EB8306A64204D12846BDE87040FFF7FE
S31508014DB8E2BF2068FFF7EAFE20B12268938901332A
S31508014DC89BB293810434EDE710B5044600F6180042
S31508014DD813F068FF04F58050B0F8443801339BB2E4
S31508014DE8A0F84438012380F8483810BDEFF310833A
S31508014DF8DB4303F0010372B600F58050B0F840288A
S31508014E08B0F8421892B289B28A420BD1B0F844284E
S31508014E18B0F8461892B289B28A420AD109487BB1D2
S31508014E2862B67047A0F84228012280F84828064841
S31508014E38F5E7A0F84628012280F848280348EEE74E
S31508014E4872B67047594E0108B54E0108E54E010874
S31508014E58FFF7CCBF38B500F58055D5F82C28104B87
S31508014E689A4218D1D0F80C2800F10C0303EB8203F7
S31508014E78D5F83C28934210D0111DC5F83C1811687D
S31508014E888A89CC8992B2A4B2A242F1D0CA8100F623
S31508014E98180013F0E1FE034800E0034838BD00BFD7
S31508014EA8294C0108B54E0108E54E0108FFF7D2BF9E
S31508014EB808B500F58053D3F82C28054B9A4205D135
S31508014EC800F6180013F0DEFE024808BD0248FCE7A2
S31508014ED8294C0108114F0108E54E0108FFF7E8BFFB
S31508014EE800F58050D0F82C28044B9A4203BF0023BA
S31508014EF880F8483802480348704700BF294C01081A
S31508014F08594E0108114F0108FFF7EABF70B5044663
S31508014F18FCF7C2FE124B00252360124B04F618064D
S31508014F28C4F810380123304684F81438C4F80C58E4
S31508014F3814F01AF90C4A04F58053A3F84058304678
S31508014F48A3F84258C3F83828A3F84458C3F83C5874
S31508014F58A3F8465883F8485813F05AFE204670BDF8
S31508014F68F40C040880050408594E010810B50468AC
S31508014F78016044B12046FFF743FE2046BDE81040CC
S31508014F881021FDF7E3B910BD00232DE9F74F0746B0
S31508014F988A4691468846D1F800680360037101EB91
S31508014FA8860546F31D0444B9454519D10123B6F5C5
S31508014FB8007F3B7133D12AF0CFFD4FEA540B08EB3A
S31508014FC88B014A4650460191FFF72CFE019928B1F3
S31508014FD8013C01F10408A4EB0B04E4E75C46E2E7AB
S31508014FE8424649465046FFF71DFE08B30123B6F562
S31508014FF8007F3B71DFD055F8043C4AF82630013664
S3150801500845F8044DCAF80068A845284616D1D9F8BE
S3150801501800104046C9F80040FFF7A8FF08E0D9F88C
S3150801502800300136C8F80030C9F80040CAF80068E7
S315080150383846C7F8008003B0BDE8F08F55F8041D57
S315080150482C60FFF793FFDFE707B50A4600F10C0165
S315080150586846FFF799FF03B05DF804FBF8B50446FF
S315080150680E4B04F10C07036000F6180013F018FD3F
S31508015078D4F80C5825B92046FCF706FE2046F8BD93
S3150801508857F8046B013D002EF4D03046FFF7B8FDFA
S3150801509810213046FDF75AF9ECE700BFF40C04086D
S315080150A810B50446FFF7DAFF204641F64C01FDF72D
S315080150B84DF9204610BD008A70478088704781805F
S315080150C80120704710B50446024B0360FCF7DCFD66
S315080150D8204610BD2C0D040810B50446FFF7F2FF4B
S315080150E820462421FDF732F9204610BD406800F014
S315080150F80FB84068FFF7DFBF0346C068198A1A8CDC
S3150801510803688A1A51425B6851411847FFF7F4BF89
S3150801511808B5038C23B10182FFF7EEFF012008BD0C
S315080151281846FCE738B504460D46FCF7B5FD144B99
S31508015138144A23600023C4E90524134AE560238237
S31508015148E26123841020FDF7F5F82A460F4B10492A
S31508015158104DFFF73BFD1020FDF7ECF82B4604F13F
S3150801516814020D49FFF732FD1020FDF7E3F82B4627
S315080151780A4904F11C02FFF729FD204638BD00BF7C
S315080151882C0D04080C0D04081C0D0408D406040883
S31508015198404D0408D0060408884D040890510408AF
S315080151A804289ABF014B185C492070473C0D04082E
S315080151B8436893F8082122B9D3F8C430D86800F0AF
S315080151C872BFB0F90800704710B5024C0281C0E9F0
S315080151D8004110BD4C0D040838B508461C464AB9A5
S315080151E81B685D690B681B68984701462046A847EE
S315080151F8012038BD0020FCE713B50C46184652B9FC
S315080152081B6801A95B699847236820465B68019969
S31508015218984702B010BD0020FBE770B50D46164643
S3150801522804461020FDF786F833462A462146BDE886
S315080152387040FFF7CBBC70B50D46164604461020DC
S31508015248FDF778F833462A462146BDE87040FFF748
S31508015258BDBC000070B50C4605461D4E00F1180187
S3150801526832462068FFF7E7FF3246606805F12801EC
S31508015278FFF7E1FF3246174EA06805F13801FFF737
S31508015288DAFF3246E06805F16401FFF7C6FF3246E0
S31508015298206905F16C01FFF7C0FF3246606905F11F
S315080152A87401FFF7BAFF3246A06905F17C01FFF7D9
S315080152B8B4FF3246E06905F18401FFF7AEFF3246CD
S315080152C8206A05F18C01BDE87040FFF7A6BF00BF4B
S315080152D8C80B0408680D040810B50446084628F0E2
S315080152E821FF63681988FFF7AEFC014628B12368D0
S315080152F82046BDE810401B68184710BDB0F90000E4
S315080153087047034690F8C40118B993F8EC0180F080
S3150801531801007047406803681B68184708B50C30D0
S31508015328FFF7F8FF002814BF6420002008BD40686D
S3150801533803681B68184738B504462C30FFF7F7FF8A
S31508015348054604F14C00FFF7F2FF281A18BF012099
S3150801535838BD436803EB81035888704780687047EE
S31508015368436833F9210070478068704700797047A8
S3150801537880887047406803681B681847B0F90400B5
S315080153887047808870470079704738B508461C46C3
S315080153984AB91B68DD680B681B68984701462046A9
S315080153A8A847012038BD0020FCE713B50C46184666
S315080153B862B91B680DF10601DB6898472368204620
S315080153C85B68BDF90610984702B010BD0020FBE7D7
S315080153D837B5836804460D468DF8071008300DF170
S315080153E80701984700B1257103B030BD4068FFF73A
S315080153F895BF4068FFF785BF08B54068FFF77EFF88
S3150801540808BD0978406800F0A8BE70B50D4616466D
S3150801541804461020FCF78EFF33462A462146BDE886
S315080154287040FFF7D3BB70B50D46164604461020E3
S31508015438FCF780FF33462A462146BDE87040FFF748
S31508015448C5BB4068FFF777BF38B50446154B0360F7
S31508015458154B00F590700360FCF716FCD4F81C018F
S3150801546870B9D4F8100188B9D4F80C01A0B904F1B7
S31508015478CC00FDF7C7FA2046FCF706FC204638BDDE
S3150801548805680821FCF762FF2846E9E70568082147
S31508015498FCF75CFF2846E6E705680821FCF756FF8E
S315080154A82846E3E7940E0408EC0E040810B50446EA
S315080154B8FFF7CAFF20464FF41071FCF747FF20464D
S315080154C810BD03681B68184710B5044600F59070A7
S315080154D8FFF7F7FF04F1CC00FFF7F3FF10BD0368E8
S315080154E85B681847D0F8C43010B5D868144600F078
