S02B0000453A5C7265706F735C63735C72656C656173655C6373335C6373335C6170705C6373332D73706F72A4
S3150801000000400020210201082502010827020108F3
S315080100103D0201083F0201085502010800000000DF
S31508010020FFFFFFFF00000000000000006B0201084F
S315080100306D020108000000006F0201087102010843
S315080100401D4D02082D4D02083D4D02084D4D020871
S315080100505D4D02086D4D02087D4D02088D4D020861
S315080100609D4D0208AD4D0208BD4D0208CD4D020851
S31508010070DD4D0208ED4D0208FD4D02080D4E020840
S315080100801D4E02082D4E02083D4E02084D4E02082D
S315080100905D4E02086D4E02087D4E02088D4E02081D
S315080100A09D4E0208AD4E0208BD4E0208CD4E02080D
S315080100B0DD4E0208ED4E0208FD4E02080D4F0208FC
S315080100C01D4F02082D4F02083D4F02084D4F0208E9
S315080100D05D4F02086D4F02087D4F02088D4F0208D9
S315080100E09D4F0208AD4F0208BD4F0208CD4F0208C9
S315080100F0DD4F0208ED4F0208FD4F02080D500208B8
S315080101001D5002082D5002083D5002084D500208A4
S315080101105D5002086D5002087D5002088D50020894
S315080101209D500208AD500208BD500208CD50020884
S31508010130DD5002088502010885020108ED50020812
S31508010140FD5002080D5102081D5102082D510208E1
S315080101503D5102084D5102085D5102086D510208D0
S315080101607D5102088D5102089D510208AD510208C0
S31508010170BD510208CD510208850201088502010810
S31508010180DD51020808B500F0C1F81D4D1D4AAA4205
S315080101900BD2D2E900130C3252F8044CC91A9C420C
S315080101A0F5D9585843F8040BF9E70021164A174CB4
S315080101B0A24208D252F8083B52F8040C9842F7D9E1
S315080101C043F8041BFAE702F0A9F90026104C114D71
S315080101D02D1BAD10B54204DD54F8043B9847013692
S315080101E0F8E700260C4C0D4D2D1BAD10B54204DD6C
S315080101F054F8043B98470136F8E721F0ADFAFEE7D3
S315080102006404010858040108640401086C0401081F
S315080102106C0401086C0401086C0401087C040108DB
S3150801022014480047FEE71EF0040F0CBFEFF30880E1
S31508010230EFF309807146104A1047FEE7FEE71EF004
S31508010240040F0CBFEFF30880EFF3098071460B4AE0
S315080102501047FEE71EF0040F0CBFEFF30880EFF31B
S3150801026009807146064A1047FEE7FEE7FEE7FEE704
S3150801027070470000850101083B0201085302010885
S3150801028069020108FEE7FFFF1B4B1A6822F4502298
S315080102901A601A6842F480321A601A689103FCD50A
S315080102A00121164A520102F1844211604FF41442A7
S315080102B09A60134A116821F0040111606FF07F41B9
S315080102C05160116841F0010111600E4A5A601A68BD
S315080102D042F080721A601A689201FCD540F20361F5
S315080102E0094A11609A6842F002029A609A6802F015
S315080102F00C02082AFAD17047003802407438020005
S3150801030010E000E00C3C4005003C024038B50024F2
S315080103104848036843F0010303608460036823F0D7
S31508010320847323F480330360434B4360036823F4E7
S3150801033080230360C460FFF7A7FF404B404A9A60D9
S3150801034062B6404ADA60036943F020030361036930
S3150801035023F020030361036B43F020030363BFF318
S315080103604F8F4FF0A043384A13604FF4004393610F
S315080103704FF480439361436A43F480734362436A4B
S3150801038023F480734362436C43F4807343640369C3
S3150801039043F001030361036923F001030361036B5E
S315080103A043F001030363BFF34F8F284B284D996828
S315080103B041F00101996027494C60296841F440419F
S315080103C029604FF4807159604FF4001119610721B2
S315080103D059634FF000419161996841F080419960F4
S315080103E019688907FCD5D96CB1F5946F00D3013426
S315080103F0642CF1D14FF4004393614FF0804393612C
S31508010400436A43F480734362436A23F48073436205
S31508010410436C23F480734364036943F02103036146
S31508010420036923F021030361036B23F021030363AB
S3150801043038BD00BF003802401030002400ED00E04E
S31508010440000001080003FA050014024000200140DB
S30D080104500000024000230140EF
S3150801045880D6040800400020F0400020F040002023
S31508010468ECAD0020A9250108EDCD010819CE010832
S30908010478A95302086B
S3150801048070B5002604461D46C0E9001206721046DC
S3150801049010F0EEF86068012110F0ACF920684FF40D
S315080104A0E13110F08DFF3146206810F0ABFF294687
S315080104B0206810F0D2FF2068294610F0C2FF2046B6
S315080104C070BDF0B5154685B0039101A981E80C0008
S315080104D004460068029ED0E90532D21A036AC76942
S315080104E0511EDB1B48BF9B18771B3A1DCB1A9A4234
S315080104F003D90123237205B0F0BD9DF80C1010F045
S31508010500DFFEF9B2206810F0DBFE9DF80E102068B8
S3150801051010F0D6FE9DF80F10206810F0D1FEB542F6
S31508010520E9D015F8011BF7E72DE9F0410D4686B02C
S3150801053069468046286881E80C00174610F035FFA1
S315080105400328044606D80023404688F8043006B036
S31508010550BDE8F08103AB04AE0493059696E8060060
S31508010560286810F0FEFE9DF80D300433A342EAD840
S315080105700424286810F0C3FE013CFAD1019C9DF8B9
S315080105800D30E41B9C4228BF1C4604972744059757
S3150801059096E80600286810F0C4FE9DF80D30A342BF
S315080105A004D9286810F0ABFE0134F6E70398012355
S315080105B0C8F80000C8E7006810F0F1BE024A0260F8
S315080105C000224260704700BFBD050108024A026069
S315080105D000224260704700BF0D18010800207047CD
S315080105E000797047017101207047007970470171E0
S315080105F001207047072998BF436882B09BBF03EB68
S3150801060041031B8E0023ADF8043098BF0123002057
S315080106108DF80630BDF8043063F30F00BDF80630D7
S3150801062063F31F4002B070470020704708207047E7
S31508010630072998BF436882B09BBF03EB41031B8C14
S315080106400023ADF8043098BF012300208DF8063049
S31508010650BDF8043063F30F00BDF8063063F31F409D
S3150801066002B0704708207047072998BF0B4B82B024
S315080106709BBF03EB81035B880023ADF8043098BF69
S31508010680012300208DF80630BDF8043063F30F000E
S31508010690BDF8063063F31F4002B07047D83303082C
S315080106A008207047072998BF0A4B82B097BF33F8CD
S315080106B021300023ADF80430012300208DF80630DF
S315080106C0BDF8043063F30F00BDF8063063F31F402D
S315080106D002B07047D83303080820704741680B48B1
S315080106E0D1E90123824202D16BB9C869704708482A
S315080106F08242F9D007498A4205D1002B14BF4FF02F
S31508010700FF30082070474FF0FF307047490B01084A
S31508010710C90B0108BD0501080020704737B50D460C
S3150801072004460C4B0C4900930233019302AB13E9BF
S315080107300C0005F10C000968FFF7C3FE05F154002A
S315080107400A2101F0D1FE054B204623600023636090
S3150801075003B030BD59340308143403085D10010889
S3150801076037B50D4604460C4B0C49009302330193E9
S3150801077002AB13E90C0005F10C000968FFF7A1FEAD
S3150801078005F154000A2101F0AFFE054B204623600E
S315080107900023636003B030BD6B34030818340308C3
S315080107A09110010830B591F82C300C46B3FA83F351
S315080107B0054685B05B098DF8043081F84D3001ABEB
S315080107C002930C490DF10503039304AB13E90C00DD
S315080107D004F10C000968FFF774FE04F154000A21BC
S315080107E001F082FE044B28462B6000236B6005B09E
S315080107F030BD00BF04340308C510010837B50D46DE
S3150801080004460C4B0C4900930533019302AB13E9DB
S315080108100C0005F10C000968FFF753FE05F15400B9
S315080108200A2101F061FE054B20462360002363601F
S3150801083003B030BD7934030808340308F9100108F8
S3150801084038B5074B04460360C06D20B1056801F051
S31508010850A1FE2846F9E7204601F0F3FB204638BDFC
S315080108602834030810B50446FFF7EAFF2046DC21C1
S3150801087001F092FE204610BD02780B789A420DD1FE
S3150801088042784B789A4209D382788B789A4205D175
S31508010890C078CB78C31A5842584170470020704730
S315080108A070B5002504460160C0E9015529460C309A
S315080108B001F014FE102608233246E36129466575C0
S315080108C0E582A56104F1200022F05EF83246294648
S315080108D004F1300022F058F8094B2046C4E91034D7
S315080108E0084BC4E91234084BC4E91434074BC4E96C
S315080108F01634074BC4E91834064BC4E9013570BDF3
S3150801090090320308A0320308B4320308C832030838
S31508010910DC320308990A0108437D37B50446C3B199
S315080109206D460C3001F0F5FDA36828465A1013F000
S31508010930010F04EB0201636818BFA25804F104040D
S3150801094018BFD358984795E8030084E8030003B015
S3150801095030BD024AC0E90123F9E700BF990A010837
S315080109604FF0FF3108234FF6FF72C0E90613C28222
S3150801097000F1200100F13003994202D021F8022B3F
S31508010980FAE74FF6FF7200F140018B4202D023F8D5
S31508010990022BFAE7437D0BB100234375704700002C
S315080109A0022330B585B08DF8053091F82C300C4608
S315080109B0002B0CBF0423002305468DF8043001AB38
S315080109C002930E490DF10603039304AB13E90C00D8
S315080109D004F10C000968FFF774FD0A2104F15400BB
S315080109E001F082FD04F16000FFF7BAFF044B2846C7
S315080109F02B6000236B6005B030BD00BF00340308CF
S31508010A00F9110108002200B589B006928DF81C205B
S31508010A10C8228BB201918DF81530090C1B128DF87D
S31508010A2016308DF8171005AB091203938DF81B20A4
S31508010A308DF81810027D0DF11D030649049303ABC9
S31508010A408DF8142009680CCB0068FFF73AFD09B048
S31508010A505DF804FB4934030838B5CB690C46072B06
S31508010A6088BF0023054688BFCB61CA69084B204663
S31508010A7053F82210FFF7C6FF04F10C004FF4C871B2
S31508010A8001F032FD034B28462B6000236B6038BD0D
S31508010A90D8330308490B01084B7D10B504461BB131
S31508010AA0FFF7DAFF204610BD014AC0E90023F9E73E
S31508010AB0990A010838B50D460446CA69084B2846FD
S31508010AC053F82210FFF79EFF05F10C004FF4C87189
S31508010AD001F00AFD034B204623600023636038BDFD
S31508010AE0D8330308C90B010870B500220546082347
S31508010AF0084601F1200634463188248A0236A14285
S31508010B0028BF2146B1F5005F07D2082B15D000EBA7
S31508010B104304248C8C4288BF13460132082AEAD141
S31508010B20082B04D0064A52F82310FFF76BFF054B32
S31508010B3028462B6000236B6070BD1346EDE700BFA6
S31508010B40D8330308BD05010870B5CB690446C868E2
S31508010B505A0040B94FF6FF758818068CAE4204BF95
S31508010B604FF6FE7505844FF6FF700A44128C8242D1
S31508010B7020D0072B13D1CB6901EB4302128CB2F5B6
S31508010B80005F04D32046FFF795FF204670BD1BB9C9
S31508010B902046FFF7A9FFF8E7013BCB61EBE70848D9
S31508010BA0013330F823009042E5D2CB612046FFF7A6
S31508010BB053FFEAE7034B236000236360E5E700BFC1
S31508010BC0D8330308490B010838B5CB69CD6801EB61
S31508010BD0430304464FF6FF72188E6DB9904202D14F
S31508010BE04FF6FE721A864FF6FE72CB695BB920463E
S31508010BF0FFF77AFF204638BD9042F4D1074B2360B0
S31508010C0000236360F6E7013BCB6101EB43031B8CD1
S31508010C109342EAD12046FFF74DFFEBE7C90B0108DE
S31508010C2038B504460C200D4601F0A8FC0346021D02
S31508010C3095E8030082E80300E26DE3651A6038BDB2
S31508010C402DE9F0418CB06B4683E8060090F84F30E9
S31508010C5006469BB3541A142C28BF14240D460021AA
S31508010C6004F1040805AF424638460B9121F08CFE83
S31508010C7096F84E300B9A8DF81430B6F85230424435
S31508010C808DF815301B128DF816302B460B928DF800
S31508010C90174006AA2C449C4204D013F8011B02F8FB
S31508010CA0011BF8E70B9B07493B44CDE9037303ABEB
S31508010CB00CCB096806F10C00FFF703FC0CB0BDE884
S31508010CC0F08100BF7E34030838B505460C4652B19B
S31508010CD001F1200301F1180292E8030083E80300F9
S31508010CE0012384F83830206900210FF083FD04F1CF
S31508010CF054004FF4967101F0F7FB034B28462B601D
S31508010D0000236B6038BD00BF450E01087FB5044658
S31508010D10543001F0FEFB04F1C80001F0FAFB04F1BE
S31508010D20D00001F0F6FBE36902AE5A1013F0010F89
S31508010D3004EB0201A36918BFA258304618BFD3585D
S31508010D4004F11805984796E8030085E8030004F1BD
S31508010D506000FFF7E1FD237D5BB100236E46214666
S31508010D60304623750122FFF7AFFF96E8030085E8B1
S31508010D70030004B070BD00002DE9F04300260446C7
S31508010D800D46B046DFF8749085B0CDE9028802AF0A
S31508010D9097E80C0005F10C016846FFF7C5FB9DF8BD
S31508010DA004304BB1009B494638460293FFF764FD70
S31508010DB0002818BF0646E8E77EB1022285F84D20CD
S31508010DC095F84F200AB185F84F300A4B2360002366
S31508010DD06360204605B0BDE8F0836B6D2BB901222F
S31508010DE029462046FFF770FFF3E7034BC4E90036AF
S31508010DF0EFE700BFB50E0108790D01084534030870
S31508010E0037B50D4604460C4B0C4900930133019343
S31508010E1002AB13E90C0005F10C000968FFF751FB59
S31508010E2005F15400642101F05FFB054B2046236060
S31508010E300023636003B030BD44340308403403081B
S31508010E40790D010838B50D460446012128690FF0C8
S31508010E50D1FC6B6D4BB905F10C00FFF7ACFB2946CC
S31508010E602046FFF7CDFF204638BD024B23600023FD
S31508010E706360F8E7450E010873B500250E4604467A
S31508010E80CDE90055094902AB13E90C0006F10C003E
S31508010E900968FFF716FB06F154000A2101F024FB45
S31508010EA02046034BC4E9003502B070BD0C34030873
S31508010EB01510010891F82C2010B5012A044605D809
S31508010EC091F8343043B9FFF729FC03E0044B03607A
S31508010ED000234360204610BDFFF7CEFFFAE700BFA7
S31508010EE0B50E010838B591F84E300C4681F87430C4
S31508010EF00123054681F8753001F1C80001F0F1FAC0
S31508010F0004F1D00001F0EDFA0023034A84F83830E1
S31508010F10C5E90023284638BD191B010882B02DE909
S31508010F20F04F89B000AFFB6499463B6D0646FB60FE
S31508010F30D7E915A3A3EB0A05BB6005F1090323F05D
S31508010F400703ADEB030D0C46E8469346AA1C0DEBC9
S31508010F5002037B6001F10C033B607B68C7F81880CC
S31508010F60FB6107F1200313E90C00396807F110004A
S31508010F70FFF7DAFA3A7D7B7C9AB9636D5BB9012290
S31508010F8021463046FFF7A0FE30462437BD46BDE868
S31508010F90F04F02B07047183494E8030086E803005E
S31508010FA0F2E73A7C202AD8D1012BD6D9B97C9BF80D
S31508010FB002209142D1D1F97C9BF803209142CCD1F0
S31508010FC098F80020002ADAD198F80120002AD6D10B
S31508010FD0BA68A3F1020B92450FD1FB68FA685B1058
S31508010FE084F84CB0D20704EB030148BFE3583046F6
S31508010FF048BF53F80990C847C6E75D452A4628BF42
S315080110005A46002AE9D008F10201504621F094FC1B
S31508011010E3E70000002330B504460D4689B0CDE963
S31508011020043301AA04A903C982E803000093084A04
S31508011030084B29462046FFF771FF2268064B9A425C
S3150801104003D163680BB985F83430204609B030BD41
S315080110500C3403081D0701085D100108002330B58B
S3150801106004460D4689B0CDE9043301AA04A903C98A
S3150801107082E8030000932046034B044A2946FFF7FA
S315080110804DFF204609B030BD610701081434030835
S31508011090002330B504460D4689B0CDE9043301AACB
S315080110A004A903C982E8030000932046034B044AB6
S315080110B02946FFF733FF204609B030BDA5070108C9
S315080110C018340308002330B504460D4689B0CDE926
S315080110D0043301AA04A903C982E803000093204640
S315080110E0034B044A2946FFF719FF204609B030BDCC
S315080110F0FD0701080434030830B501F1500389B02E
S31508011100049301F15203059304AA01AB05460C4663
S3150801111092E8030083E80300002328460093044A63
S31508011120044B2146FFF7FAFE284609B030BD00BF39
S3150801113008340308F9140108002330B504460D469E
S3150801114089B0CDE9043301AA04A903C982E80300D9
S3150801115000932046034B044A2946FFF7DFFE204643
S3150801116009B030BDA91501081034030830B589B096
S31508011170044606A80D4614F03BF8DDE906239B1A3A
S31508011180082B4FF0000394BF0B4A0C4ACDE90623FE
S315080111900023CDE9043304AA01AB92E8030083E8EE
S315080111A00300079B20460093054A069B2946FFF73D
S315080111B0B5FE204609B030BDA10901088916010806
S315080111C01C340308002330B504460D4689B0CDE921
S315080111D0043301AA04A903C982E80300009320463F
S315080111E0034B044A2946FFF799FE204609B030BD4C
S315080111F0A10901081C340308002330B504460D462D
S3150801120089B0CDE9043301AA04A903C982E8030018
S3150801121000932046034B044A2946FFF77FFE2046E2
S3150801122009B030BDCD05010800340308F0B587B013
S3150801123004460846694681E80C001349FFF71CFB7A
S315080112409DF830609DF83470054668B1009A137AA6
S315080112508DF80F301FB956B1527BFF2A07D084F893
S315080112604E30012384F84F30284607B0F0BD0DF102
S315080112700F030493054904AB05930CCB096804F1E4
S315080112800C00FFF71EF9EFE771340308553403081C
S31508011290F0B587B005460846694681E80C001A4943
S315080112A0FFF7EAFA9DF830700446E8B1009B05F1AC
S315080112B00C0093F800C003AE0DF10E02134904ABFE
S315080112C0AFB195F84F7097B195F84E5065450ED167
S315080112D00124CDE9046209680CCB8DF80D408DF81F
S315080112E00C503C46FFF7EDF8204607B0F0BD002547
S315080112F0CDE9046209680CCBADF80C508DF80CC029
S31508011300FFF7DFF8F0E700BF633403085F3403082B
S31508011310F0B585B00F466946054681E80C003846A2
S315080113201249FFF7A9FA0646E0B1009C95F84E3036
S3150801133022789A4216D12379A3B9637993B97B782E
S31508011340A279073B9A420DD1ED6DE71D55B1A379F7
S31508011350281D07332344CDE9027302A96B68984710
S315080113602D68F3E7304605B0F0BD00BF5B340308CE
S31508011370F7B5044626460D46174600F06BFE244B84
S315080113803A4646F80C3B294601233046FFF778F8DA
S31508011390204B0025A362204B294623631F4BC4E932
S315080113A00655C4E90F341E4BC4E90855C4E911347E
S315080113B04FF4007384F82C50A4F84C3084F8345058
S315080113C084F8385084F84F50256504F1540001F02B
S315080113D085F831466E46E56504F16000FFF760FA67
S315080113E0192104F1C80001F079F8332104F1D0007C
S315080113F001F074F8214630462A46FFF765FC96E85F
S31508011400030004F1180383E80300204603B0F0BD86
S3150801141028340308F032030800330308103303089D
S315080114202033030830B585B06B460C4683E80600C1
S31508011430114645680368AB421CD01A68A24206D118
S315080114405A688A4205D014B90A43D20701D50C3322
S31508011450F1E71B89ADF80C30012300208DF80E3019
S31508011460BDF80C3063F30F00BDF80E3063F31F406F
S3150801147005B030BD0023F0E71FB5426802AB18324C
S3150801148092E8030083E80300074893E80600FFF79C
S31508011490C9FF10F47F0F01900CBF4FF6FF70BDF81E
S315080114A0040005B05DF804FB283303081FB542683C
S315080114B002AB203292E8030083E80300074893E869
S315080114C00600FFF7AFFF10F47F0F01900CBF4FF630
S315080114D0FF70BDF8040005B05DF804FB2833030866
S315080114E010B50C1A134605D001462246184621F0B6
S315080114F031FA0346181910BD2DE9F04385B091F864
S315080115004C3000AF022B80460D4607D00122FFF76B
S31508011510DBFB40461437BD46BDE8F083384613F079
S3150801152067FED7E900010B1A03F10C0222F0070244
S31508011530ADEB020DB5F8502000248DF800200DF111
S31508011540050C12128DF801206E46624603F1050953
S315080115508DF804308DF802408DF80340013B002BCD
S3150801156003DB0CF8014B013BF9E7FFF7B9FFBE6056
S315080115700B494E44FE6007F1100313E90C00096894
S3150801158005F10C00FEF79DFF0A2105F1540000F054
S31508011590ABFF044BC8F800300023C8F80430B8E79D
S315080115A010340308391101082DE9F0438FB00746B5
S315080115B001A8894605AD13F01BFEDDE90186A6EBF8
S315080115C00806082E4FF021024FF00001284634463E
S315080115D028BF082421F0D8F94FF48173ADF81630E5
S315080115E0264B082E069303F1F55303F5DE1303F68E
S315080115F0C453079303F10B5303F53B2303F5FF7319
S31508011600089303F15543A3F55513A3F67E130993DE
S315080116104FF67A43ADF828304FF0E7038DF82A30B4
S3150801162004F117038DF8153004F101038DF82B30F9
S315080116308CBF0823092308EB04010DF12D0240464E
S3150801164019348DF82C302C44FFF74AFF0C490395C1
S31508011650049403AB0CCB09F10C000968FEF731FFC2
S3150801166009F154000A2100F03FFF064B38463B605A
S3150801167000237B600FB0BDE8F08300BF0611076C3D
S315080116801C3403086D1101082DE9F0418EB0064698
S3150801169001A8884613F0ACFDDDE90174E41B1D2C95
S315080116A04FF01D024FF0000106A828BF1D2421F0A6
S315080116B06BF901238DF8143009238DF81730A31C13
S315080116C039198DF8153005AD631C06AA3846043458
S315080116D08DF816302C44FFF703FF0B490395049444
S315080116E003AB0CCB08F10C000968FEF7EAFE08F11A
S315080116F054000A2100F0F8FE044B304633600023FB
S3150801170073600EB0BDE8F0811C340308C5110108E9
S3150801171008B513460A1A06D0194621F0FFF8B0FA99
S3150801172080F0400908BD0120FCE700002DE9F341DE
S31508011730884602A901E90C00D0E901352F4A044679
S315080117409342009E42D1B5FA85F700257F092C49B7
S315080117504046FFF791F8E0B1637D002B33D0227D37
S3150801176033789A422FD1B378727842EA0322E28219
S315080117703179F37843EA01232383B179737943EA0B
S3150801178001236383E369072B03D857B304EB4303A8
S315080117901A841C4A08F104014046FFF7B9FF90B1C3
S315080117A0637D83B1338873B1E269072A0BD84FF693
S315080117B0FD7103F500538B4228BF0B469BB2B7B1A7
S315080117C004EB4204238402B0BDE8F0810E4A934239
S315080117D009BFB5FA85F500276D09002718BF3D46EB
S315080117E0B5E7002DD5D004EB43031A86D1E7002DC2
S315080117F0E9D004EB42042386E5E700BF490B01085B
S31508011800513403084D340308C90B01082DE9F04189
S3150801181091F8343096B006460C46C3B991F82C3087
S31508011820023B012B13D907AF01F10C0816AB05973B
S31508011830069305AD95E80C00414603A8FEF774FE2C
S315080118409DF8103063B91F4A3260736004E00022C4
S3150801185021463046FFF738FA304616B0BDE8F08122
S3150801186016AB0597069395E80C0003A904F16000E9
S31508011870FFF75CFF16AB069394F82C300597B3FA7D
S3150801188083F35B0901930123009395E80C0003A9EF
S315080118902046FFF7CBFC48B14FF4FA7104F1540026
S315080118A000F022FE084B33600023CEE716AB00900A
S315080118B00597069395E80C0003A92046FFF7E8FC6F
S315080118C0B4E700BF0D1801082D1A010837B50546FA
S315080118D0084602A901E90C000C4A011D9DF81840A9
S315080118E0FFF716FF60B1009A137903F001004CB1B6
S315080118F030B120469178537843EA0123A5F852304E
S3150801190003B030BDD84300F00100F9E77534030888
S3150801191013B50446084602A901E90C00074A011D48
S31508011920FFF7F6FE38B1009B5A781B7853EA022373
S3150801193018BFA4F8D83002B010BD00BF6734030839
S3150801194013B50446084602A901E90C00084A011D17
S31508011950FFF7DEFE48B194F84F0030B1009B987846
S3150801196094F84E30C31A5842584102B010BD00BF10
S315080119706D3403082DE9F04106460D4694B005AFCE
S3150801198001F10C0814AB0397049303AC94E80C001B
S31508011990414601A8FEF7C8FD9DF8083073B96A6D7E
S315080119A042B9002229463046FFF78EF9304614B06F
S315080119B0BDE8F0810C4AC6E90023F7E714AB0397A3
S315080119C0049394E80C0001A905F16000FFF7AEFE47
S315080119D014AB0397049394E80C0001A92846FFF772
S315080119E0AFFF0028CED0DCE77519010837B50C46DC
S315080119F0054601F14E03009301F14F030A4901938C
S31508011A0002AB13E90C0004F10C000968FEF759FD55
S31508011A1004F15400322100F067FD28462146FFF7FC
S31508011A20A9FF284603B030BD553403082DE9F04314
S31508011A3091F82C3097B0032B06460C4615D04B6D02
S31508011A409BB107AF01F10C0816AB0597069305ADD7
S31508011A5095E80C00414603A8FEF766FD9DF810308F
S31508011A609BB92C4AC6E900230BE004F1200304F1D3
S31508011A70180292E8030083E8030021463046FFF77F
S31508011A80B5FF304617B0BDE8F0834FF0010916AB34
S31508011A900597069395E80C0003A904F16000FFF782
S31508011AA045FE16AB05970693CDF8009095E80C0010
S31508011AB003A92046FFF70AFF20B121463046FFF762
S31508011AC011FADEE716AB0597069395E80C0003A90C
S31508011AD02046FFF735FF28B14A4621463046FFF72B
S31508011AE0F3F8CEE7CDE9000003A995E80C002046F6
S31508011AF0FFF79CFB16AB069394F82C300597B3FABF
S31508011B0083F35B09009395E80C0003A92046FFF7C8
S31508011B10BFFB99E72D1A01082DE9F04791F82C30FA
S31508011B2096B0032B07460C4602D1FFF75FFF3CE050
S31508011B30D1F8C83001F10C0807AE63B9CDE907330E
S31508011B404D49404696E80C000968FEF7BAFC04F1CF
S31508011B50C80000F0C6FCDFF8289105AD16AB05965E
S31508011B60069395E80C00414603A8FEF7DDFC9DF8AF
S31508011B701030002B6FD016AB0596069395E80C002E
S31508011B8003A904F16000FFF7D1FD16AB059606938C
S31508011B9095E80C0003A92046FFF7D2FE824640B11C
S31508011BA0002221463846FFF78FF8384616B0BDE8B9
S31508011BB0F08795E80C0003A92046FFF7A9FBCDE9B4
S31508011BC000AA16AB0596069395E80C0003A92046CC
S31508011BD0FFF72CFB16AB069394F82C300596B3FA4F
S31508011BE083F35B09009395E80C0003A92046FFF7E8
S31508011BF04FFB16AB0596069395E80C0003A92046FC
S31508011C00FFF786FE38B104F1C80000F06AFC04F15A
S31508011C10D00000F066FC16AB0693002305960093E8
S31508011C2095E80C0003A92046FFF750FE10B121469E
S31508011C3038467AE7494603A8FEF71EFE00288DD0E6
S31508011C409DF81C209DF81D30134387D104F1D0005F
S31508011C5000F047FC82E7D4F8D02042B904F120030A
S31508011C6004F1180292E8030083E80300DFE7034A58
S31508011C70C7E9002399E700BFF8330308191B0108D0
S31508011C80FC33030810B50446164B40F8A03B00F098
S31508011C90E9FC04F1900003F09FF904F1800003F0D8
S31508011CA09BF904F1700003F097F904F1600003F061
S31508011CB093F904F1500003F08FF904F1400003F0A1
S31508011CC08BF904F1300003F087F904F1200003F0E1
S31508011CD083F904F1100003F07FF9204600F0B1F909
S31508011CE0204610BD8C34030810B50446FFF7CAFF19
S31508011CF02046C42100F050FC204610BDC368A03020
S31508011D0093F8381000F086BC38B504460D4600F045
S31508011D10A1F9254B05F128022360E560234904F161
S31508011D20100003F0E2F805F13002214904F1200020
S31508011D3003F0A8F805F13C021E4904F1300003F04E
S31508011D40BAF805F144021C4904F1400003F0B3F85E
S31508011D5005F1A002194904F1500003F0B9F805F19B
S31508011D60A802174904F1600003F0F3F805F1B0027F
S31508011D70144904F1700003F0ECF805F1B8021249B0
S31508011D8004F1800003F0E5F805F1C0020F4904F1FA
S31508011D90900003F0DEF802220D4904F1A00000F0DC
S31508011DA047FC204638BD00BF8C340308547E03081F
S31508011DB01476030864720308BC7A030824730308BB
S31508011DC0AC790308A47903081C7903084C7A03083B
S31508011DD0EC69030870B5154604460E4601F5056219
S31508011DE0296803F068F806F65C02A96804F1100090
S31508011DF003F061F806F66402696804F1200003F04D
S31508011E005AF806F66C02296904F1300003F06DF8F8
S31508011E1006F67402E96804F1400003F066F8204604
S31508011E2070BD10B50446403003F0D6F804F1300011
S31508011E3003F0D2F804F1200003F0CEF804F1100003
S31508011E4003F0CAF8204603F0C7F8204610BD30B59E
S31508011E5001249440013C1BB1012B17D0002030BD51
S31508011E608568C368C1F140018A1A2DBAC2F12000FA
S31508011E701BBAA2F1200105FA00F023FA02F2024385
S31508011E8025FA01F10A4304EA0200E8E7D0E9023536
S31508011E90C1F12000A1F1200205FA00F023FA01F1AF
S31508011EA0014325FA02F2114304EA0100D7E72DE9B5
S31508011EB0F04F099E1BB1012B36D0BDE8F08F4FF0CC
S31508011EC00109A2F1200BC2F1200A29FA0AFA09FA34
S31508011ED00BF709FA02F4C2F1400CACEB010C14F150
S31508011EE0FF3447EA0A0747F1FF37ACF1200AC5680C
S31508011EF007FA0CF3CCF1200904FA0AFA96FA86F8DD
S31508011F0024FA09F943EA0A0304FA0CF408FA0CFC60
S31508011F10876843EA09038CEA050C03EA0C0327EAF6
S31508011F2004046B40C0E90243D0E902754FF0010C85
S31508011F30A2F12008C2F1200E0CFA02F30CFA08F4F9
S31508011F402CFA0EFE13F1FF3344EA0E0444F1FF3274
S31508011F50A1F1200C03FA0CFCC1F120048A4023FAF2
S31508011F6004F442EA0C022243C1F1200CA1F1200437
S31508011F7006FA04F426FA0CFC8B4044EA0C0406FA29
S31508011F8001F179406C400B4022407B406A40C0E930
S31508011F90023292E70023C361704703681B6818473A
S31508011FA030B585B0009B016903F0004321F000417B
S31508011FB00B430093FF2300220446057D8DF8053067
S31508011FC00368C261CDE902229B6969468DF804500E
S31508011FD098476946E0680DF0B1F905B030BD8169E9
S31508011FE031B1C3690A339942C36101D8FFF7D8BF32
S31508011FF070470000F8B504460F461D46164600F020
S3150801200029F8094B21692360069B3268A3610023DD
S3150801201022F0004201F000411143E7602161257574
S31508012020E3612046F8BD00BFAC34030810B5044689
S31508012030024B036000F005F8204610BDAC340308D6
S315080120407047704710B504460C2100F0A5FA2046E2
S3150801205010BD0000024A02600022C0E90122704751
S31508012060D034030838B5054655F8104FAC4206D0AA
S3150801207054F8043C201F1B6898472468F6E738BDC6
S3150801208038B5054655F8104FAC4206D054F8043C0D
S31508012090201F5B6898472468F6E738BD38B50546BA
S315080120A055F8104FAC4206D054F8043C201F9B68E3
S315080120B098472468F6E738BD38B5054655F8104FF0
S315080120C0AC4206D054F8043C201FDB6898472468C4
S315080120D0F6E738BD0346002110B553F8042F93429D
S315080120E004D01468C2E900112246F8E7C0E90133B1
S315080120F0016010BD10B50446044B40F80C3BFFF7D0
S31508012100E9FF2046FFF79DFF204610BDF03403087E
S3150801211010B50446FFF7EEFF2046182100F03CFAF9
S31508012120204610BD10B50446044B40F80C3BFFF79A
S31508012130D1FF2046FFF7DEFF204610BD1035030804
S3150801214010B50446FFF7EEFF2046182100F024FAE1
S31508012150204610BD10B50446FFF77CFF044B204608
S3150801216023600023E36004F11003C4E9043310BDBE
S31508012170F0340308436910B50A1D00F110048B6099
S315080121804C6042611A60C3680133C36010BDF8B57B
S3150801219004460546002654F8103F9C420AD0181FEB
S315080121A01F68C3E9006603D053F8043C5B69984786
S315080121B03B46F2E7C5E90444EE60F8BD10B50446AE
S315080121C0FFF7C8FF014B2046236010BD10350308F1
S315080121D0D0E901239B1A994238BF535C82B036BFB6
S315080121E08DF804300023012300208DF805309DF871
S315080121F0043063F307009DF8053063F30F2002B03E
S3150801220070470020704782684068101A7047436813
S315080122101868704738B5044600F0C2F91D4D0C30F0
S31508012220224660601C49256004F1080002F050FE50
S3150801223000F0B6F9083004F11802E0611749A56102
S3150801224004F1200002F044FE00F0AAF904F130027C
S31508012250C4E90C50124904F1380002F039FE00F0C5
S315080122609FF90430E06404F14802A5640D4904F1BC
S31508012270500002F02DFE0C4B04F1600223660B4B55
S315080122800B4963660833A36604F16C0002F07BFE12
S31508012290204638BD30350308047803080C7803084E
S315080122A0A47C03085C7B0308403503084C35030806
S315080122B0247B030810B504466C3002F08DFE04F148
S315080122C0500002F089FE04F1380002F085FE04F19F
S315080122D0200002F081FE04F1080002F07DFE20468E
S315080122E010BD00797047002070470000024A02605D
S315080122F000220271027270475C35030829B1037A1C
S3150801230083F001030371017270470B46FAE719B9A5
S31508012310037A0371017270470023FAE7027843785A
S315080123201AB11B0183F3118870470BB162B6704766
S3150801233072B67047C36801718360704719B9C3687B
S31508012340017183607047836823B1013B8360002371
S3150801235003717047C368002BFAD00123F8E7000020
S31508012360034A026000220271C0E90221704700BFD8
S315080123705C3503080022C0E90022027170477047E4
S31508012380034B1B689B6B194401230160037170475A
S31508012390F0400020037953B1074A01681268926B2D
S315080123A091424FF0000204D2027118467047012388
S315080123B0FBE71346F9E700BFF040002013B50446D2
S315080123C0124B1860124B1B6803F5CE53103340F8B5
S315080123D0043BFFF7F3FE04F11C00FFF7EFFE0023B1
S315080123E02068A36384F83430E36303694FF47A7190
S315080123F05B6810309847074B20686946CDE9003479
S315080124000EF0EAFC204602B010BD00BFF0400020E5
S31508012410F84000204B24010838B5836B0446013384
S3150801242083630068836918301B68984794F83430C9
S31508012430054613B1201DFFF731FE20688369183060
S315080124401B689847401BE06338BD4068FFF7E4BF47
S3150801245090F8343070B5044623BB061D304604F1A6
S315080124601C05FFF7FFFD2846FFF7FCFD0E4B186814
S3150801247003F0F6FE3046FFF703FE2846FFF700FE97
S31508012480012384F834302846FFF708FE94F83430DF
S31508012490002BF8D13046FFF70FFE2846BDE87040FD
S315080124A0FFF70ABE70BD00BFF440002073B50646AB
S315080124B00025044656F81C0B6946CDE900550EF071
S315080124C08BFC3046FFF72EFE201DFFF72BFE20461C
S315080124D0014B1D6002B070BDF0400020C0E900113B
S315080124E07047436803607047C0E900117047436845
S315080124F033B1026864205043B0FBF3F398B27047D6
S315080125001846704708B5FFF7F2FFC0F1640080B2BC
S3150801251008BD03680BB1013B036070477047FEE7CE
S3150801252008B520F0F5F9582303604FF0FF3008BDD0
S31508012530044B1A681118196003498B6803448B60A8
S315080125401046704700400020004100200346094A12
S3150801255010B51168013111604107074918BF20F00C
S315080125600703086818BF0833C4180C6091680B4440
S31508012570936010BD0041002000400020FFF7E6BF30
S31508012580FFF7E4BF024A536801335360704700BF3F
S3150801259000410020FFF7F6BFFFF7F4BFFFF7F2BFD0
S315080125A00048704700410020024B0349034A5B1A61
S315080125B0D360704700C00120ECAD00200041002027
S315080125C0303809288CBF002001207047FEE70346F2
S315080125D0012029B1CA0748BF584349085B43F8E7B0
S315080125E070475B1A10B507D0121A05D0029C241A37
S315080125F0634393FBF2F31944084610BD40687047DC
S3150801260041600120704700880B8898422CBF002042
S3150801261001207047037D2BB921B1C3697E2B9CBF6D
S315080126200133C361017570470023C36103757047A0
S31508012630002310B504460273074AC0E90033026154
S31508012640064A0375C0E90623054B816001461868E9
S3150801265000F0ACFC204610BD003303086C350308B6
S315080126601041002010B50446034B0146186800F0D6
S3150801267052FB204610BD00BF1041002010B5036B68
S31508012680044630309847014604F10C00BDE8104075
S31508012690FFF7C0BF10B50446044B40F80C3BFFF7E3
S315080126A0E1FF2046FFF7CDFC204610BD7C35030827
S315080126B010B50446FFF7EEFF20463821FFF76CFFF9
S315080126C0204610BD73B505466C460E4684E80C00D7
S315080126D0FFF7C0FC2846084B316840F80C3B3279B5
S315080126E0FFF7A6FF94E8030005F1300383E803002A
S315080126F0284602B070BD00BF7C35030838B50446CC
S315080127000D4600F0EFF805F628021C4904F12000F1
S3150801271002F0B8FB05F50362194904F1300002F02D
S31508012720D7FB05F63802174904F1400002F0D0FB41
S3150801273005F50562144904F1500002F017FC05F687
S315080127406802124904F1600002F010FC05F50762FF
S315080127500F4904F1700002F0FCFB05F678020D49F9
S3150801276004F1800002F002FC05F508620A4904F149
S31508012770900002F0C7FB204638BD00BF647E0308FF
S31508012780CC72030804750308AC780308C4790308F6
S315080127904C7E0308447E03086C7E030810B5044684
S315080127A0903002F019FC04F1800002F015FC04F1E6
S315080127B0700002F011FC04F1600002F00DFC04F156
S315080127C0500002F009FC04F1400002F005FC04F196
S315080127D0300002F001FC04F1200002F0FDFB04F1D7
S315080127E0100002F0F9FB204610BD0C3000F02AB8A3
S315080127F038B504460D46FFF72DFC2046034B2946FE
S3150801280040F80C3B00F035F8204638BD9C350308E6
S3150801281010B50446044B40F80C3BFFF723FF20464E
S31508012820FFF70FFC204610BD9C35030810B504467A
S315080128302430FFF783FD94F828102046BDE81040A0
S31508012840FFF7E8BE10B50446FFF7EEFE04F12400D3
S315080128500021BDE81040FFF76DBD38B504461D4699
S31508012860FFF7E6FE294604F12400FFF779FD204625
S3150801287038BD38B505460C460A790968FFF7D8FE0A
S31508012880A16805F12400FFF76BFD284638BD4268AB
S315080128900120136824335360704738B505462B6801
S315080128A003F12402D3F824383BB102EB03136C6815
S315080128B09C4204D100206A6038BD1346F7E704F14B
S315080128C010036B60204600F0ECF80028E7D0236877
S315080128D020461D8800F0BCF845EAC070ECE7406860
S315080128E0FFF7DBBF10B50446064B01602431416092
S315080128F0C0E9023000F108020349103002F0E8FA93
S31508012900204610BDBC3503080C7503080020704726
S315080129104368D3F824087047002070474368D3F802
S3150801292024087047436882B0D3F8242800209142CE
S315080129303BBF03EB01135B6A00231B883CBFADF861
S31508012940043001238DF80630BDF8043063F30F0017
S31508012950BDF8063063F31F4002B070474368D3F8E9
S3150801296024087047032A97BF4B68002353F822307F
S31508012970036098BF012303717047042070474068BC
S3150801298070470C30FFF77CBB10B50446044B036057
S31508012990FFF7FDFB2046FFF7ADFB204610BD00BF44
S315080129A0CC35030810B50446FFF7EEFF204618217B
S315080129B0FFF7F2FD204610BD036803EB0111016024
S315080129C070470000034670B50446D0F82458002025
S315080129D00D4A43F8242B65B1194651F8082F013DD4
S315080129E08A4204D01668C2E900003246F8E7103375
S315080129F0F1E704F10C00FFF7C7FF044B20461D6001
S31508012A00FFF71FFB204670BD4C3603081041002016
S31508012A1010B50446FFF7D6FF204640F68801FFF7B2
S31508012A20BBFD204610BDD1F8242801F124030AB1C3
S31508012A3003EB021303607047024610B58C6842F82F
S31508012A40084BC1E900220122C0E90211426010BD0A
S31508012A5050F8083F834203D01A7D12B91B68F9E77B
S31508012A6000221046704707B54068D0F824388B42D3
S31508012A7015D9243000EB0110FFF7EAFF01238DF881
S31508012A80040000208DF805309DF8043063F3070033
S31508012A909DF8053063F30F2003B05DF804FB0023AE
S31508012AA0EFE7002250F8083F834203D0D9691B6833
S31508012AB00A44F9E7104670474B6810B5D3F824184D
S31508012AC00446914209D9243303EB0210FFF7E9FFC3
S31508012AD0012320602371204610BD0023FAE738B58B
S31508012AE0054655F8084FAC4204D02046FFF79CFD31
S31508012AF02468F8E738BD024670B5002552F8083F44
S31508012B0093420CD0994208D1D1E9004634606660F7
S31508012B104468013C4460C1E900551B68F0E770BD93
S31508012B2038B5D0F8245800F1240445B104EB05154D
S31508012B30A54204D02046FFF7D2FF1034F8E738BD86
S31508012B4010B50446FFF7ECFF04F10C00BDE8104090
S31508012B50FFF788BAF8B504460C30FFF79FFA94F8E0
S31508012B602C382BB10023204684F82C38FFF7D8FFE0
S31508012B700023C4F84038C4F84438C4F84838C4F8BF
S31508012B804C38C4F85838C4F85C38C4F86038C4F806
S31508012B906438D4F8243804F5046504F6580004F1B9
S31508012BA024060BB306EB031604F12C02A2F1080363
S31508012BB09E4219D01368934214D01F7D197B37B1F1
S31508012BC004EB810CDCF840780137CCF84078DF69F2
S31508012BD037B104EB8101D1F858780137C1F8587833
S31508012BE01B68E8E71032E1E7002304F505618D4229
S31508012BF003D055F8042B1344F9E7C4F834380023F5
S31508012C0004F66801884203D050F8042B1344F9E707
S31508012C10C4F83C38F8BD10B504460C30FFF74CFA39
S31508012C202046BDE81040FFF77BBF2DE9F347D1F8F1
S31508012C30244806468846174601F12409E4B109EBFA
S31508012C4004144D46A4EB09042411002C16DD4FEAA1
S31508012C50640A514601A80195FFF7AEFE019B394664
S31508012C601868FFF7D0FC28B1019DA4EB0A0A1035B4
S31508012C700AF1FF3A5446E8E74C46E2E7D8F8243821
S31508012C800BB109EB03194D4506D029683846FFF7FC
S31508012C90BAFC002818BF4D463046356002B0BDE87B
S31508012CA0F08713B504460A4601466846FFF7BDFF95
S31508012CB001A82146FFF7B7FEDDE90003C01A18BFD0
S31508012CC0012002B010BD13B504460A4601466846FE
S31508012CD0FFF7ABFF01A82146FFF7A5FEDDE90003D3
S31508012CE0834203D0FFF7B4FE02B010BD0020FBE714
S31508012CF013B504460A4601466846FFF796FF01A83A
S31508012D002146FFF790FEDDE90003834201D0FFF774
S31508012D10E6FE02B010BD37B505468A680C4601467F
S31508012D206846FFF782FF01A82946FFF77CFEDDE921
S31508012D300003834202D02146FFF7DDFE03B030BD12
S31508012D40F8B50446FFF786F9244B00251C6023468F
S31508012D501027234A002143F80C2B184618221FF086
S31508012D6013FEFFF7F7F91F4B3A46E3601E4B294658
S31508012D70C4F828381D4BC4F82458C4F83038C4F8A8
S31508012D80383804F5046384F82C58C4F83458C4F860
S31508012D903C5818461FF0F8FD154E04F65803C4F8BA
S31508012DA05408C4F850683A46294618461FF0ECFDFF
S31508012DB0104BC4F86C08C4F870380F4BC4F868682F
S31508012DC0C4F878380D4BC4F87448C4F87C48C4F87C
S31508012DD08038C4F884482046F8BD00BF1041002059
S31508012DE04C360308CC35030800330308EC350308D1
S31508012DF0FC35030810360308243603083836030859
S31508012E008142F0B524D002680B680AB9C0E900000E
S31508012E100BB9C1E90011D1E90064D0E900C57768A9
S31508012E20DCF804E0CCF80470C6F804E027682E68DC
S31508012E302F60266004680D6805600C604D6844685B
S31508012E4045604C600AB9C1E900220BB9C0E90033F3
S31508012E50F0BD2DE9F84380460E46174610464FF059
S31508012E60000908F10805A5F108039E4200F11004BE
S31508012E7016D055F8083C083044F8103C40F8049C34
S31508012E80294644E90200FFF7BBFF55F8042C54F81C
S31508012E900C3C103544F80C2C204645F8143CE2E766
S31508012EA0A6EB08003844BDE8F8832DE9F84F00235E
S31508012EB003600371D1F8003880460E461746BBB148
S31508012EC001EB03193446A9EB06052D11A5B14FEA05
S31508012ED0550A4FEA0A133968E05804EB030BFFF762
S31508012EE092FB38B1013DA5EB0A050BF11004EDE79C
S31508012EF08946E7E75546E9E7A14508D10123D6F80A
S31508012F00002888F80430802A0ED11FF0EFFC2168CA
S31508012F103868FFF778FB0028F0D188F80450C8F81C
S31508012F2000404046BDE8F88F06EB0212944207F1CD
S31508012F30080914D13B6804F1080023600023C4E999
S31508012F40020063604946FFF75BFF63687A6862605F
S31508012F507B60D6F800380133C6F80038DFE7A2F1FE
S31508012F60100511462846FFF774FFD6F800380133D5
S31508012F70C6F80038AC420DD055F8103D2B6105F165
S31508012F80080105F11800FFF73BFF6B696A686B607A
S31508012F906A61EFE720463B68494640F8083BFFF778
S31508012FA02FFF63687A6862607B60B8E730B50546CB
S31508012FB089B08A680C46014601A8FFF736FE2946FC
S31508012FC004A8FFF730FD019B049A9A420BD0DA68F0
S31508012FD003F1080162602160DC6014605A680132FD
S31508012FE05A6009B030BD214604A8FFF725FD04AA99
S31508012FF002A805F12401FFF758FF0022069B06A83F
S315080130008342EED01968C3E900220B46F8E710B5EA
S3150801301004460069002103685B68984760690021D6
S31508013020BDE8104003685B681847000038B5164BC1
S3150801303004461A680069D2F8345803685B6885B192
S31508013040E268A1695268B1FBF2F101F00101984702
S315080130500021606903685B689847A3690133A36126
S3150801306038BDD2F83C1819B1E268A1699268EAE755
S315080130709847E368A1691B686069B1FBF3F10368C6
S3150801308001F001015B68E7E71041002010B504462D
S31508013090024B0360FEF7D5FF204610BD6C360308C8
S315080130A010B50446FFF7F2FF20461C21FFF774FA14
S315080130B0204610BDF8B504461D460F461646FEF7CE
S315080130C0C9FF044BC4E90376236000236561A36144
S315080130D02046F8BD6C36030810B50446024B03605A
S315080130E0FFF796FB204610BD8C36030810B504463B
S315080130F0FFF7F2FF20464821FFF74EFA204610BD9A
S3150801310010B50446024B0360FFF782FB204610BD4B
S31508013110AC36030810B50446FFF7F2FF20464821EE
S31508013120FFF73AFA204610BD10B50446006C03684D
S315080131301B689847B4F944108142A8BF002104F1DD
S315080131400C00B8BF0121BDE81040FFF76FBB10B5F1
S315080131500446006C03681B689847B4F94410814219
S31508013160D8BF002104F10C00C8BF0121BDE81040F9
S31508013170FFF75CBB2DE9F04105460C4B48201E685C
S31508013180884635F9047BFFF7F9F904462946FFF71E
S315080131902FFB074BC4F840802360A4F844702146EE
S315080131A006F10C00BDE8F041FEF7E4BF104100202E
S315080131B08C3603082DE9F041054648201746B3F930
S315080131C000608846FFF7DAF904464146FFF710FB27
S315080131D0054B2846214623602764A4F84460FEF778
S315080131E0C9FF2046BDE8F081AC36030813B5074B85
S315080131F00A461C6830F9043BADF80430014601ABB8
S3150801320004F10C00FFF7D6FF02B010BD10410020F3
S3150801321013B5074B0A461C6830F9043BADF8043070
S31508013220014601AB04F10C00FFF7C4FF02B010BD63
S3150801323010410020B0F904007047002070470229A8
S3150801324098BF436882B097BF33F811300023ADF8B1
S315080132500430012300208DF80630BDF8043063F3ED
S315080132600F00BDF8063063F31F4002B07047002017
S315080132707047032070471FB5002301248DF80830D5
S31508013280009402AB0DF008FD80B19DF808308DF869
S315080132900D408DF80C3000209DF80C3063F30700C3
S315080132A09DF80D3063F30F2004B010BD8DF80D00A5
S315080132B0F1E72DE9F34116468DF800208DF8013026
S315080132C06A461D460223074688460DF01BFC324610
S315080132D0044641463846FFF7CEFFADF804003CB137
S315080132E09DF8054024B19DF80440631B5C425C418E
S315080132F0204602B0BDE8F0811FB50023ADF80830BD
S31508013300022342F08002009302AB0DF0C5FCB0B176
S315080133109DF809209DF8083043EA0223ADF80C30E0
S3150801332001238DF80E300020BDF80C3063F30F0031
S31508013330BDF80E3063F31F4005B05DF804FB8DF848
S315080133400E00F0E72DE9FF41044603270125002673
S3150801335094F81180B8F1000F60D02722217CE0682B
S31508013360FFF789FF637CADF80000002BC0F3072047
S3150801337014BF034600236374F8B19DF800301A0799
S315080133801BD52822217CE068FFF7B6FF2A22019087
S31508013390217CE068FFF7B0FF2C220290217CE068CF
S315080133A0FFF7AAFF637C03903BB19DF806301BB17A
S315080133B09DF80A30002B77D166740722217CE068D4
S315080133C0FFF759FF637CADF80800002BC0F307200F
S315080133D014BF034600236374E0B19DF808305B0708
S315080133E018D50C22217CE068FFF786FF637C0390E1
S315080133F0002BC0F3074014BF03460023637408B1CA
S31508013400BDF80C000A2300B2584348BFFF3000122A
S31508013410FA30A084637C002B40D042E065740F2209
S31508013420217CE068FFF727FF10F47F4FADF80C0009
S315080134302BD09DF80C30332B27D16574C0231F225E
S31508013440217CE068FFF735FFF8B165746723202210
S31508013450217CE068FFF72DFFB8B165744346212248
S31508013460217CE068FFF725FF78B16574434622227F
S31508013470217CE068FFF71DFF38B165748823232294
S31508013480217CE068FFF715FF804684F81180668283
S31508013490A682E682B8F1000F7FF45FAF013F7FF4A1
S315080134A057AF04B0BDE8F0819DF80E30002B83D0EC
S315080134B043F64A534FF47A31BDF904205A4392FB35
S315080134C0F1F26282BDF908205A4392FBF1F2A28217
S315080134D0BDF90C20534393FBF1F3E3826DE700003A
S315080134E010B50446024B0360FEF7ABFD204610BD3E
S315080134F0F036030810B50446FFF7F2FF20462821E7
S31508013500FFF74AF8204610BD70B5154604460E4623
S31508013510FEF7A0FD0A4B002D236014BF322330238A
S3150801352023740023074AE660A26104F11202E261EC
S31508013530054A6374638263612262A384204670BD6F
S31508013540F0360308CC360308E036030840687047AE
S315080135500020704700797047002070474368988AB1
S315080135607047B0F9040070478180012070474068B0
S31508013570704741600120704790F84000012802D049
S31508013580031F58425841704790F8083123B9034B35
S315080135901B6893F8780E7047002070471441002085
S315080135A04068FFF7F1BF0000044BC0681B685B6801
S315080135B003EB5003B3FBF0F0704700BF1441002042
S315080135C04068FFF7F1BF000011B9C16001207047DB
S315080135D0064B1B685B68B1EB430F05D803EB510338
S315080135E0B3FBF1F3C360F1E70020704714410020F3
S315080135F04068FFF7E9BF0000044B00691B685B6878
S3150801360003EB5003B3FBF0F0704700BF14410020F1
S315080136104068FFF7F1BF000021B90161C0F8B01099
S3150801362001207047094B1B685B68B1EB430F0BD848
S3150801363003EB5103B3FBF1F1838A016159434FF45B
S315080136407A73B1FBF3F1E9E70020704714410020D2
S315080136504068FFF7E1BF90F84030032B0BD1B1F575
S315080136607A7F08D8B0F8B6308B4228BF0B46A0F847
S31508013670B83001207047002070474068FFF7EBBF5C
S31508013680B1F57A7F28BF4FF47A71036981824B437A
S315080136904FF47A71B3FBF1F3C0F8B03001207047EB
S315080136A04068FFF7EDBF00000B4B196801F12C03C9
S315080136B0C31A9A10094B534323F003030B441A699F
S315080136C04FF4FA635343A3F5EA43303B5200B3FB85
S315080136D0F2F3A0F8B63070471441002077A927E322
S315080136E0124B70B51D6842F20F740A2342F210712B
S315080136F02A68642603FB0242B2FBF1F2C0F8E02015
S315080137002A6806FB0242B2FBF1F2C0F8F0202A68E9
S3150801371006FB0242B2FBF1F2C0F800212B6806FB58
S315080137200343B3FBF1F3C0F8103170BD1441002017
S3150801373000680DF065B800680DF05CB8037A10B53D
S315080137400BB1C1F57A710A4B44681A6802F12C0368
S31508013750C01A084B8010584320F00300104403692F
S3150801376059434FF47A73B1FBF3F1216010BD00BFE1
S315080137701441002077A927E30B4B196801F12C03A3
S31508013780C31A9A10094B534323F003030B441A69CE
S31508013790017A43681B6801B1D31A4FF47A7058430A
S315080137A0B0FBF2F080B270471441002077A927E3F5
S315080137B04068FFF7E1BF38B500250446C0E945551D
S315080137C0C0E92F55C0E93155C0E933552946E430DA
S315080137D0FEF7B0FD294604F1F400BDE83840FEF7CE
S315080137E0A9BD0023C0E92F33C0E93133C0E933331A
S315080137F07047000082B0F0B5D0E930548D42069387
S3150801380065DD491B90F84060022E65D0A6F1050CCE
S31508013810DCF1000646EB0C060029D4BF0027012778
S31508013820B6EBD17F0CBF01FB01F30023B7426FF45E
S315080138301C7633440CBF49430021002BD0F8CC60D9
S315080138404CDA334423EAE373C0F8CC306FF41C73C3
S3150801385019440029D0F8D03048DA194421EAE1712F
S31508013860264B079E1B6896421F6AA8BF1646069BEB
S31508013870C0F8D0109A42B8BF1A4643F6FF73711BB7
S315080138800029B8BF494207FB01310029B8BFC91849
S3150801389005EBA13543F6FF71131BB542D4BFC0F83A
S315080138A0C050C0F8C060002BB8BF5B4207FB0313CA
S315080138B0002BB8BF5B18A4EBA3339342ACBFC0F887
S315080138C0C430C0F8C420BDE8F04002B07047A14238
S315080138D0CCBF091B002195E701269DE76FF000473C
S315080138E0BF1B9F42D4BFF319F318ADE76FF000462B
S315080138F0F61A8E42D4BF99195918B1E71441002016
S31508013900D0E933301844054B1B68DA6940F2712354
S3150801391053439842D4BF0020012070471441002028
S31508013920D0F81831026901339342C0F8183122BF21
S315080139300023C0F818310123D0F8182128BF80F8D0
S31508013940B430D0F8B0309A4224BF002380F8B4309E
S315080139507047D0F81421F8B5C5680132AA4228BFC4
S315080139600023C0F8142128BFC0F8143104460F46B5
S31508013970FFF702FEB4F9746048B3724294F8B430A2
S315080139800BB9216971BB05B3002EA36DB8BF764289
S315080139907343B3FBF7F14FF47A736943B1FBF3F160
S315080139A06B1E9942A8BF1946B4F95030B342A8BF55
S315080139B0334600B15B42D4F81401884209DAC1EBF7
S315080139C04000434393FBF1F10A441046F8BD3246E1
S315080139D0D4E76D1A411AA5EB41014B4393FBF5F365
S315080139E01A44F2E71A46F0E72DE9F04F16464FF06A
S315080139F00A0887B004468A46FFF792FF3146FFF761
S31508013A00A8FF734B41F288371D6881466B682046CB
S31508013A10B3FBF8FBFFF7B0FD2968E369B1FBF8FCD6
S31508013A20626B03FB0BF302FB0BF293FBF7F392FBBF
S31508013A30F7FEDC45A8BFDC464FF47A750393734657
S31508013A40A26DA16A02FB09F201FB0CFC92FBF5F2DD
S31508013A50D4F8C8509CFBF7FC071E14BFB0464FF0BC
S31508013A6000085D43039BA9EB0A0003FB00F348BF6B
S31508013A70FF3503EB252540F6B833D4F8BCE003FB44
S31508013A800BF30CFB00EC58428445AAEB09014244AE
S31508013A90C4F8C85003DB6345A8BF6346184690FBC4
S31508013AA0FBF32A444FF47A7513445D4395FBF6F309
S31508013AB0B3F57A7FC4F8BC0004DD002906DAC4F838
S31508013AC0BCE003E0002B01DA0029F8DCB4F8B650B3
S31508013AD020469D42A8BF1D4625EAE575A9B2FFF70E
S31508013AE02DFE94F8B5102046FFF725FE94F8B5305B
S31508013AF02BB9012384F8B53007B0BDE8F08F94F8E7
S31508013B004020A16D022AB4F8B6304FEA410043D0ED
S31508013B10052A41D02F4AA3F57A73724392FBF0F234
S31508013B2004924FF47A72734393FBF2F35A434908AA
S31508013B3092FBF1F20592059B204600934A46049BA7
S31508013B405146FFF757FE4FF47A73A16D754301FB92
S31508013B5009F195FBF3F591FBF3F94FF4FA6304F1D7
S31508013B60E400A5EB0805F43491FBF3F1FFB101F587
S31508013B70FA718D42D4BF00210121A9F1FA09FEF794
S31508013B80DDFBB5EB490FB4BF01210021204607B083
S31508013B90BDE8F04FFEF7D2BB002204924FF47A72C9
S31508013BA0734393FBF2F35A4392FBF0F2C2E7A1F592
S31508013BB0FA718D42ACBF0021012109F1FA09FEF71C
S31508013BC0BDFBB5EB490FCCBF01210021DEE700BFE4
S31508013BD01441002018FCFFFF2DE9F04104460E466A
S31508013BE01746FFF79DFEB0F9745035B190F8B450F9
S31508013BF01DB90569B5FA85F56D092046FFF7BCFCBF
S31508013C00854214BFB4F8B610002180462046FFF756
S31508013C1095FD94F8B5102046FFF78DFD2046FFF770
S31508013C20E0FD94F8B53023B9012384F8B530BDE831
S31508013C30F081454514BF3D460025B8F1000F08BF80
S31508013C4000274FF47A71A5EB070501FB05F5A16D70
S31508013C5004F1E40095FBF1F505EBD5774FEA670723
S31508013C604FEA450504F1F40411D0323DB542D4BFFB
S31508013C7000210121FEF762FB07F13201B142ACBF17
S31508013C80002101212046BDE8F041FEF757BB323538
S31508013C90B542ACBF00210121FEF750FBA7F1320165
S31508013CA0B142D4BF00210121ECE70000144B70B5E5
S31508013CB01B6804465E68FFF75FFD05462046FFF769
S31508013CC037FDB4F8B820C8B10E4BB3FBF6F3E91AC1
S31508013CD08A4203DB59199142A8BF114689B2204687
S31508013CE0FFF72CFD94F8B5102046FFF724FD204672
S31508013CF0FFF761FD012384F8B53070BD1146EDE784
S31508013D001441002040420F00F8B540F6C415A1F54C
S31508013D1000614D4348BF05F2FF7504461646ED128C
S31508013D20FFF72AFC00283CD06B421BB2A4F88C3062
S31508013D3041F2941305F6CA01994204F1D40794BFD6
S31508013D40002101213846FEF7F9FA1EB90121384644
S31508013D50FEF7F0FA94F86C302BBB00212046FFF7EA
S31508013D60EAFC002384F8B53094F84030032B00F0C0
S31508013D7088804FF4FA712046FFF7E0FC2046FFF7EA
S31508013D801AFD002DB8BF6D42182D79DC94F8D8308C
S31508013D90002B75D104F582700121BDE8F840FEF7C4
S31508013DA0CDBA2BB2C2E794F80861002ED5D094F8A3
S31508013DB040305A1E012A0BD91A1F012A47D8324BFD
S31508013DC029461B682046B3F9582EFFF705FF07E079
S31508013DD02D4B29461B682046B3F9582EFFF704FEDA
S31508013DE02046FFF78DFD50B1D4E933320A2192FB03
S31508013DF0F1F0834236DA0623002684F89C3094F8DB
S31508013E00D8301BB10323002684F89C3094F8E83097
S31508013E101BB10123002684F89C3094F8F83043B38B
S31508013E20022384F89C30002104F58270FEF782FA99
S31508013E3094F84030032B0CBFB4F8B830B4F9743099
S31508013E40C4F8A430B4F88C30A4F8AC3013E0032BD2
S31508013E5003D12046FFF72AFFC2E70723002684F885
S31508013E609C30BDE793FBF1F39342CCBF05230423B2
S31508013E70C2E7002ED7D094F80831002B3FF46DAF76
S31508013E80F8BDB4F8B81076E71441002038B50372C6
S31508013E904FF47A73C0E9001218228382364BC26145
S31508013EA0836143620363402340F6B83200254363C6
S31508013EB0324B8262C363324B324AC0E91130324B0C
S31508013EC0C0E91525C3640367304B314AC0E91E3082
S31508013ED0304BC0E91820C0E920302F4A2F4B80F813
S31508013EE04050A0F85050826680F86C50A0F8745083
S31508013EF0C0F88830C0E90355A0F88C50C0F8A8303E
S31508013F00274B0446C0F8B4304FF4FA73254AA0F893
S31508013F10B830C0E92420244A80F89C50C0F898207B
S31508013F20224AA0F8AC50C0E92825C0F8B050C0E92B
S31508013F302F55C0E93155C0E933552946D430FEF726
S31508013F400FFA294604F1E400FEF70AFA294604F1B4
S31508013F50F400FEF705FA294604F58270FEF700FA21
S31508013F602068C4E945550CF083FB206829460CF006
S31508013F7041FC204638BD00BF10370308F03203085C
S31508013F80203703086C350308303703085037030810
S31508013F90403703086037030800330308E03603088F
S31508013FA00000DE03703703088037030890370308DB
S31508013FB013B5D0E90143104A1B1B9B105343994281
S31508013FC018D24FF48E7000FB0140D0F8A830A83003
S31508013FD01B6898470123ADF8040000208DF80630C8
S31508013FE0BDF8043063F30F00BDF8063063F31F40D4
S31508013FF002B010BD0023F0E777A927E3836840687C
S315080140001B1A02489B105843704700BF77A927E33C
S3150801401010B50446D1E901030A491B1A9B104B4303
S315080140209A420DD24FF48E7303FB0200D0F8A030EA
S31508014030A0301B689847012320602371204610BDD4
S315080140400023FAE777A927E30020704783684068C9
S315080140501B1A02489B105843704700BF77A927E3EC
S3150801406013B5D0E90143104A1B1B9B1053439942D0
S3150801407018D24FF48E7000FB0140D0F89830983072
S315080140801B68984701238DF8040000208DF8053038
S315080140909DF8043063F307009DF8053063F30F209C
S315080140A002B010BD0023F0E777A927E383684068CB
S315080140B01B1A02489B105843704700BF77A927E38C
S315080140C013B5D0E90143104A1B1B9B105343994270
S315080140D018D24FF48E7000FB0140D0F89030903022
S315080140E01B68984701238DF8040000208DF80530D8
S315080140F09DF8043063F307009DF8053063F30F203C
S3150801410002B010BD0023F0E777A927E3836840686A
S315080141101B1A02489B105843704700BF77A927E32B
S3150801412013B5D0E90143104A1B1B9B10534399420F
S3150801413018D24FF48E7000FB0140D0F888308830D1
S315080141401B6898470123ADF8040000208DF8063056
S31508014150BDF8043063F30F00BDF8063063F31F4062
S3150801416002B010BD0023F0E777A927E3836840680A
S315080141701B1A02489B105843704700BF77A927E3CB
S3150801418013B5D0E90143104A1B1B9B1053439942AF
S3150801419018D24FF48E7000FB0140D0F88030803081
S315080141A01B6898470123ADF8040000208DF80630F6
S315080141B0BDF8043063F30F00BDF8063063F31F4002
S315080141C002B010BD0023F0E777A927E370B4D0E960
S315080141D001640A4DA41BA4106C43A1420AD24FF4F0
S315080141E08E7000FB016070BCD0F8803011465B68A8
S315080141F080301847002070BC704700BF77A927E3B5
S31508014200836840681B1A02489B105843704700BFD1
S3150801421077A927E313B5D0E90143104A1B1B9B1065
S315080142205343994217D24FF48E7000FB0140836FB6
S3150801423078301B6898470123ADF8040000208DF8F3
S315080142400630BDF8043063F30F00BDF8063063F39A
S315080142501F4002B010BD0023F0E700BF77A927E38E
S3150801426070B4D0E90164094DA41BA4106C43A142A2
S3150801427009D24FF48E7000FB016070BC836F114642
S315080142805B6878301847002070BC704777A927E328
S31508014290836840681B1A02489B105843704700BF41
S315080142A077A927E313B5D0E90143104A1B1B9B10D5
S315080142B05343994217D24FF48E7000FB0140036FA6
S315080142C070301B6898470123ADF8040000208DF86B
S315080142D00630BDF8043063F30F00BDF8063063F30A
S315080142E01F4002B010BD0023F0E700BF77A927E3FE
S315080142F070B4D0E90164094DA41BA4106C43A14212
S3150801430009D24FF48E7000FB016070BC036F114631
S315080143105B6870301847002070BC704777A927E39F
S31508014320836840681B1A02489B105843704700BFB0
S3150801433077A927E313B5D0E90143104A1B1B9B1044
S315080143405343994217D24FF48E7000FB0140836E96
S3150801435068301B68984701238DF8040000208DF802
S3150801436005309DF8043063F307009DF8053063F3C3
S315080143700F2002B010BD0023F0E700BF77A927E39D
S3150801438070B4D0E90164094DA41BA4106C43A14281
S3150801439009D24FF48E7000FB016070BC836E114622
S315080143A05B6868301847002070BC704777A927E317
S315080143B0836840681B1A02489B105843704700BF20
S315080143C077A927E310B50446D1E901030A491B1A5F
S315080143D09B104B439A420CD24FF48E7303FB020097
S315080143E0036E60301B6898470123206023712046BD
S315080143F010BD0023FAE700BF77A927E370B4D0E917
S315080144000164094DA41BA4106C43A14209D24FF4BF
S315080144108E7000FB016070BC036E11465B686030EC
S315080144201847002070BC704777A927E3836840685E
S315080144301B1A02489B105843704700BF77A927E308
S3150801444010B50446D1E901030A491B1A9B104B43CF
S315080144509A420CD24FF48E7303FB0200436D54301B
S315080144601B689847012320602371204610BD00234D
S31508014470FAE700BF77A927E370B4D0E90164094DCB
S31508014480A41BA4106C43A14209D24FF48E7000FB01
S31508014490016070BC436D11465B68543018470020B3
S315080144A070BC704777A927E3836840681B1A0248DE
S315080144B09B105843704700BF77A927E313B5D0E986
S315080144C00143104A1B1B9B105343994217D24FF4C1
S315080144D08E7000FB0140C36C4C301B689847012362
S315080144E0ADF8040000208DF80630BDF8043063F3FA
S315080144F00F00BDF8063063F31F4002B010BD00235C
S31508014500F0E700BF77A927E370B4D0E90164094D44
S31508014510A41BA4106C43A14209D24FF48E7000FB70
S31508014520016070BCC36C11465B684C3018470020AB
S3150801453070BC704777A927E3836840681B1A02484D
S315080145409B105843704700BF77A927E310B5044667
S31508014550D1E901030A491B1A9B104B439A420CD213
S315080145604FF48E7303FB0200436C44301B68984773
S31508014570012320602371204610BD0023FAE700BFFE
S3150801458077A927E370B4D0E90164094DA41BA410E7
S315080145906C43A14209D24FF48E7000FB016070BCD6
S315080145A0436C11465B6844301847002070BC70475D
S315080145B077A927E3836840681B1A02489B1058436A
S315080145C0704700BF77A927E313B5D0E90143104A1D
S315080145D01B1B9B105343994217D24FF48E7000FB55
S315080145E00140C36B3C301B68984701238DF80400D2
S315080145F000208DF805309DF8043063F307009DF817
S31508014600053063F30F2002B010BD0023F0E700BFA9
S3150801461077A927E370B4D0E90164094DA41BA41056
S315080146206C43A14209D24FF48E7000FB016070BC45
S31508014630C36B11465B683C301847002070BC704755
S3150801464077A927E3836840681B1A02489B105843D9
S31508014650704700BF77A927E370B50446534B01F1AC
S315080146602C0601F67C55C0E900368560024650499C
S315080146700C3000F088FC4F4B04F11C02C4E90736E4
S3150801468065624D4904F1280000F070FC4B4B04F1BA
S315080146903802C4E90E362564494904F1440000F09C
S315080146A03EFC484B04F15402C4E91536E565464912
S315080146B004F1600000F05AFC444B04F17002C4E9AD
S315080146C01C36A567424904F17C0000F04FFC414BBA
S315080146D004F18C02C4E92336C4F894503E4904F126
S315080146E0980000F00FFC3D4B04F1A802C4E92A36F4
S315080146F0C4F8B0503A4904F1B40000F010FC394B43
S3150801470004F1C402C4E93136C4F8CC50364904F17F
S31508014710D00000F01EFC354B04F1E002C4E938363E
S31508014720C4F8E850324904F1EC0000F012FC314BB0
S3150801473004F1FC02C4E93F36C4F804512E4904F5D4
S31508014740847000F0ECFB2D4B04F58C72C4E94636F7
S31508014750C4F820512A4904F5927000F0D3FB294B7D
S3150801476004F59A72C4E94D36C4F83C51264904F554
S31508014770A07000F008FC254B04F5A872C4E954366C
S31508014780C4F85851224904F5AE7000F0D5FB214B07
S31508014790C4F87451C4E95B3604F5B6721E4904F5CA
S315080147A0BC7000F0BCFB204670BD00BFA0370308F3
S315080147B05C7A0308B43703086C7D0308C837030815
S315080147C0647D0308DC370308147E0308F037030801
S315080147D07C7D0308043803081C7B03081838030882
S315080147E0347D03082C380308747D03084038030810
S315080147F04C7C0308543803086C7B030868380308A3
S31508014800747B03087C3803080C7D03089038030879
S31508014810E47D0308A4380308EC7D030810B50446B3
S3150801482000F5BC7000F0D8FB04F5AE7000F0D4FBBF
S3150801483004F5A07000F0D0FB04F5927000F0CCFBF3
S3150801484004F5847000F0C8FB04F1EC0000F0C4FB29
S3150801485004F1D00000F0C0FB04F1B40000F0BCFB89
S3150801486004F1980000F0B8FB04F17C0000F0B4FBF9
S3150801487004F1600000F0B0FB04F1440000F0ACFB69
S3150801488004F1280000F0A8FB04F10C0000F0A4FBD9
S31508014890204610BD10B504460846636811462278BD
S315080148A0FDF7D5FA237A2BB123785A1E01239340B3
S315080148B05840C01A10BD82896AB14369994203DB1F
S315080148C083698B42A8BF0B46B0F90A104B4393FB89
S315080148D0F2F3016919440846704730B5D0E9072350
S315080148E0044602EBC3039A42104606D0083252F830
S315080148F0045C8D42F7D1006830BDB4F90A306BB15A
S315080149002069091AA089484390FBF3F36069834239
S31508014910F2DBA0699842A8BF1846EDE71846EBE70F
S3150801492073B50D46194604461646FFF7D6FF636862
S315080149300090227828463146FDF7B9FA012002B0DF
S3150801494070BD43698B4205DC80698842B4BF00208B
S31508014950012070470020704770B50D460446114680
S3150801496028461A46FFF796FFD5E90731024603EBB3
S31508014970C1018B42184609D053F8086B9642F8D103
S315080149804368236001232371204670BD11462846DA
S31508014990FFF7D7FF20B12846FFF78DFF2060F1E723
S315080149A02071F1E74161704710B5044601211830BD
S315080149B0FDF73CFF94F82C3013B123691B69636139
S315080149C010BD000013B504460B4B0C4A0360C368BF
S315080149D0CDE900206946D8680BF009FA04F14C00C4
S315080149E0FDF740FE04F11800FDF73CFE2046FDF7F1
S315080149F028FB204602B010BDB8380308634A0108EF
S31508014A0010B50446FFF7DEFF20467021FDF7C4FD09
S31508014A10204610BD37B5044600690A46037D00F1F4
S31508014A2018016846FFF798FF9DF8043004F14C0514
S31508014A3083B1236800999B69204698472846002137
S31508014A40FDF7E8FD002104F1180003B0BDE8304088
S31508014A50FDF7ECBE0121284603B0BDE83040FDF75D
S31508014A60D9BD4068FFF7D6BF7FB5044615460E4641
S31508014A70FDF7F0FA184BC4E9036523602B69AA7B95
S31508014A8063616B7BA96804F11800FDF7E6FEAA7B52
S31508014A90696804F14C00FDF7CBFDD5E90F310F4AE2
S31508014AA023F00043CDE90224019AE06802F00042AE
S31508014AB01A43009B019203F0004321F0004213437D
S31508014AC0009301AA6B4602A90AF0E2FA2046236975
S31508014AD01B7B636404B070BDB8380308634A0108D8
S31508014AE0F8B506460F46002456F8045FB54209D0C4
S31508014AF055F8043C281F1B68394698470443E4B215
S31508014B002D68F3E72046F8BDF8B5044605460027A3
S31508014B1054F8043F9C420AD018461E6840F80479A6
S31508014B2018B153F8043C9B6898473346F2E7284680
S31508014B30F8BD021D426000220260704710B50446A6
S31508014B40024B036000F054F8204610BDDC38030818
S31508014B5010B50446FFF7F2FF20461421FDF71CFDA8
S31508014B60204610BD37B504460D4600220169684640
S31508014B7000F0E2FE9DF8040040B12946009BA268B8
S31508014B80E06803B0BDE83040FFF7CABE03B030BDE8
S31508014B902DE9F0410F4619880E4B064618689046CE
S31508014BA001F0CFFA054690B11420FDF7E7FC04465B
S31508014BB04246394600F012F80120074B2561236069
S31508014BC0736844F8043F3368746001333360BDE8A1
S31508014BD0F08100BFF4400020DC38030810B5034C0F
S31508014BE0C26004600024C0E9014110BDF038030821
S31508014BF0704703689B6818470021037F81774377CD
S31508014C0080F82410406903685B681847704710B537
S31508014C1004461021FDF7C0FC204610BD10B5044618
S31508014C20024B0360FDF70DFA204610BD143903083F
S31508014C3010B50446FFF7F2FF20462821FDF7ACFC24
S31508014C40204610BD10B50446C06803681B6898471E
S31508014C50B4F910301B1A58425841A37F98420AD01A
S31508014C600023A0776377606994F824100368BDE888
S31508014C7010405B681847637F227F9A4286BF0133DB
S31508014C80637784F82400EEE7F8B5044616461D4610
S31508014C900F46FDF7DFF9094B094A2360094BE7601F
S31508014CA0A36141F21443A383002326826561A37796
S31508014CB0226284F824302046F8BD00BF143903085F
S31508014CC05C3503080439030810B50446024B036032
S31508014CD0FDF7B7F9204610BD3439030810B5044667
S31508014CE0FFF7F2FF20463021FDF756FC204610BD9E
S31508014CF070B50446C06803681B689847014604F105
S31508014D001400FDF71BFB217E04F12400FDF7F6FADA
S31508014D1094F8283063B124692368204628CB98473C
S31508014D2080F001012B462046BDE87040C9B21847FC
S31508014D3070BD10B5044600211430FDF7FFFA04F1E1
S31508014D4024000021BDE81040FDF7D8BAFFF7F1BFEE
S31508014D50F8B5044616460F461D46FDF77BF90A4B7C
S31508014D6029462360C4E9037604F11400FDF7F8FA2D
S31508014D70002304F12400636284F8283084F82C3077
S31508014D80FDF7B4FA2046F8BD343903088088704720
S31508014D90C3888B4205D803898B4202D381800120BF
S31508014DA0704700207047000010B50446044B40F8D0
S31508014DB0243B00F011F92046FDF743F9204610BDC2
S31508014DC06439030810B50446FFF7EEFF204634217F
S31508014DD0FDF7E2FB204610BD838B10B504462BB9BF
S31508014DE0C06803681B689847400010BD00690368DE
S31508014DF01B689847A38B58434FF49673B0FBF3F09F
S31508014E00F3E770B5446923685D68FFF7E5FF2B464C
S31508014E1001462046BDE8704018470000F8B504462B
S31508014E200D4617461E46FDF715F90B4BA988236053
S31508014E30069B2A88636109486B88C4E90376A061E1
S31508014E40A183E283238404F11802A96804F12400EA
S31508014E5000F031F82046F8BD6439030854390308CF
S31508014E60034B1868D0F8103800F501601B6818471D
S31508014E70F4400020024B0146186801F066BB00BFEA
S31508014E80F4400020002310B5044683810160826046
S31508014E904360C381FFF7EEFF204610BD052310B519
S31508014EA0436000230446838101608260C381FFF762
S31508014EB0E1FF204610BD022310B5436000230446D6
S31508014EC0838101608260C381FFF7D4FF204610BD4C
S31508014ED0032310B543600023044683810160826081
S31508014EE0C381FFF7C7FF204610BD012310B54360F4
S31508014EF000230446838101608260C381FFF7BAFFFC
S31508014F00204610BD072310B543600023044683815C
S31508014F1001608260C381FFF7ADFF204610BD0C23F7
S31508014F2010B5436000230446838101608260C38112
S31508014F30FFF7A0FF204610BD0D2310B543600023DF
S31508014F400446838101608260C381FFF793FF20468F
S31508014F5010BD092310B5436000230446838101600F
S31508014F608260C381FFF786FF204610BD0A2310B56C
S31508014F70436000230446838101608260C381FFF791
S31508014F8079FF204610BD082310B543600023044667
S31508014F90838101608260C381FFF76CFF204610BDE3
S31508014FA010B50468FFF75CFF2044807810BD10B582
S31508014FB00468FFF755FF2044007910BD03689B7903
S31508014FC00BB1FFF7F4BF184670470368D8439842F8
S31508014FD0B8BF18467047000010B50446064B01468F
S31508014FE0186801F09FF9201DFFF7EFFF0D2801D979
S31508014FF01DF07CFC204610BDF440002010B5044687
S315080150000430FFF7E2FF0D280ED8DFE800F00F0F96
S315080150100F0F0F0F0F07070707070707A068BDE858
S31508015020104003689B6818471DF060FC012010BDFD
S315080150302DE9F04F002487B010469C46A246A146AA
S31508015040A046274626462546CDE90044CDE9024431
S31508015050A3460D2900F28081DFE811F00E00310028
S315080150604900610077008F00A700BF00DA00F6004B
S3150801507011012D0149016401056800942868DCF8CD
S315080150800040FFF78DFF009A38B16B68ABB923680A
S3150801509020461B689847024601208DF810208DF896
S315080150A0110000209DF8103063F307009DF81130B8
S315080150B063F30F2007B0BDE8F08F0020EDE7056820
S315080150C000942868DCF80040FFF76AFF009B48B1A6
S315080150D06A6852B9236820461B689847031C18BF9B
S315080150E0012301208DF81030D9E70020FAE7056879
S315080150F0DCF800402868FFF753FF58B16B6863B9BD
S31508015100236820461B68984710F1000B18BF4FF01B
S31508015110010B01208DF810B0C1E70020FAE70668F7
S31508015120DCF800503068FFF73BFF48B1736853B9A4
S315080151302B6828461B689847041C18BF01240120C0
S315080151408DF81040ABE70020FAE70568DCF8004067
S315080151502868FFF725FF58B16B6863B923682046AD
S315080151601B68984710F1000A18BF4FF0010A012081
S315080151708DF810A093E70020FAE70568DCF80040EF
S315080151802868FFF70DFF58B16B6863B92368204695
S315080151901B68984710F1000918BF4FF00109012053
S315080151A08DF810907BE70020FAE70568DCF80040E7
S315080151B02868FFF7F5FE58B16B6863B9236820467E
S315080151C01B68984710F1000818BF4FF00108012025
S315080151D08DF8108063E70020FAE70568DCF80040DF
S315080151E02868FFF7DDFE88B1236869681B682046D1
S315080151F0984710F47F4FADF8100007D001239DF8AA
S3150801520010708DF810708DF811304AE70023F8E711
S315080152100568DCF800402868FFF7C2FE90B12368EC
S3150801522069681B682046984710F47F4FADF810004F
S3150801523008D09DF810600123003618BF01268DF8A5
S315080152401060E0E70023FAE70668DCF800403068FA
S31508015250FFF7A6FE88B1236871681B682046984740
S3150801526010F47F0F049008D0BDF8105001230035C3
S3150801527018BF01258DF81050C5E70023FAE7056820
S31508015280DCF800402868FFF78BFE90B123686A684E
S315080152901B68214604A898479DF814304BB1049B16
S315080152A0003318BF012300930123009A8DF81020BB
S315080152B0A9E70023F9E70568DCF800402868FFF745
S315080152C06FFE90B1236869681B682046984710F4F9
S315080152D07F4FADF8100008D09DF91030003318BF84
S315080152E0012301930123019AE0E70023FBE70568FF
S315080152F0DCF800402868FFF753FE88B1236869681F
S315080153001B682046984710F47F0F049008D0BDF912
S315080153101030003318BF012302930123029AC5E70F
S315080153200023FBE70568DCF800402868FFF738FE2C
S3150801533080B123686A681B68214604A898479DF8C6
S3150801534014303BB1049B003318BF01230393012397
S31508015350039AABE70023FBE71DF0C8FA30B58DB019
S315080153600546CDE90A010AAB043009930024FFF783
S315080153702CFE4FF00003CDE902448DF804308DF878
S315080153800030014605F1080309AA6868FFF750FECF
S31508015390C3B263F30704C0F3072060F30F24204662
S315080153A00DB030BD2DE9F04F002487B010469C465C
S315080153B0A346A246A146A0462746CDE90044CDE923
S315080153C00244264625460D2900F26181DFE811F0DF
S315080153D00E002F0045005B00700085009A00AF00A3
S315080153E0CA00E500FD0015012F0147010668DCF832
S315080153F000503068FFF7D4FD38B17368ABB92B6834
S3150801540028461B68984784B20120ADF810408DF8EC
S3150801541012000020BDF8103063F30F00BDF81230FA
S3150801542063F31F4007B0BDE8F08F0020EDE705687C
S3150801543000942868DCF80040FFF7B2FD009A38B1FD
S315080154406B6843B9236820461B68984782B20120D6
S31508015450ADF81020DBE70020FAE705680094286814
S31508015460DCF80040FFF79CFD009B38B16A6842B939
S31508015470236820461B68984703460120ADF810307B
S31508015480C5E70020FAE70568DCF800402868FFF759
S3150801549087FD40B16B684BB9236820461B6898475E
S315080154A01FFA80FB0120ADF810B0B0E70020FAE73B
S315080154B00568DCF800402868FFF772FD40B16B68A3
S315080154C04BB9236820461B6898471FFA80FA0120C2
S315080154D0ADF810A09BE70020FAE70568DCF8004064
S315080154E02868FFF75DFD40B16B684BB92368204614
