S02B0000453A5C68676D5C7265706F735C63735C72656C656173655C6373335C6373335C6D61696E5C63733399
S3150801000000400020210201082502010827020108F3
S315080100103D0201083F0201085502010800000000DF
S31508010020FFFFFFFF00000000000000006B0201084F
S315080100306D020108000000006F0201087102010843
S31508010040CDD80108DDD80108EDD80108FDD8010889
S315080100500DD901081DD901082DD901083DD9010875
S315080100604DD901085DD901086DD901087DD9010865
S315080100708DD901089DD90108ADD90108BDD9010855
S31508010080CDD90108DDD90108EDD90108FDD9010845
S315080100900DDA01081DDA01082DDA01083DDA010831
S315080100A04DDA01085DDA01086DDA01087DDA010821
S315080100B08DDA01089DDA0108ADDA0108BDDA010811
S315080100C0CDDA0108DDDA0108EDDA0108FDDA010801
S315080100D00DDB01081DDB01082DDB01083DDB0108ED
S315080100E04DDB01085DDB01086DDB01087DDB0108DD
S315080100F08DDB01089DDB0108ADDB0108BDDB0108CD
S31508010100CDDB0108DDDB0108EDDB0108FDDB0108BC
S315080101100DDC01081DDC01082DDC01083DDC0108A8
S315080101204DDC01085DDC01086DDC01087DDC010898
S315080101308DDC010885020108850201089DDC01089C
S31508010140ADDC0108BDDC0108CDDC0108DDDC0108F8
S31508010150EDDC0108FDDC01080DDD01081DDD0108E6
S315080101602DDD01083DDD01084DDD01085DDD0108D4
S315080101706DDD01087DDD010885020108850201089A
S315080101808DDD010808B500F0C1F81D4D1D4AAA42CA
S315080101900BD2D2E900130C3252F8044CC91A9C420C
S315080101A0F5D9585843F8040BF9E70021164A174CB4
S315080101B0A24208D252F8083B52F8040C9842F7D9E1
S315080101C043F8041BFAE702F010F90026104C114D0A
S315080101D02D1BAD10B54204DD54F8043B9847013692
S315080101E0F8E700260C4C0D4D2D1BAD10B54204DD6C
S315080101F054F8043B98470136F8E71AF09DFCFEE7E8
S315080102006404010858040108640401086C0401081F
S315080102106C0401086C0401086C0401087C040108DB
S3150801022014480047FEE71EF0040F0CBFEFF30880E1
S31508010230EFF309807146104A1047FEE7FEE71EF004
S31508010240040F0CBFEFF30880EFF3098071460B4AE0
S315080102501047FEE71EF0040F0CBFEFF30880EFF31B
S3150801026009807146064A1047FEE7FEE7FEE7FEE704
S3150801027070470000850101083B0201085302010885
S3150801028069020108FEE7FFFF1B4B1A6822F4502298
S315080102901A601A6842F480321A601A689103FCD50A
S315080102A00121164A520102F1844211604FF41442A7
S315080102B09A60134A116821F0040111606FF07F41B9
S315080102C05160116841F0010111600E4A5A601A68BD
S315080102D042F080721A601A689201FCD540F20361F5
S315080102E0094A11609A6842F002029A609A6802F015
S315080102F00C02082AFAD17047003802407438020005
S3150801030010E000E00C3C4005003C024038B50024F2
S315080103104848036843F0010303608460036823F0D7
S31508010320847323F480330360434B4360036823F4E7
S3150801033080230360C460FFF7A7FF404B404A9A60D9
S3150801034062B6404ADA60036943F020030361036930
S3150801035023F020030361036B43F020030363BFF318
S315080103604F8F4FF0A043384A13604FF4004393610F
S315080103704FF480439361436A43F480734362436A4B
S3150801038023F480734362436C43F4807343640369C3
S3150801039043F001030361036923F001030361036B5E
S315080103A043F001030363BFF34F8F284B284D996828
S315080103B041F00101996027494C60296841F440419F
S315080103C029604FF4807159604FF4001119610721B2
S315080103D059634FF000419161996841F080419960F4
S315080103E019688907FCD5D96CB1F5946F00D3013426
S315080103F0642CF1D14FF4004393614FF0804393612C
S31508010400436A43F480734362436A23F48073436205
S31508010410436C23F480734364036943F02103036146
S31508010420036923F021030361036B23F021030363AB
S3150801043038BD00BF003802401030002400ED00E04E
S31508010440000001080003FA050014024000200140DB
S30D080104500000024000230140EF
S31508010458A0C5030800400020F0400020F040002015
S31508010468FCAF002079240108416E01086D6E010868
S3090801047855DF010834
S3150801048070B5002604461D46C0E9001206721046DC
S3150801049008F04EFF6068012109F00CF820684FF456
S315080104A0E13109F035FD3146206809F053FD294649
S315080104B0206809F07AFD2068294609F06AFD204678
S315080104C070BDF0B5154685B0039101A981E80C0008
S315080104D004460068029ED0E90532D21A036AC76942
S315080104E0511EDB1B48BF9B18771B3A1DCB1A9A4234
S315080104F003D90123237205B0F0BD9DF80C1009F04C
S3150801050086FCF9B2206809F082FC9DF80E10206875
S3150801051009F07DFC9DF80F10206809F078FCB542BA
S31508010520E9D015F8011BF7E72DE9F0410D4686B02C
S3150801053069468046286881E80C00174609F0DCFC04
S315080105400328044606D80023404688F8043006B036
S31508010550BDE8F08103AB04AE0493059696E8060060
S31508010560286809F0A5FC9DF80D300433A342EAD8A2
S315080105700424286809F06AFC013CFAD1019C9DF81B
S315080105800D30E41B9C4228BF1C4604972744059757
S3150801059096E80600286809F06BFC9DF80D30A34221
S315080105A004D9286809F052FC0134F6E703980123B7
S315080105B0C8F80000C8E7006809F098BC024A02605A
S315080105C000224260704700BFBD050108024A026069
S315080105D000224260704700BF951701080020704746
S315080105E000797047017101207047007970470171E0
S315080105F001207047072998BF436882B09BBF03EB68
S3150801060041031B8E0023ADF8043098BF0123002057
S315080106108DF80630BDF8043063F30F00BDF80630D7
S3150801062063F31F4002B070470020704708207047E7
S31508010630072998BF436882B09BBF03EB41031B8C14
S315080106400023ADF8043098BF012300208DF8063049
S31508010650BDF8043063F30F00BDF8063063F31F409D
S3150801066002B0704708207047072998BF0B4B82B024
S315080106709BBF03EB81035B880023ADF8043098BF69
S31508010680012300208DF80630BDF8043063F30F000E
S31508010690BDF8063063F31F4002B07047ACC70208C5
S315080106A008207047072998BF0A4B82B097BF33F8CD
S315080106B021300023ADF80430012300208DF80630DF
S315080106C0BDF8043063F30F00BDF8063063F31F402D
S315080106D002B07047ACC702080820704741680B484A
S315080106E0D1E90123824202D16BB9C869704708482A
S315080106F08242F9D007498A4205D1002B14BF4FF02F
S31508010700FF30082070474FF0FF307047050B01088E
S31508010710850B0108BD0501080020704737B50D4650
S3150801072004460C4B0C4900930233019302AB13E9BF
S315080107300C0005F10C000968FFF7C3FE05F154002A
S315080107400A2101F03FFE054B204623600023636022
S3150801075003B030BD29C80208E8C702081910010804
S3150801076030B591F82C300C46B3FA83F3054685B0BB
S315080107705B098DF8043081F84D3001AB02930C49C1
S315080107800DF10503039304AB13E90C0004F10C0006
S315080107900968FFF796FE04F154000A2101F012FEDA
S315080107A0044B28462B6000236B6005B030BD00BFA3
S315080107B0D8C702084D10010837B50D4604460C4B3B
S315080107C00C4900930533019302AB13E90C0005F1BB
S315080107D00C000968FFF775FE05F154000A2101F0BE
S315080107E0F1FD054B204623600023636003B030BD4D
S315080107F047C80208DCC702088110010838B5074B4B
S3150801080004460360C06D20B1056801F02BFE284639
S31508010810F9E7204601F094FB204638BDF8C70208DF
S3150801082010B50446FFF7EAFF2046DC2101F01CFE5D
S31508010830204610BD02780B789A420DD142784B7842
S315080108409A4209D382788B789A4205D1C078CB78B7
S31508010850C31A5842584170470020704770B50025A1
S3150801086004460160C0E9015529460C3001F0A4FD92
S31508010870102608233246E36129466575E582A56196
S3150801088004F120001BF070FA3246294604F13000C3
S315080108901BF06AFA094B2046C4E91034084BC4E92F
S315080108A01234084BC4E91434074BC4E91634074B10
S315080108B0C4E91834064BC4E9013570BD70C602088F
S315080108C080C6020894C60208A8C60208BCC6020861
S315080108D0550A0108437D37B50446C3B16D460C3048
S315080108E001F07EFDA36828465A1013F0010F04EBA8
S315080108F00201636818BFA25804F1040418BFD3584B
S31508010900984795E8030084E8030003B030BD024A1E
S31508010910C0E90123F9E700BF550A01084FF0FF3185
S3150801092008234FF6FF72C0E90613C28200F12001BF
S3150801093000F13003994202D021F8022BFAE74FF66B
S31508010940FF7200F140018B4202D023F8022BFAE72D
S31508010950437D0BB10023437570470000022330B570
S3150801096085B08DF8053091F82C300C46002B0CBF5C
S315080109700423002305468DF8043001AB02930E4982
S315080109800DF10603039304AB13E90C0004F10C0003
S315080109900968FFF796FD0A2104F1540001F012FDDA
S315080109A004F16000FFF7BAFF044B28462B600023C9
S315080109B06B6005B030BD00BFD4C7020881110108BC
S315080109C0002200B589B006928DF81C20C8228BB288
S315080109D001918DF81530090C1B128DF816308DF81A
S315080109E0171005AB091203938DF81B208DF8181003
S315080109F0027D0DF11D030649049303AB8DF81420FE
S31508010A0009680CCB0068FFF75CFD09B05DF804FBCB
S31508010A1019C8020838B5CB690C46072B88BF0023CD
S31508010A20054688BFCB61CA69084B204653F8221090
S31508010A30FFF7C6FF04F10C004FF4C87101F0C2FCC0
S31508010A40034B28462B6000236B6038BDACC70208F0
S31508010A50050B01084B7D10B504461BB1FFF7DAFFFC
S31508010A60204610BD014AC0E90023F9E7550A0108E5
S31508010A7038B50D460446CA69084B284653F822106C
S31508010A80FFF79EFF05F10C004FF4C87101F09AFCBF
S31508010A90034B204623600023636038BDACC70208B8
S31508010AA0850B010870B5002205460823084601F1A1
S31508010AB0200634463188248A0236A14228BF2146B7
S31508010AC0B1F5005F07D2082B15D000EB4304248C3F
S31508010AD08C4288BF13460132082AEAD1082B04D072
S31508010AE0064A52F82310FFF76BFF054B28462B6081
S31508010AF000236B6070BD1346EDE700BFACC7020863
S31508010B00BD05010870B5CB690446C8685A0040B9E5
S31508010B104FF6FF758818068CAE4204BF4FF6FE7570
S31508010B2005844FF6FF700A44128C824220D0072BA7
S31508010B3013D1CB6901EB4302128CB2F5005F04D3E2
S31508010B402046FFF795FF204670BD1BB92046FFF7E3
S31508010B50A9FFF8E7013BCB61EBE70848013330F819
S31508010B6023009042E5D2CB612046FFF753FFEAE71F
S31508010B70034B236000236360E5E700BFACC70208A7
S31508010B80050B010838B5CB69CD6801EB430304466B
S31508010B904FF6FF72188E6DB9904202D14FF6FE726A
S31508010BA01A864FF6FE72CB695BB92046FFF77AFFC4
S31508010BB0204638BD9042F4D1074B23600023636079
S31508010BC0F6E7013BCB6101EB43031B8C9342EAD168
S31508010BD02046FFF74DFFEBE7850B010838B50446BC
S31508010BE00C200D4601F032FC0346021D95E8030070
S31508010BF082E80300E26DE3651A6038BD2DE9F0412C
S31508010C008CB06B4683E8060090F84F3006469BB3D6
S31508010C10541A142C28BF14240D46002104F1040883
S31508010C2005AF424638460B911BF09EF896F84E30B2
S31508010C300B9A8DF81430B6F8523042448DF81530B7
S31508010C401B128DF816302B460B928DF8174006AA03
S31508010C502C449C4204D013F8011B02F8011BF8E747
S31508010C600B9B07493B44CDE9037303AB0CCB0968DE
S31508010C7006F10C00FFF725FC0CB0BDE8F08100BFBA
S31508010C804CC8020838B505460C4652B101F1200395
S31508010C9001F1180292E8030083E80300012384F8AE
S31508010CA038302069002108F005FC04F154004FF49E
S31508010CB0967101F087FB034B28462B6000236B6076
S31508010CC038BD00BF010E01087FB50446543001F056
S31508010CD087FB04F1C80001F083FB04F1D00001F0A1
S31508010CE07FFBE36902AE5A1013F0010F04EB020110
S31508010CF0A36918BFA258304618BFD35804F118057E
S31508010D00984796E8030085E8030004F16000FFF7B9
S31508010D10E1FD237D5BB100236E46214630462375EE
S31508010D200122FFF7AFFF96E8030085E8030004B048
S31508010D3070BD00002DE9F043002604460D46B04675
S31508010D40DFF8749085B0CDE9028802AF97E80C0008
S31508010D5005F10C016846FFF7E7FB9DF804304BB136
S31508010D60009B494638460293FFF764FD002818BFE1
S31508010D700646E8E77EB1022285F84D2095F84F2010
S31508010D800AB185F84F300A4B236000236360204679
S31508010D9005B0BDE8F0836B6D2BB9012229462046C3
S31508010DA0FFF770FFF3E7034BC4E90036EFE700BF2F
S31508010DB0710E0108350D010815C8020837B50D462B
S31508010DC004460C4B0C4900930133019302AB13E91A
S31508010DD00C0005F10C000968FFF773FB05F15400D7
S31508010DE0642101F0EFFA054B204623600023636076
S31508010DF003B030BD14C8020810C80208350D010831
S31508010E0038B50D4604460121286908F053FB6B6D78
S31508010E104BB905F10C00FFF7CEFB29462046FFF733
S31508010E20CDFF204638BD024B236000236360F8E7F7
S31508010E30010E010873B500250E460446CDE9005595
S31508010E40094902AB13E90C0006F10C000968FFF722
S31508010E5038FB06F154000A2101F0B4FA2046034B87
S31508010E60C4E9003502B070BDE0C70208D10F010818
S31508010E7091F82C2010B5012A044605D891F834308A
S31508010E8043B9FFF74BFC03E0044B036000234360BF
S31508010E90204610BDFFF7CEFFFAE700BF710E010825
S31508010EA038B591F84E300C4681F874300123054661
S31508010EB081F8753001F1C80001F081FA04F1D0001A
S31508010EC001F07DFA0023034A84F83830C5E9002386
S31508010ED0284638BDA11A010882B02DE9F04F89B01C
S31508010EE000AFFB6499463B6D0646FB60D7E915A33F
S31508010EF0A3EB0A05BB6005F1090323F00703ADEB74
S31508010F00030D0C46E8469346AA1C0DEB02037B60CB
S31508010F1001F10C033B607B68C7F81880FB6107F198
S31508010F20200313E90C00396807F11000FFF7FCFAF2
S31508010F303A7D7B7C9AB9636D5BB9012221463046BD
S31508010F40FFF7A0FE30462437BD46BDE8F04F02B094
S31508010F507047183494E8030086E80300F2E73A7C00
S31508010F60202AD8D1012BD6D9B97C9BF802209142E7
S31508010F70D1D1F97C9BF803209142CCD198F8002075
S31508010F80002ADAD198F80120002AD6D1BA68A3F145
S31508010F90020B92450FD1FB68FA685B1084F84CB0D6
S31508010FA0D20704EB030148BFE358304648BF53F85C
S31508010FB00990C847C6E75D452A4628BF5A46002A0A
S31508010FC0E9D008F1020150461AF0A6FEE3E700004F
S31508010FD0002330B504460D4689B0CDE9043301AA8C
S31508010FE004A903C982E803000093084A084B294665
S31508010FF02046FFF771FF2268064B9A4203D16368C0
S315080110000BB985F83430204609B030BDE0C702086F
S315080110101D07010819100108002330B504460D46BD
S3150801102089B0CDE9043301AA04A903C982E80300FA
S3150801103000932046034B044A2946FFF74DFF2046F5
S3150801104009B030BD61070108E8C70208002330B5B9
S3150801105004460D4689B0CDE9043301AA04A903C99A
S3150801106082E8030000932046034B044A2946FFF70A
S3150801107033FF204609B030BDB9070108D8C70208B1
S3150801108030B501F1500389B0049301F15203059378
S3150801109004AA01AB05460C4692E8030083E803005F
S315080110A0002328460093044A044B2146FFF714FF00
S315080110B0284609B030BD00BFDCC702088114010803
S315080110C0002330B504460D4689B0CDE9043301AA9B
S315080110D004A903C982E8030000932046034B044A86
S315080110E02946FFF7F9FE204609B030BD311501083A
S315080110F0E4C7020830B589B0044606A80D460CF0C7
S315080111004DFEDDE906239B1A082B4FF0000394BF19
S315080111100B4A0C4ACDE906230023CDE9043304AA78
S3150801112001AB92E8030083E80300079B204600937E
S31508011130054A069B2946FFF7CFFE204609B030BD72
S315080111405D09010811160108ECC70208002330B52C
S3150801115004460D4689B0CDE9043301AA04A903C999
S3150801116082E8030000932046034B044A2946FFF709
S31508011170B3FE204609B030BD5D090108ECC7020877
S31508011180002330B504460D4689B0CDE9043301AADA
S3150801119004A903C982E8030000932046034B044AC5
S315080111A02946FFF799FE204609B030BDCD0501084D
S315080111B0D4C70208F0B587B004460846694681E8EF
S315080111C00C001349FFF736FB9DF830609DF8347023
S315080111D0054668B1009A137A8DF80F301FB956B1D2
S315080111E0527BFF2A07D084F84E30012384F84F300A
S315080111F0284607B0F0BD0DF10F030493054904AB6A
S3150801120005930CCB096804F10C00FFF75AF9EFE7CF
S315080112103FC8020825C80208F0B587B00546084642
S31508011220694681E80C001A49FFF704FB9DF83070FE
S315080112300446E8B1009B05F10C0093F800C003AE23
S315080112400DF10E02134904ABAFB195F84F7097B182
S3150801125095F84E5065450ED10124CDE90462096819
S315080112600CCB8DF80D408DF80C503C46FFF729F94B
S31508011270204607B0F0BD0025CDE9046209680CCB0C
S31508011280ADF80C508DF80CC0FFF71BF9F0E700BF5D
S3150801129033C802082FC80208F0B585B00F4669465B
S315080112A0054681E80C0038461249FFF7C3FA064697
S315080112B0E0B1009C95F84E3022789A4216D12379EE
S315080112C0A3B9637993B97B78A279073B9A420DD181
S315080112D0ED6DE71D55B1A379281D07332344CDE9E3
S315080112E0027302A96B6898472D68F3E7304605B083
S315080112F0F0BD00BF2BC80208F7B5044626460D46C1
S31508011300174600F025FE244B3A4646F80C3B29467B
S3150801131001233046FFF7B4F8204B0025A362204B82
S31508011320294623631F4BC4E90655C4E90F341E4BEE
S31508011330C4E90855C4E911344FF4007384F82C50F4
S31508011340A4F84C3084F8345084F8385084F84F5057
S31508011350256504F1540001F02FF831466E46E5651E
S3150801136004F16000FFF77AFA192104F1C80001F0C7
S3150801137023F8332104F1D00001F01EF82146304646
S315080113802A46FFF77FFC96E8030004F1180383E871
S315080113900300204603B0F0BDF8C70208D0C602080C
S315080113A0E0C60208F0C6020800C7020830B585B0D3
S315080113B06B460C4683E80600114645680368AB424E
S315080113C01CD01A68A24206D15A688A4205D014B9B5
S315080113D00A43D20701D50C33F1E71B89ADF80C3066
S315080113E0012300208DF80E30BDF80C3063F30F0091
S315080113F0BDF80E3063F31F4005B030BD0023F0E79A
S315080114001FB5426802AB183292E8030083E803006D
S31508011410074893E80600FFF7C9FF10F47F0F01900C
S315080114200CBF4FF6FF70BDF8040005B05DF804FB6C
S3150801143008C702081FB5426802AB203292E80300CA
S3150801144083E80300074893E80600FFF7AFFF10F4A7
S315080114507F0F01900CBF4FF6FF70BDF8040005B071
S315080114605DF804FB08C7020810B50C1A134605D027
S315080114700146224618461AF05DFC0346181910BDA6
S315080114802DE9F04385B091F84C3000AF022B804628
S315080114900D4607D00122FFF7F5FB40461437BD4636
S315080114A0BDE8F08338460CF079FCD7E900010B1A40
S315080114B003F10C0222F00702ADEB020DB5F850203C
S315080114C000248DF800200DF1050C12128DF801206B
S315080114D06E46624603F105098DF804308DF802401F
S315080114E08DF80340013B002B03DB0CF8014B013B54
S315080114F0F9E7FFF7B9FFBE600B494E44FE6007F1F5
S31508011500100313E90C00096805F10C00FEF7D9FF71
S315080115100A2105F1540000F055FF044BC8F80030C4
S315080115200023C8F80430B8E7E4C70208C110010867
S315080115302DE9F0438FB0074601A8894605AD0CF0A1
S315080115402DFCDDE90186A6EB0806082E4FF02102DF
S315080115504FF000012846344628BF08241AF004FC37
S315080115604FF48173ADF81630264B082E069303F116
S31508011570F55303F5DE1303F6C453079303F10B532F
S3150801158003F53B2303F5FF73089303F15543A3F5CD
S315080115905513A3F67E1309934FF67A43ADF828300F
S315080115A04FF0E7038DF82A3004F117038DF815304B
S315080115B004F101038DF82B308CBF0823092308EBAE
S315080115C004010DF12D02404619348DF82C302C44B6
S315080115D0FFF74AFF0C490395049403AB0CCB09F1B9
S315080115E00C000968FEF76DFF09F154000A2100F0A5
S315080115F0E9FE064B38463B6000237B600FB0BDE829
S31508011600F08300BF0611076CECC70208F510010844
S315080116102DE9F0418EB0064601A888460CF0BEFBBE
S31508011620DDE90174E41B1D2C4FF01D024FF000018A
S3150801163006A828BF1D241AF097FB01238DF814303C
S3150801164009238DF81730A31C39198DF8153005AD06
S31508011650631C06AA384604348DF816302C44FFF765
S3150801166003FF0B490395049403AB0CCB08F10C005B
S315080116700968FEF726FF08F154000A2100F0A2FEC8
S31508011680044B30463360002373600EB0BDE8F08129
S31508011690ECC702084D11010808B513460A1A06D007
S315080116A019461AF02BFBB0FA80F0400908BD012053
S315080116B0FCE700002DE9F341884602A901E90C007F
S315080116C0D0E901352F4A04469342009E42D1B5FA24
S315080116D085F700257F092C494046FFF7ABF8E0B1AD
S315080116E0637D002B33D0227D33789A422FD1B3788C
S315080116F0727842EA0322E2823179F37843EA0123D6
S315080117002383B179737943EA01236383E369072B59
S3150801171003D857B304EB43031A841C4A08F104019E
S315080117204046FFF7B9FF90B1637D83B1338873B142
S31508011730E269072A0BD84FF6FD7103F500538B4270
S3150801174028BF0B469BB2B7B104EB4204238402B00F
S31508011750BDE8F0810E4A934209BFB5FA85F500271F
S315080117606D09002718BF3D46B5E7002DD5D004EB16
S3150801177043031A86D1E7002DE9D004EB42042386F8
S31508011780E5E700BF050B010821C802081DC80208C4
S31508011790850B01082DE9F04191F8343096B00646DB
S315080117A00C46C3B991F82C30023B012B13D907AF6C
S315080117B001F10C0816AB0597069305AD95E80C00E3
S315080117C0414603A8FEF7B0FE9DF8103063B91F4ADB
S315080117D03260736004E0002221463046FFF752FA70
S315080117E0304616B0BDE8F08116AB0597069395E825
S315080117F00C0003A904F16000FFF75CFF16AB069322
S3150801180094F82C300597B3FA83F35B090193012306
S31508011810009395E80C0003A92046FFF7CBFC48B1D5
S315080118204FF4FA7104F1540000F0CCFD084B336013
S315080118300023CEE716AB00900597069395E80C00B2
S3150801184003A92046FFF7E8FCB4E700BF951701088E
S31508011850B519010837B50546084602A901E90C007C
S315080118600C4A011D9DF81840FFF716FF60B1009A52
S31508011870137903F001004CB130B1204691785378C1
S3150801188043EA0123A5F8523003B030BDD84300F02E
S315080118900100F9E743C8020813B50446084602A938
S315080118A001E90C00074A011DFFF7F6FE38B1009B56
S315080118B05A781B7853EA022318BFA4F8D83002B025
S315080118C010BD00BF37C8020813B50446084602A969
S315080118D001E90C00084A011DFFF7DEFE48B194F83C
S315080118E04F0030B1009B987894F84E30C31A58428D
S315080118F0584102B010BD00BF3BC802082DE9F041AE
S3150801190006460D4694B005AF01F10C0814AB0397D2
S31508011910049303AC94E80C00414601A8FEF704FEC3
S315080119209DF8083073B96A6D42B9002229463046D6
S31508011930FFF7A8F9304614B0BDE8F0810C4AC6E9AC
S315080119400023F7E714AB0397049394E80C0001A965
S3150801195005F16000FFF7AEFE14AB0397049394E814
S315080119600C0001A92846FFF7AFFF0028CED0DCE717
S31508011970FD18010837B50C46054601F14E030093DB
S3150801198001F14F030A49019302AB13E90C0004F173
S315080119900C000968FEF795FD04F15400322100F0A8
S315080119A011FD28462146FFF7A9FF284603B030BD99
S315080119B025C802082DE9F04391F82C3097B0032B7E
S315080119C006460C4615D04B6D9BB107AF01F10C08C5
S315080119D016AB0597069305AD95E80C00414603A895
S315080119E0FEF7A2FD9DF810309BB92C4AC6E90023E3
S315080119F00BE004F1200304F1180292E8030083E8DE
S31508011A00030021463046FFF7B5FF304617B0BDE85B
S31508011A10F0834FF0010916AB0597069395E80C007C
S31508011A2003A904F16000FFF745FE16AB0597069377
S31508011A30CDF8009095E80C0003A92046FFF70AFFA8
S31508011A4020B121463046FFF72BFADEE716AB05979C
S31508011A50069395E80C0003A92046FFF735FF28B140
S31508011A604A4621463046FFF70DF9CEE7CDE9000093
S31508011A7003A995E80C002046FFF79CFB16AB0693D5
S31508011A8094F82C300597B3FA83F35B09009395E82C
S31508011A900C0003A92046FFF7BFFB99E7B519010812
S31508011AA02DE9F04791F82C3096B0032B07460C46E2
S31508011AB002D1FFF75FFF3CE0D1F8C83001F10C080D
S31508011AC007AE63B9CDE907334D49404696E80C00A0
S31508011AD00968FEF7F6FC04F1C80000F070FCDFF8AF
S31508011AE0289105AD16AB0596069395E80C00414677
S31508011AF003A8FEF719FD9DF81030002B6FD016AB21
S31508011B000596069395E80C0003A904F16000FFF712
S31508011B10D1FD16AB0596069395E80C0003A9204658
S31508011B20FFF7D2FE824640B1002221463846FFF72A
S31508011B30A9F8384616B0BDE8F08795E80C0003A960
S31508011B402046FFF7A9FBCDE900AA16AB0596069331
S31508011B5095E80C0003A92046FFF72CFB16AB069364
S31508011B6094F82C300596B3FA83F35B09009395E84C
S31508011B700C0003A92046FFF74FFB16AB0596069303
S31508011B8095E80C0003A92046FFF786FE38B104F153
S31508011B90C80000F014FC04F1D00000F010FC16ABEC
S31508011BA0069300230596009395E80C0003A92046A1
S31508011BB0FFF750FE10B1214638467AE7494603A891
S31508011BC0FEF738FE00288DD09DF81C209DF81D30A3
S31508011BD0134387D104F1D00000F0F1FB82E7D4F872
S31508011BE0D02042B904F1200304F1180292E8030057
S31508011BF083E80300DFE7034AC7E9002399E700BF43
S31508011C00CCC70208A11A0108D0C7020810B50446B4
S31508011C10164B40F8A03B00F08DFC04F1900001F052
S31508011C2081FC04F1800001F07DFC04F1700001F0F3
S31508011C3079FC04F1600001F075FC04F1500001F033
S31508011C4071FC04F1400001F06DFC04F1300001F073
S31508011C5069FC04F1200001F065FC04F1100001F0B3
S31508011C6061FC204600F06CF9204610BD58C80208F0
S31508011C7010B50446FFF7CAFF2046C42100F0F4FB5D
S31508011C80204610BDC368A03093F8381000F02ABC6E
S31508011C9038B504460D4600F05BF9254B05F12802D7
S31508011CA02360E560234904F1100001F0D2FB05F138
S31508011CB03002214904F1200001F098FB05F13C02AC
S31508011CC01E4904F1300001F0AAFB05F144021C4942
S31508011CD004F1400001F0A3FB05F1A002194904F142
S31508011CE0500001F0A9FB05F1A802174904F16000AB
S31508011CF001F0D6FB05F1B002144904F1700001F0B8
S31508011D00CFFB05F1B802124904F1800001F0C8FBC6
S31508011D1005F1C0020F4904F1900001F0C1FB02224E
S31508011D200D4904F1A00000F0EBFB204638BD00BFC9
S31508011D3058C8020840F0020878E90208D0E5020806
S31508011D40C0ED020890E60208C0EC0208B8EC0208E9
S31508011D5040EC020860ED0208D4DA020870B51546AF
S31508011D6004460E4601F50562296801F058FB06F698
S31508011D705C02A96804F1100001F051FB06F6640241
S31508011D80696804F1200001F04AFB06F66C0229692C
S31508011D9004F1300001F05DFB06F67402E96804F10E
S31508011DA0400001F056FB204670BD10B50446403090
S31508011DB001F0B8FB04F1300001F0B4FB04F1200096
S31508011DC001F0B0FB04F1100001F0ACFB204601F074
S31508011DD0A9FB204610BD30B501249440013C1BB136
S31508011DE0012B17D0002030BD8568C368C1F14001B9
S31508011DF08A1A2DBAC2F120001BBAA2F1200105FAEE
S31508011E0000F023FA02F2024325FA01F10A4304EA31
S31508011E100200E8E7D0E90235C1F12000A1F120026C
S31508011E2005FA00F023FA01F1014325FA02F21143FA
S31508011E3004EA0100D7E72DE9F04F099E1BB1012BF2
S31508011E4036D0BDE8F08F4FF00109A2F1200BC2F19F
S31508011E50200A29FA0AFA09FA0BF709FA02F4C2F171
S31508011E60400CACEB010C14F1FF3447EA0A0747F1C1
S31508011E70FF37ACF1200AC56807FA0CF3CCF1200943
S31508011E8004FA0AFA96FA86F824FA09F943EA0A03D9
S31508011E9004FA0CF408FA0CFC876843EA09038CEA8D
S31508011EA0050C03EA0C0327EA04046B40C0E9024364
S31508011EB0D0E902754FF0010CA2F12008C2F1200EFB
S31508011EC00CFA02F30CFA08F42CFA0EFE13F1FF339E
S31508011ED044EA0E0444F1FF32A1F1200C03FA0CFC8A
S31508011EE0C1F120048A4023FA04F442EA0C0222438F
S31508011EF0C1F1200CA1F1200406FA04F426FA0CFC1F
S31508011F008B4044EA0C0406FA01F179406C400B4017
S31508011F1022407B406A40C0E9023292E74068704736
S31508011F2000207047808870478368994205D3C36843
S31508011F30994202D8416001207047002070477047D6
S31508011F40704710B504460C2100F08EFA204610BDE4
S31508011F50024A02600022C0E90122704798C80208B5
S31508011F6038B5054655F8104FAC4206D054F8043C2E
S31508011F70201F9B6898472468F6E738BD38B505469B
S31508011F8055F8104FAC4206D054F8043C201FDB68C4
S31508011F9098472468F6E738BD38B5054655F8104F11
S31508011FA0AC4206D054F8043C201F1B6998472468A4
S31508011FB0F6E738BD38B5054655F8104FAC4206D098
S31508011FC054F8043C201F5B6998472468F6E738BD36
S31508011FD00346002110B553F8042F934204D0146820
S31508011FE0C2E900112246F8E7C0E90133016010BDD4
S31508011FF010B50446044B40F80C3BFFF7E9FF2046B1
S31508012000FFF79EFF204610BDB8C8020810B5044662
S31508012010FFF7EEFF2046182100F026FA204610BDEC
S3150801202010B50446044B40F80C3BFFF7D1FF204698
S31508012030FFF7DEFF204610BDD8C8020810B50446D2
S31508012040FFF7EEFF2046182100F00EFA204610BDD4
S3150801205010B50446FFF77CFF044B20462360002396
S31508012060E36004F11003C4E9043310BDB8C80208DB
S31508012070436910B50A1D00F110048B604C6042617A
S315080120801A60C3680133C36010BDF8B50446054636
S31508012090002654F8103F9C420AD0181F1F68C3E94E
S315080120A0006603D053F8043C5B6898473B46F2E761
S315080120B0C5E90444EE60F8BD10B50446FFF7C8FF4C
S315080120C0014B2046236010BDD8C80208D0E9012378
S315080120D09B1A994238BF535C82B036BF8DF80430DB
S315080120E00023012300208DF805309DF8043063F3A1
S315080120F007009DF8053063F30F2002B070470020F2
S31508012100704782684068101A7047436818687047B4
S3150801211038B5044600F0ACF91D4D0C302246606016
S315080121201C49256004F1080001F086F900F0A0F9C0
S31508012130083004F11802E0611749A56104F120008D
S3150801214001F07AF900F094F904F13002C4E90C506F
S31508012150124904F1380001F06FF900F089F90430E9
S31508012160E06404F14802A5640D4904F1500001F048
S3150801217063F90C4B04F1600223660B4B0B4963664A
S315080121800933A36604F16C0001F0A4F9204638BDB1
S31508012190F8C8020858EB020860EB020828EF0208A3
S315080121A020EE020808C9020814C9020800EE02084E
S315080121B010B504466C3001F0B5F904F1500001F090
S315080121C0B1F904F1380001F0ADF904F1200001F08C
S315080121D0A9F904F1080001F0A5F9204610BD007916
S315080121E070470000024A02600022027102727047BB
S315080121F028C9020819B9037A0371017270470023C5
S31508012200FAE7B0F9040070470020704780887047E4
S3150801221000797047C36801718360704719B9C3684B
S31508012220017183607047836823B1013B8360002392
S31508012230037170470123FBE7034A0260002202711A
S31508012240C0E90221704700BF28C902080022C0E977
S315080122500022027170477047034B1B68DB6B1944F8
S315080122600123016003717047F0400020037953B1DF
S31508012270074A01681268D26B91424FF0000204D2F4
S315080122800271184670470123FBE71346F9E700BFB9
S31508012290F040002013B50446124B1860124B083063
S315080122A01B6803F5AF53103340F8043CFFF704FFEE
S315080122B004F12000FFF700FF00236068E36384F858
S315080122C03830236403694FF47A715B681030984794
S315080122D0064B60686946CDE9003407F0EFFB2046F6
S315080122E002B010BDF0400020D44300202523010888
S315080122F038B5C36B04460133C36340688369183034
S315080123001B68984794F8383005461BB104F1080054
S31508012310FFF742FE6068836918301B689847401BBF
S31508012320206438BD4068FFF7E3BF000090F83830F5
S3150801233070B504462BBB00F10806304604F12005AA
S31508012340FFF70EFE2846FFF70BFE0E4B186802F044
S315080123500FFA3046FFF712FE2846FFF70FFE012354
S3150801236084F838302846FFF717FE94F83830002BE2
S31508012370F8D13046FFF71EFE2846BDE87040FFF744
S3150801238019BE70BD0C41002037B5044600256946C3
S315080123904068CDE9005507F091FB04F12000FFF7ED
S315080123A03FFE04F10800FFF73BFE2046014B1D6086
S315080123B003B030BDF0400020C0E900117047436802
S315080123C003607047C0E900117047436833B102687A
S315080123D064205043B0FBF3F398B270471846704730
S315080123E003680BB1013B036070477047FEE708B508
S315080123F019F07EFC582303604FF0FF3008BD00003A
S31508012400044B1A681118196003498B6803448B60D9
S315080124101046704720400020F84000200346094A2C
S3150801242010B51168013111604107074918BF20F03D
S315080124300703086818BF0833C4180C6091680B4471
S31508012440936010BDF840002020400020FFF7E6BF4A
S31508012450FFF7E4BF024A536801335360704700BF70
S31508012460F8400020FFF7F6BFFFF7F4BFFFF7F2BF0A
S3150801247000487047F8400020024B0349034A5B1A9B
S31508012480D360704700C00120FCAF0020F84000204F
S31508012490303809288CBF002001207047FEE7034623
S315080124A0012029B1CA0748BF584349085B43F8E7E1
S315080124B070475B1A10B507D0121A05D0029C241A68
S315080124C0634393FBF2F31944084610BD406870470D
S315080124D041600120704700880B8898422CBF002074
S315080124E001207047037D2BB921B1C3697E2B9CBF9F
S315080124F00133C361017570470023C36103757047D2
S31508012500002310B504460273074AC0E90033026185
S31508012510064A0375C0E90623054B8160014618681A
S3150801252000F088FC204610BDE0C6020868C902080A
S315080125300841002010B50446034B0146186800F00F
S315080125400DFB204610BD00BF084100200C3000F0ED
S31508012550A2B8000038B504460D46FFF7F9FC204637
S31508012560034B294640F80C3B00F0ACF8204638BD31
S3150801257078C9020810B50446044B40F80C3BFFF72E
S31508012580D9FF2046FFF7DCFC204610BD78C90208B2
S3150801259038B504460D4600F0CFF805F614221C4955
S315080125A004F1200000F022FF05F61C22194904F166
S315080125B0300000F041FF05F62422174904F14000D6
S315080125C000F03AFF05F63C22144904F1500000F0E8
S315080125D074FF05F65822124904F1600000F06DFFF8
S315080125E005F664220F4904F1700000F059FF05F65B
S315080125F06C220D4904F1800000F05FFF05F6742294
S315080126000A4904F1900000F031FF204638BD00BFA9
S3150801261050F0020838E6020870E80208D8EB02080A
S31508012620D8EC020838F0020830F0020858F002081F
S3150801263010B50446903000F075FF04F1800000F0F3
S3150801264071FF04F1700000F06DFF04F1600000F005
S3150801265069FF04F1500000F065FF04F1400000F045
S3150801266061FF04F1300000F05DFF04F1200000F085
S3150801267059FF04F1100000F055FF204610BD10B5B2
S3150801268004462430FFF7CAFD94F828102046BDE811
S315080126901040FFF727BF10B50446FFF72DFF04F1D9
S315080126A024000021BDE81040FFF7B4BD38B5044643
S315080126B01D46FFF725FF294604F12400FFF7BCFD57
S315080126C0204638BD38B505460C460A790968FFF72C
S315080126D017FFA16805F12400FFF7AEFD284638BDAE
S315080126E042680120136810335360704770B5054678
S315080126F014262B6803F11002D3F8103A3BB106FBF6
S3150801270003236C689C4204D100206A6070BD13469D
S31508012710F7E704F114036B60204600F0CAF80028B5
S31508012720E7D0236820461D8800F099F845EAC0706D
S31508012730ECE74068FFF7DABF10B50446064B0160BF
S3150801274010314160C0E9023000F108020349103036
S3150801275000F072FE204610BD98C9020878E8020802
S31508012760002070474368D3F8100A70470020704765
S315080127704368D3F8100A7047436882B0D3F8102A21
S31508012780002091423DBF142202FB01310B6900234F
S315080127903EBF1B88ADF8043001238DF80630BDF81D
S315080127A0043063F30F00BDF8063063F31F4002B02F
S315080127B070474368D3F8100A704710B5D1E9014349
S315080127C01B1BB2EBA30F37BF54F82230002303605B
S315080127D00123037110BD83684068181A8010704779
S315080127E0406870471423026803FB012101607047A2
S315080127F0034670B5044600250C4AD0F8101A43F86A
S31508012800102B61B1184650F80C2F0139824204D0B9
S315080128101668C2E900553246F8E71433F1E7044B66
S3150801282020461960FFF78CFB204670BD08CA0208CE
S315080128300841002010B50446FFF7DAFF204640F6A6
S315080128407C21FFF711FE204610BDD1F8102A01F1AF
S31508012850100312B1142101FB02330360704750F8CB
S315080128600C3F834203D01A7D12B91B68F9E700228F
S315080128701046704707B54068D0F8103A8B4216D90A
S315080128801423103003FB0100FFF7E9FF01238DF83C
S31508012890040000208DF805309DF8043063F3070025
S315080128A09DF8053063F30F2003B05DF804FB0023A0
S315080128B0EFE7002250F80C3F834203D0D9691B6821
S315080128C00A44F9E7104670474B6810B5D3F8101A51
S315080128D0044691420AD91420103300FB0230FFF74F
S315080128E0E8FF012320602371204610BD0023FAE783
S315080128F038B5054655F80C4FAC4204D02046FFF7CB
S31508012900FBFD2468F8E738BD03790A7B934228BFA3
S3150801291013460371036900F10C024B600A600161F9
S31508012920196083680133836070478B680A7B03608B
S31508012930002310B5836000F10C030271C0E903336B
S31508012940FFF7E2FF10BD0423024670B500250371A7
S3150801295052F80C3F934213D099420AD1D1E9004665
S31508012960346066608468013C8460C1E900551B686F
S31508012970F0E71C7B0679B44228BF34460471F6E7B2
S3150801298070BD38B5D0F8103A00F110044BB11425D2
S3150801299005FB0345A54204D02046FFF7A9FF1434D9
S315080129A0F8E738BDFFF7EDBF2DE9F84390F8183A77
S315080129B0044623B1002380F8183AFFF7E2FF002303
S315080129C0D4F8107A04F62C29C4F82C3AC4F8303A0B
S315080129D0C4F8343AC4F8383A04F64828C4F8483AE8
S315080129E0C4F84C3AC4F8503AC4F8543A04F11005FC
S315080129F0EFB1142303FB0757BD4218D028462E7999
S31508012A00FFF72DFF30B104EB8602D2F82C3A0133D9
S31508012A10C2F82C3A2846FFF74CFF30B104EB86067C
S31508012A20D6F8483A0133C6F8483A1435E4E700239C
S31508012A3004F63C21894503D059F8042B1344F9E7D8
S31508012A40C4F8203A002304F65821884503D058F8DB
S31508012A50042B1344F9E7C4F8283ABDE8F8830000C3
S31508012A60D1F8103A2DE9F34706468846174601F18B
S31508012A70100503B3142202FB03532C465B1B194AA8
S31508012A809B1002FB03F9B9F1000F16DD4FEA690A3B
S31508012A90514601A80194FFF7A5FE019B394618681E
S31508012AA0FFF719FD28B1019CA9EB0A0A14340AF1AA
S31508012AB0FF3AD146E7E72B46DFE7D8F8103A13B1D4
S31508012AC0142202FB0355AC4206D021683846FFF7AB
S31508012AD002FD002818BF2C463046346002B0BDE816
S31508012AE0F08700BFCDCCCCCC13B504460A460146C7
S31508012AF06846FFF7B5FF01A82146FFF7A6FEDDE9FF
S31508012B000003C01A18BF012002B010BD13B5044650
S31508012B100A4601466846FFF7A3FF01A82146FFF7C3
S31508012B2094FEDDE90003834203D0FFF798FE02B065
S31508012B3010BD0020FBE713B504460A460146684660
S31508012B40FFF78EFF01A82146FFF77FFEDDE90003A7
S31508012B50834201D0FFF7CCFE02B010BD37B505465A
S31508012B608A680C4601466846FFF77AFF01A8294696
S31508012B70FFF76BFEDDE90003834202D02146FFF72A
S31508012B80E2FE03B030BD0000F8B504460025102763
S31508012B90FFF7DEF9214B3A462360214B29461C6093
S31508012BA0204BC4F8105AC4F8143A1F4B84F8185A23
S31508012BB0C4F81C3AC4F8243A04F62C23C4F8205A5B
S31508012BC0C4F8285A184619F0CFF8184E04F63C23CB
S31508012BD0C4F8443A04F64823C4F8400AC4F83C6ADF
S31508012BE03A462946184619F0BFF804F65823C4F898
S31508012BF0603A0F4BC4F85C0AC4F8643A0D4BC4F842
S31508012C00586AC4F86C3A0C4BC4F8684AC4F8704A56
S31508012C10C4F8743AC4F8784A2046F8BD08CA0208C6
S31508012C2008410020E0C60208A8C90208B8C9020876
S31508012C30CCC90208E0C90208F4C902088142F0B504
S31508012C4024D002680B680AB9C0E900000BB9C1E9CA
S31508012C500011D1E90064D0E900C57768DCF804E021
S31508012C60CCF80470C6F804E027682E682F60266041
S31508012C7004680D6805600C604D68446845604C60E1
S31508012C800AB9C1E900220BB9C0E90033F0BD000059
S31508012C902DE9F84380460E46174610464FF00009BF
S31508012CA008F10C05A5F10C039E4200F114041AD093
S31508012CB055F80C3C0C3044F8143C15F8083C40F81F
S31508012CC0049C00F8083C294644E90200FFF7B6FFD0
S31508012CD055F8042C54F80C3C143544F80C2C2046B1
S31508012CE045F8183CDEE7A6EB08060548B60846434C
S31508012CF0142026F0404600FB0670BDE8F88300BFA5
S31508012D00CDCCCC0C38B50B68044603600B790D465F
S31508012D10037100230C3040F8043C0C31C4E903006C
S31508012D20FFF78CFFA368AA682046A260AB6038BD8E
S31508012D302DE9F84F002303600371D1F8003A804664
S31508012D400E461746EBB14FF0140909FB0319A9EB17
S31508012D500605AB10364D34465D431423ADB14FEA33
S31508012D60550A03FB0AF23968A05804EB020BFFF770
S31508012D70B2FB142338B1013DA5EB0A050BEB03049D
S31508012D80ECE78946E3E75546E8E7A14508D101237B
S31508012D90D6F8002A88F80430802A0ED118F096FF52
S31508012DA021683868FFF797FB0028F0D188F80450A6
S31508012DB0C8F800404046BDE8F88F142303FB0262B9
S31508012DC0944209D139462046FFF79CFFD6F8003AC6
S31508012DD00133C6F8003AEBE7A2F114051146284675
S31508012DE0FFF756FFD6F8003A0133C6F8003AAC4267
S31508012DF00FD055F8143D6B612B7905F10C012B7633
S31508012E0005F12000FFF71AFFEB69AA68AB60EA61D2
S31508012E10EDE73B6807F10C0123603B7904F10C00EF
S31508012E202371FFF70BFFA368BA68A260BB60BFE70F
S31508012E30CDCCCCCC30B504460D4689B08A6801465E
S31508012E406846FFF70DFE214603A8FFF7FEFC00982A
S31508012E50039B2946834203D0FFF756FD09B030BDCF
S31508012E6003A8FFF762FD03AA01A804F11001FFF701
S31508012E705FFF0022069B06A88342EFD01968C3E9C3
S31508012E8000220B46F8E7B0F904007047D0E90123A0
S31508012E909B1AB1EB630F38BF32F8113082B036BFD7
S31508012EA0ADF804300023012300208DF80630BDF863
S31508012EB0043063F30F00BDF8063063F31F4002B018
S31508012EC070470020704783684068181A4010704799
S31508012ED01FB5002301248DF80830009402AB06F0D3
S31508012EE04DFD80B19DF808308DF80D408DF80C30F8
S31508012EF000209DF80C3063F307009DF80D3063F34D
S31508012F000F2004B010BD8DF80D00F1E72DE9F3414E
S31508012F1016468DF800208DF801306A461D460223B3
S31508012F200746884606F060FC32460446414638465E
S31508012F30FFF7CEFFADF804003CB19DF8054024B17A
S31508012F409DF80440631B5C425C41204602B0BDE823
S31508012F50F0811FB50023ADF80830022342F0800244
S31508012F60009302AB06F00AFDB0B19DF809209DF861
S31508012F70083043EA0223ADF80C3001238DF80E30F0
S31508012F800020BDF80C3063F30F00BDF80E3063F373
S31508012F901F4005B05DF804FB8DF80E00F0E72DE93A
S31508012FA0FF41044603270125002694F81180B8F14C
S31508012FB0000F60D02722217CE068FFF789FF637C38
S31508012FC0ADF80000002BC0F3072014BF0346002309
S31508012FD06374F8B19DF800301A071BD52822217CA5
S31508012FE0E068FFF7B6FF2A220190217CE068FFF727
S31508012FF0B0FF2C220290217CE068FFF7AAFF637CD0
S3150801300003903BB19DF806301BB19DF80A30002BA1
S3150801301077D166740722217CE068FFF759FF637C44
S31508013020ADF80800002BC0F3072014BF03460023A0
S315080130306374E0B19DF808305B0718D50C22217C32
S31508013040E068FFF786FF637C0390002BC0F3074017
S3150801305014BF03460023637408B1BDF80C000A23A4
S3150801306000B2584348BFFF300012FA302085637C0E
S31508013070002B40D042E065740F22217CE068FFF7FF
S3150801308027FF10F47F4FADF80C002BD09DF80C30BC
S31508013090332B27D16574C0231F22217CE068FFF7F3
S315080130A035FFF8B1657467232022217CE068FFF7B4
S315080130B02DFFB8B1657443462122217CE068FFF7EC
S315080130C025FF78B1657443462222217CE068FFF723
S315080130D01DFF38B1657488232322217CE068FFF738
S315080130E015FF804684F811806682A682E682B8F1C9
S315080130F0000F7FF45FAF013F7FF457AF04B0BDE81F
S31508013100F0819DF80E30002B83D043F64A534FF4D5
S315080131107A31BDF904205A4392FBF1F26282BDF974
S3150801312008205A4392FBF1F2A282BDF90C205343BF
S3150801313093FBF1F3E3826DE710B50446024B036096
S31508013140FEF7FEFE204610BD4CCA020810B504461D
S31508013150FFF7F2FF20462C21FFF786F9204610BD1E
S3150801316070B5154604460E46FEF7F2FE0C4B002DC9
S31508013170236014BF3223302323740023094AE660EF
S31508013180A26104F11202E26104F118022262064AFE
S3150801319063746382636162622385204670BD00BFE2
S315080131A04CCA020828CA02083CCA020810B50446D5
S315080131B00846636811462278FEF70DFE237A2BB17D
S315080131C023785A1E012393405840C01A10BD82899C
S315080131D06AB14369994203DB83698B42A8BF0B46EF
S315080131E0B0F90A104B4393FBF2F3016919440846F7
S315080131F0704730B5D0E90723044602EBC3039A4268
S31508013200104606D0083252F8045C8D42F7D10068A0
S3150801321030BDB4F90A306BB12069091AA08948434F
S3150801322090FBF3F360698342F2DBA0699842A8BF79
S315080132301846EDE71846EBE773B50D4619460446F9
S315080132401646FFF7D6FF636800902278284631466E
S31508013250FEF7F1FD012002B070BD43698B4205DC22
S3150801326080698842B4BF002001207047002070475A
S3150801327070B50D460446114628461A46FFF796FFCD
S31508013280D5E90731024603EBC1018B42184609D03D
S3150801329053F8086B9642F8D14368236001232371DA
S315080132A0204670BD11462846FFF7D7FF20B12846AC
S315080132B0FFF78DFF2060F1E72071F1E7F8B50646C3
S315080132C00F46002456F8045FB54209D055F8043C68
S315080132D0281F1B68394698470443E4B22D68F3E76B
S315080132E02046F8BDF8B504460546002754F8043FBC
S315080132F09C420AD018461E6840F8047918B153F85A
S31508013300043C9B6898473346F2E72846F8BD021DF8
S31508013310426000220260704710B50446024B036002
S3150801332000F050F8204610BD6CCA020810B50446D4
S31508013330FFF7F2FF20461421FFF796F8204610BD45
S3150801334073B5002204460E460169684600F09AFDE7
S315080133509DF804502DB1009BA2683146E068FFF73D
S315080133606BFF284602B070BD2DE9F0410F4619885A
S315080133700D4B05461868904601F06BF9064688B16B
S315080133801420FFF763F804464246394600F010F860
S31508013390064B266123606B6844F8043F2B686C6012
S315080133A001332B60BDE8F0810C4100206CCA02088C
S315080133B010B5034CC26004600024C0E9014110BD88
S315080133C080CA020870470000034B1868D0F8143801
S315080133D000F614001B6818470C410020024B0146F1
S315080133E0186801F03CBB00BF0C410020002310B552
S315080133F004468381016082604360C381FFF7EEFF63
S31508013400204610BD052310B5436000230446838179
S3150801341001608260C381FFF7E1FF204610BD0223E8
S3150801342010B5436000230446838101608260C3812D
S31508013430FFF7D4FF204610BD032310B543600023D0
S315080134400446838101608260C381FFF7C7FF204676
S3150801345010BD012310B54360002304468381016032
S315080134608260C381FFF7BAFF204610BD072310B556
S31508013470436000230446838101608260C381FFF7AC
S31508013480ADFF204610BD0C2310B54360002304464A
S31508013490838101608260C381FFF7A0FF204610BDCA
S315080134A0092310B5436000230446838101608260C5
S315080134B0C381FFF793FF204610BD0A2310B5436069
S315080134C000230446838101608260C381FFF786FF7A
S315080134D0204610BD082310B54360002304468381A6
S315080134E001608260C381FFF779FF204610BD10B5E0
S315080134F00468FFF769FF2044807810BD10B5046899
S31508013500FFF762FF2044007910BD03689B790BB170
S31508013510FFF7F4BF184670470368D8439842B8BF07
S315080135201846704710B50446064B0146186801F05F
S3150801353081F9201DFFF7F0FF0D2801D918F0C6FB08
S31508013540204610BD0C41002010B504460430FFF793
S31508013550E3FF0D280ED8DFE800F00F0F0F0F0F0F4E
S315080135600F07070707070707A068BDE810400368A4
S315080135709B68184718F0AAFB012010BD2DE9F04FEA
S31508013580002487B010469C46A246A146A046274677
S3150801359026462546CDE90044CDE90244A3460D2930
S315080135A000F28081DFE811F00E0031004900610068
S315080135B077008F00A700BF00DA00F60011012D0180
S315080135C049016401056800942868DCF80040FFF7A2
S315080135D08EFF009A38B16B68ABB9236820461B6821
S315080135E09847024601208DF810208DF81100002019
S315080135F09DF8103063F307009DF8113063F30F202F
S3150801360007B0BDE8F08F0020EDE70568009428684B
S31508013610DCF80040FFF76BFF009B48B16A6852B9B6
S31508013620236820461B689847031C18BF01230120FD
S315080136308DF81030D9E70020FAE70568DCF8004074
S315080136402868FFF754FF58B16B6863B923682046A9
S315080136501B68984710F1000B18BF4FF0010B0120AA
S315080136608DF810B0C1E70020FAE70668DCF80050CB
S315080136703068FFF73CFF48B1736853B92B68284691
S315080136801B689847041C18BF012401208DF81040B7
S31508013690ABE70020FAE70568DCF800402868FFF781
S315080136A026FF58B16B6863B9236820461B6898479B
S315080136B010F1000A18BF4FF0010A01208DF810A079
S315080136C093E70020FAE70568DCF800402868FFF769
S315080136D00EFF58B16B6863B9236820461B68984783
S315080136E010F1000918BF4FF0010901208DF810905B
S315080136F07BE70020FAE70568DCF800402868FFF751
S31508013700F6FE58B16B6863B9236820461B6898476B
S3150801371010F1000818BF4FF0010801208DF810803C
S3150801372063E70020FAE70568DCF800402868FFF738
S31508013730DEFE88B1236869681B682046984710F43D
S315080137407F4FADF8100007D001239DF810708DF852
S3150801375010708DF811304AE70023F8E70568DCF8A0
S3150801376000402868FFF7C3FE90B1236869681B68A3
S315080137702046984710F47F4FADF8100008D09DF801
S3150801378010600123003618BF01268DF81060E0E7A6
S315080137900023FAE70668DCF800403068FFF7A7FE61
S315080137A088B1236871681B682046984710F47F0F13
S315080137B0049008D0BDF810500123003518BF012523
S315080137C08DF81050C5E70023FAE70568DCF80040D4
S315080137D02868FFF78CFE90B123686A681B68214642
S315080137E004A898479DF814304BB1049B003318BFC1
S315080137F0012300930123009A8DF81020A9E70023DD
S31508013800F9E70568DCF800402868FFF770FE90B113
S31508013810236869681B682046984710F47F4FADF8FE
S31508013820100008D09DF91030003318BF0123019309
S315080138300123019AE0E70023FBE70568DCF800406D
S315080138402868FFF754FE88B1236869681B68204613
S31508013850984710F47F0F049008D0BDF91030003353
S3150801386018BF012302930123029AC5E70023FBE748
S315080138700568DCF800402868FFF739FE80B123683F
S315080138806A681B68214604A898479DF814303BB11D
S31508013890049B003318BF012303930123039AABE763
S315080138A00023FBE718F012FA30B58DB00546CDE9CD
S315080138B00A010AAB043009930024FFF72DFE4FF0E5
S315080138C00003CDE902448DF804308DF80030014635
S315080138D005F1080309AA6868FFF750FEC3B263F346
S315080138E00704C0F3072060F30F2420460DB030BD4E
S315080138F02DE9F04F002487B010469C46A346A24600
S31508013900A146A0462746CDE90044CDE9024426460C
S3150801391025460D2900F26181DFE811F00E002F001E
S3150801392045005B00700085009A00AF00CA00E500FB
S31508013930FD0015012F0147010668DCF800503068C3
S31508013940FFF7D5FD38B17368ABB92B6828461B68F4
S31508013950984784B20120ADF810408DF81200002076
S31508013960BDF8103063F30F00BDF8123063F31F4042
S3150801397007B0BDE8F08F0020EDE7056800942868D8
S31508013980DCF80040FFF7B3FD009A38B16B6843B91C
S31508013990236820461B68984782B20120ADF810209B
S315080139A0DBE70020FAE7056800942868DCF80040A0
S315080139B0FFF79DFD009B38B16A6842B92368204626
S315080139C01B68984703460120ADF81030C5E700206B
S315080139D0FAE70568DCF800402868FFF788FD40B17A
S315080139E06B684BB9236820461B6898471FFA80FB0A
S315080139F00120ADF810B0B0E70020FAE70568DCF859
S31508013A0000402868FFF773FD40B16B684BB923681E
S31508013A1020461B6898471FFA80FA0120ADF810A0C6
S31508013A209BE70020FAE70568DCF800402868FFF7FD
S31508013A305EFD40B16B684BB9236820461B68984701
S31508013A401FFA80F90120ADF8109086E70020FAE701
S31508013A500568DCF800402868FFF749FD40B16B6846
S31508013A604BB9236820461B6898471FFA80F801203E
S31508013A70ADF8108071E70020FAE70568DCF8004028
S31508013A802868FFF734FD88B1236869681B682046F2
S31508013A90984710F47F4FADF8100007D001239DF821
S31508013AA01070ADF810708DF8123058E70023F8E75A
S31508013AB00568DCF800402868FFF719FD88B1236816
S31508013AC069681B682046984710F47F4FADF81000C7
S31508013AD007D09DF8103000930123009AADF8102005
S31508013AE0E1E70023F9E70568DCF800402868FFF7F5
S31508013AF0FEFC70B1236869681B682046984710F474
S31508013B007F0F049005D0BDF8103001930123019A67
S31508013B10E4E70023FBE70568DCF800402868FFF7BF
S31508013B20E6FC70B123686A681B68214604A89847B1
S31508013B309DF814302BB1BDF8103002930123029A77
S31508013B40CCE70023FBE70568DCF800402868FFF7A7
S31508013B50CEFC80B1236869681B682046984710F433
S31508013B607F4FADF8100006D09DF910309BB2039334
S31508013B700123039AB2E70023FBE70568DCF8004056
S31508013B802868FFF7B4FC70B1236869681B6820468A
S31508013B90984710F47F0F049005D00123BDF81060F3
S31508013BA0ADF810607FE70023FAE70668DCF8004005
S31508013BB03068FFF79CFC70B1236872681B68214660
S31508013BC004A898479DF814302BB10123BDF810506D
S31508013BD0ADF8105067E70023FAE718F077F830B523
S31508013BE08DB00546CDE90A010AAB043006930024D7
S31508013BF0FFF792FC4FF00003CDE902448DF804303B
S31508013C008DF80030014605F1080306AA6868FFF732
S31508013C106FFE83B263F30F04000C60F31F44204662
S31508013C200DB030BD73B5069904460D2A00F28180A0
S31508013C30DFE802F00C0C0C0C0C0C0C1D1D326C454B
S31508013C40596C00232046237102B070BD1E680D68A9
S31508013C503068FFF74CFC0028F3D07368002BF0D1CD
S31508013C602B6828461B68984720600123EAE71E68E7
S31508013C700D683068FFF73BFC0028E2D02B687168B5
S31508013C801B682846984710F47F4FADF80000D8D036
S31508013C909DF800302360E8E71E680D683068FFF775
S31508013CA026FC0028CDD02B6871681B6828469847E2
S31508013CB010F47F0F0090C4D0BDF80030EAE71E6803
S31508013CC00D683068FFF713FC0028BAD02B687168B5
S31508013CD01B682846984710F47F4FADF80000B0D00E
S31508013CE09DF90030D6E71E680D683068FFF7FFFBBF
S31508013CF00028A6D02B6871681B682846984710F4D7
S31508013D007F0F00909DD0BDF90030C3E71E680D688E
S31508013D103068FFF7ECFB002893D02B6872681B68A4
S31508013D202946684698479DF80430002B89D0009BA0
S31508013D30B0E717F0CBFF30B58BB0054608AB081DC9
S31508013D400C46CDE908120793FFF7E6FB0023CDE9F8
S31508013D5003338DF808308DF8043004F10803009315
S31508013D60024607AB28466168FFF75CFF28460BB099
S31508013D7030BD73B5069904460D2A00F28180DFE845
S31508013D8002F00C0C0C0C0C0C0C1D1D326C45596CFC
S31508013D9000232046237102B070BD1E680D68306885
S31508013DA0FFF7A5FB0028F3D07368002BF0D12B6829
S31508013DB028461B68984720600123EAE71E680D68B4
S31508013DC03068FFF794FB0028E2D02B6871681B68FE
S31508013DD02846984710F47F4FADF80000D8D09DF8D3
S31508013DE000302360E8E71E680D683068FFF77FFB3F
S31508013DF00028CDD02B6871681B682846984710F4AF
S31508013E007F0F0090C4D0BDF80030EAE71E680D6840
S31508013E103068FFF76CFB0028BAD02B6871681B68FD
S31508013E202846984710F47F4FADF80000B0D09DF9A9
S31508013E300030D6E71E680D683068FFF758FB002882
S31508013E40A6D02B6871681B682846984710F47F0F1F
S31508013E5000909DD0BDF90030C3E71E680D68306833
S31508013E60FFF745FB002893D02B6872681B68294623
S31508013E70684698479DF80430002B89D0009BB0E727
S31508013E8017F024FF30B58BB0054608AB081D0C4664
S31508013E90CDE908120793FFF73FFB0023CDE903336A
S31508013EA08DF808308DF8043004F1080300930246B2
S31508013EB007AB28466168FFF75CFF28460BB030BDA3
S31508013EC070B50D2900F2D580DFE811F00E00250046
S31508013ED036006B004A005B006B007D0090009C0079
S31508013EE0C400AC00B800C40014681D682068FFF758
S31508013EF005FB002800F0BF806368002B40F0BB80FB
S31508013F00A36819882B68003118BF01215B68284608
S31508013F10BDE87040184714681D682068FFF7EEFA77
S31508013F20002800F0A8806368002B40F0A480A268EE
S31508013F302B6811785B68EAE714681D682068FFF743
S31508013F40DDFA002800F097806368002B40F0938023
S31508013F50A2682B6811885B682846BDE87040184737
S31508013F6014681D682068FFF7C9FA002800F08380E5
S31508013F706368002B7FD1A2682B6892F900105B68F1
S31508013F80C5E714681D682068FFF7B8FA002872D0DB
S31508013F906368002B6FD1A2682B68B2F900105B68C1
S31508013FA0DAE714681D682068FFF7A8FA002862D0C6
S31508013FB06368002B5FD1A2682B682846BDE870406C
S31508013FC05B681188184714681D682068FFF796FA18
S31508013FD0002850D0A3681A882B68003218BF01221E
S31508013FE05B6861682846BDE87040184714681D6813
S31508013FF02068FFF783FA00283DD0A2682B6812785B
S315080140005B68EEE714681D682068FFF777FA0028F1
S3150801401031D0A2682B6812885B6861682846BDE8BA
S315080140207040184714681D682068FFF767FA10B3CF
S31508014030A2682B6892F900205B68D2E714681D68AC
S315080140402068FFF75BFAB0B1A2682B68B2F90020C5
S315080140505B68E2E714681D682068FFF74FFA50B1FC
S31508014060A2682B6861682846BDE870405B681288BB
S31508014070184717F02BFE002070BD30B589B00446ED
S31508014080CDE9050105AB043007920493FFF744FA1D
S3150801409000230146CDE902338DF804308DF800304E
S315080140A004AA04F108036068FFF70AFF054638B158
S315080140B02046FFF72AFA18B1A38901339BB2A381D7
S315080140C0284609B030BD70B50D2900F2D580DFE864
S315080140D011F00E00250036006B004A005B006B00EC
S315080140E07D0090009C00C400AC00B800C4001468B0
S315080140F01D682068FFF702FA002800F0BF80636890
S31508014100002B40F0BB80A36819682B68003118BFE3
S3150801411001215B682846BDE87040184714681D6888
S315080141202068FFF7EBF9002800F0A8806368002BE8
S3150801413040F0A480A2682B6811785B68EAE71468E6
S315080141401D682068FFF7DAF9002800F09780636890
S31508014150002B40F09380A2682B6811885B6828467B
S31508014160BDE87040184714681D682068FFF7C6F94E
S31508014170002800F083806368002B7FD1A2682B6832
S3150801418092F900105B68C5E714681D682068FFF797
S31508014190B5F9002872D06368002B6FD1A2682B6825
S315080141A0B2F900105B68DAE714681D682068FFF742
S315080141B0A5F9002862D06368002B5FD1A2682B6835
S315080141C02846BDE870405B681168184714681D6881
S315080141D02068FFF793F9002850D0A3681A682B685E
S315080141E0003218BF01225B6861682846BDE8704045
S315080141F0184714681D682068FFF780F900283DD024
S31508014200A2682B6812785B68EEE714681D68206857
S31508014210FFF774F9002831D0A2682B6812885B6809
S3150801422061682846BDE87040184714681D6820680B
S31508014230FFF764F910B3A2682B6892F900205B684E
S31508014240D2E714681D682068FFF758F9B0B1A2686B
S315080142502B68B2F900205B68E2E714681D682068DC
S31508014260FFF74CF950B1A2682B6861682846BDE88A
S3150801427070405B681268184717F028FD002070BD6A
S3150801428030B589B00446CDE9050105AB043007927E
S315080142900493FFF741F900230146CDE902338DF86E
S315080142A004308DF8003004AA04F108036068FFF7AA
S315080142B00AFF054638B12046FFF727F918B1A38941
S315080142C001339BB2A381284609B030BD70B50D29CB
S315080142D000F2D580DFE811F00E00250036006B00EC
S315080142E04A005B006B007D0090009C00C400AC0096
S315080142F0B800C40014681D682068FFF7FFF8002895
S3150801430000F0BF806368002B40F0BB80A368196882
S315080143102B68003118BF01215B682846BDE870404B
S31508014320184714681D682068FFF7E8F8002800F0A8
S31508014330A8806368002B40F0A480A2682B681178D6
S315080143405B68EAE714681D682068FFF7D7F8002854
S3150801435000F097806368002B40F09380A2682B6871
S3150801436011885B682846BDE87040184714681D68BF
S315080143702068FFF7C3F8002800F083806368002BE4
S315080143807FD1A2682B6892F900105B68C5E71468AB
S315080143901D682068FFF7B2F8002872D06368002B01
S315080143A06FD1A2682B68B2F900105B68DAE7146866
S315080143B01D682068FFF7A2F8002862D06368002B01
S315080143C05FD1A2682B682846BDE870405B68116812
S315080143D0184714681D682068FFF790F8002850D020
S315080143E0A3681A682B68003218BF01225B686168E6
S315080143F02846BDE87040184714681D682068FFF70D
S315080144007DF800283DD0A2682B6812785B68EEE734
S3150801441014681D682068FFF771F8002831D0A26872
S315080144202B6812885B6861682846BDE870401847A2
S3150801443014681D682068FFF761F810B3A2682B6835
S3150801444092F900205B68D2E714681D682068FFF7B7
S3150801445055F8B0B1A2682B68B2F900205B68E2E7AB
S3150801446014681D682068FFF749F850B1A2682B68DF
S3150801447061682846BDE870405B681268184717F0FE
S3150801448025FC002070BD30B589B00446CDE905018B
S3150801449005AB043007920493FFF73EF80023014663
S315080144A0CDE902338DF804308DF8003004AA04F101
S315080144B008036068FFF70AFF054638B12046FFF78B
S315080144C024F818B1A38901339BB2A381284609B000
S315080144D030BD036803EB81010160704730B5EFF326
S315080144E01083DB4303F0010372B641F650028C18C0
S315080144F08A5A658892B2AA4209D141F654028C18A1
S315080145008A5A658892B2AA420DD10B4A05E06280A1
S3150801451041F6580201248C54084A0260002242607E
S3150801452043B162B630BD628041F6580201248C540B
S31508014530034AF2E772B6F5E7DD440108D1450108F9
S315080145407D45010841F63403CA58094B9A420AD1F6
S3150801455041F63803CB5833B941F658028B54054A0C
S31508014560026043607047044B03600023F9E700BF0C
S3150801457005510208DD4401084545010838B541F6EB
S315080145803403CA580A4B04469A420CD141F63803F9
S31508014590CD5845B901F61C0010F06EFE054BC4E96D
S315080145A00035204638BD044B236000236360F8E7D5
S315080145B005510208454501087D450108D1F810282D
S315080145C001F110030AB103EB82030360704700008F
S315080145D041F63403F7B5CA58154B04469A420D46B7
S315080145E001F61C0721D141F63803CB58EBB901F581
S315080145F0C2560C36294601A8FFF7E0FF3368019A2F
S315080146009A4206D10B4B236020460023636003B010
S31508014610F0BD53F8041B33608B89CA899BB2934258
S31508014620E8D0CB81384610F00BFE034BEBE700BF11
S31508014630055102087D450108D14501080B6819682D
S31508014640136808881B681B8898422CBF0020012024
S315080146507047D0F810282DE9F34180460F4600F13E
S315080146601004C2B104EB82022646121B9210002ADC
S3150801467013DD5510294601A80196FFF72AFF019B6C
S31508014680196809680988B9423EBF551B05F1FF3506
S315080146901E1D2A46EBE72246E6E7D8F810380BB185
S315080146A004EB8304B44208D0306803681B88BB4214
S315080146B088BF002002B0BDE8F0810020FAE7D0F8F3
S315080146C010282DE9F34180460F4600F11004C2B1C6
S315080146D004EB82022646121B9210002A13DD55109E
S315080146E0294601A80196FFF7F4FE019B1968096896
S315080146F00988B9423EBF551B05F1FF351E1D2A46DD
S31508014700EBE72246E6E7D8F810380BB104EB830449
S31508014710B44208D0306803681B88BB4288BF0020B2
S3150801472002B0BDE8F0810020FAE710B50988044611
S31508014730FFF78FFF014628B104F61C00BDE81040BB
S3150801474010F067BE10BD38B50446084611881D46E7
S31508014750FFF7B5FF014610B92071204638BD2A4634
S315080147602046FFF78FFBF8E700F61C0010F051BE54
S3150801477037B5044600F11005014601A8FFF71EFFEB
S31508014780019BAB4205D055F8041B2046FFF7ECFF09
S31508014790F6E703B030BD10B5044600F61C0010F06C
S315080147A04FFD48B141F65402A35A01339BB2A352B5
S315080147B041F658030122E25410BD41F64C0300F1BB
S315080147C01002C25041F65002835A01339BB28352FA
S315080147D041F658030122C254704773B5044601468F
S315080147E001A8FFF7EBFE04F11006019BB3420BD0BB
S315080147F056F8045B2846FEF788FE0028F5D0AB89F3
S3150801480001339BB2AB81F0E72046FFF7D6FF02B032
S3150801481070BD10B5044600F61C0010F03FFD41F6C8
S315080148205402A35A01339BB2A35241F658030122FB
S31508014830E25410BD2DE9F74FD0F8107806460191DC
S3150801484000F11004CFB104EB8705A0462D1BAD106E
S31508014850002D65D04FEA550B4FEA8B0A08EB0A097A
S3150801486001AA49462046FFF7E9FE40B1013D09F193
S315080148700408A5EB0B0B5D46EAE72546E5E74A463C
S3150801488001A92046FFF7DAFE0028F4D108EB8505D1
S315080148904FEAAA0ABAF1000F14D04FEA5A0B08EBED
S315080148A08B03194601AA20460093FFF7C7FE009B12
S315080148B030B10AF1FF3AAAEB0B0A03F10408E9E75A
S315080148C0DA46E7E709F10409A5EB0905AD108DB14B
S315080148D04FEA550A09EB8A0B5A4601A92046FFF702
S315080148E0ADFE28B9013DA5EB0A050BF10409EEE772
S315080148F05546ECE7C14513D004EB8704A14507D01B
S31508014900A4EB090540462A46494617F013FAA84476
S31508014910D6F81038A4EB0804A3EBA404C6F810488B
S3150801492003B0BDE8F08F000070B50446FDF710FB33
S31508014930184B00252360184B04F61C061C60174B00
S31508014940C4F81058C4F814380123304684F81838C6
S3150801495010F062FF41F64403114A04F5C250E250D1
S3150801496041F648032146E5500C30FFF727FE41F68C
S315080149705003E552E21841F654035580E552E21810
S3150801498041F6580355803046E55410F09DFC204603
S3150801499070BD00BF94CA02080C410020E0C6020897
S315080149A0DD44010800232DE9F74FD1F80078804648
S315080149B00C46914603600371BFB101EB870A254690
S315080149C0AAEB0406B610A6B14FEA560B05EB8B0304
S315080149D019464A4620460193FFF730FE019B30B13E
S315080149E0013EA6EB0B061D1DEDE78A46E7E75E4687
S315080149F0E9E7AA4507D10123B7F5007F88F804300E
S31508014A000ED117F063F92A4649462046FFF716FEE6
S31508014A100028F0D14046C8F8005003B0BDE8F08F31
S31508014A2004EB8706B54206D1D9F8003001372B6069
S31508014A30C4F80078EEE7371F04223946304617F0E6
S31508014A4079F9D4F800387A1B0133C4F800382946B5
S31508014A50B01A17F06FF9D9F800302B60DAE71FB5ED
S31508014A60019101AA00F1100102A8FFF79BFF05B009
S31508014A705DF804FB074B10B50446036000F61C00FD
S31508014A8010F060FB0022044B20461A60FDF758FA25
S31508014A90204610BD94CA02080C41002010B50446F0
S31508014AA0FFF7E8FF204641F65C01FDF7DDFC2046ED
S31508014AB010BD37B5044600F61C0010F02BFB41F675
S31508014AC04403E51868684210C00704EB020146BFB3
S31508014AD0E358A258E3586C4648BFD358204698472E
S31508014AE094E8030085E8030003B030BD10B50D292D
S31508014AF01CD8DFE801F01D1D071F1D071F09090F37
S31508014B0015090F15022010BD1868BDE81040036885
S31508014B109B681847186803689B6898474000F2E73E
S31508014B20186803689B6898478000ECE717F0CEF889
S31508014B300120E8E70420E6E77FB50346406804AAB2
S31508014B40C143059200228142CDE902228DF8042053
S31508014B508DF8002003F1080305AAB8BF0146FFF73F
S31508014B60C5FF80B207B05DF804FB80887047818075
S31508014B70012070474368188C7047000010B5044639
S31508014B80084B40F8443BFEF7CDFC04F12C00FEF738
S31508014B90C9FC04F11000FEF7C5FC2046FDF7D0F963
S31508014BA0204610BDD4CA020810B50446FFF7E6FF31
S31508014BB020465421FDF758FC204610BD0346C0681F
S31508014BC0198CB3F8402003688A1A51425B6851412F
S31508014BD01847FFF7F3BF08B5B0F8403023B1018491
S31508014BE0FFF7ECFF012008BD1846FCE74068FFF710
S31508014BF0F2BF000038B504460025FDF7A9F9124BA6
S31508014C0012492360124B04F110001A6802F61402C5
S31508014C10E260FEF7EBFB0F4B04F12402C4E9093409
S31508014C2025840D4904F12C00FEF7F9FB0B4BA4F87A
S31508014C304050E36304F13C02094904F14400FEF7DC
S31508014C40EEFB204638BD00BFD4CA0208A8E5020813
S31508014C500C410020B4CA0208F0E50208C4CA0208D9
S31508014C60B0E9020810B50446064B40F8743BFEF756
S31508014C7059FC04F15400FEF755FC2046FDF760F98E
S31508014C80204610BDF4CA020810B50446FFF7EAFF2C
S31508014C9020468421FDF7E8FB204610BD10B50446E1
S31508014CA0806E70B1E06803681B68984723695843AA
S31508014CB0A36EB0FBF3F043F69823984228BF184633
S31508014CC080B210BDD0E90B239B1A5810002BB8BF30
S31508014CD01630704770B504461830FFF7F3FF002108
S31508014CE004F14402884208D0636C0233934201D32B
S31508014CF02C3BFBE763640131F4E700231D4604F10D
S31508014D004406994209D0A06C821CB24201D32C3ABE
S31508014D10FBE705800133A264F3E70023A4F85030CA
S31508014D2070BDFFF7D7BFF0B503680E689E421ED067
S31508014D3002339E421BD01C46056834F8021B2A889A
S31508014D408A420BD95A1B5210002A04DD33F8027D18
S31508014D50013A5F80F8E729802346EAE733F8022C0F
S31508014D60914202D223F80229F8E71980F4E7F0BD47
S31508014D70F0B5541E04EBD4746510046808468542E0
S31508014D8010DD01304000471E34F817C034F810E032
S31508014D900646E64538BF384634F81070264426F8E4
S31508014DA0027CECE7D5070CD4023A02EBD272B0EBDF
S31508014DB0620F06D14200013234F8125024F810501D
S31508014DC01046421E02EBD27252104500814204EB94
S31508014DD005060ADA34F81200834206D96053501ED2
S31508014DE000EBD07510466A10EFE73380F0BD2DE968
S31508014DF0FF47804689461568D8F80040281B0628CB
S31508014E007ADD002B39D1D9F800600236331B022B23
S31508014E104FEA630A13DDAAF1020707EBD7777F107A
S31508014E204FF0000234F8173039468DF8002003A8F0
S31508014E3052460394FFF79CFF0FB1013FF0E7B542D5
S31508014E4010D93388228893420AD232804FF0000261
S31508014E5000218DF8002003A852460394FFF788FF26
S31508014E600236ECE7D8F80020D9F8003011881888FE
S31508014E701080198004B0BDE8F0878010B4F802E00C
S31508014E8034F810C0013BE64504F1020135F8027C0D
S31508014E9026880CD2BC4504D2A4F800C024F81060B8
S31508014EA00AE0BE4505D2278025F8026C04E0BE4516
S31508014EB017D2A4F800E066800846B4F800E030F896
S31508014EC0027B774513D3AE1E354636F802C9E64549
S31508014ED0FAD38D4208D8D9F80000884209D2116060
S31508014EE089E7BC45D8D2DEE720F802CC2F800146F7
S31508014EF0E2E7C8F800107EE74FF0000203A902A80E
S31508014F00CDE90245FFF70FFFB4E790427FB515D00B
S31508014F100B68934212D0CDE90430131A5B10B3FA29
S31508014F2083F303924FF00002C3F11F038DF80020AB
S31508014F305B0003AA04A905A8FFF759FF07B05DF8A6
S31508014F4004FBD0E90023D26A934236BF03F12C0051
S31508014F50981A801A40107047F0B5002791B0084694
S31508014F600E460F97FFF7AEFE1528054601D916F02E
S31508014F70ADFE04AC39464200204616F0F5FE0F9AFE
S31508014F80684615440F95D6E90B23CDE90062CDE9AC
S31508014F900263FFF7D6FF074602A8FFF7D2FF2246AC
S31508014FA0C01B2C3600280BDD019B33F8021B22F8A7
S31508014FB0021BB34201D32C3BFBE701930138F1E70E
S31508014FC06E1E26F00106A3190293EB071CD4BDB188
S31508014FD004EB450202A92046FFF797FF0F9AA65B45
S31508014FE022F001056319029362B104EB42022046DD
S31508014FF002A9FFF78AFF605B3044400811B0F0BD93
S315080150002246E7E72246F2E7204604EB450202A9D3
S31508015010FFF77BFFA05BF1E738B5044600F11405FD
S31508015020FFF73CFEA36C04F11801023B994201D932
S315080150302C33FBE7A364636C023B994201D92C33F9
S31508015040FBE7188063642846FFF786FFA4F850003B
S3150801505038BDF8B504461746B1B1152928BF15213B
S315080150600D46261D3046FFF72DFE281A034604F184
S315080150703002002B0ADB04F13001A3B1626B951CE7
S315080150808D420CD32C3DFBE70125EAE7256B02355A
S31508015090954201D32C3DFBE725630133E9E71780E8
S315080150A0013B6563E9E720B131462046FFF754FF26
S315080150B0A087F8BDF8B504460D461646FCF748FF25
S315080150C01B4BE6602360AB692C22236104F11803AC
S315080150D00021184616F048FE0026164B04F114075F
S315080150E0E364C4E9110032463846A4F85060152134
S315080150F0FFF7AFFF04F14C02296804F15400FEF7EB
S315080151008EF9D5E902122B690B48C4E91B23C4E9B8
S31508015110190104F16402696804F17400FEF78CF957
S31508015120384632466969FFF794FF2046F8BD00BF45
S31508015130F4CA020878C8020888C80208B0F9040047
S315080151407047818001207047F0B503680E689E425A
S315080151501FD002339E421CD01C46056834F9021B37
S31508015160B5F900208A420BDD5A1B5210002A04DDCC
S3150801517033F8027D013A5F80F8E729802346E9E79B
S3150801518033F9022C914202DA23F80229F8E7198049
S31508015190F4E7F0BDF0B5541E04EBD4746510046849
S315080151A00846854210DD01304000471E34F917C014
S315080151B034F910E00646E645B8BF384634F91070AA
S315080151C0264426F8027CECE7D5070CD4023A02EB12
S315080151D0D272B0EB620F06D14200013234F9125095
S315080151E024F810501046421E02EBD27252104500A6
S315080151F0814204EB05060ADA34F91200834206DD18
S315080152006053501E00EBD07510466A10EFE73380E5
S31508015210F0BD2DE9FF47804689461568D8F8004054
S31508015220281B06287FDD002B3DD1D9F80060023600
S31508015230331B022B4FEA630A13DDAAF1020707EBB8
S31508015240D7777F104FF0000234F9173039468DF8B9
S31508015250002003A852460394FFF79CFF0FB1013FB4
S31508015260F0E7B54212D9B6F90030B4F900209342F5
S315080152700ADA32804FF0000200218DF8002003A8D7
S3150801528052460394FFF786FF0236EAE7D8F800206C
S31508015290D9F80030B2F90010B3F90000108019806E
S315080152A004B0BDE8F0878010B4F902E034F910C003
S315080152B0013BE64504F1020135F9027CB4F90060C7
S315080152C00CDABC4504DAA4F800C024F810600AE038
S315080152D0BE4505DA278025F8026C04E0BE4517DAD3
S315080152E0A4F800E066800846B4F900E030F9027BCC
S315080152F0774513DBAE1E354636F902C9E645FADBB4
S315080153008D4208D8D9F80000884209D2116084E78D
S31508015310BC45D8DADEE720F802CC2F800146E2E761
S31508015320C8F8001079E74FF0000203A902A8CDE9F1
S315080153300245FFF709FFB3E7C068704710B5D0E922
S3150801534001329342184604D053F8084B8C42F8DDD3
S315080153500246104610BDD0E901329A4273B5054698
S315080153600E4614D0684600F07FFD9DF8043073B1EF
S3150801537000992846FFF7E2FF0446AB68A34206D028
S315080153802168304600F08CFD10B90834F5E7002095
S3150801539002B070BD10B5D0E901439C42A3F10800E3
S315080153A003D0026803468A42F7DA10BDD0E9013212
S315080153B09A4273B505460E4615D0684600F054FD67
S315080153C09DF804307BB100992846FFF7E3FF0446B0
S315080153D06B68083B9C4206D02168304600F060FDA8
S315080153E010B9083CF4E7002002B070BD10B5D0E949
S315080153F001329342184604D053F8084B8C42F8D12F
S315080154000246104610BD00007FB50646684680E88C
S315080154100C0002A8154600F027FD9DF80C406CB15A
S3150801542002993046FFF7E2FFB368984209D001991D
S315080154304368054A491B284616F09EFC204604B0D7
S3150801544070BD0024FAE700BF2CB303084068704713
S3150801545070B586B0064602A880E80C0004A8154671
S3150801546000F002FD9DF8144044B1049B0399009392
S31508015470044A7368491B284616F07EFC204606B086
S3150801548070BD00BF58CB020843681020994228BF57
S315080154901946FDF704B810B50C461146FFF7F4FF97
S315080154A001462046BDE8104000F02EBC10B50C465A
S315080154B01146FFF7E9FF41422046BDE8104000F0DA
S315080154C023BC05207047000030B587B002A880E8E4
S315080154D00C0004A8154600F0C7FC9DF814406CB1F1
S315080154E0049B0399C3F38132C3F30D030093054B60
