S02B0000453A5C7265706F735C63735C72656C656173655C6373335C6373335C6170705C6373332D73706F72A4
S3150801000000400020210201082502010827020108F3
S315080100103D0201083F0201085502010800000000DF
S31508010020FFFFFFFF00000000000000006B0201084F
S315080100306D020108000000006F0201087102010843
S315080100403D4902084D4902085D4902086D49020801
S315080100507D4902088D4902089D490208AD490208F1
S31508010060BD490208CD490208DD490208ED490208E1
S31508010070FD4902080D4A02081D4A02082D4A0208CE
S315080100803D4A02084D4A02085D4A02086D4A0208BD
S315080100907D4A02088D4A02089D4A0208AD4A0208AD
S315080100A0BD4A0208CD4A0208DD4A0208ED4A02089D
S315080100B0FD4A02080D4B02081D4B02082D4B02088A
S315080100C03D4B02084D4B02085D4B02086D4B020879
S315080100D07D4B02088D4B02089D4B0208AD4B020869
S315080100E0BD4B0208CD4B0208DD4B0208ED4B020859
S315080100F0FD4B02080D4C02081D4C02082D4C020846
S315080101003D4C02084D4C02085D4C02086D4C020834
S315080101107D4C02088D4C02089D4C0208AD4C020824
S31508010120BD4C0208CD4C0208DD4C0208ED4C020814
S31508010130FD4C020885020108850201080D4D0208D9
S315080101401D4D02082D4D02083D4D02084D4D020870
S315080101505D4D02086D4D02087D4D02088D4D020860
S315080101609D4D0208AD4D0208BD4D0208CD4D020850
S31508010170DD4D0208ED4D02088502010885020108D8
S31508010180FD4D020808B500F0C1F81D4D1D4AAA42E9
S315080101900BD2D2E900130C3252F8044CC91A9C420C
S315080101A0F5D9585843F8040BF9E70021164A174CB4
S315080101B0A24208D252F8083B52F8040C9842F7D9E1
S315080101C043F8041BFAE702F067F90026104C114DB3
S315080101D02D1BAD10B54204DD54F8043B9847013692
S315080101E0F8E700260C4C0D4D2D1BAD10B54204DD6C
S315080101F054F8043B98470136F8E720F027FFFEE755
S315080102006404010858040108640401086C0401081F
S315080102106C0401086C0401086C0401087C040108DB
S3150801022014480047FEE71EF0040F0CBFEFF30880E1
S31508010230EFF309807146104A1047FEE7FEE71EF004
S31508010240040F0CBFEFF30880EFF3098071460B4AE0
S315080102501047FEE71EF0040F0CBFEFF30880EFF31B
S3150801026009807146064A1047FEE7FEE7FEE7FEE704
S3150801027070470000850101083B0201085302010885
S3150801028069020108FEE7FFFF1B4B1A6822F4502298
S315080102901A601A6842F480321A601A689103FCD50A
S315080102A00121164A520102F1844211604FF41442A7
S315080102B09A60134A116821F0040111606FF07F41B9
S315080102C05160116841F0010111600E4A5A601A68BD
S315080102D042F080721A601A689201FCD540F20361F5
S315080102E0094A11609A6842F002029A609A6802F015
S315080102F00C02082AFAD17047003802407438020005
S3150801030010E000E00C3C4005003C024038B50024F2
S315080103104848036843F0010303608460036823F0D7
S31508010320847323F480330360434B4360036823F4E7
S3150801033080230360C460FFF7A7FF404B404A9A60D9
S3150801034062B6404ADA60036943F020030361036930
S3150801035023F020030361036B43F020030363BFF318
S315080103604F8F4FF0A043384A13604FF4004393610F
S315080103704FF480439361436A43F480734362436A4B
S3150801038023F480734362436C43F4807343640369C3
S3150801039043F001030361036923F001030361036B5E
S315080103A043F001030363BFF34F8F284B284D996828
S315080103B041F00101996027494C60296841F440419F
S315080103C029604FF4807159604FF4001119610721B2
S315080103D059634FF000419161996841F080419960F4
S315080103E019688907FCD5D96CB1F5946F00D3013426
S315080103F0642CF1D14FF4004393614FF0804393612C
S31508010400436A43F480734362436A23F48073436205
S31508010410436C23F480734364036943F02103036146
S31508010420036923F021030361036B23F021030363AB
S3150801043038BD00BF003802401030002400ED00E04E
S31508010440000001080003FA050014024000200140DB
S30D080104500000024000230140EF
S315080104584CC6040800400020F0400020F040002067
S315080104684CAE00202525010841C901086DC90108B6
S30908010478C94F02084F
S3150801048070B5002604461D46C0E9001206721046DC
S315080104900FF098FE606801210FF056FF20684FF4AF
S315080104A0E13110F05DFD3146206810F07BFD2946EB
S315080104B0206810F0A2FD2068294610F092FD20461A
S315080104C070BDF0B5154685B0039101A981E80C0008
S315080104D004460068029ED0E90532D21A036AC76942
S315080104E0511EDB1B48BF9B18771B3A1DCB1A9A4234
S315080104F003D90123237205B0F0BD9DF80C1010F045
S31508010500AFFCF9B2206810F0ABFC9DF80E1020681C
S3150801051010F0A6FC9DF80F10206810F0A1FCB5425A
S31508010520E9D015F8011BF7E72DE9F0410D4686B02C
S3150801053069468046286881E80C00174610F005FDD3
S315080105400328044606D80023404688F8043006B036
S31508010550BDE8F08103AB04AE0493059696E8060060
S31508010560286810F0CEFC9DF80D300433A342EAD872
S315080105700424286810F093FC013CFAD1019C9DF8EB
S315080105800D30E41B9C4228BF1C4604972744059757
S3150801059096E80600286810F094FC9DF80D30A342F1
S315080105A004D9286810F07BFC0134F6E70398012387
S315080105B0C8F80000C8E7006810F0C1BC024A02602A
S315080105C000224260704700BFBD050108024A026069
S315080105D000224260704700BF951701080020704746
S315080105E000797047017101207047007970470171E0
S315080105F001207047072998BF436882B09BBF03EB68
S3150801060041031B8E0023ADF8043098BF0123002057
S315080106108DF80630BDF8043063F30F00BDF80630D7
S3150801062063F31F4002B070470020704708207047E7
S31508010630072998BF436882B09BBF03EB41031B8C14
S315080106400023ADF8043098BF012300208DF8063049
S31508010650BDF8043063F30F00BDF8063063F31F409D
S3150801066002B0704708207047072998BF0B4B82B024
S315080106709BBF03EB81035B880023ADF8043098BF69
S31508010680012300208DF80630BDF8043063F30F000E
S31508010690BDF8063063F31F4002B07047C02C03084B
S315080106A008207047072998BF0A4B82B097BF33F8CD
S315080106B021300023ADF80430012300208DF80630DF
S315080106C0BDF8043063F30F00BDF8063063F31F402D
S315080106D002B07047C02C03080820704741680B48D0
S315080106E0D1E90123824202D16BB9C869704708482A
S315080106F08242F9D007498A4205D1002B14BF4FF02F
S31508010700FF30082070474FF0FF307047050B01088E
S31508010710850B0108BD0501080020704737B50D4650
S3150801072004460C4B0C4900930233019302AB13E9BF
S315080107300C0005F10C000968FFF7C3FE05F154002A
S315080107400A2101F08FFE054B2046236000236360D2
S3150801075003B030BD3D2D0308FC2C03081910010810
S3150801076030B591F82C300C46B3FA83F3054685B0BB
S315080107705B098DF8043081F84D3001AB02930C49C1
S315080107800DF10503039304AB13E90C0004F10C0006
S315080107900968FFF796FE04F154000A2101F062FE8A
S315080107A0044B28462B6000236B6005B030BD00BFA3
S315080107B0EC2C03084D10010837B50D4604460C4BC1
S315080107C00C4900930533019302AB13E90C0005F1BB
S315080107D00C000968FFF775FE05F154000A2101F0BE
S315080107E041FE054B204623600023636003B030BDFC
S315080107F05B2D0308F02C03088110010838B5074B57
S3150801080004460360C06D20B1056801F081FE2846E3
S31508010810F9E7204601F0D9FB204638BD0C2D03081F
S3150801082010B50446FFF7EAFF2046DC2101F072FE07
S31508010830204610BD02780B789A420DD142784B7842
S315080108409A4209D382788B789A4205D1C078CB78B7
S31508010850C31A5842584170470020704770B50025A1
S3150801086004460160C0E9015529460C3001F0F4FD42
S31508010870102608233246E36129466575E582A56196
S3150801088004F1200021F0FAFC3246294604F1300031
S3150801089021F0F4FC094B2046C4E91034084BC4E99D
S315080108A01234084BC4E91434074BC4E91634074B10
S315080108B0C4E91834064BC4E9013570BD842B030815
S315080108C0942B0308A82B0308BC2B0308D02B030879
S315080108D0550A0108437D37B50446C3B16D460C3048
S315080108E001F0D5FDA36828465A1013F0010F04EB51
S315080108F00201636818BFA25804F1040418BFD3584B
S31508010900984795E8030084E8030003B030BD024A1E
S31508010910C0E90123F9E700BF550A01084FF0FF3185
S3150801092008234FF6FF72C0E90613C28200F12001BF
S3150801093000F13003994202D021F8022BFAE74FF66B
S31508010940FF7200F140018B4202D023F8022BFAE72D
S31508010950437D0BB10023437570470000022330B570
S3150801096085B08DF8053091F82C300C46002B0CBF5C
S315080109700423002305468DF8043001AB02930E4982
S315080109800DF10603039304AB13E90C0004F10C0003
S315080109900968FFF796FD0A2104F1540001F062FD8A
S315080109A004F16000FFF7BAFF044B28462B600023C9
S315080109B06B6005B030BD00BFE82C03088111010842
S315080109C0002200B589B006928DF81C20C8228BB288
S315080109D001918DF81530090C1B128DF816308DF81A
S315080109E0171005AB091203938DF81B208DF8181003
S315080109F0027D0DF11D030649049303AB8DF81420FE
S31508010A0009680CCB0068FFF75CFD09B05DF804FBCB
S31508010A102D2D030838B5CB690C46072B88BF002353
S31508010A20054688BFCB61CA69084B204653F8221090
S31508010A30FFF7C6FF04F10C004FF4C87101F012FD6F
S31508010A40034B28462B6000236B6038BDC02C030876
S31508010A50050B01084B7D10B504461BB1FFF7DAFFFC
S31508010A60204610BD014AC0E90023F9E7550A0108E5
S31508010A7038B50D460446CA69084B284653F822106C
S31508010A80FFF79EFF05F10C004FF4C87101F0EAFC6F
S31508010A90034B204623600023636038BDC02C03083E
S31508010AA0850B010870B5002205460823084601F1A1
S31508010AB0200634463188248A0236A14228BF2146B7
S31508010AC0B1F5005F07D2082B15D000EB4304248C3F
S31508010AD08C4288BF13460132082AEAD1082B04D072
S31508010AE0064A52F82310FFF76BFF054B28462B6081
S31508010AF000236B6070BD1346EDE700BFC02C0308E9
S31508010B00BD05010870B5CB690446C8685A0040B9E5
S31508010B104FF6FF758818068CAE4204BF4FF6FE7570
S31508010B2005844FF6FF700A44128C824220D0072BA7
S31508010B3013D1CB6901EB4302128CB2F5005F04D3E2
S31508010B402046FFF795FF204670BD1BB92046FFF7E3
S31508010B50A9FFF8E7013BCB61EBE70848013330F819
S31508010B6023009042E5D2CB612046FFF753FFEAE71F
S31508010B70034B236000236360E5E700BFC02C03082D
S31508010B80050B010838B5CB69CD6801EB430304466B
S31508010B904FF6FF72188E6DB9904202D14FF6FE726A
S31508010BA01A864FF6FE72CB695BB92046FFF77AFFC4
S31508010BB0204638BD9042F4D1074B23600023636079
S31508010BC0F6E7013BCB6101EB43031B8C9342EAD168
S31508010BD02046FFF74DFFEBE7850B010838B50446BC
S31508010BE00C200D4601F088FC0346021D95E803001A
S31508010BF082E80300E26DE3651A6038BD2DE9F0412C
S31508010C008CB06B4683E8060090F84F3006469BB3D6
S31508010C10541A142C28BF14240D46002104F1040883
S31508010C2005AF424638460B9121F028FB96F84E301F
S31508010C300B9A8DF81430B6F8523042448DF81530B7
S31508010C401B128DF816302B460B928DF8174006AA03
S31508010C502C449C4204D013F8011B02F8011BF8E747
S31508010C600B9B07493B44CDE9037303AB0CCB0968DE
S31508010C7006F10C00FFF725FC0CB0BDE8F08100BFBA
S31508010C80602D030838B505460C4652B101F120031B
S31508010C9001F1180292E8030083E80300012384F8AE
S31508010CA03830206900210FF04FFB04F154004FF44E
S31508010CB0967101F0D7FB034B28462B6000236B6026
S31508010CC038BD00BF010E01087FB50446543001F056
S31508010CD0DEFB04F1C80001F0DAFB04F1D00001F0F3
S31508010CE0D6FBE36902AE5A1013F0010F04EB0201B9
S31508010CF0A36918BFA258304618BFD35804F118057E
S31508010D00984796E8030085E8030004F16000FFF7B9
S31508010D10E1FD237D5BB100236E46214630462375EE
S31508010D200122FFF7AFFF96E8030085E8030004B048
S31508010D3070BD00002DE9F043002604460D46B04675
S31508010D40DFF8749085B0CDE9028802AF97E80C0008
S31508010D5005F10C016846FFF7E7FB9DF804304BB136
S31508010D60009B494638460293FFF764FD002818BFE1
S31508010D700646E8E77EB1022285F84D2095F84F2010
S31508010D800AB185F84F300A4B236000236360204679
S31508010D9005B0BDE8F0836B6D2BB9012229462046C3
S31508010DA0FFF770FFF3E7034BC4E90036EFE700BF2F
S31508010DB0710E0108350D0108292D030837B50D46B1
S31508010DC004460C4B0C4900930133019302AB13E91A
S31508010DD00C0005F10C000968FFF773FB05F15400D7
S31508010DE0642101F03FFB054B204623600023636025
S31508010DF003B030BD282D0308242D0308350D01083D
S31508010E0038B50D460446012128690FF09DFA6B6D28
S31508010E104BB905F10C00FFF7CEFB29462046FFF733
S31508010E20CDFF204638BD024B236000236360F8E7F7
S31508010E30010E010873B500250E460446CDE9005595
S31508010E40094902AB13E90C0006F10C000968FFF722
S31508010E5038FB06F154000A2101F004FB2046034B36
S31508010E60C4E9003502B070BDF42C0308D10F01089E
S31508010E7091F82C2010B5012A044605D891F834308A
S31508010E8043B9FFF74BFC03E0044B036000234360BF
S31508010E90204610BDFFF7CEFFFAE700BF710E010825
S31508010EA038B591F84E300C4681F874300123054661
S31508010EB081F8753001F1C80001F0D1FA04F1D000CA
S31508010EC001F0CDFA0023034A84F83830C5E9002336
S31508010ED0284638BDA11A010882B02DE9F04F89B01C
S31508010EE000AFFB6499463B6D0646FB60D7E915A33F
S31508010EF0A3EB0A05BB6005F1090323F00703ADEB74
S31508010F00030D0C46E8469346AA1C0DEB02037B60CB
S31508010F1001F10C033B607B68C7F81880FB6107F198
S31508010F20200313E90C00396807F11000FFF7FCFAF2
S31508010F303A7D7B7C9AB9636D5BB9012221463046BD
S31508010F40FFF7A0FE30462437BD46BDE8F04F02B094
S31508010F507047183494E8030086E80300F2E73A7C00
S31508010F60202AD8D1012BD6D9B97C9BF802209142E7
S31508010F70D1D1F97C9BF803209142CCD198F8002075
S31508010F80002ADAD198F80120002AD6D1BA68A3F145
S31508010F90020B92450FD1FB68FA685B1084F84CB0D6
S31508010FA0D20704EB030148BFE358304648BF53F85C
S31508010FB00990C847C6E75D452A4628BF5A46002A0A
S31508010FC0E9D008F10201504621F030F9E3E70000C3
S31508010FD0002330B504460D4689B0CDE9043301AA8C
S31508010FE004A903C982E803000093084A084B294665
S31508010FF02046FFF771FF2268064B9A4203D16368C0
S315080110000BB985F83430204609B030BDF42C0308F5
S315080110101D07010819100108002330B504460D46BD
S3150801102089B0CDE9043301AA04A903C982E80300FA
S3150801103000932046034B044A2946FFF74DFF2046F5
S3150801104009B030BD61070108FC2C0308002330B53F
S3150801105004460D4689B0CDE9043301AA04A903C99A
S3150801106082E8030000932046034B044A2946FFF70A
S3150801107033FF204609B030BDB9070108EC2C030837
S3150801108030B501F1500389B0049301F15203059378
S3150801109004AA01AB05460C4692E8030083E803005F
S315080110A0002328460093044A044B2146FFF714FF00
S315080110B0284609B030BD00BFF02C03088114010889
S315080110C0002330B504460D4689B0CDE9043301AA9B
S315080110D004A903C982E8030000932046034B044A86
S315080110E02946FFF7F9FE204609B030BD311501083A
S315080110F0F82C030830B589B0044606A80D4613F046
S3150801110087FEDDE906239B1A082B4FF0000394BFDF
S315080111100B4A0C4ACDE906230023CDE9043304AA78
S3150801112001AB92E8030083E80300079B204600937E
S31508011130054A069B2946FFF7CFFE204609B030BD72
S315080111405D09010811160108002D0308002330B5B1
S3150801115004460D4689B0CDE9043301AA04A903C999
S3150801116082E8030000932046034B044A2946FFF709
S31508011170B3FE204609B030BD5D090108002D0308FC
S31508011180002330B504460D4689B0CDE9043301AADA
S3150801119004A903C982E8030000932046034B044AC5
S315080111A02946FFF799FE204609B030BDCD0501084D
S315080111B0E82C0308F0B587B004460846694681E875
S315080111C00C001349FFF736FB9DF830609DF8347023
S315080111D0054668B1009A137A8DF80F301FB956B1D2
S315080111E0527BFF2A07D084F84E30012384F84F300A
S315080111F0284607B0F0BD0DF10F030493054904AB6A
S3150801120005930CCB096804F10C00FFF75AF9EFE7CF
S31508011210532D0308392D0308F0B587B0054608464E
S31508011220694681E80C001A49FFF704FB9DF83070FE
S315080112300446E8B1009B05F10C0093F800C003AE23
S315080112400DF10E02134904ABAFB195F84F7097B182
S3150801125095F84E5065450ED10124CDE90462096819
S315080112600CCB8DF80D408DF80C503C46FFF729F94B
S31508011270204607B0F0BD0025CDE9046209680CCB0C
S31508011280ADF80C508DF80CC0FFF71BF9F0E700BF5D
S31508011290472D0308432D0308F0B585B00F46694667
S315080112A0054681E80C0038461249FFF7C3FA064697
S315080112B0E0B1009C95F84E3022789A4216D12379EE
S315080112C0A3B9637993B97B78A279073B9A420DD181
S315080112D0ED6DE71D55B1A379281D07332344CDE9E3
S315080112E0027302A96B6898472D68F3E7304605B083
S315080112F0F0BD00BF3F2D0308F7B5044626460D4647
S31508011300174600F06BFE244B3A4646F80C3B294635
S3150801131001233046FFF7B4F8204B0025A362204B82
S31508011320294623631F4BC4E90655C4E90F341E4BEE
S31508011330C4E90855C4E911344FF4007384F82C50F4
S31508011340A4F84C3084F8345084F8385084F84F5057
S31508011350256504F1540001F07FF831466E46E565CE
S3150801136004F16000FFF77AFA192104F1C80001F0C7
S3150801137073F8332104F1D00001F06EF821463046A6
S315080113802A46FFF77FFC96E8030004F1180383E871
S315080113900300204603B0F0BD0C2D0308E42B030817
S315080113A0F42B0308042C0308142C030830B585B064
S315080113B06B460C4683E80600114645680368AB424E
S315080113C01CD01A68A24206D15A688A4205D014B9B5
S315080113D00A43D20701D50C33F1E71B89ADF80C3066
S315080113E0012300208DF80E30BDF80C3063F30F0091
S315080113F0BDF80E3063F31F4005B030BD0023F0E79A
S315080114001FB5426802AB183292E8030083E803006D
S31508011410074893E80600FFF7C9FF10F47F0F01900C
S315080114200CBF4FF6FF70BDF8040005B05DF804FB6C
S315080114301C2C03081FB5426802AB203292E8030050
S3150801144083E80300074893E80600FFF7AFFF10F4A7
S315080114507F0F01900CBF4FF6FF70BDF8040005B071
S315080114605DF804FB1C2C030810B50C1A134605D0AD
S3150801147001462246184620F0E7FE0346181910BD14
S315080114802DE9F04385B091F84C3000AF022B804628
S315080114900D4607D00122FFF7F5FB40461437BD4636
S315080114A0BDE8F083384613F0B3FCD7E900010B1AFF
S315080114B003F10C0222F00702ADEB020DB5F850203C
S315080114C000248DF800200DF1050C12128DF801206B
S315080114D06E46624603F105098DF804308DF802401F
S315080114E08DF80340013B002B03DB0CF8014B013B54
S315080114F0F9E7FFF7B9FFBE600B494E44FE6007F1F5
S31508011500100313E90C00096805F10C00FEF7D9FF71
S315080115100A2105F1540000F0A5FF044BC8F8003074
S315080115200023C8F80430B8E7F82C0308C1100108ED
S315080115302DE9F0438FB0074601A8894605AD13F09A
S3150801154067FCDDE90186A6EB0806082E4FF02102A5
S315080115504FF000012846344628BF082420F08EFEA5
S315080115604FF48173ADF81630264B082E069303F116
S31508011570F55303F5DE1303F6C453079303F10B532F
S3150801158003F53B2303F5FF73089303F15543A3F5CD
S315080115905513A3F67E1309934FF67A43ADF828300F
S315080115A04FF0E7038DF82A3004F117038DF815304B
S315080115B004F101038DF82B308CBF0823092308EBAE
S315080115C004010DF12D02404619348DF82C302C44B6
S315080115D0FFF74AFF0C490395049403AB0CCB09F1B9
S315080115E00C000968FEF76DFF09F154000A2100F0A5
S315080115F039FF064B38463B6000237B600FB0BDE8D8
S31508011600F08300BF0611076C002D0308F5100108C9
S315080116102DE9F0418EB0064601A8884613F0F8FB7D
S31508011620DDE90174E41B1D2C4FF01D024FF000018A
S3150801163006A828BF1D2420F021FE01238DF81430A9
S3150801164009238DF81730A31C39198DF8153005AD06
S31508011650631C06AA384604348DF816302C44FFF765
S3150801166003FF0B490395049403AB0CCB08F10C005B
S315080116700968FEF726FF08F154000A2100F0F2FE78
S31508011680044B30463360002373600EB0BDE8F08129
S31508011690002D03084D11010808B513460A1A06D08C
S315080116A0194620F0B5FDB0FA80F0400908BD0120C1
S315080116B0FCE700002DE9F341884602A901E90C007F
S315080116C0D0E901352F4A04469342009E42D1B5FA24
S315080116D085F700257F092C494046FFF7ABF8E0B1AD
S315080116E0637D002B33D0227D33789A422FD1B3788C
S315080116F0727842EA0322E2823179F37843EA0123D6
S315080117002383B179737943EA01236383E369072B59
S3150801171003D857B304EB43031A841C4A08F104019E
S315080117204046FFF7B9FF90B1637D83B1338873B142
S31508011730E269072A0BD84FF6FD7103F500538B4270
S3150801174028BF0B469BB2B7B104EB4204238402B00F
S31508011750BDE8F0810E4A934209BFB5FA85F500271F
S315080117606D09002718BF3D46B5E7002DD5D004EB16
S3150801177043031A86D1E7002DE9D004EB42042386F8
S31508011780E5E700BF050B0108352D0308312D0308D0
S31508011790850B01082DE9F04191F8343096B00646DB
S315080117A00C46C3B991F82C30023B012B13D907AF6C
S315080117B001F10C0816AB0597069305AD95E80C00E3
S315080117C0414603A8FEF7B0FE9DF8103063B91F4ADB
S315080117D03260736004E0002221463046FFF752FA70
S315080117E0304616B0BDE8F08116AB0597069395E825
S315080117F00C0003A904F16000FFF75CFF16AB069322
S3150801180094F82C300597B3FA83F35B090193012306
S31508011810009395E80C0003A92046FFF7CBFC48B1D5
S315080118204FF4FA7104F1540000F01CFE084B3360C2
S315080118300023CEE716AB00900597069395E80C00B2
S3150801184003A92046FFF7E8FCB4E700BF951701088E
S31508011850B519010837B50546084602A901E90C007C
S315080118600C4A011D9DF81840FFF716FF60B1009A52
S31508011870137903F001004CB130B1204691785378C1
S3150801188043EA0123A5F8523003B030BDD84300F02E
S315080118900100F9E7572D030813B50446084602A9BE
S315080118A001E90C00074A011DFFF7F6FE38B1009B56
S315080118B05A781B7853EA022318BFA4F8D83002B025
S315080118C010BD00BF4B2D030813B50446084602A9EF
S315080118D001E90C00084A011DFFF7DEFE48B194F83C
S315080118E04F0030B1009B987894F84E30C31A58428D
S315080118F0584102B010BD00BF4F2D03082DE9F04134
S3150801190006460D4694B005AF01F10C0814AB0397D2
S31508011910049303AC94E80C00414601A8FEF704FEC3
S315080119209DF8083073B96A6D42B9002229463046D6
S31508011930FFF7A8F9304614B0BDE8F0810C4AC6E9AC
S315080119400023F7E714AB0397049394E80C0001A965
S3150801195005F16000FFF7AEFE14AB0397049394E814
S315080119600C0001A92846FFF7AFFF0028CED0DCE717
S31508011970FD18010837B50C46054601F14E030093DB
S3150801198001F14F030A49019302AB13E90C0004F173
S315080119900C000968FEF795FD04F15400322100F0A8
S315080119A061FD28462146FFF7A9FF284603B030BD49
S315080119B0392D03082DE9F04391F82C3097B0032B04
S315080119C006460C4615D04B6D9BB107AF01F10C08C5
S315080119D016AB0597069305AD95E80C00414603A895
S315080119E0FEF7A2FD9DF810309BB92C4AC6E90023E3
S315080119F00BE004F1200304F1180292E8030083E8DE
S31508011A00030021463046FFF7B5FF304617B0BDE85B
S31508011A10F0834FF0010916AB0597069395E80C007C
S31508011A2003A904F16000FFF745FE16AB0597069377
S31508011A30CDF8009095E80C0003A92046FFF70AFFA8
S31508011A4020B121463046FFF72BFADEE716AB05979C
S31508011A50069395E80C0003A92046FFF735FF28B140
S31508011A604A4621463046FFF70DF9CEE7CDE9000093
S31508011A7003A995E80C002046FFF79CFB16AB0693D5
S31508011A8094F82C300597B3FA83F35B09009395E82C
S31508011A900C0003A92046FFF7BFFB99E7B519010812
S31508011AA02DE9F04791F82C3096B0032B07460C46E2
S31508011AB002D1FFF75FFF3CE0D1F8C83001F10C080D
S31508011AC007AE63B9CDE907334D49404696E80C00A0
S31508011AD00968FEF7F6FC04F1C80000F0C0FCDFF85F
S31508011AE0289105AD16AB0596069395E80C00414677
S31508011AF003A8FEF719FD9DF81030002B6FD016AB21
S31508011B000596069395E80C0003A904F16000FFF712
S31508011B10D1FD16AB0596069395E80C0003A9204658
S31508011B20FFF7D2FE824640B1002221463846FFF72A
S31508011B30A9F8384616B0BDE8F08795E80C0003A960
S31508011B402046FFF7A9FBCDE900AA16AB0596069331
S31508011B5095E80C0003A92046FFF72CFB16AB069364
S31508011B6094F82C300596B3FA83F35B09009395E84C
S31508011B700C0003A92046FFF74FFB16AB0596069303
S31508011B8095E80C0003A92046FFF786FE38B104F153
S31508011B90C80000F064FC04F1D00000F060FC16AB4C
S31508011BA0069300230596009395E80C0003A92046A1
S31508011BB0FFF750FE10B1214638467AE7494603A891
S31508011BC0FEF738FE00288DD09DF81C209DF81D30A3
S31508011BD0134387D104F1D00000F041FC82E7D4F821
S31508011BE0D02042B904F1200304F1180292E8030057
S31508011BF083E80300DFE7034AC7E9002399E700BF43
S31508011C00E02C0308A11A0108E42C030810B50446C0
S31508011C10164B40F8A03B00F0E3FC04F1900003F0FA
S31508011C2097F904F1800003F093F904F1700003F0C9
S31508011C308FF904F1600003F08BF904F1500003F009
S31508011C4087F904F1400003F083F904F1300003F049
S31508011C507FF904F1200003F07BF904F1100003F089
S31508011C6077F9204600F0B1F9204610BD6C2D03081E
S31508011C7010B50446FFF7CAFF2046C42100F04AFC06
S31508011C80204610BDC368A03093F8381000F080BC18
S31508011C9038B504460D4600F0A1F9254B05F1280291
S31508011CA02360E560234904F1100003F0DAF805F131
S31508011CB03002214904F1200003F0A0F805F13C02A5
S31508011CC01E4904F1300003F0B2F805F144021C493B
S31508011CD004F1400003F0ABF805F1A002194904F13B
S31508011CE0500003F0B1F805F1A802174904F16000A4
S31508011CF003F0EBF805F1B002144904F1700003F0A2
S31508011D00E4F805F1B802124904F1800003F0DDF8A0
S31508011D1005F1C0020F4904F1900003F0D6F802223A
S31508011D200D4904F1A00000F041FC204638BD00BF72
S31508011D306C2D030830740308106C030860680308E7
S31508011D40B070030820690308A06F0308986F030899
S31508011D50106F030840700308F45F030870B5154651
S31508011D6004460E4601F50562296803F060F806F691
S31508011D705C02A96804F1100003F059F806F664023A
S31508011D80696804F1200003F052F806F66C02296925
S31508011D9004F1300003F065F806F67402E96804F107
S31508011DA0400003F05EF8204670BD10B50446403089
S31508011DB003F0CEF804F1300003F0CAF804F120006C
S31508011DC003F0C6F804F1100003F0C2F8204603F048
S31508011DD0BFF8204610BD30B501249440013C1BB123
S31508011DE0012B17D0002030BD8568C368C1F14001B9
S31508011DF08A1A2DBAC2F120001BBAA2F1200105FAEE
S31508011E0000F023FA02F2024325FA01F10A4304EA31
S31508011E100200E8E7D0E90235C1F12000A1F120026C
S31508011E2005FA00F023FA01F1014325FA02F21143FA
S31508011E3004EA0100D7E72DE9F04F099E1BB1012BF2
S31508011E4036D0BDE8F08F4FF00109A2F1200BC2F19F
S31508011E50200A29FA0AFA09FA0BF709FA02F4C2F171
S31508011E60400CACEB010C14F1FF3447EA0A0747F1C1
S31508011E70FF37ACF1200AC56807FA0CF3CCF1200943
S31508011E8004FA0AFA96FA86F824FA09F943EA0A03D9
S31508011E9004FA0CF408FA0CFC876843EA09038CEA8D
S31508011EA0050C03EA0C0327EA04046B40C0E9024364
S31508011EB0D0E902754FF0010CA2F12008C2F1200EFB
S31508011EC00CFA02F30CFA08F42CFA0EFE13F1FF339E
S31508011ED044EA0E0444F1FF32A1F1200C03FA0CFC8A
S31508011EE0C1F120048A4023FA04F442EA0C0222438F
S31508011EF0C1F1200CA1F1200406FA04F426FA0CFC1F
S31508011F008B4044EA0C0406FA01F179406C400B4017
S31508011F1022407B406A40C0E9023292E70023C3614E
S31508011F20704703689B68184730B585B0009B0169FF
S31508011F3003F0004321F000410B430093FF230022E5
S31508011F400446057D8DF805300368C261CDE9022294
S31508011F509B6969468DF8045098476946E0680CF014
S31508011F6097FF05B030BD816931B1C3690A3399421A
S31508011F70C36101D8FFF7D8BF70470000F8B504461A
S31508011F800F461D46164600F029F8094B21692360BC
S31508011F90069B3268A361002322F0004201F000414A
S31508011FA01143E76021612575E3612046F8BD00BF4D
S31508011FB08C2D030810B50446024B036000F005F8A2
S31508011FC0204610BD8C2D03087047704710B504468E
S31508011FD00C2100F09FFA204610BD0000024A02605B
S31508011FE00022C0E901227047B02D030838B505461D
S31508011FF055F8104FAC4206D054F8043C201F9B6894
S3150801200098472468F6E738BD38B5054655F8104FA0
S31508012010AC4206D054F8043C201FDB689847246874
S31508012020F6E738BD38B5054655F8104FAC4206D027
S3150801203054F8043C201F1B6998472468F6E738BD05
S3150801204038B5054655F8104FAC4206D054F8043C4D
S31508012050201F5B6998472468F6E738BD03460021C7
S3150801206010B553F8042F934204D01468C2E900113D
S315080120702246F8E7C0E90133016010BD10B50446F0
S31508012080044B40F80C3BFFF7E9FF2046FFF79DFF9D
S31508012090204610BDD02D030810B50446FFF7EEFF04
S315080120A02046182100F036FA204610BD10B5044620
S315080120B0044B40F80C3BFFF7D1FF2046FFF7DEFF44
S315080120C0204610BDF02D030810B50446FFF7EEFFB4
S315080120D02046182100F01EFA204610BD10B5044608
S315080120E0FFF77CFF044B204623600023E36004F1DD
S315080120F01003C4E9043310BDD02D0308436910B594
S315080121000A1D00F110048B604C6042611A60C368B5
S315080121100133C36010BDF8B504460546002654F8D8
S31508012120103F9C420AD0181F1F68C3E9006603D0F6
S3150801213053F8043C5B6898473B46F2E7C5E9044413
S31508012140EE60F8BD10B50446FFF7C8FF014B2046FF
S31508012150236010BDF02D0308D0E901239B1A99428B
S3150801216038BF535C82B036BF8DF804300023012393
S3150801217000208DF805309DF8043063F307009DF8BB
S31508012180053063F30F2002B070470020704782685C
S315080121904068101A704743681868704738B504468E
S315080121A000F0BCF91D4D0C30224660601C492560C3
S315080121B004F1080002F048FE00F0B0F9083004F115
S315080121C01802E0611749A56104F1200002F03CFEFE
S315080121D000F0A4F904F13002C4E90C50124904F1E3
S315080121E0380002F031FE00F099F90430E06404F198
S315080121F04802A5640D4904F1500002F025FE0C4B76
S3150801220004F1600223660B4B0B4963660833A36628
S3150801221004F16C0002F073FE204638BD102E030847
S31508012220006E0308086E03088072030840710308EC
S31508012230202E03082C2E03080871030810B504463E
S315080122406C3002F085FE04F1500002F081FE04F1C3
S31508012250380002F07DFE04F1200002F079FE04F157
S31508012260080002F075FE204610BD0079704700206F
S3150801227070470000024A026000220271027270472A
S315080122803C2E030829B1037A83F001030371017215
S3150801229070470B46FAE719B9037A03710172704759
S315080122A00023FAE7027843781AB11B0183F31188F0
S315080122B070470BB162B6704772B67047C368017151
S315080122C08360704719B9C368017183607047836871
S315080122D023B1013B83600023037170470123FBE7A8
S315080122E0034A026000220271C0E90221704700BF59
S315080122F03C2E03080022C0E900220271704770478C
S31508012300034B1B689B6B19440123016003717047DA
S31508012310F0400020037953B1074A01681268926BAD
S3150801232091424FF0000204D2027118467047012308
S31508012330FBE71346F9E700BFF040002013B5044652
S31508012340114B1860114B1B6803F5C15340F8043B48
S31508012350FFF7F8FE04F11C00FFF7F4FE00232068DE
S31508012360A36384F83430E36303694FF47A715B68D5
S3150801237010309847064B20686946CDE900340EF0BF
S31508012380D5FA204602B010BDF0400020F8400020E2
S31508012390C723010838B5836B044601338363006894
S315080123A0836918301B68984794F83430054613B189
S315080123B0201DFFF737FE2068836918301B68984788
S315080123C0401BE06338BD4068FFF7E4BF90F834303E
S315080123D070B5044623BB061D304604F11C05FFF7FC
S315080123E005FE2846FFF702FE0E4B186803F0D6FED7
S315080123F03046FFF709FE2846FFF706FE012384F853
S3150801240034302846FFF70EFE94F83430002BF8D105
S315080124103046FFF715FE2846BDE87040FFF710BEA7
S3150801242070BD00BFF440002073B50646002504467A
S3150801243056F81C0B6946CDE900550EF077FA304679
S31508012440FFF734FE201DFFF731FE2046014B1D60C4
S3150801245002B070BDF0400020C0E900117047436822
S3150801246003607047C0E900117047436833B10268D9
S3150801247064205043B0FBF3F398B27047184670478F
S3150801248008B5FFF7F2FFC0F1640080B208BD036822
S315080124900BB1013B036070477047FEE708B51FF0B3
S315080124A0B1FE582303604FF0FF3008BD044B1A688C
S315080124B01118196003498B6803448B6010467047ED
S315080124C000400020004100200346094A10B5116862
S315080124D0013111604107074918BF20F00703086851
S315080124E018BF0833C4180C6091680B44936010BD7B
S315080124F00041002000400020FFF7E6BFFFF7E4BFD8
S31508012500024A536801335360704700BF00410020F7
S31508012510FFF7F6BFFFF7F4BFFFF7F2BF00487047B2
S3150801252000410020024B0349034A5B1AD3607047F6
S3150801253000C001204CAE0020004100203038092897
S315080125408CBF002001207047FEE70346012029B110
S31508012550CA0748BF584349085B43F8E770475B1AFF
S3150801256010B507D0121A05D0029C241A634393FBAF
S31508012570F2F31944084610BD4068704741600120CE
S31508012580704700880B8898422CBF002001207047AD
S31508012590037D2BB921B1C3697E2B9CBF0133C3616E
S315080125A0017570470023C36103757047002310B591
S315080125B004460273074AC0E900330261064A0375F5
S315080125C0C0E90623054B81600146186800F0FEFC48
S315080125D0204610BDF42B03084C2E03081041002099
S315080125E010B50446034B0146186800F07DFB2046EA
S315080125F010BD00BF1041002010B5036B04463030F2
S315080126009847014604F10C00BDE81040FFF7C0BF2A
S3150801261010B50446044B40F80C3BFFF7E1FF204692
S31508012620FFF7D3FC204610BD5C2E030810B50446FF
S31508012630FFF7EEFF20463821FFF76CFF204610BD55
S3150801264073B505466C460E4684E80C00FFF7C6FCD2
S315080126502846084B316840F80C3B3279FFF7A6FF4C
S3150801266094E8030005F1300383E80300284602B025
S3150801267070BD00BF5C2E030838B504460D4600F050
S31508012680F1F805F628221C4904F1200002F0B6FBF0
S3150801269005F52362194904F1300002F0D5FB05F668
S315080126A03822174904F1400002F0CEFB05F52562F0
S315080126B0144904F1500002F015FC05F66822124986
S315080126C004F1600002F00EFC05F527620F4904F1DA
S315080126D0700002F0FAFB05F678220D4904F1800034
S315080126E002F000FC05F528620A4904F1900002F09F
S315080126F0C5FB204638BD00BF40740308C8680308F7
S31508012700006B0308A06E0308B86F03082874030852
S31508012710207403084874030810B50446903002F083
S3150801272017FC04F1800002F013FC04F1700002F0BA
S315080127300FFC04F1600002F00BFC04F1500002F0FA
S3150801274007FC04F1400002F003FC04F1300002F03A
S31508012750FFFB04F1200002F0FBFB04F1100002F07C
S31508012760F7FB204610BD0C3000F02AB838B50446F0
S315080127700D46FFF733FC2046034B294640F80C3B30
S3150801278000F035F8204638BD7C2E030810B50446FE
S31508012790044B40F80C3BFFF723FF2046FFF715FCD7
S315080127A0204610BD7C2E030810B504462430FFF7D9
S315080127B089FD94F828102046BDE81040FFF7E8BEC9
S315080127C010B50446FFF7EEFE04F124000021BDE82A
S315080127D01040FFF773BD38B504461D46FFF7E6FE00
S315080127E0294604F12400FFF77BFD204638BD38B59C
S315080127F005460C460A790968FFF7D8FEA16805F16E
S315080128002400FFF76DFD284638BD4268012013688C
S3150801281024335360704770B5054614262B6803F1B7
S315080128202402D3F8243A3BB106FB03236C689C4285
S3150801283004D100206A6070BD1346F7E704F114035A
S315080128406B60204600F0E5F80028E7D023682046AB
S315080128501D8800F0B4F845EAC070ECE74068FFF758
S31508012860DABF000010B50446064B01602431416009
S31508012870C0E9023000F108020349103002F0E4FA17
S31508012880204610BD9C2E0308086B030800207047DC
S315080128904368D3F8240A7047002070474368D3F881
S315080128A0240A7047436882B0D3F8242A002091424B
S315080128B03DBF142202FB01314B6A00233EBF1B8830
S315080128C0ADF8043001238DF80630BDF8043063F302
S315080128D00F00BDF8063063F31F4002B07047436826
S315080128E0D3F8240A7047032A97BF4B68002353F885
S315080128F02230036098BF0123037170470420704793
S31508012900406870470C30FFF77FBB000010B50446DE
S31508012910044B0360FFF7FFFB2046FFF7AFFB20469A
S3150801292010BD00BFAC2E030810B50446FFF7EEFF35
S3150801293020461821FFF7EEFD204610BD1423026834
S3150801294003FB012101607047034670B50446D0F8C0
S31508012950245A00200D4A43F8242B65B1194651F82B
S315080129600C2F013D8A4204D01668C2E9000032469E
S31508012970F8E71433F1E704F10C00FFF7C7FF044B3E
S3150801298020461D60FFF721FB204670BD2C2F03084A
S315080129901041002010B50446FFF7D6FF204640F641
S315080129A08821FFF7B7FD204610BDD1F8242A01F189
S315080129B0240312B1142101FB02330360704750F856
S315080129C00C3F834203D01A7D12B91B68F9E700222E
S315080129D01046704707B54068D0F8243A8B4216D995
S315080129E01423243003FB0100FFF7E9FF01238DF8C7
S315080129F0040000208DF805309DF8043063F30700C4
S31508012A009DF8053063F30F2003B05DF804FB00233E
S31508012A10EFE7002250F80C3F834203D0D9691B68BF
S31508012A200A44F9E7104670474B6810B5D3F8241ADB
S31508012A30044691420AD91420243300FB0230FFF7D9
S31508012A40E8FF012320602371204610BD0023FAE721
S31508012A5038B5054655F80C4FAC4204D02046FFF769
S31508012A60A1FD2468F8E738BD03790A7B934228BF9C
S31508012A7013460371036900F10C024B600A60016198
S31508012A80196083680133836070478B680A7B03602A
S31508012A90002310B5836000F10C030271C0E903330A
S31508012AA0FFF7E2FF10BD0423024670B50025037146
S31508012AB052F80C3F934213D099420AD1D1E9004604
S31508012AC0346066608468013C8460C1E900551B680E
S31508012AD0F0E71C7B0679B44228BF34460471F6E751
S31508012AE070BD38B5D0F8243A00F124044BB1142549
S31508012AF005FB0345A54204D02046FFF7A9FF143478
S31508012B00F8E738BD10B50446FFF7EBFF04F10C00F2
S31508012B10BDE81040FFF76ABA2DE9F84304460C30C0
S31508012B20FFF780FA94F82C3A2BB10023204684F853
S31508012B302C3AFFF7D6FF0023D4F8247A04F5246942
S31508012B40C4F8403AC4F8443AC4F8483AC4F84C3A86
S31508012B5004F65828C4F8583AC4F85C3AC4F8603AF6
S31508012B60C4F8643A04F12405EFB1142303FB0757AB
S31508012B70BD4218D028462E79FFF721FF30B104EB64
S31508012B808602D2F8403A0133C2F8403A2846FFF79E
S31508012B9040FF30B104EB8606D6F8583A0133C6F839
S31508012BA0583A1435E4E7002304F52561894503D02D
S31508012BB059F8042B1344F9E7C4F8343A002304F608
S31508012BC06821884503D058F8042B1344F9E7C4F85B
S31508012BD03C3ABDE8F88310B504460C30FFF730FAE5
S31508012BE02046BDE81040FFF77CBF0000D1F8243A23
S31508012BF02DE9F34706468846174601F1240503B32E
S31508012C00142202FB03532C465B1B194A9B1002FB39
S31508012C1003F9B9F1000F16DD4FEA690A514601A811
S31508012C200194FFF78BFE019B39461868FFF7A9FC4B
S31508012C3028B1019CA9EB0A0A14340AF1FF3AD146D4
S31508012C40E7E72B46DFE7D8F8243A13B1142202FB4B
S31508012C500355AC4206D021683846FFF792FC002896
S31508012C6018BF2C463046346002B0BDE8F08700BF75
S31508012C70CDCCCCCC13B504460A4601466846FFF7C7
S31508012C80B5FF01A82146FFF790FEDDE90003C01A4A
S31508012C9018BF012002B010BD13B504460A46014605
S31508012CA06846FFF7A3FF01A82146FFF77EFEDDE987
S31508012CB00003834203D0FFF782FE02B010BD002055
S31508012CC0FBE713B504460A4601466846FFF78EFF39
S31508012CD001A82146FFF769FEDDE90003834201D019
S31508012CE0FFF7B6FE02B010BD37B505468A680C4631
S31508012CF001466846FFF77AFF01A82946FFF755FE00
S31508012D00DDE90003834202D02146FFF7CCFE03B07A
S31508012D1030BD0000F8B50446FFF760F9244B0025DD
S31508012D201C6023461027234A002143F80C2B18461A
S31508012D3018221FF0A3FAFFF7D1F91F4B3A46E360B1
S31508012D401E4B2946C4F8283A1D4BC4F8245AC4F820
S31508012D50303AC4F8383A04F5246384F82C5AC4F88E
S31508012D60345AC4F83C5A18461FF088FA154E04F628
S31508012D705823C4F8540AC4F8506A3A4629461846EC
S31508012D801FF07CFA104BC4F86C0AC4F8703A0F4B62
S31508012D90C4F8686AC4F8783A0D4BC4F8744AC4F89A
S31508012DA07C4AC4F8803AC4F8844A2046F8BD00BF74
S31508012DB0104100202C2F0308AC2E0308F42B03081E
S31508012DC0CC2E0308DC2E0308F02E0308042F030873
S31508012DD0182F03088142F0B524D002680B680AB996
S31508012DE0C0E900000BB9C1E90011D1E90064D0E9D5
S31508012DF000C57768DCF804E0CCF80470C6F804E08E
S31508012E0027682E682F60266004680D6805600C60C7
S31508012E104D68446845604C600AB9C1E900220BB99E
S31508012E20C0E90033F0BD00002DE9F84380460E469F
S31508012E30174610464FF0000908F10C05A5F10C03D9
S31508012E409E4200F114041AD055F80C3C0C3044F893
S31508012E50143C15F8083C40F8049C00F8083C29463F
S31508012E6044E90200FFF7B6FF55F8042C54F80C3C68
S31508012E70143544F80C2C204645F8183CDEE7A6EB39
S31508012E8008060548B6084643142026F0404600FBC6
S31508012E900670BDE8F88300BFCDCCCC0C38B50B68FD
S31508012EA0044603600B790D46037100230C3040F884
S31508012EB0043C0C31C4E90300FFF78CFFA368AA6838
S31508012EC02046A260AB6038BD2DE9F84F00230360A8
S31508012ED00371D1F8003A80460E461746EBB14FF01A
S31508012EE0140909FB0319A9EB0605AB10364D34463F
S31508012EF05D431423ADB14FEA550A03FB0AF239685B
S31508012F00A05804EB020BFFF73CFB142338B1013D33
S31508012F10A5EB0A050BEB0304ECE78946E3E75546FF
S31508012F20E8E7A14508D10123D6F8002A88F8043034
S31508012F30802A0ED11FF054F921683868FFF721FB62
S31508012F400028F0D188F80450C8F800404046BDE88A
S31508012F50F88F142303FB0262944209D139462046AD
S31508012F60FFF79CFFD6F8003A0133C6F8003AEBE7BB
S31508012F70A2F1140511462846FFF756FFD6F8003A7E
S31508012F800133C6F8003AAC420FD055F8143D6B61CF
S31508012F902B7905F10C012B7605F12000FFF71AFFB5
S31508012FA0EB69AA68AB60EA61EDE73B6807F10C01DA
S31508012FB023603B7904F10C002371FFF70BFFA3682B
S31508012FC0BA68A260BB60BFE7CDCCCCCC30B50446AD
S31508012FD00D4689B08A6801466846FFF707FE21460D
S31508012FE003A8FFF7E2FC0098039B2946834203D016
S31508012FF0FFF73AFD09B030BD03A8FFF746FD03AA5E
S3150801300001A804F12401FFF75FFF0022069B06A829
S315080130108342EFD01968C3E900220B46F8E710B5D9
S3150801302004460069002103685B68984760690021C6
S31508013030BDE8104003685B681847000038B5164BB1
S3150801304004461A680069D2F8345A03685B6885B180
S31508013050E268A1695268B1FBF2F101F001019847F2
S315080130600021606903685B689847A3690133A36116
S3150801307038BDD2F83C1A19B1E268A1699268EAE743
S315080130809847E368A1691B686069B1FBF3F10368B6
S3150801309001F001015B68E7E71041002010B504461D
S315080130A0024B0360FEF791FF204610BD4C2F030823
S315080130B010B50446FFF7F2FF20461C21FFF72AFA4E
S315080130C0204610BDF8B504461D460F461646FEF7BE
S315080130D085FF044BC4E90376236000236561A36178
S315080130E02046F8BD4C2F030810B50446006C03684A
S315080130F01B689847B4F944108142A8BF002104F11E
S315080131000C00B8BF0121BDE81040FFF74DBB10B553
S315080131100446006C03681B689847B4F94410814259
S31508013120D8BF002104F10C00C8BF0121BDE8104039
S31508013130FFF73ABB10B50446024B0360FFF726FBBF
S31508013140204610BD6C2F030810B50446FFF7F2FFA1
S3150801315020464821FFF7DEF9204610BD10B5044682
S31508013160024B0360FFF712FB204610BD8C2F0308A4
S3150801317010B50446FFF7F2FF20464821FFF7CAF9C2
S31508013180204610BD2DE9F04105460C4B48201E6826
S31508013190884635F9047BFFF7AFF904462946FFF758
S315080131A0E5FA074BC4F840802360A4F84470214629
S315080131B006F10C00BDE8F041FEF7A0BF1041002062
S315080131C06C2F03082DE9F041054648201746B3F947
S315080131D000608846FFF790F904464146FFF7C6FAAC
S315080131E0054B2846214623602764A4F84460FEF768
S315080131F085FF2046BDE8F0818C2F030813B5074BE0
S315080132000A461C6830F9043BADF80430014601ABA7
S3150801321004F10C00FFF7D6FF02B010BD10410020E3
S3150801322013B5074B0A461C6830F9043BADF8043060
S31508013230014601AB04F10C00FFF7C4FF02B010BD53
S3150801324010410020B0F90400704700207047022998
S3150801325098BF436882B097BF33F811300023ADF8A1
S315080132600430012300208DF80630BDF8043063F3DD
S315080132700F00BDF8063063F31F4002B07047002007
S315080132807047032070471FB5002301248DF80830C5
S31508013290009402AB0DF0AAFA80B19DF808308DF8BA
S315080132A00D408DF80C3000209DF80C3063F30700B3
S315080132B09DF80D3063F30F2004B010BD8DF80D0095
S315080132C0F1E72DE9F34116468DF800208DF8013016
S315080132D06A461D460223074688460DF0BDF9324661
S315080132E0044641463846FFF7CEFFADF804003CB127
S315080132F09DF8054024B19DF80440631B5C425C417E
S31508013300204602B0BDE8F0811FB50023ADF80830AC
S31508013310022342F08002009302AB0DF067FAB0B1C6
S315080133209DF809209DF8083043EA0223ADF80C30D0
S3150801333001238DF80E300020BDF80C3063F30F0021
S31508013340BDF80E3063F31F4005B05DF804FB8DF838
S315080133500E00F0E72DE9FF41044603270125002663
S3150801336094F81180B8F1000F60D02722217CE0681B
S31508013370FFF789FF637CADF80000002BC0F3072037
S3150801338014BF034600236374F8B19DF800301A0789
S315080133901BD52822217CE068FFF7B6FF2A22019077
S315080133A0217CE068FFF7B0FF2C220290217CE068BF
S315080133B0FFF7AAFF637C03903BB19DF806301BB16A
S315080133C09DF80A30002B77D166740722217CE068C4
S315080133D0FFF759FF637CADF80800002BC0F30720FF
S315080133E014BF034600236374E0B19DF808305B07F8
S315080133F018D50C22217CE068FFF786FF637C0390D1
S31508013400002BC0F3074014BF03460023637408B1B9
S31508013410BDF80C000A2300B2584348BFFF3000121A
S31508013420FA30A084637C002B40D042E065740F22F9
S31508013430217CE068FFF727FF10F47F4FADF80C00F9
S315080134402BD09DF80C30332B27D16574C0231F224E
S31508013450217CE068FFF735FFF8B165746723202200
S31508013460217CE068FFF72DFFB8B165744346212238
S31508013470217CE068FFF725FF78B16574434622226F
S31508013480217CE068FFF71DFF38B165748823232284
S31508013490217CE068FFF715FF804684F81180668273
S315080134A0A682E682B8F1000F7FF45FAF013F7FF491
S315080134B057AF04B0BDE8F0819DF80E30002B83D0DC
S315080134C043F64A534FF47A31BDF904205A4392FB25
S315080134D0F1F26282BDF908205A4392FBF1F2A28207
S315080134E0BDF90C20534393FBF1F3E3826DE700002A
S315080134F010B50446024B0360FEF767FD204610BD72
S31508013500D02F030810B50446FFF7F2FF20462821FD
S31508013510FFF700F8204610BD70B5154604460E465D
S31508013520FEF75CFD0A4B002D236014BF32233023BE
S3150801353023740023074AE660A26104F11202E261DC
S31508013540054A6374638263612262A384204670BD5F
S31508013550D02F0308AC2F0308C02F03084068704713
S315080135600020704700797047002070474368988AA1
S315080135707047B0F904007047818001207047007FC9
S31508013580012802D0031F58425841704790F8E43089
S3150801359023B9034B1B6893F8C80C70470020704782
S315080135A0144100204068FFF7F1BF0000044BC068D2
S315080135B01B685B6803EB5003B3FBF0F0704700BF71
S315080135C0144100204068FFF7F1BF000011B9C1603E
S315080135D001207047064B1B685B68B1EB430F05D8A2
S315080135E003EB5103B3FBF1F3C360F1E70020704726
S315080135F0144100204068FFF7E9BF0000044B006949
S315080136001B685B6803EB5003B3FBF0F0704700BF20
S31508013610144100204068FFF7F1BF000021B901619C
S31508013620C0F88C1001207047094B1B685B68B1EB29
S31508013630430F0BD803EB5103B3FBF1F1838A016105
S3150801364059434FF47A73B1FBF3F1E9E70020704768
S31508013650144100204068FFF7E1BF037F032B0BD11C
S31508013660B1F57A7F08D8B0F892308B4228BF0B465D
S31508013670A0F8943001207047002070474068FFF792
S31508013680ECBFB1F57A7F28BF4FF47A71036981825D
S315080136904B434FF47A71B3FBF1F3C0F88C30012038
S315080136A070474068FFF7EDBF0B4B196801F12C0312
S315080136B0C31ADA10094B534323F003030B441A695F
S315080136C04FF4FA635343A3F5EA43303B5200B3FB85
S315080136D0F2F3A0F89230704714410020DF7BEFBD6A
S315080136E0124B70B51D6842F20F740A2342F210712B
S315080136F02A68642603FB0242B2FBF1F2C0F8BC2039
S315080137002A6806FB0242B2FBF1F2C0F8CC202A680D
S3150801371006FB0242B2FBF1F2C0F8DC202B6806FB7D
S315080137200343B3FBF1F3C0F8EC3070BD144100203C
S3150801373000680CF00FBE00680CF006BE037A10B5DF
S315080137400BB1C1F57A710A4B44681A6802F12C0368
S31508013750C01A084BC010584320F0030010440369EF
S3150801376059434FF47A73B1FBF3F1216010BD00BFE1
S3150801377014410020DF7BEFBD0B4B196801F12C03C7
S31508013780C31ADA10094B534323F003030B441A698E
S31508013790017A43681B6801B1D31A4FF47A7058430A
S315080137A0B0FBF2F080B2704714410020DF7BEFBD19
S315080137B04068FFF7E1BF38B500250446C0E93C5526
S315080137C0C0E92655C0E92855C0E92A552946C03019
S315080137D0FEF774FD294604F1D000BDE83840FEF72E
S315080137E06DBD0023C0E92633C0E92833C0E92A3371
S315080137F07047000082B0F0B5D0E927548D42069390
S3150801380064DD491B067F022E65D0A6F1050CDCF1A5
S31508013810000646EB0C060029D4BF00270127B6EBA4
S31508013820D17F0CBF01FB01F30023B7426FF41C766D
S3150801383033440CBF49430021002BD0F8A8604CDA69
S31508013840334423EAE373C0F8A8306FF41C731944B0
S315080138500029D0F8AC3048DA194421EAE171274B3E
S31508013860079E1B6896421F6AA8BF1646069BC0F8A4
S31508013870AC109A42B8BF1A4643F6FF73711B00296A
S31508013880B8BF494207FB01310029B8BFC91805EB82
S31508013890A13543F6FF71131BB542D4BFC0F89C503E
S315080138A0C0F89C60002BB8BF5B4207FB0313002BD3
S315080138B0B8BF5B18A4EBA3339342ACBFC0F8A030E2
S315080138C0C0F8A020BDE8F04002B07047A142CCBFC5
S315080138D0091B002196E701269DE76FF00047BF1BEC
S315080138E09F42D4BFF319F318ADE76FF00046F61AF5
S315080138F08E42D4BF99195918B1E700BF1441002067
S31508013900D0E92A301844054B1B68DA6940F271235D
S3150801391053439842D4BF0020012070471441002028
S31508013920D0F8F430026901339342C0F8F43022BF6B
S315080139300023C0F8F4300123D0F8F42028BF80F81A
S315080139409030D0F88C309A4224BF002380F890300A
S315080139507047D0F8F020F8B5C5680132AA4228BFE9
S315080139600023C0F8F02028BFC0F8F03004460F46FF
S31508013970FFF705FEB4F9506048B3724294F89030E7
S315080139800BB9216971BB05B3002E636BB8BF7642CB
S315080139907343B3FBF7F14FF47A736943B1FBF3F160
S315080139A06B1E9942A8BF1946B4F92C30B342A8BF79
S315080139B0334600B15B42D4F8F000884209DAC1EB1C
S315080139C04000434393FBF1F10A441046F8BD3246E1
S315080139D0D4E76D1A411AA5EB41014B4393FBF5F365
S315080139E01A44F2E71A46F0E72DE9F04F164687B072
S315080139F004468A46FFF794FF3146FFF7AAFF0A27CE
S31508013A006C4B81461D6820466B68B3FBF7FBFFF7D5
S31508013A10B6FD182341F288312A6803FB0BF3B2FB82
S31508013A20F7FC4FEA8B1EB3FBF1F3BEFBF1FEDC4557
S31508013A30A8BFDC4640F6B8324FF47A75039373464D
S31508013A4002FB0CFC626B071E02FB09F292FBF5F204
S31508013A50D4F8A45014BFB0464FF000085D43039B49
S31508013A60A9EB0A0003FB00F348BFFF3503EB252545
S31508013A7040F6B833BCFBF1FCD4F898E003FB0BF332
S31508013A800CFB00EC58428445AAEB09014244C4F8F0
S31508013A90A45003DB6345A8BF6346184690FBFBF3B6
S31508013AA02A444FF47A7513445D4395FBF6F3B3F54F
S31508013AB07A7FC4F8980004DD002906DAC4F898E08C
S31508013AC003E0002B01DA0029F8DCB4F8925020460D
S31508013AD09D42A8BF1D4625EAE575A9B2FFF72EFE48
S31508013AE001212046FFF727FE207F616B0228B4F8E3
S31508013AF0923045D005284FEA410C41D02E4AA3F50C
S31508013B007A73724392FBFCF204924FF47A7273430E
S31508013B1093FBF2F35A43490892FBF1F20592059B8E
S31508013B20204600934A46049B5146FFF763FE4FF42D
S31508013B307A73616B754301FB09F195FBF3F591FB0B
S31508013B40F3F94FF4FA6304F1C000A5EB0805D03484
S31508013B5091FBF3F1F7B101F5FA718D42D4BF00215A
S31508013B600121A9F1FA09FEF7ADFBB5EB490FB4BF7F
S31508013B7001210021204607B0BDE8F04FFEF7A2BBA0
S31508013B80002204924FF47A72734393FBF2F34900CD
S31508013B905A43C1E7A1F5FA718D42ACBF0021012153
S31508013BA009F1FA09FEF78EFBB5EB490FCCBF0121E6
S31508013BB00021DFE71441002018FCFFFF2DE9F04141
S31508013BC005460E461746FFF7ABFEB0F9504034B12D
S31508013BD090F890401CB90469B4FA84F4640928463B
S31508013BE0FFF7CDFC8046844214BFB5F89210002138
S31508013BF02846FFF7A3FD01212846FFF79CFD284625
S31508013C00FFF7EFFD444514BF3C460024B8F1000F09
S31508013C1008BF00274FF47A71A4EB070401FB04F4EB
S31508013C20696B05F1C00094FBF1F404EBD4774FEA14
S31508013C3067074FEA440405F1D00511D0323CB44276
S31508013C40D4BF00210121FEF73DFB07F13201B14244
S31508013C50ACBF002101212846BDE8F041FEF732BB81
S31508013C603234B442ACBF00210121FEF72BFBA7F188
S31508013C703201B142D4BF00210121ECE7134B70B5E3
S31508013C801B6804465E68FFF777FD05462046FFF781
S31508013C904FFDB4F89420B0B10D4BB3FBF6F3E91A16
S31508013CA08A4203DB59199142A8BF1146204689B2B7
S31508013CB0FFF744FD20460121FFF73DFD2046BDE8FB
S31508013CC07040FFF778BD1146F0E700BF14410020A8
S31508013CD040420F00F8B540F6C415A1F500614D4301
S31508013CE048BF05F2FF7504461646ED12FFF747FC75
S31508013CF0002838D06B421BB2A4F8683041F29413FD
S31508013D0005F6CA01994204F1B00794BF00210121C1
S31508013D103846FEF7D7FA1EB901213846FEF7CEFA1C
S31508013D2094F848300BBB00212046FFF704FD237F9A
S31508013D30032B00F086804FF4FA712046FFF7FEFC4C
S31508013D402046FFF738FD002DB8BF6D42182D77DCE8
S31508013D5094F8B430002B73D104F1E0000121BDE8D9
S31508013D60F840FEF7AFBA2BB2C6E794F8E460002E26
S31508013D70D9D0237F5A1E012A0BD91A1F012A46D8E0
S31508013D80314B29461B682046B3F9A82CFFF716FFC5
S31508013D9007E02D4B29461B682046B3F9A82CFFF7E7
S31508013DA023FE2046FFF7ACFD50B1D4E92A320A2199
S31508013DB092FBF1F0834235DA0623002684F878303F
S31508013DC094F8B4301BB10323002684F8783094F8AC
S31508013DD0C4301BB10123002684F8783094F8D43016
S31508013DE03BB3022384F87830002104F1E000FEF7A2
S31508013DF065FA237F032B0CBFB4F89430B4F950301D
S31508013E00C4F88030B4F86830A4F8883013E0032B7E
S31508013E1003D12046FFF732FFC3E70723002684F8BC
S31508013E207830BEE793FBF1F39342CCBF0523042315
S31508013E30C3E7002ED8D094F8E430002B3FF473AFD3
S31508013E40F8BDB4F8941078E71441002038B5037228
S31508013E504FF47A730025C0E900128382304A314B48
S31508013E60C0E90C258361304A304BC0E90F20C0E90F
S31508013E7008302F4A2F4B42648362C3642E4A2F4B64
S31508013E80C0E91B20C0E915302D4A2E4B4267C0E90F
S31508013E9017302D4A2D4B0577858580F84850A0F8AF
S31508013EA050504366A0F8685080F87850C0E9035529
S31508013EB0C0E91F25C0F8843040F2DE33A0F89230FD
S31508013EC04FF4FA730446A0F89430A0F88850C0F865
S31508013ED08C5080F89050C0E92655C0E92855C0E9AC
S31508013EE02A552946B030FEF7FBF9294604F1C000E8
S31508013EF0FEF7F6F9294604F1D000FEF7F1F929464D
S31508013F0004F1E000FEF7ECF92068C4E93C550CF031
S31508013F1059F9206829460CF017FA204638BD00BF22
S31508013F204C2E0308E42B030810300308F02F03086E
S31508013F30F42B030800300308403003082030030837
S31508013F40503003083030030860300308C02F0308D7
S31508013F5013B5D0E90143104A1B1BDB1053439942A1
S31508013F6017D2F82000FB0140D0F8843084301B6852
S31508013F7098470123ADF8040000208DF80630BDF8F6
S31508013F80043063F30F00BDF8063063F31F4002B037
S31508013F9010BD0023F0E700BFDF7BEFBD83684068F3
S31508013FA01B1A0248DB105843704700BFDF7BEFBD81
S31508013FB010B50446D1E9010309491B1ADB104B4325
S31508013FC09A420BD2F82303FB0200C36F7C301B68AD
S31508013FD09847012320602371204610BD0023FAE784
S31508013FE0DF7BEFBD00207047836840681B1A0248D3
S31508013FF0DB105843704700BFDF7BEFBD13B5D0E92F
S3150801400001430F4A1B1BDB105343994216D2F82072
S3150801401000FB0140436F74301B68984701238DF8F4
S31508014020040000208DF805309DF8043063F307007D
S315080140309DF8053063F30F2002B010BD0023F0E7A9
S31508014040DF7BEFBD836840681B1A0248DB105843C3
S31508014050704700BFDF7BEFBD13B5D0E901430F4AB7
S315080140601B1BDB105343994216D2F82000FB014073
S31508014070C36E6C301B68984701238DF80400002035
S315080140808DF805309DF8043063F307009DF8053077
S3150801409063F30F2002B010BD0023F0E7DF7BEFBD0D
S315080140A0836840681B1A0248DB105843704700BFF3
S315080140B0DF7BEFBD13B5D0E901430F4A1B1BDB10AC
S315080140C05343994216D2F82000FB0140436E6430EF
S315080140D01B6898470123ADF8040000208DF80630C7
S315080140E0BDF8043063F30F00BDF8063063F31F40D3
S315080140F002B010BD0023F0E7DF7BEFBD836840689F
S315080141001B1A0248DB105843704700BFDF7BEFBD1F
S3150801411013B5D0E901430F4A1B1BDB1053439942E0
S3150801412016D2F82000FB0140C36D5C301B68984726
S315080141300123ADF8040000208DF80630BDF80430DF
S3150801414063F30F00BDF8063063F31F4002B010BDDC
S315080141500023F0E7DF7BEFBD70B4D0E90164094DB8
S31508014160A41BE4106C43A14208D2F82000FB0160AD
S3150801417070BCC36D11465B685C301847002070BC83
S31508014180704700BFDF7BEFBD836840681B1A024892
S31508014190DB105843704700BFDF7BEFBD13B5D0E98D
S315080141A001430F4A1B1BDB105343994216D2F820D1
S315080141B000FB0140436D54301B6898470123ADF855
S315080141C0040000208DF80630BDF8043063F30F00B3
S315080141D0BDF8063063F31F4002B010BD0023F0E7B7
S315080141E0DF7BEFBD70B4D0E90164094DA41BE4106F
S315080141F06C43A14208D2F82000FB016070BC436DF4
S3150801420011465B6854301847002070BC704700BFE0
S31508014210DF7BEFBD836840681B1A0248DB105843F1
S31508014220704700BFDF7BEFBD13B5D0E901430F4AE5
S315080142301B1BDB105343994216D2F82000FB0140A1
S31508014240C36C4C301B6898470123ADF80400002065
S315080142508DF80630BDF8043063F30F00BDF806305B
S3150801426063F31F4002B010BD0023F0E7DF7BEFBD0B
S3150801427070B4D0E90164094DA41BE4106C43A14252
S3150801428008D2F82000FB016070BCC36C11465B685C
S315080142904C301847002070BC704700BFDF7BEFBD6C
S315080142A0836840681B1A0248DB105843704700BFF1
S315080142B0DF7BEFBD13B5D0E901430F4A1B1BDB10AA
S315080142C05343994216D2F82000FB0140436C44300F
S315080142D01B68984701238DF8040000208DF80530E6
S315080142E09DF8043063F307009DF8053063F30F204A
S315080142F002B010BD0023F0E7DF7BEFBD70B4D0E953
S315080143000164094DA41BE4106C43A14208D2F820AC
S3150801431000FB016070BC436C11465B68443018476A
S31508014320002070BC704700BFDF7BEFBD8368406823
S315080143301B1A0248DB105843704700BFDF7BEFBDED
S3150801434010B50446D1E9010309491B1ADB104B4391
S315080143509A420BD2F82303FB0200C36B3C301B685D
S315080143609847012320602371204610BD0023FAE7F0
S31508014370DF7BEFBD70B4D0E90164094DA41BE410DD
S315080143806C43A14208D2F82000FB016070BCC36BE4
S3150801439011465B683C301847002070BC704700BF67
S315080143A0DF7BEFBD836840681B1A0248DB10584360
S315080143B0704700BFDF7BEFBD10B50446D1E90103A5
S315080143C009491B1ADB104B439A420BD2F82303FB0C
S315080143D00200036B30301B68984701232060237164
S315080143E0204610BD0023FAE7DF7BEFBD70B4D0E9A4
S315080143F00164094DA41BE4106C43A14208D2F820BC
S3150801440000FB016070BC036B11465B6830301847CE
S31508014410002070BC704700BFDF7BEFBD8368406832
S315080144201B1A0248DB105843704700BFDF7BEFBDFC
S3150801443013B5D0E901430F4A1B1BDB1053439942BD
S3150801444016D2F82000FB0140836A28301B6898477A
S315080144500123ADF8040000208DF80630BDF80430BC
S3150801446063F30F00BDF8063063F31F4002B010BDB9
S315080144700023F0E7DF7BEFBD70B4D0E90164094D95
S31508014480A41BE4106C43A14208D2F82000FB01608A
S3150801449070BC836A11465B6828301847002070BCD7
S315080144A0704700BFDF7BEFBD836840681B1A02486F
S315080144B0DB105843704700BFDF7BEFBD10B50446DC
S315080144C0D1E9010309491B1ADB104B439A420BD266
S315080144D0F82303FB0200036A20301B68984701236F
S315080144E020602371204610BD0023FAE7DF7BEFBD6C
S315080144F070B4D0E90164094DA41BE4106C43A142D0
S3150801450008D2F82000FB016070BC036A11465B689B
S3150801451020301847002070BC704700BFDF7BEFBD15
S31508014520836840681B1A0248DB105843704700BF6E
S31508014530DF7BEFBD13B5D0E901430F4A1B1BDB1027
S315080145405343994216D2F82000FB0140836918307B
S315080145501B68984701238DF8040000208DF8053063
S315080145609DF8043063F307009DF8053063F30F20C7
S3150801457002B010BD0023F0E7DF7BEFBD70B4D0E9D0
S315080145800164094DA41BE4106C43A14208D2F8202A
S3150801459000FB016070BC836911465B6818301847D7
S315080145A0002070BC704700BFDF7BEFBD83684068A1
S315080145B01B1A0248DB105843704700BFDF7BEFBD6B
S315080145C070B50446534B01F12C0601F6CC35C0E90A
S315080145D000368560024650490C3000F090FC4F4B7E
S315080145E004F11C02C4E9073665624D4904F1280045
S315080145F000F078FC4B4B04F13802C4E90E36256409
S31508014600494904F1440000F046FC484B04F15402C0
S31508014610C4E91536E565464904F1600000F062FC17
S31508014620444B04F17002C4E91C36A567424904F1FA
S315080146307C0000F057FC414B04F18C02C4E9233697
S31508014640C4F894503E4904F1980000F017FC3D4B1C
S3150801465004F1A802C4E92A36C4F8B0503A4904F16B
S31508014660B40000F018FC394B04F1C402C4E9313630
S31508014670C4F8CC50364904F1D00000F026FC354B7D
S3150801468004F1E002C4E93836C4F8E850324904F1C5
S31508014690EC0000F01AFC314B04F1FC02C4E93F3688
S315080146A0C4F804512E4904F5847000F0F4FB2D4B2F
S315080146B004F58C72C4E94636C4F820512A4904F532
S315080146C0927000F0DBFB294B04F59A72C4E94D366A
S315080146D0C4F83C51264904F5A07000F010FC254B9E
S315080146E004F5A872C4E95436C4F85851224904F5A8
S315080146F0AE7000F0DDFB214BC4F87451C4E95B369A
S3150801470004F5B6721E4904F5BC7000F0C4FB2046D8
S3150801471070BD00BF70300308507003088430030869
S31508014720487303089830030840730308AC3003083C
S31508014730F0730308C030030858730308D43003081C
S3150801474000710308E830030810730308FC300308F6
S31508014750507303081031030828720308243103082B
S315080147605071030838310308587103084C3103089E
S31508014770E872030860310308C0730308743103083B
S31508014780C873030810B5044600F5BC7000F0E0FBD9
S3150801479004F5AE7000F0DCFB04F5A07000F0D8FB60
S315080147A004F5927000F0D4FB04F5847000F0D0FB98
S315080147B004F1EC0000F0CCFB04F1D00000F0C8FBDA
S315080147C004F1B40000F0C4FB04F1980000F0C0FB4A
S315080147D004F17C0000F0BCFB04F1600000F0B8FBBA
S315080147E004F1440000F0B4FB04F1280000F0B0FB2A
S315080147F004F10C0000F0ACFB204610BD10B50446D0
S315080148000846636811462278FDF7E5FA237A2BB143
S3150801481023785A1E012393405840C01A10BD828935
S315080148206AB14369994203DB83698B42A8BF0B4688
S31508014830B0F90A104B4393FBF2F301691944084690
S31508014840704730B5D0E90723044602EBC3039A4201
S31508014850104606D0083252F8045C8D42F7D100683A
S3150801486030BDB4F90A306BB12069091AA0894843E9
S3150801487090FBF3F360698342F2DBA0699842A8BF13
S315080148801846EDE71846EBE773B50D461946044693
S315080148901646FFF7D6FF6368009022782846314608
S315080148A0FDF7C9FA012002B070BD43698B4205DCE8
S315080148B080698842B4BF00200120704700207047F4
S315080148C070B50D460446114628461A46FFF796FF67
S315080148D0D5E90731024603EBC1018B42184609D0D7
S315080148E053F8086B9642F8D1436823600123237174
S315080148F0204670BD11462846FFF7D7FF20B1284646
S31508014900FFF78DFF2060F1E72071F1E741617047FC
S3150801491003691A7B42641B694361704703691B6912
S315080149204361704710B5044601211830FDF73CFF75
S3150801493094F82C3013B123691B69636110BD00001B
S3150801494013B504460B4B0C4A0360C368CDE9002036
S315080149506946D8680AF0F5FF04F14C00FDF740FEF8
S3150801496004F11800FDF73CFE2046FDF72EFB204614
S3150801497002B010BD88310308DF49010810B50446A5
S31508014980FFF7DEFF20467021FDF7C4FD204610BD66
S3150801499037B5044600690A46037D00F118016846E1
S315080149A0FFF78EFF9DF8043004F14C0583B12368A7
S315080149B000999B692046984728460021FDF7E8FD9E
S315080149C0002104F1180003B0BDE83040FDF7ECBE44
S315080149D00121284603B0BDE83040FDF7D9BD40683E
S315080149E0FFF7D6BF7FB5044615460E46FDF7F6FA1C
S315080149F0174BC4E9036523602B69AA7B63616B7B4B
S31508014A00A96804F11800FDF7E6FEAA7B696804F1B6
S31508014A104C00FDF7CBFDD5E90F310E4A23F00043D3
S31508014A20CDE90224019AE06802F000421A43009B8C
S31508014A30019203F0004321F000421343009301AAB7
S31508014A406B4602A90AF0CEF8204604B070BD00BF35
S31508014A5088310308DF490108F8B506460F460024E0
S31508014A6056F8045FB54209D055F8043C281F1B685F
S31508014A70394698470443E4B22D68F3E72046F8BD62
S31508014A80F8B504460546002754F8043F9C420AD067
S31508014A9018461E6840F8047918B153F8043C9B6817
S31508014AA098473346F2E72846F8BD021D42600022C0
S31508014AB00260704710B50446024B036000F054F8D3
S31508014AC0204610BDAC31030810B50446FFF7F2FFC6
S31508014AD020461421FDF71EFD204610BD37B50446B4
S31508014AE00D4600220169684600F0E2FE9DF80400C1
S31508014AF040B12946009BA268E06803B0BDE8304092
S31508014B00FFF7C2BE03B030BD2DE9F0410F46198843
S31508014B100E4B06461868904601F0B1FA054690B163
S31508014B201420FDF7E9FC04464246394600F012F81E
S31508014B300120074B25612360736844F8043F3368F5
S31508014B40746001333360BDE8F08100BFF440002092
S31508014B50AC31030810B5034CC26004600024C0E9F7
S31508014B60014110BDC0310308704703681B69184726
S31508014B700021037F8177437780F824104069036811
S31508014B805B681847704710B504461021FDF7C2FC4B
S31508014B90204610BD10B50446024B0360FDF715FA11
S31508014BA0204610BDE431030810B50446FFF7F2FFAD
S31508014BB020462821FDF7AEFC204610BD10B5044657
S31508014BC0C06803681B689847B4F910301B1A584225
S31508014BD05841A37F98420AD00023A077637760697A
S31508014BE094F824100368BDE810405B681847637F92
S31508014BF0227F9A4286BF0133637784F82400EEE761
S31508014C00F8B5044616461D460F46FDF7E7F9094B62
S31508014C10094A2360094BE760A36141F21443A38360
S31508014C20002326826561A377226284F82430204610
S31508014C30F8BD00BFE43103083C2E0308D43103084C
S31508014C4010B50446024B0360FDF7BFF9204610BDB7
S31508014C500432030810B50446FFF7F2FF2046302157
S31508014C60FDF758FC204610BD70B50446C0680368B8
S31508014C701B689847014604F11400FDF723FB217EC2
S31508014C8004F12400FDF7FEFA94F8283063B124698B
S31508014C902368204628CB984780F001012B462046F9
S31508014CA0BDE87040C9B2184770BD10B50446002169
S31508014CB01430FDF707FB04F124000021BDE810407C
S31508014CC0FDF7E0BAFFF7F1BFF8B5044616460F46F9
S31508014CD01D46FDF783F90A4B29462360C4E9037685
S31508014CE004F11400FDF7FCFA002304F124006362C1
S31508014CF084F8283084F82C30FDF7BCFA2046F8BD34
S31508014D000432030880887047C3888B4205D8038913
S31508014D108B4202D381800120704700207047000032
S31508014D2010B50446044B40F8243B00F011F920461F
S31508014D30FDF74BF9204610BD3432030810B5044679
S31508014D40FFF7EEFF20463421FDF7E4FB204610BDB0
S31508014D50838B10B504462BB9C06803681B6898474E
S31508014D60400010BD006903681B689847A38B584328
S31508014D704FF49673B0FBF3F0F3E770B54469236813
S31508014D805D68FFF7E5FF2B4601462046BDE8704002
S31508014D9018470000F8B504460D4617461E46FDF7A6
S31508014DA01DF90B4BA9882360069B2A88636109486C
S31508014DB06B88C4E90376A061A183E283238404F1A5
S31508014DC01802A96804F1240000F031F82046F8BD5C
S31508014DD03432030824320308034B1868D0F8103814
S31508014DE000F501601B681847F4400020024B014694
S31508014DF0186801F048BB00BFF4400020002310B535
S31508014E0004468381016082604360C381FFF7EEFF38
S31508014E10204610BD052310B543600023044683814F
S31508014E2001608260C381FFF7E1FF204610BD0223BE
S31508014E3010B5436000230446838101608260C38103
S31508014E40FFF7D4FF204610BD032310B543600023A6
S31508014E500446838101608260C381FFF7C7FF20464C
S31508014E6010BD012310B54360002304468381016008
S31508014E708260C381FFF7BAFF204610BD072310B52C
S31508014E80436000230446838101608260C381FFF782
S31508014E90ADFF204610BD0C2310B543600023044620
S31508014EA0838101608260C381FFF7A0FF204610BDA0
S31508014EB00D2310B543600023044683810160826097
S31508014EC0C381FFF793FF204610BD092310B5436040
S31508014ED000230446838101608260C381FFF786FF50
S31508014EE0204610BD0A2310B543600023044683817A
S31508014EF001608260C381FFF779FF204610BD082350
S31508014F0010B5436000230446838101608260C38132
S31508014F10FFF76CFF204610BD10B50468FFF75CFF6C
S31508014F202044807810BD10B50468FFF755FF20446A
S31508014F30007910BD03689B790BB1FFF7F4BF1846DA
S31508014F4070470368D8439842B8BF184670470000AF
S31508014F5010B50446064B0146186801F081F9201D73
S31508014F60FFF7EFFF0D2801D91DF03AF9204610BDCC
S31508014F70F440002010B504460430FFF7E2FF0D287F
S31508014F800ED8DFE800F00F0F0F0F0F0F0F070707F7
S31508014F9007070707A068BDE8104003689B6818471C
S31508014FA01DF01EF9012010BD2DE9F04F002487B030
S31508014FB010469C46A246A146A046274626462546B1
S31508014FC0CDE90044CDE90244A3460D2900F28081CA
S31508014FD0DFE811F00E0031004900610077008F000B
S31508014FE0A700BF00DA00F60011012D01490164018D
S31508014FF0056800942868DCF80040FFF78DFF009AE1
S3150801500038B16B68ABB9236820461B6898470246D6
S3150801501001208DF810208DF8110000209DF8103020
S3150801502063F307009DF8113063F30F2007B0BDE85D
S31508015030F08F0020EDE7056800942868DCF8004049
S31508015040FFF76AFF009B48B16A6852B92368204690
S315080150501B689847031C18BF012301208DF81030DF
S31508015060D9E70020FAE70568DCF800402868FFF769
S3150801507053FF58B16B6863B9236820461B68984784
S3150801508010F1000B18BF4FF0010B01208DF810B07D
S31508015090C1E70020FAE70668DCF800503068FFF738
S315080150A03BFF48B1736853B92B6828461B68984774
S315080150B0041C18BF012401208DF81040ABE700201D
S315080150C0FAE70568DCF800402868FFF725FF58B1BC
S315080150D06B6863B9236820461B68984710F1000A74
S315080150E018BF4FF0010A01208DF810A093E70020A0
S315080150F0FAE70568DCF800402868FFF70DFF58B1A4
S315080151006B6863B9236820461B68984710F1000944
S3150801511018BF4FF0010901208DF810907BE7002098
S31508015120FAE70568DCF800402868FFF7F5FE58B18C
S315080151306B6863B9236820461B68984710F1000815
S3150801514018BF4FF0010801208DF8108063E7002091
S31508015150FAE70568DCF800402868FFF7DDFE88B144
S31508015160236869681B682046984710F47F4FADF895
S31508015170100007D001239DF810708DF810708DF876
S3150801518011304AE70023F8E70568DCF8004028688B
S31508015190FFF7C2FE90B1236869681B6820469847E5
S315080151A010F47F4FADF8100008D09DF81060012368
S315080151B0003618BF01268DF81060E0E70023FAE7EC
S315080151C00668DCF800403068FFF7A6FE88B1236858
S315080151D071681B682046984710F47F0F049008D021
S315080151E0BDF810500123003518BF01258DF8105060
S315080151F0C5E70023FAE70568DCF800402868FFF7E9
S315080152008BFE90B123686A681B68214604A89847F3
S315080152109DF814304BB1049B003318BF012300934A
S315080152200123009A8DF81020A9E70023F9E70568FC
S31508015230DCF800402868FFF76FFE90B123686968BB
S315080152401B682046984710F47F4FADF8100008D028
S315080152509DF91030003318BF012301930123019AE8
S31508015260E0E70023FBE70568DCF800402868FFF75C
S3150801527053FE88B1236869681B682046984710F46D
S315080152807F0F049008D0BDF91030003318BF0123F1
S3150801529002930123029AC5E70023FBE70568DCF8B8
S315080152A000402868FFF738FE80B123686A681B68E2
S315080152B0214604A898479DF814303BB1049B003356
S315080152C018BF012303930123039AABE70023FBE7E6
S315080152D01CF086FF30B58DB00546CDE90A010AAB4B
S315080152E0043009930024FFF72CFE4FF00003CDE9A3
S315080152F002448DF804308DF80030014605F10803A3
S3150801530009AA6868FFF750FEC3B263F30704C0F33E
S31508015310072060F30F2420460DB030BD2DE9F04F6C
S31508015320002487B010469C46A346A246A146A0463D
S315080153302746CDE90044CDE90244264625460D29EE
S3150801534000F26181DFE811F00E002F0045005B00D5
S31508015350700085009A00AF00CA00E500FD0015013E
S315080153602F0147010668DCF800503068FFF7D4FDC5
S3150801537038B17368ABB92B6828461B68984784B25D
S315080153800120ADF810408DF812000020BDF810304C
S3150801539063F30F00BDF8123063F31F4007B0BDE891
S315080153A0F08F0020EDE7056800942868DCF80040D6
S315080153B0FFF7B2FD009A38B16B6843B923682046F6
S315080153C01B68984782B20120ADF81020DBE7002060
S315080153D0FAE7056800942868DCF80040FFF79CFDA9
S315080153E0009B38B16A6842B9236820461B6898470A
S315080153F003460120ADF81030C5E70020FAE7056835
S31508015400DCF800402868FFF787FD40B16B684BB9A7
S31508015410236820461B6898471FFA80FB0120ADF8D0
S3150801542010B0B0E70020FAE70568DCF80040286804
S31508015430FFF772FD40B16B684BB9236820461B68BC
S3150801544098471FFA80FA0120ADF810A09BE70020C3
S31508015450FAE70568DCF800402868FFF75DFD40B10A
S315080154606B684BB9236820461B6898471FFA80F971
S315080154700120ADF8109086E70020FAE70568DCF808
S3150801548000402868FFF748FD40B16B684BB92368AF
S3150801549020461B6898471FFA80F80120ADF810804E
S315080154A071E70020FAE70568DCF800402868FFF78D
S315080154B033FD88B1236869681B682046984710F44C
S315080154C07F4FADF8100007D001239DF81070ADF895
S315080154D010708DF8123058E70023F8E70568DCF8F4
S315080154E000402868FFF718FD88B1236869681B68BA
