S02B0000453A5C7265706F735C63735C72656C656173655C726C63325C726C63325C6170705C726C63322E73B6
S315080090000020002061910008F1920008679100088D
S315080090100000000000000000000000000000000042
S31508009020FFFFFFFFFFFFFFFF000000008191000820
S3150800903000000000000000008391000885910008E8
S3150800904069FE000879FE000889FE000899FE0008F6
S31508009050A9FE0008B9FE0008C9FE0008D9FE0008E6
S31508009060E9FE0008F9FE000809FF000819FF0008D4
S3150800907029FF000839FF000849FF000859FF0008C2
S3150800908069FF000879FF000889FF000899FF0008B2
S31508009090A9FF0008B9FF0008C9FF0008D9FF0008A2
S315080090A0E9FF0008F9FF000809000108190001088E
S311080090B0290001083900010849000108E0
S315080090BC356136396235390070B500F09BF81D4AB2
S315080090CC1D4DAA420BD2536811689468C91A5818D0
S315080090DC9C4201D80C32F4E7006801C3F7E700217B
S315080090EC164A174CA24207D213685068984201D800
S315080090FC0832F7E702C3F9E7002502F0A3FC114E84
S3150800910C114CA41BA410AC4204DDAB00F3589847D1
S3150800911C0135F8E700260D4D0D4C641BA410B4421E
S3150800912C04DDB300EB5898470136F8E709F0ACFEB6
S3150800913CFEE7C046209300082C9300082C930008E1
S3150800914C34930008349300083493000834930008C9
S3150800915C4093000809480047FEE704207146084278
S3150800916C02D0EFF3098001E0EFF308807146044A58
S3150800917C1047FEE7FEE7FEE770470000C5900008BB
S3150800918C7F91000801210420134B144A10B5196667
S3150800919C146820431060124850601068014311602F
S315080091AC104ADA608022196852040A431A6080222F
S315080091BC920419681142FCD00B480C4902681140FC
S315080091CC0B4A0A430260022238219A609A680A40BE
S315080091DC102AFBD110BDC0460010024010E000E07A
S315080091ECFFFFFF000208033200200240F8FCFFFFD5
S315080091FC02030000F8B58023324C5B002360002381
S3150800920CA360A361226B01331A432263226B9A4330
S3150800921C2263226C13432364FFF7B4FF2A4A2B4BB1
S3150800922C9A6062B68023226B5B031A432263226B15
S3150800923C274E32402263226C13432364BFF34F8FAD
S3150800924C244D254AAB6825481340AB608023AA6891
S3150800925C5B051343AB6005F011F88023AA681B065F
S3150800926C1343AB60AB68002BFCDB402005F006F81B
S3150800927C0123AA681A481343AB6005F07FFE402306
S3150800928C0422AB620023942794461900FF0060461B
S3150800929CAA680243AA6060462A680242FBD0080004
S315080092AC2A6CBA4248411B18642BF0D18023226BD6
S315080092BC5B0313432363236B33402363236C1E40E6
S315080092CC2664F8BD001002400090000800ED00E08E
S315080092DCFFFFEFFF00240140FFFFFFEF1027000000
S315080092EC1C3C010810B50A4CA369002B0EDAA369BD
S315080092FCDB020BD4A0698004C00D06F05BFC0028C9
S3150800930C04D08023A2691B061343A36110BDC04673
S3090800931C00200240DD
S31508009320F844010800200020782100207821002038
S315080093302C360020D5BA000875D60008A5D6000830
S315080093400020704700797047017101207047007945
S315080093507047017101207047024B03600023436088
S315080093607047C046D1AC0008CB6870B50400586891
S315080093700D001830012105F08AFE1423EB662B67D1
S31508009380024B200023600023636070BD51A80008CB
S3150800939003000220012B03D0023B5842584100012A
S315080093A0704737B56B4604009D1D016802222800E8
S315080093B00AF070F823682888023323603EBD00004F
S315080093C0054B10B5984201D909F07CFD2C2358436A
S315080093D002F060FB10BDC0462EBAE80237B56B46F0
S315080093E00400DD1D0168012228000AF053F82368ED
S315080093F02878013323603EBDF8B5144B04000833C2
S315080094000360406F002804D0056802F053FB28006B
S31508009410F8E7A7696569AF420DD02E68002E08D017
S31508009420F069002801D002F045FB2821300002F03F
S3150800943045FB0435EFE76069002801D002F03AFBE6
S31508009440200002F0CCF82000F8BDC0463C370108E1
S3150800945010B50400FFF7D0FF2000902102F02EFB84
S31508009460200010BD70B50D000400160014220AF085
S3150800947011F8AB7DAA8AE675A282A375EB7D18352D
S31508009480237623001C3306CD06C30023E21D636240
S31508009490D37721322000137070BD0000C31DDA7F18
S315080094A082B001AB002A09D10A4A1A8001229A70B1
S315080094B05A8818881204104302B070470022016ABD
S315080094C0914203D02830017801324A400249198076
S315080094D0EDE7C04604FDFFFF06FDFFFFF0B589B0C6
S315080094E000910192C71DFB7F040003AD002B1BD121
S315080094F00A00019B04929E1E069272425641C918A2
S3150800950005910791F6B2022B05D106A8FFF749FF88
S315080095100123A084FB7701232E706B706B78287863
S315080095201B02184309B0F0BD0023026A9A4205D00F
S31508009530283422789A4201D10133237001222A70F5
S31508009540EBE7000084B0F7B50B930E9B09910A92DE
S3150800955009A9142205000F9E009309F09BFF012319
S3150800956000246B61009B76019B1901931E4BAC612D
S31508009570EC61AC762C626C6276119E4202D91B486D
S3150800958009F0A3FC002E03D03000FFF719FF0400F2
S315080095902C2327005E43A6196E62009EEC61019B90
S315080095A0B34207D0310038000122FFF75BFF2036AF
S315080095B02C37F4E72C203021009AB31A5B0958435C
S315080095C024182C62964209D0537D20320B40581E2F
S315080095D0834168690233C3186B61F3E72800FEBC50
S315080095E008BC04B01847C0462EBAE802D0350108B0
S315080095F084B0F0B585B00B910C920BA91422040027
S315080096000D93109E09F046FF012363610023A361B1
S31508009610E361A376236263621C4B9E4202D91C480F
S3150800962009F053FC002E2AD03000FFF7C9FE0500CA
S31508009630E36903900293236A9C46029B0193019B6C
S315080096409C4510D0039B019A83CA83C383CA83C3EC
S3150800965083CA83C303CA03C3019B2C330193039BA9
S315080096602C330393EBE7029B002B02D0180002F081
S3150800967021FA2C204643E5612562AD196562200072
S3150800968005B0F0BC08BC04B01847C0462EBAE802BC
S3150800969001360108F0B5036A87B001931700436ADB
S315080096A0019A040005919A4212D03A000198FFF7F0
S315080096B0D9FE236A2C3323623022059B5B7D134037
S315080096C05A1E934162690233D318636107B0F0BD2D
S315080096D0C369019A0293D31A9A100393264B5343EC
S315080096E0264A934202D1264809F0EFFB0126002BB1
S315080096F002D05E00B34225D80025AE4206D0964277
S3150800970000D91E4E3000FFF75BFE0500039B3A00AA
S31508009710E8180599FFF7A6FE029B04959C46019B4F
S31508009720634511D06246049B83CA83C383CA83C335
S3150800973083CA83C303CA03C32C239C44049B2C33C8
S315080097400493ECE71600DDE7039B0E4F9B085F4387
S315080097502C23BF00BF0801375F43029BEF19002B7C
S3150800976002D0180002F0A6F92C204643E561AD198F
S3150800977027626562A0E7C046A38B2EBA2EBAE80216
S3150800978011360108A38B2E3A37B5837E002B0BD1F1
S315080097906A460F4B1380012393706B466A465B88B3
S315080097A010881B0418433EBD046AC569AC420DD037
S315080097B02800FFF773FE030CDBB22C35002BF5D01F
S315080097C0019001AA9370019B0093E6E70023F8E74E
S315080097D002FDFFFF30B589B000910192837E040037
S315080097E0002B17D10A00019B04929D1E06926A421D
S315080097F05541C91805910791EDB2022B05D106A866
S31508009800FFF7CFFD01232083A376012203AB1D704A
S315080098105A7011E0056AC469AC4214D02000019A56
S315080098200099FFF75BFE04AA030410802C341B0E74
S31508009830F2D082B203AB1A8003AB18785B781B02AE
S31508009840184309B030BD002203ABE1E770B5050047
S315080098500C200C0002F01EF9031D06CC06C36B6F24
S315080098606867036070BD0000416A044A836A002085
S31508009870914202D158424341D8B27047C9AF000855
S3150800988082B0019313780092042B0AD1019B517878
S31508009890033B83600123033201704260037302B005
S315080098A070470023FAE730B50B780400002585B029
S315080098B03E2B22D18B68052B1FD94A6802A8D318DC
S315080098C00092019302920393FFF788FD032814D1AF
S315080098D002A8FFF783FD02A8FFF763FD23005A33AA
S315080098E01B88834208D102A8FFF75BFD2300663375
S315080098F018800123683423700125280005B030BD7F
S3150800990013B56B460400D971073319000122806824
S3150800991009F0C0FDA36820000133A36016BD13B586
S315080099206B460400D980063319000222806809F0C4
S31508009930B1FDA36820000233A36016BD30B589B017
S315080099406B466A460D00040004930121073304A8F8
S31508009950069205930793FFF7D3FF154904A8FFF767
S31508009960DEFF032104A8FFF7CBFF032104A8FFF7B6
S31508009970C7FF002104A8FFF7C3FF02A806F074FB7F
S31508009980039B04A8D9B2FFF7BBFF069A0499E868B7
S315080099900792521A069104F069FD0A23EB662B67B3
S315080099A0044B200023600023636009B030BDC04625
S315080099B08AFC0000B9A8000830B589B06B466A462B
S315080099C00D00040004930121053304A805930793A9
S315080099D00692FFF795FF0F4904A8FFF7A0FF01219C
S315080099E004A8FFF78DFF032104A8FFF789FF069A4D
S315080099F00499E8680792521A069104F037FD0A237B
S31508009A00EB662B67044B200023600023636009B0D4
S31508009A1030BDC04685FC000099AA000830B589B05B
S31508009A206B466A460D00040004930121053304A819
S31508009A30059307930692FFF763FF0F4904A8FFF7FC
S31508009A406EFF012104A8FFF75BFF0A2104A8FFF7B0
S31508009A5057FF069A0499E8680792521A069104F085
S31508009A6005FD0A23EB662B67044B200023600023C1
S31508009A70636009B030BDC0468FFC000051AB0008DA
S31508009A8070B5050008000C008AB0783001F0D7FFE1
S31508009A902000803001F0D3FF2300002644331E70D7
S31508009AA0162302AA6B44012106A806920892079378
S31508009AB00993FFF725FF164906A8FFF730FF0A2185
S31508009AC006A8FFF71DFF23005A33198806A8FFF7D3
S31508009AD026FF062106A8FFF722FF0C2106A8FFF796
S31508009AE01EFF310006A8FFF71AFFC82106A8FFF7D0
S31508009AF016FF089A0699E0680992521A089104F026
S31508009B00B5FC2800034B6E602B600AB070BDC046DA
S31508009B1081FD0000C9AF000870B50E00040088B0CA
S31508009B2002AB1500012101AA04A804920593069226
S31508009B300793FFF7E5FE310004A8FFF7F0FE0021C2
S31508009B4004A8FFF7DDFE069A04990792E068521A00
S31508009B50069104F08BFCE566256708B070BD000029
S31508009B6010B504000A2208000449FFF7D5FF044B84
S31508009B70200023600023636010BDC046011000006A
S31508009B80B1AB000810B504000A2208000449FFF723
S31508009B90C3FF044B200023600023636010BDC0464A
S31508009BA092FC000039AA000810B504000A22080031
S31508009BB00449FFF7B1FF044B2000236000236360CC
S31508009BC010BDC04601FD000059AA000810B50400E2
S31508009BD00A2208000449FFF79FFF044B2000236070
S31508009BE00023636010BDC04694FC0000D9AA000893
S31508009BF00B00F0B538331B780F005A4253415837DB
S31508009C003B700B000C00012159331970362391B0B3
S31508009C10060002A81B1808AA04A80492059306922F
S31508009C200793FFF76DFE234904A8FFF778FE1A216C
S31508009C3004A8FFF765FE002104A8FFF761FE0021CE
S31508009C4004A8FFF75DFE1025002104A8013DFFF7D3
S31508009C5057FE002DF8D1072104A8FFF751FE102161
S31508009C6004A8FFF74DFE290004A8FFF749FE069B46
S31508009C70042202A918000193029509F00BFC069B21
S31508009C8004A80193043306937978FFF739FE069AF8
S31508009C900499E0680792521A06910291039204F019
S31508009CA0E5FB0A233000E3662367034B75603360E0
S31508009CB011B0F0BD86FC0000B9AA000837B50192BC
S31508009CC000918A18914206D083680C785D1C8560DD
S31508009CD001311C70F6E73EBDF0B5A9B01E002EABEB
S31508009CE01F889F23140005006B44009101920121EF
S31508009CF008AA04A80593079304920692E4B2FFF70C
S31508009D00FFFD144904A8FFF70AFEA11DC9B204A85D
S31508009D10FFF7F6FD310004A8FFF701FE390004A895
S31508009D20FFF7FDFD002104A8FFF7EAFD210004A8BE
S31508009D30FFF7E6FD0099019A04A8FFF7BFFF069A08
S31508009D40049907922800521A069104F08FFB29B04D
S31508009D50F0BDC04606FD00007FB5030002910392E0
S31508009D605A339B78002B0ED0142A0CD84369C06846
S31508009D705B68DA699B69126D059392B200929BB291
S31508009D80039AFFF7A9FF07B000BD00007FB50C00D6
S31508009D90050002A8CE6806F067F9220023006232A1
S31508009DA012885E3330001B8802990092039AFFF7E7
S31508009DB093FF0A23E3662367034B28002B600023DF
S31508009DC06B6004B070BDC04679AA0008F0B5036997
S31508009DD0040044331B7891B0002B03D100263000D1
S31508009DE011B0F0BD0B78FF2BF8D18B68072BF5D98E
S31508009DF04A680EA8D3180D930F930C920E92FFF78C
S31508009E00D0FA06000EA8FFF7CCFA05000EA8FFF751
S31508009E10C8FA2C4B03909E42E0D123005A339A7815
S31508009E20002ADBD01B88AB42D8D100252C22236917
S31508009E301B6C9D42D2D21100636969439B68DB693A
S31508009E405B185B6A1E0C0693F6B29BB20293002E51
S31508009E5003D003990133994201D00135E7E71A4B3C
S31508009E6008AF186808F0DAFB23696D01DA6B0100A0
S31508009E7000233800525903F070FA3B79002B1ED0A4
S31508009E802369DB6B5D19A869089BE969584309F0E2
S31508009E90B3F80422636905909B6802981B8B0090AF
S31508009EA0E06805A99BB20B920A91FFF715FF2300FC
S31508009EB0039A8A331A8001238C3423708FE7012092
S31508009EC04042E6E7140C00007821002070B592B0F5
S31508009ED0040001A80D0006F0C7F8029E082E00D956
S31508009EE0082646230BAA6B44012107A808930A9360
S31508009EF007920992FFF704FD284907A8FFF70FFD07
S31508009F0031000E31C9B207A8FFF7FAFC002107A8ED
S31508009F10FFF7F6FC202107A8FFF701FD202107A877
S31508009F20FFF7FDFC012107A8FFF7EAFC002107A8B7
S31508009F30FFF7E6FC711CC9B207A8FFF7E1FC05A804
S31508009F4006F092F80821069B8B4200D8013107A833
S31508009F50FFF7D6FC3200019907A8FFF7AFFE0021EC
S31508009F6007A8FFF7CDFC002107A8FFF7D8FC0021BA
S31508009F7007A8FFF7D4FC099A0799E8680A92521AC3
S31508009F80099104F073FA0A23EB662B67044B200049
S31508009F9023600023636012B070BDC04683FC0000D6
S31508009FA011AB00080B0010B538331B780400012BE1
S31508009FB007D80B0040331B78002B08D1FFF786FF24
S31508009FC003E0044B036000234360200010BDFFF745
S31508009FD0FDFDFAE7A59F0008F0B597B004000DA8A7
S31508009FE00D0006F041F80E9B082B06D82900200024
S31508009FF0FFF714FD200017B0F0BD03A806F034F8EB
S3150800A000049F1D2F00D91D270DAB099316AB0A9384
S3150800A0100DAB01210B9309A816AB0C93FFF770FC47
S3150800A020194909A8FFF77BFCFEB2202109A8FFF70A
S3150800A03067FCB11CC9B209A80136FFF761FCF1B289
S3150800A04009A8FFF75DFC092109A8FFF759FC3A00A2
S3150800A050039909A8FFF732FE0B9B0C9A01939A42C3
S3150800A06004D0002109A8FFF74BFCF5E70999E86831
S3150800A070521A0B9104F0FAF90A23EB662B67034B85
S3150800A080236000236360B5E70920000031AB0008B0
S3150800A090F0B51F00172316000D008BB06B4403AAFA
S3150800A0A00400012106A80793099306920892FFF770
S3150800A0B027FC114906A8FFF732FC072106A8FFF777
S3150800A0C01FFC390006A8FFF71BFC3100062206A86C
S3150800A0D0FFF7F4FD089A0699E8680992521A08915A
S3150800A0E004F0C4F90A23EB662B67044B20002360AF
S3150800A0F0002363600BB0F0BDA4FC000091AB000820
S3150800A10010B58B68CA689A4207D05A1C8A601A78B2
S3150800A11083685C1C84601A70F3E710BDF0B59FB0C5
S3150800A1201F000392C31DDD7F04000E00002D64D1BD
S3150800A1303B4B00789342AD41FFF72AF96D4209354A
S3150800A1400EAB1EAA0121451906A806930792089385
S3150800A1500992FFF7D5FB334906A8FFF7E0FBE9B2FA
S3150800A16006A8FFF7CDFB390006A8FFF7D8FB21782C
S3150800A17006A8FFF7C5FB2278231D012A31D1A21CA8
S3150800A1800A920B930C920D930AA906A8FFF7B8FF3B
S3150800A190039B217D1A00224B9A4229D806A8FFF76D
S3150800A1A0AFFB617D06A8FFF7ABFBA17D06A8FFF70D
S3150800A1B0A7FBE17D06A8FFF7A3FB072106A8FFF783
S3150800A1C09FFB217E06A8FFF79BFB089A0699099232
S3150800A1D03000521A0891012504F048F928001FB0EA
S3150800A1E0F0BD220014320A930B920C930D92CBE722
S3150800A1F089B206A8FFF793FBD3E7026A002A0CD0B8
S3150800A200030028331B78002B07D1838C0093C16980
S3150800A2103B003000FFF760FDE0E70025DEE7C046BB
S3150800A2201F00070004FD0000F0B5837E04000E0041
S3150800A23017009DB0002B42D10078FFF7A9F805005A
S3150800A2400CAB1CAA012104A8049305920693079255
S3150800A2500335FFF755FB234904A8FFF760FBE9B26E
S3150800A26004A8FFF74DFB217804A8FFF749FB2278DD
S3150800A270231D012A1CD1A21C089209930A920B934A
S3150800A28008A904A8FFF73CFF012104A8FFF738FB3B
S3150800A290616904A8C9B2FFF733FB069A049930002E
S3150800A2A00792521A069104F0E1F801201DB0F0BD9C
S3150800A2B022001432089309920A930B92E0E7036A84
S3150800A2C0C5690193019B9D4209D028003A003100D7
S3150800A2D0238BFFF723FF2C350028F3D0E6E7002071
S3150800A2E0E4E7C04602FD0000F8B505000C008F69DA
S3150800A2F04E69B7420CD0226AE16801CEFFF794FF97
S3150800A3000028F6D0054B2B6000236B602800F8BDAB
S3150800A31021002800FFF750FBF8E7C04641A90008CE
S3150800A32070B50B698EB00500187C0C00FFF730F885
S3150800A3303723060008AA6B44012168460092019358
S3150800A340029203930336FFF7DBFA3B496846FFF7A9
S3150800A350E6FAF1B26846FFF7D3FA236919004431E1
S3150800A36009785A1D002943D019003831097800297F
S3150800A3703ED0D07FFFF70CF80230C1B26846FFF72F
S3150800A380BFFA23690533D87FFFF702F80130C1B257
S3150800A3906846FFF7B5FA06216846FFF7B1FA23695A
S3150800A3A05A1DD17F233201291CD1263304930592E5
S3150800A3B00693079204A96846FFF7A2FE029A009937
S3150800A3C0E0680392521A02910491059204F04EF83D
S3150800A3D00A23E3662367194B28002B6000236B606A
S3150800A3E00EB070BD38330492059306920793E1E7E1
S3150800A3F0187CFEF7CDFF0230C1B26846FFF780FA37
S3150800A4002369187CFEF7C4FF0130C1B26846FFF71E
S3150800A41077FA23696846443319784B42594106311D
S3150800A420FFF76EFA23691A00197C1432012901D143
S3150800A4301233BBE72433D6E78EFC000071AB000865
S3150800A44073B504000E000D000192019B2000F3185D
S3150800A4509D4209D0E368A268934205D00830FEF70A
S3150800A460BDFF28700135F0E776BD0000F0B50500A0
S3150800A4700F00ADB0329C029203930CAB08937F2376
S3150800A48006AE0CAA3000E968099304F098FA327906
S3150800A490002A0CD1E96E05AB002946D1314A1A804B
S3150800A4A005AB18785B781B0218432DB0F0BD069AE9
S3150800A4B00CAB9B180AA80CAA09930B9308920A924C
S3150800A4C0FEF78CFF00900AA8FEF788FF06000AA888
S3150800A4D0FEF784FF009B042BCFD10E2E27D102282E
S3150800A4E0CBD90AA8FEF77AFF0AA8FEF75AFFB842A0
S3150800A4F0C3D10AA8FEF772FF0500002C0BD00B9BF0
S3150800A500039A00930A9B01930199009B5B1A934255
S3150800A51000D9130023600299002903D0039A08A8DA
S3150800A520FFF78EFF05AB1D7001225A70B8E70F2E94
S3150800A530A3D10328A1D90AA8FEF750FF06000AA846
S3150800A540FEF74CFF0AA8FEF72CFF874295D1002E8E
S3150800A55000D192E7002C01D00023236005AB1E70C2
S3150800A560E2E7C046FF010000F0B50B78060091B09F
S3150800A570FF2B03D00025280011B0F0BD8B68092BEE
S3150800A580F8D94A6809A8D3180792089309920A9332
S3150800A590FEF707FF050009A8FEF703FF070009A84D
S3150800A5A0FEF7FFFE009009A8FEF718FF040009A8A9
S3150800A5B0FEF7F7FE384B02009D42DBD133005A33D3
S3150800A5C09D78002DD6D01B88BB42D3D10A9B09990A
S3150800A5D001935B1A9C42CDD10028CBD17069009FAC
S3150800A5E04368DB695B6A029301339BB29F4215D1CC
S3150800A5F0142CBFD80BAB2200190007A803930494A8
S3150800A600FFF71EFF766F002EB5D00BAB0593301DF6
S3150800A6107368069405A998473668F4E737693B00D6
S3150800A62044331B78002BA5D02C2315009C463B6C85
S3150800A6309D429FD2624683686A43DB699B185B6AC0
S3150800A6401A0CD2B205939BB2002A05D0009A0133A0
S3150800A6509A4201D1042C01D00135E8E722000BA863
S3150800A66008F018FF099B6D010433099333690B9CA5
S3150800A670D86B0A4B4519186807F0D0FF0600E86939
S3150800A680A969604308F0B8FC296803000022300075
S3150800A69002F074FE05006EE7010C00007821002028
S3150800A6A030B50C24012587B00391614302900092CE
S3150800A6B001934118884218D00468944207D1446827
S3150800A6C0A34206D0002A02D11C432C4201D00C30EA
S3150800A6D0F0E7028905AB1A8001229A7005AA538809
S3150800A6E010881B04184307B030BD002205ABF4E7F9
S3150800A6F07FB543681321DA6A05481B6BFFF7D0FF5D
S3150800A700030CDBB280B2002B00D1024807B000BDB3
S3150800A7104C360108FFFF00007FB5436813215A6ACB
S3150800A72005489B6AFFF7BCFF030CDBB280B2002B1F
S3150800A73000D1024807B000BD4C360108FFFF0000F3
S3150800A7408378002B01D000238370704710B504006E
S3150800A7502430FFF7F5FF00232834237010BD70B5A9
S3150800A76004001830FFF7ECFF256AE469A54204D017
S3150800A7702000FFF7EBFF2C34F8E770BDF8B50500AD
S3150800A7800C00002A07D00B000A002C33243203CA17
S3150800A79003C301221A74E66800217068183004F0B1
S3150800A7A076FCCB2301229B00F250A7696669B74263
S3150800A7B003D001CEFFF7D3FFF9E700262000266273
S3150800A7C05E30FFF7BDFF20006230FFF7B9FF2000BB
S3150800A7D06630FFF7B5FF024B28006E602B60F8BDA8
S3150800A7E0699300087FB504006C3001F02BF920004E
S3150800A7F0783001F027F92000803001F023F9A26AA9
S3150800A800636A5110D20701D56258D35802AD611850
S3150800A810280098472300243306CD06C3CC232600F8
S3150800A820E2689B00D15C2436002903D10749515CB4
S3150800A830002909D000216D46D152280001222100A5
S3150800A840FFF79CFF0CCD0CC67FBDC0463103000048
S3150800A850F0B504000D000026A5B07F236846E96818
S3150800A86004AA04F0ACF86B461F79002F0AD0009AA8
S3150800A870062AF2D10E4904A808F0FEFD0028ECD1FC
S3150800A8803E00EAE7002E06D029002000FFF768F907
S3150800A890200025B0F0BDEB6E002B05D10122290062
S3150800A8A02000FFF76BFFF3E7024B66602360EFE7D4
S3150800A8B05437010851A8000870B50C0007238AB060
S3150800A8C004AE03AA00920500320020001B49079334
S3150800A8D00696FFF7CBFD02AA030410801B0E06D1CD
S3150800A8E02B00243406CC06C328000AB070BD1378A2
S3150800A8F0002B1CD1039B062B19D111336B4408A8D6
S3150800A9000696079308960993FEF74BFD2300012642
S3150800A9105E3318809E7008A8FEF743FD2300623355
S3150800A9201880210028009E70FFF730FADCE7012224
S3150800A93021002800FFF722FFD6E7C0468AFC000060
S3150800A940F0B50C008F694E690500002191B0B74239
S3150800A95008D001CEFEF718FF030CDBB2049081B2D3
S3150800A960002BF4D0202305A808AA00902000069200
S3150800A9700793FFF77BFD02AA030410801B0E06D17E
S3150800A9802B00243406CC06C3280011B0F0BD13787A
S3150800A990002B18D1A7696669B74214D0059B08A988
S3150800A9A01A0001CE07930691FEF714FF03AA0304C3
S3150800A9B010801B0EF0D01378002B04D0210028003D
S3150800A9C0FFF792FCE0E7012221002800FFF7D6FEF8
S3150800A9D0DAE782B0F0B587B00C000D931E000023AD
S3150800A9E0110000931A0005002000049305930E9F9A
S3150800A9F0FFF73CFD03AA030410801B0E09D12B00A8
S3150800AA00243406CC06C3280007B0F0BC08BC02B044
S3150800AA1018471378002B08D179106118FB0701D560
S3150800AA200B689E592800B047EDE70122210028004F
S3150800AA30FFF7A4FEE7E700001FB500230400009314
S3150800AA40034A044BFFF7C5FF200004B010BDC046FB
S3150800AA5092FC0000A99B00081FB500230400009380
S3150800AA60034A044BFFF7B5FF200004B010BDC046EB
S3150800AA7001FD00003D9900081FB50023040000935E
S3150800AA80034A044BFFF7A5FF200004B010BDC046DB
S3150800AA9006FD0000E9A200081FB500230400009384
S3150800AAA0034A044BFFF795FF200004B010BDC046CB
S3150800AAB085FC0000F19B00081FB5002304000093E5
S3150800AAC0034A044BFFF785FF200004B010BDC046BB
S3150800AAD086FC000041AC0008002330B5040085B0B0
S3150800AAE0084A0093084B0D00FFF773FF074B2268CF
S3150800AAF09A4204D16368002B01D13C352B712000A2
S3150800AB0005B030BD94FC0000CD9E000811AB0008CE
S3150800AB101FB5002304000093034A044BFFF759FFAF
S3150800AB20200004B010BDC04683FC0000D99F000871
S3150800AB301FB5002304000093034A044BFFF749FF9F
S3150800AB40200004B010BDC046092000001D9A000868
S3150800AB501FB5002304000093034A044BFFF739FF8F
S3150800AB60200004B010BDC0468FFC000021A30008D9
S3150800AB701FB5002304000093034A044BFFF729FF7F
S3150800AB80200004B010BDC0468EFC00005993000892
S3150800AB901FB5002304000093034A044BFFF719FF6F
S3150800ABA0200004B010BDC046A4FC0000819A00082D
S3150800ABB070B50C0009238CB005AE04AA00920500F6
S3150800ABC0320020001D4909930896FFF74FFC03AA97
S3150800ABD0030410801B0E06D12B00243406CC06C3B2
S3150800ABE028000CB070BD1378002B20D1049B082BCD
S3150800ABF01DD115336B440AA809930B9308960A9638
S3150800AC00FEF7ECFB0AA8FEF7CCFB0AA8FEF7E6FB64
S3150800AC1006000AA8FEF7C5FB0AA8FEF7C2FB36041B
S3150800AC200643210028002662FEF7ACFFD8E701227A
S3150800AC3021002800FFF7A2FDD2E7C0460110000058
S3150800AC400B0070B558335B7805000C00002B03D059
S3150800AC500B00002259331A7020005A30FFF770FD96
S3150800AC6020008A30FFF76CFD024B28002B6000237A
S3150800AC706B6070BDA59F000830B50B78040085B0E1
S3150800AC80052B03D00025280005B030BD8B68032BA3
S3150800AC90F8D94A6802A8D31801930393009202923E
S3150800ACA0FEF79CFB050002A8FEF77BFB0300002DC0
S3150800ACB0E8D120005A308578002DE3D002889A42E0
S3150800ACC0E0D1FFF73DFD20008A30FFF739FDDAE7CE
S3150800ACD00B00F0B540331B7806000C00B1B0002B12
S3150800ACE00DD10B0038331B789A1E012A07D95A4210
S3150800ACF053410A00583212787F279A4223D00022FD
S3150800AD0021003000FFF73AFD2EE010AB0C93049BB0
S3150800AD1010AA210008A80D93FEF7B2FD242202AB63
S3150800AD209B181B78002B0ED0099B0A9A0C9399182E
S3150800AD300E9302AB1B7E0D910F913E2B17D0200070
S3150800AD4008A9FFF799FF10AB04AD1A000C93280069
S3150800AD507F23E1680D9703F032FE2B79002BD4D1BF
S3150800AD603300243406CC06C3300031B0F0BD032AC4
S3150800AD70E5D90EA8FEF732FB05000128DFD10EA89B
S3150800AD80FEF72CFB0028DAD10EA8FEF70AFB2300F3
S3150800AD905A3318809D70223B1B78002B1DD00D9BC3
S3150800ADA000930C9B0193019A009B9B1A0B2B01D8CD
S3150800ADB02A00A5E70EA8FEF711FB0EA8FEF70EFB64
S3150800ADC0050002A906220CA8FFF73AFB2B00210072
S3150800ADD0300002AAFFF75CF9C6E721003000FEF74B
S3150800ADE04FFEC1E770B50B7804008CB00E2B03D06C
S3150800ADF0002318000CB070BD8B68022BF8D94A687E
S3150800AE0006A8D3180593079304920692FEF7E6FA66
S3150800AE1006A8FEF7C6FA1B4B9842E9D106A8FEF724
S3150800AE20DDFA0028E4D120008A308378002B27D069
S3150800AE3026005A36B578002DDBD0FFF781FC6B4625
S3150800AE406A460121089308A8063309930B930A92C8
S3150800AE50FEF756FD0C4908A8FEF761FD022108A871
S3150800AE60FEF74EFD318808A8FEF759FD0A9A08999B
S3150800AE700B92E068521A0A9103F0F8FA2B00B8E729
S3150800AE800123B6E706FD000027FD000030B50B7864
S3150800AE90040085B0052B03D00025280005B030BD79
S3150800AEA08B68032BF8D94A6802A8D3180193039331
S3150800AEB000920292FEF792FA050002A8FEF771FACE
S3150800AEC00300002DE8D120005A308578002DE3D004
S3150800AED002889A42E0D1FFF733FC20008A30FFF758
S3150800AEE02FFCDAE7F0B506000C007F27A9B008ABFF
S3150800AEF004931A0068467F23E168059703F05FFD0F
S3150800AF006B461B7904AD002B0FD1E36E002B07D1DE
S3150800AF10002221003000FFF731FC300029B0F0BDD7
S3150800AF203300243406CC06C3F7E708AB0293009B2C
S3150800AF302100280008AA0393FEF7A2FC2B7B002B0E
S3150800AF40D5D029002000FFF7A1FF0028CFD0DFE7E2
S3150800AF5070B50E005A36B37805000C0088B0002B81
S3150800AF602CD06B466A460121049304A8073305933F
S3150800AF7007930692FEF7C4FC124904A8FEF7CFFC15
S3150800AF80032104A8FEF7BCFC318804A8FEF7C7FC19
S3150800AF90132104A8FEF7B4FC069A0499E068079200
S3150800AFA0521A069103F062FA322321002800E3665A
S3150800AFB02367FFF797FF280008B070BD0122FFF747
S3150800AFC0DDFBF8E793FC00000B0070B538331B78FF
S3150800AFD005000C00AAB0032B04D121002800FFF7B6
S3150800AFE0B7FF35E08E6F002E20D102AA03AB0121F0
S3150800AFF00AA80A920B930C920D93FEF781FCFC218A
S3150800B0000AA80902FEF78BFC31000AA8FEF778FCAD
S3150800B0100C9A0A99E0680D92521A0C9106910792B9
S3150800B02003F024FA2000783000F009FD7F260AABE9
S3150800B0301A00069368467F23E168079603F0BFFC6B
S3150800B0406B461B79002B06D12B00243406CC06C38D
S3150800B05028002AB070BD0AAB0693009B21000AAAF5
S3150800B06002A80793FEF70CFC6B461B7D002BDED06F
S3150800B070200002A9FFF70AFF002805D000222100B8
S3150800B0802800FFF77BFBE3E702A92000FFF76CFA2D
S3150800B09002A92000FEF79AFE02A92000FFF7ECFDA0
S3150800B0A002A92000FEF7FFFB200002A9FFF79AFE7F
S3150800B0B0002807D02000783000F0C1FC200080303E
S3150800B0C000F0BDFC6B461B7A0E2B14D1039A049B29
S3150800B0D008A8D3180793099306920892FEF77EF9F3
S3150800B0E008A8FEF75EF9FC231B02984203D120004C
S3150800B0F0803000F0A4FC231DDB6F002B06D1230053
S3150800B10022002C33243203CA03C366E7024B2B60A2
S3150800B11000236B609CE7C046C9AF0008F0B54368DA
S3150800B12087B00493036815000293029A049B0400EF
S3150800B1309B1A234A03919B10934202D1214807F098
S3150800B140C4FE1E1E00D10126039A0299F618571A44
S3150800B150B34207D8002301939E4208D080239B055B
S3150800B1609E4200D3164EB00000F094FC01902B6866
S3150800B1700593059A019BDA51002F04DD3A00180061
S3150800B180029908F090F9019B3D1D039A5D19049BED
S3150800B1909F1A002F04DD3A002800039908F07AF96F
S3150800B1A0029BED19002B02D0180000F083FC019BCE
S3150800B1B0B000181823606560A06007B0F0BDC046EF
S3150800B1C0FFFFFF1F1136010807B50B0001918268C2
S3150800B1D04168914204D00B6043680433436007BD5D
S3150800B1E001AAFFF79BFFFAE7F0B504000D00B9B016
S3150800B1F0049200F0FDF9B84BE56008332360049B20
S3150800B20000252361B54B6561636323003433A5616B
S3150800B210E5616562A562E56225631D71B04B26008E
S3150800B220E36323003C331D711D72AE4B5A36A3648B
S3150800B230AD4B290023652300593330000422E4640A
S3150800B24064651D7008F042F9B570043629003000AF
S3150800B250042208F03BF9B5700436290030000422B0
S3150800B26008F034F9B570043604222900300008F0D5
S3150800B2702DF920002900B5706C3000F0DDFB2000A8
S3150800B28019216567783000F0D7FB2000332180301C
S3150800B29000F0D2FB2300243688331D8004222900BF
S3150800B2A0300008F013F92369B57044331D786269D4
S3150800B2B06B1E9D41230014330693E36902359B1ADE
S3150800B2C09B109D421BD9A369AD009B1A28000593C4
S3150800B2D000F0E0FB6769A3690600DA1B002A06DDB1
S3150800B2E0390008F0E0F8380000F0E4FB01E0002F30
S3150800B2F0F9D1059B7519F3186661A361E56118AE66
S3150800B3000CA804F0B1FE78220021300008F0DEF81F
S3150800B310764B01277380492306A95B18DF77744BA0
S3150800B320022273847D235B181A707275110028AB8C
S3150800B330704A1F7019ABDA879D2306AA9B181970E5
S3150800B34030AB1F70AA239B186B4A37701A806B4A5A
S3150800B35035AB1A806A4B10ADB3670723F3672369C9
S3150800B360586830755A681868F261B061D86825AAB5
S3150800B37010709A68DB680D98F3632DAB18700CABE8
S3150800B3801900B2632EA8082208F084F85D4B102233
S3150800B39000212F706B8011A808F098F80423282044
S3150800B3A00E960F9300F076FB0EAF0600380002AB40
S3150800B3B0059306C806C3684613AB06CB06C030001D
S3150800B3C06A68AB681099FEF7BDF831000698FFF772
S3150800B3D0FBFE2A00049B103343CB43C2022141CB18
S3150800B3E041C2494B28200E93796000F053FB059B18
S3150800B3F0060006CF06C36A4613AB03CB03C230006A
S3150800B4006A68AB681099FEF79DF831000698FFF751
S3150800B410DBFE049A049B44321278243313AE002AC6
S3150800B4204DD02A0083CB83C203CB03C2049B2820BA
S3150800B4301F6C00F02FFB6B460297059006CE06C3DD
S3150800B440AB6810996A680598FEF7D2F8049BDF6B1B
S3150800B4501B6C5B01FB18099304230493099BBB42ED
S3150800B46029D03E0008CE10AD9A781B7900210892A3
S3150800B47028001822079308F029F8049B20372B7513
S3150800B4802423AB75214BAB61049BEB612B0007CEE4
S3150800B49007C306CE06C3089B05985A1E9341079A0A
S3150800B4A05B00511E8A41D2001343290005226B75A1
S3150800B4B0FEF7F0F8D2E705990698FFF785FE0AAD7C
S3150800B4C0002221002800FFF759F923002000243321
S3150800B4D006CD06C339B0F0BD3C370108B8350108BA
S3150800B4E0C83501083436010844360108292A0000FF
S3150800B4F0242A0000252A0000282A00000702000046
S3150800B500343701080A1800005C370108303701088B
S3150800B51010B50400054B08330360103000F01CFB1F
S3150800B520200000F05CF8200010BDC0469C370108DA
S3150800B53010B50400FFF7ECFF20002C2100F0BEFA3E
S3150800B540200010BD10B5C36810304433197800F0D8
S3150800B550D9FA10BD73B505000C0000F049F82800AB
S3150800B560184BEC6008332B6002221749103000F0A4
S3150800B570D9FA230034336A460093012369461371C6
S3150800B580124801F053FD23003C336A46009300231A
S3150800B590694613710E4801F049FD23004833022617
S3150800B5A000936B4669461E710A4801F03FFD6B46DB
S3150800B5B05034009469461E71074801F037FD28008B
S3150800B5C076BDC0469C370108FA3C01089840010838
S3150800B5D0A83F0108583F01081840010870477047FE
S3150800B5E010B504000C2100F069FA200010BD000017
S3150800B5F0034B083303600023436083607047C046EB
S3150800B600B437010870B5103005680400A54205D0A6
S3150800B610281F03681B6898472D68F7E770BD70B543
S3150800B620103005680400A54205D0281F03685B682A
S3150800B63098472D68F7E770BD002210B54368011DCD
S3150800B640994204D01C685A601A602300F8E74160E2
S3150800B6508160026010BD000010B50400054B083378
S3150800B66003600C30FFF7E8FF2000FFF7B8FF200063
S3150800B67010BDC046CC37010810B50400FFF7ECFF33
S3150800B6802000182100F01AFA200010BD10B5040099
S3150800B690054B083303600C30FFF7CEFF2000FFF799
S3150800B6A0DBFF200010BDC046E437010810B50400D2
S3150800B6B0FFF7ECFF2000182100F000FA200010BD6B
S3150800B6C010B50400FFF794FF054B200008332360EC
S3150800B6D00023E360230010332361636110BDC04675
S3150800B6E0CC37010810B5040043690A1D10348B6075
S3150800B6F04C6042611A60C3680133C36010BD70B5FF
S3150800B70004002500006910350022854208D0066825
S3150800B7104260026004380368DB6898473000F3E744
S3150800B72025616561E26070BD10B50400FFF7C8FFCA
S3150800B730024B20000833236010BDC046E4370108D9
S3150800B74080687047826882B001AB91420AD242682B
S3150800B750525C1A7001225A7018785B781B021843DB
S3150800B76002B070470022F6E7002070474368186861
S3150800B770704700207047000030B587B0040000F01D
S3150800B780A5F92F4D0C302560606000F09FF9083050
S3150800B790A560E06000F09AF92561606100F096F90D
S3150800B7A00430A561E06102A800F06EF8029B254D01
S3150800B7B06362039B2562A36204A800F06DF8049BEC
S3150800B7C0E5622363059B032563636B46694600941C
S3150800B7D01D481D7101F02AFC2300083300936B46AF
S3150800B7E069461D71194801F021FC230010330093A6
S3150800B7F06B4669461D71164801F018FC230018337C
S3150800B80000936B4669461D71124801F00FFC230030
S3150800B810203300936B4605351D7169460E4801F0C5
S3150800B82005FC636B002B08D023002C3300936B4672
S3150800B83069460A481D7101F0F9FB200007B030BDC2
S3150800B8400438010814380108B83F0108C03F010848
S3150800B85048400108384001082040010860400108B6
S3150800B86070472022010091430A00413A0300012053
S3150800B870052A07D91A00303A092A03D92B3B584218
S3150800B8805841C0B270470000020010B5014B12CBF8
S3150800B89012C210BD20380108F8B5164C050026005E
S3150800B8A0154F2078FFF7DDFF002805D06078FFF7F1
S3150800B8B0D8FF002807D10134A41B062C15DD2E60FD
S3150800B8C06C602800F8BDA078FFF7CBFF002801D1EF
S3150800B8D00234F1E7E078FFF7C4FF002801D103340A
S3150800B8E0EAE70434BC42DCD1E6E700232B606B6050
S3150800B8F0E7E7C046BC000008C4000008704700BE61
S3150800B900FEE74368186843425841C0B270470020B2
S3150800B91070470023994200D143680360704710B509
S3150800B920002902D000F08EF810BD00F088F8FBE779
S3150800B93010B5040000F080F8024B2000A360E46014
S3150800B94010BDC0463038010810B54368984710BD89
S3150800B95013B5040002C0FFF7E7FE20001C30FFF70E
S3150800B960E3FE2200002334321370A363E3632368E3
S3150800B970FA2118001B6989005B6810309847044B48
S3150800B980206869460093019403F012FC200016BD56
S3150800B990CFB90008836B70B501338363036804006D
S3150800B9A018009B6918301B689847230034331B78A6
S3150800B9B00500002B02D0201DFFF731FE2368180072
S3150800B9C09B6918301B689847401BE06370BD10B52B
S3150800B9D04068FFF7DFFF10BD70B5050034352B78DA
S3150800B9E00400002B0ED104301C34FFF70BFE200098
S3150800B9F0FFF708FE01232B702000FFF710FE2B78B7
S3150800BA00002BF9D170BD000013B50400084B694638
S3150800BA100093084B0068019303F0CAFB20001C3012
S3150800BA20FFF734FE201DFFF731FE200016BDC04685
S3150800BA3049B90008FDB800080160416070474368CD
S3150800BA40036070470368002B01D0013B0360704711
S3150800BA507047FEE710B507F009FD5823036001207B
S3150800BA60404210BD094A10B5116803000131116042
S3150800BA700721084201D08B43083305490868C418D2
S3150800BA800C609168CB18936010BDC0467C210020DD
S3150800BA900020002010B5FFF7E5FF10BD10B5FFF731
S3150800BAA0E1FF10BD024A5368013353607047C04630
S3150800BAB07C21002010B5FFF7F5FF10BD10B5FFF784
S3150800BAC0F1FF10BD10B5FFF7EDFF10BD0048704738
S3150800BAD07C210020024A034B9B1A034AD360704715
S3150800BAE02C360020C07F00207C210020FEE740681D
S3150800BAF0704741600120704700880B889842804152
S3150800BB0040427047037B002B06D1002904D04369C5
S3150800BB107E2B01D8013343610173704700234361CB
S3150800BB2003737047094B10B5836000230400027144
S3150800BB300373074A4361074B02610160186806F000
S3150800BB4072FD210000F004FC200010BDC835010874
S3150800BB50403801087821002010B50400044B186805
S3150800BB6006F061FD210000F05BFB200010BDC04619
S3150800BB707821002073B50C00050000F0E1F88A234F
S3150800BB809B00E3186A460093002369461371274809
S3150800BB9001F04CFA8C239B00E318009303266B46AE
S3150800BBA069461E71224801F041FA8E239B00E3186C
S3150800BBB000936B4669461E711E4801F037FA9423B6
S3150800BBC09B00E31800936B4607361E7169461A48B0
S3150800BBD001F02CFA9B239B00E31800936B466946F9
S3150800BBE01E71164801F022FA9E239B00E3186A4646
S3150800BBF00093092369461371114801F017FAA02327
S3150800BC009B00E31800936B4669461E710D4801F0C8
S3150800BC100DFAA2239B006A46E41807230094694696
S3150800BC201371094801F002FA280076BDA040010800
S3150800BC30803F0108983F0108D03F0108E83F010806
S3150800BC409040010888400108A8400108704710B5CF
S3150800BC500C3000F030F810BD70B504000D00FFF789
S3150800BC60C7FC2000044B2900083323600C3000F081
S3150800BC702CF8200070BDC0464838010810B50400ED
S3150800BC80054B083303600C30FFF766FF2000FFF70B
S3150800BC90A6FC200010BDC0464838010810B50400AF
S3150800BCA01C30FFF73CFEE16920004B425941C9B2FE
S3150800BCB0FFF728FF10BD10B50400FFF72FFF20007F
S3150800BCC000211C30FFF725FE10BD70B504000D00DD
S3150800BCD00A790968FFF726FF2000A9681C30FFF7D4
S3150800BCE027FE200070BD4268136801202433536084
S3150800BCF0704770B589260400B600236865681A007F
S3150800BD009B5924329B00D3189D4202D100206260C1
S3150800BD1070BD2B1D2800636000F0F0F80028ECD0F9
S3150800BD20280000F0C6F80488280000F0C6F8C00706
S3150800BD302043EDE710B54068FFF7DBFF10BD0000B4
S3150800BD40094B13B58360030008336A46009303233F
S3150800BD500400016024314160C060694613710348DC
S3150800BD6001F064F9200016BD68380108A03F0108F3
S3150800BD7000207047892342689B00D05870470020EE
S3150800BD807047892342689B00D058704789234268C8
S3150800BD909B00D05882B001AB88420ED98900511851
S3150800BDA04A6A5268126812881A8001229A705A885A
S3150800BDB018881204104302B070470022F6E70020E4
S3150800BDC07047892342689B00D05870478B689A420F
S3150800BDD006D24B689200D35803600123037170475B
S3150800BDE00023FBE7806870474068704710B5040079
S3150800BDF0044B0360FFF783FC2000FFF72DFC2000AF
S3150800BE0010BDC0467838010810B50400FFF7EEFFEC
S3150800BE1020001821FFF752FE200010BD70B504005F
S3150800BE200068002804D00568FFF744FE2800F8E7F4
S3150800BE30206070BD70B50D0004000820FFF72AFECB
S3150800BE402B68436023682060036070BD0D4B70B596
S3150800BE50083303608923050004009B00C65824356F
S3150800BE60002E05D02800FFF7D9FF013E0435F7E775
S3150800BE7020000C30FFF7BAFF2000FFF7B0FB2000C8
S3150800BE8070BDC046E838010810B50400FFF7DEFFAC
S3150800BE90A42120008900FFF711FE200010BD002311
S3150800BEA013B504000191036001A9FFF7C3FF200041
S3150800BEB016BD03685B68186870470368002B05D0D1
S3150800BEC05A68107B002802D11B68F7E718007047EC
S3150800BED0892213B5406892008258002301AC8A4231
S3150800BEE006D9890024304018FFF7E7FF01232070A0
S3150800BEF06370637820781B02184316BD0368002018
S3150800BF00002B04D05A681B6852698018F8E77047F6
S3150800BF1010B50400486889218900415800239142D8
S3150800BF2006D9920024308018FFF7E8FF0123206025
S3150800BF302000237110BD10B50468002C04D0606879
S3150800BF40FFF7ECFD2468F8E710BD10B51368080084
S3150800BF505B681968FFF7D0FD10BD0B6810B55B6804
S3150800BF6011001868FFF7C8FD10BD136810B55A68A8
S3150800BF700B6811685B681868FFF7BEFD10BD89235A
S3150800BF8070B504009B00C5582434AD006519A54258
S3150800BF9004D02000FFF7CFFF0434F8E770BD10B5D2
S3150800BFA00400FFF7ECFF20000C30FFF72BFB10BD59
S3150800BFB0F0B5040085B00C30FFF731FB8B239B00EE
S3150800BFC0E35C002B07D08A2300229B00E31820009D
S3150800BFD01A71FFF7D4FF902391229B001900E618E7
S3150800BFE0002392006350A3500432A3500432A35096
S3150800BFF01032A21898200092972280009200A3502F
S3150800C0002350043023500430235089239B00E058E2
S3150800C01023008C4680002433181803900292039A52
S3150800C0209A4208D194239B00E11800238E4220D01F
S3150800C03004CE9B18FAE71968002918D04F683A7990
S3150800C040387B0192002805D0900062462018855852
S3150800C050013585507869002807D0019A9000029A20
S3150800C06020188258571C029A87500968E4E7043357
S3150800C070D5E78C229200A21853609B239B00E118F7
S3150800C0800023009A8A4204D0100004C800909B1826
S3150800C090F7E78E229200A418636005B0F0BD000091
S3150800C0A0F8B504002500FFF7A3FA2B4B0C35083327
S3150800C0B0236018220021280007F008FA2800FFF755
S3150800C0C0FFFA264B0025E3608923254A9B00E550A5
S3150800C0D00433E2508C22E3181D71224B9200A350C0
S3150800C0E0A21855608E229200A350A3185D60902373
S3150800C0F010279B00E6183A002900300007F0E6F9F9
S3150800C1009423194A9B00E25004220433E650043370
S3150800C110E2509B18E6183A002900300007F0D6F9D5
S3150800C1209B23042210499B00E1500433E650043354
S3150800C130E2509B180D4A2000E250E3185C60A023E9
S3150800C1400B4A9B00E250E3185C60A223094A9B0055
S3150800C150E250E3185C60F8BDE83801087838010851
S3150800C160C835010890380108A0380108B438010814
S3150800C170C8380108DC38010870B50E00040000252F
S3150800C180206800280FD043683268934209D1031DFE
S3150800C1909E4205D003682360FFF78CFC200000E070
S3150800C1A025000400ECE7002D04D0286803682B60FE
S3150800C1B0FFF780FC70BD8023F0B505000C000E006B
S3150800C1C09B00CB5885B09B009B1003920193019B63
S3150800C1D0002B12D05B089F00F71939002000039A3C
S3150800C1E00293FFF7BAFE029B002804D0019B029A2D
S3150800C1F0013B3E1D9B1A0193E9E780239B00E75804
S3150800C2002E60BF00E719B74207D032002000039915
S3150800C210FFF79BFE002800D02F60280005B0F0BD70
S3150800C220F7B5060089270500243668460A680C0013
S3150800C230BF003100FFF7BFFFEB5900989B00F318CA
S3150800C24098421ED001A90194FFF796FF009C236827
S3150800C250002B16D1E85980003618271DBE4208D093
S3150800C2602000FFF7DBFD63682360002363603C0062
S3150800C270F3E7301FFFF7D2FD89229200AB58013B46
S3150800C280AB50F7BD0023F0B50360037180230C00A3
S3150800C2900D009B00CB5885B09B001700CA1800906C
S3150800C2A003929E10002E13D0730801939B00EB187F
S3150800C2B03A00190020000293FFF757FE002805D020
S3150800C2C0029D019B013E0435F61AEBE7019EE9E75C
S3150800C2D0039BAB4209D180210123009A890013717F
S3150800C2E06358802B0FD107F0B1F82A0039002000D7
S3150800C2F0FFF73BFE0028EED1009B1E71009B18003D
S3150800C3001D6005B0F0BD00209A00A21884460133CE
S3150800C310AA4204D13A6838602A606350EEE7161FCD
S3150800C32030681060624632606350AE4208D0043E00
S3150800C330301DFFF773FD3368736000233360F4E73D
S3150800C3402800FFF76BFD3B682B6000233B60D5E7B1
S3150800C3507FB50500243506000A6868460C002900E2
S3150800C360FFF729FF89239B00F35800989B00EB18D9
S3150800C370984204D002A90294FFF75CFD7FBD210014
S3150800C38001A8FFF78CFD02A8290001AAFFF77AFF8A
S3150800C39001A8FFF743FDF1E70423C05E70470020BC
S3150800C3A070470000F7B50023C75E05004020160059
S3150800C3B00191FFF76FFB0400291DFFF74DFC01985B
S3150800C3C0044B21000C30A663A7872360FFF78AF980
S3150800C3D0F7BDC0461839010810B50400024B0360C2
S3150800C3E0FFF74CFC200010BD1839010810B50400F1
S3150800C3F0FFF7F2FF20004021FFF760FB200010BD89
S3150800C40010B50400024B0360FFF738FC200010BD8E
S3150800C4103039010810B50400FFF7F2FF200040216B
S3150800C420FFF74CFB200010BD10B50400806B0368B5
S3150800C4301B6898473C22A35E0121834200DB00214A
S3150800C4402000C9B20C30FFF729FC10BD10B5040056
S3150800C450806B03681B6898473C22A35E01218342D0
S3150800C46000DC00212000C9B20C30FFF717FC10BD14
S3150800C470F7B5160000229B5E050040200F000193C9
S3150800C480FFF708FB04003900FFF7E6FB054B280019
S3150800C4902360019B2100A663A387FFF723F92000E9
S3150800C4A0FEBDC0463039010807B50A00044901AB8C
S3150800C4B0198004490C300431FFF7DAFF07BDC0467E
S3150800C4C0EE0200004039010837B50D0004000A00E5
S3150800C4D001000A48FFF766FF2A0021000848FFF70F
S3150800C4E061FFFA222000074901AB92011A80043144
S3150800C4F02A000C30FFF7BCFF37BDC046603901087B
S3150800C5007039010850390108022070470420704725
S3150800C510064B10B5186806F081F8842203009200CD
S3150800C5209B5880181B68984710BDC0467821002084
S3150800C53010B5086803689B68984710BD086810B569
S3150800C54003689B689847400010BD086810B50368E3
S3150800C5509B689847800010BD10B5086803689B68FB
S3150800C560984710BD086810B503689B68984740004F
S3150800C57010BD086810B503689B689847800010BD11
S3150800C580012070470420704701207047012070473A
S3150800C5900220704710B5086803689B68984710BD65
S3150800C5A007B5037A011DFF2B01D1013BFF3B034A67
S3150800C5B09B009B5801A898470EBDC046603A0108E3
S3150800C5C010B50468FFF7A4FF2418A07810BD73B54A
S3150800C5D0040008680D001668FFF7F2FF002802D16C
S3150800C5E02071200076BD6A68336831001B6868468A
S3150800C5F0126898476B461B79002B02D0009B236074
S3150800C60001232371EDE773B5040008680D00166869
S3150800C610FFF7D6FF002802D12071200076BD6A6890
S3150800C620336830001B6811689847030CDBB2019029
S3150800C630002B04D001AB00229B5E236001232371EB
S3150800C640EBE773B5040008680D001668FFF7B8FF36
S3150800C650002802D12071200076BD6A683368116807
S3150800C6601B683000984701AA030410801B0E03D0EC
S3150800C6700023D356236001232371ECE773B5040026
S3150800C68008680D001668FFF79BFF002802D1207185
S3150800C690200076BD6A68336831001B6868461268F0
S3150800C6A098476B461B79002B02D0009B2360012319
S3150800C6B02371EDE773B5040008680D001668FFF7E7
S3150800C6C07FFF002802D12071200076BD6A68336892
S3150800C6D030001B6811689847030CDBB20190002BE9
S3150800C6E003D001AB1B88236001232371ECE773B5E4
S3150800C6F0040008680D001668FFF762FF002802D1DB
S3150800C7002071200076BD6A68336811681B6830009E
S3150800C710984701AA030410801B0E02D013782360E1
S3150800C72001232371EDE773B5040008680D00166848
S3150800C730FFF746FF002802D12071200076BD6A68FF
S3150800C740336811681B683000984701AA03041080F3
S3150800C7501B0E02D01378236001232371EDE770B511
S3150800C760040008680D001668FFF72AFF002802D1A2
S3150800C7702071200070BD6B681B68002B07D13368D9
S3150800C78030001B689847012320602371F1E70023D6
S3150800C790FBE770B5040008680D001668FFF710FF80
S3150800C7A0002802D12071200070BD6B681B68002B21
S3150800C7B007D1336830001B6898470123206023712E
S3150800C7C0F1E70023FBE770B5040008680D0016685A
S3150800C7D0FFF7F6FE002802D12071200070BD6B68B5
S3150800C7E01B68002B07D1336830001B689847012364
S3150800C7F020602371F1E70023FBE770B504000868A1
S3150800C8000D001668FFF7DCFE002802D12071200013
S3150800C81070BD6B681B68002B07D1336830001B6836
S3150800C8209847012320602371F1E70023FBE770B5E1
S3150800C830040008680D001668FFF7C2FE002802D13A
S3150800C8402071200070BD6B681B68002B07D1336808
S3150800C85030001B689847012320602371F1E7002305
S3150800C860FBE770B5040008680D001668FFF7A8FE18
S3150800C870002802D12071200070BD6B681B68002B50
S3150800C88007D1336830001B6898470123206023715D
S3150800C890F1E70023FBE770B5040008680D00166889
S3150800C8A0FFF78EFE002802D12071200070BD6B684C
S3150800C8B01B68002B07D1336830001B689847012393
S3150800C8C020602371F1E70023FBE773B504000868CD
S3150800C8D00D001668FFF774FE002802D120712000AB
S3150800C8E076BD6A68336831001B68684612689847DF
S3150800C8F06B461B79002B02D0009B23600123237112
S3150800C900EDE773B5040008680D001668FFF758FED2
S3150800C910002802D12071200076BD6A68336830008D
S3150800C9201B6811689847030CDBB20190002B04D0F2
S3150800C93001AB00229B5E236001232371EBE773B5ED
S3150800C940040008680D001668FFF73AFE002802D1B1
S3150800C9502071200076BD6A68336811681B6830004C
S3150800C960984701AA030410801B0E03D00023D35650
S3150800C970236001232371ECE773B5040008680D00F2
S3150800C9801668FFF71DFE002802D12071200076BD2B
S3150800C9906A68336831001B686846126898476B46B0
S3150800C9A01B79002B02D0009B236001232371EDE73E
S3150800C9B073B5040008680D001668FFF701FE002825
S3150800C9C002D12071200076BD6A68336830001B6882
S3150800C9D011689847030CDBB20190002B03D001AB1A
S3150800C9E01B88236001232371ECE773B504000868EC
S3150800C9F00D001668FFF7E4FD002802D1207120001B
S3150800CA0076BD6A68336811681B683000984701AAC2
S3150800CA10030410801B0E02D01378236001232371B0
S3150800CA20EDE773B5040008680D001668FFF7C8FD42
S3150800CA30002802D12071200076BD6A683368116823
S3150800CA401B683000984701AA030410801B0E02D009
S3150800CA501378236001232371EDE770B50400086895
S3150800CA600D001668FFF7ACFD002802D120712000E2
S3150800CA7070BD6B681B68002B07D1336830001B68D4
S3150800CA809847012320602371F1E70023FBE770B57F
S3150800CA90040008680D001668FFF792FD002802D109
S3150800CAA02071200070BD6B681B68002B07D13368A6
S3150800CAB030001B689847012320602371F1E70023A3
S3150800CAC0FBE770B5040008680D001668FFF778FDE7
S3150800CAD0002802D12071200070BD6B681B68002BEE
S3150800CAE007D1336830001B689847012320602371FB
S3150800CAF0F1E70023FBE770B5040008680D00166827
S3150800CB00FFF75EFD002802D12071200070BD6B681A
S3150800CB101B68002B07D1336830001B689847012330
S3150800CB2020602371F1E70023FBE770B5040008686D
S3150800CB300D001668FFF744FD002802D12071200079
S3150800CB4070BD6B681B68002B07D1336830001B6803
S3150800CB509847012320602371F1E70023FBE770B5AE
S3150800CB60040008680D001668FFF72AFD002802D1A0
S3150800CB702071200070BD6B681B68002B07D13368D5
S3150800CB8030001B689847012320602371F1E70023D2
S3150800CB90FBE770B5040008680D001668FFF710FD7E
S3150800CBA0002802D12071200070BD6B681B68002B1D
S3150800CBB007D1336830001B6898470123206023712A
S3150800CBC0F1E70023FBE710B50468FFF7A1FC24187A
S3150800CBD0207910BD70B5050000680C68FFF7F3FFF3
S3150800CBE000280DD000206B681B68834208D1AB680B
S3150800CBF0200019684B1E99412368C9B25B6898479B
S3150800CC0070BD70B5040000680D68FFF7DCFF0028EA
S3150800CC100BD0002063681B68834206D1A3682800EE
S3150800CC2019682B68C9B25B68984770BD70B504006F
S3150800CC3000680D68FFF7C7FF00280BD0002063685F
S3150800CC401B68834206D1A368280019682B6889B235
S3150800CC505B68984770BD70B5040000680D68FFF7FB
S3150800CC60B2FF00280AD0002063681B68834205D1FA
S3150800CC70A2682B6828005B681168984770BD70B574
S3150800CC80040000680D68FFF79EFF00280BD00020FF
S3150800CC9063681B68834206D10021A3682800595699
S3150800CCA02B685B68984770BD70B5040000680D680E
S3150800CCB0FFF789FF00280BD0002063681B688342B2
S3150800CCC006D1A36828000021595E2B685B6898473F
S3150800CCD070BD70B5040000680D68FFF774FF002882
S3150800CCE00AD0002063681B68834205D1A2682B68B6
S3150800CCF028005B681168984770BD70B50400006825
S3150800CD000D68FFF760FF00280AD0A36861681A68F3
S3150800CD102800531E9A412B6809685B68D2B2984767
S3150800CD2070BD70B5040000680D68FFF74CFF002859
S3150800CD3008D0A36861681A682B6828005B680968C8
S3150800CD40D2B2984770BD70B5040000680D68FFF749
S3150800CD503AFF002808D0A36861681A682B6828007B
S3150800CD605B68096892B2984770BD70B504000068A0
S3150800CD700D68FFF728FF002807D0A26861682B68AE
S3150800CD8028005B6812680968984770BD70B504008A
S3150800CD9000680D68FFF717FF002808D00022A3686F
S3150800CDA061689A562B6828005B680968984770BDC1
S3150800CDB070B5040000680D68FFF705FF002808D065
S3150800CDC0A368616800229A5E2B6828005B68096878
S3150800CDD0984770BD70B5040000680D68FFF7F3FE4C
S3150800CDE0002807D0A26861682B6828005B6812686B
S3150800CDF00968984770BD70B5050000680C68FFF7AC
S3150800CE00E2FE00280DD000206B681B68834208D11B
S3150800CE10AB68200019684B1E99412368C9B25B6844
S3150800CE20984770BD70B5040000680D68FFF7CBFE23
S3150800CE3000280BD0002063681B68834206D1A368CC
S3150800CE40280019682B68C9B25B68984770BD70B529
S3150800CE50040000680D68FFF7B6FE00280BD0002016
S3150800CE6063681B68834206D1A368280019682B6883
S3150800CE7089B25B68984770BD70B5040000680D6894
S3150800CE80FFF7A1FE00280AD0002063681B688342CA
S3150800CE9005D1A2682B6828005B681168984770BDA1
S3150800CEA070B5040000680D68FFF78DFE00280BD0EA
S3150800CEB0002063681B68834206D10021A368280006
S3150800CEC059562B685B68984770BD70B504000068B2
S3150800CED00D68FFF778FE00280BD0002063681B68F2
S3150800CEE0834206D1A36828000021595E2B685B6837
S3150800CEF0984770BD70B5040000680D68FFF763FEBB
S3150800CF0000280AD0002063681B68834205D1A268FE
S3150800CF102B6828005B681168984770BD70B50400D7
S3150800CF2000680D68FFF74FFE00280AD0A3686168FD
S3150800CF301A682800531E9A412B6809685B68D2B2A2
S3150800CF40984770BD70B5040000680D68FFF73BFE92
S3150800CF50002808D0A36861681A682B6828005B68EF
S3150800CF600968D2B2984770BD70B5040000680D68AC
S3150800CF70FFF729FE002808D0A36861681A682B689D
S3150800CF8028005B68096892B2984770BD70B50400BE
S3150800CF9000680D68FFF717FE002807D0A2686168C9
S3150800CFA02B6828005B6812680968984770BD70B5D9
S3150800CFB0040000680D68FFF706FE002808D0002266
S3150800CFC0A36861689A562B6828005B6809689847C1
S3150800CFD070BD70B5040000680D68FFF7F4FD002801
S3150800CFE008D0A368616800229A5E2B6828005B68EF
S3150800CFF00968984770BD70B5040000680D68FFF7AA
S3150800D000E2FD002807D0A26861682B6828005B68E3
S3150800D01012680968984770BD10B5026803009079D0
S3150800D020002802D01800FFF7CEFD10BD73B5060024
S3150800D03010200D00FEF72EFD030040C306CD06C3E3
S3150800D040002304008381C381074B186805F0E6FABC
S3150800D05001A9019400F093FA0198002802D0102142
S3150800D060FEF72CFD200076BD782100201FB501AB08
S3150800D07003930B7A0192040002910A1DFF2B01D13A
S3150800D080013BFF3B04499B0020005B5802A99847D7
S3150800D090200004B010BDC046283A01081FB501ABF0
S3150800D0A003930B7A0192040002910A1DFF2B01D10A
S3150800D0B0013BFF3B04499B0020005B5802A99847A7
S3150800D0C0200004B010BDC046F039010830B587B05D
S3150800D0D001AB0493037A0191040003900592011DA4
S3150800D0E0FF2B01D1013BFF3B094A9B009B5803A834
S3150800D0F09847051E08D02000FFF78EFF002803D0AA
S3150800D100A38901339BB2A381280007B030BDC0466E
S3150800D110B839010830B587B001AB0493037A019199
S3150800D120040003900592011DFF2B01D1013BFF3B33
S3150800D130094A9B009B5803A89847051E08D020005B
S3150800D140FFF76AFF002803D0A38901339BB2A381A6
S3150800D150280007B030BDC046803901080120704755
S3150800D16086239B0073B50400C01804F0B9FAAB23F4
S3150800D170DB00E6187268E3585110D20701D56258E9
S3150800D180D3586D466118280098470CCD0CC673BD58
S3150800D19010B54368984710BD10B5002802D0102175
S3150800D1A0FEF78CFC10BD0000F0B5EFF310820123EA
S3150800D1B01D00954372B6114A8C5A8A185788A6B22A
S3150800D1C0BC4209D1AD22D2008C5A8A185788A6B219
S3150800D1D0BC420CD10A4B03E056800A4A8B540A4BD0
S3150800D1E0036000234360002D06D062B6F0BD56806A
S3150800D1F0044A8B54054BF3E772B6F7E7640500005B
S3150800D200A9D100086C0500009DD2000865D2000867
S3150800D21003690549C0680022884202D15A425A4128
S3150800D220D2B20120504070470104010889239B00AF
S3150800D23070B50400C8180D00FFF7EAFF002806D1EC
S3150800D240054B6060E854054B2360200070BD044B15
S3150800D250236000236360F8E76C050000A9D1000885
S3150800D2602DD2000886239B0070B5CD180C33040018
S3150800D270C818FFF7CDFF061E05D0064B236000230E
S3150800D2806360200070BD280004F002FE024B666051
S3150800D2902360F6E765D200082DD20008F8B5892381
S3150800D2A09B000500C8180C00FFF7B2FF002801D044
S3150800D2B0114B0CE083232200AC209B00E3580C3270
S3150800D2C09B00D318C0002258934205D10B4B2B6004
S3150800D2D0002328006B60F8BD111D215011688A894A
S3150800D2E0CF8996B2BA42EED086239B00CE81E0184B
S3150800D2F004F084FDDCE7C0469DD2000865D200082C
S3150800D3000B681968136808881B681B88984280414F
S3150800D31040427047832370B504009B00C3580C3401
S3150800D3209B00E5189B10002B0DD058088200A21808
S3150800D3301668366836888E4203D2013B141D1B1ABE
S3150800D340F1E70300EFE71800A54205D02068026858
S3150800D35012888A4200D9180070BD70B5040008000A
S3150800D36011881D00FFF7D6FF011E05D02A002000F0
S3150800D370FFF794FE200070BD2071FBE713B50988FE
S3150800D38001931400FFF7C6FF03000020834204D070
S3150800D3902100180001AAFFF7BDFE16BD084A0300C2
S3150800D3A0815A821852880120914208D1AD22D200B2
S3150800D3B0995A9A185288914201D1024A985C704744
S3150800D3C0640500006C050000862310B59B00C01894
S3150800D3D004F0CEFC10BD832370B5040005009B0045
S3150800D3E0C6580C34B600A619A64204D0280002CCAA
S3150800D3F0FFF7EAFFF8E770BD0200AC230C32DB004A
S3150800D400C250044A835A01339BB283520122024B0B
S3150800D410C2547047640500006C05000073B504002B
S3150800D420FEF7E6F8164B0025083323608323154AD2
S3150800D4309B00E5500433E2500122E3181A71862353
S3150800D4409B00E61830001049104A04F027FDAB236C
S3150800D4500F4ADB00E2500F4B3000E5500433E5502D
S3150800D4600D4BE552E3185D80AD23DB00E552E3186A
S3150800D4705D800A4BE55404F05FFC200076BDC0468B
S3150800D480983A0108C835010891D100085DD100080D
S3150800D490A9D100085C050000640500006C050000C1
S3150800D4A00023F0B503600371802306000C009B007F
S3150800D4B0CB5887B003939B001700CA189B1002919C
S3150800D4C004920193019B002B12D05B089D006519FD
S3150800D4D03A00290002980593FFF712FF059B0028DA
S3150800D4E004D0019B059A013B2C1D9B1A0193E9E781
S3150800D4F0049BA34206D101233371039B802B27D1BA
S3150800D50005F0A4FF220039000298FFF7F9FE00286B
S3150800D51028D001233371039B802BF1D0049B019AF9
S3150800D5201D1F2B682A60049A029913608022039BA8
S3150800D530920001338B500023AC4217D0043D2A6871
S3150800D54068682B606A609842F5D0FFF725FEF2E717
S3150800D5503B68019A02993A6023608023039A9B00EC
S3150800D5600132CA503000346007B0F0BD3A683B60FB
S3150800D570206822600028F5D0FFF70EFEF2E707B50F
S3150800D5800A00010068460C31FFF78AFF07BD000054
S3150800D5900E4B70B508330360862304009B00C01841
S3150800D5A004F090FC832325009B00E6580C35002EDA
S3150800D5B007D02868013E002801D0FFF7EDFD0435A5
S3150800D5C0F5E72000FEF70BF8200070BD983A010831
S3150800D5D010B50400FFF7DCFFAE212000C900FEF7F6
S3150800D5E06DFA200010BD37B56A460B00406830C991
S3150800D5F030C200995A6800F08EFD37BD07B5009114
S3150800D6000192142A03D8FC30006DFCF7A5FB07BD70
S3150800D6100B0010B506CB4068FFF7F0FF10BD000001
S3150800D62030B5040087B00D000092142302000849A3
S3150800D63000F0C2FB2300FC331D65064B280004A935
S3150800D64004930594FCF702F9200007B030BDC046E4
S3150800D65011D60008E7D50008014B03607047C0469D
S3150800D660B83A0108704720207047202070470020EC
S3150800D6707047000010B5044C2000FFF7EDFF034B80
S3150800D6800833236010BDC0468C210020C83A010823
S3150800D6903120704724207047242070472020704787
S3150800D6A02020704710B5044C200000F0BBF8034B4F
S3150800D6B00833236010BDC04690210020E03A0108D7
S3150800D6C010B54068FFF76AFE10BD70B505004068E2
S3150800D6D0FFF764FE04001020002C03D16868FFF7EA
S3150800D6E08BFE200070BD000010B50400034B083304
S3150800D6F00360FFF7B7FF200010BDC046FC3A0108DB
S3150800D70010B50400FFF7F0FF20000821FEF7D6F950
S3150800D710200010BDF0B585B00D00212601920093BA
S3150800D720002B06D0902464000B191E79002E03D016
S3150800D7302226300005B0F0BD0B594068190CFFF7DA
S3150800D740E9FD071EF4D0FFF73EFA00281DD02D5933
S3150800D750009BADB25B19019C0093009B9D42E8D0EB
S3150800D7606278237812021A43A37829001B041A4305
S3150800D770E37838001B06134303AA0393FFF7A6FCB6
S3150800D780043401350028E8D1D2E72326D1E7F0B5DD
S3150800D79085B00D00212601920093002B06D0902417
S3150800D7A064000B191E79002E03D02226300005B01E
S3150800D7B0F0BD0B594068190CFFF7ACFD071EF4D0F5
S3150800D7C0FEF7FEFE00281CD02D59009BADB25B1952
S3150800D7D0019C0093009B9D42E8D02A00390002A8CC
S3150800D7E0FFF744FC02AA1279029B0135002ADCD015
S3150800D7F01A0A237062701A0C1B0EA270E3700434A6
S3150800D800E8E72426D2E7000070B504000D00FFF70C
S3150800D81023FF034B200008336560236070BDC046B4
S3150800D820FC3A0108014B03607047C046243B0108D7
S3150800D830704770B50500FC350C006B68FF2901D9E7
S3150800D84005F004FE8B4201D96C6070BDC018CA1A77
S3150800D8509942F9D0002105F039FEF5E79E2370B507
S3150800D86004005B00C558C618B54206D0281F0368D1
S3150800D87021005B6898472D68F6E770BD9E2370B552
S3150800D88004005B00C558C618B54206D0281F0368B1
S3150800D89021001B6898472D68F6E770BD9E2370B572
S3150800D8A004005B00C558C618B54206D0281F036891
S3150800D8B021009B6898472D68F6E770BDC36801206C
S3150800D8C01B780A009840431E1A40194201D0411895
S3150800D8D0891A08007047C368806810B51C788842A2
S3150800D8E000D908000121A14005F0FCFAA04010BDAE
S3150800D8F00121C36810B51C788068A14005F0F2FACA
S3150800D900A04010BDFE23FC30C26A1370C36A59706A
S3150800D91002238363704782B0F8B5160004001D0021
S3150800D9200793FFF7CBFF3100E3682A181B78994065
S3150800D930531808996D182121AB4210D82500FC35DB
S3150800D940A86C210003685F683300B847011E06D13A
S3150800D9506B6A9E196E62F8BC08BC02B018472000B4
S3150800D960FFF7D0FFF7E79423F7B504005B00C65826
S3150800D97017000191FFF7A2FF2300050001212933B3
S3150800D980FF335868E368801B1B78401B994005F0F5
S3150800D990A9FA2221B84228D30022019BF318761946
S3150800D9A0B34202D01A700133FAE701992000FFF753
S3150800D9B085FF26000200FC36F36AB06C9A180368E5
S3150800D9C021001B681D003B00A847011E0DD1736A84
S3150800D9D02000DB1973620199FFF770FF3A00E368CC
S3150800D9E01B789A401218B263F7BD2000FFF78AFF2A
S3150800D9F0FAE7030010B50400FC33986C21000368AD
S3150800DA009B689847011E02D02000FFF77BFF10BDD8
S3150800DA10F8B50400E36806001B7815009A40FC3642
S3150800DA20F06C1300026897680A002100B847011EC7
S3150800DA3003D1736A5D197562F8BD2000FFF762FFAE
S3150800DA40FAE7C36818780623400018407047112083
S3150800DA5070470000F0B50127837E85B0FF218776E1
S3150800DA6004000093FFF737FF134901902000FFF7E2
S3150800DA7032FF250006002000FFF7E9FFFC35EB6AB8
S3150800DA8058702000FFF7DDFFEB6A019A9870EB6A81
S3150800DA90DA70EB6A1E71EB6A360A5E71EB6A9F7181
S3150800DAA0EB6ADF710823AB63009B002B02D12000D1
S3150800DAB0FFF7E4FE05B0F0BDFFFF0000002310B538
S3150800DAC003748376FFF7EAFE10BD13B54B7804009E
S3150800DAD000910192012B03D02221FFF713FF13BDFA
S3150800DAE0FFF787FF0422237C93432374F7E79223E7
S3150800DAF007B50192CA785B00C2544A790B791202BB
S3150800DB001A438B7900911B041A43CB791B061343DE
S3150800DB100200FC325362FFF7A1FE07BD30B585B09F
S3150800DB2002910121150004000392FFF7C7FE281A87
S3150800DB3001252900E3681B78994005F0D3F9039B72
S3150800DB400200009329002000029BFFF7E4FE05B0BF
S3150800DB5030BD1FB50B0002911100039200915A784F
S3150800DB600221FFF7D8FE05B000BD922337B5019212
S3150800DB70CA785B00C2544A790B7912021A438B7928
S3150800DB8005001B041A43CB790C001B06134302003D
S3150800DB90FC3253620091FFF761FE2800012162788A
S3150800DBA0FFF7E1FE37BD07B5009101924A780121DA
S3150800DBB0FFF7D9FE07BDF7B505000400FC35E86C8C
S3150800DBC00091036821001B6801929847061E1BD125
S3150800DBD00123EA6AFF2193702000FFF77CFEEB6AB7
S3150800DBE00221D8702000FFF769FEEF6AF978091A52
S3150800DBF0FF2005F077F902233871EA6A5371EB6A58
S3150800DC009E710723AB63F7BD01002000FFF77AFE7C
S3150800DC10F9E713B54B78040000910192002B04D064
S3150800DC2021212000FFF76EFE12E00300FC33D86CBA
S3150800DC304B790A791B0213438A7912041343CA796A
S3150800DC40210012061A4303685B689847011EE8D14B
S3150800DC5013BD030013B50400FC33D86C00910368A8
S3150800DC602100DB680192984701002000002902D0B4
S3150800DC70FFF748FE13BDFFF721FFFBE713B5009139
S3150800DC80012104000192FFF719FE019B1A1A009B55
S3150800DC9019182000FFF7BCFE13BD1FB501926A468E
S3150800DCA04B7804009373CA788B78120213436A463A
S3150800DCB093814A790B7912021A438B7900911B04D6
S3150800DCC01A43CB7921001B06134302930300FC3346
S3150800DCD0D86C02AA03681B699847011E02D0200067
S3150800DCE0FFF710FE1FBD37B50500FC350400A86C0C
S3150800DCF0019203680091DB68984701220300207CA3
S3150800DD00134090431843EB6A20745870237DEA6ADF
S3150800DD1093700023EA6AD370238BEA6A1371238B04
S3150800DD20EA6A1B1253710623AB6337BD07B54B78F6
S3150800DD3000910192002B03D02721FFF7E3FD07BDD1
S3150800DD408B78002B01D02621F7E7CB78002BF6D06D
S3150800DD50F9E707B54B780091013B0192012B03D9EE
S3150800DD602721FFF7CFFD07BD8B78002BF8D1FC30B4
S3150800DD70C26A5370C26A9370C26AD37004338363EB
S3150800DD80F1E707B50200FC32936B002B05D0D26A87
S3150800DD900193694603680092984707BD13B50B7847
S3150800DDA0040000910192FF2B04D1FFF753FE2000D7
S3150800DDB0FFF7E7FF13BD0000F0B504001D002300C0
S3150800DDC085B002A80291039206C806C30A9B2600DC
S3150800DDD0E360902300205B00FC36A5602074A061F8
S3150800DDE03062E05023002133FF331871854202DA8E
S3150800DDF0164805F06AF894235B00E718E05001938B
S3150800DE007860B860002D02D02800FDF743FE019B1C
S3150800DE10E05043190193BB60002D03D02A0000216E
S3150800DE2005F054FB019B9E227B600023B363F363DA
S3150800DE30230020003D33FF335200A3505B60044BA0
S3150800DE40B364044BF36405B0F0BDC046D035010891
S3150800DE508C2100209021002030B51C680023521A1E
S3150800DE60D51A002D03DDCD5CE5540133F8E7D3431D
S3150800DE70DB171A40A218026030BDF0B587B00291D0
S3150800DE800191022104000392FFF718FD019B05008A
S3150800DE901F1820005E78FFF72BFD451BB54200D9F9
S3150800DEA035002A00E36803981B7884469A40BB1815
S3150800DEB0019A6244934205D921212000FFF722FDE9
S3150800DEC007B0F0BDAE4214D9761BE67626000223CB
S3150800DED01C36A37629003000FFF7ABFC04AB3900EB
S3150800DEE07A1905A80496FFF7B7FF0023FC34A36345
S3150800DEF0E6E72A0039002000FFF78AFDE0E713B5B8
S3150800DF0083680091040021210192934237D3009B34
S3150800DF101878C838372800D98BE004F0D9FF847EF2
S3150800DF207C8A8A8A8A76706A648A8A8A8A8A8A8AC5
S3150800DF308A8A8A8A8A8A8A8A8A8A8A8A8A8A8A8A33
S3150800DF40403A8A8A5E8A588A8A8A524C348A8A462B
S3150800DF508A8A2F29251C20000099019AFFF77AFD45
S3150800DF602000FFF70EFF13BD2000FFF7A7FDF7E718
S3150800DF7020000099019AFFF7B6FEF1E7002120007C
S3150800DF80FFF7C0FCECE720000099019AFFF7AFFD08
S3150800DF90E6E720000099019AFFF7C8FEE0E72000AF
S3150800DFA00099019AFFF7D5FEDAE720000099019A51
S3150800DFB0FFF78BFDD4E720000099019AFFF7F3FDE0
S3150800DFC0CEE720000099019AFFF7CFFDC8E72000A9
S3150800DFD00099019AFFF7BDFDC2E720000099019A52
S3150800DFE0FFF79CFDBCE720000099019AFFF7E3FDC7
S3150800DFF0B6E720000099019AFFF70BFEB0E720006C
S3150800E0000099019AFFF739FFAAE720000099019ABB
S3150800E010FFF71FFEA4E72921B1E720000099019A1E
S3150800E020FFF72CFE9CE720000099019AFFF735FEC2
S3150800E03096E72021A3E7F0B54B7889B005920193BE
S3150800E0400491C37E019A04000E009A420DD029213C
S3150800E050FFF758FC2300FC33E27ED96A8A70032254
S3150800E0609A630123638309B0F0BD0221FFF726FCFA
S3150800E0703318050020000293FFF73AFC019B451B65
S3150800E0809D4200D91D002A00E3681B789A401300B8
S3150800E090029AD318059AB618B34204D9212120004A
S3150800E0A0FFF730FCDDE726002700FC36316A1C370F
S3150800E0B07B18380049190393FFF7BBFB039B0299AA
S3150800E0C00693029B07A85A1906ABFFF7C5FE019BE4
S3150800E0D05D1BEDB2E576002D07D139002000326AC6
S3150800E0E0FFF796FC0123A376BDE70023B363BAE7DF
S3150800E0F013B50B78040000910192CA2B05D1FFF7DE
S3150800E1009AFF2000FFF73DFE13BD2921FFF7FAFB12
S3150800E1100123A376F5E707B503000192FF22FC3336
S3150800E1200091D96A0A70FE3A9A63837E934208D0B0
S3150800E130022B0BD0002B03D10099019AFFF72EFE74
S3150800E14007BD0099019AFFF7DAFEF9E70099019AE7
S3150800E150FFF7CEFFF4E7037A10B50820002B00D1AD
S3150800E160023801F021F9002010BD000010B50400A6
S3150800E170024B0360FFF75CFB200010BDE83A01087C
S3150800E18010B50400FFF7F2FF20000C21FDF796FCFE
S3150800E190200010BD13B50400FFF744FB084B221DF1
S3150800E1A008332360074B009263606A46002369467A
S3150800E1B0237213710448FEF739FF200016BDC046C6
S3150800E1C0383B0108C835010810400108244B98421D
S3150800E1D006D18023234A1B01116C0B43136407E005
S3150800E1E0214B984207D101231E4AD16B0B43D363B7
S3150800E1F0BFF34F8F70471D4B984203D1194A02232C
S3150800E200D16BF3E71A4B984203D1164A1023D16B08
S3150800E210ECE7184B984203D1124A2023D16BE5E765
S3150800E220154B984204D180230E4A1B02116CD4E781
S3150800E230124B984204D180230A4A5B02116CCCE740
S3150800E2400F4B984204D18023064A9B02116CC4E7FF
S3150800E2500C4B9842CCD18023024ADB02116CBCE7F6
S3150800E260002C01400010024000000040000400405D
S3150800E270001000400014004000200040004001400B
S3150800E280004401400048014070B50D4B0D4C01009B
S3150800E290A568800199420BD8FA21890004F022FE6C
S3150800E2A00230A368EB1A1B021B0A8342F9D370BD1E
S3150800E2B0FA2200239200890E04F08AFFF0E7C0468E
S3150800E2C0FEFFFF0310E000E010B540680C3000F0D8
S3150800E2D0D5FE10BD10B50021406800F0D8FEFA2022
S3150800E2E04000FFF7D1FF10BD10B504002820FFF746
S3150800E2F0CBFF0121606800F0CAFE10BDF0B587B0FB
S3150800E30004000F00FFF7F0FF2348FFF7BDFFEFF308
S3150800E3101083012632009A43019272B62000FFF755
S3150800E320D9FF7B427B4102AAD11D20680A330B70B4
S3150800E330036805AD1B682A009C4633006646B0474D
S3150800E3402B7804AE022B10D02000FFF7CDFF002358
S3150800E3507370019B002B06D062B6737830781B0267
S3150800E360184307B0F0BD72B6F7E7019B002B0ED035
S3150800E37062B620682A00036800211C680423A047A7
S3150800E380002F06D1AB78337001237370E5E772B6B8
S3150800E390EFE72B78F7E7C046C409000073B5050018
S3150800E3A0160042600222040008350160FF3200218F
S3150800E3B0280005F08BF82300FC331D615D610D35DF
S3150800E3C0FF3500212800264A05F080F8C6239B0061
S3150800E3D0E3181D60C7239B00E3181D60C8239B0034
S3150800E3E00021E018052205F071F8CA22002301254C
S3150800E3F09200A3500432A5500432A352300000F014
S3150800E400C3FD60680C3000F0BFFD6068183000F08E
S3150800E410BBFD2900606800F03AFE606829001830E4
S3150800E42000F035FE6368586AFFF7D0FE8022736AEB
S3150800E43061681A60413A9A620A4A5D61DA621A6844
S3150800E44068462A431A60084B28310093019401F064
S3150800E4509BFC636820005B6ADA681543DD6076BD5D
S3150800E46001020000E703000045E9000873B50091C2
S3150800E4700192032A04D9CB780C000433934204D0C2
S3150800E480CC2301229B00C25473BD0300FC331D69D3
S3150800E4905969491B01D50231FF3180256D00691A7A
S3150800E4A0951CA942ECD3050059690A350A705969C1
S3150800E4B0FF350131A94201D1010008315961596975
S3150800E4C0160A0E70596901318D4201D101000831D1
S3150800E4D059612100A21808308A42D5D05C690E78A5
S3150800E4E026705C690134A54202D158610131F3E70F
