S02B0000453A5C7265706F735C63735C72656C656173655C63736D335C63736D335C6170705C63736D332D62BF
S31508009000001000202D9200083192000837920008BF
S31508009010519200085792000871920008000000005B
S31508009020FFFFFFFF00000000000000008B92000811
S315080090309192000800000000979200089D9200088F
S31508009040592301086923010879230108892301089E
S3150800905099230108A9230108B9230108C92301088E
S31508009060D9230108E9230108F9230108092401087D
S31508009070192401082924010839240108492401086A
S31508009080592401086924010879240108892401085A
S3150800909099240108A9240108B9240108C92401084A
S315080090A0D9240108E9240108F92401080925010839
S315080090B01925010829250108392501084925010826
S315080090C05925010869250108792501088925010816
S315080090D099250108A9250108B9250108C925010806
S315080090E0D9250108E9250108F925010809260108F5
S315080090F019260108292601083926010849260108E2
S3150800910000000000000000000000000059260108C9
S315080091106926010879260108892601089926010881
S31508009120A9260108B9260108C9260108D926010871
S31508009130E9260108F92601080000000000000000E1
S315080091400927010819270108292701080000000036
S315080091500000000000000000000000000000000001
S31508009160000000000000000039270108492701080F
S315080091705927010800000000000000000000000058
S30D08009180000000006927010840
S31508009188653964393730370008B500F0D1F81D4A13
S315080091981D48824217D31D4A1D4900208A421DD3FD
S315080091A81C4D1D4C01F0B2FF641BA4100026B442E6
S315080091B81DDC1A4D1A4C641BA4100026B4421BDC8D
S315080091C80CF0D2FFFEE7D2E9001394680C32C91AEC
S315080091D89C42DED95D5843F8045BF9E752F8083B28
S315080091E852F8044C9C42D9D943F8040BFAE755F8C7
S315080091F8043B98470136DAE755F8043B98470136A1
S31508009208DCE700BF509400085C9400085C940008EA
S315080092186494000864940008649400086494000838
S31508009228709400081C48004708B506F06FFD1EF044
S31508009238040F0CBFEFF30880EFF309807146174A4D
S31508009248104708B506F062FD08B506F05FFD1EF082
S31508009258040F0CBFEFF30880EFF309807146104A34
S31508009268104708B506F052FD1EF0040F0CBFEFF3C1
S315080092780880EFF3098071460A4A104708B506F0D0
S3150800928845FD08B506F042FD08B506F03FFD08B5E8
S3150800929806F03CFD70470000919100084B920008C3
S315080092A86B920008859200081C4B1A6822F4502213
S315080092B81A601A6842F480321A601A689103FCD553
S315080092C8174A520102F18442012111604FF4806263
S315080092D85A60144A116821F0040111606FF07F4141
S315080092E85160116841F0010111600F4A5A60002265
S315080092F8DA621A6842F080721A601A689201FCD516
S315080093080A4A122111605A6842F002025A605A68DB
S3150800931802F00C02082AFAD1704700BF0010024072
S315080093282410020010E000E00004110000200240AA
S3150800933870B53F4C2368002243F00103236062603E
S31508009348236823F0847323F480332360E262236856
S3150800935823F480232360A260E36843F00103E360F3
S31508009368E36823F00103E360A36943F00103A361FB
S31508009378FFF79AFF2F4B304A9A6062B62F4ADA608F
S31508009388A36A43F08053A362A36A23F08053A362B7
S31508009398636943F080536361E36A23F4F873E3620D
S315080093A8E36A43F48073E362BFF34F8F244DAB68D7
S315080093B823F04053AB60AB6842F2107043F0805319
S315080093C8AB6006F00FFDAB6843F00043AB60AB68D3
S315080093D8002BFCDB382006F005FDAB68194843F07E
S315080093E80103AB6007F016FE40F201132B63002653
S315080093F8AB684FF47A7043F00403AB6006F0F2FCEE
S315080094082B685B07FCD52B6CB3F5946FF0D3013644
S31508009418642EEDD1A36A43F08053A362A36A23F0AE
S315080094288053A362636923F08053636170BD00BFEC
S315080094380010024000ED00E0009000080003FA055D
S30D080094480001005088D3010859
S3150800945054DF01080010002000130020001300202C
S315080094607833002091B1000821E100084DE1000899
S3150800947038B504461D460023C4E900121046237277
S3150800948007F0CCFD6068012107F076FE20684FF4EE
S31508009490E13108F0BDFA2068294608F0DDFA2068AF
S315080094A0294608F0D1FA204638BDF0B585B00446FD
S315080094B00391006801AD1E4685E80C00D0E9053227
S315080094C0D21A036AC769DB1B48BF9B18511ECB1A01
S315080094D0321D9A4203D90123237205B0F0BD9DF8C7
S315080094E00C1008F0EEF92068F1B208F0EAF99DF8D8
S315080094F00E10206808F0E5F99DF80F10206808F0AE
S31508009500E0F995E80600206805B0BDE8F04008F0E7
S3150800951059BA2DE9F0470D4686B0694604462868CB
S3150800952081E80C00904608F042FA032881464FF07D
S31508009530000A05D884F804A0204606B0BDE8F087DE
S3150800954003AB04260493059604AF97E8060028683B
S31508009550CDF80CA008F007FA9DF80D3033444B45BA
S31508009560E8D8286808F0CCF9013EFAD19DF80D60D4
S31508009570019B28689E4228BF1E46CDE9048697E8C7
S31508009580060008F0CFF99DF80D30B34204D80398C9
S31508009590206001232371CFE7286808F0B1F9013666
S315080095A0F1E7006808F0FDB90048704789A100088E
S315080095B000207047007970470171012070470079D3
S315080095C0704701710120704713B5094B009309498B
S315080095D00223019302AB13E90C00044609680C3018
S315080095E0FFF763FF04480A23C4E9133302B010BD2A
S315080095F0E5BC010840BC0108E59C000813B5094B09
S31508009600009309490223019302AB13E90C000446AF
S3150800961009680C30FFF749FF04480A23C4E91333E5
S3150800962002B010BDF7BC010844BC01081D9D000826
S315080096301FB590F824300C49B3FA83F35B098DF80B
S31508009640043001AB02930123039304AB13E90C0026
S31508009650044609680C30FFF728FF04480A23C4E9C2
S31508009660133304B010BD00BF30BC0108559D000877
S3150800967013B5094B009309490523019302AB13E976
S315080096800C00044609680C30FFF70FFF04480A234C
S31508009690C4E9133302B010BD05BD010834BC010886
S315080096A0999D00081FB54FF40173ADF8043001AB5E
S315080096B0029308490223039304AB13E90C000446FA
S315080096C009680C30FFF7F1FE03480A23C4E913338F
S315080096D004B010BD2CBC01088D9E000808B5406872
S315080096E000F0FEF808BD002107F046BD08B5406841
S315080096F000F0F9F808BD000038B5084B03600446C9
S31508009700406D20B9204601F0E5F9204638BD0568C8
S315080097100C2101F035FD2846F3E700BF54BC0108CB
S3150800972010B50446FFF7E8FF20466C2101F028FD36
S31508009730204610BD08B504220DF096FAB0FA80F05E
S31508009740400908BD02780B789A420DD142784B78C9
S315080097509A4209D382788B789A4205D1C078CB7819
S31508009760C31A5842584170470020704710B50C1A62
S31508009770134605D00146224618460DF093FA0346CD
S31508009780181910BD70B58EB0054601A808F0FCFF83
S31508009790DDE901641D221D2C4FF0000106A828BF33
S315080097A01D240DF099FA01238DF8143009238DF83C
S315080097B01730A31C31198DF8153006AA631C3046DC
S315080097C08DF81630FFF7D2FF05AB0849039304342A
S315080097D0234605F10C00039A09680494FFF765FE11
S315080097E003480A23C5E913330EB070BD48BC010807
S315080097F0559E00082DE9F0418EB0054601A808F0EF
S31508009800C3FFDDE9017805AE4446082C4FF0210276
S315080098104FF00001304628BF08240DF05DFA4FF4DA
S315080098208173ADF81630234B069303F1F55303F510
S31508009830DE1303F6C453079303F10B5303F53B23D7
S3150800984003F5FF73089303F15543A3F55513A3F6E0
S315080098507E1309934FF67A43ADF82830E7238DF83F
S315080098602A3004F11703B8F1080F8DF8153004F102
S3150800987001038DF82B3007EB04018CBF082309235D
S315080098800DF12D0238468DF82C30FFF76FFF0A4987
S3150800989003961934234605F10C00096804943246E8
S315080098A0FFF703FE05480A23C5E913330EB0BDE8E2
S315080098B0F08100BF0611076C48BC01081D9E000810
S315080098C0064B0E221968884201D198887047013ADA
S315080098D003F10803F6D14FF6FF70704764BC010820
S315080098E08069FFF7EDBFC069FFF7EABF38B50446E0
S315080098F00C200D4601F038FC0346021D95E80300CE
S3150800990082E80300626D1A60636538BD2DE9F0418F
S315080099108CB06B4683E8060090F84630064663B37B
S31508009920142A144628BF142404F1040805AF0D466A
S315080099304246002138460B910DF0CEF996F845308F
S315080099408DF81430B6F84A308DF815301B0A8DF8A4
S3150800995016308DF81740CDF82C802B4606AA2C44D5
S31508009960E11A00290CDC09490B9B096803973A465A
S3150800997006F10C000493FFF798FD0CB0BDE8F081E2
S3150800998013F8011B02F8011BEAE700BF0ABD01082C
S3150800999010B5044621B18369C361012380F83030CC
S315080099A02069FFF7A0FE4FF49673C4E91333014804
S315080099B010BD00BFC99A0008F0B590F84430022BD4
S315080099C095B0044605D0012115B0BDE8F040FFF773
S315080099D0DFBF01A808F0D8FEDDE9017505AE372D11
S315080099E028BF37253C22002130460DF075F9B4F81A
S315080099F04830ADF8143079190DF1190238468DF84A
S31508009A001850FFF7B3FE0849039605352B4604F1AF
S31508009A100C00096804953246FFF747FD03480A23F8
S31508009A20C4E9133315B0F0BD3CBC0108D19D00084C
S31508009A3010B504464C3001F068FB04F1580001F0FB
S31508009A4064FB04F1600001F060FBA36920469847B7
S31508009A50237DA06133B10023237501212046FFF73A
S31508009A6097FFA06110BD000013B5094B0093094983
S31508009A700123019302AB13E90C00044609680C3074
S31508009A80FFF713FD04486423C4E9133302B010BD7D
S31508009A90D8BC0108D4BC0108419B000810B504468F
S31508009AA00121006907F068FBE36C43B904F10C0077
S31508009AB0FFF777FD2046BDE81040FFF7D5BF014800
S31508009AC010BD00BFC99A0008FFF7E8BF2DE9FF419E
S31508009AD00025DFF8608004462F46CDE9027702AEFE
S31508009AE096E80C0004F10C016846FFF712FD9DF894
S31508009AF004304BB1009B029341463046FFF722FEE5
S31508009B00002818BF0546E8E745B194F846200AB18B
S31508009B1084F84630084804B0BDE8F081E36C33B9F0
S31508009B200121204604B0BDE8F041FFF731BF0348E4
S31508009B30F1E700BFD9BC0108959B0008419B0008C6
S31508009B40FFF7C4BF13B50023CDE90033074902ABBD
S31508009B5013E90C00044609680C30FFF7A6FC044814
S31508009B600A23C4E9133302B010BD00BF38BC01088C
S31508009B70D59E000890F82420012A06D890F82C30A3
S31508009B800BB1FFF7DFBFFFF71FBD0148704700BFE6
S31508009B90959B0008FFF7EEBF7FB5C36D8365436EDF
S31508009BA003660023CDE9033380F830308DF814308E
S31508009BB006238DF80D300C238DF80F300949C8237C
S31508009BC08DF8133090F845308DF80C3003AA092328
S31508009BD0096801920C300293FFF767FC024807B048
S31508009BE05DF804FBDDBC0108E1A300082DE9F04798
S31508009BF096B00E466946DDF87C8081E80C0004467E
S31508009C0017460DF11C0908F1020A53464A4604F1A3
S31508009C100C0103A8CDE9059AFFF77BFC9DF81030E7
S31508009C209DF80D50002B38D09DF80C30202BECD128
S31508009C30012DEAD99DF80E20B3789A42E5D19DF810
S31508009C400F20F3789A42E0D19DF81C309DF81D202C
S31508009C5013430FD1023DB8F1000F12D1019B84F8CE
S31508009C6044505A1004EB6300DB0744BFA358DF597E
S31508009C70B84703E001212046FFF78AFE16B0BDE883
S31508009C80F0870DF11E011E9A454594BF49194144B6
S31508009C900DF11E00FFF76AFDE0E7E36C33B9012119
S31508009CA0204616B0BDE8F047FFF772BEA069E5E7A3
S31508009CB010B586B0094B0493002304461946184686
S31508009CC08DE803000593CDE9023306AB13E90C00D2
S31508009CD003492046FFF78AFF06B010BDFD95000828
S31508009CE040BC0108FFF7E4BF10B586B0094B0493E2
S31508009CF000230446194618468DE803000593CDE966
S31508009D00023306AB13E90C0003492046FFF76EFF42
S31508009D1006B010BD3196000844BC0108FFF7E4BF41
S31508009D2010B586B0094B0493002304461946184615
S31508009D308DE803000593CDE9023306AB13E90C0061
S31508009D4003492046FFF752FF06B010BD719600087A
S31508009D5030BC0108FFF7E4BF10B500F1480286B031
S31508009D6000F14A039B1A03930399094B049304468B
S31508009D7010468DE803000023059306AB02920549B9
S31508009D8013E90C002046FFF731FF06B010BD00BFEF
S31508009D90B999000834BC0108FFF7DEBF10B586B0D4
S31508009DA0094B049300230446194618468DE8030018
S31508009DB00593CDE9023306AB13E90C0003492046A7
S31508009DC0FFF714FF06B010BDF59700083CBC010864
S31508009DD0FFF7E4BF30B587B004AD0446284608F05F
S31508009DE0D3FC05990A4A0B4B082998BF13460493D6
S31508009DF00023194618468DE803000593CDE902337A
S31508009E00054995E80C002046FFF7F0FE07B030BD7F
S31508009E10A59600088597000848BC0108FFF7DABF31
S31508009E2010B586B0094B0493002304461946184614
S31508009E308DE803000593CDE9023306AB13E90C0060
S31508009E4003492046FFF7D2FE06B010BDA5960008C6
S31508009E5048BC0108FFF7E4BF10B586B0094B049368
S31508009E6000230446194618468DE803000593CDE9F4
S31508009E70023306AB13E90C0003492046FFF7B6FE8A
S31508009E8006B010BDA99500082CBC0108FFF7E4BF71
S31508009E9030B5002587B00446294628468DE80300D4
S31508009EA0094B0493059506AB13E90C00CDE9025559
S31508009EB006492046FFF79AFE054B984208BF84F8E4
S31508009EC02C5007B030BD00BFC995000838BC010842
S31508009ED0E59C0008FFF7DCBFF0B587B004460846E6
S31508009EE0694681E80C0014499DF830609DF8347085
S31508009EF0FFF728FC054668B1009A137A8DF80F30EB
S31508009F00527A17B94EB1FF2A07D084F84530012393
S31508009F1084F84630284607B0F0BD0DF10F030493C8
S31508009F2006490123059306AB13E90C00096804F1F9
S31508009F300C00FFF7BAFAEDE7FDBC0108E1BC010821
S31508009F4013B50446084602A901E90C000749FFF7BC
S31508009F50F1FB48B194F8460030B1009B94F84520CF
S31508009F609B789B1A5842584102B010BDF9BC0108AB
S31508009F70F0B595B0044605AF3C26CDE9037603ADAA
S31508009F8095E80C0004F10C0101A8FFF7C2FA9DF848
S31508009F9008309BB1CDE9037601A995E80C00204667
S31508009FA0FFF7CEFF0028E8D02069FFF79CFB4FF4A7
S31508009FB09673C4E91333044815B0F0BDE36C002B5F
S31508009FC0F2D00248F8E700BFC99A0008D19F0008F6
S31508009FD0FFF7CEBF13B500F14503009309490123E6
S31508009FE0019302AB044613E90C0009680C30FFF72D
S31508009FF05CFA32232046C4E9133302B0BDE81040A8
S3150800A000FFF7B6BFE1BC010837B50446084602A902
S3150800A01001E90C000B499DF81850FFF78BFB50B16E
S3150800A020009A13794DB113F0010004D0B2F801304B
S3150800A030A4F84A30284603B030BDD84300F00100E2
S3150800A040F9E700BF01BD010813B50446084602A991
S3150800A05001E90C000549FFF76DFB20B1009B1B8841
S3150800A0600BB1A4F8683002B010BD00BFF3BC0108FC
S3150800A070F0B587B005460846694681E80C001949D7
S3150800A0809DF83070FFF75EFB0446D8B1009B164971
S3150800A0901E7805F10C0003AA04ABB7B195F8467013
S3150800A0A09FB195F84550B5420FD104920222059208
S3150800A0B001240CCB09688DF80D408DF80C50FFF77C
S3150800A0C0F4F93C46204607B0F0BD049202220592F8
S3150800A0D000250CCB09688DF80D508DF80C60FFF73C
S3150800A0E0E4F9EFE7EFBC0108EBBC0108F0B590F81E
S3150800A0F02C3097B0044653BB90F82430023B012B12
S3150800A10025D907AF3C26CDE9057605AD95E80C00BF
S3150800A11004F10C0103A8FFF7FCF99DF8103053B3BE
S3150800A12094F82430B3FA83F35B09CDE905760193F5
S3150800A1300123009395E80C0003A92046FFF7CCFEFF
S3150800A14078B14FF4FA73C4E913330C4807E0206971
S3150800A150FFF7C9FA4FF49673C4E91333084817B0E2
S3150800A160F0BDCDE90576009095E80C0003A92046D8
S3150800A170FFF77EFFC7E70348F1E700BF49A20008DB
S3150800A180C99A000889A10008FFF7B0BF2DE9F04178
S3150800A19090F82430032B96B0044624D0C36C13B32E
S3150800A1A007AF3C26CDE9057605AD95E80C0004F128
S3150800A1B00C0103A8FFF7ADF99DF81030002B3FD02E
S3150800A1C0CDE905764FF00108CDF8008095E80C003A
S3150800A1D003A92046FFF718FF68B12046FFF7DCFC05
S3150800A1E016B0BDE8F081A369E361204616B0BDE864
S3150800A1F0F041FFF7EFBECDE9057603A995E80C0017
S3150800A2002046FFF79DFE20B141462046FFF7C0FBDA
S3150800A210E6E7CDE9000003A995E80C002046FFF71C
S3150800A2205BFE94F82430CDE90576B3FA83F35B092F
S3150800A230009395E80C0003A92046FFF719FFB1E73C
S3150800A2400048CDE749A20008FFF7A0BFF0B585B0E2
S3150800A2500F46694681E80C00054612493846FFF75D
S3150800A26071FA064688B1009C95F8453022789A42DC
S3150800A2700BD123794BB963793BB97B78A279073B34
S3150800A2809A4202D16D6DE71D15B9304605B0F0BD8D
S3150800A290A379281DCDE9027302A96B6898472D6832
S3150800A2A0F2E700BFE7BC01082DE9F04790F8243033
S3150800A2B0032B96B0044604D116B0BDE8F047FFF765
S3150800A2C089BE836D00F10C0807AE53B9CDE9073393
S3150800A2D03F4996E80C0009684046FFF7E6F8E36D43
S3150800A2E0A365DFF8F09005AD3C270596069795E837
S3150800A2F00C00414603A8FFF70CF99DF81030002B17
S3150800A3005ED0CDE9056703A995E80C002046FFF75E
S3150800A31017FE824650B12069FFF7E5F94FF49673A8
S3150800A320C4E913332C4816B0BDE8F08795E80C004D
S3150800A33003A92046FFF78AFFCDE90567CDE900AAFC
S3150800A34003A995E80C002046FFF7C6FD94F82430CB
S3150800A350CDE90567B3FA83F35B09009395E80C002A
S3150800A36003A92046FFF784FECDE9056703A995E80A
S3150800A3700C002046FFF768FE18B1E36DA365636E0F
S3150800A38023663C23069300230596009395E80C0064
S3150800A39003A92046FFF738FE18B12046FFF71AFE34
S3150800A3A0C1E7494603A8FFF7CDF900289CD09DF8D8
S3150800A3B01C309DF81D20134396D1636E236693E7E0
S3150800A3C0236E0BB10548AEE7A369E361E5E700BF75
S3150800A3D024BC010828BC0108C99A0008E1A30008A2
S3150800A3E0FFF762BF70B504460D46164600F07AFBC5
S3150800A3F020461B4B40F80C3B324629460123FFF703
S3150800A40037F8184A2262184AA262184A2069C4E92B
S3150800A4100D24174A0023C4E90F241922C4E9172377
S3150800A4203322C4E90633C4E91233C4E9143384F881
S3150800A430243084F82C3084F8303084F8443084F89A
S3150800A4404630A365A4F868306266FFF74CF94FF406
S3150800A4509673C4E91333074BA361204670BD00BF4A
S3150800A46054BC0108ECBB0108FCBB01080CBC010884
S3150800A4701CBC0108C99A000810B5054B044640F8EB
S3150800A480103B00F0CDFE204600F024FB204610BD10
S3150800A49084BD010810B50446FFF7EEFF20462821C3
S3150800A4A000F06EFE204610BDC368103093F83010D9
S3150800A4B000F08EBE38B508461C464AB91B681D69A9
S3150800A4C00B681B68984701462046A847012038BDF7
S3150800A4D00020FCE713B50C46184662B91B680DF157
S3150800A4E006011B6998472368BDF806105B68204675
S3150800A4F0984702B010BD0020FBE738B508461C4651
S3150800A5004AB91B681D680B681B68984701462046B0
S3150800A510A847012038BD0020FCE713B50C461846AD
S3150800A52062B91B680DF107011B68984723689DF8F7
S3150800A53007105B682046984702B010BD0020FBE76D
S3150800A54038B508461C464AB91B689D680B681B68DF
S3150800A550984701462046A847012038BD0020FCE759
S3150800A56013B50C46184662B91B680DF107019B68BE
S3150800A570984723689DF807105B682046984702B0FD
S3150800A58010BD0020FBE7000070B505460C4600F03C
S3150800A590A9FA184B2B601849EC60012205F1100046
S3150800A5A000F024FE102000F0DFFD04F12002134B1A
S3150800A5B01349144E01F03AFF102000F0D5FD04F1BE
S3150800A5C02802114B114901F031FF102000F0CCFD93
S3150800A5D0334604F134020E4901F028FF102000F03A
S3150800A5E0C3FD0C49334604F13C0201F01FFF28461F
S3150800A5F070BD00BF84BD010878BD010854BD0108BF
S3150800A60070BD01084CBD010850BD010858BD0108C0
S3150800A61068BD010860BD010813B50122044601465C
S3150800A6200DF107000CF030FB01220DF10701204661
S3150800A6300CF02AFB02B010BD13B5022204460146EF
S3150800A6400DF106000CF020FBBDF8063002225BBABD
S3150800A6500DF106012046ADF806300CF015FB02B0E8
S3150800A66010BD70B50D4616460446102000F07CFD58
S3150800A67033462A462146BDE8704001F0D7BE0000A1
S3150800A6802DE9F041154E05460C463246006801F59F
S3150800A6900561FFF7E6FFA868324604F65C01FFF796
S3150800A6A0E0FF324604F6640168680D4EFFF7D9FFED
S3150800A6B02F69102000F058FD334604F66C0239461F
S3150800A6C001F0B4FEED68102000F04EFD334604F6A6
S3150800A6D074022946BDE8F04101F0A8BE4CBD010848
S3150800A6E054BD010843689A6810B5541C9C601B68E1
S3150800A6F0995410BD73B54468A368266822691E4438
S3150800A70041F2E1039A42054618D18DF80610012256
S3150800A7100DF106010DF107000CF0B6FA0DF1070070
S3150800A720FFF77AFF01220DF1070130460CF0ACFA6B
S3150800A730A36828460133A36002B070BD8DF80710E0
S3150800A740F0E773B54468A368266822691E4441F297
S3150800A750E1039A42054618D18DF8061001220DF13B
S3150800A76006010DF107000CF08FFA0DF10700FFF74F
S3150800A77053FF01220DF1070130460CF085FAA36854
S3150800A78028460133A36002B070BD8DF80710F0E7C4
S3150800A79073B544682368A2680E469918226941F27F
S3150800A7A0E1039A4205464FF001020AD10DF106006F
S3150800A7B00CF06AFA0DF10600FFF72EFF01220DF1E3
S3150800A7C006010DF107000CF05FFAA3689DF9072052
S3150800A7D001332846A360327002B070BD73B5446871
S3150800A7E02368A2680E469918226941F2E1039A4243
S3150800A7F005464FF001020AD10DF106000CF044FAA5
S3150800A8000DF10600FFF708FF01220DF106010DF113
S3150800A81007000CF039FAA3689DF80720013328468B
S3150800A820A360327002B070BD73B544682368A2682D
S3150800A8300E469918226941F2E1039A4205464FF0FD
S3150800A84001020AD10DF106000CF01EFA0DF1060000
S3150800A850FFF7E2FE01220DF106010DF107000CF0EB
S3150800A86013FAA3689DF8072001332846A3603270BF
S3150800A87002B070BD73B54468A368266822691E4491
S3150800A88041F2E1039A42054617D1ADF804100222B7
S3150800A89001A90DF106000CF0F7F90DF10600FFF716
S3150800A8A0CBFE02220DF1060130460CF0EDF9A36845
S3150800A8B028460233A36002B070BDADF80610F0E773
S3150800A8C073B54468A368266822691E4441F2E10309
S3150800A8D09A42054617D1ADF80410022201A90DF1D6
S3150800A8E006000CF0D1F90DF10600FFF7A5FE0222CD
S3150800A8F00DF1060130460CF0C7F9A3682846023365
S3150800A900A36002B070BDADF80610F0E773B54468F1
S3150800A9102368A2680E469918226941F2E1039A4211
S3150800A92005464FF0020207D101A80CF0ADF901A8BF
S3150800A930FFF782FE022201A90DF106000CF0A4F928
S3150800A940A368BDF8062002332846A360328002B009
S3150800A95070BD73B544682368A2680E4699182269C3
S3150800A96041F2E1039A4205464FF0020207D101A8D7
S3150800A9700CF08AF901A8FFF75FFE022201A90DF182
S3150800A98006000CF081F9A368BDF9062002332846B3
S3150800A990A360328002B070BD13B504220446014696
S3150800A9A00DEB02000CF070F9019B04221BBA0DEBAB
S3150800A9B00201204601930CF067F902B010BD73B589
S3150800A9C04468A368266822691E4441F2E1039A4254
S3150800A9D0054615D1042200910DEB020069460CF0DC
S3150800A9E053F901A8FFF7D8FF04220DEB0201304600
S3150800A9F00CF04AF9A36828460433A36002B070BD78
S3150800AA000191F1E773B54468A368266822691E4474
S3150800AA1041F2E1039A42054615D1042200910DEB55
S3150800AA20020069460CF030F901A8FFF7B5FF0422C9
S3150800AA300DEB020130460CF027F9A36828460433CB
S3150800AA40A36002B070BD0191F1E773B5446823684D
S3150800AA50A2680E469918226941F2E1039A42054610
S3150800AA604FF0040207D168460CF00EF96846FFF766
S3150800AA7093FF042269460DEB02000CF005F9A36862
S3150800AA80019A04332846A360326002B070BD73B5DC
S3150800AA9044682368A2680E469918226941F2E103C0
S3150800AAA09A4205464FF0040207D168460CF0ECF8C6
S3150800AAB06846FFF771FF042269460DEB02000CF0A9
S3150800AAC0E3F8A368019A04332846A360326002B00B
S3150800AAD070BD7047704710B50C21044600F050FB56
S3150800AAE0204610BD024A02600022C0E901227047D2
S3150800AAF0E4BD010838B5054655F8104FA54200D102
S3150800AB0038BD54F8043C201F1B6898472468F5E7AD
S3150800AB1038B5044654F8105FA54200D138BD55F83B
S3150800AB20043C281F5B6898472D68F5E710B504466E
S3150800AB30FFF7D8FF044B23600023E36004F11003FA
S3150800AB40C4E90433204610BDFCBD010843698B6087
S3150800AB5010B50A1D00F110044C6042611A60C36802
S3150800AB600133C36010BDF8B50546044655F8100F05
S3150800AB700026854203D1C4E90455E660F8BD50F8BD
S3150800AB80042C0768D268C0E900660438904738463E
S3150800AB90EFE7000010B50446FFF7C8FF014B236036
S3150800ABA0204610BD14BE010810B50346002153F80F
S3150800ABB0042F934203D1C0E90133016010BD146824
S3150800ABC0C2E900112246F4E710B5054B044640F8E1
S3150800ABD00C3BFFF7E9FF2046FFF77CFF204610BD38
S3150800ABE0FCBD010810B50446FFF7EEFF2046182104
S3150800ABF000F0C6FA204610BD10B5054B044640F8CD
S3150800AC000C3BFFF7D1FF2046FFF7DEFF204610BDBD
S3150800AC1014BE010810B50446FFF7EEFF20461821BA
S3150800AC2000F0AEFA204610BD007820F02003413B24
S3150800AC30052B0AD9A0F13003092B06D9A0F12B035D
S3150800AC405842584180F0010070470120FAE7000099
S3150800AC50034A034692E8030083E803001846704750
S3150800AC6024BE0108224970B5044602260D46084648
S3150800AC70FFF7DAFF002839D14A1C1046FFF7D4FF40
S3150800AC80D0B98A1C1046FFF7CFFFA8B9CA1C1046D0
S3150800AC90FFF7CAFF80B9012E01F1040216D1154B40
S3150800ACA09B1A022B1BD0032B13D0012B03D1104662
S3150800ACB0FFF7BAFF00B90F4A521B062AD6BF002370
S3150800ACC0C4E90052C4E90033204670BD0126114686
S3150800ACD0CDE71046FFF7A8FF0028EDD14A1D10461C
S3150800ACE0FFF7A2FF0028E7D10132E0E70A46E3E7CB
S3150800ACF088010008900100084368003B18BF01233B
S3150800AD000B70704743680B70704743680B70704749
S3150800AD1043680B80704743680B80704743680B6035
S3150800AD20704743680B6070470122416002727047A2
S3150800AD300122416002727047012241600272704727
S3150800AD400122416002727047012241600272704717
S3150800AD500122416002727047012241600272704707
S3150800AD60704708B504F0D6FF436818687047002096
S3150800AD70704738B508461C464AB91B689D690B6872
S3150800AD801B68984701462046A847012038BD002081
S3150800AD90FCE713B50C46184652B91B6801A99B690E
S3150800ADA09847236801995B682046984702B010BD0A
S3150800ADB00020FBE770B50D4616460446102000F045
S3150800ADC0D3F933462A462146BDE8704001F02EBB2A
S3150800ADD038B5044600F0D8F9154D25600C3060608A
S3150800ADE000F0D2F90830A560E06000F0CDF9C4E9BA
S3150800ADF0045000F0C9F9A5610E4D0430E0612A46F9
S3150800AE0021460D48FFF7D6FF2A4604F108010B48EC
S3150800AE10FFF7D0FF2A4604F110010948FFF7CAFFD9
S3150800AE2008482A4604F11801FFF7C4FF204638BD32
S3150800AE307CBE010898BE0108ACBE0108B4BE010874
S3150800AE40A4BE01089CBE01087047027843781AB16F
S3150800AE501B0183F3118870470BB162B6704772B64F
S3150800AE607047002070470120704711B94368036096
S3150800AE7070470023FBE709B100F047B94268026052
S3150800AE8070474368184703681B681B68DB6A33B159
S3150800AE90C26B64214A43B2FBF3F398B27047184673
S3150800AEA07047000013B5044640F8041BFFF772FE0E
S3150800AEB004F11C00FFF76EFE20680023A36384F8E4
S3150800AEC03430E36303694FF47A715B68103098474E
S3150800AED0044B20686946CDE9003406F04FFA20464F
S3150800AEE002B010BD1BAF000838B5836B013383630E
S3150800AEF004460068836918301B68984794F834300C
S3150800AF00054613B1201DFFF703FE20688369183034
S3150800AF101B689847401BE06338BD4068FFF7E4BFED
S3150800AF2038B590F8343004468BB9043004F11C0562
S3150800AF30FFF7E0FD2846FFF7DDFD012384F83430EE
S3150800AF402846FFF7E5FD94F83430002BF8D138BDD4
S3150800AF5037B505460446094B55F81C0B0093694658
S3150800AF60074B019306F00AFA2846FFF745FE201D0F
S3150800AF70FFF742FE204603B030BD00BF83AE00088F
S3150800AF8061AD00084068FFF77EBF000010B5074BAB
S3150800AF900446C0E90031102000F0E6F8044B0549E4
S3150800AFA0224601F043FA204610BD00BFC4BE010880
S3150800AFB04CBD0108CCBE0108806870470B6808467E
S3150800AFC09B6818474368585C704700207047F8B577
S3150800AFD01D460B6808469B6816460C469847B042BD
S3150800AFE00BD92B689F68236831461B68204698470B
S3150800AFF001462846B8470120F8BD0020FCE773B58E
S3150800B0001E460B6808469B6815460C469847A84294
S3150800B0100ED933680DF107019B68304698472368B7
S3150800B0209DF807205B6829462046984702B070BD00
S3150800B0300020FBE730B585B004466846FFF708FEF2
S3150800B040009B114D6360019BA36002A82560FFF772
S3150800B05009FE029B2361039B6361E560102000F0F3
S3150800B06083F80A4B0A49224601F0E0F9636943B1BD
S3150800B070102000F079F8054B064904F10C0201F09E
S3150800B080D5F9204605B030BDDCBE0108FCBE010876
S3150800B09008BF010800BF01087047426801324260D4
S3150800B0A07047426801324260704742680232426025
S3150800B0B07047426802324260704742680432426012
S3150800B0C07047426804324260704742680132426003
S3150800B0D070470000024A026000224260704700BFC3
S3150800B0E018BF01087047436833B1026864214A43B0
S3150800B0F0B2FBF3F398B270471846704708B5FFF7E6
S3150800B100F2FFC0F1640080B208BD03680BB1013BD1
S3150800B110036070477047FEE708B50BF09FFD58239C
S3150800B12003604FF0FF3008BD0C4A1168013138B58D
S3150800B130116041070A490B4D034618BF20F0070363
S3150800B140086818BF0833C418AC4201D904F0E2FDF8
S3150800B1500C6091681944916038BD00BF0413002043
S3150800B16000100020C09F0020FFF7DEBFFFF7DCBFFE
S3150800B170024A536801335360704700BF0413002026
S3150800B180FFF7F6BFFFF7F4BF004870470413002027
S3150800B190024B0349034A5B1AD3607047C09F0020DD
S3150800B1A07833002004130020FEE75B1A10B5044626
S3150800B1B0084607D0121B05D00299091B594391FB73
S3150800B1C0F2F1084410BD406870474160012070479D
S3150800B1D0037B2BB921B143697E2B9CBF01334361A5
S3150800B1E001737047002343610373704710B5094B19
S3150800B1F00271094A83600023C0E904230373074BDD
S3150800B2000160044618680AF04AFC214600F0C1FCB1
S3150800B210204610BDFCBB01083CBF010800130020F6
S3150800B22010B5054B044618680AF039FC214600F0AB
S3150800B23083FC204610BD00BF0013002003685B682E
S3150800B2401868704703680BB9184670475A68107B28
S3150800B2500028FAD11B68F6E70368002003B970478F
S3150800B2605A681B6852691044F8E710B5046804B9AF
S3150800B27010BD6068FFF7B6FF2468F8E710B5024608
S3150800B280002013461A461B6863B15C688C42F9D1E4
S3150800B2901C68146018601846F3E704680821FFF76D
S3150800B2A06FFF20460028F8D110BD38B5044608209F
S3150800B2B00D46FFF759FF2B6843602368036020603B
S3150800B2C038BD13B500230191036001A90446FFF7B1
S3150800B2D0ECFF204602B010BD07B5019101A9FFF7A2
S3150800B2E0E4FF03B05DF804FB10B50446406A036842
S3150800B2F01B689847014604F10C00BDE81040FFF7AB
S3150800B30067BF000010B5054B044640F80C3BFFF735
S3150800B31087FF2046FFF7DEFB204610BD4CBF01081D
S3150800B32010B50446FFF7EEFF20462821FFF728FF51
S3150800B330204610BD70B504460D461646FFF7D2FBEB
S3150800B3402046054B40F80C3B2A792968FFF74EFF43
S3150800B3506662204670BD00BF4CBF01080B680846F0
S3150800B3609B6818470B6808469B6818470B68084689
S3150800B3709B681847F8B51D460B6808469B6816462D
S3150800B3800C469847B0420BD92B681F68236831468C
S3150800B3901B682046984701462846B8470120F8BD4D
S3150800B3A00020FCE773B51E460B6808469B681546E1
S3150800B3B00C469847A8420ED933680DF107011B6859
S3150800B3C03046984723689DF807205B68294620463B
S3150800B3D0984702B070BD0020FBE7F8B51D460B681C
S3150800B3E008469B6816460C469847B0420BD92B6808
S3150800B3F01F69236831461B68204698470146284638
S3150800B400B8470120F8BD0020FCE773B51E460B6857
S3150800B41008469B6815460C469847A8420ED93368D5
S3150800B4200DF106011B69304698472368BDF80620CA
S3150800B4305B6829462046984702B070BD0020FBE7A6
S3150800B440F8B51D460B6808469B6816460C4698478D
S3150800B450B0420BD92B689F69236831461B68204682
S3150800B460984701462846B8470120F8BD0020FCE762
S3150800B47073B51E460B6808469B6815460C469847E2
S3150800B480A8420CD9336801A99B69304698472368B6
S3150800B490019A5B6829462046984702B070BD00208D
S3150800B4A0FBE770B50D46164604461020FFF75CFE0E
S3150800B4B033462A462146BDE8704000F0B7BF70B54E
S3150800B4C00D46164604461020FFF74EFE33462A461A
S3150800B4D02146BDE8704000F0A9BF0000F8B5054652
S3150800B4E00C46274E05F10C0700F0F6F821463846BB
S3150800B4F000F0F2F8324629462248FFF7E0FF3246C6
S3150800B50039462148FFF7DBFF1020FFF72DFE1F4BBA
S3150800B5101F4904F50A7200F089FF324604F50C71DA
S3150800B5201C48FFF7CCFF32461B4E1C4804F50E712B
S3150800B530FFF7C5FF324604F514711948FFF7B1FF46
S3150800B540324604F51B711748FFF7ABFF1020FFF7CB
S3150800B5500BFE154B154904F51E7200F067FF3246BF
S3150800B56004F520711248FFF79CFF1020FFF7FCFD39
S3150800B570104B114904F5227200F058FF2846F8BD11
S3150800B58098BE0108BCBF0108B4BF010850BD010838
S3150800B590ECBF0108ACBF0108A0BF0108E4BF010861
S3150800B5A0A4BF0108DCBF01089CBF0108D4BF01087D
S3150800B5B0CCBF010898BF0108C4BF01087047000046
S3150800B5C038B504460D46FFF78DFA2046034B40F87A
S3150800B5D00C3B294600F046F8204638BDFCBF01085A
S3150800B5E010B5054B044640F80C3BFFF719FE2046FC
S3150800B5F0FFF770FA204610BDFCBF01080068B0FAD4
S3150800B60080F04009704708B54068FFF7F7FF08BDA6
S3150800B61010B504461830FFF72EFCA169B1FA81F17E
S3150800B62020464909BDE81040FFF7D2BD10B50446CB
S3150800B630FFF7D8FD04F118000021BDE81040FFF718
S3150800B64014BC000038B504461D46FFF7CFFD044B71
S3150800B650236204F11803C4E906556362204638BD1F
S3150800B66014C0010838B50D460A7909680446FFF77B
S3150800B670BDFDAB68C4E90633034B236204F1180326
S3150800B6806362204638BD00BF14C0010843682433EE
S3150800B69083600120704738B504466368A56803F1DE
S3150800B6A02402D3F8243202EB83039D4202D1A2601E
S3150800B6B000200FE02B1DA3602846FFF7CDFD0028CC
S3150800B6C0EBD02846FFF7BAFD04882846FFF7BAFDEF
S3150800B6D044EAC07038BD0000024AC0E9002124319E
S3150800B6E08160704724C00108D0F824027047002002
S3150800B6F070470020704700207047436853F82100C0
S3150800B7007047806870474068704708B5243000EB7A
S3150800B7108100FFF793FD008808BD243000EB810007
S3150800B720FFF790BD243000EB8100FFF795BD0000C0
S3150800B73010B5054B03600446FFF715FA2046FFF7D8
S3150800B74043FA204610BD00BF34C0010810B50446B0
S3150800B750FFF7EEFF20461821FFF712FD204610BD21
S3150800B76008B54068FFF7D1FF08BD08B54068FFF780
S3150800B770D9FF08BD08B54068FFF7B6FF08BD08B58C
S3150800B7804068FFF7CAFF08BD70B5044600680D4655
S3150800B79020B920602B682360286070BD06680821E0
S3150800B7A0FFF7EEFC3046F3E7884204D0B4BF4FF00B
S3150800B7B0FF30012070470020704708B54068FFF742
S3150800B7C093FF08BD08B54068FFF78EFF08BD10B5A2
S3150800B7D010460C46FFF732FD01882088FFF7E4FF84
S3150800B7E0C0F3C01010BD10B508461446FFF726FD75
S3150800B7F021880088FFF7D8FFC0F3C01010BD38B500
S3150800B80008461546FFF71AFD04462846FFF716FDB3
S3150800B81001882088FFF7C8FFC0F3C01038BD38B5C7
S3150800B820D0F8245200F1240404EB8505A54200D182
S3150800B83038BD2046FFF719FD0434F7E710B504466E
S3150800B840FFF7EDFF04F10C00BDE81040FFF752B911
S3150800B8502DE9F84304460C30FFF75AF994F82C32D0
S3150800B8602BB1002384F82C322046FFF7D8FF04F5C5
S3150800B870107104F51470431A002B06DD03F51073D6
S3150800B88023440A4600259A4221D104F5177504F582
S3150800B8901B777B1B002B06DD03F5177323442A460B
S3150800B8A000269A4216D1D4F8242204F1240303EB85
S3150800B8B0820E734511D1002388422ED1C4F8343242
S3150800B8C00023AF422DD1C4F83C32BDE8F88342F8D4
S3150800B8D0045BD8E742F8046BE3E753F804CBBCF102
S3150800B8E0000FE6D0DCF8048098F80C6098F804207D
S3150800B8F036B104EB8209D9F840620136C9F84062CC
S3150800B900D8F8146036B104EB8202D2F85C620136CC
S3150800B910C2F85C62DCF800C0E1E751F8042B134476
S3150800B920CAE755F8042B1344CBE700002DE9F0418C
S3150800B9300446FFF7D7F82346204A43F80C2B002184
S3150800B940182218460BF0C8F9FFF7F0F81C4BE3600D
S3150800B9501C4BC4F828321C4BC4F830320025C4E905
S3150800B9608E354FF0100804F5107342462946C4F880
S3150800B970245284F82C52C4F8345218460BF0ACF909
S3150800B980124F04F517730426C4E99470C4F8586274
S3150800B9904246294618460BF09FF90D4BC4F87462C7
S3150800B9A0C4E99E340B4BC4E9A0340B4BC4E99B7025
S3150800B9B0C4E9A2342046BDE8F08100BFACC0010846
S3150800B9C034C00108FCBB01084CC001085CC0010872
S3150800B9D070C0010884C0010898C001082DE9F04725
S3150800B9E0D1F8004206460D46904644F31D040F461C
S3150800B9F084B9D5F80042376005EB8404BC4206D00A
S3150800BA003A4641462846FFF7E2FE00B13460304622
S3150800BA10BDE8F0874FEA540907EB890A42465146C2
S3150800BA202846FFF7E0FE28B1013C0AF10407A4EB1B
S3150800BA300904DDE74C46DBE737B500F12404054683
S3150800BA400A4601A82146FFF7C9FFD5F8243201980E
S3150800BA5004EB8304A04203D0FFF7F4FB03B030BD28
S3150800BA600020FBE72DE9F84FD1F80052002301EB3F
S3150800BA70850A07460C4690460360037145F31D0583
S3150800BA800E464DB9B24519D1D4F800220123802AB1
S3150800BA903B711FD10BF0D4F84FEA550B06EB8B0917
S3150800BAA0424649462046FFF7AAFE28B1013D09F15C
S3150800BAB00406A5EB0B05E4E75D46E2E73246414698
S3150800BAC02046FFF79CFE0028DED13D713E603846D1
S3150800BAD0BDE8F88F04EB8203B34202F101004FF090
S3150800BAE0000107D1D8F800303360C8F80010C4F850
S3150800BAF00002EBE753F804CC44F822C043F8041CD0
S3150800BB001D1FC4F80002B54204D141463046FFF76E
S3150800BB103BFEDBE7043D2946281DFFF735FEF2E725
S3150800BB2038B50446006808B9204638BD05680821B6
S3150800BB30FFF726FB2846F6E773B500F12406054607
S3150800BB400A6801A80C463146FFF748FFD5F82432A3
S3150800BB50019806EB8303984214D02146FFF78EFB23
S3150800BB60019C236873B9D5F8243206EB830604349E
S3150800BB70A64209D1301FFFF7D3FFD5F82432013B7F
S3150800BB80C5F8243202B070BD2146201FFFF7FCFD20
S3150800BB90EDE77FB500F1240605460A680C466846B7
S3150800BBA03146FFF71BFFD5F82432009806EB8303CE
S3150800BBB09842214603D0FFF78FFB04B070BD01A859
S3150800BBC0FFF77FFB02A801AA3146FFF74BFF01A842
S3150800BBD0FFF7A6FFF1E7000070B505460A4B45F8E2
S3150800BBE0243BD0F82462044646B904F10C00FFF75A
S3150800BBF09FFD2046FEF76EFF204670BD2846FFF7DC
S3150800BC008FFF013E0435EFE7ACC0010810B50446C6
S3150800BC10FFF7E2FF20464FF42471FFF7B1FA2046FA
S3150800BC2010BDB0F904007047002070470020704727
S3150800BC30F0B543680578044640F2D2460120A8408C
S3150800BC40B34200F1FF301FD041F2E106B34228D1DA
S3150800BC508E68CB68C2F14002521B36BA1BBAC2F1D3
S3150800BC602007A2F12001D34006FA07F73B4326FA3C
S3150800BC7001F10B431840237A2BB16B1E012202FAFD
S3150800BC8003F35840C01AF0BDD1E90237C2F12006C5
S3150800BC90A2F12001D34007FA06F6334327FA01F149
S3150800BCA0E7E70020E7E7F0B585B004AB054603E90A
S3150800BCB003002C4600EBC10041F31C03002B05DCF6
S3150800BCC0844211D154F8040C05B0F0BD591004EBA8
S3150800BCD0C10654F831709742DEBF591A01F1FF3197
S3150800BCE006F108040B46E9E7A5426068ECD0009225
S3150800BCF0034654E9011254F8080CFFF756FAE3E72D
S3150800BD0073B50446D1E9053003EBC00083421D46EE
S3150800BD1007D10B69012B0CD800232046237102B0EA
S3150800BD2070BD53F8086B9642F0D16B682360012307
S3150800BD30F3E7C968CDE9001303F10053013B51F855
S3150800BD40333009688A42E7DB9A42E5DC02AB13E93D
S3150800BD500300FFF7A8FF2060E9E738B50D4604465B
S3150800BD60114628461A46FFF763FF2946024620462B
S3150800BD70FFF7C6FF204638BDF7B506460D461446FA
S3150800BD8001461A466846FFF7BBFF9DF804000028DF
S3150800BD9046D0736896F800C0009940F2D2429342A2
S3150800BDA040D041F2E10293423AD10122ACF120039C
S3150800BDB0CCF1200622FA06F602FA03F3C4F140048F
S3150800BDC002FA0CF2A4EB0C04013A43EA060343F127
S3150800BDD0FF33A4F1200C02FA0CFCC4F12006A340A0
S3150800BDE022FA06F643EA0C0391FA81FE3343D5E9B3
S3150800BDF00217A4F12006C4F1200C0EFA06F62EFA54
S3150800BE000CFC46EA0C060EFA04FEA2408EEA010E67
S3150800BE107E4002EA0E0233404A407B40C5E90223CF
S3150800BE2003B0F0BD0122ACF12003CCF1200E22FABA
S3150800BE300EFE02FA03F302FA0CF2013A43EA0E0383
S3150800BE4043F1FF33A4F1200E02FA0EFEC4F1200CD2
S3150800BE50A34022FA0CFC43EA0E03D5E9027643EA2C
S3150800BE600C03C4F1200EA4F1200C01FA0CFC21FAF3
S3150800BE700EFE4CEA0E0CA140A24079408CEA060C54
S3150800BE800A4003EA0C037A407340C7E737B504460D
S3150800BE900D4614300021FFF7BBFB21692A460B7EAD
S3150800BEA0C9696846FFF759FFB4F854309DF804503D
S3150800BEB004F13C0063B985F00101FFF789F94DB13A
S3150800BEC0236800991B69204603B0BDE8304018472F
S3150800BED00021F2E703B030BDB0F8543010B504467F
S3150800BEE01BB1013BA0F8543010BD0369DB89002B58
S3150800BEF0FAD001211430FFF78BFB94F82030002B81
S3150800BF00F2D0236820465B69BDE8104018474068B0
S3150800BF10FFF7BCBF73B5044615460E46FEF7E2FDAD
S3150800BF200F4B2A7CA9682360C4E90365EB8904F1F1
S3150800BF301400FFF787FB2A7C696804F13C00FFF7C9
S3150800BF4055F9AB89A4F85430064BE068CDE90034BE
S3150800BF506946D5E9082304F004F8204602B070BD06
S3150800BF60D4C001080FBF000813B50C4B0C4A036078
S3150800BF70C368CDE9002004466946D86804F019FE6E
S3150800BF8004F13C00FFF74CF904F11400FFF748F9F7
S3150800BF902046FEF79FFD204602B010BDD4C001081A
S3150800BFA00FBF00088088704781800120704700799C
S3150800BFB07047000010B5034B03600446FFF710FBFB
S3150800BFC0204610BD14C1010810B50446FFF7F2FF5C
S3150800BFD020463C21FFF7D4F8204610BD10B5034B88
S3150800BFE003600446FFF7FCFA204610BD2CC1010881
S3150800BFF010B50446FFF7F2FF20463C21FFF7C0F8CC
S3150800C000204610BD10B50446406B03681B68984768
S3150800C010B4F938108142A8BF002104F10C00B8BF5A
S3150800C0200121BDE81040FFF7F3BA10B50446406B8E
S3150800C03003681B689847B4F938108142D8BF0021B5
S3150800C04004F10C00C8BF0121BDE81040FFF7E0BAB3
S3150800C0502DE9F04105463C2035F9048B0E46174676
S3150800C060FFF782F829460446FFF7AAFA054B23602C
S3150800C0706763A4F83880214606F10C00BDE8F04154
S3150800C080FEF764BD14C101082DE9F04105463C20C0
S3150800C09035F9048B0E461746FFF766F82946044617
S3150800C0A0FFF78EFA054B23606763A4F838802146AC
S3150800C0B006F10C00BDE8F041FEF748BD2CC10108A9
S3150800C0C02DE9F04105463C2035F9048B0E46174606
S3150800C0D0FFF74AF829460446FFF772FA054B23602C
S3150800C0E06763A4F83880214606F10C00BDE8F041E4
S3150800C0F0FEF72CBD2CC1010838B50A4604460D4684
S3150800C10001460748FFF7A4FF2A4621460548FFF7D8
S3150800C1109FFF2A4621460448BDE83840FFF7B4BFCA
S3150800C12064C1010874C1010854C101080A460146E0
S3150800C1300148FFF7C5BF00BF44C1010880887047A2
S3150800C140C3888B4205D803898B4202D3818001209C
S3150800C15070470020704710B50446C06803681B681E
S3150800C16098472369218B1A684143BDE8104032205D
S3150800C1705268B1FBF0F118461047000010B5034BA2
S3150800C18003600446FEF7A6FC204610BD9CC10108C4
S3150800C19010B50446FFF7F2FF20462021FEF7F0FF10
S3150800C1A0204610BDF8B504460D4617461E46FEF74E
S3150800C1B099FC0C4BA9882A8823600B486B88AD68C4
S3150800C1C0606121836283A383C4E903761020FEF7A6
S3150800C1D0CBFF064B04F11402294600F027F9204646
S3150800C1E0F8BD00BF9CC101088CC101084CBD0108FF
S3150800C1F038B508461C464AB91B68DD680B681B68D3
S3150800C200984701462046A847012038BD0020FCE78C
S3150800C21013B50C46184662B91B680DF10601DB68B2
S3150800C22098472368BDF906105B682046984702B010
S3150800C23010BD0020FBE770B50446C06803681B689C
S3150800C2409847267D2075054604F11800FEF75DFF20
S3150800C250A3692BB9012E02D00DB1E369A36170BDA4
S3150800C260012DFCD0002EFAD025692B682846D3E983
S3150800C2700036984780F00101C9B22846B047002326
S3150800C280ECE7000010B5034B03600446FEF722FCFA
S3150800C290204610BDCCC1010810B50446FFF7F2FFD1
S3150800C2A020462021FEF76CFF204610BDF8B504464F
S3150800C2B01D460F461646FEF715FC054B2360002360
S3150800C2C0C4E90376C4E9063523752046F8BD00BFE0
S3150800C2D0CCC10108064B10B5186809F0D8FBD0F890
S3150800C2E01032BDE810401B6800F50470184700BFFF
S3150800C2F00013002003468068596802689268104750
S3150800C30010B5054B0446186809F0C1FB2146BDE87F
S3150800C310104000F001B900BF0013002010B50468F2
S3150800C320FFF7D8FF0444E07810BD2DE9F041044634
S3150800C3300E461546FFF7F2FF48B1A0686168036824
S3150800C3401F682A463346BC46BDE8F0416047BDE84B
S3150800C350F081000030B5002385B00446CDE90233EC
S3150800C3600846064B019301A902ADFFF7DEFF95E8E3
S3150800C370030084E80300204605B030BD58BE010816
S3150800C38013B504466846FEF7A5FE00226946204610
S3150800C390FFF7CBFF6846019CFEF7A4FE204602B0D5
S3150800C3A010BD38B50546FFF7A5FF04462846FFF732
S3150800C3B0E7FF604338BD10B50468FFF78BFF0444F8
S3150800C3C0607910BD2DE9F04104460E461546FFF783
S3150800C3D0F2FF48B1A068616803685F682A46334679
S3150800C3E0BC46BDE8F0416047BDE8F0810368DB79EB
S3150800C3F00BB1FFF7E0BF18467047000037B50A4B88
S3150800C400CDE900320A4669460446FFF7DBFF0546D2
S3150800C41038B12046FFF7EAFF18B1A38901339BB26A
S3150800C420A381284603B030BD34BE010813B5836026
S3150800C43000238381C381094BC0E9001204461868AA
S3150800C44009F025FB01A9019400F0F4F9019810B14F
S3150800C4501021FEF795FE204602B010BD00130020FD
S3150800C460704706F06FBD0B681B68198813681B6850
S3150800C4701B88994204D005DA4FF0FF30C00F704789
S3150800C4800020FBE70120F9E700F10C03D0F80C02C5
S3150800C49070B503EB800440F31D0040B99C4205D0FB
S3150800C4A0186803681B888B4288BF002070BD420845
S3150800C4B003EB820553F82260366836888E423DBF04
S3150800C4C000F1FF302B1D801A1046E6E738B5044602
S3150800C4D0084611461D46FFF7D7FF014628B12A46EA
S3150800C4E02046FFF737FF204638BD2071FBE7B0F836
S3150800C4F04026B0F8423692B29BB29A420AD1B0F8B8
S3150800C5004426B0F8463692B29BB29A4202D190F8C7
S3150800C510480670470120704700F5067006F066BDAC
S3150800C520D0F80C3270B500F10C05044605EB83060D
S3150800C530B54200D170BD55F8041B2046FFF7ECFF45
S3150800C540F6E710B5044600F5067006F0C3FC40B1E0
S3150800C550B4F8443601339BB2A4F84436012384F870
S3150800C560483610BD10B509880446FFF78DFF014609
S3150800C57020B12046BDE81040FFF7E3BF10BD00F12B
S3150800C5800C03C0F83C36B0F8403601339BB2A0F82D
S3150800C5904036012380F848367047D0F80C3270B51B
S3150800C5A000F10C04054604EB8306A64204D128468E
S3150800C5B0BDE87040FFF7E3BF2068FFF717FF20B11B
S3150800C5C02268938901339BB293810434EDE710B551
S3150800C5D0044600F5067006F0A5FCB4F844360133A7
S3150800C5E09BB2A4F84436012384F8483610BD0000EF
S3150800C5F0EFF31083DB4303F0010372B6B0F840266D
S3150800C600B0F8421692B289B28A420BD1B0F84426E3
S3150800C610B0F8461692B289B28A420AD109487BB165
S3150800C62062B67047A0F84226012280F848260648D6
S3150800C630F5E7A0F84626012280F848260348EEE7E3
S3150800C64072B6704751C60008A9C60008D5C60008C4
S3150800C650FFF7CEBFD0F82C26104B9A4210B518D14A
S3150800C660D0F80C2200F10C0303EB8203D0F83C2629
S3150800C670934210D0111DC0F83C1611688A89CC89DE
S3150800C68092B2A4B2A242F1D0CA8100F5067006F0B1
S3150800C69021FC034800E0034810BD00BF63C400083E
S3150800C6A0A9C60008D5C60008FFF7D4BF08B5D0F854
S3150800C6B02C26054B9A4205D100F5067006F022FC99
S3150800C6C0024808BD0248FCE763C40008FDC6000826
S3150800C6D0D5C60008FFF7EABFD0F82C26044B9A42C5
S3150800C6E003BF002380F8483602480348704700BF56
S3150800C6F063C4000851C60008FDC60008FFF7ECBF72
S3150800C70070B50446FEF7EEF9114B2360114BC4F8D9
S3150800C71010320025012304F5067684F81432C4F88D
S3150800C7200C52304606F094FE0B4BA4F84056C4F85B
S3150800C7303836A4F84256C4F83C56A4F8445684F849
S3150800C7404856A4F84656304606F0A0FB204670BD6B
S3150800C750E4C10108FCBB010851C6000810B504680D
S3150800C760016044B12046FFF77BFE20461021BDE854
S3150800C7701040FEF705BD10BD2DE9F74FD1F8006250
S3150800C780002307468A4691460360037101EB860536
S3150800C79046F31D0488463CB9454518D10123802E29
S3150800C7A03B7132D10AF04CFA4FEA540B08EB8B0175
S3150800C7B04A4650460191FFF756FE019928B1013CB9
S3150800C7C001F10408A4EB0B04E5E75C46E3E74246FF
S3150800C7D049465046FFF747FE00B30123802E3B71BA
S3150800C7E0E0D055F8043C4AF82630013645F8044DA1
S3150800C7F0CAF80062A845284616D1D9F80010C9F823
S3150800C80000404046FFF7AAFF08E0D9F80030C8F80C
S3150800C81000300136C9F80040CAF800623846C7F841
S3150800C820008003B0BDE8F08F55F8041D2C60FFF7B3
S3150800C83095FFDFE707B50A4600F10C016846FFF7E2
S3150800C8409BFF03B05DF804FBF8B504460E4B036086
S3150800C85000F5067006F054FAD4F80C5204F10C07E9
S3150800C86025B92046FEF736F92046F8BD57F8046B79
S3150800C870013D002EF4D03046FFF7F2FD1021304678
S3150800C880FEF77EFCECE700BFE4C1010810B50446DC
S3150800C890FFF7DAFF204640F24C61FEF771FC2046AE
S3150800C8A010BD10B5044600F5067006F020FAD4F857
S3150800C8B0383620469847C4F8380610BD10B50446E1
S3150800C8C02046FFF714FE00B910BD2046FFF7E9FF22
S3150800C8D0F6E7008A7047000010B5034B036004466C
S3150800C8E0FEF7F8F8204610BD24C2010810B5044624
S3150800C8F0FFF7F2FF20462421FEF742FC204610BD32
S3150800C900406800F00FB84068FFF7E3BF0346C06809
S3150800C910198A1A8C03688A1A51425B68514118476A
S3150800C920FFF7F4BF08B5038C23B10182FFF7EEFFCA
S3150800C930012008BD1846FCE738B504460D46FEF743
S3150800C940D1F8144A144B2360C4E905240023134A7A
S3150800C950E5602382E26123841020FEF705FC2A465F
S3150800C9600F4B1049104DFFF761FD1020FEF7FCFB39
S3150800C9702B4604F114020D49FFF758FD1020FEF767
S3150800C980F3FB0B492B4604F11C02FFF74FFD20462B
S3150800C99038BD00BFFCC1010824C20108F4C0010863
S3150800C9A050BD010804C201084CBD010814C20108A3
S3150800C9B00CC2010810B50446084609F068F8636811
S3150800C9C01988FFF761FD014628B1236820461B68D0
S3150800C9D0BDE81040184710BD406870478368994203
S3150800C9E005D3C368994202D84160012070470020E8
S3150800C9F0704712682DE9F0410468023AA24201D84C
S3150800CA00BDE8F0810E68B6F9008020461346054653
S3150800CA1030F902CBC445FADB1F46B7F900E0C64534
S3150800CA203B46A7F10207F8DCAB4207D3874220F85A
S3150800CA3002EC0546A3F800C03B46E8D29E4288BFF2
S3150800CA402C46AE4238BF1A46D8E7000070B50B68C8
S3150800CA500C46054601795B68204698472D681020E4
S3150800CA60FEF782FB22462946024BBDE87040FFF7D7
S3150800CA70DDBC00BF50BD010810B5044690F834006F
S3150800CA8030B1206903681B68984780F00100C0B27E
S3150800CA9084F83400A36A20469847A06210BD0000B7
S3150800CAA010B5034B03600446FEF714F8204610BD84
S3150800CAB05CC2010810B50446FFF7F2FF204648217C
S3150800CAC0FEF75EFB204610BD4068FEF717BB10B5A3
S3150800CAD004468069B4F92C1003685B689847E069D6
S3150800CAE0B4F92E100368BDE810405B68184710B506
S3150800CAF004468069E2680368B2F910105B689847D3
S3150800CB00E069E2680368B2F912105B68BDE8104094
S3150800CB10184770B50446406903681B689847054678
S3150800CB20A06903681B689847A84204DDA0690368E2
S3150800CB3029465B689847E06903681B689847A842D6
S3150800CB4006DAE069036829465B68BDE8704018475D
S3150800CB5070BD10B50446C06903681B689847011E76
S3150800CB6007DDE06903680139BDE810405B6809B272
S3150800CB70184710BD38B50446806903681B6898478E
S3150800CB800546E06903681B689847A585E08538BDB2
S3150800CB9090F8343010B504468BB1006903681B68F9
S3150800CBA0984748B92046FFF7E5FF2046FFF79FFF5D
S3150800CBB0E36B0448A36310BD002384F834300248AD
S3150800CBC0F9E700BF19CC0008CDCB0008FFF7E0BF96
S3150800CBD010B504463830FEF798FA94F8343033B96D
S3150800CBE0E36BA3632046FFF772FF084810BDA36BEB
S3150800CBF020463BB9FFF7ADFF04F12000236A9847AA
S3150800CC000348F3E7FFF785FF0248EFE7CDCB0008B7
S3150800CC1039CC000819CC0008FFF7DABF90F8343091
S3150800CC201BB9C36B8363024870470248704700BF4D
S3150800CC30CDCB000839CC0008FFF7F0BF82B02DE94C
S3150800CC40F04106AD044645F8043F0E461746FDF783
S3150800CC5049FF204B23600FCDC4E9036704F114078D
S3150800CC600FC72B681C4A3B6022631C4BF268A36201
S3150800CC700023C4E90E32A385E38584F83430184BC3
S3150800CC803768184D236404F1380363641020FEF7EF
S3150800CC906BFA2B4604F130023946FFF7C7FB776873
S3150800CCA0D4F810801020FEF75FFA2B464246394624
S3150800CCB0FFF7BCFBB5681020FEF756FA04F14002F0
S3150800CCC02946094BFFF7B2FB2046BDE8F04102B002
S3150800CCD0704700BF5CC20108FCBB0108CDCB000849
S3150800CCE04CC2010850BD01084CBD010870B5044688
S3150800CCF002F06CFB204608F0CEFE0546A820FEF79B
S3150800CD0033FA2146064600F0C5FA3146281DBDE825
S3150800CD107040FDF71BBFA0F85C10704703695B699C
S3150800CD20A0F85C307047000010B5034B036004465A
S3150800CD30FFF71AF9204610BD74C2010810B504465B
S3150800CD40FFF7F2FF20466021FEF71AFA204610BDCB
S3150800CD5010B5034B03600446FFF7E6FF204610BDF7
S3150800CD60F4C2010810B50446FFF7F2FF2046602119
S3150800CD70FEF706FA204610BD10B50D4A0446FFF721
S3150800CD80C9F80C4B236023690B4AB3F91430A4F88D
S3150800CD905C30A2651020FEF7E7F9084B084904F154
S3150800CDA05802FFF743FB074B2360204610BD00BF20
S3150800CDB0C4C2010874C20108C4C00108C0C1010880
S3150800CDC08CC20108F4C20108A0F85C107047036918
S3150800CDD05B69A0F85C3070478088704710B5034BD4
S3150800CDE003600446FFF7C0F8204610BD24C30108B7
S3150800CDF010B50446FFF7F2FF20466021FEF7C0F99A
S3150800CE00204610BD10B5034B03600446FFF7E6FF46
S3150800CE10204610BDA4C3010810B50446FFF7F2FF6B
S3150800CE2020466021FEF7ACF9204610BD10B50C4A25
S3150800CE300446FFF76FF80B4B236023690A4A9B8A5F
S3150800CE40A4F85C30A2651020FEF78EF9074B084956
S3150800CE5004F15802FFF7EAFA064B2360204610BD94
S3150800CE6074C3010824C3010814C301084CBD010892
S3150800CE703CC30108A4C30108B0F8543010B50446F1
S3150800CE801BB1013BA0F8543010BD0369DB89002BA8
S3150800CE90FAD001211430FEF7BBFB94F82030002BA2
S3150800CEA0F2D0236820465B69BDE810401847406801
S3150800CEB000F000B8F7B50D46044600211430FEF719
S3150800CEC0A7FB05F108010422684609F0DDFE0422E5
S3150800CED069460DEB020009F0D7FE019B04221BBA36
S3150800CEE00DEB02016846019309F0CEFE042269465D
S3150800CEF00DEB020009F0C8FE2769019E7D693146DF
S3150800CF00284609F0CFFC30B9BD693146284609F0F4
S3150800CF10ABFC00B93546236829461B692046984765
S3150800CF20B4F8543004F13C0763B93146284609F091
S3150800CF3091FCB0FA80F14909384603B0BDE8F040E3
S3150800CF40FEF746B90021F7E773B5044615460E46BF
S3150800CF50FDF7C8FD104B2A7CA9682360C4E9036560
S3150800CF60EB8904F11400FEF76DFB2A7C696804F16D
S3150800CF703C00FEF73BF92369E0689B89A4F8543026
S3150800CF80064B6946CDE90034D5E9082302F0E9FFE6
S3150800CF90204602B070BD00BF20C40108AFCE00080D
S3150800CFA013B50C4B0C4A0360C368CDE90020044650
S3150800CFB06946D86803F0FDFD04F13C00FEF730F938
S3150800CFC004F11400FEF72CF92046FDF783FD2046F0
S3150800CFD002B010BD20C40108AFCE000843689868A7
S3150800CFE070B50C4660B1D3E9006503681B689847BD
S3150800CFF03246034621462846BDE87040FEF7BCBEC9
S3150800D00070BD4368986870B50C4660B1D3E9006591
S3150800D01003681B6898473246034621462846BDE8FA
S3150800D0207040FEF7A9BE70BD4368986870B50C4697
S3150800D03060B1D3E9006503681B6898473246034622
S3150800D04021462846BDE87040FEF796BE70BD000032
S3150800D05010B5034B0360044600F06AFC204610BD79
S3150800D060A4C4010810B50446FFF7F2FF20464C2178
S3150800D070FEF786F8204610BD30B5002589B0CDE903
S3150800D08003250B46144A00F13C0106910221044689
S3150800D090079107CA8DE8070008AA12E90600204684
S3150800D0A000F090FC0D4B2360082363620C4BC4E927
S3150800D0B00A351C2323630B4BC4E90D350A4BE3637E
S3150800D0C004F124032364094B6364204604F1300306
S3150800D0D0A36409B030BD00BF90C40108A4C4010808
S3150800D0E048C4010874C4010803D0000829D0000800
S3150800D0F010B5034B0360044600F01AFC204610BD29
S3150800D100C8C4010810B50446FFF7F2FF204660219F
S3150800D110FEF736F8204610BD30B5002589B0CDE9B2
S3150800D12003250B46164A00F14801069103210446D9
S3150800D130079107CA8DE8070008AA12E906002046E3
S3150800D14000F040FC0F4B23600F4B65620222C4E9D6
S3150800D1500C230422C4E90F23C4E90A350B4BA36444
S3150800D16004F12402C4E9132304F13002C4E91523A7
S3150800D170204604F13C03A5636564E36509B030BD48
S3150800D180B4C40108C8C4010874C4010829D0000839
S3150800D19000EBC1008069704700EBC100007F704753
S3150800D1A000EBC1000277012070471020704700008D
S3150800D1B010B5034B03600446FDF78CFC204610BDF2
S3150800D1C018C5010810B50446FFF7F2FF2046A82146
S3150800D1D0FDF7D6FF204610BD406800F04FB84068FE
S3150800D1E0FFF7D6BF4068FFF7E0BF4068FFF7D8BF34
S3150800D1F04068FFF7D1BF4068FFF7D7BF70B58EB25A
S3150800D20086B00C0C33460169054622466846FFF788
S3150800D2105DF99DF8043083B16B6902934FF6087384
S3150800D220ADF80C30009B0593EB68ADF81040186913
S3150800D230ADF8126002A902F0E7FF06B070BD70B53E
S3150800D2400546044600F18006B44200D170BDA169C6
S3150800D25021B1237F13B12846FFF7D0FF0834F3E73F
S3150800D26019B100F18003984201D101207047826903
S3150800D270914200F10800F6D10020704738B50D46F6
S3150800D28011460446FFF7ECFF10B104EBC504A16193
S3150800D29038BD000038B504460D46FDF723FC1A4B89
S3150800D2A02360284608F0F4FEE060284608F0EFFB05
S3150800D2B0E368206193F82020144B1343626902F057
S3150800D2C00042134363618022002104F1180009F02B
S3150800D2D003FD0F4BC4E926340E4B1020C4E928344D
S3150800D2E0FDF742FF04F198020B4B0C49FFF79EF835
S3150800D2F01020FDF739FF0A4B0A4904F1A002FFF78F
S3150800D30095F8204638BD00BF18C5010800FFFF384C
S3150800D310E0C40108F4C40108A0BF010808C5010853
S3150800D32098BF010800C501084368986870B50C469F
S3150800D33060B1D3E9006503681B689847324603461F
S3150800D34021462846BDE87040FEF716BD70BD0000B0
S3150800D35010B5034B0360044600F0EAFA204610BDF8
S3150800D360C8C5010810B50446FFF7F2FF2046882114
S3150800D370FDF706FF204610BD30B5002589B0CDE97A
S3150800D38003250B46214A00F1600106910521044652
S3150800D390079107CA8DE8070008AA12E90600204681
S3150800D3A000F010FB1A4B23601A4B6562C4E90A3574
S3150800D3B008232363184B65641022C4E90F23182237
S3150800D3C0A264164AE565C4E913253822C4E915237B
S3150800D3D0C4E90D35124B236604F124036366114B29
S3150800D3E0A36604F13002C4E91B2304F13C02626718
S3150800D3F00D4AA26704F14802C4E91F23204604F136
S3150800D4005403C4F8843009B030BD00BFB4C5010860
S3150800D410C8C5010838C5010864C5010898C50108CA
S3150800D42029D3000803D00008DDCF000810B5034B48
S3150800D4300360044600F07CFA204610BD18C60108B1
S3150800D44010B50446FFF7F2FF20466021FDF798FE67
S3150800D450204610BD30B5002589B0CDE903250B4619
S3150800D460184A00F14801069103210446079107CAA4
S3150800D4708DE8070008AA12E90600204600F0A2FA7D
S3150800D480114B236008236362104BA5631822C4E975
S3150800D4900C23C4E90A352823E3630D4BC4E9103588
S3150800D4A00C4BA36404F12402C4E9132304F13003EA
S3150800D4B06365094BA365204604F13C03E36509B09F
S3150800D4C030BD00BF04C6010818C60108E8C5010832
S3150800D4D074C4010803D0000829D0000810B5034B0E
S3150800D4E00360044600F024FA204610BD68C6010809
S3150800D4F010B50446FFF7F2FF20463821FDF740FE37
S3150800D500204610BD30B5002589B0CDE903250B4668
S3150800D5100E4A00F13001069101210446079107CA17
S3150800D5208DE8070008AA12E90600204600F04AFA24
S3150800D530074B2360074B6562C4E90A35064B23632C
S3150800D540204604F12403636309B030BD54C60108BC
S3150800D55068C6010838C60108DDCF000810B5034BB8
S3150800D5600360044600F0E4F9204610BD8CC60108A5
S3150800D57010B50446FFF7F2FF20463821FDF700FEF6
S3150800D580204610BD30B5002589B0CDE903250B46E8
S3150800D5900F4A00F13001069101210446079107CA96
S3150800D5A08DE8070008AA12E90600204600F00AFAE4
S3150800D5B0084B236010236362074BC4E90A35074BFF
S3150800D5C02363204604F12403636309B030BD00BF1A
S3150800D5D078C601088CC6010838C60108DDCF0008E0
S3150800D5E010B5034B0360044600F0A2F9204610BDAF
S3150800D5F0B0C6010810B50446FFF7F2FF20469C2185
S3150800D600FDF7BEFD204610BD70B5002588B0CDE9F2
S3150800D6100325254A0B4600F16C010446069107CA04
S3150800D6208DE807000626079608AA12E9060020468E
S3150800D63000F0C8F91D4B23601D4B65620222C4E940
S3150800D6400C230422C4E90F23C4E90A35C4E91335B7
S3150800D65008236365174BA5632822C4E91823C4E980
S3150800D6601635154BE36604F12402C4E91C2304F1BC
S3150800D6703002C4E91E2304F13C02C4E9202304F164
S3150800D6804803C4F888300D4BC4F88C3004F15402B2
S3150800D690C4E92423204604F16003C4E91156A566AB
S3150800D6A0C4F8983008B070BD9CC60108B0C6010819
S3150800D6B074C4010898C5010829D00008DDCF000800
S3150800D6C010B5034B0360044600F032F9204610BD3E
S3150800D6D02CC7010810B50446FFF7F2FF2046602163
S3150800D6E0FDF74EFD204610BD30B5002589B0CDE9C1
S3150800D6F003250B46174A00F1480106910321044603
S3150800D700079107CA8DE8070008AA12E9060020460D
S3150800D71000F058F90822104B2263104A2360104B78
S3150800D7206562C4E90D251822C4E90F2304F1240211
S3150800D730C4E90A35E2640B4B0B4A226504F1300250
S3150800D740C4E91523A364204604F13C036564E36534
S3150800D75009B030BD18C701082CC70108D0C6010892
S3150800D760FCC60108DDCF000803D0000810B5034B3E
S3150800D7700360044600F0DCF8204610BD50C70108D7
S3150800D78010B50446FFF7F2FF20466021FDF7F8FCC6
S3150800D790204610BD30B5002589B0CDE903250B46D6
S3150800D7A0164A00F14801069103210446079107CA63
S3150800D7B08DE8070008AA12E90600204600F002F9DB
S3150800D7C00F4B23600F4B65620822C4E90C23102215
S3150800D7D0C4E90F23C4E90A350B4BA36404F12402F8
S3150800D7E0C4E9132304F13002C4E91523204604F1E1
S3150800D7F03C03A5636564E36509B030BD3CC7010811
S3150800D80050C70108FCC60108DDCF000810B5034B58
S3150800D8100360044600F08CF8204610BDA0C7010836
S3150800D82010B50446FFF7F2FF2046E421FDF7A8FCF1
S3150800D830204610BD30B5002589B0CDE903250B4635
S3150800D840354A00F19C01069109210446079107CA49
S3150800D8508DE8070008AA12E90600204600F0B2F88B
S3150800D8602E4B2360182363622D4B6564C4E90A3581
S3150800D8702A2323632B4B25651622C4E90F2314227A
S3150800D880C4E912231222C4E915231022C4E9182375
S3150800D8902022C4E91B232222C4E91E232422C4E928
S3150800D8A021232622C4E92423C4E90D351E4BC4F8D6
S3150800D8B09C3004F12403E565A5666567C4F88050C5
S3150800D8C0C4F88C50C4F89850C4F8A030174BC4F864
S3150800D8D0A43004F13C02C4E92A2304F14802C4E94D
S3150800D8E02C2304F15402C4E92E2304F16002C4E98E
S3150800D8F0302304F16C02C4E9322304F17802C4E946
S3150800D900342304F18402C4E93623204604F1900343
S3150800D910C4F8E03009B030BD8CC70108A0C70108BB
S3150800D92070C7010874C40108DDCF000829D00008B3
S3150800D93010B5034B03600446FDF7CCF8204610BD2E
S3150800D940B8C7010810B50446FFF7F2FF20462421A0
S3150800D950FDF716FC204610BD2DE9F04186B0836917
S3150800D96002934FF60873ADF80C304FF0FF33CDE94C
S3150800D9700433D0E9035300240646046205EBC307C3
S3150800D980E846BD4208D124B1736902A9186902F0B4
S3150800D9903BFC06B0BDE8F08195E8030088E8030083
S3150800D9A002A9009B404698470443E4B20835E8E7D5
S3150800D9B0C16931B1026A0A329142026201D8FFF79F
S3150800D9C0CBBF704773B504466D4685E806001E460C
S3150800D9D0FDF788F8224695E80300124B42F80C3BFF
S3150800D9E0069B82E803009DF828209DF81C106661B6
S3150800D9F0C3F311031A439DF8243043EA816343EACB
S3150800DA000223A26923F0604302F0004243F0005368
S3150800DA101343A361089BE36120460023236202B0F7
S3150800DA2070BD00BFB8C701080B79082B37B5044687
S3150800DA300D461BD100211830FDF7EAFD21692A465B
S3150800DA400B7EC9696846FEF788F99DF8045004F10B
S3150800DA50400085F00101FDF7BBFB3DB12368009945
S3150800DA601B69204603B0BDE83040184703B030BDF7
S3150800DA700369DB8910B5044673B101211830FDF737
S3150800DA80C7FD94F824303BB12269236851691B69A4
S3150800DA902046BDE81040184710BD4068FFF7C4BFD0
S3150800DAA0F0B5044685B015460F461E46FDF71AF82A
S3150800DAB0114B2A7CA9682360C4E90375EB8904F134
S3150800DAC01800FDF7BFFD2A7C696804F14000FDF7E0
S3150800DAD08DFB0A4A2369E0681B6ACDE902249DF892
S3150800DAE02820CDE9006204AA12E9060000F064F8CD
S3150800DAF0204605B0F0BD00BFD0C701089BDA000874
S3150800DB0013B50D4B03600D4BCDE9003002AB04464F
S3150800DB1013E90600C06800F069F804F14000FDF753
S3150800DB207FFB04F11800FDF77BFB2046FCF7D2FFCC
S3150800DB30204602B010BD00BFD0C701089BDA000816
S3150800DB40007970470079704710B5034B03600446A7
S3150800DB50FCF7C0FF204610BD24C8010810B50446CE
S3150800DB60FFF7F2FF20462C21FDF70AFB204610BDE1
S3150800DB7043798B4205D883798B4202D30171012000
S3150800DB8070470020704770B50D46164604461020AB
S3150800DB90FDF7EAFA33462A462146BDE87040FEF705
S3150800DBA045BC43798B4205D883798B4202D30171F0
S3150800DBB0012070470020704713B56C4684E80600BC
S3150800DBC09DF814200069C3F3110313439DF8102030
S3150800DBD042EA0322044B42F000521B68214602F037
S3150800DBE0C0F902B010BD00BF34C8010807B56B46BE
S3150800DBF083E8060002691946D06802F0DAFF03B026
S3150800DC005DF804FB70B504460E461546FCF76AFF38
S3150800DC10144B2360144B154A6361C4E9036500235A
S3150800DC20134D2383E261FE23626203210522A37654
S3150800DC3084F8223084F82A302184228504F11401DC
S3150800DC402A460C48FFF79FFF2A4604F11C010A489A
S3150800DC50FFF799FF09482A4604F12401FFF793FFC5
S3150800DC60204670BD24C80108ECC70108FCC7010896
S3150800DC7054BD01080CC8010814C8010804C80108E5
S3150800DC804368986870B50C4660B1D3E900650368C7
S3150800DC901B6898473246034621462846BDE8704029
S3150800DCA0FEF76AB870BD4368986870B50C4660B1EF
S3150800DCB0D3E9006503681B68984732460346214640
S3150800DCC02846BDE87040FEF757B870BD10B5034B3F
S3150800DCD003600446FFF72CFE204610BDA4C80108C1
S3150800DCE010B50446FFF7F2FF20468821FDF748FAEB
S3150800DCF0204610BD30B5002589B0CDE903250B4671
S3150800DD00234A00F16001069105210446079107CAD6
S3150800DD108DE8070008AA12E906002046FFF752FE1A
S3150800DD201C4B2360082363621B4BC4E90A35202376
S3150800DD3023631A4BC4E90D351823E363184BC4E96A
S3150800DD4010353823A364174BC4E913353C236365A0
S3150800DD50154BC4E91635154B236604F1240363668F
S3150800DD60134BA36604F13002C4E91B2304F13C03F8
S3150800DD706367104BA36704F14803E3670E4BC4F8C7
S3150800DD808030204604F15403C4F8843009B030BD0D
S3150800DD9074C80108A4C80108E8C5010838C60108FE
S3150800DDA048C8010880C8010838C5010803D000081A
S3150800DDB0DDCF000881DC0008A7DC000810B5034B9E
S3150800DDC003600446FFF7B4FD204610BDC8C8010825
S3150800DDD010B50446FFF7F2FF20464C21FDF7D0F9AF
S3150800DDE0204610BD30B5002589B0CDE903250B4680
S3150800DDF0144A00F13C01069102210446079107CA1C
S3150800DE008DE8070008AA12E906002046FFF7DAFDA2
S3150800DE100D4B2360042363620C4BC4E90A350823BF
S3150800DE2023630B4BC4E90D350A4BE36304F1240362
S3150800DE302364094B6364204604F13003A36409B0E4
S3150800DE4030BD00BFB4C80108C8C8010874C40108B9
S3150800DE5038C6010829D00008DDCF000810B5034BE5
S3150800DE6003600446FFF764FD204610BD18C9010883
S3150800DE7010B50446FFF7F2FF20464C21FDF780F95E
S3150800DE80204610BD30B5002589B0CDE903250B46DF
S3150800DE90124A00F13C01069102210446079107CA7D
S3150800DEA08DE8070008AA12E906002046FFF78AFD52
S3150800DEB00B4B23600B4B65621022C4E90C23C4E9A3
S3150800DEC00A35094BE36304F12402C4E9102320460A
S3150800DED004F13003A563A36409B030BD04C9010881
S3150800DEE018C90108E8C80108DDCF000882B06B46EA
S3150800DEF0142A83E8060006D893E80600D0F84C01F1
S3150800DF0002B0FBF703BD02B0704782B06B4683E8E8
S3150800DF10060093E8060002B000F031BE06C9406864
S3150800DF20FFF7F3BF06C94068FFF7E0BF30B50C4BF3
S3150800DF3087B004460D46CDE90230009208490246EC
S3150800DF40142300F011FC074BC4F84C51284604A9C9
S3150800DF50CDE90434FBF7CAFC204607B030BD00BF44
S3150800DF6025DF00081DDF0008014B0360704700BF6E
S3150800DF7030C90108704782B008310823019300911F
S3150800DF806B4413E906000C3002B000F0F8BD406897
S3150800DF90FFF7F1BF06C9406800F035B813B5124B54
S3150800DFA0124A0360D0F858310446CDE90020694684
S3150800DFB0D86802F0FEFDD4F8483104F5A4710022B1
S3150800DFC099420BD1E06918B1616A091AFDF7D8F8C8
S3150800DFD02046FCF77FFD204602B010BD1868C3E94D
S3150800DFE000220346ECE700BF58C901088FDF000886
S3150800DFF010B50446FFF7D2FF20464FF4B671FDF779
S3150800E000BFF8204610BD10B586B06B4683E80600FB
S3150800E010D0F86821044622F06043C2F3807043EAD0
S3150800E0204073C2F3407243EA8273029A02F00042D6
S3150800E03013430293019A4FF60873ADF80C30002388
S3150800E040CDE9043312B104A808F01EFED4F858012D
S3150800E05002A902F0D9F806B010BD000070B5044652
S3150800E06086B00D461646FCF73DFD214B2360214B35
S3150800E07020490096CDE902342246082304F10C0013
S3150800E08000F072FB1C4B1D4AC4F85851C4E95823CA
S3150800E0901B4DC4F85C311B4BC4F868311020FDF7E2
S3150800E0A063F82B4604F5AE721749FEF7BFF9102040
S3150800E0B0FDF75AF82B4604F5B2721449FEF7B6F97D
S3150800E0C0D4F86031D4F85801C3F3807223F0604164
S3150800E0D041EA4271C3F340720D4B41EA8272CDE9BF
S3150800E0E0043404A9002301F03CFF204606B070BDA5
S3150800E0F058C9010895DF00083CBF0108F9D4FC5847
S3150800E10098BE010803D4FC5848C9010840C901084B
S3150800E1108FDF0008202070472020704700207047B6
S3150800E12010B5034C2046FFF71FFF024B236010BDB6
S3150800E1301413002070C90108312070472420704745
S3150800E14024207047202070472020704710B5034CC4
S3150800E150204600F095F8024B236010BD18130020E6
S3150800E16088C901084068FEF7C2B938B5054640684F
S3150800E170FEF7BDF9044620B96868FEF700FA20469E
S3150800E18038BD1020FCE72DE9F0410C4615461E4621
S3150800E1900BB391F834711FB122273846BDE8F081D8
S3150800E1A0B1F832114068FEF76FF980460028F3D0BF
S3150800E1B0FEF701F988B1B4F8304126442A682146A9
S3150800E1C04046FEF71BF90028E6D00134B44205F1B3
S3150800E1D00405F3D1E1E72127DFE72327DDE72DE96A
S3150800E1E0F7430D4614461E467BB391F8347127B1A2
S3150800E1F02227384603B0BDE8F083B1F832114068EB
S3150800E200FEF742F980460028F2D0FEF787F8F0B10B
S3150800E210B5F830914E444A4641466846FEF79AF8A4
S3150800E2209DF80430009D002BE2D02B1209F101095C
S3150800E23025706370B1454FEA25434FEA2565A370FB
S3150800E240E57004F10404E6D1D3E72127D1E72427B2
S3150800E250CFE7000010B5034B03600446FFF78AFEBC
S3150800E260204610BDA8C9010838B504460D46FFF773
S3150800E2707BFE024B2046C4E9003538BDA8C9010813
S3150800E280014B0360704700BFC0C901087047FF29EA
S3150800E29038B5D0F8002105460C4601D908F0D0FC5F
S3150800E2A08A4202D9C5F8004138BD10448A1AF9D005
S3150800E2B0002108F011FDF5E770B5D0F83C41054698
S3150800E2C000F59E76B44200D170BD54F8043C201F78
S3150800E2D05B68294698472468F4E770B5D0F83C414E
S3150800E2E0054600F59E76A64200D170BD54F8043C5A
S3150800E2F0201F1B68294698472468F4E770B5D0F8AC
S3150800E3003C41054600F59E76B44200D170BD54F8EE
S3150800E310043C201F9B68294698472468F4E7C3688D
S3150800E3201B7801229A40531E0B401CBF8918C91A34
S3150800E330084670478268C36891421B7828BF114611
S3150800E340D94001FA03F07047C3681A788368D34046
S3150800E35003FA02F070470369FE221A7003695970BE
S3150800E3600223C3617047F8B50446154607690E4689
S3150800E370FFF7D5FF6369E268DB1B12781B1AD340E7
S3150800E380AB4205D222212046BDE8F840FFF7E3BF9D
S3150800E390BB19002207449F421FD131462046FFF78A
S3150800E3A0BEFF0246D4F84401216903680A441F687F
S3150800E3B021462B46B84701460028E4D1D4F8303127
S3150800E3C02B44C4F8303131462046FFF7A8FFE368EE
S3150800E3D01B789D400544E561F8BD03F8012BDAE793
S3150800E3E010B50446D0F84401036821469B6898474F
S3150800E3F0014620B12046BDE81040FFF7ACBF10BD6E
S3150800E40070B50446D0F84801E36815461B780268DB
S3150800E41005FA03F396680A462146B047014628B925
S3150800E420D4F830312B44C4F8303170BD2046BDE8ED
S3150800E4307040FFF790BFC3681878400000F00600E8
S3150800E4407047F7B5012502AB90F82A7080F82A5074
S3150800E45003E90600FF210446FFF76CFF4FF6FF713C
S3150800E46006462046FFF766FF2369112102465970C2
S3150800E4702046FFF7E0FF236998702369DE70236959
S3150800E4801A712369120A5A7123699D712369DD710C
S3150800E4900823E3612FB9204603B0BDE8F040FFF733
S3150800E4A01CBF03B0F0BD002280F8202080F82A2087
S3150800E4B0FFF724BF13B502AB03E906004B78012B1F
S3150800E4C0044605D0222102B0BDE81040FFF743BF3D
S3150800E4D0FFF786FF94F820306FF3820384F8203024
S3150800E4E002B010BD82B00DF1080C0CE906000A4610
