S02B0000453A5C7265706F735C63735C72656C656173655C63736D335C63736D335C6170705C63736D332D62BF
S31508009000002000202D9200083192000837920008AF
S31508009010519200085792000871920008000000005B
S31508009020FFFFFFFF00000000000000008B92000811
S315080090309192000800000000979200089D9200088F
S31508009040FD0601080D0701081D0701082D0701087F
S315080090503D0701084D0701085D0701086D0701086E
S315080090607D0701088D0701089D070108AD0701085E
S31508009070BD070108CD070108DD070108ED0701084E
S31508009080FD0701080D0801081D0801082D0801083B
S315080090903D0801084D0801085D0801086D0801082A
S315080090A07D0801088D0801089D080108AD0801081A
S315080090B0BD080108CD080108DD080108ED0801080A
S315080090C0FD0801080D0901081D0901082D090108F7
S315080090D03D0901084D0901085D0901086D090108E6
S315080090E07D0901088D0901089D090108AD090108D6
S315080090F0BD090108CD090108DD090108ED090108C6
S31508009100000000000000000000000000FD09010842
S315080091100D0A01081D0A01082D0A01083D0A010861
S315080091204D0A01085D0A01086D0A01087D0A010851
S315080091308D0A01089D0A01080000000000000000D1
S31508009140AD0A0108BD0A0108CD0A010800000000A1
S315080091500000000000000000000000000000000001
S315080091600000000000000000DD0A0108ED0A010801
S31508009170FD0A0108000000000000000000000000D1
S30D08009180000000000D0B0108B8
S31508009188353833313931380008B500F0D1F81D4A79
S315080091981D48824217D31D4A1D4900208A421DD3FD
S315080091A81C4D1D4C01F0B2FF641BA4100026B442E6
S315080091B81DDC1A4D1A4C641BA4100026B4421BDC8D
S315080091C80BF068F8FEE7D2E9001394680C32C91A5E
S315080091D89C42DED95D5843F8045BF9E752F8083B28
S315080091E852F8044C9C42D9D943F8040BFAE755F8C7
S315080091F8043B98470136DAE755F8043B98470136A1
S31508009208DCE700BF509400085C9400085C940008EA
S315080092186494000864940008649400086494000838
S31508009228709400081C48004708B504F043FF1EF070
S31508009238040F0CBFEFF30880EFF309807146174A4D
S31508009248104708B504F036FF08B504F033FF1EF0DA
S31508009258040F0CBFEFF30880EFF309807146104A34
S31508009268104708B504F026FF1EF0040F0CBFEFF3ED
S315080092780880EFF3098071460A4A104708B504F0D2
S3150800928819FF08B504F016FF08B504F013FF08B56A
S3150800929804F010FF70470000919100084B920008EF
S315080092A86B920008859200081C4B1A6822F4502213
S315080092B81A601A6842F480321A601A689103FCD553
S315080092C8174A520102F18442012111604FF4806263
S315080092D85A60144A116821F0040111606FF07F4141
S315080092E85160116841F0010111600F4A5A60002265
S315080092F8DA621A6842F080721A601A689201FCD516
S315080093080A4A122111605A6842F002025A605A68DB
S3150800931802F00C02082AFAD1704700BF0010024072
S315080093282410020010E000E00004110000200240AA
S3150800933870B53F4C2368002243F00103236062603E
S31508009348236823F0847323F480332360E262236856
S3150800935823F480232360A260E36843F00103E360F3
S31508009368E36823F00103E360A36943F00103A361FB
S31508009378FFF79AFF2F4B304A9A6062B62F4ADA608F
S31508009388A36A43F08053A362A36A23F08053A362B7
S31508009398636943F080536361E36A23F4F873E3620D
S315080093A8E36A43F48073E362BFF34F8F244DAB68D7
S315080093B823F04053AB60AB6842F2107043F0805319
S315080093C8AB6004F0E3FEAB6843F00043AB60AB6800
S315080093D8002BFCDB382004F0D9FEAB68194843F0AB
S315080093E80103AB6005F0E8FF40F201132B63002682
S315080093F8AB684FF47A7043F00403AB6004F0C6FE1A
S315080094082B685B07FCD52B6CB3F5946FF0D3013644
S31508009418642EEDD1A36A43F08053A362A36A23F0AE
S315080094288053A362636923F08053636170BD00BFEC
S315080094380010024000ED00E0009000080003FA055D
S30D0800944800010050ACAA01085E
S31508009450C0B60108002000200023002000230020B9
S315080094603843002081B10008F9CD000825CE000850
S3150800947038B504461D460023C4E900121046237277
S3150800948005F09EFF6068012106F048F820684FF451
S31508009490E13106F08FFC2068294606F0AFFC20680B
S315080094A0294606F0A3FC204638BDF0B585B004462B
S315080094B00391006801AD1E4685E80C00D0E9053227
S315080094C0D21A036AC769DB1B48BF9B18511ECB1A01
S315080094D0321D9A4203D90123237205B0F0BD9DF8C7
S315080094E00C1006F0C0FB2068F1B206F0BCFB9DF834
S315080094F00E10206806F0B7FB9DF80F10206806F0DE
S31508009500B2FB95E80600206805B0BDE8F04006F015
S315080095102BBC2DE9F0470D4686B0694604462868F7
S3150800952081E80C00904606F014FC032881464FF0AB
S31508009530000A05D884F804A0204606B0BDE8F087DE
S3150800954003AB04260493059604AF97E8060028683B
S31508009550CDF80CA006F0D9FB9DF80D3033444B45E9
S31508009560E8D8286806F09EFB013EFAD19DF80D6002
S31508009570019B28689E4228BF1E46CDE9048697E8C7
S31508009580060006F0A1FB9DF80D30B34204D80398F7
S31508009590206001232371CFE7286806F083FB013694
S315080095A0F1E7006806F0CFBB0048704789A10008BC
S315080095B000207047007970470171012070470079D3
S315080095C0704701710120704713B5094B009309498B
S315080095D00223019302AB13E90C00044609680C3018
S315080095E0FFF763FF04480A23C4E9133302B010BD2A
S315080095F0C59D0108209D0108E59C000813B5094B87
S31508009600009309490223019302AB13E90C000446AF
S3150800961009680C30FFF749FF04480A23C4E91333E5
S3150800962002B010BDD79D0108249D01081D9D0008A4
S315080096301FB590F824300C49B3FA83F35B098DF80B
S31508009640043001AB02930123039304AB13E90C0026
S31508009650044609680C30FFF728FF04480A23C4E9C2
S31508009660133304B010BD00BF109D0108559D0008B6
S3150800967013B5094B009309490523019302AB13E976
S315080096800C00044609680C30FFF70FFF04480A234C
S31508009690C4E9133302B010BDE59D0108149D010805
S315080096A0999D00081FB54FF40173ADF8043001AB5E
S315080096B0029308490223039304AB13E90C000446FA
S315080096C009680C30FFF7F1FE03480A23C4E913338F
S315080096D004B010BD0C9D01088D9E000808B54068B1
S315080096E000F0FEF808BD002105F018BF08B540686F
S315080096F000F0F9F808BD000038B5084B03600446C9
S31508009700406D20B9204601F017FA204638BD056895
S315080097100C2101F02DFD2846F3E700BF349D010812
S3150800972010B50446FFF7E8FF20466C2101F020FD3E
S31508009730204610BD08B504220BF006FBB0FA80F0EF
S31508009740400908BD02780B789A420DD142784B78C9
S315080097509A4209D382788B789A4205D1C078CB7819
S31508009760C31A5842584170470020704710B50C1A62
S31508009770134605D00146224618460BF003FB03465E
S31508009780181910BD70B58EB0054601A807F0CEF9B8
S31508009790DDE901641D221D2C4FF0000106A828BF33
S315080097A01D240BF009FB01238DF8143009238DF8CD
S315080097B01730A31C31198DF8153006AA631C3046DC
S315080097C08DF81630FFF7D2FF05AB0849039304342A
S315080097D0234605F10C00039A09680494FFF765FE11
S315080097E003480A23C5E913330EB070BD289D010846
S315080097F0559E00082DE9F0418EB0054601A807F0F0
S3150800980095F9DDE9017805AE4446082C4FF02102AA
S315080098104FF00001304628BF08240BF0CDFA4FF46C
S315080098208173ADF81630234B069303F1F55303F510
S31508009830DE1303F6C453079303F10B5303F53B23D7
S3150800984003F5FF73089303F15543A3F55513A3F6E0
S315080098507E1309934FF67A43ADF82830E7238DF83F
S315080098602A3004F11703B8F1080F8DF8153004F102
S3150800987001038DF82B3007EB04018CBF082309235D
S315080098800DF12D0238468DF82C30FFF76FFF0A4987
S3150800989003961934234605F10C00096804943246E8
S315080098A0FFF703FE05480A23C5E913330EB0BDE8E2
S315080098B0F08100BF0611076C289D01081D9E00084F
S315080098C0064B0E221968884201D198887047013ADA
S315080098D003F10803F6D14FF6FF707047449D01085F
S315080098E08069FFF7EDBFC069FFF7EABF38B50446E0
S315080098F00C200D4601F030FC0346021D95E80300D6
S3150800990082E80300626D1A60636538BD2DE9F0418F
S315080099108CB06B4683E8060090F84630064663B37B
S31508009920142A144628BF142404F1040805AF0D466A
S315080099304246002138460B910BF03EFA96F8453020
S315080099408DF81430B6F84A308DF815301B0A8DF8A4
S3150800995016308DF81740CDF82C802B4606AA2C44D5
S31508009960E11A00290CDC09490B9B096803973A465A
S3150800997006F10C000493FFF798FD0CB0BDE8F081E2
S3150800998013F8011B02F8011BEAE700BFEA9D01086C
S3150800999010B5044621B18369C361012380F83030CC
S315080099A02069FFF7A0FE4FF49673C4E91333014804
S315080099B010BD00BFC99A0008F0B590F84430022BD4
S315080099C095B0044605D0012115B0BDE8F040FFF773
S315080099D0DFBF01A807F0AAF8DDE9017505AE372D46
S315080099E028BF37253C22002130460BF0E5F9B4F8AC
S315080099F04830ADF8143079190DF1190238468DF84A
S31508009A001850FFF7B3FE0849039605352B4604F1AF
S31508009A100C00096804953246FFF747FD03480A23F8
S31508009A20C4E9133315B0F0BD1C9D0108D19D00088B
S31508009A3010B504464C3001F068FB04F1580001F0FB
S31508009A4064FB04F1600001F060FBA36920469847B7
S31508009A50237DA06133B10023237501212046FFF73A
S31508009A6097FFA06110BD000013B5094B0093094983
S31508009A700123019302AB13E90C00044609680C3074
S31508009A80FFF713FD04486423C4E9133302B010BD7D
S31508009A90B89D0108B49D0108419B000810B504460D
S31508009AA00121006905F03AFDE36C43B904F10C00A5
S31508009AB0FFF777FD2046BDE81040FFF7D5BF014800
S31508009AC010BD00BFC99A0008FFF7E8BF2DE9FF419E
S31508009AD00025DFF8608004462F46CDE9027702AEFE
S31508009AE096E80C0004F10C016846FFF712FD9DF894
S31508009AF004304BB1009B029341463046FFF722FEE5
S31508009B00002818BF0546E8E745B194F846200AB18B
S31508009B1084F84630084804B0BDE8F081E36C33B9F0
S31508009B200121204604B0BDE8F041FFF731BF0348E4
S31508009B30F1E700BFB99D0108959B0008419B000805
S31508009B40FFF7C4BF13B50023CDE90033074902ABBD
S31508009B5013E90C00044609680C30FFF7A6FC044814
S31508009B600A23C4E9133302B010BD00BF189D0108CB
S31508009B70D59E000890F82420012A06D890F82C30A3
S31508009B800BB1FFF7DFBFFFF71FBD0148704700BFE6
S31508009B90959B0008FFF7EEBF7FB5C36D8365436EDF
S31508009BA003660023CDE9033380F830308DF814308E
S31508009BB006238DF80D300C238DF80F300949C8237C
S31508009BC08DF8133090F845308DF80C3003AA092328
S31508009BD0096801920C300293FFF767FC024807B048
S31508009BE05DF804FBBD9D0108E1A300082DE9F047D7
S31508009BF096B00E466946DDF87C8081E80C0004467E
S31508009C0017460DF11C0908F1020A53464A4604F1A3
S31508009C100C0103A8CDE9059AFFF77BFC9DF81030E7
S31508009C209DF80D50002B38D09DF80C30202BECD128
S31508009C30012DEAD99DF80E20B3789A42E5D19DF810
S31508009C400F20F3789A42E0D19DF81C309DF81D202C
S31508009C5013430FD1023DB8F1000F12D1019B84F8CE
S31508009C6044505A1004EB6300DB0744BFA358DF597E
S31508009C70B84703E001212046FFF78AFE16B0BDE883
S31508009C80F0870DF11E011E9A454594BF49194144B6
S31508009C900DF11E00FFF76AFDE0E7E36C33B9012119
S31508009CA0204616B0BDE8F047FFF772BEA069E5E7A3
S31508009CB010B586B0094B0493002304461946184686
S31508009CC08DE803000593CDE9023306AB13E90C00D2
S31508009CD003492046FFF78AFF06B010BDFD95000828
S31508009CE0209D0108FFF7E4BF10B586B0094B049321
S31508009CF000230446194618468DE803000593CDE966
S31508009D00023306AB13E90C0003492046FFF76EFF42
S31508009D1006B010BD31960008249D0108FFF7E4BF80
S31508009D2010B586B0094B0493002304461946184615
S31508009D308DE803000593CDE9023306AB13E90C0061
S31508009D4003492046FFF752FF06B010BD719600087A
S31508009D50109D0108FFF7E4BF10B500F1480286B070
S31508009D6000F14A039B1A03930399094B049304468B
S31508009D7010468DE803000023059306AB02920549B9
S31508009D8013E90C002046FFF731FF06B010BD00BFEF
S31508009D90B9990008149D0108FFF7DEBF10B586B013
S31508009DA0094B049300230446194618468DE8030018
S31508009DB00593CDE9023306AB13E90C0003492046A7
S31508009DC0FFF714FF06B010BDF59700081C9D0108A3
S31508009DD0FFF7E4BF30B587B004AD0446284606F061
S31508009DE0A5FE05990A4A0B4B082998BF1346049302
S31508009DF00023194618468DE803000593CDE902337A
S31508009E00054995E80C002046FFF7F0FE07B030BD7F
S31508009E10A596000885970008289D0108FFF7DABF70
S31508009E2010B586B0094B0493002304461946184614
S31508009E308DE803000593CDE9023306AB13E90C0060
S31508009E4003492046FFF7D2FE06B010BDA5960008C6
S31508009E50289D0108FFF7E4BF10B586B0094B0493A7
S31508009E6000230446194618468DE803000593CDE9F4
S31508009E70023306AB13E90C0003492046FFF7B6FE8A
S31508009E8006B010BDA99500080C9D0108FFF7E4BFB0
S31508009E9030B5002587B00446294628468DE80300D4
S31508009EA0094B0493059506AB13E90C00CDE9025559
S31508009EB006492046FFF79AFE054B984208BF84F8E4
S31508009EC02C5007B030BD00BFC9950008189D010881
S31508009ED0E59C0008FFF7DCBFF0B587B004460846E6
S31508009EE0694681E80C0014499DF830609DF8347085
S31508009EF0FFF728FC054668B1009A137A8DF80F30EB
S31508009F00527A17B94EB1FF2A07D084F84530012393
S31508009F1084F84630284607B0F0BD0DF10F030493C8
S31508009F2006490123059306AB13E90C00096804F1F9
S31508009F300C00FFF7BAFAEDE7DD9D0108C19D01089F
S31508009F4013B50446084602A901E90C000749FFF7BC
S31508009F50F1FB48B194F8460030B1009B94F84520CF
S31508009F609B789B1A5842584102B010BDD99D0108EA
S31508009F70F0B595B0044605AF3C26CDE9037603ADAA
S31508009F8095E80C0004F10C0101A8FFF7C2FA9DF848
S31508009F9008309BB1CDE9037601A995E80C00204667
S31508009FA0FFF7CEFF0028E8D02069FFF79CFB4FF4A7
S31508009FB09673C4E91333044815B0F0BDE36C002B5F
S31508009FC0F2D00248F8E700BFC99A0008D19F0008F6
S31508009FD0FFF7CEBF13B500F14503009309490123E6
S31508009FE0019302AB044613E90C0009680C30FFF72D
S31508009FF05CFA32232046C4E9133302B0BDE81040A8
S3150800A000FFF7B6BFC19D010837B50446084602A941
S3150800A01001E90C000B499DF81850FFF78BFB50B16E
S3150800A020009A13794DB113F0010004D0B2F801304B
S3150800A030A4F84A30284603B030BDD84300F00100E2
S3150800A040F9E700BFE19D010813B50446084602A9D1
S3150800A05001E90C000549FFF76DFB20B1009B1B8841
S3150800A0600BB1A4F8683002B010BD00BFD39D01083B
S3150800A070F0B587B005460846694681E80C001949D7
S3150800A0809DF83070FFF75EFB0446D8B1009B164971
S3150800A0901E7805F10C0003AA04ABB7B195F8467013
S3150800A0A09FB195F84550B5420FD104920222059208
S3150800A0B001240CCB09688DF80D408DF80C50FFF77C
S3150800A0C0F4F93C46204607B0F0BD049202220592F8
S3150800A0D000250CCB09688DF80D508DF80C60FFF73C
S3150800A0E0E4F9EFE7CF9D0108CB9D0108F0B590F89C
S3150800A0F02C3097B0044653BB90F82430023B012B12
S3150800A10025D907AF3C26CDE9057605AD95E80C00BF
S3150800A11004F10C0103A8FFF7FCF99DF8103053B3BE
S3150800A12094F82430B3FA83F35B09CDE905760193F5
S3150800A1300123009395E80C0003A92046FFF7CCFEFF
S3150800A14078B14FF4FA73C4E913330C4807E0206971
S3150800A150FFF7C9FA4FF49673C4E91333084817B0E2
S3150800A160F0BDCDE90576009095E80C0003A92046D8
S3150800A170FFF77EFFC7E70348F1E700BF49A20008DB
S3150800A180C99A000889A10008FFF7B0BF2DE9F04178
S3150800A19090F82430032B96B0044624D0C36C13B32E
S3150800A1A007AF3C26CDE9057605AD95E80C0004F128
S3150800A1B00C0103A8FFF7ADF99DF81030002B3FD02E
S3150800A1C0CDE905764FF00108CDF8008095E80C003A
S3150800A1D003A92046FFF718FF68B12046FFF7DCFC05
S3150800A1E016B0BDE8F081A369E361204616B0BDE864
S3150800A1F0F041FFF7EFBECDE9057603A995E80C0017
S3150800A2002046FFF79DFE20B141462046FFF7C0FBDA
S3150800A210E6E7CDE9000003A995E80C002046FFF71C
S3150800A2205BFE94F82430CDE90576B3FA83F35B092F
S3150800A230009395E80C0003A92046FFF719FFB1E73C
S3150800A2400048CDE749A20008FFF7A0BFF0B585B0E2
S3150800A2500F46694681E80C00054612493846FFF75D
S3150800A26071FA064688B1009C95F8453022789A42DC
S3150800A2700BD123794BB963793BB97B78A279073B34
S3150800A2809A4202D16D6DE71D15B9304605B0F0BD8D
S3150800A290A379281DCDE9027302A96B6898472D6832
S3150800A2A0F2E700BFC79D01082DE9F04790F8243072
S3150800A2B0032B96B0044604D116B0BDE8F047FFF765
S3150800A2C089BE836D00F10C0807AE53B9CDE9073393
S3150800A2D03F4996E80C0009684046FFF7E6F8E36D43
S3150800A2E0A365DFF8F09005AD3C270596069795E837
S3150800A2F00C00414603A8FFF70CF99DF81030002B17
S3150800A3005ED0CDE9056703A995E80C002046FFF75E
S3150800A31017FE824650B12069FFF7E5F94FF49673A8
S3150800A320C4E913332C4816B0BDE8F08795E80C004D
S3150800A33003A92046FFF78AFFCDE90567CDE900AAFC
S3150800A34003A995E80C002046FFF7C6FD94F82430CB
S3150800A350CDE90567B3FA83F35B09009395E80C002A
S3150800A36003A92046FFF784FECDE9056703A995E80A
S3150800A3700C002046FFF768FE18B1E36DA365636E0F
S3150800A38023663C23069300230596009395E80C0064
S3150800A39003A92046FFF738FE18B12046FFF71AFE34
S3150800A3A0C1E7494603A8FFF7CDF900289CD09DF8D8
S3150800A3B01C309DF81D20134396D1636E236693E7E0
S3150800A3C0236E0BB10548AEE7A369E361E5E700BF75
S3150800A3D0049D0108089D0108C99A0008E1A3000820
S3150800A3E0FFF762BF70B504460D46164600F0ACFB93
S3150800A3F020461B4B40F80C3B324629460123FFF703
S3150800A40037F8184A2262184AA262184A2069C4E92B
S3150800A4100D24174A0023C4E90F241922C4E9172377
S3150800A4203322C4E90633C4E91233C4E9143384F881
S3150800A430243084F82C3084F8303084F8443084F89A
S3150800A4404630A365A4F868306266FFF74CF94FF406
S3150800A4509673C4E91333074BA361204670BD00BF4A
S3150800A460349D0108CC9C0108DC9C0108EC9C010881
S3150800A470FC9C0108C99A000810B5054B044640F82B
S3150800A480103B00F0C5FE204600F056FB204610BDE6
S3150800A490409E010810B50446FFF7EEFF20462C2122
S3150800A4A000F066FE204610BDC368103093F83010E1
S3150800A4B000F086BE38B508461C464AB91B681D69B1
S3150800A4C00B681B68984701462046A847012038BDF7
S3150800A4D00020FCE713B50C46184662B91B680DF157
S3150800A4E006011B6998472368BDF806105B68204675
S3150800A4F0984702B010BD0020FBE738B508461C4651
S3150800A5004AB91B681D680B681B68984701462046B0
S3150800A510A847012038BD0020FCE713B50C461846AD
S3150800A52062B91B680DF107011B68984723689DF8F7
S3150800A53007105B682046984702B010BD0020FBE76D
S3150800A54038B508461C464AB91B689D680B681B68DF
S3150800A550984701462046A847012038BD0020FCE759
S3150800A56013B50C46184662B91B680DF107019B68BE
S3150800A570984723689DF807105B682046984702B0FD
S3150800A58010BD0020FBE7000070B505460C4600F03C
S3150800A590DBFA184B2B601849EC60012205F1100014
S3150800A5A000F01CFE102000F0D7FD04F12002134B2A
S3150800A5B01349144E01F0F2FD102000F0CDFD04F110
S3150800A5C02802114B114901F0E9FD102000F0C4FDE5
S3150800A5D0334604F134020E4901F0E0FD102000F084
S3150800A5E0BBFD0C49334604F13C0201F0D7FD284671
S3150800A5F070BD00BF409E01080AAB0108349E0108E1
S3150800A600E8B001082C9E0108309E010820AF010819
S3150800A61088AE0108E8AF010813B5012204460146D1
S3150800A6200DF107000AF0A0FB01220DF107012046F3
S3150800A6300AF09AFB02B010BD13B502220446014681
S3150800A6400DF106000AF090FBBDF8063002225BBA4F
S3150800A6500DF106012046ADF806300AF085FB02B07A
S3150800A66010BD70B50D4616460446102000F074FD60
S3150800A67033462A462146BDE8704001F08FBD0000EA
S3150800A6802DE9F041154E05460C463246006801F59F
S3150800A6900561FFF7E6FFA868324604F65C01FFF796
S3150800A6A0E0FF324604F6640168680D4EFFF7D9FFED
S3150800A6B02F69102000F050FD334604F66C02394627
S3150800A6C001F06CFDED68102000F046FD334604F6F7
S3150800A6D074022946BDE8F04101F060BD2C9E0108D0
S3150800A6E0349E010830B5044640F2D2450120904018
S3150800A6F0AB4200F1FF3017D041F2E105AB4221D160
S3150800A700A568E368C1F140018A1A2DBA1BBAC2F1DD
S3150800A7102004A2F12001D34005FA04F4234325FAC4
S3150800A72001F10B43184030BDD4E90235C1F12004CC
S3150800A730A1F12002CB4005FA04F4234325FA02F2DC
S3150800A7401343EFE70020EEE743689A6810B5541CF8
S3150800A7509C601B68995410BD73B54468A368266845
S3150800A76022691E4441F2E1039A42054618D18DF842
S3150800A770061001220DF106010DF107000AF0F4FAA0
S3150800A7800DF10700FFF748FF01220DF107013046DA
S3150800A7900AF0EAFAA36828460133A36002B070BD3E
S3150800A7A08DF80710F0E773B54468A3682668226930
S3150800A7B01E4441F2E1039A42054618D18DF8061067
S3150800A7C001220DF106010DF107000AF0CDFA0DF18F
S3150800A7D00700FFF721FF01220DF1070130460AF0B5
S3150800A7E0C3FAA36828460133A36002B070BD8DF88A
S3150800A7F00710F0E773B544682368A2680E469918EF
S3150800A800226941F2E1039A4205464FF001020AD154
S3150800A8100DF106000AF0A8FA0DF10600FFF7FCFE96
S3150800A82001220DF106010DF107000AF09DFAA36851
S3150800A8309DF9072001332846A360327002B070BD27
S3150800A84073B544682368A2680E469918226941F2CE
S3150800A850E1039A4205464FF001020AD10DF10600BE
S3150800A8600AF082FA0DF10600FFF7D6FE01220DF175
S3150800A87006010DF107000AF077FAA3689DF807208C
S3150800A88001332846A360327002B070BD73B54468C0
S3150800A8902368A2680E469918226941F2E1039A4292
S3150800A8A005464FF001020AD10DF106000AF05CFADE
S3150800A8B00DF10600FFF7B0FE01220DF106010DF1BC
S3150800A8C007000AF051FAA3689DF8072001332846C5
S3150800A8D0A360327002B070BD73B54468A368266879
S3150800A8E022691E4441F2E1039A42054617D1ADF8A2
S3150800A8F00410022201A90DF106000AF035FA0DF13D
S3150800A9000600FFF799FE02220DF1060130460AF00D
S3150800A9102BFAA36828460233A36002B070BDADF8CF
S3150800A9200610F0E773B54468A368266822691E44D2
S3150800A93041F2E1039A42054617D1ADF80410022206
S3150800A94001A90DF106000AF00FFA0DF10600FFF74E
S3150800A95073FE02220DF1060130460AF005FAA368D5
S3150800A96028460233A36002B070BDADF80610F0E7C2
S3150800A97073B544682368A2680E469918226941F29D
S3150800A980E1039A4205464FF0020207D101A80AF0F0
S3150800A990EBF901A8FFF750FE022201A90DF1060006
S3150800A9A00AF0E2F9A368BDF8062002332846A36038
S3150800A9B0328002B070BD73B544682368A2680E463B
S3150800A9C09918226941F2E1039A4205464FF00202BC
S3150800A9D007D101A80AF0C8F901A8FFF72DFE02223F
S3150800A9E001A90DF106000AF0BFF9A368BDF9062012
S3150800A9F002332846A360328002B070BD13B5042224
S3150800AA00044601460DEB02000AF0AEF9019B04224A
S3150800AA101BBA0DEB0201204601930AF0A5F902B014
S3150800AA2010BD73B54468A368266822691E4441F2BE
S3150800AA30E1039A42054615D1042200910DEB020066
S3150800AA4069460AF091F901A8FFF7D8FF04220DEB31
S3150800AA50020130460AF088F9A36828460433A36041
S3150800AA6002B070BD0191F1E773B54468A368266822
S3150800AA7022691E4441F2E1039A42054615D1042291
S3150800AA8000910DEB020069460AF06EF901A8FFF77E
S3150800AA90B5FF04220DEB020130460AF065F9A368FA
S3150800AAA028460433A36002B070BD0191F1E773B57F
S3150800AAB044682368A2680E469918226941F2E103A0
S3150800AAC09A4205464FF0040207D168460AF04CF947
S3150800AAD06846FFF793FF042269460DEB02000AF069
S3150800AAE043F9A368019A04332846A360326002B08A
S3150800AAF070BD73B544682368A2680E469918226922
S3150800AB0041F2E1039A4205464FF0040207D168462E
S3150800AB100AF02AF96846FFF771FF042269460DEB29
S3150800AB2002000AF021F9A368019A04332846A360B3
S3150800AB30326002B070BD7047704710B50C210446EC
S3150800AB4000F016FB204610BD024A02600022C0E94A
S3150800AB5001227047A09E010838B5054655F8104FE2
S3150800AB60A54200D138BD54F8043C201F1B689847FD
S3150800AB702468F5E738B5044654F8105FA54200D1B5
S3150800AB8038BD55F8043C281F5B6898472D68F5E7DB
S3150800AB9010B50446FFF7D8FF044B23600023E36093
S3150800ABA004F11003C4E90433204610BDB89E010819
S3150800ABB043698B6010B50A1D00F110044C604261B0
S3150800ABC01A60C3680133C36010BDF8B5054604466C
S3150800ABD055F8100F0026854203D1C4E90455E660EE
S3150800ABE0F8BD50F8042C0768D268C0E90066043836
S3150800ABF090473846EFE7000010B50446FFF7C8FF50
S3150800AC00014B2360204610BDD09E010810B50346AF
S3150800AC10002153F8042F934203D1C0E901330160A0
S3150800AC2010BD1468C2E900112246F4E710B5054BB9
S3150800AC30044640F80C3BFFF7E9FF2046FFF77CFF88
S3150800AC40204610BDB89E010810B50446FFF7EEFF72
S3150800AC502046182100F08CFA204610BD10B5054B89
S3150800AC60044640F80C3BFFF7D1FF2046FFF7DEFF0E
S3150800AC70204610BDD09E010810B50446FFF7EEFF2A
S3150800AC802046182100F074FA204610BD80687047E7
S3150800AC900B6808469B6818474368585C704700204D
S3150800ACA0704743681868704700207047F8B51D4616
S3150800ACB00B6808469B6816460C469847B0420BD95F
S3150800ACC02B689F68236831461B68204698470146CB
S3150800ACD02846B8470120F8BD0020FCE773B51E4694
S3150800ACE00B6808469B6815460C469847A8420ED935
S3150800ACF033680DF107019B683046984723689DF82D
S3150800AD0007205B6829462046984702B070BD002098
S3150800AD10FBE738B508461C464AB91B689D690B68A7
S3150800AD201B68984701462046A847012038BD0020E1
S3150800AD30FCE713B50C46184652B91B6801A99B696E
S3150800AD409847236801995B682046984702B010BD6A
S3150800AD500020FBE770B50D4616460446102000F0A5
S3150800AD60FBF933462A462146BDE8704001F016BA7B
S3150800AD7030B585B0044600F0FFF9284D25600C3043
S3150800AD80606000F0F9F90830A560E06000F0F4F9B9
S3150800AD90C4E9045000F0F0F90430A561E0616846A2
S3150800ADA000F064F8009B1E4D6362019BA36202A833
S3150800ADB0256200F065F8029B2363039B6363194AC7
S3150800ADC01948E5622146FFF7C5FF164A174804F1F8
S3150800ADD00801FFF7BFFF134A154804F11001FFF7F2
S3150800ADE0B9FF104A134804F11801FFF7B3FF102002
S3150800ADF000F0B2F9104B114904F1200201F0CEF926
S3150800AE00636B43B1102000F0A7F90B4B0C4904F112
S3150800AE102C0201F0C3F9204605B030BDE89E0108B2
S3150800AE20F89E0108309F010858AF010860AF010875
S3150800AE3068B0010848B001082C9F010808B001084D
S3150800AE4090B001087047007820F02003413B052B9D
S3150800AE500AD9A0F13003092B06D9A0F12B035842D1
S3150800AE60584180F0010070470120FAE7034A03467B
S3150800AE7092E8030083E8030018467047349F0108E8
S3150800AE80224970B5044602260D460846FFF7DBFF41
S3150800AE90002839D14A1C1046FFF7D5FFD0B98A1CBD
S3150800AEA01046FFF7D0FFA8B9CA1C1046FFF7CBFF1C
S3150800AEB080B9012E01F1040216D1154B9B1A022BFB
S3150800AEC01BD0032B13D0012B03D11046FFF7BBFF72
S3150800AED000B90F4A521B062AD6BF0023C4E90052FE
S3150800AEE0C4E90033204670BD01261146CDE7104659
S3150800AEF0FFF7A9FF0028EDD14A1D1046FFF7A3FF6B
S3150800AF000028E7D10132E0E70A46E3E788010008AE
S3150800AF10900100084368003B18BF01230B70704777
S3150800AF2043680B70704743680B70704743680B8023
S3150800AF30704743680B80704743680B6070474368E7
S3150800AF400B6070470122416002727047012241601E
S3150800AF500272704701224160027270470122416005
S3150800AF6002727047012241600272704701224160F5
S3150800AF70027270470122416002727047704708B535
S3150800AF8003F09CF8027843781AB11B0183F3118801
S3150800AF9070470BB162B6704772B6704701207047AA
S3150800AFA011B94368036070470023FBE709B100F055
S3150800AFB0ACB84268026070474368184713B5044640
S3150800AFC040F8041BFFF718FE04F11C00FFF714FEF7
S3150800AFD020680023A36384F83430E36303694FF4DD
S3150800AFE07A715B6810309847044B20686946CDE94A
S3150800AFF0003404F08FFB204602B010BD33B00008C1
S3150800B00038B5836B01338363044600688369183057
S3150800B0101B68984794F83430054613B1201DFFF78E
S3150800B020A9FD2068836918301B689847401BE063B0
S3150800B03038BD4068FFF7E4BF38B590F834300446A9
S3150800B0408BB9043004F11C05FFF786FD2846FFF787
S3150800B05083FD012384F834302846FFF78BFD94F8E6
S3150800B0603430002BF8D138BD37B505460446094BB0
S3150800B07055F81C0B00936946074B019304F04AFBED
S3150800B0802846FFF7EBFD201DFFF7E8FD204603B035
S3150800B09030BD00BFB9AF00087DAF00084268013275
S3150800B0A04260704742680132426070474268023225
S3150800B0B04260704742680232426070474268043212
S3150800B0C04260704742680432426070474268013203
S3150800B0D042607047024A026000224260704700BF21
S3150800B0E08C9F01087047436833B1026864214A435C
S3150800B0F0B2FBF3F398B270471846704708B5FFF7E6
S3150800B100F2FFC0F1640080B208BD03680BB1013BD1
S3150800B110036070477047FEE708B509F00FFE58232D
S3150800B12003604FF0FF3008BD094A1168013110B5B8
S3150800B130116041070749034618BF20F0070308684E
S3150800B14018BF0833C4180C6091681944916010BD83
S3150800B1500423002000200020FFF7E6BFFFF7E4BF26
S3150800B160024A536801335360704700BF0423002026
S3150800B170FFF7F6BFFFF7F4BF004870470423002027
S3150800B180024B0349034A5B1AD3607047C07F00200D
S3150800B1903843002004230020FEE75B1A10B5044656
S3150800B1A0084607D0121B05D00299091B594391FB83
S3150800B1B0F2F1084410BD40687047416001207047AD
S3150800B1C0037B2BB921B143697E2B9CBF01334361B5
S3150800B1D001737047002343610373704710B5094B29
S3150800B1E00271094A83600023C0E904230373074BED
S3150800B1F001600446186808F01CFD214600F0A1FC11
S3150800B200204610BDDC9C0108B09F010800230020E1
S3150800B21010B5054B0446186808F00BFD214600F0EA
S3150800B22063FC204610BD00BF0023002003685B684E
S3150800B2301868704703680BB9184670475A68107B38
S3150800B2400028FAD11B68F6E70368002003B970479F
S3150800B2505A681B6852691044F8E710B5046804B9BF
S3150800B26010BD6068FFF7B6FF2468F8E710B5024618
S3150800B270002013461A461B6863B15C688C42F9D1F4
S3150800B2801C68146018601846F3E704680821FFF77D
S3150800B2906FFF20460028F8D110BD38B504460820AF
S3150800B2A00D46FFF759FF2B6843602368036020604B
S3150800B2B038BD13B500230191036001A90446FFF7C1
S3150800B2C0ECFF204602B010BD07B5019101A9FFF7B2
S3150800B2D0E4FF03B05DF804FB10B50446806A036812
S3150800B2E01B689847014604F10C00BDE81040FFF7BB
S3150800B2F067BF000010B5054B044640F80C3BFFF746
S3150800B30087FF2046FFF718FC204610BDC09F01089E
S3150800B31010B50446FFF7EEFF20462C21FFF728FF5D
S3150800B320204610BD70B504460D461646FFF70CFCC0
S3150800B3302046054B40F80C3B2A792968FFF74EFF53
S3150800B340A662204670BD00BFC09F01080B6808466C
S3150800B3509B6818470B6808469B6818470B68084699
S3150800B3609B681847F8B51D460B6808469B6816463D
S3150800B3700C469847B0420BD92B681F68236831469C
S3150800B3801B682046984701462846B8470120F8BD5D
S3150800B3900020FCE773B51E460B6808469B681546F1
S3150800B3A00C469847A8420ED933680DF107011B6869
S3150800B3B03046984723689DF807205B68294620464B
S3150800B3C0984702B070BD0020FBE7F8B51D460B682C
S3150800B3D008469B6816460C469847B0420BD92B6818
S3150800B3E01F69236831461B68204698470146284648
S3150800B3F0B8470120F8BD0020FCE773B51E460B6868
S3150800B40008469B6815460C469847A8420ED93368E5
S3150800B4100DF106011B69304698472368BDF80620DA
S3150800B4205B6829462046984702B070BD0020FBE7B6
S3150800B430F8B51D460B6808469B6816460C4698479D
S3150800B440B0420BD92B689F69236831461B68204692
S3150800B450984701462846B8470120F8BD0020FCE772
S3150800B46073B51E460B6808469B6815460C469847F2
S3150800B470A8420CD9336801A99B69304698472368C6
S3150800B480019A5B6829462046984702B070BD00209D
S3150800B490FBE770B50D46164604461020FFF75CFE1E
S3150800B4A033462A462146BDE8704000F077BE70B59F
S3150800B4B00D46164604461020FFF74EFE33462A462A
S3150800B4C02146BDE8704000F069BE000070B5234E05
S3150800B4D005460C4600F0EEF8324629462048FFF7A6
S3150800B4E0E6FF1020FFF738FE1E4B1F4904F50A72C7
S3150800B4F000F054FE324604F50C711C48FFF7D7FFDE
S3150800B50032461B4E1B4804F50E71FFF7D0FF324634
S3150800B51004F514711848FFF7BCFF324604F51B7191
S3150800B5201648FFF7B6FF1020FFF716FE144B15490D
S3150800B53004F51E7200F032FE324604F520711248F8
S3150800B540FFF7A7FF1020FFF707FE104B104904F579
S3150800B550227200F023FE284670BD00BF309F010806
S3150800B56008AF0108309E0108F0B00108C0AE010816
S3150800B57014A0010800AF010880AF0108B8AF0108A0
S3150800B58010A00108E0B00108D8B001080CA0010815
S3150800B590F8B001087047000038B504460D46FFF7B5
S3150800B5A0D3FA2046034B40F80C3B294600F048F8EE
S3150800B5B0204638BD20A0010810B5054B044640F8C2
S3150800B5C00C3BFFF725FE2046FFF7B6FA204610BDCE
S3150800B5D020A001080068B0FA80F0400970470020F2
S3150800B5E0704708B54068FFF7F5FF08BD10B5044673
S3150800B5F01C30FFF7DBFCE169B1FA81F12046490905
S3150800B600BDE81040FFF7DCBD10B50446FFF7E2FDC4
S3150800B61004F11C000021BDE81040FFF7C1BC000082
S3150800B62038B504461D46FFF7D9FD044B636204F19D
S3150800B6301C03C4E90755A362204638BD38A0010893
S3150800B64038B50D460A7909680446FFF7C7FDAB68A1
S3150800B650C4E90733034B636204F11C03A362204663
S3150800B66038BD00BF38A00108436824338360012031
S3150800B670704738B504466368A56803F12402D3F811
S3150800B680243202EB83039D4202D1A26000200FE020
S3150800B6902B1DA3602846FFF7D7FD0028EBD02846C8
S3150800B6A0FFF7C4FD04882846FFF7C4FD44EAC070C6
S3150800B6B038BD0000024AC0E9002124318160704784
S3150800B6C048A00108D0F824027047002070470020DF
S3150800B6D0704700207047436853F821007047806818
S3150800B6E070474068704708B5243000EB8100FFF7C3
S3150800B6F09DFD008808BD243000EB8100FFF79ABD48
S3150800B700243000EB8100FFF79FBD000010B5054B04
S3150800B71003600446FFF759FA2046FFF787FA2046E2
S3150800B72010BD00BF58A0010810B50446FFF7EEFF8C
S3150800B73020461821FFF71CFD204610BD08B54068B5
S3150800B740FFF7D1FF08BD08B54068FFF7D9FF08BD68
S3150800B75008B54068FFF7B6FF08BD08B54068FFF7AB
S3150800B760CAFF08BD70B5044600680D4620B92060BA
S3150800B7702B682360286070BD06680821FFF7F8FC6F
S3150800B7803046F3E7884204D0B4BF4FF0FF300120BB
S3150800B79070470020704708B54068FFF793FF08BD5B
S3150800B7A008B54068FFF78EFF08BD10B510460C4671
S3150800B7B0FFF73CFD01882088FFF7E4FFC0F3C010BF
S3150800B7C010BD10B508461446FFF730FD21880088DD
S3150800B7D0FFF7D8FFC0F3C01010BD38B508461546A8
S3150800B7E0FFF724FD04462846FFF720FD0188208838
S3150800B7F0FFF7C8FFC0F3C01038BD38B5D0F82452DB
S3150800B80000F1240404EB8505A54200D138BD204685
S3150800B810FFF723FD0434F7E710B50446FFF7EDFFFD
S3150800B82004F10C00BDE81040FFF796B92DE9F8437E
S3150800B83004460C30FFF79EF994F82C322BB10023FE
S3150800B84084F82C322046FFF7D8FF04F5107104F56A
S3150800B8501470431A002B06DD03F5107323440A46B9
S3150800B86000259A4221D104F5177504F51B777B1B31
S3150800B870002B06DD03F5177323442A4600269A4251
S3150800B88016D1D4F8242204F1240303EB820E73455F
S3150800B89011D1002388422ED1C4F834320023AF4296
S3150800B8A02DD1C4F83C32BDE8F88342F8045BD8E7EA
S3150800B8B042F8046BE3E753F804CBBCF1000FE6D07B
S3150800B8C0DCF8048098F80C6098F8042036B104EB8C
S3150800B8D08209D9F840620136C9F84062D8F814607E
S3150800B8E036B104EB8202D2F85C620136C2F85C62B9
S3150800B8F0DCF800C0E1E751F8042B1344CAE755F811
S3150800B900042B1344CBE700002DE9F0410446FFF76A
S3150800B9101BF92346204A43F80C2B00211822184607
S3150800B92009F04AFAFFF734F91C4BE3601C4BC4F8DC
S3150800B93028321C4BC4F830320025C4E98E354FF046
S3150800B940100804F5107342462946C4F8245284F8B0
S3150800B9502C52C4F83452184609F02EFA124F04F540
S3150800B96017730426C4E99470C4F8586242462946F7
S3150800B970184609F021FA0D4BC4F87462C4E99E34DE
S3150800B9800B4BC4E9A0340B4BC4E99B70C4E9A23441
S3150800B9902046BDE8F08100BFD0A0010858A00108E4
S3150800B9A0DC9C010870A0010880A0010894A0010889
S3150800B9B0A8A00108BCA001082DE9F047D1F800426B
S3150800B9C006460D46904644F31D040F4684B9D5F83D
S3150800B9D00042376005EB8404BC4206D03A4641462D
S3150800B9E02846FFF7E2FE00B134603046BDE8F0872E
S3150800B9F04FEA540907EB890A424651462846FFF79B
S3150800BA00E0FE28B1013C0AF10407A4EB0904DDE7CE
S3150800BA104C46DBE72DE9F84FD1F80052002301EB3D
S3150800BA20850A07460C4690460360037145F31D05D3
S3150800BA300E464DB9B24519D1D4F800220123802A01
S3150800BA403B711FD109F06CF94FEA550B06EB8B09D0
S3150800BA50424649462046FFF7C0FE28B1013D09F196
S3150800BA600406A5EB0B05E4E75D46E2E732464146E8
S3150800BA702046FFF7B2FE0028DED13D713E6038460B
S3150800BA80BDE8F88F04EB8203B34202F101004FF0E0
S3150800BA90000107D1D8F800303360C8F80010C4F8A0
S3150800BAA00002EBE753F804CC44F822C043F8041C20
S3150800BAB01D1FC4F80002B54204D141463046FFF7BF
S3150800BAC051FEDBE7043D2946281DFFF74BFEF2E74A
S3150800BAD038B50446006808B9204638BD0568082107
S3150800BAE0FFF746FB2846F6E773B500F12406054638
S3150800BAF00A6801A80C463146FFF75EFFD5F82432DE
S3150800BB00019806EB8303984214D02146FFF7AEFB53
S3150800BB10019C236873B9D5F8243206EB83060434EE
S3150800BB20A64209D1301FFFF7D3FFD5F82432013BCF
S3150800BB30C5F8243202B070BD2146201FFFF712FE59
S3150800BB40EDE77FB500F1240605460A680C46684607
S3150800BB503146FFF731FFD5F82432009806EB830308
S3150800BB609842214603D0FFF7AFFB04B070BD01A889
S3150800BB70FFF79FFB02A801AA3146FFF74BFF01A872
S3150800BB80FFF7A6FFF1E7000070B505460A4B45F832
S3150800BB90243BD0F82462044646B904F10C00FFF7AA
S3150800BBA0B5FD2046FEF7C8FF204670BD2846FFF7BC
S3150800BBB08FFF013E0435EFE7D0A0010810B5044613
S3150800BBC0FFF7E2FF20464FF42471FFF7D1FA20462B
S3150800BBD010BDB0F904007047002070470020704778
S3150800BBE010B504460846636811462278FEF77AFDC2
S3150800BBF0237A2BB122780123013A93405840C01A80
S3150800BC0010BDF0B585B004AB054603E903002C4624
S3150800BC1000EBC10041F31C03002B05DC844211D163
S3150800BC2054F8040C05B0F0BD591004EBC10654F8DD
S3150800BC3031709742DEBF591A01F1FF3106F1080447
S3150800BC400B46E9E7A5426068ECD00092034654E942
S3150800BC50011254F8080CFFF7A0FAE3E773B5044697
S3150800BC60D1E9053003EBC00083421D4607D10B69B5
S3150800BC70012B0CD800232046237102B070BD53F85F
S3150800BC80086B9642F0D16B6823600123F3E7C96815
S3150800BC90CDE9001303F10053013B51F8333009682D
S3150800BCA08A42E7DB9A42E5DC02AB13E90300FFF7B9
S3150800BCB0A8FF2060E9E738B50D4604461146284630
S3150800BCC01A46FFF78DFF294602462046FFF7C6FFAC
S3150800BCD0204638BD4161704737B504460D461830D1
S3150800BCE00021FFF783FC21692A460B7D896968468E
S3150800BCF0FFF7E1FF94F860309DF8045004F1440022
S3150800BD0063B985F00101FFF75BFA4DB12368009925
S3150800BD101B69204603B0BDE8304018470021F2E70A
S3150800BD2003B030BD13B50C4B0C4A0360C368CDE9AC
S3150800BD30002004466946D86803F00FF904F1440068
S3150800BD40FFF766FA04F11800FFF762FA2046FEF7D5
S3150800BD50F3FE204602B010BDF8A00108A7BD0008F2
S3150800BD6010B50446FFF7DEFF20466421FFF700FA08
S3150800BD70204610BD10B590F8603004461BB1013B53
S3150800BD8080F8603010BD03695B7B002BFAD0012177
S3150800BD901830FFF72BFC94F82430002BF2D02369D7
S3150800BDA01B696361EEE74068FFF796BF73B5044603
S3150800BDB015460E46FEF7C8FE104B23602B69AA7B74
S3150800BDC0A9686361C4E903656B7B04F11800FFF792
S3150800BDD027FCAA7B696804F14400FFF7FFF92B7B6F
S3150800BDE084F86030064BE068CDE900346946D5E949
S3150800BDF0072302F08AFA204602B070BDF8A00108AF
S3150800BE00A7BD00080079704710B5034B03600446C8
S3150800BE10FFF7D2FB204610BD24A1010810B5044641
S3150800BE20FFF7F2FF20464021FFF7A2F9204610BD92
S3150800BE3010B5034B03600446FFF7BEFB204610BD52
S3150800BE403CA1010810B50446FFF7F2FF2046402141
S3150800BE50FFF78EF9204610BD10B50446806B0368BF
S3150800BE601B689847B4F93C108142A8BF002104F129
S3150800BE700C00B8BF0121BDE81040FFF7B7BB10B5ED
S3150800BE800446806B03681B689847B4F93C108142E6
S3150800BE90D8BF002104F10C00C8BF0121BDE810403D
S3150800BEA0FFF7A4BB2DE9F0410546402035F9048B80
S3150800BEB00E461746FFF750F929460446FFF76CFB6E
S3150800BEC0054B2360A763A4F83C80214606F10C00C5
S3150800BED0BDE8F041FEF76CBE24A101082DE9F0414A
S3150800BEE00546402035F9048B0E461746FFF734F908
S3150800BEF029460446FFF750FB054B2360A763A4F8C1
S3150800BF003C80214606F10C00BDE8F041FEF750BE24
S3150800BF103CA101082DE9F0410546402035F9048B7E
S3150800BF200E461746FFF718F929460446FFF734FB6D
S3150800BF30054B2360A763A4F83C80214606F10C0054
S3150800BF40BDE8F041FEF734BE3CA1010838B50A4603
S3150800BF5004460D4601460748FFF7A4FF2A46214630
S3150800BF600548FFF79FFF2A4621460448BDE83840A2
S3150800BF70FFF7B4BF6CA101087CA101085CA1010808
S3150800BF800A4601460148FFF7C5BF00BF4CA1010894
S3150800BF9080887047C3888B4205D803898B4202D3B1
S3150800BFA08180012070470020704710B50446C0689C
S3150800BFB003681B6898472369218B1A684143BDE8C3
S3150800BFC0104032205268B1FBF0F1184610470000C5
S3150800BFD010B5034B03600446FEF7AEFD204610BDC0
S3150800BFE0A4A1010810B50446FFF7F2FF2046202158
S3150800BFF0FFF7BEF8204610BDF8B504460D461746AD
S3150800C0001E46FEF7A1FD0C4BA9882A8823600B481B
S3150800C0106B88AD68606121836283A383C4E9037674
S3150800C0201020FFF799F8064B04F11402294600F090
S3150800C030B5F82046F8BD00BFA4A1010894A10108DF
S3150800C0402C9E0108064B10B5186807F0EAFDD0F8D3
S3150800C0501032BDE810401B6800F50470184700BF91
S3150800C06000230020034680685968026892681047D2
S3150800C07010B5054B0446186807F0D3FD2146BDE800
S3150800C080104000F008B900BF0023002010B504686E
S3150800C090FFF7D8FF0444A07810BD2DE9F041044607
S3150800C0A00E461546FFF7F2FF48B1A06861680368B7
S3150800C0B01F682A463346BC46BDE8F0416047BDE8DE
S3150800C0C0F081000030B5002385B00446CDE902337F
S3150800C0D00846064B019301A902ADFFF7DEFF95E876
S3150800C0E0030084E80300204605B030BD689F0108B8
S3150800C0F013B504466846FEF7EDFF0022694620465A
S3150800C100FFF7CBFF6846019CFEF7ECFF204602B01E
S3150800C11010BD38B50546FFF7A5FF04462846FFF7C4
S3150800C120E7FF604338BD10B50468FFF78BFF04448A
S3150800C130207910BD2DE9F04104460E461546FFF755
S3150800C140F2FF48B1A068616803685F682A4633460B
S3150800C150BC46BDE8F0416047BDE8F08103689B79BD
S3150800C1600BB1FFF7E0BF18467047000037B50A4B1A
S3150800C170CDE900320A4669460446FFF7DBFF054665
S3150800C18038B12046FFF7EAFF18B1A38901339BB2FD
S3150800C190A381284603B030BD449F010813B58360C8
S3150800C1A000238381C381094BC0E90012044618683D
S3150800C1B007F037FD01A9019400F0FAF9019810B1CA
S3150800C1C01021FEF7D5FF204602B010BD002300203F
S3150800C1D0704710B5044600F5067004F05AFFD4F807
S3150800C1E0383620469847C4F8380610BD05F0B2B868
S3150800C1F00B681B68198813681B681B88994204D04A
S3150800C20005DA4FF0FF30C00F70470020FBE701202A
S3150800C210F9E700F10C03D0F80C0270B503EB8004C3
S3150800C22040F31D0040B99C4205D0186803681B8876
S3150800C2308B4288BF002070BD420803EB820553F885
S3150800C2402260366836888E423DBF00F1FF302B1DCE
S3150800C250801A1046E6E7B0F84026B0F8423692B2A1
S3150800C2609BB29A420AD1B0F84426B0F8463692B242
S3150800C2709BB29A4202D190F848067047012070474F
S3150800C28010B504462046FFF7E6FF00B910BD204664
S3150800C290FFF79FFFF6E700F5067005F0AFB8D0F890
S3150800C2A00C3270B500F10C05044605EB8306B54261
S3150800C2B000D170BD55F8041B2046FFF7ECFFF6E7E2
S3150800C2C010B5044600F5067005F00CF840B1B4F850
S3150800C2D0443601339BB2A4F84436012384F8483621
S3150800C2E010BD10B509880446FFF793FF014620B133
S3150800C2F02046BDE81040FFF7E3BF10BD00F10C0370
S3150800C300C0F83C36B0F8403601339BB2A0F8403648
S3150800C310012380F848367047D0F80C3270B500F122
S3150800C3200C04054604EB8306A64204D12846BDE85C
S3150800C3307040FFF7E3BF2068FFF710FF20B12268BF
S3150800C340938901339BB293810434EDE710B5044613
S3150800C35000F5067004F0EEFFB4F8443601339BB2DC
S3150800C360A4F84436012384F8483610BDEFF3108349
S3150800C370DB4303F0010372B6B0F84026B0F8421664
S3150800C38092B289B28A420BD1B0F84426B0F8461662
S3150800C39092B289B28A420AD109487BB162B670471D
S3150800C3A0A0F84226012280F848260648F5E7A0F8B4
S3150800C3B04626012280F848260348EEE772B67047FB
S3150800C3C0CDC3000825C4000851C40008FFF7CEBF36
S3150800C3D0D0F82C26104B9A4210B518D1D0F80C225A
S3150800C3E000F10C0303EB8203D0F83C26934210D0ED
S3150800C3F0111DC0F83C1611688A89CC8992B2A4B27C
S3150800C400A242F1D0CA8100F5067004F06BFF03481A
S3150800C41000E0034810BD00BFEDC1000825C40008B0
S3150800C42051C40008FFF7D4BF08B5D0F82C26054B31
S3150800C4309A4205D100F5067004F06CFF024808BD63
S3150800C4400248FCE7EDC1000879C4000851C4000899
S3150800C450FFF7EABFD0F82C26044B9A4203BF002305
S3150800C46080F8483602480348704700BFEDC1000807
S3150800C470CDC3000879C40008FFF7ECBF70B50446C1
S3150800C480FEF762FB114B2360114BC4F810320025EE
S3150800C490012304F5067684F81432C4F80C523046A3
S3150800C4A005F09EF90B4BA4F84056C4F83836A4F8A4
S3150800C4B04256C4F83C56A4F8445684F84856A4F89C
S3150800C4C04656304604F0EAFE204670BDBCA1010877
S3150800C4D0DC9C0108CDC3000810B50468016044B1AE
S3150800C4E02046FFF775FE20461021BDE81040FEF7EE
S3150800C4F03FBE10BD2DE9F74FD1F80062002307466D
S3150800C5008A4691460360037101EB860546F31D04CE
S3150800C51088463CB9454518D10123802E3B7132D156
S3150800C52008F0FEFB4FEA540B08EB8B014A465046CF
S3150800C5300191FFF75DFE019928B1013C01F104085C
S3150800C540A4EB0B04E5E75C46E3E74246494650465A
S3150800C550FFF74EFE00B30123802E3B71E0D055F85D
S3150800C560043C4AF82630013645F8044DCAF80062FC
S3150800C570A845284616D1D9F80010C9F80040404603
S3150800C580FFF7AAFF08E0D9F80030C8F800300136EE
S3150800C590C9F80040CAF800623846C7F8008003B0F8
S3150800C5A0BDE8F08F55F8041D2C60FFF795FFDFE70F
S3150800C5B007B50A4600F10C016846FFF79BFF03B072
S3150800C5C05DF804FBF8B504460E4B036000F50670EB
S3150800C5D004F0AEFDD4F80C5204F10C0725B9204638
S3150800C5E0FEF7AAFA2046F8BD57F8046B013D002E5F
S3150800C5F0F4D03046FFF7ECFD10213046FEF7B8FDC3
S3150800C600ECE700BFBCA1010810B50446FFF7DAFF46
S3150800C610204640F24C61FEF7ABFD204610BD008A6D
S3150800C62070478088704781800120704710B5034B9A
S3150800C63003600446FEF780FA204610BDF4A10108FF
S3150800C64010B50446FFF7F2FF20462421FEF790FDB9
S3150800C650204610BD406800F00FB84068FFF7DFBFFE
S3150800C6600346C068198A1A8C03688A1A51425B689D
S3150800C67051411847FFF7F4BF08B5038C23B101826F
S3150800C680FFF7EEFF012008BD1846FCE738B504465B
S3150800C6900D46FEF759FA144A144B2360C4E90524DB
S3150800C6A00023134AE5602382E26123841020FEF703
S3150800C6B053FD2A460F4B1049104DFFF76FFD10200A
S3150800C6C0FEF74AFD2B4604F114020D49FFF766FDF5
S3150800C6D01020FEF741FD0B492B4604F11C02FFF71B
S3150800C6E05DFD204638BD00BFD4A10108F4A10108AC
S3150800C6F0E4A10108309E010870AE01082C9E0108CD
S3150800C70098AE010840AF010810B50446084607F080
S3150800C71088FA63681988FFF77CFD014628B1236803
S3150800C72020461B68BDE81040184710BD8088704732
S3150800C73070B50B680C46054601795B682046984734
S3150800C7402D681020FEF708FD22462946024BBDE853
S3150800C7507040FFF723BD00BF309E010810B50446A0
S3150800C76090F8340030B1206903681B68984780F058
S3150800C7700100C0B284F83400A36A20469847A06234
S3150800C78010BD000010B5034B03600446FEF7D4F94C
S3150800C790204610BD2CA2010810B50446FFF7F2FF8B
S3150800C7A020464821FEF7E4FC204610BD4068FEF707
S3150800C7B0A5BC10B504468069B4F92C1003685B68FB
S3150800C7C09847E069B4F92E100368BDE810405B6825
S3150800C7D0184710B504468069E2680368B2F9101074
S3150800C7E05B689847E069E2680368B2F912105B680B
S3150800C7F0BDE81040184770B50446406903681B68D1
S3150800C80098470546A06903681B689847A84204DD4F
S3150800C810A069036829465B689847E06903681B684E
S3150800C8209847A84206DAE069036829465B68BDE8C6
S3150800C8307040184770BD10B50446C06903681B6888
S3150800C8409847011E07DDE06903680139BDE8104015
S3150800C8505B6809B2184710BD38B504468069036895
S3150800C8601B6898470546E06903681B689847A585CD
S3150800C870E08538BD90F8343010B504468BB10069B0
S3150800C88003681B68984748B92046FFF7E5FF204626
S3150800C890FFF79FFFE36B0448A36310BD002384F8EA
S3150800C8A034300248F9E700BFFDC80008B1C80008DF
S3150800C8B0FFF7E0BF10B504463830FEF726FC94F8BB
S3150800C8C0343033B9E36BA3632046FFF772FF084899
S3150800C8D010BDA36B20463BB9FFF7ADFF04F120005E
S3150800C8E0236A98470348F3E7FFF785FF0248EFE70F
S3150800C8F0B1C800081DC90008FDC80008FFF7DABF5F
S3150800C90090F834301BB9C36B8363024870470248FA
S3150800C910704700BFB1C800081DC90008FFF7F0BF7F
S3150800C92082B02DE9F04106AD044645F8043F0E46AF
S3150800C9301746FEF709F9204B23600FCDC4E90367B4
S3150800C94004F114070FC72B681C4A3B6022631C4B73
S3150800C950F268A3620023C4E90E32A385E38584F84E
S3150800C9603430184B3768184D236404F13803636470
S3150800C9701020FEF7F1FB2B4604F130023946FFF78B
S3150800C9800DFC7768D4F810801020FEF7E5FB2B46DF
S3150800C99042463946FFF702FCB5681020FEF7DCFB75
S3150800C9A004F140022946094BFFF7F8FB2046BDE88B
S3150800C9B0F04102B0704700BF2CA20108DC9C0108B8
S3150800C9C0B1C800081CA20108309E01082C9E010867
S3150800C9D0808A704730F8500C7047000010B5044B39
S3150800C9E00360203304464366FFF79CF9204610BDD2
S3150800C9F044A2010810B50446FFF7F0FF2046682157
S3150800CA00FEF7B6FB204610BD38B508461C464AB99F
S3150800CA101B68DD680B681B68984701462046A847CF
S3150800CA20012038BD0020FCE713B50C46184662B94C
S3150800CA301B680DF10601DB6898472368BDF90610E7
S3150800CA405B682046984702B010BD0020FBE700004F
S3150800CA5013B50C4B0C4A0360C368CDE900200446A5
S3150800CA606946D86802F079FA04F14400FEF7D0FB6B
S3150800CA7004F11800FEF7CCFB2046FEF75DF82046C9
S3150800CA8002B010BDB8A20108D3CA000810B5044602
S3150800CA90FFF7DEFF20466421FEF76AFB204610BD3D
S3150800CAA010B590F8603004461BB1013B80F8603041
S3150800CAB010BD03695B7B002BFAD001211830FEF705
S3150800CAC095FD94F82430002BF2D023699B696361A5
S3150800CAD0EEE7406800F000B8F7B50D4604460021B9
S3150800CAE01830FEF783FD05F108010422684608F0B0
S3150800CAF03BF9042269460DEB020008F035F9019B63
S3150800CB0004221BBA0DEB02016846019308F02CF9C2
S3150800CB10042269460DEB020008F026F92769019EF2
S3150800CB203D693146284607F053FF30B97D693146DD
S3150800CB30284607F02FFF00B9354694F8603065613E
S3150800CB4004F1440763B93146284607F019FFB0FADD
S3150800CB5080F14909384603B0BDE8F040FEF730BB1E
S3150800CB600021F7E773B5044615460E46FDF7ECFFB8
S3150800CB70114B2360AB69AA7BA9686361C4E90365A5
S3150800CB806B7B04F11800FEF74BFDAA7B696804F17C
S3150800CB904400FEF723FB2369E0681B7B84F86030BA
S3150800CBA0064B6946CDE90034D5E9072301F0ADFB0C
S3150800CBB0204602B070BD00BFB8A20108D3CA00085B
S3150800CBC082B06B46142A83E8060006D893E8060066
S3150800CBD0D0F84C0102B0FCF799BE02B0704782B09B
S3150800CBE06B4683E8060093E8060002B000F033BE01
S3150800CBF006C94068FFF7F3BF06C94068FFF7E0BFFC
S3150800CC0030B50C4B87B004460D46CDE9023000928C
S3150800CC1008490246142300F013FC074BC4F84C518C
S3150800CC20284604A9CDE90434FCF760FE204607B07F
S3150800CC3030BD00BFF9CB0008F1CB0008014B0360FB
S3150800CC40704700BFD0A20108704782B00831082398
S3150800CC50019300916B4413E906000C3002B000F012
S3150800CC60FABD4068FFF7F1BF06C9406800F035B85D
S3150800CC7013B5124B124A0360D0F858310446CDE971
S3150800CC8000206946D86802F068F9D4F8483104F5F6
S3150800CC90A471002299420BD1E06918B1616A091A98
S3150800CCA0FEF766FA2046FDF747FF204602B010BD9C
S3150800CCB01868C3E900220346ECE700BFE8A20108AA
S3150800CCC063CC000810B50446FFF7D2FF20464FF4A0
S3150800CCD0BA71FEF74DFA204610BD10B586B06B4600
S3150800CCE083E80600D0F86C21044622F06043C2F3BC
S3150800CCF0807043EA4073C2F3407243EA8273029A31
S3150800CD0002F0004213430293019A4FF60873ADF8F6
S3150800CD100C300023CDE9043312B104A808F024F836
S3150800CD20D4F8580102A901F043FC06B010BD000072
S3150800CD3070B5044686B00D461646FDF705FF224B2C
S3150800CD402360224B21490096CDE902342246082366
S3150800CD5004F10C0000F074FB1D4B1E4AC4F8585130
S3150800CD60C4F85C311C4DC4F868311C4BC4F860210A
S3150800CD70C4F86C311020FEF7EFF92B4604F5AE72B5
S3150800CD801749FFF70BFA1020FEF7E6F92B4604F5CC
S3150800CD90B4721449FFF702FAD4F86031D4F858018E
S3150800CDA0C3F3807223F0604141EA4271C3F34072D3
S3150800CDB00D4B41EA8272CDE9043404A9002301F03F
S3150800CDC0A4FA204606B070BDE8A2010869CC00089E
S3150800CDD0B09F0108F9D4FC58309F010803D4FC58C9
S3150800CDE080AE010868AE010863CC000820207047B1
S3150800CDF0202070470020704710B5034C2046FFF7E7
S3150800CE001DFF024B236010BD1423002000A3010858
S3150800CE10312070472420704724207047202070470F
S3150800CE202020704710B5034C204600F095F8024BB9
S3150800CE30236010BD1823002018A301084068FFF7D7
S3150800CE400ABA38B505464068FFF705FA044620B918
S3150800CE506868FFF753FA204638BD1020FCE72DE92D
S3150800CE60F0410C4615461E460BB391F834711FB1B6
S3150800CE7022273846BDE8F081B1F832114068FFF73D
S3150800CE80C8F980460028F3D0FFF74DF988B1B4F801
S3150800CE90304126442A6821464046FFF767F90028AC
S3150800CEA0E6D00134B44205F10405F3D1E1E72127C0
S3150800CEB0DFE72327DDE72DE9F7430D4614461E462F
S3150800CEC07BB391F8347127B12227384603B0BDE801
S3150800CED0F083B1F832114068FFF79BF980460028C5
S3150800CEE0F2D0FFF7D3F8F0B1B5F830914E444A4680
S3150800CEF041466846FFF7E6F89DF80430009D002B8A
S3150800CF00E2D02B1209F1010925706370B1454FEA89
S3150800CF1025434FEA2565A370E57004F10404E6D1BC
S3150800CF20D3E72127D1E72427CFE7000010B5034B25
S3150800CF3003600446FFF788FE204610BD38A30108A3
S3150800CF4038B504460D46FFF779FE024B2046C4E97C
S3150800CF50003538BD38A30108014B0360704700BF90
S3150800CF6050A301087047FF2938B5D0F800210546B7
S3150800CF700C4601D907F0D4FE8A4202D9C5F8004109
S3150800CF8038BD10448A1AF9D0002107F015FFF5E7D5
S3150800CF9070B5D0F83C41054600F59E76B44200D1FE
S3150800CFA070BD54F8043C201F5B68294698472468DE
S3150800CFB0F4E770B5D0F83C41054600F59E76A642E2
S3150800CFC000D170BD54F8043C201F1B6829469847B9
S3150800CFD02468F4E770B5D0F83C41054600F59E761E
S3150800CFE0B44200D170BD54F8043C201F9B68294602
S3150800CFF098472468F4E7C3681B7801229A40531EB1
S3150800D0000B401CBF8918C91A084670478268C3684E
S3150800D01091421B7828BF1146D94001FA03F07047A0
S3150800D020C3681A788368D34003FA02F07047036925
S3150800D030FE221A70036959700223C3617047F8B556
S3150800D0400446154607690E46FFF7D5FF6369E26889
S3150800D050DB1B12781B1AD340AB4205D2222120468D
S3150800D060BDE8F840FFF7E3BFBB19002207449F421B
S3150800D0701FD131462046FFF7BEFF0246D4F84401C9
S3150800D080216903680A441F6821462B46B8470146AA
S3150800D0900028E4D1D4F830312B44C4F83031314675
S3150800D0A02046FFF7A8FFE3681B789D400544E56125
S3150800D0B0F8BD03F8012BDAE710B50446D0F84401A9
S3150800D0C0036821469B689847014620B12046BDE87B
S3150800D0D01040FFF7ACBF10BD70B50446D0F8480144
S3150800D0E0E36815461B78026805FA03F396680A464C
S3150800D0F02146B047014628B9D4F830312B44C4F844
S3150800D100303170BD2046BDE87040FFF790BFC36858
S3150800D1101878400000F006007047F7B5012502AB05
S3150800D12090F82A7080F82A5003E90600FF21044681
S3150800D130FFF76CFF4FF6FF7106462046FFF766FFBE
S3150800D14023691121024659702046FFF7E0FF23693B
S3150800D15098702369DE7023691A712369120A5A7155
S3150800D16023699D712369DD710823E3612FB9204680
S3150800D17003B0BDE8F040FFF71CBF03B0F0BD0022C6
S3150800D18080F8202080F82A20FFF724BF13B502ABC9
S3150800D19003E906004B78012B044605D0222102B08C
S3150800D1A0BDE81040FFF743BFFFF786FF94F820302D
S3150800D1B06FF3820384F8203002B010BD82B00DF1FF
S3150800D1C0080C0CE906000A46C97880F8341152683A
S3150800D1D0C0F8302102B0FFF7DBBE37B502AB03E972
S3150800D1E00600CB7880F834314B68C0F830310D46EC
S3150800D1F00446FFF7CDFE6A780121204603B0BDE854
S3150800D2003040FFF71CBF82B002AB03E906004A783C
S3150800D210012102B0FFF713BF73B50446D0F84801E1
S3150800D22002AB03E90600036821461B6898470546D2
S3150800D230E0B9236901229A70FF212046FFF7E6FE2E
S3150800D2402369D870266902212046FFF7D4FEF378B1
S3150800D2501B1AFF20B0FBF3F03071236902225A71C2
S3150800D26023699D710723E36102B070BD014620461C
S3150800D27002B0BDE87040FFF7DABE37B502AB03E986
S3150800D28006004A7804462AB1212103B0BDE8304099
S3150800D290FFF7CDBED0F84801026855684A682146AE
S3150800D2A0A847014608B12046EFE703B030BD13B5DD
S3150800D2B00446D0F8480102AB03E906000368214694
S3150800D2C0DB6898470146204621B102B0BDE8104008
S3150800D2D0FFF7ADBE02B0BDE81040FFF750BF1B68B0
S3150800D2E0521A70B501391C469E18351B002D04DCF0
S3150800D2F0002AA8BF9B18036070BD11F8015F04F8E7
S3150800D300015BF2E713B502AB03E906000121044607
S3150800D310FFF771FE019A0099121A0144204602B0DD
S3150800D320BDE81040FFF7D8BE1FB504466B46D0F8D7
S3150800D330480183E806004B684A78029303688DF82B
S3150800D3400E204A88ADF80C2021461B6902AA984788
S3150800D350014610B12046FFF76AFE04B010BD13B5AA
S3150800D3600446D0F8440102AB03E906000368DB680B
S3150800D370984794F82030226960F3000384F8203037
S3150800D3805370236994F824209A7023690022DA706E
S3150800D3902369228D1A71238D22691B0A537106236C
S3150800D3A0E36102B010BD82B002AB03E906000B468A
S3150800D3B08A785B78C9782BB1272102B0FFF737BE88
S3150800D3C02621FAE70A43FBD102B0704782B002ABC6
S3150800D3D003E906004A788B78013A012A03D92721FE
S3150800D3E002B0FFF724BE002BF9D102695370026917
S3150800D3F093700269D3700423C36102B0704707B5FE
S3150800D400C2692AB101690368CDE9001269469847DD
S3150800D41003B05DF804FB13B56B4683E806000A788B
S3150800D420FF2A044609D193E80600FFF776FE204650
S3150800D43002B0BDE81040FFF7E2BF02B010BD000021
S3150800D44073B50446684680E8060003C81D46A3600F
S3150800D450002D069BE36084E8050002DA194806F009
S3150800D46039FF4FF00003C4E90433A361284601D00D
S3150800D470FDF772FE4619C4E90400A66145B100210C
S3150800D480012D00F8011B03D06A1E07F095FC3046F3
S3150800D4900023C4E90933C4E94B33E36184F8203037
S3150800D4A084F83431C4F8383104F59E73C4E94F332F
S3150800D4B0054BC4F84431054B60612046C4F8483131
S3150800D4C002B070BD64A301081423002018230020AD
S3150800D4D002680B689A4203D004D24FF0FF307047B7
S3150800D4E0002070470120704782B0F7B504461D46F4
S3150800D4F016460993FFF77FFDE3681B782F1806FA8F
S3150800D50003F33B4400930A9B01A91D446846019511
S3150800D510FFF7DEFF40B2002807DD2121204603B0D1
S3150800D520BDE8F04002B0FFF782BDD4F844010368B5
S3150800D53021465D683A463346A84701460028EDD19C
S3150800D540D4F830313344C4F8303103B0BDE8F04084
S3150800D55002B0704730B585B0044604AB03E906004F
S3150800D56001211546FFF747FDE3681A78029B0095E7
S3150800D570281A20FA02F201212046FFF7B5FF05B066
S3150800D58030BD1FB504AB03E906004A780B4603997C
S3150800D59000910221FFF7A8FF05B05DF804FB2DE90D
S3150800D5A0FF416B4683E806000F4602210446FFF753
S3150800D5B022FD07EB000805462046FFF731FD7E7879
S3150800D5C0E368451B1B78B54228BF354605FA03F3C1
S3150800D5D043440293019B03A91F4402A80397FFF73C
S3150800D5E077FF40B2002806DD2121204604B0BDE8B9
S3150800D5F0F041FFF71CBDAE4218D9761B022384F80A
S3150800D6002B6004F12C0684F82A3029463046FFF7A9
S3150800D610AAFC02AB08EB0502414603A80296FFF7EF
S3150800D6205EFE0023E36104B0BDE8F0812A46414668
S3150800D630204604B0BDE8F041FFF74EBD37B56B464E
S3150800D64083E8060085680A4601998D42044607D292
S3150800D6502121FFF7ECFC03B0BDE83040FFF7CFBE51
S3150800D6601278C83A372A78D8DFE802F0726D6B77F5
S3150800D67077777766615C577777777777777777778E
S3150800D680777777777777777777777777777739349D
S3150800D690777752774D77777748432F77773E77773F
S3150800D6A02A25221C93E80600FFF737FD2046D2E715
S3150800D6B0FFF765FDFAE793E80600FFF750FEF5E782
S3150800D6C000212046FFF7B3FCF0E793E80600FFF7D2
S3150800D6D075FDEBE793E80600FFF765FEE6E793E8D6
S3150800D6E00600FFF773FEE1E793E80600FFF74EFD35
S3150800D6F0DCE793E80600FFF786FDD7E793E8060020
S3150800D700FFF76BFDD2E793E80600FFF73AFFCDE790
S3150800D71093E80600FFF71EFFC8E793E80600FFF741
S3150800D7207BFDC3E793E80600FFF7A7FDBEE793E88E
S3150800D7300600FFF734FFB9E793E80600FFF7B7FDE1
S3150800D740B4E72921BDE793E80600FFF7DBFDADE75F
S3150800D75093E80600FFF7E8FDA8E72021B1E72DE9E1
S3150800D760F04385B06B4604460F4683E8060002215F
S3150800D770FFF741FC7D7894F82B309D4206460ED083
S3150800D78029212046FFF753FC236994F82B209A7029
S3150800D7900323E3610123438505B0BDE8F08307EB66
S3150800D7A000082046FFF73CFCE368861B1B78AE4260
S3150800D7B028BF2E4606FA03F343440293019B03A9A6
S3150800D7C01F4402A80397FFF783FE40B2002804DD32
S3150800D7D021212046FFF72BFCDCE7D4F82C1104F1B5
S3150800D7E02C0707EB010938463144AD1BFFF7BBFB95
S3150800D7F0EDB202AB08EB0602414603A8CDF8089045
S3150800D800FFF76DFD84F82B504DB9D4F82C21394615
S3150800D8102046FFF761FC012384F82A30BCE7002381
S3150800D820E361B9E713B56B4683E806000A78CA2AA6
S3150800D830044609D193E80600FFF791FF204602B097
S3150800D840BDE81040FFF7DBBD2921FFF7F0FB0123F8
S3150800D85080F82A30F2E717B46B4683E806000269B7
S3150800D860FF2111700122C26190F82A20012A08D0EE
S3150800D870022A0CD08AB993E8060003B010BCFFF759
S3150800D880CABD93E8060003B010BCFFF7D7BE93E8FD
S3150800D890060003B010BCFFF7C5BF03B010BC704745
S3150800D8A008B5037A002B14BF0820062002F0C4F836
S3150800D8B0002008BD10B50446FFF74EFB074B236052
S3150800D8C0074B6360002323721020FDF745FC054BC8
S3150800D8D00549221DFEF762FC204610BDA0A30108DB
S3150800D8E0DC9C0108309E0108D8AF010810B5034B2F
S3150800D8F003600446FFF736FB204610BD18A301084F
S3150800D90010B5054B03F10802283304460260436646
S3150800D910FFF764F8204610BD04A4010810B50446B4
S3150800D920FFF7EEFF20466821FDF722FC204610BDD2
S3150800D93038B50D4A0446FEF739FA0C4B23602546DE
S3150800D940203345F8643F1020FDF706FC2A46084BAD
S3150800D9500849FEF723FC084B03F108022833226026
S3150800D9606366204638BD00BFE0A3010844A201084B
S3150800D9702C9E010800B0010804A4010810B5054B47
S3150800D98003F108022833044602604366FFF726F8C7
S3150800D990204610BD84A4010810B50446FFF7EEFF23
S3150800D9A020466821FDF7E4FB204610BD38B50D4A30
S3150800D9B00446FEF7FBF90C4B23602546203345F851
S3150800D9C0643F1020FDF7C8FB2A46084B0849FEF7B6
S3150800D9D0E5FB084B03F108022833226063662046FC
S3150800D9E038BD00BF60A4010844A201082C9E0108A6
S3150800D9F078AE010884A4010810B5054B03F10802A6
S3150800DA002833044602604366FEF7E8FF204610BD49
S3150800DA1004A5010810B50446FFF7EEFF2046682165
S3150800DA20FDF7A6FB204610BD38B50D4A0446FEF79D
S3150800DA30BDF90C4B23602546203345F8643F10207A
S3150800DA40FDF78AFB2A46084B0849FEF7A7FB084B51
S3150800DA5003F10802283322606366204638BD00BFFA
S3150800DA60E0A4010844A201082C9E010800B00108A0
S3150800DA7004A5010810B5054B03F10802283304462E
S3150800DA8002604366FEF7AAFF204610BD58A50108A6
S3150800DA9010B50446FFF7EEFF20466821FDF768FB40
S3150800DAA0204610BD38B50D4A0446FEF77FF90C4BE3
S3150800DAB023602546203345F8643F1020FDF74CFBCC
S3150800DAC02A46084B0849FEF769FB084B03F108028A
S3150800DAD0283322606366204638BD00BF34A5010896
S3150800DAE044A201082C9E010878AE010858A5010831
S3150800DAF010B5054B03F10802283304460260436655
S3150800DB00FEF76CFF204610BDACA5010810B504460B
S3150800DB10FFF7EEFF20466821FDF72AFB204610BDD9
S3150800DB2038B50D4A0446FEF741F90C4B23602546E5
S3150800DB30203345F8643F1020FDF70EFB2A46084BB4
S3150800DB400849FEF72BFB084B03F10802283322602D
S3150800DB506366204638BD00BF88A5010844A20108AF
S3150800DB602C9E010878AE0108ACA5010810B5054B36
S3150800DB7003F108022833044602604366FEF72EFFC7
S3150800DB80204610BD00A6010810B50446FFF7EEFFB3
S3150800DB9020466821FDF7ECFA204610BD38B50D4A37
S3150800DBA00446FEF703F90C4B23602546203345F857
S3150800DBB0643F1020FDF7D0FA2A46084B0849FEF7BD
S3150800DBC0EDFA084B03F10802283322606366204603
S3150800DBD038BD00BFDCA5010844A201082C9E010837
S3150800DBE0C0AF010800A6010810B5054B03F10802ED
S3150800DBF02833044602604366FEF7F0FE204610BD51
S3150800DC0054A6010810B50446FFF7EEFF2046682122
S3150800DC10FDF7AEFA204610BD38B50D4A0446FEF7A4
S3150800DC20C5F80C4B23602546203345F8643F102081
S3150800DC30FDF792FA2A46084B0849FEF7AFFA084B51
S3150800DC4003F10802283322606366204638BD00BF08
S3150800DC5030A6010844A201082C9E010800B001085C
S3150800DC6054A60108B1F57A5FA8BF4FF47A5121EAA4
S3150800DC70E171FEF72FB8000010B5054B03F1080255
S3150800DC802833044602604366FEF7A8FE204610BD08
S3150800DC90A8A6010810B50446FFF7EEFF204668213E
S3150800DCA0FDF766FA204610BD38B50D4A0446FEF75C
S3150800DCB07DF80C4B23602546203345F8643F102039
S3150800DCC0FDF74AFA2A46084B0849FEF767FA084B51
S3150800DCD003F10802283322606366204638BD00BF78
S3150800DCE084A6010844A201082C9E010878AE010802
S3150800DCF0A8A6010808B5406906F074FE80B208BDFA
S3150800DD00A0F16400F6E7000010B5044B03601C336D
S3150800DD1004464366FEF79CFE204610BDE0A60108B1
S3150800DD2010B50446FFF7F0FF20466821FDF720FAF4
S3150800DD30204610BD10B5054B03F1080224330446EE
S3150800DD4002604366FFF7E0FF204610BD28A70108DA
S3150800DD5010B50446FFF7EEFF20466821FDF708FADE
S3150800DD60204610BD38B50D4A0446FEF7FBFE0C4B9F
S3150800DD70236025461C3345F8643F1020FDF7ECF96F
S3150800DD802A46084B0849FEF709FA084B03F1080228
S3150800DD90243322606366204638BD00BF04A7010805
S3150800DDA0E0A601082C9E010800B0010828A7010872
S3150800DDB010B5054B03F10802243304460260436696
S3150800DDC0FFF7A2FF204610BD78A7010810B5044644
S3150800DDD0FFF7EEFF20466821FDF7CAF9204610BD79
S3150800DDE038B50D4A0446FEF7BDFE0C4B23602546A2
S3150800DDF01C3345F8643F1020FDF7AEF92A46084B58
S3150800DE000849FEF7CBF9084B03F1080224332260D0
S3150800DE106366204638BD00BF54A70108E0A601087E
S3150800DE202C9E010878AE010878A7010810B5054BA5
S3150800DE3003F108022833044602604366FEF7CEFD66
S3150800DE40204610BDF4A7010810B50446FFF7EEFFFB
S3150800DE5020466821FDF78CF9204610BD38B50D4AD5
S3150800DE600446FDF7A3FF0C4B23602546203345F8EF
S3150800DE70643F1020FDF770F92A46084B0849FEF75B
S3150800DE808DF9084B03F108022833226063662046A1
S3150800DE9038BD00BFD0A7010844A201082C9E01087E
S3150800DEA000B00108F4A7010810B5054B03F10802F4
S3150800DEB02833044602604366FEF790FD204610BDEF
S3150800DEC074A8010810B50446FFF7EEFF204668213E
S3150800DED0FDF74EF9204610BD38B50D4A0446FDF744
S3150800DEE065FF0C4B23602546203345F8643F102018
S3150800DEF0FDF732F92A46084B0849FEF74FF9084B51
S3150800DF0003F10802283322606366204638BD00BF45
S3150800DF1050A8010844A201082C9E010878AE010801
S3150800DF2074A8010810B5054B03F10802243304460A
S3150800DF3002604366FFF7E8FE204610BDC8A8010840
S3150800DF4010B50446FFF7EEFF20466821FDF710F9E5
S3150800DF50204610BD38B50D4A0446FEF703FE0C4BA5
S3150800DF60236025461C3345F8643F1020FDF7F4F876
S3150800DF702A46084B0849FEF711F9084B03F108022F
S3150800DF80243322606366204638BD00BFA4A8010872
S3150800DF90E0A601082C9E010800B00108C8A80108DF
S3150800DFA010B5054B03F108022433044602604366A4
S3150800DFB0FFF7AAFE204610BD18A9010810B50446A9
S3150800DFC0FFF7EEFF20466821FDF7D2F8204610BD80
S3150800DFD038B50D4A0446FEF7C5FD0C4B23602546A9
S3150800DFE01C3345F8643F1020FDF7B6F82A46084B5F
S3150800DFF00849FEF7D3F8084B03F1080224332260D8
S3150800E0006366204638BD00BFF4A80108E0A60108EB
S3150800E0102C9E010878AE010818A90108084A094B80
S3150800E0201268094910B51A44934201D1012010BD5E
S3150800E03013F8014B11F8010B8442F5D00020F6E7DE
S3150800E040C09C0108704E0108000000082DE9F04345
S3150800E05085B0FFF7E3FF28BBEFF31084E44304F031
S3150800E060010472B6DFF84880124EDFF84C90082596
S3150800E070684602F051FAD8F8007031463A466846C2
S3150800E08002F088FA3B464A463146684602F094FA58
S3150800E090684602F06DFAFFF7C1FF08B9013DE7D1FE
S3150800E0A01CB162B605B0BDE8F08372B6FAE700BFE8
S3150800E0B0C09C010800000008704E010800BEFEE77B
S3150800E0C0294B984205D1294A936943F40063936121
S3150800E0D007E0274B984207D1244AD36943F0010346
S3150800E0E0D361BFF34F8F7047224B984204D11F4A22
S3150800E0F0D36943F00203F3E71F4B984204D11B4A46
S3150800E100D36943F00403EBE71C4B984204D1174A42
S3150800E110D36943F01003E3E7194B984204D1134A35
S3150800E120D36943F02003DBE7164B984204D10F4A24
S3150800E130936943F40053CAE7134B984204D10B4A38
S3150800E140936943F48033C2E7104B984204D1074AD7
S3150800E150936943F40033BAE70D4B9842C1D1034A99
S3150800E160936943F48023B2E7002C01400010024073
S3150800E1700000004000040040000800400010004075
S3150800E18000140040003401400040014000440140B2
S3150800E1900048014038B50E4B0E4C9842A5680DD87C
S3150800E1A000EBC0004FF47A73B0FBF3F00230A368BB
S3150800E1B0EB1A23F07F439842F9D838BD09214FF46A
S3150800E1C07A720023A0FB010106F02CFCEEE700BFE3
S3150800E1D01BC7711C10E000E0C0EBC0030246B0EBA1
S3150800E1E0D30006D0023A904203D8082828BF082050
S3150800E1F070470120704703695B689869000E70478D
S3150800E20003695B689869C0F3074070470020704748
S3150800E21038B5144B036004460069134D4268134B26
S3150800E220551B19696A426A4141EA426119611969CD
S3150800E230083021EA42621A6102F03AFA20690A3085
S3150800E24002F036FA20690C3002F032FA04F58763D8
S3150800E250C4F848382046C4F84C38FCF76DFC20460C
S3150800E26038BD00BF6CA901080064004000100240D8
S3150800E27010B50446FFF7CCFF20464FF40861FCF7BB
S3150800E28077FF204610BD0000037F10B5044693B9FA
S3150800E29003695B685B68DB070DD4C06800F0A8FDFE
S3150800E2A021694B68096903225A61034A13680B43BB
S3150800E2B013600123237710BD000401404068FFF76F
S3150800E2C09ABF406800F0A0B94068FFF799BF406858
S3150800E2D000F0D6B9406800F02BBA10B5CC780A68B9
S3150800E2E0C4F380135B00A406C2F31C0246BF43EACC
S3150800E2F0C20343F0040343EA425303600B794360C5
S3150800E3008B688360CB68C36010BD1FB50469C0689D
S3150800E3102468CDE901239DF80C300A4664F302030C
S3150800E32001A98DF80C3000F07FFD04B010BDB0F8DF
S3150800E330543870B5192148F6A044054604EB530431
S3150800E340B4FBF3F4B4FBF1F301FB13434E1E8BB994
S3150800E3500846FFF741FF04280CD8C1EBC103B1EB0F
S3150800E360D30344D08A1E934241D8082B02D8F31A05
S3150800E370102B20D9022E3146E4D11921B4FBF1F332
S3150800E38001FB1343BBB101390229F7D119212046F4
S3150800E3900A4604EB5203B3FBF2F353439C4234BFE1
S3150800E3A01B1BE31A834238BF114602F1FF3238BFFE
S3150800E3B01846022AEDD10846FFF70EFF2B690428F6
S3150800E3C05D68A1F102030246A3EB000328BF0422FD
S3150800E3D0013A1B0443EA0263013804EB510443EA99
S3150800E3E00053B4FBF1F4013C2343EB6170BD0123F8
S3150800E3F0BDE7000037B500F58763C0F84838C0F8B0
S3150800E4004C3800230169A0F86838A0F86038194B21
S3150800E4100446CDE900300831684602F00DF9216955
S3150800E420154B0A316846CDE9003402F005F9216931
S3150800E430124B0C316846CDE9003402F0FDF8236929
S3150800E4405D682B6823F002032B602B6843F00103F9
S3150800E4502B606B68DB07FCD52B6843F040032B6009
S3150800E4602046FFF764FF2B6823F001032B6003B0F7
S3150800E47030BD00BFCFE20008C3E20008D5E20008BD
S3150800E480F0B5034600224FF0080CFF2700240025AC
S3150800E490160101328159412A01F00041815103F1E7
S3150800E4A0100303F80CCC03F80B7C43E90245EFD1C3
S3150800E4B0C0F81004C0F81404F0BD000070B5044696
S3150800E4C015460E46FCF740FB2C4B23606B6803F1A0
S3150800E4D0404314335A0102F1844213460433C4E913
S3150800E4E0036500266261A361267704F12000FFF721
