S02B0000453A5C68676D5C7265706F735C63735C72656C656173655C657463755C657463755C6D61696E5C65ED
S315080090000020002025920008299200082B920008CB
S315080090104192000843920008599200080000000097
S31508009020FFFFFFFF00000000000000006F9200082D
S3150800903071920008000000007392000875920008FB
S31508009040B5220108C5220108D5220108E522010832
S31508009050F52201080523010815230108252301081F
S31508009060352301084523010855230108652301080E
S31508009070752301088523010895230108A5230108FE
S31508009080B5230108C5230108D5230108E5230108EE
S31508009090F5230108052401081524010825240108DB
S315080090A035240108452401085524010865240108CA
S315080090B0752401088524010895240108A5240108BA
S315080090C0B5240108C5240108D5240108E5240108AA
S315080090D0F524010805250108152501082525010897
S315080090E03525010845250108552501086525010886
S315080090F0752501088525010895250108A525010876
S31508009100000000000000000000000000B52501086E
S31508009110C5250108D5250108E5250108F525010815
S315080091200526010815260108252601083526010801
S315080091304526010855260108000000000000000029
S315080091406526010875260108852601080000000025
S315080091500000000000000000000000000000000001
S31508009160000000000000000095260108A526010859
S31508009170B5260108000000000000000000000000FD
S3150800918000000000C526010808B500F0C1F81D4D0D
S315080091901D4AAA420BD2D2E900130C3252F8044CEB
S315080091A0C91A9C42F5D9585843F8040BF9E7174AE7
S315080091B0174C0021A24208D252F8083B52F8040C78
S315080091C09842F7D943F8041BFAE7124C124D02F0FD
S315080091D065FC2D1BAD100026B54204DD54F8043B92
S315080091E098470136F8E70D4C0D4D2D1BAD1000269E
S315080091F0B54204DD54F8043B98470136F8E710F009
S3150800920033FCFEE72C940008209400082C940008F0
S315080092103494000834940008349400083494000800
S315080092204494000814480047FEE71EF0040F0CBFDC
S31508009230EFF30880EFF309807146104A1047FEE7FE
S31508009240FEE71EF0040F0CBFEFF30880EFF309806A
S3150800925071460B4A1047FEE71EF0040F0CBFEFF3EA
S315080092600880EFF309807146064A1047FEE7FEE7D5
S31508009270FEE7FEE770470000899100083F92000864
S31508009280579200086D9200081C4B1A6822F4502267
S315080092901A601A6842F480321A601A689103FCD57B
S315080092A0174A520102F18442012111604FF480628B
S315080092B05A60144A116821F0040111606FF07F4169
S315080092C05160116841F0010111600F4A5A6000228D
S315080092D0DA621A6842F080721A601A689201FCD53E
S315080092E00A4A122111605A6842F002025A605A6804
S315080092F002F00C02082AFAD1704700BF001002409B
S315080093002410020010E000E00004110000200240D2
S3150800931038B53D4C2368002243F0010323606260A0
S31508009320236823F0847323F480332360E26223687E
S3150800933023F480232360A260E36843F00103E3601B
S31508009340E36823F00103E360A36943F00103A36123
S31508009350FFF79AFF2D4B2E4A9A6062B62D4ADA60BD
S31508009360A36A43F08053A362A36A23F08053A362DF
S31508009370636943F080536361E36A23F4F873E36235
S31508009380E36A43F48073E362BFF34F8F224DAB6801
S3150800939023F04053AB60AB6842F2107043F0805341
S315080093A0AB6006F005FDAB6843F00043AB60AB6805
S315080093B0002BFCDB382006F0FBFCAB68174843F0B3
S315080093C00103AB6008F04CFB40F241132B6300230A
S315080093D0AA6842F00402AA602A685207FCD52A6CD9
S315080093E0B2F5946F00D30133642BF1D1A36A43F02D
S315080093F08053A362A36A23F08053A362636923F0B0
S315080094008053636138BD00BF0010024000ED00E0E4
S31508009410009000080003FA050001005038A9010869
S31508009420C8C50108002000209020002090200020B8
S315080094300C6600200DBB0008EDEF000819F00008C7
S309080094408D2901085B
S31508009448002070470079704701710120704700793C
S315080094587047017101207047002070470020704747
S31508009468024A026000224260704700BF69940008F9
S31508009478024A026000224260704700BF79940008D9
S31508009488024A026000224260704700BFF1AE000837
S3150800949838B5CB68044658680D461830012108F0D7
S315080094A883FB05F16400142102F0DAFA024B236003
S315080094B800236360204638BD2DA2000838B5B1F8E8
S315080094C85630A1F8843001230C46054681F88630C3
S315080094D801F1D40002F0C1FA04F1DC0002F0BDFA89
S315080094E8034A002384F84030C5E90023284638BDD6
S315080094F8C5B00008012804D002280CBF1020002097
S31508009508704702207047826811708268013282604B
S315080095187047000008B5054B984201D910F0B8FA0B
S315080095282C235843BDE8084002F0D6BA5D74D10525
S315080095380368024613F8010B1360704710B50469EF
S315080095488368CAB2090A2CB95A7019708368023333
S31508009558836010BD1A705970F8E7000070B58AB0B4
S3150800956801AA0DF10B0304460E4605A80121CDE90B
S315080095780632059208930991FFF7C5FF4FF68A4107
S3150800958805A8FFF7DBFF032105A8FFF7BCFF0321A2
S3150800959805A8FFF7B8FF03AD002105A8FFF7B3FF35
S315080095A8284609F0E7F8DDE90331C91AC9B205A85A
S315080095B8FFF7A9FF079B059A0792CDE90323F068E9
S315080095C8089395E8060006F041FD06F164000A21AD
S315080095D802F046FA034B23602046002363600AB06C
S315080095E870BD00BF61AE000870B501258AB001AA32
S315080095F80DF1090304460E4605A82946CDE90632A3
S31508009608059208930995FFF77EFF4FF68F4105A83F
S31508009618FFF794FF294605A8FFF775FF0A2105A84D
S31508009628FFF771FF079B059A0893CDE9032303AB58
S315080096380792F06893E8060006F008FD06F164004C
S315080096480A2102F00DFA034B2360204600236360C3
S315080096580AB070BD71AD000830B591F83430B3FA68
S3150800966883F30C465B0991B081F8543001210DF15A
S315080096783E0308AA84F85510054603A8CDE906311D
S31508009688CDE904320392FFF73EFF4FF6864103A859
S31508009698FFF754FF1A2103A8FFF735FF002103A88F
S315080096A8FFF731FF002103A8FFF72DFF102300213C
S315080096B803A8FFF728FF013BF9D1072103A8FFF7FD
S315080096C822FF102103A8FFF71EFF03A81946FFF774
S315080096D81AFF0799059A19BBD370937053701370BC
S315080096E8059B94F85510043303A80593FFF70BFF59
S315080096F8059B039A0693CDE9012301AB0592E06819
S3150800970893E8060006F0A2FC04F164000A2102F0B8
S31508009718A7F9064B2B60284600236B6011B030BDAD
S31508009728137053709370D370DAE700BFE9AC00087A
S31508009738024A026000224260704700BF3997000853
S31508009748F0B503460C460F46054601F1100C3E4691
S3150800975803CE664528606960374605F10805F6D1DF
S3150800976830682860217D1975617D5975A17D9975BF
S31508009778DA75E27D1A76D4E90612C3E907120022D9
S315080097885A6283F8282083F826201846F0BD90F8F0
S31508009798263082B08BB94FF60453ADF8043001234E
S315080097A88DF80630BDF80430002063F30F00BDF8C5
S315080097B8063063F31F4002B07047D0E907329A4271
S315080097C818BF90F828304FF6065214BF83F00103E5
S315080097D80023ADF80420E3E784B02DE9F843DDE972
S315080097E80E57044609A880E80E000DF1340C034606
S315080097F822461E4603CE664510605160334602F17E
S315080098080802F6D1306810607E1B00230122761103
S31508009818C4E90523C4E90733A376636216D030463C
S31508009828FFF778FE80462C2303FB06866662C4F893
S315080098381C80C1462E46B7420AD031464846012200
S31508009848FFF77EFF203609F12C09F4E7B046EAE768
S31508009858701B40092C2202FB00802B4620629E4280
S315080098680AD05A7D12F0300F626914BF032102210B
S315080098780A4462612033F2E72046BDE8F84304B09B
S315080098887047837E13B58BB94FF60253ADF800308F
S3150800989801238DF80230BDF80030002063F30F006D
S315080098A8BDF8023063F31F4002B010BDD0E90714B3
S315080098B88C420DD00846FFF76AFFC0F307432C31E0
S315080098C8002BF5D001908DF80630019B0093E2E74E
S315080098D80023F8E738B5002405460160C0E90144C5
S315080098E821460C3002F0B6F80823EB6105F122038D
S315080098F86C61AC611846AC75AC764022214610F00E
S3150800990897FA05F16203046044608470847108302C
S315080099188342F8D1024B2846C5E9013438BD00BF51
S31508009928D99A0008837D37B50446BBB10C3002F0D6
S31508009938ACF8A3685A1013F0010F04EB0201636828
S3150800994818BFA2586D46284618BFD358984795E8B1
S315080099580300043484E8030003B030BD014AC0E9B3
S315080099680123F9E7D99A000810B58EB005AA0DF1B2
S3150800997822030446019109A80121CDE90A32099270
S315080099880C930D91FFF7BFFD4FF6815109A8FFF714
S31508009998D5FD0A2109A8FFF7B6FDA18A09A8FFF788
S315080099A8CDFDBDF8041009A8FFF7C8FDBDF80610D7
S315080099B809A8FFF7C3FD002109A8FFF7BFFDC821BD
S315080099C809A8FFF7BBFD0B9B099A0C93CDE903235E
S315080099D803AB0B92206893E8060006F037FB0EB037
S315080099E810BD0000F8B5002307460C4608461E4673
S315080099F81A46194694F824501DB1658CDAB18D4279
S31508009A0819D30D4694F8281019B1E18CB2B1A942B8
S31508009A1814D329460133082B04F10804EAD122B1E4
S31508009A28084B53F82610FFF79FFF074B3B600023A8
S31508009A387B603846F8BD1E460122E3E71E4601222A
S31508009A48E8E700BF40A001087994000838B504463D
S31508009A58084672B10023CB6180F820301A4BC269D8
S31508009A6853F82210FFF780FF184B23600023636022
S31508009A7822E08B7E9BB10B4601F1400293F8241035
S31508009A8819B15D8C018B8D4212D393F8281019B140
S31508009A98DD8C018B8D420BD308339A42EED190F8B0
S31508009AA82020C3691AB9072B08D10123D4E743B97B
S31508009AB801462046FFF796FF204638BD0133C361A5
S31508009AC8CCE7013BFBE700BF40A001086994000802
S31508009AD88B7D10B5044623B10122FFF7B7FF204650
S31508009AE810BD024AC0E90023F9E700BFD99A000861
S31508009AF8CA68F8B505468AB991F82030CF699B0037
S31508009B0803EBC70301F12206F4184FF6FE77F7525E
S31508009B180123A370FFF79AFF2846F8BD024B036096
S31508009B2800234360F8E700BFF99A000838B50446E9
S31508009B380C200D4601F0D0FF0346021D95E80300E8
S31508009B4882E80300E26E1A60E36638BD70B501253F
S31508009B588AB001AA0DF1090304460E4605A8294646
S31508009B68CDE90632059208930995FFF7CCFC4FF61E
S31508009B78854105A8FFF7E2FC294605A8FFF7C3FCB7
S31508009B88032105A8FFF7BFFC079B059A0893CDE9AB
S31508009B98032303AB0792F06893E8060006F056FA23
S31508009BA806F164000A2101F05BFF034B2360204697
S31508009BB8002363600AB070BDCDAC000870B588B0E4
S31508009BC80B46054601AC012103A816460791CDF8B0
S31508009BD80CD00494CDF814D00694FFF794FC03A887
S31508009BE81946FFF7ABFC002103A8FFF78CFC059B79
S31508009BF8039A0592CDE90123E868069394E80600D6
S31508009C0806F024FA314605F1640001F029FF08B088
S31508009C1870BD000010B50A220446084641F2010143
S31508009C28FFF7CCFF024B236000236360204610BD74
S31508009C38C5AD000810B50A22044608464FF69241F3
S31508009C48FFF7BCFF024B236000236360204610BD64
S31508009C5879AC000810B50A22044608464FF60151A1
S31508009C68FFF7ACFF024B236000236360204610BD54
S31508009C7895AC000810B50A22044608464FF69441E2
S31508009C88FFF79CFF024B236000236360204610BD44
S31508009C9805AD000882B002A901E90C00009B1A78F4
S31508009CA8042A01BF5A7802700333436005BF019B33
S31508009CB8836000230123037302B0704730B585B06B
S31508009CC86B4683E80600456803680C461146AB42AE
S31508009CD81CD01A68A24206D15A688A4205D014B915
S31508009CE80A43D20701D50C33F1E71B89ADF80C30C6
S31508009CF801238DF80E30BDF80C30002063F30F00F1
S31508009D08BDF80E3063F31F4005B030BD0023F0E7F9
S31508009D181FB54268203292E8030002AB83E80300C5
S31508009D28074893E80600FFF7C9FF019010F47F0F6C
S31508009D3814BFBDF804004FF6FF7005B05DF804FBC4
S31508009D48549F01081FB54268283292E8030002ABFF
S31508009D5883E80300074893E80600FFF7AFFF01907A
S31508009D6810F47F0F14BFBDF804004FF6FF7005B056
S31508009D785DF804FB549F010838B504460B4615469A
S31508009D88AB4205D013F8011B2046FFF7BCFBF7E7E3
S31508009D98204638BD2DE9F041AAB0541A054668464A
S31508009DA880E806000E460AA804F10A010144CDE92E
S31508009DB80501CDE90701012105A898461746099125
S31508009DC8E4B2FFF7A0FB4FF6065105A8FFF7B6FB66
S31508009DD8A11DC9B205A8FFF796FB414605A8FFF7D6
S31508009DE8ADFBBDF8C01005A8FFF7A8FB002105A81C
S31508009DF8FFF789FB214605A8FFF785FB3A46314652
S31508009E0805A8FFF7B9FF079B059A0893CDE9032329
S31508009E1803AB0792284693E8060006F017F92AB016
S31508009E28BDE8F08110B588B002AB83E8060090F863
S31508009E3858309BB1039A531A142B0FD88369DC69D7
S31508009E489B690593CDE90612B4F85020009208AA32
S31508009E589BB212E90600C068FFF79CFF08B010BD60
S31508009E68F0B585B00C4602AE05463046CF6808F010
S31508009E7881FCB4F85E30009396E80600B4F85A30C8
S31508009E883846FFF787FF04F164000A2101F0E8FD68
S31508009E98034B2B60284600236B6005B0F0BD00BF56
S31508009EA8B1AC00082DE9F04190B0054668468846E9
S31508009EB808F060FCDDE90074E41B082C28BF0824B8
S31508009EC809AA012604F112031344314604A8CDE968
S31508009ED80423CDE906230896FFF715FB4FF68341B9
S31508009EE804A8FFF72BFB04F10E01C9B204A8FFF773
S31508009EF80AFB002104A8FFF706FB202104A8FFF7A0
S31508009F081DFB202104A8FFF719FB314604A8FFF713
S31508009F18FAFA002104A8FFF7F6FAA119C9B202AE9F
S31508009F2804A8FFF7F0FA304608F024FCDDE9022316
S31508009F389B1A082B8CBF0821092104A8FFF7E3FA06
S31508009F483A19394604A8FFF717FF002104A8FFF7AE
S31508009F58DAFA002104A8FFF7F1FA002104A8FFF7A6
S31508009F68EDFA069B049A0692CDE90223D8F80C0066
S31508009F78079396E8060006F069F808F164000A21CE
S31508009F8801F06EFD034B2B60284600236B6010B06A
S31508009F98BDE8F08139AD000891F83420012A10B5DA
S31508009FA8044605D891F83C3043B9FFF77BFF03E030
S31508009FB8044B036000234360204610BDFFF75AFE92
S31508009FC8FAE700BFA19F0008F0B593B009AB0546AC
S31508009FD818460E4608F0CEFBDDE90912521A082A79
S31508009FE806D831462846FFF7FFFA284613B0F0BDCB
S31508009FF8684608F0BFFBDDE90074E41B12AA1D2CAD
S3150800A00809AB4FF0010104A828BF1D24CDE9052393
S3150800A018079204930891FFF776FA42F2090104A811
S3150800A028FFF78CFA202104A8FFF76DFAE3B2991C0A
S3150800A038C9B204A8FFF767FA591CC9B204A8FFF7FA
S3150800A04862FA092104A8FFF75EFA3A19394604A8FC
S3150800A058FFF792FEDDE90623934204D0002104A8FF
S3150800A068FFF751FAF6E7049A0692CDE9022302ABFE
S3150800A07893E80600F06805F0E9FF0A2106F164008E
S3150800A08801F0EEFC024B2B6000236B60ADE700BFC6
S3150800A09855AD0008F0B58BB00D46164602A90DF168
S3150800A0A81302CDE906210446059105A801211F4694
S3150800A0B808920991FFF727FA4FF6A44105A8FFF772
S3150800A0C83DFA072105A8FFF71EFA394605A8FFF73E
S3150800A0D81AFAB21D314605A8FFF74EFE079B059AE0
S3150800A0E80893CDE900236B460792E86893E80600CB
S3150800A0F805F0ACFF05F164000A2101F0B1FC034B39
S3150800A10823602046002363600BB0F0BDA9AD0008A4
S3150800A11883780BB100238370704710B50446243042
S3150800A128FFF7F6FF002384F8283010BD38B5044633
S3150800A1381830FFF7EDFFD4E90745A54204D02046B5
S3150800A148FFF7EBFF2C34F8E738BD000070B5054675
S3150800A1580C4652B101F1200201F1280392E80300E6
S3150800A16883E80300012384F84030E6687068002114
S3150800A178183007F019FD0123C6F82C336069FFF774
S3150800A188D5FF0026A069FFF7D1FF04F15A00E6615A
S3150800A198FFF7BEFF04F15E00FFF7BAFF024B284639
S3150800A1A8C5E9003670BD00BF999400087FB5044616
S3150800A1B8643001F06AFC04F1D40001F066FC04F18D
S3150800A1C8DC0001F062FC636A5A1013F0010F04EB15
S3150800A1D80201236A18BFA25802AE18BFD3583046E0
S3150800A1E8984796E8030004F1200585E8030004F17A
S3150800A1F87000FFF797FBE36893F8302312B993F8D2
S3150800A208312362B100226E46A3F830232146304630
S3150800A2180122FFF79BFF96E8030085E8030004B0D0
S3150800A22870BD00002DE9F047DFF86C90A4B004462D
S3150800A2380E4600250DF110080DF18F0ACDE9028AA0
S3150800A24802AB0CCBF168684606F092F99DF80470E3
S3150800A25857B1009A062AF1D1494640460FF0B2FD91
S3150800A268002808BF3D46E9E73DB131462046FFF7D5
S3150800A278D1FC204624B0BDE8F087736E2BB90122BD
S3150800A28831462046FFF762FFF3E7024BC4E900357B
S3150800A298EFE700BF2DA2000880A0010891F8553005
S3150800A2A810B5044613B1002381F8553001F156005C
S3150800A2B8FFF72EFF024B236000236360204610BD7C
S3150800A2C8A19F000838B505460C46D4E902329A42D9
S3150800A2D806D013F8011BA3602846FFF714F9F4E71C
S3150800A2E8284638BD2DE9F04390F826509FB0044615
S3150800A2F80E4617469846002D6FD1414D0078AA425A
S3150800A30894BF09250A25FFF7F5F805440EAA4FF064
S3150800A31801092B1D1344494604A8CDE90423CDE9B0
S3150800A3280623CDF82090FFF7EEF84FF6045104A857
S3150800A338FFF704F9E9B204A8FFF7E5F8414604A8C7
S3150800A348FFF7FCF8217804A8FFF7DDF8234604A8E8
S3150800A35813F8042B4A4503BFA11CCDE90913CDE917
S3150800A3680B1304F1140209A91BBFCDE90932CDE97B
S3150800A3780B320D92CDF83490FFF7A4FF204B217DC0
S3150800A3889F4204A826D8FFF7BEF8617D04A8FFF700
S3150800A398BAF8A17D04A8FFF7B6F8E17D04A8FFF787
S3150800A3A8B2F8072104A8FFF7AEF8217E04A8FFF73C
S3150800A3B8AAF8069B049A0793CDE9022302AB0692EC
S3150800A3C8304693E8060005F041FE012528461FB0E9
S3150800A3D8BDE8F083FFF7B2F8D7E7D0E9072191423D
S3150800A3E80BD090F8282042B9828C00921C3494E845
S3150800A3F806003046FFF7CEFCE8E70025E6E700BF8B
S3150800A4081F0007002DE9F041837E9CB004460E46DE
S3150800A4181746002B4DD10078FFF76CF801270CAAD0
S3150800A428C31D13440546394602A8CDE90223CDE9DA
S3150800A43804230697FFF767F84FF6025102A8FFF7B5
S3150800A4487DF8E91CC9B202A8FFF75DF8217802A8C9
S3150800A458FFF759F8234602A813F8042BBA4209BF8E
S3150800A468A11C04F11402CDE90713CDE9091307A9BC
S3150800A4781BBFCDE90732CDE909320B920B97FFF7D7
S3150800A48821FF012102A8FFF73EF8217D02A8FFF760
S3150800A4983AF8049B029A0593CDE900236B46049281
S3150800A4A8304693E8060005F0D1FD01201CB0BDE84A
S3150800A4B8F081D0E90758454509D02846238B3A46FE
S3150800A4C83146FFF70FFF2C350028F4D0EEE70020B9
S3150800A4D8ECE7000038B50C460546CA696069C968DC
S3150800A4E8FFF790FF58B9E269E168A069FFF78AFFA4
S3150800A4F828B921462846FFF729FB284638BD024BC6
S3150800A5082B6000236B60F8E767AB0008F0B50B69AA
S3150800A51893B00646187C0C46FEF7ECFF01270CAAF2
S3150800A528C31D13440546394602A8CDE90223CDE9D9
S3150800A53804230697FEF7E7FF4FF68E4102A8FEF7B3
S3150800A548FDFFE91CC9B202A8FEF7DDFF2369187CDE
S3150800A558FEF7D0FF811CC9B202A8FEF7D4FF23690B
S3150800A568187CFEF7C7FFC119C9B202A8FEF7CBFFC8
S3150800A578072102A8FEF7C7FF2369197CB94203F128
S3150800A588140206BF0B911233243307A902A807BF82
S3150800A598CDE90732CDE90932CDE90723CDE9092303
S3150800A5A818BF0B97FFF78EFE049B029A0593CDE911
S3150800A5B800236B460492E06893E8060005F046FD1A
S3150800A5C804F164000A2101F04BFA034B3360304664
S3150800A5D80023736013B0F0BD8DAD000810B582680E
S3150800A5E80469137851782CB941EA03230232826048
S3150800A5F8184610BD43EA0123F8E770B588B06B46DC
S3150800A60883E8060090F82630044613BB019BCDE97B
S3150800A6180313CDE905135B1A0125022B07950CBF11
S3150800A6282E46002605D103A8FFF7D8FF84F826503A
S3150800A638A0848DF8086001238DF809309DF8083044
S3150800A648002063F307009DF8093063F30F2008B06C
S3150800A65870BDD0E907329A4209D090F8283033B944
S3150800A668012380F8283001228DF80820E4E7002322
S3150800A678F9E72DE9F0418AB06B4683E80600837E40
S3150800A68805460E461446B3B9541A0127022CCDE9D5
S3150800A6980512CDE9071209970CBF3C46002404D1D8
S3150800A6A805A8FFF79BFFAF7628838DF8104001238E
S3150800A6B88DF8113012E0D0E9075805AF454519D08D
S3150800A6C8CDE90564284697E80600FFF796FF10F4D3
S3150800A6D87F4F05F12C05F1D0ADF810009DF8103024
S3150800A6E8002063F307009DF8113063F30F200AB0C2
S3150800A6F8BDE8F0810023DBE72DE9F04304460A7834
S3150800A708D1E9013089B001253E2A8846CDE90330CA
S3150800A718CDE90530079500F09480FF2A2BD00F2A3B
S3150800A72819D16168604A914215D1A7689FB9C01ABC
S3150800A738032810D913F8016B059305A8FEF7F8FE48
S3150800A74803A8FFF74BFF4FF68153984203D12EB95A
S3150800A758564BC4E9013609B0BDE8F08394F82030B1
S3150800A768E1699B0004F1220203EBC103D11806F53F
S3150800A7780056D65249E061684C4A9142EBD1A7681F
S3150800A788002FE8D1C31A042BE5D903A8FFF726FF3B
S3150800A798814603A8FFF722FF059B1E4616F8012BDC
S3150800A7A80596D8E901160532711A8A42D3D8A28ABB
S3150800A7B88242D0D1B9F5006F17D10A29CBD95E786C
S3150800A7C805A802330593FEF7B3FE03A8FFF706FFAD
S3150800A7D8132E05461BD1D0B9C82104F10C0001F087
S3150800A7E83FF9334BC4E90135B5E740F60103994506
S3150800A7F8B1D194F82030E1699B0004F1220203EBF9
S3150800A808C103D1184FF6FE70D0528D700DE0E3697A
S3150800A81894F82010DB0003EB810304F12202D11817
S3150800A82805F50055D55201238B706D4621462846F5
S3150800A8380022FFF70BF995E80300043484E80300BF
S3150800A84889E7C01A052886D91A4612F8011B0592FF
S3150800A858032980D15E7803A802330593FFF7BEFE65
S3150800A868A38A83427FF477AF03A8FFF7B7FED4E934
S3150800A87801230E4920838A42A57610D1002B7FF43E
S3150800A8886AAFE36994F82010DB0004F1220203EBAF
S3150800A8988103D1180125002E7FF469AFB4E704496E
S3150800A8A88A427FF458AFE9E769940008399700089F
S3150800A8B8F99A000830B50B78052B87B0054603D0FA
S3150800A8C80024204607B030BDD1E90132D11A032940
S3150800A8D8F6D9CDE90332CDE901320122059213F8FA
S3150800A8E8014B039301A8FFF779FE002CE8D195F8E8
S3150800A8F85840002CE4D0B5F856308342E0D105F12B
S3150800A9085600FFF705FCDCE72DE9F041A8B0064636
S3150800A9180C4608AD0DF19F08CDE9045804AF97E831
S3150800A9280C00E168684605F023FE9DF8043083B9F3
S3150800A938636E43B9002221463046FFF707FC3046C6
S3150800A94828B0BDE8F081203494E8030086E80300BF
S3150800A958F5E7009B2B44CDE9025302AB0CCB214605
S3150800A9683846FFF797F99DF81C30002BD4D039469E
S3150800A9782046FFF79FFF0028CED0DBE730B591F8D1
S3150800A98858308BB005460C46002B35D001AA0DF178
S3150800A9980B03012105A8CDE906320592089309910A
S3150800A9A8FEF7B1FD4FF6934105A8FEF7C7FD03214B
S3150800A9B805A8FEF7A8FDB4F8561005A8FEF7BEFDCB
S3150800A9C8132105A8FEF79FFD079B059A0893CDE96D
S3150800A9D8032303AB0792E06893E8060005F036FB05
S3150800A9E8322104F1640001F03BF821462846FFF7B6
S3150800A9F88BFF28460BB030BD0122FFF7A7FBF8E707
S3150800AA0810B50B780E2B86B017D1D1E90123991A00
S3150800AA18022912D9012403A8CDE90123CDE9032384
S3150800AA280594FEF785FD01A8FFF7D8FD4FF60653EE
S3150800AA38984202D1039B1B7813B1002006B010BDBB
S3150800AA482046FBE710B5914209D0D0E902349C426A
S3150800AA5805D013F8014B836001F8014BF3E710BDE5
S3150800AA682DE9F04FABB08A46694681E80C00349D5B
S3150800AA788146174698460AAE05AC0DF1A703059612
S3150800AA88069394E80C00D9F80C1003A805F070FD95
S3150800AA989DF810309BB9D9F86420002A43D140F2B2
S3150800AAA8FF13ADF808309DF80830002063F3070057
S3150800AAB89DF8093063F30F202BB0BDE8F08F039B90
S3150800AAC89DF828109DF829203344CDE90563089395
S3150800AAD80DF12B0001230429099307909DF82A30C4
S3150800AAE8CBD10E2A22D1022BC7D907A8FEF720FDFB
S3150800AAF82046FFF773FD5045BFD1079B13F8016B36
S3150800AB0807933DB1089AD31AA8EB0702934294BF54
S3150800AB182B602A6027B1424639462046FFF792FF3E
S3150800AB288DF8086001238DF80930BCE70F2AA4D1EF
S3150800AB38032BA2D90BAB07A807939DF82BB0FEF7F2
S3150800AB48F7FC2046FFF74AFD824596D1BBF1000F70
S3150800AB5893D00DB100232B608DF808B0E2E72DE9F4
S3150800AB68F043074691B048690C46FEF78AFE10F48A
S3150800AB787F0F81B203D1A069FEF783FE81B210ABBD
S3150800AB88079308AE05AB069600930DF1180898E8E2
S3150800AB980C002046FFF764FF10F47F4FADF8080055
S3150800ABA808D1203494E8030087E80300384611B032
S3150800ABB8BDE8F0839DF80830E3B904F1100504F1FF
S3150800ABC818094D4516D0059B55F8040F3344CDE9A9
S3150800ABD8066398E80600FFF74CFD10F47F4FADF8BA
S3150800ABE80C00EED09DF80C3023B121463846FFF705
S3150800ABF871FCDBE7012221463846FFF7A7FAD5E7B5
S3150800AC0882B0F0B587B01E460D930023CDE904330C
S3150800AC1800930C4606AB1146054613E90C00204678
S3150800AC280E9FFFF71DFF10F47F4FADF80C000AD1F1
S3150800AC38203494E8030085E80300284607B0BDE8F1
S3150800AC48F04002B070479DF80C3053B97B10FA07EC
S3150800AC5804EB030148BFE358284648BF9E59B04746
S3150800AC68EBE7012221462846FFF770FAE5E70000D8
S3150800AC781FB5002300934FF69242034B0446FFF78D
S3150800AC88BFFF204604B010BD5D9C00081FB5002311
S3150800AC9800934FF60152034B0446FFF7B1FF2046CF
S3150800ACA804B010BD659500081FB5002300934FF63C
S3150800ACB80652034B0446FFF7A3FF204604B010BD0F
S3150800ACC8DDA400081FB5002300934FF68542034B01
S3150800ACD80446FFF795FF204604B010BD61960008A4
S3150800ACE81FB5002300934FF68642034B0446FFF729
S3150800ACF887FF204604B010BDA5A2000830B585B068
S3150800AD080446002300934FF69442074B0D46FFF777
S3150800AD1877FF2268054B9A4203D163680BB985F811
S3150800AD283C30204605B030BDAD9E000839AD000858
S3150800AD381FB5002300934FF68342034B0446FFF7DB
S3150800AD485FFF204604B010BDD19F00081FB5002339
S3150800AD58009342F20902034B0446FFF751FF2046C7
S3150800AD6804B010BDF19500081FB5002300934FF6EF
S3150800AD788F42034B0446FFF743FF204604B010BD35
S3150800AD8815A500081FB5002300934FF68E42034BFE
S3150800AD980446FFF735FF204604B010BD899400081D
S3150800ADA81FB5002300934FF6A442034B0446FFF74A
S3150800ADB827FF204604B010BDC59400082DE9F041C8
S3150800ADC88CB003AB0DF110080DF119070C46CDF838
S3150800ADD81C800897009307AE054696E80C0041F2D2
S3150800ADE801012046FFF73CFE10F47F4FADF8080036
S3150800ADF808D1203494E8030085E8030028460CB0F7
S3150800AE08BDE8F0819DF8083003BB039B082B1DD1CC
S3150800AE18012309A80B93CDE90787CDE90987FEF72A
S3150800AE2887FB3046FFF7DAFB099B304613F8017BA8
S3150800AE380993FFF7D3FB3046FFF7D0FB40EA0740F4
S3150800AE48E06121462846FEF7F5FED7E701222146A6
S3150800AE582846FFF77BF9D1E72DE9F0418CB004AB1A
S3150800AE6805AE0DF11B050C460796089500930DF1DE
S3150800AE781C08074698E80C004FF68A412046FFF753
S3150800AE88EFFD10F47F4FADF80C0008D1203494E894
S3150800AE98030087E8030038460CB0BDE8F0819DF842
S3150800AEA80C30DBB9049B062B18D1CDE90765CDE92B
S3150800AEB80965404601250B95FFF790FB84F85C5019
S3150800AEC8A4F85A004046FFF789FB84F86050A4F8AE
S3150800AED85E0021463846FEF7C3FFDCE70122214615
S3150800AEE83846FFF733F9D6E72DE9F04391F83C30B1
S3150800AEF8AFB006460C461BBB91F834309A1E012A99
S3150800AF081ED991F85420B3FA83F35B099A4217D1EC
S3150800AF180EAD0DF1B708CDE9095809AF97E80C0049
S3150800AF28E16803A805F024FB9DF8103073B92034AE
S3150800AF3894E8030086E8030030462FB0BDE8F0839E
S3150800AF48002221463046FFF701F9F5E7039B2B4413
S3150800AF58CDE90953214697E80C0005A8FEF79AFE9D
S3150800AF689DF82030002BD6D005A904F17000FFF70C
S3150800AF78C3FB0121DDE906320D919DF814103E291F
S3150800AF88CDE90932CDE90B3204D005A92046FFF7E9
S3150800AF9891FCC0E7D21A032AF7D91A4612F8019B78
S3150800AFA80B92B9F1010FF0D15A7802330B93002AA4
S3150800AFB8EBD13846FFF712FB94F83430A4F856005C
S3150800AFC884F85890D3B1DDE909239B1A0B2B01D8CD
S3150800AFD84A46B6E70BA8FEF7ABFA0B9A12F8015BD6
S3150800AFE80B9201A90DF10A023846FFF72BFD2B46ED
S3150800AFF801AA21463046FFF74DF89DE72146304617
S3150800B008FEF75CFA98E72DE9F0410B78FF2B8EB02E
S3150800B018054604D0002630460EB0BDE8F081D1E9D1
S3150800B0280123991A0929F5D9CDE90423CDE9062377
S3150800B03804A801230893FFF7D1FA064604A8FFF7E0
S3150800B048CDFA804604A8FFF7C9FA069B074613F8FF
S3150800B058014B069304A8FFF7C1FA40F601439E423E
S3150800B068D8D195F85860002ED4D0B5F8563043454F
S3150800B078D0D1DDE906239B1A9C42CBD10028C9D139
S3150800B088AB69DB695B6A019301339BB29F42C1D105
S3150800B098142C11D809AF3C442246394604A8FFF7B0
S3150800B0A8D1FCED6E002DB6D06B68281DCDE902746B
S3150800B0B802A998472D68F5E70646ACE72DE9F04159
S3150800B0C891F83430032BACB005460C4602D1FFF78D
S3150800B0D855FC3BE0D1F8D4800CAF07AEB8F1000FA9
S3150800B0E822D103AA04AB01213846CDE90D320C92C8
S3150800B0F80F931091FEF707FA4FF47C413846FEF78E
S3150800B1081DFA41463846FEF7FEF90E9B0C9A0E9232
S3150800B118CDE90723E0680F9396E8060004F096FF42
S3150800B12804F1D40000F099FC0DF1AF08CDE90778D1
S3150800B138E16896E80C0001A805F01AFA9DF80830A7
S3150800B14843B9203494E8030085E8030028462CB060
S3150800B158BDE8F081019B3B44CDE90773214696E893
S3150800B1680C0003A8FEF796FD9DF81830002BDDD0D5
S3150800B17803A904F17000FFF7BFFA03A92046FFF7F1
S3150800B18899FB28B1002221462846FEF7DFFFDDE7AE
S3150800B19803A92046FFF737FF03A92046FFF78AFBCE
S3150800B1A803A92046FFF72CFC38B104F1D40000F0B7
S3150800B1B854FC04F1DC0000F050FC9DF80C300E2B12
S3150800B1C814D1DDE9042309A8CDE90723CDE9092324
S3150800B1D801230B93FEF7ACF93046FFF7FFF9B0F5F4
S3150800B1E87C4F03D104F1DC0000F037FCD4F8DC30DE
S3150800B1F853B904F1200292E8030004F1280383E80E
S3150800B20803002146284662E7024B2B6000236B6041
S3150800B2189CE700BFC5B0000810B5044648B1C06928
S3150800B22808B100F065FC20462821BDE8104000F06A
S3150800B23861BC10BD10B50446006808B1FFF7ECFFFD
S3150800B248204610BD2DE9F04F0446A9B016460D460E
S3150800B25800F002FA724B2360724B2363724BA363A6
S3150800B268724BC4E91134724BC4E903560025C4E984
S3150800B2781334C4F85650C4F85A50C4F85E502946D0
S3150800B288C4E90555C4E90855C4E90A5584F834508B
S3150800B29884F83C5084F8405084F8555084F858503F
S3150800B2A884F85C5084F8605004F1640000F0D2FB1E
S3150800B2B8E168E56604F17000FEF70CFB192104F154
S3150800B2C8D40000F0C7FB332104F1DC0000F0C2FB10
S3150800B2D810AF07A8A4F8E45007F04CFA29466022EC
S3150800B2E83846DDE907980EF0A3FD42F6292342F60B
S3150800B2F82422ADF862202169ADF8423001200223E4
S3150800B30842F625228DF860008DF880008DF85530B4
S3150800B3188DF87530ADF882208DF895308DF8400097
S3150800B328D1E900239B1A8DF85430D1E90023CDE9D9
S3150800B3381623D1E902239B1A8DF87430D1E9023213
S3150800B348CDE91E32A8EB090329468DF894308DF805
S3150800B3582C0041F60A0310220CA8CDE92698ADF868
S3150800B3682E300EF065FD28AB282009970A9300F0C1
S3150800B378B3FB0DF12408834698E803000DF1080A83
S3150800B3888AE803000DF1380999E803008DE80300F7
S3150800B3980BAF97E80E005846FEF71EFA6369C4F81D
S3150800B3A814B0384609930B951036FFF743FF404605
S3150800B3B8FFF740FF0FCEBC46ACE80F003368CCF861
S3150800B3C800301C4B0993282040330A9300F084FB6D
S3150800B3D8064698E803008AE8030099E803008DE81A
S3150800B3E80300304697E80E00FEF7F6F9A369A6614A
S3150800B3F83846099304AE0B95FFF71CFF4046FFF73E
S3150800B40819FF214630462A46FEF7A0FE96E80300AD
S3150800B41804F1200383E80300204629B0BDE8F08F2D
S3150800B42868A001081C9F01082C9F01083C9F010879
S3150800B4384C9F010888A0010838B50A4B03600446E2
S3150800B448C06E20B1056800F053FB2846F9E7606925
S3150800B458FFF7E2FEA069FFF7DFFE204600F0F3F8E3
S3150800B468204638BD68A0010810B50446FFF7E4FF72
S3150800B4782046E82100F03EFB204610BD0D4B10B5CE
S3150800B488044640F8503B00F08BFB04F1400002F0FC
S3150800B498EBFA04F1300002F0E7FA04F1200002F0B2
S3150800B4A8E3FA04F1100002F0DFFA204600F0CBF8C0
S3150800B4B8204610BDD0A0010810B50446FFF7DEFFE8
S3150800B4C82046742100F016FB204610BDC36850308C
S3150800B4D893F8401000F03CBB38B504460D4600F01A
S3150800B4E8BBF8134B236005F13002E560114904F1F6
S3150800B4F8100002F042FA05F138020F4904F120005B
S3150800B50802F008FA05F144020C4904F1300002F089
S3150800B5181AFA05F14C020A4904F1400002F013FA36
S3150800B5280222084904F1500000F020FB204638BDE5
S3150800B538D0A0010808BB010880B6010850B4010864
S3150800B54840B90108C4AE010870B5154604460E464A
S3150800B55801F50562296802F0F6F906F65C02A9689B
S3150800B56804F1100002F0EFF906F66402696804F1BE
S3150800B578200002F0E8F906F66C02296904F13000A1
S3150800B58802F0FBF906F67402E96804F1400002F0D5
S3150800B598F4F9204670BD10B50446403002F064FA46
S3150800B5A804F1300002F060FA04F1200002F05CFAB7
S3150800B5B804F1100002F058FA204602F055FA20461F
S3150800B5C810BD30B501249440013C1BB1012B17D09E
S3150800B5D8002030BD8568C368C1F140018A1A2DBAB2
S3150800B5E8C2F120001BBAA2F1200105FA00F023FADD
S3150800B5F802F2024325FA01F10A4304EA0200E8E7DF
S3150800B608D0E90235C1F12000A1F1200205FA00F0BF
S3150800B61823FA01F1014325FA02F2114304EA01006B
S3150800B628D7E7406870470020704780887047836866
S3150800B638994205D3C368994202D8416001207047E8
S3150800B648002070477047704710B50C21044600F073
S3150800B65851FA204610BD0000024A02600022C0E9DD
S3150800B6680122704710A1010838B5054655F8104F4C
S3150800B678AC4206D054F8043C201F9B6898472468B7
S3150800B688F6E738BD38B5054655F8104FAC4206D02A
S3150800B69854F8043C201FDB6898472468F6E738BD49
S3150800B6A838B5054655F8104FAC4206D054F8043C50
S3150800B6B8201F1B6998472468F6E738BD38B505463C
S3150800B6C855F8104FAC4206D054F8043C201F5B6965
S3150800B6D898472468F6E738BD10B50346002153F89D
S3150800B6E8042F934204D01468C2E900112246F8E7E9
S3150800B6F8C0E90133016010BD10B5054B044640F892
S3150800B7080C3BFFF7E9FF2046FFF79DFF204610BDD3
S3150800B71830A1010810B50446FFF7EEFF20461821A8
S3150800B72800F0E8F9204610BD10B5054B044640F868
S3150800B7380C3BFFF7D1FF2046FFF7DEFF204610BD7A
S3150800B74850A1010810B50446FFF7EEFF2046182158
S3150800B75800F0D0F9204610BD10B50446FFF77CFF67
S3150800B768044B23600023E36004F11003C4E904339F
S3150800B778204610BD30A1010843698B6010B50A1D23
S3150800B78800F110044C6042611A60C3680133C36053
S3150800B79810BDF8B50446054654F8103F00269C42E5
S3150800B7A80AD0181F1F68C3E9006603D053F8043C7B
S3150800B7B85B6898473B46F2E7C5E90444EE60F8BD7E
S3150800B7C810B50446FFF7C8FF014B2360204610BD95
S3150800B7D850A10108D0E901239B1A82B099423BBFC0
S3150800B7E8535C8DF80430002301238DF805309DF845
S3150800B7F80430002063F307009DF8053063F30F2033
S3150800B80802B0704700207047D0E90102101A704745
S3150800B818436818687047000038B5044600F06EF9A2
S3150800B8281D4D1E4925600C302246606004F108004B
S3150800B83802F096F800F062F9083004F11802E0619F
S3150800B8481749A56104F1200002F08AF800F056F9B4
S3150800B85804F13002C4E90C50124904F1380002F028
S3150800B8687FF800F04BF90430E06404F14802A56457
S3150800B8780D4904F1500002F073F80C4B23660C4B83
S3150800B88863660933A36604F160020A4904F16C0089
S3150800B89802F0C1F8204638BD70A1010890B7010822
S3150800B8A898B7010818BA010898B9010880A10108CB
S3150800B8B88CA1010880B9010810B504466C3002F05D
S3150800B8C8D3F804F1500002F0CFF804F1380002F07A
S3150800B8D8CBF804F1200002F0C7F804F1080002F0DA
S3150800B8E8C3F8204610BD00797047B0F904007047C0
S3150800B8F8002070478088704700797047C3680171CF
S3150800B9088360704719B9C368017183607047836893
S3150800B91823B1013B83600023037170470123FBE7CA
S3150800B928034A026000220271C0E90221704700BF7B
S3150800B938A0A10108124B13B51860124B1B6803F631
S3150800B9485453044643600830FFF73AFF04F12000D1
S3150800B958FFF736FF60680023E36384F8383023640A
S3150800B96803694FF47A715B6810309847064B60682C
S3150800B9786946CDE9003406F095F9204602B010BDAF
S3150800B988902000206C230020C9B9000838B5C36B7D
S3150800B9980133C36304464068836918301B689847AF
S3150800B9A894F8383005461BB104F10800FFF778FE0D
S3150800B9B86068836918301B689847401B206438BD3F
S3150800B9C84068FFF7E3BF000090F8383070B50446C2
S3150800B9D82BBB00F10806304604F12005FFF744FEA4
S3150800B9E82846FFF741FE0E4B186802F0EAFA304679
S3150800B9F8FFF748FE2846FFF745FE012384F8383046
S3150800BA082846FFF74DFE94F83830002BF8D1304613
S3150800BA18FFF754FE2846BDE87040FFF74FBE70BDD5
S3150800BA28A820002037B50446694600254068CDE9B0
S3150800BA38005506F037F904F12000FFF775FE04F102
S3150800BA480800FFF771FE024B20461D6003B030BDA3
S3150800BA5890200020C0E900117047436803607047CA
S3150800BA68C0E900117047436833B10268642050433F
S3150800BA78B0FBF3F398B270471846704708B5FFF756
S3150800BA88F2FFC0F1640080B208BD03680BB1013B40
S3150800BA98036070477047FEE708B50EF08DF958231E
S3150800BAA803604FF0FF3008BD094A1168013110B527
S3150800BAB8116041070749034618BF20F007030868BD
S3150800BAC818BF0833C4180C6091680B44936010BDFE
S3150800BAD89420002020200020FFF7E6BFFFF7E4BFE8
S3150800BAE8024A536801335360704700BF9420002008
S3150800BAF8FFF7F6BFFFF7F4BFFFF7F2BF0048704736
S3150800BB0894200020024B0349034A5B1AD360704706
S3150800BB18C07F00200C66002094200020FEE75B1AF0
S3150800BB2810B507D0121A05D0029C241A634393FB52
S3150800BB38F2F31944084610BD406870474160012071
S3150800BB48704700880B8898422CBF00200120704750
S3150800BB58037D2BB921B1C3697E2B9CBF0133C36111
S3150800BB68017570470023C3610375704710B50273E2
S3150800BB78084A0261084A81600023C0E90623C0E929
S3150800BB8800330375054B04460146186800F04EFC59
S3150800BB98204610BD2C9F0108E0A10108A42000201A
S3150800BBA810B5044B04460146186800F0D5FA204635
S3150800BBB810BD00BFA42000200C3000F0A2B8000079
S3150800BBC838B504460D46FFF747FD2046034B40F8AF
S3150800BBD80C3B294600F0ACF8204638BDF0A1010810
S3150800BBE810B5054B044640F80C3BFFF7D9FF20462D
S3150800BBF8FFF729FD204610BDF0A1010838B504460F
S3150800BC080D4600F0CFF805F614221C4904F1200069
S3150800BC1801F080FE05F61C22194904F1300001F0EE
S3150800BC289FFE05F62422174904F1400001F098FE04
S3150800BC3805F63C22144904F1500001F0DFFE05F62A
S3150800BC485822124904F1600001F0D8FE05F664226C
S3150800BC580F4904F1700001F0C4FE05F66C220D497F
S3150800BC6804F1800001F0CAFE05F674220A4904F1B7
S3150800BC78900001F08FFE204638BD00BF10BB0108B2
S3150800BC8898B4010880B50108E8B70108C0B80108E2
S3150800BC9800BB0108F8BA010818BB010810B5044624
S3150800BCA8903001F0E1FE04F1800001F0DDFE04F1B8
S3150800BCB8700001F0D9FE04F1600001F0D5FE04F128
S3150800BCC8500001F0D1FE04F1400001F0CDFE04F168
S3150800BCD8300001F0C9FE04F1200001F0C5FE04F1A8
S3150800BCE8100001F0C1FE204610BD10B504462430E8
S3150800BCF8FFF708FE94F828102046BDE81040FFF71D
S3150800BD0827BF10B50446FFF72DFF04F124000021CC
S3150800BD18BDE81040FFF7F2BD38B504461D46FFF7E3
S3150800BD2825FF294604F12400FFF7FAFD204638BD09
S3150800BD3838B50C4605460A790968FFF717FFA1685A
S3150800BD4805F12400FFF7ECFD284638BD426813685C
S3150800BD58103353600120704770B5054614262B68C2
S3150800BD6803F11002D3F8103A3BB106FB03236C68BB
S3150800BD789C4204D16A60002070BD1346F7E704F1B7
S3150800BD8814036B60204600F0CCF80028E7D0236837
S3150800BD9820461D8800F09BF845EAC070ECE7406825
S3150800BDA8FFF7DABF10B5074B01601031044641604A
S3150800BDB8C0E9023000F108020349103001F0D0FD4D
S3150800BDC8204610BD10A2010888B501080020704752
S3150800BDD84368D3F8100A7047002070474368D3F8B9
S3150800BDE8100A70474368D3F8102A91423CBF1422B8
S3150800BDF802FB013182B03DBF0B691B88ADF80430E0
S3150800BE08002338BF01238DF80630BDF8043000201A
S3150800BE1863F30F00BDF8063063F31F4002B070479E
S3150800BE284368D3F8100A704710B5D1E901431B1BBC
S3150800BE38B2EBA30F3BBF54F822300360002301235B
S3150800BE48037110BDD0E90103181A801070474068BD
S3150800BE5870470268142303FB01210160704700003C
S3150800BE6803460E4AD0F8101A70B543F8102B044644
S3150800BE78002561B11846013950F80C2F824204D0C2
S3150800BE881668C2E900553246F8E71433F1E7044B59
S3150800BE9820461960FFF7D7FB204670BD80A2010827
S3150800BEA8A420002010B50446FFF7DAFF204640F61E
S3150800BEB87C21FFF71FFE204610BDD1F8102A01F194
S3150800BEC8100312B1142101FB02330360704750F8BE
S3150800BED80C3F834203D01A7D12B91B68F9E7002282
S3150800BEE81046704707B54068D0F8103A8B4216D9FD
S3150800BEF81423103003FB0100FFF7E9FF01238DF82F
S3150800BF0804008DF805309DF80430002063F3070017
S3150800BF189DF8053063F30F2003B05DF804FB002392
S3150800BF28EFE750F80C3F0022834203D0D9691B6813
S3150800BF380A44F9E7104670474B68D3F8101A914235
S3150800BF4810B504460AD91033142000FB0230FFF74F
S3150800BF58E8FF012320602371204610BD0023FAE775
S3150800BF6838B5054655F80C4FAC4204D02046FFF7BD
S3150800BF78F9FD2468F8E738BD03790A7B934228BF98
S3150800BF881346037103694B6000F10C020A600161EC
S3150800BF981960836801338360704710B58B680A7B1C
S3150800BFA803600023836000F10C030271C0E90333C0
S3150800BFB8FFF7E2FF10BD02460423037152F80C3F4F
S3150800BFC870B50025934213D099420AD1D1E90046A3
S3150800BFD8346066608468013C8460C1E900551B6862
S3150800BFE8F0E71C7B0679B44228BF34460471F6E7A5
S3150800BFF870BD38B5D0F8103A00F110044BB11425C5
S3150800C00805FB0345A54204D02046FFF7A9FF1434CB
S3150800C018F8E738BDFFF7EDBF2DE9F84390F8183A69
S3150800C028044623B1002380F8183AFFF7E2FFD4F84C
S3150800C038107A002304F62C29C4F82C3AC4F8303AA6
S3150800C048C4F8343AC4F8383A04F64828C4F8483ADA
S3150800C058C4F84C3AC4F8503AC4F8543A04F11005EE
S3150800C068EFB1142303FB0757BD4218D028462E798B
S3150800C078FFF72DFF30B104EB8602D2F82C3A0133CC
S3150800C088C2F82C3A2846FFF74CFF30B104EB86066F
S3150800C098D6F8483A0133C6F8483A1435E4E704F6B8
S3150800C0A83C210023894503D059F8042B1344F9E7A2
S3150800C0B8C4F8203A04F658210023884503D058F8CE
S3150800C0C8042B1344F9E7C4F8283ABDE8F8830000B6
S3150800C0D8D1F8103A2DE9F34706468846174601F17E
S3150800C0E8100503B3142202FB03535B1B194A9B1062
S3150800C0F802FB03F92C46B9F1000F16DD4FEA690A67
S3150800C108514601A80194FFF7A4FE019B3946186811
S3150800C118FFF717FD28B1019CA9EB0A0A14340AF19E
S3150800C128FF3AD146E7E72B46DFE7D8F8103A13B1C6
S3150800C138142202FB0355AC4206D021683846FFF79D
S3150800C14800FD002818BF2C463046346002B0BDE80A
S3150800C158F08700BFCDCCCCCC37B58A6805460C46E7
S3150800C16801466846FFF7B4FF01A82946FFF7A5FE6A
S3150800C178DDE90003834202D02146FFF71CFF03B01E
S3150800C18830BD0000F8B50446FFF766FA224B23606F
S3150800C198224B234E1C60234BC4F8143A224BC4F88E
S3150800C1A81C3A0025C4F8243A102704F62C233A46E4
S3150800C1B82946C4F8105A84F8185AC4F8205AC4F8F4
S3150800C1C8285A18460DF034FE04F63C23C4F8443AB7
S3150800C1D804F64823C4F8400AC4F83C6A3A4629468D
S3150800C1E818460DF025FE04F65823C4F8603A0F4B96
S3150800C1F8C4F8643A0E4BC4F86C3A0E4BC4F85C0A99
S3150800C208C4F8586AC4F8684AC4F8704AC4F8743A4C
S3150800C218C4F8784A2046F8BD80A20108A420002060
S3150800C22830A201082C9F010820A2010844A201088F
S3150800C23858A201086CA201088142F0B524D0026808
S3150800C2480B680AB9C0E900000BB9C1E90011D1E9C0
S3150800C2580064D0E900C57768DCF804E0CCF8047017
S3150800C268C6F804E027682E682F60266004680D68FB
S3150800C27805600C604D68446845604C600AB9C1E9B8
S3150800C28800220BB9C0E90033F0BD00002DE9F843D8
S3150800C29880460E461746104608F10C054FF0000969
S3150800C2A8A5F10C039E4200F1140419D055F80C3C6C
S3150800C2B844F8143C15F8083C0371C0F808900C308B
S3150800C2C844E902002946FFF7B7FF55F8042C54F845
S3150800C2D80C3C44F80C2C143545F8183C2046DFE786
S3150800C2E8A6EB08060448B608464326F04046142036
S3150800C2F800FB0670BDE8F883CDCCCC0C38B50B68C6
S3150800C30803600B7903710023044683600D460C30DD
S3150800C318C4E903000C31FFF78FFFA368AA68A26077
S3150800C3282046AB6038BD00002DE9F84F00230360AE
S3150800C3380371D1F8003A80460E461746EBB14FF01E
S3150800C348140909FB0319A9EB0605AB10364D344643
S3150800C3585D431423ADB14FEA550A03FB0AF239685F
S3150800C368A05804EB020BFFF7ECFB142338B1013D88
S3150800C378A5EB0A050BEB0304ECE78946E3E7554604
S3150800C388E8E7A14508D1D6F8002A0123802A88F8C3
S3150800C39804300ED10DF002FD21683868FFF7D1FB8D
S3150800C3A80028F0D188F80450C8F800404046BDE88F
S3150800C3B8F88F142303FB0262944209D139462046B2
S3150800C3C8FFF79CFFD6F8003A0133C6F8003AEBE7C0
S3150800C3D8A2F1140511462846FFF758FFD6F8003A81
S3150800C3E80133C6F8003AAC420FD055F8143D6B61D4
S3150800C3F82B792B7605F10C0105F12000FFF71CFFB8
S3150800C408EB69AA68EA61AB60EDE73B6823603B79AC
S3150800C418237107F10C0104F10C00FFF70DFFA3685F
S3150800C428BA68A260BB60BFE7CDCCCCCC30B589B0C2
S3150800C4388A6804460D4601466846FFF749FE2146BE
S3150800C44803A8FFF73AFD0098039B8342294603D0C1
S3150800C458FFF792FD09B030BD03A8FFF79EFD03AAB2
S3150800C46801A804F11001FFF75FFF069B06A8002242
S3150800C4788342EFD01968C3E900220B46F8E7B0F9FA
S3150800C48804007047002070474068704700207047CE
S3150800C49800797047002070474368988A7047B0F952
S3150800C4A804007047818001207047007F012802D068
S3150800C4B8031F58425841704790F8E43023B9034B94
S3150800C4C81B6893F8E4017047002070477023002022
S3150800C4D84068FFF7F1BF0000044BC0681B689B68FB
S3150800C4E803EB5003B3FBF0F0704700BF702300203E
S3150800C4F84068FFF7F1BF000011B9C1600120704715
S3150800C508064B1B689B68B1EB430F05D803EB510331
S3150800C518B3FBF1F3C360F1E70020704770230020EE
S3150800C5284068FFF7E9BF0000044B00691B689B6871
S3150800C53803EB5003B3FBF0F0704700BF70230020ED
S3150800C5484068FFF7F1BF000021B90161C0F88C10F7
S3150800C55801207047094B1B689B68B1EB430F0BD842
S3150800C56803EB5103B3FBF1F1838A016159434FF495
S3150800C5787A73B1FBF3F1E9E70020704770230020CE
S3150800C5884068FFF7E1BF037F032B0BD1B1F57A7F2C
S3150800C59808D8B0F892308B4228BF0B46A0F89430DA
S3150800C5A801207047002070474068FFF7ECBFB1F5D7
S3150800C5B87A7F036928BF4FF47A7181824B434FF417
S3150800C5C87A71B3FBF1F3C0F88C30012070474068E4
S3150800C5D8FFF7EDBF0B4B0C491A6802F12803C31A7B
S3150800C5E8DB104B4302EB83024FF4FA635269534359
S3150800C5F8A3F50C43A03B5200B3FBF2F3A0F8923024
S3150800C608704700BF70230020DF7BEFBD124B70B563
S3150800C6181D686A6842F20F740A2342F2107103FB16
S3150800C6280242B2FBF1F2C0F8BC206A68642606FB2F
S3150800C6380242B2FBF1F2C0F8CC206A6806FB024255
S3150800C648B2FBF1F2C0F8DC206B6806FB0343B3FBC8
S3150800C658F1F3C0F8EC3070BD70230020006805F0CF
S3150800C668A9BA006805F0A0BA037A10B50BB1C1F5E6
S3150800C6787A71094B44681B6803F12802801A074A2D
S3150800C688C010504303EB80035B6959434FF47A7330
S3150800C698B1FBF3F1216010BD70230020DF7BEFBDED
S3150800C6A80B4B0C491A6802F12803C31ADB104B43D3
S3150800C6B802EB8302017A436852691B6801B1D31AEF
S3150800C6C84FF47A705843B0FBF2F080B2704700BF57
S3150800C6D870230020DF7BEFBD4068FFF7E1BF38B560
S3150800C6E800250446C0E93C55C0E92655C0E9285541
S3150800C6F8C0E92A552946C030FFF700F9294604F14A
S3150800C708D000BDE83840FFF7F9B80023C0E926335A
S3150800C718C0E92833C0E92A337047000082B0F0B56B
S3150800C728D0E927548D42069364DD491B067F022EFD
S3150800C73865D0A6F1050CDCF1000646EB0C060029C7
S3150800C748D4BF00270127B6EBD17F0CBF01FB01F345
S3150800C7580023B7426FF41C7633440CBF49430021C3
S3150800C768002BD0F8A8604CDA334423EAE373C0F800
S3150800C778A8306FF41C7319440029D0F8AC3048DA8D
S3150800C788194421EAE171274B079E1B68C0F8AC10CB
S3150800C798DF69069B9642A8BF1646711B9A42B8BF20
S3150800C7A81A46002943F6FF73B8BF494207FB013109
S3150800C7B80029B8BFC91805EBA135131BB542D4BF64
S3150800C7C8C0F89C50C0F89C60002BB8BF5B4243F683
S3150800C7D8FF7107FB0313002BB8BF5B18A4EBA33341
S3150800C7E8BDE8F0409342ACBFC0F8A030C0F8A0201E
S3150800C7F802B07047A142CCBF091B002196E7012663
S3150800C8089DE76FF00047BF1B9F42D4BFF319F31883
S3150800C818ADE76FF00046F61A8E42D4BF9919591833
S3150800C828B1E700BF70230020D0E92A301844054B29
S3150800C8381B689A6940F2712353439842D4BF002073
S3150800C8480120704770230020D0F8F43002690133BC
S3150800C8589342C0F8F43021BF0023C0F8F43001230E
S3150800C86880F89030D0F8F420D0F88C309A4224BF5B
S3150800C878002380F890307047D0F8F020F8B5C568DE
S3150800C8880132AA4228BF0023C0F8F02028BFC0F802
S3150800C898F03004460F46FFF708FEB4F9506048B36F
S3150800C8A8724294F890300BB9216971BB05B3002E12
S3150800C8B8636BB8BF76427343B3FBF7F14FF47A73E9
S3150800C8C86943B1FBF3F16B1E9942A8BF1946B4F93F
S3150800C8D82C30B342A8BF334600B15B42D4F8F00007
S3150800C8E8884209DAC1EB4000434393FBF1F10A4455
S3150800C8F81046F8BD3246D4E76D1A411AA5EB410130
S3150800C9084B4393FBF5F31A44F2E71A46F0E700009F
S3150800C9182DE9F04F164687B004468846FFF794FF78
S3150800C9283146FFF7A9FF6B4B1A68074695685268A0
S3150800C9380A20B5FBF0FAB2FBF0F25245A8BF5246F8
S3150800C94840F6B8331825204641F288315A4305FB84
S3150800C9580AF5B2FBF1F24FEA8A13B5FBF1F5039231
S3150800C968B3FBF1F10291FFF7A0FD0028606B02996D
S3150800C978039A4FF47A7300FB07F090FBF3F0D4F8A8
S3150800C988A43014BFB1464FF00009A7EB080C4B4377
S3150800C99840F6B83ED4F8981048BFFF3305FB0CF5A7
S3150800C9A80EFB0AFE05EB232302FB0C12CEF100054B
S3150800C9B8AA42A8EB070B4844C4F8A43003DB9645FB
S3150800C9C87546A8BF15460344C4F8985095FBFAF56A
S3150800C9D82B444FF47A755D4395FBF6F3B3F57A7FE6
S3150800C9E805DDBBF1000F07DAC4F8981004E0002B40
S3150800C9F802DABBF1000FF7DCB4F892509D42A8BFE3
S3150800CA081D4625EAE575A9B22046FFF72DFE2046FC
S3150800CA180121FFF726FE207F626BB4F892300228C0
S3150800CA284AD005284FEA420C46D04FF6184116FB5D
S3150800CA3801F1A3F57A7391FBFCF104914FF47A712D
S3150800CA487343520893FBF1F34B4393FBF2F30593B5
S3150800CA58059B00933A464146049B2046FFF75EFE2F
S3150800CA68616B4FF47A7301FB07F8754398FBF3F784
S3150800CA7895FBF3F5FFF719FDA5EB09097F004FF4B8
S3150800CA88FA6318B3394698FBF3F7A1F5FA714945DD
S3150800CA98D4BF0021012104F1C000FEF733FF07F5D2
S3150800CAA8FA774F45ACBF0021012104F1D00007B041
S3150800CAB8BDE8F04FFEF726BF002104914FF47A71BE
S3150800CAC87343520093FBF1F34B43BEE798FBF3F12C
S3150800CAD8DBE700BF702300202DE9F04105460E4626
S3150800CAE81746FFF7B1FEB0F9504034B190F89040B8
S3150800CAF81CB90469B4FA84F464092846FFF7D5FC16
S3150800CB08844214BFB5F89210002180462846FFF7DC
S3150800CB18ABFD01212846FFF7A4FD2846FFF7F5FDDA
S3150800CB28FFF7C3FC444514BF3C460024002808BF49
S3150800CB380027E41B4FF47A73696B5C4394FBF1F4A2
S3150800CB4804EBD4777F106400A7423946B8BF21465C
S3150800CB583231B142ACBF0021012105F1C000FEF710
S3150800CB68D1FEBC42A8BF3C46A4F13201B14205F148
S3150800CB78D000D4BF00210121BDE8F041FEF7C2BEAE
S3150800CB88134B1B6870B504469E68FFF789FD054672
S3150800CB982046FFF763FDB4F89420B0B10D4BB3FBFC
S3150800CBA8F6F3E91A8A4203DB59199142A8BF1146D6
S3150800CBB8204689B2FFF758FD20460121FFF751FDA7
S3150800CBC82046BDE87040FFF78ABD1146F0E700BF6A
S3150800CBD87023002040420F00F8B5A1F5006140F621
S3150800CBE8C4154D4348BF05F2FF7504461646ED12AF
S3150800CBF8FFF75BFC002838D06B421BB205F6CA0162
S3150800CC08A4F8683041F29413994204F1B00794BF26
S3150800CC18002101213846FEF775FE1EB9012138465E
S3150800CC28FEF76CFE94F848300BBB00212046FFF748
S3150800CC3818FD237F032B00F086804FF4FA712046EF
S3150800CC48FFF712FD2046FFF74AFD002DB8BF6D42D3
S3150800CC58182D77DC94F8B430002B73D104F1E00072
S3150800CC680121BDE8F840FEF74DBE2BB2C6E794F899
S3150800CC78E460002ED9D0237F5A1E012A0BD91A1F21
S3150800CC88012A46D8314B1B682946B3F9AC212046F8
S3150800CC98FFF722FF07E02D4B1B682946B3F9AC219D
S3150800CCA82046FFF735FE2046FFF7BEFD50B1D4E90A
S3150800CCB82A320A2192FBF1F0834235DA062384F8F0
S3150800CCC87830002694F8B4301BB1032384F87830FA
S3150800CCD8002694F8C4301BB1022384F8783000265D
S3150800CCE894F8D4303BB3012384F87830002104F152
S3150800CCF8E000FEF703FE237F032B0CBFB4F894303D
S3150800CD08B4F95030C4F88030B4F86830A4F88830DC
S3150800CD1813E0032B03D12046FFF732FFC3E70723A7
S3150800CD2884F878300026BEE793FBF1F39342CCBF2C
S3150800CD3805230423C3E7002ED8D094F8E430002B43
S3150800CD483FF473AFF8BDB4F8941078E77023002061
S3150800CD5838B5C0E900120372324A4FF47A730025CF
S3150800CD688382314B8361C0E90C25304B304A0577FD
S3150800CD78C0E90830C0E90F202E4B2F4A8362426467
S3150800CD88C3642E4A2E4B8585C0E91530C0E91B2099
S3150800CD982C4B2D4A42672D4A80F84850C0E917306F
S3150800CDA82B4BA0F850504366A0F8685080F8785086
S3150800CDB8C0E90355C0E91F25C0F8843040F2DE33C0
S3150800CDC8A0F892304FF4FA730446A0F89430A0F805
S3150800CDD88850C0F88C5080F89050C0E92655C0E9AC
S3150800CDE82855C0E92A552946B030FEF799FD29463F
S3150800CDF804F1C000FEF794FD294604F1D000FEF7B9
S3150800CE088FFD294604F1E000FEF78AFD2068C4E98B
S3150800CE183C5504F021FE2068294604F0C5FE204644
S3150800CE2838BD00BFE0A101081C9F0108B0A201088F
S3150800CE38D0A20108C0A201082C9F010800A3010876
S3150800CE48E0A20108F0A2010810A3010820A301081E
S3150800CE58A0A2010813B5D0E901430F4A1B1BDB1032
S3150800CE685343994216D2F82000FB014084300368E0
S3150800CE781B6898470123ADF804008DF80630BDF8FD
S3150800CE880430002063F30F00BDF8063063F31F4033
S3150800CE9802B010BD0023F0E7DF7BEFBDD0E9010340
S3150800CEA81B1A0248DB105843704700BFDF7BEFBDEB
S3150800CEB810B50446D1E9010309491B1ADB104B438F
S3150800CEC89A420BD2F82303FB02007C3003681B68DE
S3150800CED89847012320602371204610BD0023FAE7EE
S3150800CEE8DF7BEFBD00207047D0E901031B1A024813
S3150800CEF8DB105843704700BFDF7BEFBD13B5D0E999
S3150800CF0801430F4A1B1BDB105343994216D2F820DC
S3150800CF1800FB0140743003681B68984701238DF8A5
S3150800CF2804008DF805309DF80430002063F30700E7
S3150800CF389DF8053063F30F2002B010BD0023F0E713
S3150800CF48DF7BEFBDD0E901031B1A0248DB10584303
S3150800CF58704700BFDF7BEFBD13B5D0E901430F4A21
S3150800CF681B1BDB105343994216D2F82000FB0140DD
S3150800CF786C3003681B68984701238DF804008DF800
S3150800CF8805309DF80430002063F307009DF8053046
S3150800CF9863F30F2002B010BD0023F0E7DF7BEFBD77
S3150800CFA8D0E901031B1A0248DB105843704700BF33
S3150800CFB8DF7BEFBD13B5D0E901430F4A1B1BDB1016
S3150800CFC85343994216D2F82000FB0140643003689F
S3150800CFD81B6898470123ADF804008DF80630BDF89C
S3150800CFE80430002063F30F00BDF8063063F31F40D2
S3150800CFF802B010BD0023F0E7DF7BEFBDD0E90103DF
S3150800D0081B1A0248DB105843704700BFDF7BEFBD89
S3150800D01813B5D0E901430F4A1B1BDB10534399424A
S3150800D02816D2F82000FB01405C3003681B68984755
S3150800D0380123ADF804008DF80630BDF80430002049
S3150800D04863F30F00BDF8063063F31F4002B010BD46
S3150800D0580023F0E7DF7BEFBD70B4D0E90164094D22
S3150800D068A41BE4106C43A14208D2F82000FB016017
S3150800D0785C30036811465B6870BC1847002070BCB2
S3150800D088704700BFDF7BEFBDD0E901031B1A0248D2
S3150800D098DB105843704700BFDF7BEFBD13B5D0E9F7
S3150800D0A801430F4A1B1BDB105343994216D2F8203B
S3150800D0B800FB0140543003681B6898470123ADF804
S3150800D0C804008DF80630BDF80430002063F30F001D
S3150800D0D8BDF8063063F31F4002B010BD0023F0E721
S3150800D0E8DF7BEFBD70B4D0E90164094DA41BE410D9
S3150800D0F86C43A14208D2F82000FB0160543003684B
S3150800D10811465B6870BC1847002070BC704700BFA2
S3150800D118DF7BEFBDD0E901031B1A0248DB10584331
S3150800D128704700BFDF7BEFBD13B5D0E901430F4A4F
S3150800D1381B1BDB105343994216D2F82000FB01400B
S3150800D1484C3003681B6898470123ADF804008DF82E
S3150800D1580630BDF80430002063F30F00BDF806302A
S3150800D16863F31F4002B010BD0023F0E7DF7BEFBD75
S3150800D17870B4D0E90164094DA41BE4106C43A142BC
S3150800D18808D2F82000FB01604C30036811465B683A
S3150800D19870BC1847002070BC704700BFDF7BEFBD26
S3150800D1A8D0E901031B1A0248DB105843704700BF31
S3150800D1B8DF7BEFBD13B5D0E901430F4A1B1BDB1014
S3150800D1C85343994216D2F82000FB014044300368BD
S3150800D1D81B68984701238DF804008DF805309DF8DB
S3150800D1E80430002063F307009DF8053063F30F2029
S3150800D1F802B010BD0023F0E7DF7BEFBD70B4D0E9BD
S3150800D2080164094DA41BE4106C43A14208D2F82016
S3150800D21800FB01604430036811465B6870BC184718
S3150800D228002070BC704700BFDF7BEFBDD0E9010363
S3150800D2381B1A0248DB105843704700BFDF7BEFBD57
S3150800D24810B50446D1E9010309491B1ADB104B43FB
S3150800D2589A420BD2F82303FB02003C3003681B688A
S3150800D2689847012320602371204610BD0023FAE75A
S3150800D278DF7BEFBD70B4D0E90164094DA41BE41047
S3150800D2886C43A14208D2F82000FB01603C300368D1
S3150800D29811465B6870BC1847002070BC704700BF11
S3150800D2A8DF7BEFBDD0E901031B1A0248DB105843A0
S3150800D2B8704700BFDF7BEFBD10B50446D1E901030F
S3150800D2C809491B1ADB104B439A420BD2F82303FB76
S3150800D2D80200303003681B689847012320602371D1
S3150800D2E8204610BD0023FAE7DF7BEFBD70B4D0E90E
S3150800D2F80164094DA41BE4106C43A14208D2F82026
S3150800D30800FB01603030036811465B6870BC18473B
S3150800D318002070BC704700BFDF7BEFBDD0E9010372
S3150800D3281B1A0248DB105843704700BFDF7BEFBD66
S3150800D33813B5D0E901430F4A1B1BDB105343994227
S3150800D34816D2F82000FB0140283003681B68984766
S3150800D3580123ADF804008DF80630BDF80430002026
S3150800D36863F30F00BDF8063063F31F4002B010BD23
S3150800D3780023F0E7DF7BEFBD70B4D0E90164094DFF
S3150800D388A41BE4106C43A14208D2F82000FB0160F4
S3150800D3982830036811465B6870BC1847002070BCC3
S3150800D3A8704700BFDF7BEFBDD0E901031B1A0248AF
S3150800D3B8DB105843704700BFDF7BEFBD10B5044646
S3150800D3C8D1E9010309491B1ADB104B439A420BD2D0
S3150800D3D8F82303FB0200203003681B6898470123DB
S3150800D3E820602371204610BD0023FAE7DF7BEFBDD6
S3150800D3F870B4D0E90164094DA41BE4106C43A1423A
S3150800D40808D2F82000FB01602030036811465B68E3
S3150800D41870BC1847002070BC704700BFDF7BEFBDA3
S3150800D428D0E901031B1A0248DB105843704700BFAE
S3150800D438DF7BEFBD13B5D0E901430F4A1B1BDB1091
S3150800D4485343994216D2F82000FB01401830036866
S3150800D4581B68984701238DF804008DF805309DF858
S3150800D4680430002063F307009DF8053063F30F20A6
S3150800D47802B010BD0023F0E7DF7BEFBD70B4D0E93A
S3150800D4880164094DA41BE4106C43A14208D2F82094
S3150800D49800FB01601830036811465B6870BC1847C2
S3150800D4A8002070BC704700BFDF7BEFBDD0E90103E1
S3150800D4B81B1A0248DB105843704700BFDF7BEFBDD5
S3150800D4C8544B70B501F1280601F590750446C0E974
S3150800D4D800368560024650490C3000F09CFA4F4BDE
S3150800D4E86562C4E9073604F11C024D4904F12800AF
S3150800D4F800F084FA4B4B2564C4E90E3604F1380269
S3150800D508494904F1440000F052FA484BE565C4E974
S3150800D518153604F15402464904F1600000F06EFA23
S3150800D528444BA567C4E91C3604F17002424904F164
S3150800D5387C0000F063FA414BC4F89450C4E92336DA
S3150800D54804F18C023E4904F1980000F023FA3D4B99
S3150800D558C4F8B050C4E92A3604F1A8023A4904F1D5
S3150800D568B40000F024FA394BC4F8CC50C4E9313673
S3150800D57804F1C402364904F1D00000F032FA354BFA
S3150800D588C4F8E850C4E9383604F1E002324904F12F
S3150800D598EC0000F026FA314BC4F80451C4E93F36CA
S3150800D5A804F1FC022E4904F5847000F000FA2D4BAC
S3150800D5B8C4F82051C4E9463604F58C722A4904F59C
S3150800D5C8927000F0E7F9294BC4F83C51C4E94D3686
S3150800D5D804F59A72264904F5A07000F01CFA254B42
S3150800D5E8C4F85851C4E9543604F5A872224904F512
S3150800D5F8AE7000F0E9F9214BC4F87451C4E95B36FA
S3150800D60804F5B6721E4904F5BC7000F0D0F9204638
S3150800D61870BD00BF30A3010808B9010844A3010872
S3150800D62890BA010858A3010888BA01086CA301082A
S3150800D638E0BA010880A30108A0BA010894A3010862
S3150800D64868B90108A8A3010868BA0108BCA30108B3
S3150800D65898BA0108D0A30108D8B90108E4A30108B3
S3150800D668A0B90108F8A30108A8B901080CA401087B
S3150800D67858BA010820A40108B0BA010834A4010858
S3150800D688B8BA010810B5044600F5BC7000F0ECF904
S3150800D69804F5AE7000F0E8F904F5A07000F0E4F9B6
S3150800D6A804F5927000F0E0F904F5847000F0DCF9EE
S3150800D6B804F1EC0000F0D8F904F1D00000F0D4F930
S3150800D6C804F1B40000F0D0F904F1980000F0CCF9A0
S3150800D6D804F17C0000F0C8F904F1600000F0C4F910
S3150800D6E804F1440000F0C0F904F1280000F0BCF980
S3150800D6F804F10C0000F0B8F9204610BD10B5044630
S3150800D7080846636811462278FDF75BFF237A2BB132
S3150800D71823785A1E012393405840C01A10BD82899F
S3150800D7286AB14369994203DB83698B42A8BF0B46F2
S3150800D738B0F90A104B43016993FBF2F319440846FA
S3150800D748704743698B4205DC80698842B4BF00206C
S3150800D758012070470020704770B50D4604461146EB
S3150800D76828461A46FFF7CAFFD5E90731024603EBEA
S3150800D778C1018B42184609D053F8086B9642F8D16E
S3150800D7884368236001232371204670BD1146284645
S3150800D798FFF7D7FF20B12846FFF7C1FF2060F1E75A
S3150800D7A82071F1E74161704703691A7B42641B6976
S3150800D7B84361704703691B694361704710B504469E
S3150800D7C801211830FEF791FA94F82C3013B1236921
S3150800D7D81B69636110BD000013B50C4B0C4A036046
S3150800D7E8C3680446CDE900206946D86803F03FFEB9
S3150800D7F804F14C00FEF7D4F904F11800FEF7D0F945
S3150800D8082046FDF720FF204602B010BD48A40108AF
S3150800D8187FD8000810B50446FFF7DEFF20467021BA
S3150800D828FEF768F9204610BD37B5044600690A466A
S3150800D838037D00F118016846FFF78EFF9DF804304E
S3150800D84804F14C0583B1236800999B6920469847DB
S3150800D85828460021FEF77CF9002104F1180003B0D8
S3150800D868BDE83040FEF741BA0121284603B0BDE8B5
S3150800D8783040FEF76DB94068FFF7D6BF7FB5044656
S3150800D88815460E46FDF7E8FEC4E90365164B236000
S3150800D8982B6963616B7BAA7BA96804F11800FEF7FC
S3150800D8A83BFAAA7B696804F14C00FEF75FF90F4A50
S3150800D8B8E068D5E90F31CDE90224019A23F000433F
S3150800D8C802F000421A43009B019203F0004321F03C
S3150800D8D800421343009301AA6B4602A902F042FFCD
S3150800D8E8204604B070BD00BF48A401087FD80008C8
S3150800D8F8034B1868D0F8143400F214401B6818470C
S3150800D908A8200020024B0146186800F0B6BC00BFE4
S3150800D918A820002010B50023838104460160826090
S3150800D9284360C381FFF7EEFF204610BD10B50523F7
S3150800D938436000238381044601608260C381FFF740
S3150800D948E1FF204610BD10B50223436000238381FA
S3150800D958044601608260C381FFF7D4FF204610BDE4
S3150800D96810B503234360002383810446016082605F
S3150800D978C381FFF7C7FF204610BD10B501234360D2
S3150800D98800238381044601608260C381FFF7BAFFDA
S3150800D998204610BD10B5072343600023838104463B
S3150800D9A801608260C381FFF7ADFF204610BD10B540
S3150800D9B80C23436000238381044601608260C38187
S3150800D9C8FFF7A0FF204610BD10B50D2343600023BE
S3150800D9D88381044601608260C381FFF793FF20466E
S3150800D9E810BD10B5092343600023838104460160EE
S3150800D9F88260C381FFF786FF204610BD10B50A234B
S3150800DA08436000238381044601608260C381FFF76F
S3150800DA1879FF204610BD10B508234360002383818B
S3150800DA28044601608260C381FFF76CFF204610BD7B
S3150800DA3810B50468FFF75CFF2044807810BD10B560
S3150800DA480468FFF755FF2044007910BD03689B79E1
S3150800DA580BB1FFF7F4BF184670470368D8439842D6
S3150800DA68B8BF184670470000074B10B5014604466C
S3150800DA78186800F0F3FA201DFFF7EFFF0D2801D903
S3150800DA880CF08CF9204610BDA820002073B506991D
S3150800DA9804460D2A00F28180DFE802F00C0C0C0C13
S3150800DAA80C0C0C1D1D326C45596C0023204623713D
S3150800DAB802B070BD1E680D683068FFF7B9FF002808
S3150800DAC8F3D07368002BF0D12B6828461B68984753
S3150800DAD820600123EAE71E680D683068FFF7A8FF8B
S3150800DAE80028E2D02B6871681B682846984710F406
S3150800DAF87F4FADF80000D8D09DF800302360E8E7DE
S3150800DB081E680D683068FFF793FF0028CDD02B688C
S3150800DB1871681B682846984710F47F0F0090C4D090
S3150800DB28BDF80030EAE71E680D683068FFF780FF21
S3150800DB380028BAD02B6871681B682846984710F4DD
S3150800DB487F4FADF80000B0D09DF90030D6E71E68C3
S3150800DB580D683068FFF76CFF0028A6D02B68716837
S3150800DB681B682846984710F47F0F00909DD0BDF98A
S3150800DB780030C3E71E680D683068FFF759FF0028AC
S3150800DB8893D02B6872681B682946684698479DF89B
S3150800DB980430002B89D0009BB0E70CF0FFF830B5AD
S3150800DBA88BB0054608AB081D0C46CDE90812079345
S3150800DBB8FFF753FF0023CDE903338DF808308DF8B6
S3150800DBC8043004F108030093024607AB2846616847
S3150800DBD8FFF75CFF28460BB030BD70B50D2900F27B
S3150800DBE8D580DFE811F00E00250036006B004A00E4
S3150800DBF85B006B007D0090009C00C400AC00B80078
S3150800DC08C40014681D682068FFF719FF002800F08B
S3150800DC18BF806368002B40F0BB80A36819682B682F
S3150800DC2800315B6818BF01212846BDE870401847CF
S3150800DC3814681D682068FFF702FF002800F0A8800E
S3150800DC486368002B40F0A480A2682B6811785B688B
S3150800DC58EAE714681D682068FFF7F1FE002800F057
S3150800DC6897806368002B40F09380A2682B68118818
S3150800DC785B682846BDE87040184714681D68206820
S3150800DC88FFF7DDFE002800F083806368002B7FD14C
S3150800DC98A2682B6892F900105B68C5E714681D68C6
S3150800DCA82068FFF7CCFE002872D06368002B6FD176
S3150800DCB8A2682B68B2F900105B68DAE714681D6871
S3150800DCC82068FFF7BCFE002862D06368002B5FD186
S3150800DCD8A2682B6811685B682846BDE87040184733
S3150800DCE814681D682068FFF7AAFE002850D0A368A4
S3150800DCF81A682B6800325B6818BF012261682846D3
S3150800DD08BDE87040184714681D682068FFF797FE35
S3150800DD1800283DD0A2682B6812785B68EEE714687D
S3150800DD281D682068FFF78BFE002831D0A2682B688B
S3150800DD3812885B6861682846BDE870401847146809
S3150800DD481D682068FFF77BFE10B3A2682B6892F956
S3150800DD5800205B68D2E714681D682068FFF76FFE25
S3150800DD68B0B1A2682B68B2F900205B68E2E71468CC
S3150800DD781D682068FFF763FE50B1A2682B686168C2
S3150800DD885B6812682846BDE8704018470CF006F824
S3150800DD98002070BD30B589B00446CDE9050105AB4C
S3150800DDA8043007920493FFF758FE0023CDE902339F
S3150800DDB88DF804308DF80030014604F1080304AAEA
S3150800DDC86068FFF70AFF054638B12046FFF73EFEAA
S3150800DDD818B1A38901339BB2A381284609B030BD7F
S3150800DDE8036803EB810101607047000010B5EFF383
S3150800DDF81083DB4303F0010372B6B1F8502CB1F86F
S3150800DE08524C92B2A24208D1B1F8542CB1F8564CE9
S3150800DE1892B2A2420DD10B4A05E0A1F8522C012272
S3150800DE2881F8582C084A02600022426043B162B65B
S3150800DE3810BDA1F8562C012281F8582C034AF2E79E
S3150800DE4872B6F5E7F5DD0008D9DE000889DE0008B0
S3150800DE58D1F8342C074B9A4208D1D1F8383C2BB95B
S3150800DE68054A81F8583C026043607047034B0360D3
S3150800DE780023F9E7453B0108F5DD000859DE0008E7
S3150800DE8838B5D1F8342C0A4B9A4204460BD1D1F846
S3150800DE98385C45B901F21C4005F002FF054BC4E998
S3150800DEA80035204638BD044B236000236360F8E735
S3150800DEB8453B010859DE000889DE0008D1F8102418
S3150800DEC801F110030AB103EB8203036070470000EF
S3150800DED8D1F8342C154B9A4273B504460D4601F20F
S3150800DEE81C4602D1D1F8383C0BB1114B09E029463A
S3150800DEF801A8FFF7E3FFD5F84C3C019A9A4206D1E8
S3150800DF080C4B236020460023636002B070BD53F8AB
S3150800DF18041BC5F84C3C8B89CA899BB29342E6D048
S3150800DF28CB81304605F0A2FEDFE700BF453B010876
S3150800DF38D9DE000889DE00080B681968136808889E
S3150800DF481B681B8898422CBF002001207047D0F810
S3150800DF5810242DE9F34180460F4600F11004C2B19A
S3150800DF6804EB8202121B92102646002A13DD55106E
S3150800DF78294601A80196FFF733FF019B1968096826
S3150800DF880988B9423EBF551B05F1FF351E1D2A46AD
S3150800DF98EBE72246E6E7D8F810340BB104EB83041E
S3150800DFA8B44208D0306803681B88BB4288BF002083
S3150800DFB802B0BDE8F0810020FAE700F21C4005F03F
S3150800DFC835BF37B5044600F11005014601A8FFF725
S3150800DFD875FF019BAB4205D055F8041B2046FFF791
S3150800DFE8ECFFF6E703B030BD00F11003C0F84C3C6F
S3150800DFF8B0F8503C01339BB2A0F8503C012380F896
S3150800E008583C704773B50446014601A8FFF756FF02
S3150800E01804F11006019BB3420BD056F8045B284658
S3150800E028FFF714FD0028F5D0AB8901339BB2AB8105
S3150800E038F0E72046FFF7D8FF02B070BD10B50446D2
S3150800E04800F21C4005F03CFEB4F8543C01339BB280
S3150800E058A4F8543C012384F8583C10BD2DE9F74F21
S3150800E068D0F810740191064600F11004CFB104EBFC
S3150800E07887052D1BAD10A046002D65D04FEA550B18
S3150800E0884FEA8B0A08EB0A0901AA49462046FFF710
S3150800E09853FF40B1013D09F10408A5EB0B0B5D469A
S3150800E0A8EAE72546E5E74A4601A92046FFF744FF79
S3150800E0B80028F4D108EB85054FEAAA0ABAF1000F39
S3150800E0C814D04FEA5A0B08EB8B03194601AA2046C7
S3150800E0D80093FFF731FF009B30B10AF1FF3AAAEB2C
S3150800E0E80B0A03F10408E9E7DA46E7E709F1040940
S3150800E0F8A5EB0905AD108DB14FEA550A09EB8A0B50
S3150800E1085A4601A92046FFF717FF28B9013DA5EB8E
S3150800E1180A050BF10409EEE75546ECE7C14513D0A5
S3150800E12804EB8704A14507D0A4EB090540462A460F
S3150800E13849460BF063FEA844D6F81034A4EB080445
S3150800E148A3EBA404C6F8104403B0BDE8F08F00009A
S3150800E15870B50446FDF780FA154B2360154B1C600D
S3150800E168154BC4F814340025012304F21C4684F818
S3150800E1781834C4F81054304606F04EF80F4BC4F855
S3150800E188443C214604F64C40C4F8485CFFF796FE22
S3150800E198A4F8505C84F8585CA4F8525C3046A4F895
S3150800E1A8545CA4F8565C05F09FFD204670BD00BF78
S3150800E1B86CA40108A82000202C9F0108F5DD00089A
S3150800E1C82DE9F74FD1F80074002380460C4691468E
S3150800E1D803600371BFB101EB870AAAEB0406B61000
S3150800E1E82546A6B14FEA560B05EB8B0319464A4650
S3150800E1F820460193FFF7A0FE019B30B1013EA6EB2E
S3150800E2080B061D1DEDE78A46E7E75E46E9E7AA45D8
S3150800E21807D10123B7F5807F88F804300ED10BF0B3
S3150800E228BDFD2A4649462046FFF786FE0028F0D156
S3150800E2384046C8F8005003B0BDE8F08F04EB8706DF
S3150800E248B54206D1D9F800302B600137C4F80074F6
S3150800E258EEE7371F0422394630460BF0CFFDD4F8CF
S3150800E26800347A1B0133C4F800342946B01A0BF077
S3150800E278C5FDD9F800302B60DAE71FB5019101AA68
S3150800E28800F1100102A8FFF79BFF05B05DF804FB33
S3150800E29810B5074B0360044600F21C4005F070FCF5
S3150800E2A8044B002220461A60FDF7CDF9204610BD1A
S3150800E2B86CA40108A820002010B50446FFF7E8FF5B
S3150800E2C8204640F65C41FDF715FC204610BD37B5DB
S3150800E2D8044600F21C4005F039FCD4F8483C5A10AC
S3150800E2E813F0010F04EB0201D4F8443C18BFA258F6
S3150800E2F86D46284618BFD358984795E8030004F68C
S3150800E308444484E8030003B030BD10B50D291CD871
S3150800E318DFE801F01D1D071F1D071F09090F15094D
S3150800E3280F15022010BD18680368BDE810409B68E1
S3150800E3381847186803689B6898474000F2E7186802
S3150800E34803689B6898478000ECE70BF027FD0120D7
S3150800E358E8E70420E6E77FB50346406804AAC14310
S3150800E368059281424FF00002CDE902228DF8042079
S3150800E3788DF8002003F1080305AAB8BF0146FFF780
S3150800E388C4FF80B207B05DF804FB808870478180B7
S3150800E398012070474368188C7047000010B5094B70
S3150800E3A8044640F8443BFFF75FFB04F12C00FFF7EF
S3150800E3B85BFB04F11000FFF757FB2046FDF743F90E
S3150800E3C8204610BDACA4010810B50446FFF7E6FFC1
S3150800E3D820465421FDF78EFB204610BD0346C0682B
S3150800E3E8198CB3F8402003688A1A51425B68514170
S3150800E3F81847FFF7F3BF08B5B0F8403023B10184D2
S3150800E408FFF7ECFF012008BD1846FCE74068FFF750
S3150800E418F2BF000038B50446FDF71EF9124B236013
S3150800E428124B13491A6802F21442E26004F110000A
S3150800E438FFF770FA0F4B10490025C4E9093404F1AF
S3150800E4482402258404F12C00FFF77DFA0B4BE363BD
S3150800E458A4F8405004F13C02094904F14400FFF7C6
S3150800E46872FA204638BD00BFACA40108A8200020CF
S3150800E47830B401088CA4010860B401089CA40108FA
S3150800E488A8B6010810B5074B044640F8743BFFF7D1
S3150800E498EBFA04F15400FFF7E7FA2046FDF7D3F83C
S3150800E4A8204610BDCCA4010810B50446FFF7EAFFBC
S3150800E4B820468421FDF71EFB204610BD10B50446EC
S3150800E4C8806E70B1E06803681B68984723695843EB
S3150800E4D8A36EB0FBF3F043F69823984228BF184674
S3150800E4E880B210BDD0E90B239B1A5810002BB8BF71
